{
  "abi": [
    {
      "inputs": [
        {
          "internalType": "contract KeeperRegistryLogic1_3",
          "name": "keeperRegistryLogic",
          "type": "address"
        },
        {
          "components": [
            {
              "internalType": "uint32",
              "name": "paymentPremiumPPB",
              "type": "uint32"
            },
            {
              "internalType": "uint32",
              "name": "flatFeeMicroLink",
              "type": "uint32"
            },
            {
              "internalType": "uint24",
              "name": "blockCountPerTurn",
              "type": "uint24"
            },
            {
              "internalType": "uint32",
              "name": "checkGasLimit",
              "type": "uint32"
            },
            {
              "internalType": "uint24",
              "name": "stalenessSeconds",
              "type": "uint24"
            },
            {
              "internalType": "uint16",
              "name": "gasCeilingMultiplier",
              "type": "uint16"
            },
            {
              "internalType": "uint96",
              "name": "minUpkeepSpend",
              "type": "uint96"
            },
            {
              "internalType": "uint32",
              "name": "maxPerformGas",
              "type": "uint32"
            },
            {
              "internalType": "uint256",
              "name": "fallbackGasPrice",
              "type": "uint256"
            },
            {
              "internalType": "uint256",
              "name": "fallbackLinkPrice",
              "type": "uint256"
            },
            {
              "internalType": "address",
              "name": "transcoder",
              "type": "address"
            },
            {
              "internalType": "address",
              "name": "registrar",
              "type": "address"
            }
          ],
          "internalType": "struct Config",
          "name": "config",
          "type": "tuple"
        }
      ],
      "stateMutability": "nonpayable",
      "type": "constructor"
    },
    {
      "inputs": [],
      "name": "ArrayHasNoEntries",
      "type": "error"
    },
    {
      "inputs": [],
      "name": "CannotCancel",
      "type": "error"
    },
    {
      "inputs": [],
      "name": "DuplicateEntry",
      "type": "error"
    },
    {
      "inputs": [],
      "name": "EmptyAddress",
      "type": "error"
    },
    {
      "inputs": [],
      "name": "GasLimitCanOnlyIncrease",
      "type": "error"
    },
    {
      "inputs": [],
      "name": "GasLimitOutsideRange",
      "type": "error"
    },
    {
      "inputs": [],
      "name": "IndexOutOfRange",
      "type": "error"
    },
    {
      "inputs": [],
      "name": "InsufficientFunds",
      "type": "error"
    },
    {
      "inputs": [],
      "name": "InvalidDataLength",
      "type": "error"
    },
    {
      "inputs": [],
      "name": "InvalidPayee",
      "type": "error"
    },
    {
      "inputs": [],
      "name": "InvalidRecipient",
      "type": "error"
    },
    {
      "inputs": [],
      "name": "KeepersMustTakeTurns",
      "type": "error"
    },
    {
      "inputs": [],
      "name": "MigrationNotPermitted",
      "type": "error"
    },
    {
      "inputs": [],
      "name": "NotAContract",
      "type": "error"
    },
    {
      "inputs": [],
      "name": "OnlyActiveKeepers",
      "type": "error"
    },
    {
      "inputs": [],
      "name": "OnlyCallableByAdmin",
      "type": "error"
    },
    {
      "inputs": [],
      "name": "OnlyCallableByLINKToken",
      "type": "error"
    },
    {
      "inputs": [],
      "name": "OnlyCallableByOwnerOrAdmin",
      "type": "error"
    },
    {
      "inputs": [],
      "name": "OnlyCallableByOwnerOrRegistrar",
      "type": "error"
    },
    {
      "inputs": [],
      "name": "OnlyCallableByPayee",
      "type": "error"
    },
    {
      "inputs": [],
      "name": "OnlyCallableByProposedAdmin",
      "type": "error"
    },
    {
      "inputs": [],
      "name": "OnlyCallableByProposedPayee",
      "type": "error"
    },
    {
      "inputs": [],
      "name": "OnlyPausedUpkeep",
      "type": "error"
    },
    {
      "inputs": [],
      "name": "OnlySimulatedBackend",
      "type": "error"
    },
    {
      "inputs": [],
      "name": "OnlyUnpausedUpkeep",
      "type": "error"
    },
    {
      "inputs": [],
      "name": "ParameterLengthError",
      "type": "error"
    },
    {
      "inputs": [],
      "name": "PaymentGreaterThanAllLINK",
      "type": "error"
    },
    {
      "inputs": [
        {
          "internalType": "bytes",
          "name": "reason",
          "type": "bytes"
        }
      ],
      "name": "TargetCheckReverted",
      "type": "error"
    },
    {
      "inputs": [],
      "name": "TranscoderNotSet",
      "type": "error"
    },
    {
      "inputs": [],
      "name": "UpkeepCancelled",
      "type": "error"
    },
    {
      "inputs": [],
      "name": "UpkeepNotCanceled",
      "type": "error"
    },
    {
      "inputs": [],
      "name": "UpkeepNotNeeded",
      "type": "error"
    },
    {
      "inputs": [],
      "name": "ValueNotChanged",
      "type": "error"
    },
    {
      "anonymous": false,
      "inputs": [
        {
          "components": [
            {
              "internalType": "uint32",
              "name": "paymentPremiumPPB",
              "type": "uint32"
            },
            {
              "internalType": "uint32",
              "name": "flatFeeMicroLink",
              "type": "uint32"
            },
            {
              "internalType": "uint24",
              "name": "blockCountPerTurn",
              "type": "uint24"
            },
            {
              "internalType": "uint32",
              "name": "checkGasLimit",
              "type": "uint32"
            },
            {
              "internalType": "uint24",
              "name": "stalenessSeconds",
              "type": "uint24"
            },
            {
              "internalType": "uint16",
              "name": "gasCeilingMultiplier",
              "type": "uint16"
            },
            {
              "internalType": "uint96",
              "name": "minUpkeepSpend",
              "type": "uint96"
            },
            {
              "internalType": "uint32",
              "name": "maxPerformGas",
              "type": "uint32"
            },
            {
              "internalType": "uint256",
              "name": "fallbackGasPrice",
              "type": "uint256"
            },
            {
              "internalType": "uint256",
              "name": "fallbackLinkPrice",
              "type": "uint256"
            },
            {
              "internalType": "address",
              "name": "transcoder",
              "type": "address"
            },
            {
              "internalType": "address",
              "name": "registrar",
              "type": "address"
            }
          ],
          "indexed": false,
          "internalType": "struct Config",
          "name": "config",
          "type": "tuple"
        }
      ],
      "name": "ConfigSet",
      "type": "event"
    },
    {
      "anonymous": false,
      "inputs": [
        {
          "indexed": true,
          "internalType": "uint256",
          "name": "id",
          "type": "uint256"
        },
        {
          "indexed": true,
          "internalType": "address",
          "name": "from",
          "type": "address"
        },
        {
          "indexed": false,
          "internalType": "uint96",
          "name": "amount",
          "type": "uint96"
        }
      ],
      "name": "FundsAdded",
      "type": "event"
    },
    {
      "anonymous": false,
      "inputs": [
        {
          "indexed": true,
          "internalType": "uint256",
          "name": "id",
          "type": "uint256"
        },
        {
          "indexed": false,
          "internalType": "uint256",
          "name": "amount",
          "type": "uint256"
        },
        {
          "indexed": false,
          "internalType": "address",
          "name": "to",
          "type": "address"
        }
      ],
      "name": "FundsWithdrawn",
      "type": "event"
    },
    {
      "anonymous": false,
      "inputs": [
        {
          "indexed": false,
          "internalType": "address[]",
          "name": "keepers",
          "type": "address[]"
        },
        {
          "indexed": false,
          "internalType": "address[]",
          "name": "payees",
          "type": "address[]"
        }
      ],
      "name": "KeepersUpdated",
      "type": "event"
    },
    {
      "anonymous": false,
      "inputs": [
        {
          "indexed": false,
          "internalType": "uint96",
          "name": "amount",
          "type": "uint96"
        }
      ],
      "name": "OwnerFundsWithdrawn",
      "type": "event"
    },
    {
      "anonymous": false,
      "inputs": [
        {
          "indexed": true,
          "internalType": "address",
          "name": "from",
          "type": "address"
        },
        {
          "indexed": true,
          "internalType": "address",
          "name": "to",
          "type": "address"
        }
      ],
      "name": "OwnershipTransferRequested",
      "type": "event"
    },
    {
      "anonymous": false,
      "inputs": [
        {
          "indexed": true,
          "internalType": "address",
          "name": "from",
          "type": "address"
        },
        {
          "indexed": true,
          "internalType": "address",
          "name": "to",
          "type": "address"
        }
      ],
      "name": "OwnershipTransferred",
      "type": "event"
    },
    {
      "anonymous": false,
      "inputs": [
        {
          "indexed": false,
          "internalType": "address",
          "name": "account",
          "type": "address"
        }
      ],
      "name": "Paused",
      "type": "event"
    },
    {
      "anonymous": false,
      "inputs": [
        {
          "indexed": true,
          "internalType": "address",
          "name": "keeper",
          "type": "address"
        },
        {
          "indexed": true,
          "internalType": "address",
          "name": "from",
          "type": "address"
        },
        {
          "indexed": true,
          "internalType": "address",
          "name": "to",
          "type": "address"
        }
      ],
      "name": "PayeeshipTransferRequested",
      "type": "event"
    },
    {
      "anonymous": false,
      "inputs": [
        {
          "indexed": true,
          "internalType": "address",
          "name": "keeper",
          "type": "address"
        },
        {
          "indexed": true,
          "internalType": "address",
          "name": "from",
          "type": "address"
        },
        {
          "indexed": true,
          "internalType": "address",
          "name": "to",
          "type": "address"
        }
      ],
      "name": "PayeeshipTransferred",
      "type": "event"
    },
    {
      "anonymous": false,
      "inputs": [
        {
          "indexed": true,
          "internalType": "address",
          "name": "keeper",
          "type": "address"
        },
        {
          "indexed": true,
          "internalType": "uint256",
          "name": "amount",
          "type": "uint256"
        },
        {
          "indexed": true,
          "internalType": "address",
          "name": "to",
          "type": "address"
        },
        {
          "indexed": false,
          "internalType": "address",
          "name": "payee",
          "type": "address"
        }
      ],
      "name": "PaymentWithdrawn",
      "type": "event"
    },
    {
      "anonymous": false,
      "inputs": [
        {
          "indexed": false,
          "internalType": "address",
          "name": "account",
          "type": "address"
        }
      ],
      "name": "Unpaused",
      "type": "event"
    },
    {
      "anonymous": false,
      "inputs": [
        {
          "indexed": true,
          "internalType": "uint256",
          "name": "id",
          "type": "uint256"
        },
        {
          "indexed": true,
          "internalType": "address",
          "name": "from",
          "type": "address"
        },
        {
          "indexed": true,
          "internalType": "address",
          "name": "to",
          "type": "address"
        }
      ],
      "name": "UpkeepAdminTransferRequested",
      "type": "event"
    },
    {
      "anonymous": false,
      "inputs": [
        {
          "indexed": true,
          "internalType": "uint256",
          "name": "id",
          "type": "uint256"
        },
        {
          "indexed": true,
          "internalType": "address",
          "name": "from",
          "type": "address"
        },
        {
          "indexed": true,
          "internalType": "address",
          "name": "to",
          "type": "address"
        }
      ],
      "name": "UpkeepAdminTransferred",
      "type": "event"
    },
    {
      "anonymous": false,
      "inputs": [
        {
          "indexed": true,
          "internalType": "uint256",
          "name": "id",
          "type": "uint256"
        },
        {
          "indexed": true,
          "internalType": "uint64",
          "name": "atBlockHeight",
          "type": "uint64"
        }
      ],
      "name": "UpkeepCanceled",
      "type": "event"
    },
    {
      "anonymous": false,
      "inputs": [
        {
          "indexed": true,
          "internalType": "uint256",
          "name": "id",
          "type": "uint256"
        },
        {
          "indexed": false,
          "internalType": "bytes",
          "name": "newCheckData",
          "type": "bytes"
        }
      ],
      "name": "UpkeepCheckDataUpdated",
      "type": "event"
    },
    {
      "anonymous": false,
      "inputs": [
        {
          "indexed": true,
          "internalType": "uint256",
          "name": "id",
          "type": "uint256"
        },
        {
          "indexed": false,
          "internalType": "uint96",
          "name": "gasLimit",
          "type": "uint96"
        }
      ],
      "name": "UpkeepGasLimitSet",
      "type": "event"
    },
    {
      "anonymous": false,
      "inputs": [
        {
          "indexed": true,
          "internalType": "uint256",
          "name": "id",
          "type": "uint256"
        },
        {
          "indexed": false,
          "internalType": "uint256",
          "name": "remainingBalance",
          "type": "uint256"
        },
        {
          "indexed": false,
          "internalType": "address",
          "name": "destination",
          "type": "address"
        }
      ],
      "name": "UpkeepMigrated",
      "type": "event"
    },
    {
      "anonymous": false,
      "inputs": [
        {
          "indexed": true,
          "internalType": "uint256",
          "name": "id",
          "type": "uint256"
        }
      ],
      "name": "UpkeepPaused",
      "type": "event"
    },
    {
      "anonymous": false,
      "inputs": [
        {
          "indexed": true,
          "internalType": "uint256",
          "name": "id",
          "type": "uint256"
        },
        {
          "indexed": true,
          "internalType": "bool",
          "name": "success",
          "type": "bool"
        },
        {
          "indexed": true,
          "internalType": "address",
          "name": "from",
          "type": "address"
        },
        {
          "indexed": false,
          "internalType": "uint96",
          "name": "payment",
          "type": "uint96"
        },
        {
          "indexed": false,
          "internalType": "bytes",
          "name": "performData",
          "type": "bytes"
        }
      ],
      "name": "UpkeepPerformed",
      "type": "event"
    },
    {
      "anonymous": false,
      "inputs": [
        {
          "indexed": true,
          "internalType": "uint256",
          "name": "id",
          "type": "uint256"
        },
        {
          "indexed": false,
          "internalType": "uint256",
          "name": "startingBalance",
          "type": "uint256"
        },
        {
          "indexed": false,
          "internalType": "address",
          "name": "importedFrom",
          "type": "address"
        }
      ],
      "name": "UpkeepReceived",
      "type": "event"
    },
    {
      "anonymous": false,
      "inputs": [
        {
          "indexed": true,
          "internalType": "uint256",
          "name": "id",
          "type": "uint256"
        },
        {
          "indexed": false,
          "internalType": "uint32",
          "name": "executeGas",
          "type": "uint32"
        },
        {
          "indexed": false,
          "internalType": "address",
          "name": "admin",
          "type": "address"
        }
      ],
      "name": "UpkeepRegistered",
      "type": "event"
    },
    {
      "anonymous": false,
      "inputs": [
        {
          "indexed": true,
          "internalType": "uint256",
          "name": "id",
          "type": "uint256"
        }
      ],
      "name": "UpkeepUnpaused",
      "type": "event"
    },
    {
      "stateMutability": "payable",
      "type": "fallback"
    },
    {
      "inputs": [],
      "name": "ARB_NITRO_ORACLE",
      "outputs": [
        {
          "internalType": "contract ArbGasInfo",
          "name": "",
          "type": "address"
        }
      ],
      "stateMutability": "view",
      "type": "function"
    },
    {
      "inputs": [],
      "name": "FAST_GAS_FEED",
      "outputs": [
        {
          "internalType": "contract AggregatorV3Interface",
          "name": "",
          "type": "address"
        }
      ],
      "stateMutability": "view",
      "type": "function"
    },
    {
      "inputs": [],
      "name": "KEEPER_REGISTRY_LOGIC",
      "outputs": [
        {
          "internalType": "address",
          "name": "",
          "type": "address"
        }
      ],
      "stateMutability": "view",
      "type": "function"
    },
    {
      "inputs": [],
      "name": "LINK",
      "outputs": [
        {
          "internalType": "contract LinkTokenInterface",
          "name": "",
          "type": "address"
        }
      ],
      "stateMutability": "view",
      "type": "function"
    },
    {
      "inputs": [],
      "name": "LINK_ETH_FEED",
      "outputs": [
        {
          "internalType": "contract AggregatorV3Interface",
          "name": "",
          "type": "address"
        }
      ],
      "stateMutability": "view",
      "type": "function"
    },
    {
      "inputs": [],
      "name": "OPTIMISM_ORACLE",
      "outputs": [
        {
          "internalType": "contract OVM_GasPriceOracle",
          "name": "",
          "type": "address"
        }
      ],
      "stateMutability": "view",
      "type": "function"
    },
    {
      "inputs": [],
      "name": "PAYMENT_MODEL",
      "outputs": [
        {
          "internalType": "enum KeeperRegistryBase1_3.PaymentModel",
          "name": "",
          "type": "uint8"
        }
      ],
      "stateMutability": "view",
      "type": "function"
    },
    {
      "inputs": [],
      "name": "REGISTRY_GAS_OVERHEAD",
      "outputs": [
        {
          "internalType": "uint256",
          "name": "",
          "type": "uint256"
        }
      ],
      "stateMutability": "view",
      "type": "function"
    },
    {
      "inputs": [],
      "name": "acceptOwnership",
      "outputs": [],
      "stateMutability": "nonpayable",
      "type": "function"
    },
    {
      "inputs": [
        {
          "internalType": "address",
          "name": "keeper",
          "type": "address"
        }
      ],
      "name": "acceptPayeeship",
      "outputs": [],
      "stateMutability": "nonpayable",
      "type": "function"
    },
    {
      "inputs": [
        {
          "internalType": "uint256",
          "name": "id",
          "type": "uint256"
        }
      ],
      "name": "acceptUpkeepAdmin",
      "outputs": [],
      "stateMutability": "nonpayable",
      "type": "function"
    },
    {
      "inputs": [
        {
          "internalType": "uint256",
          "name": "id",
          "type": "uint256"
        },
        {
          "internalType": "uint96",
          "name": "amount",
          "type": "uint96"
        }
      ],
      "name": "addFunds",
      "outputs": [],
      "stateMutability": "nonpayable",
      "type": "function"
    },
    {
      "inputs": [
        {
          "internalType": "uint256",
          "name": "id",
          "type": "uint256"
        }
      ],
      "name": "cancelUpkeep",
      "outputs": [],
      "stateMutability": "nonpayable",
      "type": "function"
    },
    {
      "inputs": [
        {
          "internalType": "uint256",
          "name": "id",
          "type": "uint256"
        },
        {
          "internalType": "address",
          "name": "from",
          "type": "address"
        }
      ],
      "name": "checkUpkeep",
      "outputs": [
        {
          "internalType": "bytes",
          "name": "performData",
          "type": "bytes"
        },
        {
          "internalType": "uint256",
          "name": "maxLinkPayment",
          "type": "uint256"
        },
        {
          "internalType": "uint256",
          "name": "gasLimit",
          "type": "uint256"
        },
        {
          "internalType": "uint256",
          "name": "adjustedGasWei",
          "type": "uint256"
        },
        {
          "internalType": "uint256",
          "name": "linkEth",
          "type": "uint256"
        }
      ],
      "stateMutability": "nonpayable",
      "type": "function"
    },
    {
      "inputs": [
        {
          "internalType": "uint256",
          "name": "startIndex",
          "type": "uint256"
        },
        {
          "internalType": "uint256",
          "name": "maxCount",
          "type": "uint256"
        }
      ],
      "name": "getActiveUpkeepIDs",
      "outputs": [
        {
          "internalType": "uint256[]",
          "name": "",
          "type": "uint256[]"
        }
      ],
      "stateMutability": "view",
      "type": "function"
    },
    {
      "inputs": [
        {
          "internalType": "address",
          "name": "query",
          "type": "address"
        }
      ],
      "name": "getKeeperInfo",
      "outputs": [
        {
          "internalType": "address",
          "name": "payee",
          "type": "address"
        },
        {
          "internalType": "bool",
          "name": "active",
          "type": "bool"
        },
        {
          "internalType": "uint96",
          "name": "balance",
          "type": "uint96"
        }
      ],
      "stateMutability": "view",
      "type": "function"
    },
    {
      "inputs": [
        {
          "internalType": "uint256",
          "name": "gasLimit",
          "type": "uint256"
        }
      ],
      "name": "getMaxPaymentForGas",
      "outputs": [
        {
          "internalType": "uint96",
          "name": "maxPayment",
          "type": "uint96"
        }
      ],
      "stateMutability": "view",
      "type": "function"
    },
    {
      "inputs": [
        {
          "internalType": "uint256",
          "name": "id",
          "type": "uint256"
        }
      ],
      "name": "getMinBalanceForUpkeep",
      "outputs": [
        {
          "internalType": "uint96",
          "name": "minBalance",
          "type": "uint96"
        }
      ],
      "stateMutability": "view",
      "type": "function"
    },
    {
      "inputs": [
        {
          "internalType": "address",
          "name": "peer",
          "type": "address"
        }
      ],
      "name": "getPeerRegistryMigrationPermission",
      "outputs": [
        {
          "internalType": "enum KeeperRegistryBase1_3.MigrationPermission",
          "name": "",
          "type": "uint8"
        }
      ],
      "stateMutability": "view",
      "type": "function"
    },
    {
      "inputs": [],
      "name": "getState",
      "outputs": [
        {
          "components": [
            {
              "internalType": "uint32",
              "name": "nonce",
              "type": "uint32"
            },
            {
              "internalType": "uint96",
              "name": "ownerLinkBalance",
              "type": "uint96"
            },
            {
              "internalType": "uint256",
              "name": "expectedLinkBalance",
              "type": "uint256"
            },
            {
              "internalType": "uint256",
              "name": "numUpkeeps",
              "type": "uint256"
            }
          ],
          "internalType": "struct State",
          "name": "state",
          "type": "tuple"
        },
        {
          "components": [
            {
              "internalType": "uint32",
              "name": "paymentPremiumPPB",
              "type": "uint32"
            },
            {
              "internalType": "uint32",
              "name": "flatFeeMicroLink",
              "type": "uint32"
            },
            {
              "internalType": "uint24",
              "name": "blockCountPerTurn",
              "type": "uint24"
            },
            {
              "internalType": "uint32",
              "name": "checkGasLimit",
              "type": "uint32"
            },
            {
              "internalType": "uint24",
              "name": "stalenessSeconds",
              "type": "uint24"
            },
            {
              "internalType": "uint16",
              "name": "gasCeilingMultiplier",
              "type": "uint16"
            },
            {
              "internalType": "uint96",
              "name": "minUpkeepSpend",
              "type": "uint96"
            },
            {
              "internalType": "uint32",
              "name": "maxPerformGas",
              "type": "uint32"
            },
            {
              "internalType": "uint256",
              "name": "fallbackGasPrice",
              "type": "uint256"
            },
            {
              "internalType": "uint256",
              "name": "fallbackLinkPrice",
              "type": "uint256"
            },
            {
              "internalType": "address",
              "name": "transcoder",
              "type": "address"
            },
            {
              "internalType": "address",
              "name": "registrar",
              "type": "address"
            }
          ],
          "internalType": "struct Config",
          "name": "config",
          "type": "tuple"
        },
        {
          "internalType": "address[]",
          "name": "keepers",
          "type": "address[]"
        }
      ],
      "stateMutability": "view",
      "type": "function"
    },
    {
      "inputs": [
        {
          "internalType": "uint256",
          "name": "id",
          "type": "uint256"
        }
      ],
      "name": "getUpkeep",
      "outputs": [
        {
          "internalType": "address",
          "name": "target",
          "type": "address"
        },
        {
          "internalType": "uint32",
          "name": "executeGas",
          "type": "uint32"
        },
        {
          "internalType": "bytes",
          "name": "checkData",
          "type": "bytes"
        },
        {
          "internalType": "uint96",
          "name": "balance",
          "type": "uint96"
        },
        {
          "internalType": "address",
          "name": "lastKeeper",
          "type": "address"
        },
        {
          "internalType": "address",
          "name": "admin",
          "type": "address"
        },
        {
          "internalType": "uint64",
          "name": "maxValidBlocknumber",
          "type": "uint64"
        },
        {
          "internalType": "uint96",
          "name": "amountSpent",
          "type": "uint96"
        },
        {
          "internalType": "bool",
          "name": "paused",
          "type": "bool"
        }
      ],
      "stateMutability": "view",
      "type": "function"
    },
    {
      "inputs": [
        {
          "internalType": "uint256[]",
          "name": "ids",
          "type": "uint256[]"
        },
        {
          "internalType": "address",
          "name": "destination",
          "type": "address"
        }
      ],
      "name": "migrateUpkeeps",
      "outputs": [],
      "stateMutability": "nonpayable",
      "type": "function"
    },
    {
      "inputs": [
        {
          "internalType": "address",
          "name": "sender",
          "type": "address"
        },
        {
          "internalType": "uint256",
          "name": "amount",
          "type": "uint256"
        },
        {
          "internalType": "bytes",
          "name": "data",
          "type": "bytes"
        }
      ],
      "name": "onTokenTransfer",
      "outputs": [],
      "stateMutability": "nonpayable",
      "type": "function"
    },
    {
      "inputs": [],
      "name": "owner",
      "outputs": [
        {
          "internalType": "address",
          "name": "",
          "type": "address"
        }
      ],
      "stateMutability": "view",
      "type": "function"
    },
    {
      "inputs": [],
      "name": "pause",
      "outputs": [],
      "stateMutability": "nonpayable",
      "type": "function"
    },
    {
      "inputs": [
        {
          "internalType": "uint256",
          "name": "id",
          "type": "uint256"
        }
      ],
      "name": "pauseUpkeep",
      "outputs": [],
      "stateMutability": "nonpayable",
      "type": "function"
    },
    {
      "inputs": [],
      "name": "paused",
      "outputs": [
        {
          "internalType": "bool",
          "name": "",
          "type": "bool"
        }
      ],
      "stateMutability": "view",
      "type": "function"
    },
    {
      "inputs": [
        {
          "internalType": "uint256",
          "name": "id",
          "type": "uint256"
        },
        {
          "internalType": "bytes",
          "name": "performData",
          "type": "bytes"
        }
      ],
      "name": "performUpkeep",
      "outputs": [
        {
          "internalType": "bool",
          "name": "success",
          "type": "bool"
        }
      ],
      "stateMutability": "nonpayable",
      "type": "function"
    },
    {
      "inputs": [
        {
          "internalType": "bytes",
          "name": "encodedUpkeeps",
          "type": "bytes"
        }
      ],
      "name": "receiveUpkeeps",
      "outputs": [],
      "stateMutability": "nonpayable",
      "type": "function"
    },
    {
      "inputs": [],
      "name": "recoverFunds",
      "outputs": [],
      "stateMutability": "nonpayable",
      "type": "function"
    },
    {
      "inputs": [
        {
          "internalType": "address",
          "name": "target",
          "type": "address"
        },
        {
          "internalType": "uint32",
          "name": "gasLimit",
          "type": "uint32"
        },
        {
          "internalType": "address",
          "name": "admin",
          "type": "address"
        },
        {
          "internalType": "bytes",
          "name": "checkData",
          "type": "bytes"
        }
      ],
      "name": "registerUpkeep",
      "outputs": [
        {
          "internalType": "uint256",
          "name": "id",
          "type": "uint256"
        }
      ],
      "stateMutability": "nonpayable",
      "type": "function"
    },
    {
      "inputs": [
        {
          "components": [
            {
              "internalType": "uint32",
              "name": "paymentPremiumPPB",
              "type": "uint32"
            },
            {
              "internalType": "uint32",
              "name": "flatFeeMicroLink",
              "type": "uint32"
            },
            {
              "internalType": "uint24",
              "name": "blockCountPerTurn",
              "type": "uint24"
            },
            {
              "internalType": "uint32",
              "name": "checkGasLimit",
              "type": "uint32"
            },
            {
              "internalType": "uint24",
              "name": "stalenessSeconds",
              "type": "uint24"
            },
            {
              "internalType": "uint16",
              "name": "gasCeilingMultiplier",
              "type": "uint16"
            },
            {
              "internalType": "uint96",
              "name": "minUpkeepSpend",
              "type": "uint96"
            },
            {
              "internalType": "uint32",
              "name": "maxPerformGas",
              "type": "uint32"
            },
            {
              "internalType": "uint256",
              "name": "fallbackGasPrice",
              "type": "uint256"
            },
            {
              "internalType": "uint256",
              "name": "fallbackLinkPrice",
              "type": "uint256"
            },
            {
              "internalType": "address",
              "name": "transcoder",
              "type": "address"
            },
            {
              "internalType": "address",
              "name": "registrar",
              "type": "address"
            }
          ],
          "internalType": "struct Config",
          "name": "config",
          "type": "tuple"
        }
      ],
      "name": "setConfig",
      "outputs": [],
      "stateMutability": "nonpayable",
      "type": "function"
    },
    {
      "inputs": [
        {
          "internalType": "address[]",
          "name": "keepers",
          "type": "address[]"
        },
        {
          "internalType": "address[]",
          "name": "payees",
          "type": "address[]"
        }
      ],
      "name": "setKeepers",
      "outputs": [],
      "stateMutability": "nonpayable",
      "type": "function"
    },
    {
      "inputs": [
        {
          "internalType": "address",
          "name": "peer",
          "type": "address"
        },
        {
          "internalType": "enum KeeperRegistryBase1_3.MigrationPermission",
          "name": "permission",
          "type": "uint8"
        }
      ],
      "name": "setPeerRegistryMigrationPermission",
      "outputs": [],
      "stateMutability": "nonpayable",
      "type": "function"
    },
    {
      "inputs": [
        {
          "internalType": "uint256",
          "name": "id",
          "type": "uint256"
        },
        {
          "internalType": "uint32",
          "name": "gasLimit",
          "type": "uint32"
        }
      ],
      "name": "setUpkeepGasLimit",
      "outputs": [],
      "stateMutability": "nonpayable",
      "type": "function"
    },
    {
      "inputs": [
        {
          "internalType": "address",
          "name": "to",
          "type": "address"
        }
      ],
      "name": "transferOwnership",
      "outputs": [],
      "stateMutability": "nonpayable",
      "type": "function"
    },
    {
      "inputs": [
        {
          "internalType": "address",
          "name": "keeper",
          "type": "address"
        },
        {
          "internalType": "address",
          "name": "proposed",
          "type": "address"
        }
      ],
      "name": "transferPayeeship",
      "outputs": [],
      "stateMutability": "nonpayable",
      "type": "function"
    },
    {
      "inputs": [
        {
          "internalType": "uint256",
          "name": "id",
          "type": "uint256"
        },
        {
          "internalType": "address",
          "name": "proposed",
          "type": "address"
        }
      ],
      "name": "transferUpkeepAdmin",
      "outputs": [],
      "stateMutability": "nonpayable",
      "type": "function"
    },
    {
      "inputs": [],
      "name": "typeAndVersion",
      "outputs": [
        {
          "internalType": "string",
          "name": "",
          "type": "string"
        }
      ],
      "stateMutability": "view",
      "type": "function"
    },
    {
      "inputs": [],
      "name": "unpause",
      "outputs": [],
      "stateMutability": "nonpayable",
      "type": "function"
    },
    {
      "inputs": [
        {
          "internalType": "uint256",
          "name": "id",
          "type": "uint256"
        }
      ],
      "name": "unpauseUpkeep",
      "outputs": [],
      "stateMutability": "nonpayable",
      "type": "function"
    },
    {
      "inputs": [
        {
          "internalType": "uint256",
          "name": "id",
          "type": "uint256"
        },
        {
          "internalType": "bytes",
          "name": "newCheckData",
          "type": "bytes"
        }
      ],
      "name": "updateCheckData",
      "outputs": [],
      "stateMutability": "nonpayable",
      "type": "function"
    },
    {
      "inputs": [],
      "name": "upkeepTranscoderVersion",
      "outputs": [
        {
          "internalType": "enum UpkeepFormat",
          "name": "",
          "type": "uint8"
        }
      ],
      "stateMutability": "view",
      "type": "function"
    },
    {
      "inputs": [
        {
          "internalType": "uint256",
          "name": "id",
          "type": "uint256"
        },
        {
          "internalType": "address",
          "name": "to",
          "type": "address"
        }
      ],
      "name": "withdrawFunds",
      "outputs": [],
      "stateMutability": "nonpayable",
      "type": "function"
    },
    {
      "inputs": [],
      "name": "withdrawOwnerFunds",
      "outputs": [],
      "stateMutability": "nonpayable",
      "type": "function"
    },
    {
      "inputs": [
        {
          "internalType": "address",
          "name": "from",
          "type": "address"
        },
        {
          "internalType": "address",
          "name": "to",
          "type": "address"
        }
      ],
      "name": "withdrawPayment",
      "outputs": [],
      "stateMutability": "nonpayable",
      "type": "function"
    },
    {
      "stateMutability": "payable",
      "type": "receive"
    }
  ],
  "bytecode": {
    "object": "0x6101806040527f420000000000000000000000000000000000000f00000000000000000000000060e0526c6c000000000000000000000000610100523480156200004857600080fd5b5060405162003fa738038062003fa78339810160408190526200006b91620008a7565b816001600160a01b0316638811cbe86040518163ffffffff1660e01b815260040160206040518083038186803b158015620000a557600080fd5b505afa158015620000ba573d6000803e3d6000fd5b505050506040513d601f19601f82011682018060405250810190620000e09190620009ce565b826001600160a01b0316635077b2106040518163ffffffff1660e01b815260040160206040518083038186803b1580156200011a57600080fd5b505afa1580156200012f573d6000803e3d6000fd5b505050506040513d601f19601f82011682018060405250810190620001559190620009f1565b836001600160a01b0316631b6b6d236040518163ffffffff1660e01b815260040160206040518083038186803b1580156200018f57600080fd5b505afa158015620001a4573d6000803e3d6000fd5b505050506040513d601f19601f82011682018060405250810190620001ca919062000880565b846001600160a01b031663ad1783616040518163ffffffff1660e01b815260040160206040518083038186803b1580156200020457600080fd5b505afa15801562000219573d6000803e3d6000fd5b505050506040513d601f19601f820116820180604052508101906200023f919062000880565b856001600160a01b0316634584a4196040518163ffffffff1660e01b815260040160206040518083038186803b1580156200027957600080fd5b505afa1580156200028e573d6000803e3d6000fd5b505050506040513d601f19601f82011682018060405250810190620002b4919062000880565b33806000816200030b5760405162461bcd60e51b815260206004820152601860248201527f43616e6e6f7420736574206f776e657220746f207a65726f000000000000000060448201526064015b60405180910390fd5b600080546001600160a01b0319166001600160a01b03848116919091179091558116156200033e576200033e816200041b565b5050600160029081556003805460ff1916905586915081111562000366576200036662000b42565b6101208160028111156200037e576200037e62000b42565b60f81b9052506101408490526001600160a01b0383161580620003a857506001600160a01b038216155b80620003bb57506001600160a01b038116155b15620003da57604051637138356f60e01b815260040160405180910390fd5b6001600160601b0319606093841b811660805291831b821660a052821b811660c0529085901b16610160525062000413905081620004c7565b505062000b71565b6001600160a01b038116331415620004765760405162461bcd60e51b815260206004820152601760248201527f43616e6e6f74207472616e7366657220746f2073656c66000000000000000000604482015260640162000302565b600180546001600160a01b0319166001600160a01b0383811691821790925560008054604051929316917fed8889f560326eb138920d842192f0eb3dd22b4f139c87a2c57538e05bae12789190a350565b620004d1620007bc565b600e5460e082015163ffffffff918216911610156200050357604051630e6af04160e21b815260040160405180910390fd5b604051806101200160405280826000015163ffffffff168152602001826020015163ffffffff168152602001826040015162ffffff168152602001826060015163ffffffff168152602001826080015162ffffff1681526020018260a0015161ffff1681526020018260c001516001600160601b031681526020018260e0015163ffffffff168152602001600d60010160049054906101000a900463ffffffff1663ffffffff16815250600d60008201518160000160006101000a81548163ffffffff021916908363ffffffff16021790555060208201518160000160046101000a81548163ffffffff021916908363ffffffff16021790555060408201518160000160086101000a81548162ffffff021916908362ffffff160217905550606082015181600001600b6101000a81548163ffffffff021916908363ffffffff160217905550608082015181600001600f6101000a81548162ffffff021916908362ffffff16021790555060a08201518160000160126101000a81548161ffff021916908361ffff16021790555060c08201518160000160146101000a8154816001600160601b0302191690836001600160601b0316021790555060e08201518160010160006101000a81548163ffffffff021916908363ffffffff1602179055506101008201518160010160046101000a81548163ffffffff021916908363ffffffff160217905550905050806101000151600f81905550806101200151601081905550806101400151601360006101000a8154816001600160a01b0302191690836001600160a01b03160217905550806101600151601460006101000a8154816001600160a01b0302191690836001600160a01b031602179055507ffe125a41957477226ba20f85ef30a4024ea3bb8d066521ddc16df3f2944de32581604051620007b1919062000a0b565b60405180910390a150565b6000546001600160a01b03163314620008185760405162461bcd60e51b815260206004820152601660248201527f4f6e6c792063616c6c61626c65206279206f776e657200000000000000000000604482015260640162000302565b565b8051620008278162000b58565b919050565b805161ffff811681146200082757600080fd5b805162ffffff811681146200082757600080fd5b805163ffffffff811681146200082757600080fd5b80516001600160601b03811681146200082757600080fd5b6000602082840312156200089357600080fd5b8151620008a08162000b58565b9392505050565b6000808284036101a0811215620008bd57600080fd5b8351620008ca8162000b58565b9250610180601f198201811315620008e157600080fd5b620008eb62000b0a565b9150620008fb6020860162000853565b82526200090b6040860162000853565b60208301526200091e606086016200083f565b6040830152620009316080860162000853565b60608301526200094460a086016200083f565b60808301526200095760c086016200082c565b60a08301526200096a60e0860162000868565b60c08301526101006200097f81870162000853565b60e084015261012080870151828501526101409150818701518185015250610160620009ad8188016200081a565b82850152620009be8388016200081a565b9084015250929590945092505050565b600060208284031215620009e157600080fd5b815160038110620008a057600080fd5b60006020828403121562000a0457600080fd5b5051919050565b815163ffffffff1681526101808101602083015162000a32602084018263ffffffff169052565b50604083015162000a4a604084018262ffffff169052565b50606083015162000a63606084018263ffffffff169052565b50608083015162000a7b608084018262ffffff169052565b5060a083015162000a9260a084018261ffff169052565b5060c083015162000aae60c08401826001600160601b03169052565b5060e083015162000ac760e084018263ffffffff169052565b5061010083810151908301526101208084015190830152610140808401516001600160a01b03908116918401919091526101609384015116929091019190915290565b60405161018081016001600160401b038111828210171562000b3c57634e487b7160e01b600052604160045260246000fd5b60405290565b634e487b7160e01b600052602160045260246000fd5b6001600160a01b038116811462000b6e57600080fd5b50565b60805160601c60a05160601c60c05160601c60e05160601c6101005160601c6101205160f81c610140516101605160601c61337c62000c2b600039600081816102e0015261096201526000818161051b0152611f4101526000818161067e01528181611f9401526120ea0152600081816105d6015261212201526000818161060a01526120590152600081816104c50152611cce0152600081816107b40152611da20152600081816103d8015261115e015261337c6000f3fe6080604052600436106102815760003560e01c80638811cbe81161014f578063b148ab6b116100c1578063c80480221161007a578063c8048022146107f6578063da5c6741146108b7578063eb5dcd6c1461076c578063ef47a0ce146108d7578063f2fde38b146108f7578063faa3e9961461091757610290565b8063b148ab6b146107f6578063b657bc9c14610811578063b79550be1461049e578063b7fdb43614610831578063c41b813a14610851578063c7c3a19a1461088257610290565b80639fab4386116101135780639fab43861461072c578063a4c0ed361461074c578063a710b2211461076c578063a72aa27e14610787578063ad178361146107a2578063b121e147146107d657610290565b80638811cbe81461066c5780638da5cb5b146106a05780638e86139b146106be57806393f0c1fc146106d9578063948108f71461071157610290565b80635077b210116101f35780637d9b97e0116101ac5780637d9b97e01461049e5780637f37618e146105c45780638456cb591461049e578063850cce34146105f857806385c1b0ba1461062c5780638765ecbe1461064c57610290565b80635077b210146105095780635165f2f51461054b5780635c975abb1461056b578063744bfe61146103ab57806379ba50971461058f5780637bbaf1ea146105a457610290565b80631a2af011116102455780631a2af011146103ab5780631b6b6d23146103c65780631e12b8a5146103fa5780633f4ba83a1461049e5780634584a419146104b357806348013d7b146104e757610290565b806306e3b632146102985780630852c7c9146102ce578063181f5a771461031a5780631865c57d14610367578063187256e81461038b57610290565b366102905761028e61095d565b005b61028e61095d565b3480156102a457600080fd5b506102b86102b3366004612bc4565b610988565b6040516102c59190612e49565b60405180910390f35b3480156102da57600080fd5b506103027f000000000000000000000000000000000000000000000000000000000000000081565b6040516001600160a01b0390911681526020016102c5565b34801561032657600080fd5b5061035a6040518060400160405280601481526020017304b6565706572526567697374727920312e332e360641b81525081565b6040516102c59190612ebc565b34801561037357600080fd5b5061037c610a6b565b6040516102c593929190612f3c565b34801561039757600080fd5b5061028e6103a6366004612844565b610cc5565b3480156103b757600080fd5b5061028e6103a6366004612b55565b3480156103d257600080fd5b506103027f000000000000000000000000000000000000000000000000000000000000000081565b34801561040657600080fd5b506104706104153660046127f6565b6001600160a01b0390811660009081526008602090815260409182902082516060810184528154948516808252600160a01b9095046001600160601b031692810183905260019091015460ff16151592018290529192909190565b604080516001600160a01b03909416845291151560208401526001600160601b0316908201526060016102c5565b3480156104aa57600080fd5b5061028e610cd1565b3480156104bf57600080fd5b506103027f000000000000000000000000000000000000000000000000000000000000000081565b3480156104f357600080fd5b506104fc600181565b6040516102c59190612f20565b34801561051557600080fd5b5061053d7f000000000000000000000000000000000000000000000000000000000000000081565b6040519081526020016102c5565b34801561055757600080fd5b5061028e610566366004612b23565b610cd9565b34801561057757600080fd5b5060035460ff165b60405190151581526020016102c5565b34801561059b57600080fd5b5061028e610df7565b3480156105b057600080fd5b5061057f6105bf366004612b78565b610ea6565b3480156105d057600080fd5b506103027f000000000000000000000000000000000000000000000000000000000000000081565b34801561060457600080fd5b506103027f000000000000000000000000000000000000000000000000000000000000000081565b34801561063857600080fd5b5061028e6106473660046129af565b610f04565b34801561065857600080fd5b5061028e610667366004612b23565b610f11565b34801561067857600080fd5b506104fc7f000000000000000000000000000000000000000000000000000000000000000081565b3480156106ac57600080fd5b506000546001600160a01b0316610302565b3480156106ca57600080fd5b5061028e6103a6366004612a03565b3480156106e557600080fd5b506106f96106f4366004612b23565b611036565b6040516001600160601b0390911681526020016102c5565b34801561071d57600080fd5b5061028e6103a6366004612c09565b34801561073857600080fd5b5061028e610747366004612b78565b611054565b34801561075857600080fd5b5061028e61076736600461287f565b611153565b34801561077857600080fd5b5061028e6103a6366004612811565b34801561079357600080fd5b5061028e6103a6366004612be6565b3480156107ae57600080fd5b506103027f000000000000000000000000000000000000000000000000000000000000000081565b3480156107e257600080fd5b5061028e6107f13660046127f6565b6112bd565b34801561080257600080fd5b5061028e6107f1366004612b23565b34801561081d57600080fd5b506106f961082c366004612b23565b6112c8565b34801561083d57600080fd5b5061028e61084c36600461294f565b6112e9565b34801561085d57600080fd5b5061087161086c366004612b55565b6112f7565b6040516102c5959493929190612ecf565b34801561088e57600080fd5b506108a261089d366004612b23565b611319565b6040516102c599989796959493929190612dc7565b3480156108c357600080fd5b5061053d6108d23660046128d9565b6114af565b3480156108e357600080fd5b5061028e6108f2366004612a45565b6114c2565b34801561090357600080fd5b5061028e6109123660046127f6565b6117b2565b34801561092357600080fd5b506109506109323660046127f6565b6001600160a01b03166000908152600c602052604090205460ff1690565b6040516102c59190612f06565b6109867f00000000000000000000000000000000000000000000000000000000000000006117c3565b565b6060600061099660056117e7565b90508084106109b857604051631390f2a160e01b815260040160405180910390fd5b826109ca576109c784826130af565b92505b60008367ffffffffffffffff8111156109e5576109e56131c8565b604051908082528060200260200182016040528015610a0e578160200160208202803683370190505b50905060005b84811015610a6057610a31610a29828861302b565b6005906117f1565b828281518110610a4357610a436131b2565b602090810291909101015280610a5881613155565b915050610a14565b509150505b92915050565b6040805160808101825260008082526020820181905291810182905260608101919091526040805161018081018252600080825260208201819052918101829052606081018290526080810182905260a0810182905260c0810182905260e081018290526101008101829052610120810182905261014081018290526101608101919091526040805161012081018252600d5463ffffffff8082168352600160201b808304821660208086019190915262ffffff600160401b8504811686880152600160581b85048416606087810191909152600160781b8604909116608087015261ffff600160901b86041660a08701526001600160601b03600160a01b909504851660c0870152600e5480851660e088015292909204909216610100850181905287526011549092169086015260125492850192909252610bae60056117e7565b606080860191909152815163ffffffff908116855260208084015182168187015260408085015162ffffff90811682890152858501518416948801949094526080808601519094169387019390935260a08085015161ffff169087015260c0808501516001600160601b03169087015260e08085015190921691860191909152600f546101008601526010546101208601526013546001600160a01b0390811661014087015260145416610160860152600480548351818402810184019094528084528793879390918391830182828015610cb257602002820191906000526020600020905b81546001600160a01b03168152600190910190602001808311610c94575b5050505050905093509350935050909192565b610ccd61095d565b5050565b61098661095d565b60008181526007602090815260409182902082516101008101845281546001600160601b0380821683526001600160a01b03600160601b92839004811695840195909552600184015490811695830195909552909304821660608401526002015463ffffffff8082166080850152600160201b82041660a0840152600160401b810490911660c083015260ff600160e01b90910416151560e0820152610d7e81611804565b8060e00151610da0576040516306e229e160e21b815260040160405180910390fd5b6000828152600760205260409020600201805460ff60e01b19169055610dc7600583611865565b5060405182907f7bada562044eb163f6b4003c4553e4e62825344c0418eea087bed5ee05a4745690600090a25050565b6001546001600160a01b03163314610e4f5760405162461bcd60e51b815260206004820152601660248201527526bab9ba10313290383937b837b9b2b21037bbb732b960511b60448201526064015b60405180910390fd5b60008054336001600160a01b0319808316821784556001805490911690556040516001600160a01b0390921692909183917f8be0079c531659141344cd1fd0a4f28419497f9722a3daafe3b4186f6b6457e091a350565b6000610eb0611871565b610efc610ef7338686868080601f016020809104026020016040519081016040528093929190818152602001838380828437600092019190915250600192506118b7915050565b611982565b949350505050565b610f0c61095d565b505050565b60008181526007602090815260409182902082516101008101845281546001600160601b0380821683526001600160a01b03600160601b92839004811695840195909552600184015490811695830195909552909304821660608401526002015463ffffffff8082166080850152600160201b82041660a0840152600160401b810490911660c083015260ff600160e01b90910416151560e0820152610fb681611804565b8060e0015115610fd957604051631452db0960e21b815260040160405180910390fd5b6000828152600760205260409020600201805460ff60e01b1916600160e01b179055611006600583611c8f565b5060405182907f8ab10247ce168c27748e656ecf852b951fcaac790c18106b19aa0ae57a8b741f90600090a25050565b6000806000611043611c9b565b91509150610efc8483836000611e7c565b60008381526007602090815260409182902082516101008101845281546001600160601b0380821683526001600160a01b03600160601b92839004811695840195909552600184015490811695830195909552909304821660608401526002015463ffffffff8082166080850152600160201b82041660a0840152600160401b810490911660c083015260ff600160e01b90910416151560e08201526110f981611804565b6000848152600b6020526040902061111290848461264e565b50837f7b778136e5211932b51a145badd01959415e79e051a933604b3d323f862dcabf8484604051611145929190612e8d565b60405180910390a250505050565b336001600160a01b037f0000000000000000000000000000000000000000000000000000000000000000161461119c5760405163c8bad78d60e01b815260040160405180910390fd5b602081146111bd57604051630dfe930960e41b815260040160405180910390fd5b60006111cb82840184612b23565b600081815260076020526040902060020154909150600160201b900463ffffffff9081161461120d57604051634e0041d160e11b815260040160405180910390fd5b6000818152600760205260409020546112309085906001600160601b0316613043565b600082815260076020526040902080546001600160601b0319166001600160601b039290921691909117905560125461126a90859061302b565b6012556040516001600160601b03851681526001600160a01b0386169082907fafd24114486da8ebfc32f3626dada8863652e187461aa74d4bfa7348915062039060200160405180910390a35050505050565b6112c561095d565b50565b600081815260076020526040812060020154610a659063ffffffff16611036565b6112f161095d565b50505050565b6060600080600080611307612262565b61130f61095d565b9295509295909350565b600081815260076020908152604080832081516101008101835281546001600160601b038082168352600160601b918290046001600160a01b039081168488019081526001860154928316858801908152939092048116606080860191825260029096015463ffffffff80821660808801819052600160201b830490911660a08801908152600160401b830490941660c08801819052600160e01b90920460ff16151560e088019081528c8c52600b909a52978a2086519451925193519551995181548c9b999a8c9a8b9a8b9a8b9a8b9a8b9a93999895979596919593949093909187906114069061311a565b80601f01602080910402602001604051908101604052809291908181526020018280546114329061311a565b801561147f5780601f106114545761010080835404028352916020019161147f565b820191906000526020600020905b81548152906001019060200180831161146257829003601f168201915b505050505096508263ffffffff169250995099509950995099509950995099509950509193959799909294969850565b60006114b961095d565b95945050505050565b6114ca612281565b600e5460e082015163ffffffff918216911610156114fb57604051630e6af04160e21b815260040160405180910390fd5b604051806101200160405280826000015163ffffffff168152602001826020015163ffffffff168152602001826040015162ffffff168152602001826060015163ffffffff168152602001826080015162ffffff1681526020018260a0015161ffff1681526020018260c001516001600160601b031681526020018260e0015163ffffffff168152602001600d60010160049054906101000a900463ffffffff1663ffffffff16815250600d60008201518160000160006101000a81548163ffffffff021916908363ffffffff16021790555060208201518160000160046101000a81548163ffffffff021916908363ffffffff16021790555060408201518160000160086101000a81548162ffffff021916908362ffffff160217905550606082015181600001600b6101000a81548163ffffffff021916908363ffffffff160217905550608082015181600001600f6101000a81548162ffffff021916908362ffffff16021790555060a08201518160000160126101000a81548161ffff021916908361ffff16021790555060c08201518160000160146101000a8154816001600160601b0302191690836001600160601b0316021790555060e08201518160010160006101000a81548163ffffffff021916908363ffffffff1602179055506101008201518160010160046101000a81548163ffffffff021916908363ffffffff160217905550905050806101000151600f81905550806101200151601081905550806101400151601360006101000a8154816001600160a01b0302191690836001600160a01b03160217905550806101600151601460006101000a8154816001600160a01b0302191690836001600160a01b031602179055507ffe125a41957477226ba20f85ef30a4024ea3bb8d066521ddc16df3f2944de325816040516117a79190612f2d565b60405180910390a150565b6117ba612281565b6112c5816122d4565b3660008037600080366000845af43d6000803e8080156117e2573d6000f35b3d6000fd5b6000610a65825490565b60006117fd838361237e565b9392505050565b80606001516001600160a01b0316336001600160a01b03161461183a5760405163523e0b8360e11b815260040160405180910390fd5b60a081015163ffffffff908116146112c557604051634e0041d160e11b815260040160405180910390fd5b60006117fd83836123a8565b60035460ff16156109865760405162461bcd60e51b815260206004820152601060248201526f14185d5cd8589b194e881c185d5cd95960821b6044820152606401610e46565b6119006040518060e0016040528060006001600160a01b031681526020016000815260200160608152602001600081526020016000815260200160008152602001600081525090565b60008481526007602052604081206002015463ffffffff169080611922611c9b565b91509150600061193484848489611e7c565b6040805160e0810182526001600160a01b03909b168b5260208b0199909952978901969096526001600160601b039096166060880152608087019190915260a086015250505060c082015290565b600061198c6123f7565b60208083015160009081526007825260409081902081516101008101835281546001600160601b0380821683526001600160a01b03600160601b92839004811696840196909652600184015490811694830194909452909204831660608301526002015463ffffffff8082166080840152600160201b82041660a08301819052600160401b820490931660c083015260ff600160e01b90910416151560e0820152904310611a4d57604051634e0041d160e11b815260040160405180910390fd5b611a60818460000151856060015161244f565b60005a90506000634585e33b60e01b8560400151604051602401611a849190612ebc565b604051602081830303815290604052906001600160e01b0319166020820180516001600160e01b0383818316178352505050509050611acc85608001518460c001518361250f565b93505a611ad990836130af565b91506000611af2838760a001518860c001516001611e7c565b602080880151600090815260079091526040902054909150611b1e9082906001600160601b03166130c6565b6020878101805160009081526007909252604080832080546001600160601b0319166001600160601b0395861617905590518252902060010154611b6491839116613043565b60208781018051600090815260078352604080822060010180546001600160601b0319166001600160601b039687161790558a519251825280822080548616600160601b6001600160a01b03958616021790558a5190921681526008909252902054611bd9918391600160a01b900416613043565b6008600088600001516001600160a01b03166001600160a01b0316815260200190815260200160002060000160146101000a8154816001600160601b0302191690836001600160601b0316021790555085600001516001600160a01b031685151587602001517fcaacad83e47cc45c280d487ec84184eee2fa3b54ebaa393bda7549f13da228f6848a60400151604051611c74929190612fd1565b60405180910390a450505050611c8a6001600255565b919050565b60006117fd838361255b565b6000806000600d600001600f9054906101000a900462ffffff1662ffffff1690506000808263ffffffff161190506000807f00000000000000000000000000000000000000000000000000000000000000006001600160a01b031663feaf968c6040518163ffffffff1660e01b815260040160a06040518083038186803b158015611d2557600080fd5b505afa158015611d39573d6000803e3d6000fd5b505050506040513d601f19601f82011682018060405250810190611d5d9190612c2c565b509450909250849150508015611d815750611d7882426130af565b8463ffffffff16105b80611d8d575060008113155b15611d9c57600f549550611da0565b8095505b7f00000000000000000000000000000000000000000000000000000000000000006001600160a01b031663feaf968c6040518163ffffffff1660e01b815260040160a06040518083038186803b158015611df957600080fd5b505afa158015611e0d573d6000803e3d6000fd5b505050506040513d601f19601f82011682018060405250810190611e319190612c2c565b509450909250849150508015611e555750611e4c82426130af565b8463ffffffff16105b80611e61575060008113155b15611e70576010549450611e74565b8094505b505050509091565b6040805161012081018252600d5463ffffffff8082168352600160201b80830482166020850152600160401b830462ffffff90811695850195909552600160581b830482166060850152600160781b83049094166080840152600160901b820461ffff1660a08401819052600160a01b9092046001600160601b031660c0840152600e5480821660e0850152939093049092166101008201526000918290611f249087613090565b9050838015611f325750803a105b15611f3a57503a5b6000611f667f00000000000000000000000000000000000000000000000000000000000000008961302b565b611f709083613090565b8351909150600090611f8c9063ffffffff16633b9aca0061302b565b9050600060027f00000000000000000000000000000000000000000000000000000000000000006002811115611fc457611fc4613186565b14156120e6576040805160008152602081019091528715612023576000366040518060800160405280604881526020016131ef6048913960405160200161200d93929190612da0565b6040516020818303038152906040529050612042565b6040518061014001604052806101108152602001613237610110913990505b6040516324ca470760e11b81526001600160a01b037f000000000000000000000000000000000000000000000000000000000000000016906349948e0e9061208e908490600401612ebc565b60206040518083038186803b1580156120a657600080fd5b505afa1580156120ba573d6000803e3d6000fd5b505050506040513d601f19601f820116820180604052508101906120de9190612b3c565b9150506121b4565b60017f0000000000000000000000000000000000000000000000000000000000000000600281111561211a5761211a613186565b14156121b4577f00000000000000000000000000000000000000000000000000000000000000006001600160a01b031663c6f7de0e6040518163ffffffff1660e01b815260040160206040518083038186803b15801561217957600080fd5b505afa15801561218d573d6000803e3d6000fd5b505050506040513d601f19601f820116820180604052508101906121b19190612b3c565b90505b866121d057808560a0015161ffff166121cd9190613090565b90505b6000856020015163ffffffff1664e8d4a510006121ed9190613090565b89846121f9858861302b565b61220790633b9aca00613090565b6122119190613090565b61221b919061306e565b612225919061302b565b90506b033b2e3c9fd0803ce80000008111156122545760405163156baa3d60e11b815260040160405180910390fd5b9a9950505050505050505050565b32156109865760405163b60ac5db60e01b815260040160405180910390fd5b6000546001600160a01b031633146109865760405162461bcd60e51b815260206004820152601660248201527527b7363c9031b0b63630b1363290313c9037bbb732b960511b6044820152606401610e46565b6001600160a01b03811633141561232d5760405162461bcd60e51b815260206004820152601760248201527f43616e6e6f74207472616e7366657220746f2073656c660000000000000000006044820152606401610e46565b600180546001600160a01b0319166001600160a01b0383811691821790925560008054604051929316917fed8889f560326eb138920d842192f0eb3dd22b4f139c87a2c57538e05bae12789190a350565b6000826000018281548110612395576123956131b2565b9060005260206000200154905092915050565b60008181526001830160205260408120546123ef57508154600181810184556000848152602080822090930184905584548482528286019093526040902091909155610a65565b506000610a65565b6002805414156124495760405162461bcd60e51b815260206004820152601f60248201527f5265656e7472616e637947756172643a207265656e7472616e742063616c6c006044820152606401610e46565b60028055565b8260e001511561247257604051631452db0960e21b815260040160405180910390fd5b6001600160a01b03821660009081526008602052604090206001015460ff166124ae576040516319f759fb60e31b815260040160405180910390fd5b82516001600160601b03168111156124d95760405163356680b760e01b815260040160405180910390fd5b816001600160a01b031683602001516001600160a01b03161415610f0c57604051621af04160e61b815260040160405180910390fd5b60005a61138881101561252157600080fd5b61138881039050846040820482031161253957600080fd5b50823b61254557600080fd5b60008083516020850160008789f1949350505050565b6000818152600183016020526040812054801561264457600061257f6001836130af565b8554909150600090612593906001906130af565b90508181146125f85760008660000182815481106125b3576125b36131b2565b90600052602060002001549050808760000184815481106125d6576125d66131b2565b6000918252602080832090910192909255918252600188019052604090208390555b85548690806126095761260961319c565b600190038181906000526020600020016000905590558560010160008681526020019081526020016000206000905560019350505050610a65565b6000915050610a65565b82805461265a9061311a565b90600052602060002090601f01602090048101928261267c57600085556126c2565b82601f106126955782800160ff198235161785556126c2565b828001600101855582156126c2579182015b828111156126c25782358255916020019190600101906126a7565b506126ce9291506126d2565b5090565b5b808211156126ce57600081556001016126d3565b80356001600160a01b0381168114611c8a57600080fd5b60008083601f84011261271057600080fd5b50813567ffffffffffffffff81111561272857600080fd5b6020830191508360208260051b850101111561274357600080fd5b9250929050565b60008083601f84011261275c57600080fd5b50813567ffffffffffffffff81111561277457600080fd5b60208301915083602082850101111561274357600080fd5b803561ffff81168114611c8a57600080fd5b803562ffffff81168114611c8a57600080fd5b803563ffffffff81168114611c8a57600080fd5b805169ffffffffffffffffffff81168114611c8a57600080fd5b80356001600160601b0381168114611c8a57600080fd5b60006020828403121561280857600080fd5b6117fd826126e7565b6000806040838503121561282457600080fd5b61282d836126e7565b915061283b602084016126e7565b90509250929050565b6000806040838503121561285757600080fd5b612860836126e7565b915060208301356004811061287457600080fd5b809150509250929050565b6000806000806060858703121561289557600080fd5b61289e856126e7565b935060208501359250604085013567ffffffffffffffff8111156128c157600080fd5b6128cd8782880161274a565b95989497509550505050565b6000806000806000608086880312156128f157600080fd5b6128fa866126e7565b9450612908602087016127b1565b9350612916604087016126e7565b9250606086013567ffffffffffffffff81111561293257600080fd5b61293e8882890161274a565b969995985093965092949392505050565b6000806000806040858703121561296557600080fd5b843567ffffffffffffffff8082111561297d57600080fd5b612989888389016126fe565b909650945060208701359150808211156129a257600080fd5b506128cd878288016126fe565b6000806000604084860312156129c457600080fd5b833567ffffffffffffffff8111156129db57600080fd5b6129e7868287016126fe565b90945092506129fa9050602085016126e7565b90509250925092565b60008060208385031215612a1657600080fd5b823567ffffffffffffffff811115612a2d57600080fd5b612a398582860161274a565b90969095509350505050565b60006101808284031215612a5857600080fd5b612a60612ff3565b612a69836127b1565b8152612a77602084016127b1565b6020820152612a886040840161279e565b6040820152612a99606084016127b1565b6060820152612aaa6080840161279e565b6080820152612abb60a0840161278c565b60a0820152612acc60c084016127df565b60c0820152612add60e084016127b1565b60e082015261010083810135908201526101208084013590820152610140612b068185016126e7565b90820152610160612b188482016126e7565b908201529392505050565b600060208284031215612b3557600080fd5b5035919050565b600060208284031215612b4e57600080fd5b5051919050565b60008060408385031215612b6857600080fd5b8235915061283b602084016126e7565b600080600060408486031215612b8d57600080fd5b83359250602084013567ffffffffffffffff811115612bab57600080fd5b612bb78682870161274a565b9497909650939450505050565b60008060408385031215612bd757600080fd5b50508035926020909101359150565b60008060408385031215612bf957600080fd5b8235915061283b602084016127b1565b60008060408385031215612c1c57600080fd5b8235915061283b602084016127df565b600080600080600060a08688031215612c4457600080fd5b612c4d866127c5565b9450602086015193506040860151925060608601519150612c70608087016127c5565b90509295509295909350565b60008151808452612c948160208601602086016130ee565b601f01601f19169290920160200192915050565b805163ffffffff1682526020810151612cc9602084018263ffffffff169052565b506040810151612ce0604084018262ffffff169052565b506060810151612cf8606084018263ffffffff169052565b506080810151612d0f608084018262ffffff169052565b5060a0810151612d2560a084018261ffff169052565b5060c0810151612d4060c08401826001600160601b03169052565b5060e0810151612d5860e084018263ffffffff169052565b5061010081810151908301526101208082015190830152610140808201516001600160a01b038116828501525050610160818101516001600160a01b038116848301526112f1565b828482376000838201600081528351612dbd8183602088016130ee565b0195945050505050565b6001600160a01b038a8116825263ffffffff8a16602083015261012060408301819052600091612df98483018c612c7c565b6001600160601b039a8b16606086015298811660808501529690961660a08301525067ffffffffffffffff9390931660c0840152941660e082015292151561010090930192909252949350505050565b6020808252825182820181905260009190848201906040850190845b81811015612e8157835183529284019291840191600101612e65565b50909695505050505050565b60208152816020820152818360408301376000818301604090810191909152601f909201601f19160101919050565b6020815260006117fd6020830184612c7c565b60a081526000612ee260a0830188612c7c565b90508560208301528460408301528360608301528260808301529695505050505050565b6020810160048310612f1a57612f1a613186565b91905290565b60208101612f1a836131de565b6101808101610a658284612ca8565b600061022080830163ffffffff875116845260206001600160601b038189015116818601526040880151604086015260608801516060860152612f826080860188612ca8565b6102008501929092528451908190526102408401918086019160005b81811015612fc35783516001600160a01b031685529382019392820192600101612f9e565b509298975050505050505050565b6001600160601b0383168152604060208201526000610efc6040830184612c7c565b604051610180810167ffffffffffffffff8111828210171561302557634e487b7160e01b600052604160045260246000fd5b60405290565b6000821982111561303e5761303e613170565b500190565b60006001600160601b0380831681851680830382111561306557613065613170565b01949350505050565b60008261308b57634e487b7160e01b600052601260045260246000fd5b500490565b60008160001904831182151516156130aa576130aa613170565b500290565b6000828210156130c1576130c1613170565b500390565b60006001600160601b03838116908316818110156130e6576130e6613170565b039392505050565b60005b838110156131095781810151838201526020016130f1565b838111156112f15750506000910152565b600181811c9082168061312e57607f821691505b6020821081141561314f57634e487b7160e01b600052602260045260246000fd5b50919050565b600060001982141561316957613169613170565b5060010190565b634e487b7160e01b600052601160045260246000fd5b634e487b7160e01b600052602160045260246000fd5b634e487b7160e01b600052603160045260246000fd5b634e487b7160e01b600052603260045260246000fd5b634e487b7160e01b600052604160045260246000fd5b600381106112c5576112c561318656fe3078666666666666666666666666666666666666666666666666666666666666666666666666666666666666666666666666666666666666666666666666666666666666666666663078666666666666666666666666666666666666666666666666666666666666666666666666666666666666666666666666666666666666666666666666666666666666666666666666666666666666666666666666666666666666666666666666666666666666666666666666666666666666666666666666666666666666666666666666666666666666666666666666666666666666666666666666666666666666666666666666666666666666666666666666666666666666666666666666666666666666666666666666666666666666666666666666666666666666666666666666666666666666666666666666666666666666666666666666666666666666666666666666666666666666a26469706673582212209bb998ce705329878709273a7615d3ed42a47af009824969117be73a89d3fd6a64736f6c63430008060033",
    "linkReferences": {}
  },
  "methodIdentifiers": {
    "ARB_NITRO_ORACLE()": "7f37618e",
    "FAST_GAS_FEED()": "4584a419",
    "KEEPER_REGISTRY_LOGIC()": "0852c7c9",
    "LINK()": "1b6b6d23",
    "LINK_ETH_FEED()": "ad178361",
    "OPTIMISM_ORACLE()": "850cce34",
    "PAYMENT_MODEL()": "8811cbe8",
    "REGISTRY_GAS_OVERHEAD()": "5077b210",
    "acceptOwnership()": "79ba5097",
    "acceptPayeeship(address)": "b121e147",
    "acceptUpkeepAdmin(uint256)": "b148ab6b",
    "addFunds(uint256,uint96)": "948108f7",
    "cancelUpkeep(uint256)": "c8048022",
    "checkUpkeep(uint256,address)": "c41b813a",
    "getActiveUpkeepIDs(uint256,uint256)": "06e3b632",
    "getKeeperInfo(address)": "1e12b8a5",
    "getMaxPaymentForGas(uint256)": "93f0c1fc",
    "getMinBalanceForUpkeep(uint256)": "b657bc9c",
    "getPeerRegistryMigrationPermission(address)": "faa3e996",
    "getState()": "1865c57d",
    "getUpkeep(uint256)": "c7c3a19a",
    "migrateUpkeeps(uint256[],address)": "85c1b0ba",
    "onTokenTransfer(address,uint256,bytes)": "a4c0ed36",
    "owner()": "8da5cb5b",
    "pause()": "8456cb59",
    "pauseUpkeep(uint256)": "8765ecbe",
    "paused()": "5c975abb",
    "performUpkeep(uint256,bytes)": "7bbaf1ea",
    "receiveUpkeeps(bytes)": "8e86139b",
    "recoverFunds()": "b79550be",
    "registerUpkeep(address,uint32,address,bytes)": "da5c6741",
    "setConfig((uint32,uint32,uint24,uint32,uint24,uint16,uint96,uint32,uint256,uint256,address,address))": "ef47a0ce",
    "setKeepers(address[],address[])": "b7fdb436",
    "setPeerRegistryMigrationPermission(address,uint8)": "187256e8",
    "setUpkeepGasLimit(uint256,uint32)": "a72aa27e",
    "transferOwnership(address)": "f2fde38b",
    "transferPayeeship(address,address)": "eb5dcd6c",
    "transferUpkeepAdmin(uint256,address)": "1a2af011",
    "typeAndVersion()": "181f5a77",
    "unpause()": "3f4ba83a",
    "unpauseUpkeep(uint256)": "5165f2f5",
    "updateCheckData(uint256,bytes)": "9fab4386",
    "upkeepTranscoderVersion()": "48013d7b",
    "withdrawFunds(uint256,address)": "744bfe61",
    "withdrawOwnerFunds()": "7d9b97e0",
    "withdrawPayment(address,address)": "a710b221"
  },
  "id": 25
}