{"abi":[{"type":"function","name":"getBlockhash","inputs":[{"name":"n","type":"uint256","internalType":"uint256"}],"outputs":[{"name":"","type":"bytes32","internalType":"bytes32"}],"stateMutability":"view"},{"type":"function","name":"store","inputs":[{"name":"n","type":"uint256","internalType":"uint256"}],"outputs":[],"stateMutability":"nonpayable"},{"type":"function","name":"storeEarliest","inputs":[],"outputs":[],"stateMutability":"nonpayable"},{"type":"function","name":"storeVerifyHeader","inputs":[{"name":"n","type":"uint256","internalType":"uint256"},{"name":"header","type":"bytes","internalType":"bytes"}],"outputs":[],"stateMutability":"nonpayable"}],"bytecode":{"object":"0x608060405234801561001057600080fd5b506102e2806100206000396000f3fe608060405234801561001057600080fd5b506004361061004c5760003560e01c80636057361d1461005157806383b6d6b714610070578063e9413d3814610078578063fadff0e1146100a7575b600080fd5b61006e6004803603602081101561006757600080fd5b5035610154565b005b61006e6101b0565b6100956004803603602081101561008e57600080fd5b50356101bf565b60408051918252519081900360200190f35b61006e600480360360408110156100bd57600080fd5b813591908101906040810160208201356401000000008111156100df57600080fd5b8201836020820111156100f157600080fd5b8035906020019184600183028401116401000000008311171561011357600080fd5b91908080601f016020809104026020016040519081016040528093929190818152602001838380828437600092019190915250929550610226945050505050565b80408061019e576040805162461bcd60e51b8152602060048201526013602482015272189b1bd8dada185cda0a1b8a4819985a5b1959606a1b604482015290519081900360640190fd5b60009182526020829052604090912055565b6101bd6101004303610154565b565b60008181526020819052604081205480610220576040805162461bcd60e51b815260206004820152601c60248201527f626c6f636b68617368206e6f7420666f756e6420696e2073746f726500000000604482015290519081900360640190fd5b92915050565b60008083600101815260200190815260200160002054818051906020012014610296576040805162461bcd60e51b815260206004820152601c60248201527f6865616465722068617320756e6b6e6f776e20626c6f636b6861736800000000604482015290519081900360640190fd5b602401516000918252602082905260409091205556fea2646970667358221220b28c8141b44359d70d3796be11fbe0e2d11b89e72289c84a1f4cd203b37392cc64736f6c63430006060033","linkReferences":{}},"methodIdentifiers":{"getBlockhash(uint256)":"e9413d38","store(uint256)":"6057361d","storeEarliest()":"83b6d6b7","storeVerifyHeader(uint256,bytes)":"fadff0e1"},"id":1}