{"abi":[{"type":"constructor","inputs":[{"name":"keeperRegistryLogic","type":"address","internalType":"contract KeeperRegistryBase2_0"}],"stateMutability":"nonpayable"},{"type":"fallback","stateMutability":"payable"},{"type":"receive","stateMutability":"payable"},{"type":"function","name":"acceptOwnership","inputs":[],"outputs":[],"stateMutability":"nonpayable"},{"type":"function","name":"acceptPayeeship","inputs":[{"name":"transmitter","type":"address","internalType":"address"}],"outputs":[],"stateMutability":"nonpayable"},{"type":"function","name":"acceptUpkeepAdmin","inputs":[{"name":"id","type":"uint256","internalType":"uint256"}],"outputs":[],"stateMutability":"nonpayable"},{"type":"function","name":"addFunds","inputs":[{"name":"id","type":"uint256","internalType":"uint256"},{"name":"amount","type":"uint96","internalType":"uint96"}],"outputs":[],"stateMutability":"nonpayable"},{"type":"function","name":"cancelUpkeep","inputs":[{"name":"id","type":"uint256","internalType":"uint256"}],"outputs":[],"stateMutability":"nonpayable"},{"type":"function","name":"checkUpkeep","inputs":[{"name":"id","type":"uint256","internalType":"uint256"}],"outputs":[{"name":"upkeepNeeded","type":"bool","internalType":"bool"},{"name":"performData","type":"bytes","internalType":"bytes"},{"name":"upkeepFailureReason","type":"uint8","internalType":"enum UpkeepFailureReason"},{"name":"gasUsed","type":"uint256","internalType":"uint256"},{"name":"fastGasWei","type":"uint256","internalType":"uint256"},{"name":"linkNative","type":"uint256","internalType":"uint256"}],"stateMutability":"nonpayable"},{"type":"function","name":"getActiveUpkeepIDs","inputs":[{"name":"startIndex","type":"uint256","internalType":"uint256"},{"name":"maxCount","type":"uint256","internalType":"uint256"}],"outputs":[{"name":"","type":"uint256[]","internalType":"uint256[]"}],"stateMutability":"view"},{"type":"function","name":"getFastGasFeedAddress","inputs":[],"outputs":[{"name":"","type":"address","internalType":"address"}],"stateMutability":"view"},{"type":"function","name":"getKeeperRegistryLogicAddress","inputs":[],"outputs":[{"name":"","type":"address","internalType":"address"}],"stateMutability":"view"},{"type":"function","name":"getLinkAddress","inputs":[],"outputs":[{"name":"","type":"address","internalType":"address"}],"stateMutability":"view"},{"type":"function","name":"getLinkNativeFeedAddress","inputs":[],"outputs":[{"name":"","type":"address","internalType":"address"}],"stateMutability":"view"},{"type":"function","name":"getMaxPaymentForGas","inputs":[{"name":"gasLimit","type":"uint32","internalType":"uint32"}],"outputs":[{"name":"maxPayment","type":"uint96","internalType":"uint96"}],"stateMutability":"view"},{"type":"function","name":"getMinBalanceForUpkeep","inputs":[{"name":"id","type":"uint256","internalType":"uint256"}],"outputs":[{"name":"minBalance","type":"uint96","internalType":"uint96"}],"stateMutability":"view"},{"type":"function","name":"getMode","inputs":[],"outputs":[{"name":"","type":"uint8","internalType":"enum KeeperRegistryBase2_0.Mode"}],"stateMutability":"view"},{"type":"function","name":"getPeerRegistryMigrationPermission","inputs":[{"name":"peer","type":"address","internalType":"address"}],"outputs":[{"name":"","type":"uint8","internalType":"enum KeeperRegistryBase2_0.MigrationPermission"}],"stateMutability":"view"},{"type":"function","name":"getSignerInfo","inputs":[{"name":"query","type":"address","internalType":"address"}],"outputs":[{"name":"active","type":"bool","internalType":"bool"},{"name":"index","type":"uint8","internalType":"uint8"}],"stateMutability":"view"},{"type":"function","name":"getState","inputs":[],"outputs":[{"name":"state","type":"tuple","internalType":"struct State","components":[{"name":"nonce","type":"uint32","internalType":"uint32"},{"name":"ownerLinkBalance","type":"uint96","internalType":"uint96"},{"name":"expectedLinkBalance","type":"uint256","internalType":"uint256"},{"name":"totalPremium","type":"uint96","internalType":"uint96"},{"name":"numUpkeeps","type":"uint256","internalType":"uint256"},{"name":"configCount","type":"uint32","internalType":"uint32"},{"name":"latestConfigBlockNumber","type":"uint32","internalType":"uint32"},{"name":"latestConfigDigest","type":"bytes32","internalType":"bytes32"},{"name":"latestEpoch","type":"uint32","internalType":"uint32"},{"name":"paused","type":"bool","internalType":"bool"}]},{"name":"config","type":"tuple","internalType":"struct OnchainConfig","components":[{"name":"paymentPremiumPPB","type":"uint32","internalType":"uint32"},{"name":"flatFeeMicroLink","type":"uint32","internalType":"uint32"},{"name":"checkGasLimit","type":"uint32","internalType":"uint32"},{"name":"stalenessSeconds","type":"uint24","internalType":"uint24"},{"name":"gasCeilingMultiplier","type":"uint16","internalType":"uint16"},{"name":"minUpkeepSpend","type":"uint96","internalType":"uint96"},{"name":"maxPerformGas","type":"uint32","internalType":"uint32"},{"name":"maxCheckDataSize","type":"uint32","internalType":"uint32"},{"name":"maxPerformDataSize","type":"uint32","internalType":"uint32"},{"name":"fallbackGasPrice","type":"uint256","internalType":"uint256"},{"name":"fallbackLinkPrice","type":"uint256","internalType":"uint256"},{"name":"transcoder","type":"address","internalType":"address"},{"name":"registrar","type":"address","internalType":"address"}]},{"name":"signers","type":"address[]","internalType":"address[]"},{"name":"transmitters","type":"address[]","internalType":"address[]"},{"name":"f","type":"uint8","internalType":"uint8"}],"stateMutability":"view"},{"type":"function","name":"getTransmitterInfo","inputs":[{"name":"query","type":"address","internalType":"address"}],"outputs":[{"name":"active","type":"bool","internalType":"bool"},{"name":"index","type":"uint8","internalType":"uint8"},{"name":"balance","type":"uint96","internalType":"uint96"},{"name":"lastCollected","type":"uint96","internalType":"uint96"},{"name":"payee","type":"address","internalType":"address"}],"stateMutability":"view"},{"type":"function","name":"getUpkeep","inputs":[{"name":"id","type":"uint256","internalType":"uint256"}],"outputs":[{"name":"upkeepInfo","type":"tuple","internalType":"struct UpkeepInfo","components":[{"name":"target","type":"address","internalType":"address"},{"name":"executeGas","type":"uint32","internalType":"uint32"},{"name":"checkData","type":"bytes","internalType":"bytes"},{"name":"balance","type":"uint96","internalType":"uint96"},{"name":"admin","type":"address","internalType":"address"},{"name":"maxValidBlocknumber","type":"uint64","internalType":"uint64"},{"name":"lastPerformBlockNumber","type":"uint32","internalType":"uint32"},{"name":"amountSpent","type":"uint96","internalType":"uint96"},{"name":"paused","type":"bool","internalType":"bool"},{"name":"offchainConfig","type":"bytes","internalType":"bytes"}]}],"stateMutability":"view"},{"type":"function","name":"latestConfigDetails","inputs":[],"outputs":[{"name":"configCount","type":"uint32","internalType":"uint32"},{"name":"blockNumber","type":"uint32","internalType":"uint32"},{"name":"configDigest","type":"bytes32","internalType":"bytes32"}],"stateMutability":"view"},{"type":"function","name":"latestConfigDigestAndEpoch","inputs":[],"outputs":[{"name":"scanLogs","type":"bool","internalType":"bool"},{"name":"configDigest","type":"bytes32","internalType":"bytes32"},{"name":"epoch","type":"uint32","internalType":"uint32"}],"stateMutability":"view"},{"type":"function","name":"migrateUpkeeps","inputs":[{"name":"ids","type":"uint256[]","internalType":"uint256[]"},{"name":"destination","type":"address","internalType":"address"}],"outputs":[],"stateMutability":"nonpayable"},{"type":"function","name":"onTokenTransfer","inputs":[{"name":"sender","type":"address","internalType":"address"},{"name":"amount","type":"uint256","internalType":"uint256"},{"name":"data","type":"bytes","internalType":"bytes"}],"outputs":[],"stateMutability":"nonpayable"},{"type":"function","name":"owner","inputs":[],"outputs":[{"name":"","type":"address","internalType":"address"}],"stateMutability":"view"},{"type":"function","name":"pause","inputs":[],"outputs":[],"stateMutability":"nonpayable"},{"type":"function","name":"pauseUpkeep","inputs":[{"name":"id","type":"uint256","internalType":"uint256"}],"outputs":[],"stateMutability":"nonpayable"},{"type":"function","name":"receiveUpkeeps","inputs":[{"name":"encodedUpkeeps","type":"bytes","internalType":"bytes"}],"outputs":[],"stateMutability":"nonpayable"},{"type":"function","name":"recoverFunds","inputs":[],"outputs":[],"stateMutability":"nonpayable"},{"type":"function","name":"registerUpkeep","inputs":[{"name":"target","type":"address","internalType":"address"},{"name":"gasLimit","type":"uint32","internalType":"uint32"},{"name":"admin","type":"address","internalType":"address"},{"name":"checkData","type":"bytes","internalType":"bytes"},{"name":"offchainConfig","type":"bytes","internalType":"bytes"}],"outputs":[{"name":"id","type":"uint256","internalType":"uint256"}],"stateMutability":"nonpayable"},{"type":"function","name":"setConfig","inputs":[{"name":"signers","type":"address[]","internalType":"address[]"},{"name":"transmitters","type":"address[]","internalType":"address[]"},{"name":"f","type":"uint8","internalType":"uint8"},{"name":"onchainConfig","type":"bytes","internalType":"bytes"},{"name":"offchainConfigVersion","type":"uint64","internalType":"uint64"},{"name":"offchainConfig","type":"bytes","internalType":"bytes"}],"outputs":[],"stateMutability":"nonpayable"},{"type":"function","name":"setPayees","inputs":[{"name":"payees","type":"address[]","internalType":"address[]"}],"outputs":[],"stateMutability":"nonpayable"},{"type":"function","name":"setPeerRegistryMigrationPermission","inputs":[{"name":"peer","type":"address","internalType":"address"},{"name":"permission","type":"uint8","internalType":"enum KeeperRegistryBase2_0.MigrationPermission"}],"outputs":[],"stateMutability":"nonpayable"},{"type":"function","name":"setUpkeepGasLimit","inputs":[{"name":"id","type":"uint256","internalType":"uint256"},{"name":"gasLimit","type":"uint32","internalType":"uint32"}],"outputs":[],"stateMutability":"nonpayable"},{"type":"function","name":"setUpkeepOffchainConfig","inputs":[{"name":"id","type":"uint256","internalType":"uint256"},{"name":"config","type":"bytes","internalType":"bytes"}],"outputs":[],"stateMutability":"nonpayable"},{"type":"function","name":"simulatePerformUpkeep","inputs":[{"name":"id","type":"uint256","internalType":"uint256"},{"name":"performData","type":"bytes","internalType":"bytes"}],"outputs":[{"name":"success","type":"bool","internalType":"bool"},{"name":"gasUsed","type":"uint256","internalType":"uint256"}],"stateMutability":"nonpayable"},{"type":"function","name":"transferOwnership","inputs":[{"name":"to","type":"address","internalType":"address"}],"outputs":[],"stateMutability":"nonpayable"},{"type":"function","name":"transferPayeeship","inputs":[{"name":"transmitter","type":"address","internalType":"address"},{"name":"proposed","type":"address","internalType":"address"}],"outputs":[],"stateMutability":"nonpayable"},{"type":"function","name":"transferUpkeepAdmin","inputs":[{"name":"id","type":"uint256","internalType":"uint256"},{"name":"proposed","type":"address","internalType":"address"}],"outputs":[],"stateMutability":"nonpayable"},{"type":"function","name":"transmit","inputs":[{"name":"reportContext","type":"bytes32[3]","internalType":"bytes32[3]"},{"name":"rawReport","type":"bytes","internalType":"bytes"},{"name":"rs","type":"bytes32[]","internalType":"bytes32[]"},{"name":"ss","type":"bytes32[]","internalType":"bytes32[]"},{"name":"rawVs","type":"bytes32","internalType":"bytes32"}],"outputs":[],"stateMutability":"nonpayable"},{"type":"function","name":"typeAndVersion","inputs":[],"outputs":[{"name":"","type":"string","internalType":"string"}],"stateMutability":"view"},{"type":"function","name":"unpause","inputs":[],"outputs":[],"stateMutability":"nonpayable"},{"type":"function","name":"unpauseUpkeep","inputs":[{"name":"id","type":"uint256","internalType":"uint256"}],"outputs":[],"stateMutability":"nonpayable"},{"type":"function","name":"updateCheckData","inputs":[{"name":"id","type":"uint256","internalType":"uint256"},{"name":"newCheckData","type":"bytes","internalType":"bytes"}],"outputs":[],"stateMutability":"nonpayable"},{"type":"function","name":"upkeepTranscoderVersion","inputs":[],"outputs":[{"name":"","type":"uint8","internalType":"enum UpkeepFormat"}],"stateMutability":"view"},{"type":"function","name":"upkeepVersion","inputs":[],"outputs":[{"name":"","type":"uint8","internalType":"uint8"}],"stateMutability":"view"},{"type":"function","name":"withdrawFunds","inputs":[{"name":"id","type":"uint256","internalType":"uint256"},{"name":"to","type":"address","internalType":"address"}],"outputs":[],"stateMutability":"nonpayable"},{"type":"function","name":"withdrawOwnerFunds","inputs":[],"outputs":[],"stateMutability":"nonpayable"},{"type":"function","name":"withdrawPayment","inputs":[{"name":"from","type":"address","internalType":"address"},{"name":"to","type":"address","internalType":"address"}],"outputs":[],"stateMutability":"nonpayable"},{"type":"event","name":"CancelledUpkeepReport","inputs":[{"name":"id","type":"uint256","indexed":true,"internalType":"uint256"}],"anonymous":false},{"type":"event","name":"ConfigSet","inputs":[{"name":"previousConfigBlockNumber","type":"uint32","indexed":false,"internalType":"uint32"},{"name":"configDigest","type":"bytes32","indexed":false,"internalType":"bytes32"},{"name":"configCount","type":"uint64","indexed":false,"internalType":"uint64"},{"name":"signers","type":"address[]","indexed":false,"internalType":"address[]"},{"name":"transmitters","type":"address[]","indexed":false,"internalType":"address[]"},{"name":"f","type":"uint8","indexed":false,"internalType":"uint8"},{"name":"onchainConfig","type":"bytes","indexed":false,"internalType":"bytes"},{"name":"offchainConfigVersion","type":"uint64","indexed":false,"internalType":"uint64"},{"name":"offchainConfig","type":"bytes","indexed":false,"internalType":"bytes"}],"anonymous":false},{"type":"event","name":"FundsAdded","inputs":[{"name":"id","type":"uint256","indexed":true,"internalType":"uint256"},{"name":"from","type":"address","indexed":true,"internalType":"address"},{"name":"amount","type":"uint96","indexed":false,"internalType":"uint96"}],"anonymous":false},{"type":"event","name":"FundsWithdrawn","inputs":[{"name":"id","type":"uint256","indexed":true,"internalType":"uint256"},{"name":"amount","type":"uint256","indexed":false,"internalType":"uint256"},{"name":"to","type":"address","indexed":false,"internalType":"address"}],"anonymous":false},{"type":"event","name":"InsufficientFundsUpkeepReport","inputs":[{"name":"id","type":"uint256","indexed":true,"internalType":"uint256"}],"anonymous":false},{"type":"event","name":"OwnerFundsWithdrawn","inputs":[{"name":"amount","type":"uint96","indexed":false,"internalType":"uint96"}],"anonymous":false},{"type":"event","name":"OwnershipTransferRequested","inputs":[{"name":"from","type":"address","indexed":true,"internalType":"address"},{"name":"to","type":"address","indexed":true,"internalType":"address"}],"anonymous":false},{"type":"event","name":"OwnershipTransferred","inputs":[{"name":"from","type":"address","indexed":true,"internalType":"address"},{"name":"to","type":"address","indexed":true,"internalType":"address"}],"anonymous":false},{"type":"event","name":"Paused","inputs":[{"name":"account","type":"address","indexed":false,"internalType":"address"}],"anonymous":false},{"type":"event","name":"PayeesUpdated","inputs":[{"name":"transmitters","type":"address[]","indexed":false,"internalType":"address[]"},{"name":"payees","type":"address[]","indexed":false,"internalType":"address[]"}],"anonymous":false},{"type":"event","name":"PayeeshipTransferRequested","inputs":[{"name":"transmitter","type":"address","indexed":true,"internalType":"address"},{"name":"from","type":"address","indexed":true,"internalType":"address"},{"name":"to","type":"address","indexed":true,"internalType":"address"}],"anonymous":false},{"type":"event","name":"PayeeshipTransferred","inputs":[{"name":"transmitter","type":"address","indexed":true,"internalType":"address"},{"name":"from","type":"address","indexed":true,"internalType":"address"},{"name":"to","type":"address","indexed":true,"internalType":"address"}],"anonymous":false},{"type":"event","name":"PaymentWithdrawn","inputs":[{"name":"transmitter","type":"address","indexed":true,"internalType":"address"},{"name":"amount","type":"uint256","indexed":true,"internalType":"uint256"},{"name":"to","type":"address","indexed":true,"internalType":"address"},{"name":"payee","type":"address","indexed":false,"internalType":"address"}],"anonymous":false},{"type":"event","name":"ReorgedUpkeepReport","inputs":[{"name":"id","type":"uint256","indexed":true,"internalType":"uint256"}],"anonymous":false},{"type":"event","name":"StaleUpkeepReport","inputs":[{"name":"id","type":"uint256","indexed":true,"internalType":"uint256"}],"anonymous":false},{"type":"event","name":"Transmitted","inputs":[{"name":"configDigest","type":"bytes32","indexed":false,"internalType":"bytes32"},{"name":"epoch","type":"uint32","indexed":false,"internalType":"uint32"}],"anonymous":false},{"type":"event","name":"Unpaused","inputs":[{"name":"account","type":"address","indexed":false,"internalType":"address"}],"anonymous":false},{"type":"event","name":"UpkeepAdminTransferRequested","inputs":[{"name":"id","type":"uint256","indexed":true,"internalType":"uint256"},{"name":"from","type":"address","indexed":true,"internalType":"address"},{"name":"to","type":"address","indexed":true,"internalType":"address"}],"anonymous":false},{"type":"event","name":"UpkeepAdminTransferred","inputs":[{"name":"id","type":"uint256","indexed":true,"internalType":"uint256"},{"name":"from","type":"address","indexed":true,"internalType":"address"},{"name":"to","type":"address","indexed":true,"internalType":"address"}],"anonymous":false},{"type":"event","name":"UpkeepCanceled","inputs":[{"name":"id","type":"uint256","indexed":true,"internalType":"uint256"},{"name":"atBlockHeight","type":"uint64","indexed":true,"internalType":"uint64"}],"anonymous":false},{"type":"event","name":"UpkeepCheckDataUpdated","inputs":[{"name":"id","type":"uint256","indexed":true,"internalType":"uint256"},{"name":"newCheckData","type":"bytes","indexed":false,"internalType":"bytes"}],"anonymous":false},{"type":"event","name":"UpkeepGasLimitSet","inputs":[{"name":"id","type":"uint256","indexed":true,"internalType":"uint256"},{"name":"gasLimit","type":"uint96","indexed":false,"internalType":"uint96"}],"anonymous":false},{"type":"event","name":"UpkeepMigrated","inputs":[{"name":"id","type":"uint256","indexed":true,"internalType":"uint256"},{"name":"remainingBalance","type":"uint256","indexed":false,"internalType":"uint256"},{"name":"destination","type":"address","indexed":false,"internalType":"address"}],"anonymous":false},{"type":"event","name":"UpkeepOffchainConfigSet","inputs":[{"name":"id","type":"uint256","indexed":true,"internalType":"uint256"},{"name":"offchainConfig","type":"bytes","indexed":false,"internalType":"bytes"}],"anonymous":false},{"type":"event","name":"UpkeepPaused","inputs":[{"name":"id","type":"uint256","indexed":true,"internalType":"uint256"}],"anonymous":false},{"type":"event","name":"UpkeepPerformed","inputs":[{"name":"id","type":"uint256","indexed":true,"internalType":"uint256"},{"name":"success","type":"bool","indexed":true,"internalType":"bool"},{"name":"checkBlockNumber","type":"uint32","indexed":false,"internalType":"uint32"},{"name":"gasUsed","type":"uint256","indexed":false,"internalType":"uint256"},{"name":"gasOverhead","type":"uint256","indexed":false,"internalType":"uint256"},{"name":"totalPayment","type":"uint96","indexed":false,"internalType":"uint96"}],"anonymous":false},{"type":"event","name":"UpkeepReceived","inputs":[{"name":"id","type":"uint256","indexed":true,"internalType":"uint256"},{"name":"startingBalance","type":"uint256","indexed":false,"internalType":"uint256"},{"name":"importedFrom","type":"address","indexed":false,"internalType":"address"}],"anonymous":false},{"type":"event","name":"UpkeepRegistered","inputs":[{"name":"id","type":"uint256","indexed":true,"internalType":"uint256"},{"name":"executeGas","type":"uint32","indexed":false,"internalType":"uint32"},{"name":"admin","type":"address","indexed":false,"internalType":"address"}],"anonymous":false},{"type":"event","name":"UpkeepUnpaused","inputs":[{"name":"id","type":"uint256","indexed":true,"internalType":"uint256"}],"anonymous":false},{"type":"error","name":"ArrayHasNoEntries","inputs":[]},{"type":"error","name":"CannotCancel","inputs":[]},{"type":"error","name":"CheckDataExceedsLimit","inputs":[]},{"type":"error","name":"ConfigDigestMismatch","inputs":[]},{"type":"error","name":"DuplicateEntry","inputs":[]},{"type":"error","name":"DuplicateSigners","inputs":[]},{"type":"error","name":"GasLimitCanOnlyIncrease","inputs":[]},{"type":"error","name":"GasLimitOutsideRange","inputs":[]},{"type":"error","name":"IncorrectNumberOfFaultyOracles","inputs":[]},{"type":"error","name":"IncorrectNumberOfSignatures","inputs":[]},{"type":"error","name":"IncorrectNumberOfSigners","inputs":[]},{"type":"error","name":"IndexOutOfRange","inputs":[]},{"type":"error","name":"InsufficientFunds","inputs":[]},{"type":"error","name":"InvalidDataLength","inputs":[]},{"type":"error","name":"InvalidPayee","inputs":[]},{"type":"error","name":"InvalidRecipient","inputs":[]},{"type":"error","name":"InvalidReport","inputs":[]},{"type":"error","name":"MaxCheckDataSizeCanOnlyIncrease","inputs":[]},{"type":"error","name":"MaxPerformDataSizeCanOnlyIncrease","inputs":[]},{"type":"error","name":"MigrationNotPermitted","inputs":[]},{"type":"error","name":"NotAContract","inputs":[]},{"type":"error","name":"OnchainConfigNonEmpty","inputs":[]},{"type":"error","name":"OnlyActiveSigners","inputs":[]},{"type":"error","name":"OnlyActiveTransmitters","inputs":[]},{"type":"error","name":"OnlyCallableByAdmin","inputs":[]},{"type":"error","name":"OnlyCallableByLINKToken","inputs":[]},{"type":"error","name":"OnlyCallableByOwnerOrAdmin","inputs":[]},{"type":"error","name":"OnlyCallableByOwnerOrRegistrar","inputs":[]},{"type":"error","name":"OnlyCallableByPayee","inputs":[]},{"type":"error","name":"OnlyCallableByProposedAdmin","inputs":[]},{"type":"error","name":"OnlyCallableByProposedPayee","inputs":[]},{"type":"error","name":"OnlyPausedUpkeep","inputs":[]},{"type":"error","name":"OnlySimulatedBackend","inputs":[]},{"type":"error","name":"OnlyUnpausedUpkeep","inputs":[]},{"type":"error","name":"ParameterLengthError","inputs":[]},{"type":"error","name":"PaymentGreaterThanAllLINK","inputs":[]},{"type":"error","name":"ReentrantCall","inputs":[]},{"type":"error","name":"RegistryPaused","inputs":[]},{"type":"error","name":"RepeatedSigner","inputs":[]},{"type":"error","name":"RepeatedTransmitter","inputs":[]},{"type":"error","name":"TargetCheckReverted","inputs":[{"name":"reason","type":"bytes","internalType":"bytes"}]},{"type":"error","name":"TooManyOracles","inputs":[]},{"type":"error","name":"TranscoderNotSet","inputs":[]},{"type":"error","name":"UpkeepAlreadyExists","inputs":[]},{"type":"error","name":"UpkeepCancelled","inputs":[]},{"type":"error","name":"UpkeepNotCanceled","inputs":[]},{"type":"error","name":"UpkeepNotNeeded","inputs":[]},{"type":"error","name":"ValueNotChanged","inputs":[]}],"bytecode":{"object":"0x6101206040523480156200001257600080fd5b50604051620055a3380380620055a38339810160408190526200003591620003a7565b806001600160a01b0316634b4fd03b6040518163ffffffff1660e01b815260040160206040518083038186803b1580156200006f57600080fd5b505afa15801562000084573d6000803e3d6000fd5b505050506040513d601f19601f82011682018060405250810190620000aa9190620003ce565b816001600160a01b031663ca30e6036040518163ffffffff1660e01b815260040160206040518083038186803b158015620000e457600080fd5b505afa158015620000f9573d6000803e3d6000fd5b505050506040513d601f19601f820116820180604052508101906200011f9190620003a7565b826001600160a01b031663b10b673c6040518163ffffffff1660e01b815260040160206040518083038186803b1580156200015957600080fd5b505afa1580156200016e573d6000803e3d6000fd5b505050506040513d601f19601f82011682018060405250810190620001949190620003a7565b836001600160a01b0316636709d0e56040518163ffffffff1660e01b815260040160206040518083038186803b158015620001ce57600080fd5b505afa158015620001e3573d6000803e3d6000fd5b505050506040513d601f19601f82011682018060405250810190620002099190620003a7565b3380600081620002605760405162461bcd60e51b815260206004820152601860248201527f43616e6e6f7420736574206f776e657220746f207a65726f000000000000000060448201526064015b60405180910390fd5b600080546001600160a01b0319166001600160a01b038481169190911790915581161562000293576200029381620002fb565b505050836002811115620002ab57620002ab620003f1565b60e0816002811115620002c257620002c2620003f1565b60f81b9052506001600160601b0319606093841b811660805291831b821660a052821b811660c05292901b909116610100525062000420565b6001600160a01b038116331415620003565760405162461bcd60e51b815260206004820152601760248201527f43616e6e6f74207472616e7366657220746f2073656c66000000000000000000604482015260640162000257565b600180546001600160a01b0319166001600160a01b0383811691821790925560008054604051929316917fed8889f560326eb138920d842192f0eb3dd22b4f139c87a2c57538e05bae12789190a350565b600060208284031215620003ba57600080fd5b8151620003c78162000407565b9392505050565b600060208284031215620003e157600080fd5b815160038110620003c757600080fd5b634e487b7160e01b600052602160045260246000fd5b6001600160a01b03811681146200041d57600080fd5b50565b60805160601c60a05160601c60c05160601c60e05160f81c6101005160601c6150f7620004ac600039600081816104df015261097f01526000818161048c0152818161326001528181613783015281816138fe0152613b1d0152600081816105260152612b940152600081816107700152612c7001526000818161082b015261105e01526150f76000f3fe6080604052600436106102975760003560e01c80638e86139b1161015a578063b1dc65a4116100c1578063e3d0e7121161007a578063e3d0e7121461084f578063eb5dcd6c14610690578063ed56b3e11461086f578063f2fde38b146108e2578063f7d334ba14610902578063faa3e99614610934576102a6565b8063b1dc65a4146107af578063b657bc9c146107cf578063b79550be146103e5578063c7c3a19a146107ef578063c8048022146104b0578063ca30e6031461081c576102a6565b8063aab9edd611610113578063aab9edd6146106c6578063aed2e929146106ed578063afcb95d714610724578063b10b673c14610761578063b121e14714610794578063b148ab6b146104b0576102a6565b80638e86139b1461063a578063948108f7146106555780639fab43861461061f578063a4c0ed3614610670578063a710b22114610690578063a72aa27e146106ab576102a6565b8063572e05e1116101fe57806381ff7048116101b757806381ff70481461058d5780638456cb59146103e557806385c1b0ba146105e15780638765ecbe146104b05780638da5cb5b146106015780638dcf0fe71461061f576102a6565b8063572e05e1146104d05780636709d0e5146105175780636ded9eae1461054a578063744bfe61146103af57806379ba5097146105785780637d9b97e0146103e5576102a6565b80633b9cce59116102505780633b9cce59146103ca5780633f4ba83a146103e5578063421d183b146103fa57806348013d7b1461045b5780634b4fd03b1461047d5780635165f2f5146104b0576102a6565b806306e3b632146102ae5780630e08ae84146102e4578063181f5a771461031c5780631865c57d14610369578063187256e81461038f5780631a2af011146103af576102a6565b366102a6576102a461097a565b005b6102a461097a565b3480156102ba57600080fd5b506102ce6102c9366004614560565b6109a5565b6040516102db91906148c4565b60405180910390f35b3480156102f057600080fd5b506103046102ff3660046146a1565b610a85565b6040516001600160601b0390911681526020016102db565b34801561032857600080fd5b5061035c6040518060400160405280601481526020017325b2b2b832b92932b3b4b9ba393c90191718171960611b81525081565b6040516102db9190614972565b34801561037557600080fd5b5061037e610b62565b6040516102db9594939291906149ac565b34801561039b57600080fd5b506102a46103aa36600461404c565b610e7c565b3480156103bb57600080fd5b506102a46103aa3660046144f0565b3480156103d657600080fd5b506102a46103aa366004614180565b3480156103f157600080fd5b506102a4610e88565b34801561040657600080fd5b5061041a610415366004613ff6565b610e90565b60408051951515865260ff90941660208601526001600160601b03928316938501939093521660608301526001600160a01b0316608082015260a0016102db565b34801561046757600080fd5b50610470600081565b6040516102db919061499f565b34801561048957600080fd5b507f0000000000000000000000000000000000000000000000000000000000000000610470565b3480156104bc57600080fd5b506102a46104cb3660046144d7565b610f77565b3480156104dc57600080fd5b507f00000000000000000000000000000000000000000000000000000000000000005b6040516001600160a01b0390911681526020016102db565b34801561052357600080fd5b507f00000000000000000000000000000000000000000000000000000000000000006104ff565b34801561055657600080fd5b5061056a6105653660046140d9565b610f82565b6040519081526020016102db565b34801561058457600080fd5b506102a4610f97565b34801561059957600080fd5b506105be601254600e5463ffffffff600160601b8304811693600160801b9093041691565b6040805163ffffffff9485168152939092166020840152908201526060016102db565b3480156105ed57600080fd5b506102a46105fc366004614343565b611046565b34801561060d57600080fd5b506000546001600160a01b03166104ff565b34801561062b57600080fd5b506102a46105fc366004614515565b34801561064657600080fd5b506102a46103aa3660046143b2565b34801561066157600080fd5b506102a46103aa36600461467c565b34801561067c57600080fd5b506102a461068b36600461407e565b611053565b34801561069c57600080fd5b506102a46103aa366004614013565b3480156106b757600080fd5b506102a46103aa366004614657565b3480156106d257600080fd5b506106db600281565b60405160ff90911681526020016102db565b3480156106f957600080fd5b5061070d610708366004614515565b6111d8565b6040805192151583526020830191909152016102db565b34801561073057600080fd5b50600e54600f5460408051600081526020810193909352600160e01b90910463ffffffff16908201526060016102db565b34801561076d57600080fd5b507f00000000000000000000000000000000000000000000000000000000000000006104ff565b3480156107a057600080fd5b506102a46104cb366004613ff6565b3480156107bb57600080fd5b506102a46107ca36600461428d565b6112e4565b3480156107db57600080fd5b506103046107ea3660046144d7565b611d1e565b3480156107fb57600080fd5b5061080f61080a3660046144d7565b611d42565b6040516102db9190614aaf565b34801561082857600080fd5b507f00000000000000000000000000000000000000000000000000000000000000006104ff565b34801561085b57600080fd5b506102a461086a3660046141c1565b61200d565b34801561087b57600080fd5b506108c961088a366004613ff6565b6001600160a01b031660009081526009602090815260409182902082518084019093525460ff8082161515808552610100909204169290910182905291565b60408051921515835260ff9091166020830152016102db565b3480156108ee57600080fd5b506102a46108fd366004613ff6565b612afc565b34801561090e57600080fd5b5061092261091d3660046144d7565b612b0d565b6040516102db96959493929190614908565b34801561094057600080fd5b5061096d61094f366004613ff6565b6001600160a01b031660009081526016602052604090205460ff1690565b6040516102db9190614985565b6109a37f0000000000000000000000000000000000000000000000000000000000000000612b30565b565b606060006109b36002612b54565b90508084106109d557604051631390f2a160e01b815260040160405180910390fd5b826109e7576109e48482614efe565b92505b6000836001600160401b03811115610a0157610a01615017565b604051908082528060200260200182016040528015610a2a578160200160208202803683370190505b50905060005b84811015610a7c57610a4d610a458288614dac565b600290612b5e565b828281518110610a5f57610a5f615001565b602090810291909101015280610a7481614fa4565b915050610a30565b50949350505050565b6040805161012081018252600f5460ff808216835263ffffffff6101008084048216602086015265010000000000840482169585019590955262ffffff600160481b840416606085015261ffff600160601b8404166080850152600160701b83048216151560a0850152600160781b8304909116151560c08401526001600160601b03600160801b83041660e0840152600160e01b90910416918101919091526000908180610b3383612b71565b6012549193509150610b599084908790600160c01b900463ffffffff1685856000612d53565b95945050505050565b6040805161014081018252600080825260208201819052918101829052606081018290526080810182905260a0810182905260c0810182905260e081018290526101008101829052610120810191909152604080516101a081018252600080825260208201819052918101829052606081018290526080810182905260a0810182905260c0810182905260e0810182905261010081018290526101208101829052610140810182905261016081018290526101808101919091526040805161014081018252601254600160401b900463ffffffff1681526011546001600160601b03908116602083015260155492820192909252600f54600160801b900490911660608083019190915290819060009060808101610c806002612b54565b815260125463ffffffff600160601b8083048216602080860191909152600160801b84048316604080870191909152600e54606080880191909152600f54600160e01b810486166080808a019190915260ff600160701b83048116151560a09a8b015284516101a0810186526101008085048a1682526501000000000085048a1682890152898b168288015262ffffff600160481b8604169582019590955261ffff88850416928101929092526010546001600160601b0381169a83019a909a526401000000008904881660c0830152600160a01b8904881660e0830152600160c01b909804909616918601919091526013546101208601526014546101408601526001600160a01b0396849004871661016086015260115493909304909516610180840152600a8054865181840281018401909752808752969b509299508a958a959394600b9493169291859190830182828015610e0857602002820191906000526020600020905b81546001600160a01b03168152600190910190602001808311610dea575b5050505050925081805480602002602001604051908101604052809291908181526020018280548015610e6457602002820191906000526020600020905b81546001600160a01b03168152600190910190602001808311610e46575b50505050509150945094509450945094509091929394565b610e8461097a565b5050565b6109a361097a565b6001600160a01b03811660009081526008602090815260408083208151608081018352905460ff80821615158352610100820416938201939093526001600160601b03620100008404811692820192909252600160701b909204811660608301819052600f5484938493849384938492610f129291600160801b900416614f15565b600b54909150600090610f259083614e3e565b905082600001518360200151828560400151610f419190614e08565b606095909501516001600160a01b039b8c166000908152600c6020526040902054929c919b959a50985093169550919350505050565b610f7f61097a565b50565b6000610f8c61097a565b979650505050505050565b6001546001600160a01b03163314610fef5760405162461bcd60e51b815260206004820152601660248201527526bab9ba10313290383937b837b9b2b21037bbb732b960511b60448201526064015b60405180910390fd5b60008054336001600160a01b0319808316821784556001805490911690556040516001600160a01b0390921692909183917f8be0079c531659141344cd1fd0a4f28419497f9722a3daafe3b4186f6b6457e091a350565b61104e61097a565b505050565b336001600160a01b037f0000000000000000000000000000000000000000000000000000000000000000161461109c5760405163c8bad78d60e01b815260040160405180910390fd5b602081146110bd57604051630dfe930960e41b815260040160405180910390fd5b60006110cb828401846144d7565b600081815260046020526040902054909150640100000000900463ffffffff9081161461110b57604051634e0041d160e11b815260040160405180910390fd5b600081815260046020526040902060010154611138908590600160601b90046001600160601b0316614e08565b600082815260046020526040902060010180546001600160601b0392909216600160601b026bffffffffffffffffffffffff60601b19909216919091179055601554611185908590614dac565b6015556040516001600160601b03851681526001600160a01b0386169082907fafd24114486da8ebfc32f3626dada8863652e187461aa74d4bfa7348915062039060200160405180910390a35050505050565b6000806111e3612d9e565b600f54600160701b900460ff161561120e576040516309148bcd60e21b815260040160405180910390fd5b600085815260046020908152604091829020825160e081018452815463ffffffff80821683526401000000008204811683860152600160401b820460ff16151583870152600160481b9091046001600160a01b031660608301526001909201546001600160601b038082166080840152600160601b82041660a0830152600160c01b900490911660c08201528251601f8701839004830281018301909352858352916112d7918391908890889081908401838280828437600092019190915250612dbd92505050565b9250925050935093915050565b60005a6040805161012081018252600f5460ff808216835261010080830463ffffffff9081166020860152650100000000008404811695850195909552600160481b830462ffffff166060850152600160601b830461ffff166080850152600160701b8304821615801560a0860152600160781b8404909216151560c0850152600160801b83046001600160601b031660e0850152600160e01b909204909316908201529192506113a8576040516309148bcd60e21b815260040160405180910390fd5b3360009081526008602052604090205460ff166113d857604051631099ed7560e01b815260040160405180910390fd5b60006114198a8a8080601f016020809104026020016040519081016040528093929190818152602001838380828437600092019190915250612e9292505050565b905060008160400151516001600160401b0381111561143a5761143a615017565b6040519080825280602002602001820160405280156114d057816020015b604080516101a081018252600060c0820181815260e083018290526101008301829052610120830182905261014083018290526101608301829052610180830182905282526020808301829052928201819052606082018190526080820181905260a082015282526000199092019101816114585790505b5090506000805b8360400151518110156117375760046000856040015183815181106114fe576114fe615001565b6020908102919091018101518252818101929092526040908101600020815160e081018352815463ffffffff80821683526401000000008204811695830195909552600160401b810460ff16151593820193909352600160481b9092046001600160a01b03166060830152600101546001600160601b038082166080840152600160601b82041660a0830152600160c01b900490911660c082015283518490839081106115ad576115ad615001565b602002602001015160000181905250611616858483815181106115d2576115d2615001565b60200260200101516000015160000151866060015184815181106115f8576115f8615001565b60200260200101516040015151876000015188602001516001612d53565b83828151811061162857611628615001565b6020026020010151604001906001600160601b031690816001600160601b0316815250506116cc8460400151828151811061166557611665615001565b60200260200101518560600151838151811061168357611683615001565b602002602001015185848151811061169d5761169d615001565b6020026020010151600001518685815181106116bb576116bb615001565b602002602001015160400151612f25565b8382815181106116de576116de615001565b6020026020010151602001901515908115158152505082818151811061170657611706615001565b6020026020010151602001511561172557611722600183614d86565b91505b8061172f81614fa4565b9150506114d7565b5061ffff811661174b575050505050611d14565b600e548d351461176e5760405163dfdcf8e760e01b815260040160405180910390fd5b835161177b906001614de3565b60ff168914158061178c5750888714155b156117aa576040516301227b8d60e11b815260040160405180910390fd5b6117ba8d8d8d8d8d8d8d8d61306c565b60005b83604001515181101561198b578281815181106117dc576117dc615001565b60200260200101516020015115611979576117f561325a565b63ffffffff16600460008660400151848151811061181557611815615001565b6020026020010151815260200190815260200160002060010160189054906101000a900463ffffffff1663ffffffff16141561186457604051632d56b1d560e21b815260040160405180910390fd5b6118ac83828151811061187957611879615001565b6020026020010151600001518560600151838151811061189b5761189b615001565b602002602001015160400151612dbd565b8483815181106118be576118be615001565b60200260200101516060018584815181106118db576118db615001565b6020026020010151608001828152508215151515815250505082818151811061190657611906615001565b6020026020010151608001518661191d9190614efe565b955061192761325a565b600460008660400151848151811061194157611941615001565b6020026020010151815260200190815260200160002060010160186101000a81548163ffffffff021916908363ffffffff1602179055505b8061198381614fa4565b9150506117bd565b508351611999906001614de3565b6119a89060ff1661044c614e64565b6169146119b68d6010614e64565b5a6119c19089614efe565b6119cb9190614dac565b6119d59190614dac565b6119df9190614dac565b94506116a86119f261ffff831687614e2a565b6119fc9190614dac565b945060008060008060005b876040015151811015611c0257868181518110611a2657611a26615001565b60200260200101516020015115611bf057611a688a89606001518381518110611a5157611a51615001565b602002602001015160400151518b60000151613312565b878281518110611a7a57611a7a615001565b602002602001015160a0018181525050611ad68989604001518381518110611aa457611aa4615001565b6020026020010151898481518110611abe57611abe615001565b60200260200101518b600001518c602001518b613330565b9093509150611ae58285614e08565b9350611af18386614e08565b9450868181518110611b0557611b05615001565b602002602001015160600151151588604001518281518110611b2957611b29615001565b60200260200101517f29233ba1d7b302b8fe230ad0b81423aba5371b2a6f6b821228212385ee6a44208a606001518481518110611b6857611b68615001565b6020026020010151600001518a8581518110611b8657611b86615001565b6020026020010151608001518b8681518110611ba457611ba4615001565b602002602001015160a001518789611bbc9190614e08565b6040805163ffffffff90951685526020850193909352918301526001600160601b0316606082015260800160405180910390a35b80611bfa81614fa4565b915050611a07565b50503360009081526008602052604090208054849250600290611c359084906201000090046001600160601b0316614e08565b92506101000a8154816001600160601b0302191690836001600160601b0316021790555080600f60000160108282829054906101000a90046001600160601b0316611c809190614e08565b92506101000a8154816001600160601b0302191690836001600160601b0316021790555060008f600160038110611cb957611cb9615001565b602002013560001c9050600060088264ffffffffff16901c905087610100015163ffffffff168163ffffffff161115611d0a57600f80546001600160e01b0316600160e01b63ffffffff8416021790555b5050505050505050505b5050505050505050565b600081815260046020526040812054611d3c9063ffffffff16610a85565b92915050565b604080516101408101825260008082526020820181905260609282018390528282018190526080820181905260a0820181905260c0820181905260e082018190526101008201526101208101919091526000828152600460209081526040808320815160e081018352815463ffffffff80821683526401000000008204811683870152600160401b820460ff16151583860152600160481b9091046001600160a01b03908116606084019081526001909401546001600160601b038082166080860152600160601b82041660a0850152600160c01b9004821660c0840152845161014081018652935116835281511682850152868552600790935292819020805492939291830191611e5390614f69565b80601f0160208091040260200160405190810160405280929190818152602001828054611e7f90614f69565b8015611ecc5780601f10611ea157610100808354040283529160200191611ecc565b820191906000526020600020905b815481529060010190602001808311611eaf57829003601f168201915b505050505081526020018260a001516001600160601b031681526020016005600086815260200190815260200160002060009054906101000a90046001600160a01b03166001600160a01b03168152602001826020015163ffffffff166001600160401b031681526020018260c0015163ffffffff16815260200182608001516001600160601b03168152602001826040015115158152602001601760008681526020019081526020016000208054611f8490614f69565b80601f0160208091040260200160405190810160405280929190818152602001828054611fb090614f69565b8015611ffd5780601f10611fd257610100808354040283529160200191611ffd565b820191906000526020600020905b815481529060010190602001808311611fe057829003601f168201915b5050505050815250915050919050565b612015613406565b601f8651111561203857604051630974082760e21b815260040160405180910390fd5b60ff8416612059576040516373bedd2b60e11b815260040160405180910390fd5b845186511415806120785750612070846003614eaf565b60ff16865111155b15612096576040516303a5a38b60e31b815260040160405180910390fd5b600f54600b54600160801b9091046001600160601b03169060005b816001600160601b0316811015612107576120f4600b82815481106120d8576120d8615001565b6000918252602090912001546001600160a01b03168484613459565b50806120ff81614fa4565b9150506120b1565b5060008060005b836001600160601b03168110156121b657600a818154811061213257612132615001565b600091825260209091200154600b80546001600160a01b039092169450908290811061216057612160615001565b60009182526020808320909101546001600160a01b038681168452600983526040808520805461ffff1916905591168084526008909252909120805460ff191690559150806121ae81614fa4565b91505061210e565b506121c3600a6000613c6a565b6121cf600b6000613c6a565b604080516080810182526000808252602082018190529181018290526060810182905290805b8c5181101561243357600960008e838151811061221457612214615001565b6020908102919091018101516001600160a01b031682528101919091526040016000205460ff161561225957604051633be7507d60e11b815260040160405180910390fd5b60405180604001604052806001151581526020018260ff16815250600960008f848151811061228a5761228a615001565b6020908102919091018101516001600160a01b031682528181019290925260400160002082518154939092015160ff166101000261ff00199215159290921661ffff19909316929092171790558b518c90829081106122eb576122eb615001565b6020908102919091018101516001600160a01b0381166000908152600883526040908190208151608081018352905460ff80821615801584526101008304909116958301959095526001600160601b03620100008204811693830193909352600160701b900490911660608201529450925061237a57604051636a7281ad60e01b815260040160405180910390fd5b6001835260ff80821660208086019182526001600160601b03808b16606088019081526001600160a01b03871660009081526008909352604092839020885181549551948a015192518416600160701b026bffffffffffffffffffffffff60701b199390941662010000029290921662010000600160d01b0319949096166101000261ff00199215159290921661ffff19909516949094171791909116929092179190911790558061242b81614fa4565b9150506121f5565b50508a516124499150600a9060208d0190613c88565b50885161245d90600b9060208c0190613c88565b5060008780602001905181019061247491906143e7565b60125460c082015191925063ffffffff6401000000009091048116911610156124b057604051630e6af04160e21b815260040160405180910390fd5b60125460e082015163ffffffff600160a01b9092048216911610156124e857604051631fa9bdcb60e01b815260040160405180910390fd5b60125461010082015163ffffffff600160c01b90920482169116101561252157604051631a3abf5560e31b815260040160405180910390fd5b6040518061012001604052808a60ff168152602001826000015163ffffffff168152602001826020015163ffffffff168152602001826060015162ffffff168152602001826080015161ffff168152602001600015158152602001600015158152602001866001600160601b03168152602001600063ffffffff16815250600f60008201518160000160006101000a81548160ff021916908360ff16021790555060208201518160000160016101000a81548163ffffffff021916908363ffffffff16021790555060408201518160000160056101000a81548163ffffffff021916908363ffffffff16021790555060608201518160000160096101000a81548162ffffff021916908362ffffff160217905550608082015181600001600c6101000a81548161ffff021916908361ffff16021790555060a082015181600001600e6101000a81548160ff02191690831515021790555060c082015181600001600f6101000a81548160ff02191690831515021790555060e08201518160000160106101000a8154816001600160601b0302191690836001600160601b0316021790555061010082015181600001601c6101000a81548163ffffffff021916908363ffffffff1602179055509050506040518061016001604052808260a001516001600160601b031681526020018261016001516001600160a01b03168152602001601060010160009054906101000a90046001600160601b03166001600160601b031681526020018261018001516001600160a01b03168152602001826040015163ffffffff1681526020018260c0015163ffffffff168152602001601060020160089054906101000a900463ffffffff1663ffffffff1681526020016010600201600c9054906101000a900463ffffffff1663ffffffff168152602001601060020160109054906101000a900463ffffffff1663ffffffff1681526020018260e0015163ffffffff16815260200182610100015163ffffffff16815250601060008201518160000160006101000a8154816001600160601b0302191690836001600160601b03160217905550602082015181600001600c6101000a8154816001600160a01b0302191690836001600160a01b0316021790555060408201518160010160006101000a8154816001600160601b0302191690836001600160601b03160217905550606082015181600101600c6101000a8154816001600160a01b0302191690836001600160a01b0316021790555060808201518160020160006101000a81548163ffffffff021916908363ffffffff16021790555060a08201518160020160046101000a81548163ffffffff021916908363ffffffff16021790555060c08201518160020160086101000a81548163ffffffff021916908363ffffffff16021790555060e082015181600201600c6101000a81548163ffffffff021916908363ffffffff1602179055506101008201518160020160106101000a81548163ffffffff021916908363ffffffff1602179055506101208201518160020160146101000a81548163ffffffff021916908363ffffffff1602179055506101408201518160020160186101000a81548163ffffffff021916908363ffffffff1602179055509050508061012001516013819055508061014001516014819055506000601060020160109054906101000a900463ffffffff169050612a0761325a565b6012805463ffffffff60801b1916600160801b63ffffffff9384160217808255600192600c91612a40918591600160601b900416614dc4565b92506101000a81548163ffffffff021916908363ffffffff160217905550612a8a46306010600201600c9054906101000a900463ffffffff1663ffffffff168f8f8f8f8f8f6135dc565b600e819055507f1591690b8638f5fb2dbec82ac741805ac5da8b45dc5263f4875b0496fdce4e0581600e546010600201600c9054906101000a900463ffffffff168f8f8f8f8f8f604051612ae699989796959493929190614c3c565b60405180910390a1505050505050505050505050565b612b04613406565b610f7f81613636565b60006060600080600080612b1f612d9e565b612b2761097a565b91939550919395565b3660008037600080366000845af43d6000803e808015612b4f573d6000f35b3d6000fd5b6000611d3c825490565b6000612b6a83836136e0565b9392505050565b6000806000836060015162ffffff1690506000808263ffffffff161190506000807f00000000000000000000000000000000000000000000000000000000000000006001600160a01b031663feaf968c6040518163ffffffff1660e01b815260040160a06040518083038186803b158015612beb57600080fd5b505afa158015612bff573d6000803e3d6000fd5b505050506040513d601f19601f82011682018060405250810190612c2391906146be565b5094509092505050600081131580612c3a57508142105b80612c5b5750828015612c5b5750612c528242614efe565b8463ffffffff16105b15612c6a576013549550612c6e565b8095505b7f00000000000000000000000000000000000000000000000000000000000000006001600160a01b031663feaf968c6040518163ffffffff1660e01b815260040160a06040518083038186803b158015612cc757600080fd5b505afa158015612cdb573d6000803e3d6000fd5b505050506040513d601f19601f82011682018060405250810190612cff91906146be565b5094509092505050600081131580612d1657508142105b80612d375750828015612d375750612d2e8242614efe565b8463ffffffff16105b15612d46576014549450612d4a565b8094505b50505050915091565b600080612d6486896000015161370a565b9050600080612d7f8a8a63ffffffff16858a8a60018b61374e565b9092509050612d8e8183614e08565b93505050505b9695505050505050565b32156109a35760405163b60ac5db60e01b815260040160405180910390fd5b600f546000908190600160781b900460ff1615612ded576040516306fda65d60e31b815260040160405180910390fd5b600f805460ff60781b1916600160781b1790555a90506000634585e33b60e01b84604051602401612e1e9190614972565b604051602081830303815290604052906001600160e01b0319166020820180516001600160e01b0383818316178352505050509050612e6c856000015163ffffffff16866060015183613acb565b92505a612e799083614efe565b915050600f805460ff60781b1916905590939092509050565b612ebd6040518060800160405280600081526020016000815260200160608152602001606081525090565b60008060008085806020019051810190612ed79190614582565b93509350935093508051825114612f0157604051632d56b1d560e21b815260040160405180910390fd5b60408051608081018252948552602085019390935291830152606082015292915050565b60008260c0015163ffffffff16846000015163ffffffff161015612f765760405185907f5aa44821f7938098502bff537fbbdc9aaaa2fa655c10740646fce27e54987a8990600090a2506000613064565b60208401518451612f8c9063ffffffff16613b17565b14612fc45760405185907f561ff77e59394941a01a456497a9418dea82e2a39abb3ecebfb1cef7e0bfdc1390600090a2506000613064565b612fcc61325a565b836020015163ffffffff161161300f5760405185907fd84831b6a3a7fbd333f42fe7f9104a139da6cca4cc1507aef4ddad79b31d017f90600090a2506000613064565b816001600160601b03168360a001516001600160601b031610156130605760405185907f7895fdfe292beab0842d5beccd078e85296b9e17a30eaee4c261a2696b84eb9690600090a2506000613064565b5060015b949350505050565b6000878760405161307e92919061488d565b604051908190038120613095918b90602001614958565b60408051601f1981840301815282825280516020918201208383019092526000808452908301819052909250906000805b8881101561320a576001858783602081106130e3576130e3615001565b6130f091901a601b614de3565b8c8c8581811061310257613102615001565b905060200201358b8b8681811061311b5761311b615001565b9050602002013560405160008152602001604052604051613158949392919093845260ff9290921660208401526040830152606082015260800190565b6020604051602081039080840390855afa15801561317a573d6000803e3d6000fd5b505060408051601f198101516001600160a01b03811660009081526009602090815290849020838501909452925460ff80821615158085526101009092041693830193909352909550935090506131e457604051630f4c073760e01b815260040160405180910390fd5b826020015160080260ff166001901b84019350808061320290614fa4565b9150506130c6565b50827e0101010101010101010101010101010101010101010101010101010101010184161461324c57604051636081df1760e11b815260040160405180910390fd5b505050505050505050505050565b600060017f0000000000000000000000000000000000000000000000000000000000000000600281111561329057613290614feb565b141561330d5760646001600160a01b031663a3b1b31d6040518163ffffffff1660e01b815260040160206040518083038186803b1580156132d057600080fd5b505afa1580156132e4573d6000803e3d6000fd5b505050506040513d601f19601f820116820180604052508101906133089190614399565b905090565b504390565b600061331e838361370a565b905080841015612b6a57509192915050565b60008061334b8887608001518860a00151888888600161374e565b9092509050600061335c8284614e08565b600089815260046020526040902060010180549192508291600c90613392908490600160601b90046001600160601b0316614f15565b82546101009290920a6001600160601b0381810219909316918316021790915560008a8152600460205260408120600101805485945090926133d691859116614e08565b92506101000a8154816001600160601b0302191690836001600160601b0316021790555050965096945050505050565b6000546001600160a01b031633146109a35760405162461bcd60e51b815260206004820152601660248201527527b7363c9031b0b63630b1363290313c9037bbb732b960511b6044820152606401610fe6565b6001600160a01b03831660009081526008602090815260408083208151608081018352905460ff80821615158352610100820416938201939093526001600160601b03620100008404811692820192909252600160701b909204166060820181905282906134c79086614f15565b905060006134d58583614e3e565b905080836040018181516134e99190614e08565b6001600160601b0390811690915287166060850152506135098582614ed8565b6135139083614f15565b6011805460009061352e9084906001600160601b0316614e08565b825461010092830a6001600160601b038181021990921692821602919091179092556001600160a01b039990991660009081526008602090815260409182902087518154928901519389015160609099015161ffff1990931690151561ff0019161760ff909316909b029190911762010000600160d01b03191662010000878416026bffffffffffffffffffffffff60701b191617600160701b919092160217909755509095945050505050565b6000808a8a8a8a8a8a8a8a8a60405160200161360099989796959493929190614ba3565b60408051808303601f1901815291905280516020909101206001600160f01b0316600160f01b179b9a5050505050505050505050565b6001600160a01b03811633141561368f5760405162461bcd60e51b815260206004820152601760248201527f43616e6e6f74207472616e7366657220746f2073656c660000000000000000006044820152606401610fe6565b600180546001600160a01b0319166001600160a01b0383811691821790925560008054604051929316917fed8889f560326eb138920d842192f0eb3dd22b4f139c87a2c57538e05bae12789190a350565b60008260000182815481106136f7576136f7615001565b9060005260206000200154905092915050565b600061371d63ffffffff84166014614e64565b613728836001614de3565b6137379060ff16611d4c614e64565b6137449062011170614dac565b612b6a9190614dac565b6000806000896080015161ffff16876137679190614e64565b90508380156137755750803a105b1561377d57503a5b600060027f000000000000000000000000000000000000000000000000000000000000000060028111156137b3576137b3614feb565b14156138fa5760408051600081526020810190915285156138125760003660405180608001604052806048815260200161507a604891396040516020016137fc9392919061489d565b6040516020818303038152906040529050613878565b60125461382d90600160c01b900463ffffffff166004614e83565b63ffffffff166001600160401b0381111561384a5761384a615017565b6040519080825280601f01601f191660200182016040528015613874576020820181803683370190505b5090505b6040516324ca470760e11b8152600f602160991b01906349948e0e906138a2908490600401614972565b60206040518083038186803b1580156138ba57600080fd5b505afa1580156138ce573d6000803e3d6000fd5b505050506040513d601f19601f820116820180604052508101906138f29190614399565b9150506139a9565b60017f0000000000000000000000000000000000000000000000000000000000000000600281111561392e5761392e614feb565b14156139a957606c6001600160a01b031663c6f7de0e6040518163ffffffff1660e01b815260040160206040518083038186803b15801561396e57600080fd5b505afa158015613982573d6000803e3d6000fd5b505050506040513d601f19601f820116820180604052508101906139a69190614399565b90505b846139c557808b6080015161ffff166139c29190614e64565b90505b6139d361ffff871682614e2a565b9050600087826139e38c8e614dac565b6139ed9086614e64565b6139f79190614dac565b613a0990670de0b6b3a7640000614e64565b613a139190614e2a565b905060008c6040015163ffffffff1664e8d4a51000613a329190614e64565b898e6020015163ffffffff16858f88613a4b9190614e64565b613a559190614dac565b613a6390633b9aca00614e64565b613a6d9190614e64565b613a779190614e2a565b613a819190614dac565b90506b033b2e3c9fd0803ce8000000613a9a8284614dac565b1115613ab95760405163156baa3d60e11b815260040160405180910390fd5b909c909b509950505050505050505050565b60005a611388811015613add57600080fd5b611388810390508460408204820311613af557600080fd5b50823b613b0157600080fd5b60008083516020850160008789f1949350505050565b600060017f00000000000000000000000000000000000000000000000000000000000000006002811115613b4d57613b4d614feb565b1415613c6057600060646001600160a01b031663a3b1b31d6040518163ffffffff1660e01b815260040160206040518083038186803b158015613b8f57600080fd5b505afa158015613ba3573d6000803e3d6000fd5b505050506040513d601f19601f82011682018060405250810190613bc79190614399565b90508083101580613be25750610100613be08483614efe565b115b15613bf05750600092915050565b6040516315a03d4160e11b815260048101849052606490632b407a829060240160206040518083038186803b158015613c2857600080fd5b505afa158015613c3c573d6000803e3d6000fd5b505050506040513d601f19601f82011682018060405250810190612b6a9190614399565b504090565b919050565b5080546000825590600052602060002090810190610f7f9190613ced565b828054828255906000526020600020908101928215613cdd579160200282015b82811115613cdd57825182546001600160a01b0319166001600160a01b03909116178255602090920191600190910190613ca8565b50613ce9929150613ced565b5090565b5b80821115613ce95760008155600101613cee565b8051613c658161503d565b60008083601f840112613d1f57600080fd5b5081356001600160401b03811115613d3657600080fd5b6020830191508360208260051b8501011115613d5157600080fd5b9250929050565b600082601f830112613d6957600080fd5b81356020613d7e613d7983614d3c565b614d0c565b80838252828201915082860187848660051b8901011115613d9e57600080fd5b60005b85811015613dc6578135613db48161503d565b84529284019290840190600101613da1565b5090979650505050505050565b600082601f830112613de457600080fd5b81516020613df4613d7983614d3c565b80838252828201915082860187848660051b8901011115613e1457600080fd5b60005b85811015613dc65781516001600160401b0380821115613e3657600080fd5b908901906060828c03601f1901811315613e4f57600080fd5b613e57614cc1565b88840151613e6481615052565b81526040848101518a830152918401519183831115613e8257600080fd5b82850194508d603f860112613e9657600080fd5b898501519350613ea8613d7985614d5f565b92508383528d81858701011115613ebe57600080fd5b613ecd848b8501838801614f3d565b810191909152865250509284019290840190600101613e17565b60008083601f840112613ef957600080fd5b5081356001600160401b03811115613f1057600080fd5b602083019150836020828501011115613d5157600080fd5b600082601f830112613f3957600080fd5b8135613f47613d7982614d5f565b818152846020838601011115613f5c57600080fd5b816020850160208301376000918101602001919091529392505050565b805161ffff81168114613c6557600080fd5b805162ffffff81168114613c6557600080fd5b8051613c6581615052565b80356001600160401b0381168114613c6557600080fd5b803560ff81168114613c6557600080fd5b805169ffffffffffffffffffff81168114613c6557600080fd5b8051613c6581615064565b60006020828403121561400857600080fd5b8135612b6a8161503d565b6000806040838503121561402657600080fd5b82356140318161503d565b915060208301356140418161503d565b809150509250929050565b6000806040838503121561405f57600080fd5b823561406a8161503d565b915060208301356004811061404157600080fd5b6000806000806060858703121561409457600080fd5b843561409f8161503d565b93506020850135925060408501356001600160401b038111156140c157600080fd5b6140cd87828801613ee7565b95989497509550505050565b600080600080600080600060a0888a0312156140f457600080fd5b87356140ff8161503d565b9650602088013561410f81615052565b9550604088013561411f8161503d565b945060608801356001600160401b038082111561413b57600080fd5b6141478b838c01613ee7565b909650945060808a013591508082111561416057600080fd5b5061416d8a828b01613ee7565b989b979a50959850939692959293505050565b6000806020838503121561419357600080fd5b82356001600160401b038111156141a957600080fd5b6141b585828601613d0d565b90969095509350505050565b60008060008060008060c087890312156141da57600080fd5b86356001600160401b03808211156141f157600080fd5b6141fd8a838b01613d58565b9750602089013591508082111561421357600080fd5b61421f8a838b01613d58565b965061422d60408a01613fc0565b9550606089013591508082111561424357600080fd5b61424f8a838b01613f28565b945061425d60808a01613fa9565b935060a089013591508082111561427357600080fd5b5061428089828a01613f28565b9150509295509295509295565b60008060008060008060008060e0898b0312156142a957600080fd5b606089018a8111156142ba57600080fd5b899850356001600160401b03808211156142d357600080fd5b6142df8c838d01613ee7565b909950975060808b01359150808211156142f857600080fd5b6143048c838d01613d0d565b909750955060a08b013591508082111561431d57600080fd5b5061432a8b828c01613d0d565b999c989b50969995989497949560c00135949350505050565b60008060006040848603121561435857600080fd5b83356001600160401b0381111561436e57600080fd5b61437a86828701613d0d565b909450925050602084013561438e8161503d565b809150509250925092565b6000602082840312156143ab57600080fd5b5051919050565b600080602083850312156143c557600080fd5b82356001600160401b038111156143db57600080fd5b6141b585828601613ee7565b60006101a082840312156143fa57600080fd5b614402614ce9565b61440b83613f9e565b815261441960208401613f9e565b602082015261442a60408401613f9e565b604082015261443b60608401613f8b565b606082015261444c60808401613f79565b608082015261445d60a08401613feb565b60a082015261446e60c08401613f9e565b60c082015261447f60e08401613f9e565b60e0820152610100614492818501613f9e565b90820152610120838101519082015261014080840151908201526101606144ba818501613d02565b908201526101806144cc848201613d02565b908201529392505050565b6000602082840312156144e957600080fd5b5035919050565b6000806040838503121561450357600080fd5b8235915060208301356140418161503d565b60008060006040848603121561452a57600080fd5b8335925060208401356001600160401b0381111561454757600080fd5b61455386828701613ee7565b9497909650939450505050565b6000806040838503121561457357600080fd5b50508035926020909101359150565b6000806000806080858703121561459857600080fd5b84519350602080860151935060408601516001600160401b03808211156145be57600080fd5b818801915088601f8301126145d257600080fd5b81516145e0613d7982614d3c565b8082825285820191508585018c878560051b880101111561460057600080fd5b600095505b83861015614623578051835260019590950194918601918601614605565b5060608b0151909750945050508083111561463d57600080fd5b505061464b87828801613dd3565b91505092959194509250565b6000806040838503121561466a57600080fd5b82359150602083013561404181615052565b6000806040838503121561468f57600080fd5b82359150602083013561404181615064565b6000602082840312156146b357600080fd5b8135612b6a81615052565b600080600080600060a086880312156146d657600080fd5b6146df86613fd1565b945060208601519350604086015192506060860151915061470260808701613fd1565b90509295509295909350565b600081518084526020808501945080840160005b838110156147475781516001600160a01b031687529582019590820190600101614722565b509495945050505050565b6000815180845261476a816020860160208601614f3d565b601f01601f19169290920160200192915050565b805163ffffffff168252602081015161479f602084018263ffffffff169052565b5060408101516147b7604084018263ffffffff169052565b5060608101516147ce606084018262ffffff169052565b5060808101516147e4608084018261ffff169052565b5060a08101516147ff60a08401826001600160601b03169052565b5060c081015161481760c084018263ffffffff169052565b5060e081015161482f60e084018263ffffffff169052565b506101008181015163ffffffff811684830152505061012081810151908301526101408082015190830152610160808201516001600160a01b038116828501525050610180818101516001600160a01b038116848301525b50505050565b8183823760009101908152919050565b8284823760008382016000815283516148ba818360208801614f3d565b0195945050505050565b6020808252825182820181905260009190848201906040850190845b818110156148fc578351835292840192918401916001016148e0565b50909695505050505050565b861515815260c06020820152600061492360c0830188614752565b90506007861061493557614935614feb565b8560408301528460608301528360808301528260a0830152979650505050505050565b828152608081016060836020840137600081529392505050565b602081526000612b6a6020830184614752565b602081016004831061499957614999614feb565b91905290565b602081016149998361502d565b855163ffffffff168152600061034060208801516149d560208501826001600160601b03169052565b506040880151604084015260608801516149fa60608501826001600160601b03169052565b506080880151608084015260a0880151614a1c60a085018263ffffffff169052565b5060c0880151614a3460c085018263ffffffff169052565b5060e088015160e084015261010080890151614a578286018263ffffffff169052565b505061012088810151151590840152614a7461014084018861477e565b806102e0840152614a878184018761470e565b9050828103610300840152614a9c818661470e565b915050612d9461032083018460ff169052565b60208152614ac96020820183516001600160a01b03169052565b60006020830151614ae2604084018263ffffffff169052565b506040830151610140806060850152614aff610160850183614752565b91506060850151614b1b60808601826001600160601b03169052565b5060808501516001600160a01b03811660a08601525060a08501516001600160401b03811660c08601525060c085015163ffffffff811660e08601525060e0850151610100614b74818701836001600160601b03169052565b8601519050610120614b898682018315159052565b860151858403601f1901838701529050612d948382614752565b8981526001600160a01b03891660208201526001600160401b03888116604083015261012060608301819052600091614bde8483018b61470e565b91508382036080850152614bf2828a61470e565b915060ff881660a085015283820360c0850152614c0f8288614752565b90861660e08501528381036101008501529050614c2c8185614752565b9c9b505050505050505050505050565b600061012063ffffffff808d1684528b6020850152808b16604085015250806060840152614c6c8184018a61470e565b90508281036080840152614c80818961470e565b905060ff871660a084015282810360c0840152614c9d8187614752565b90506001600160401b03851660e0840152828103610100840152614c2c8185614752565b604051606081016001600160401b0381118282101715614ce357614ce3615017565b60405290565b6040516101a081016001600160401b0381118282101715614ce357614ce3615017565b604051601f8201601f191681016001600160401b0381118282101715614d3457614d34615017565b604052919050565b60006001600160401b03821115614d5557614d55615017565b5060051b60200190565b60006001600160401b03821115614d7857614d78615017565b50601f01601f191660200190565b600061ffff808316818516808303821115614da357614da3614fbf565b01949350505050565b60008219821115614dbf57614dbf614fbf565b500190565b600063ffffffff808316818516808303821115614da357614da3614fbf565b600060ff821660ff84168060ff03821115614e0057614e00614fbf565b019392505050565b60006001600160601b03808316818516808303821115614da357614da3614fbf565b600082614e3957614e39614fd5565b500490565b60006001600160601b0380841680614e5857614e58614fd5565b92169190910492915050565b6000816000190483118215151615614e7e57614e7e614fbf565b500290565b600063ffffffff80831681851681830481118215151615614ea657614ea6614fbf565b02949350505050565b600060ff821660ff84168160ff0481118215151615614ed057614ed0614fbf565b029392505050565b60006001600160601b0380831681851681830481118215151615614ea657614ea6614fbf565b600082821015614f1057614f10614fbf565b500390565b60006001600160601b0383811690831681811015614f3557614f35614fbf565b039392505050565b60005b83811015614f58578181015183820152602001614f40565b838111156148875750506000910152565b600181811c90821680614f7d57607f821691505b60208210811415614f9e57634e487b7160e01b600052602260045260246000fd5b50919050565b6000600019821415614fb857614fb8614fbf565b5060010190565b634e487b7160e01b600052601160045260246000fd5b634e487b7160e01b600052601260045260246000fd5b634e487b7160e01b600052602160045260246000fd5b634e487b7160e01b600052603260045260246000fd5b634e487b7160e01b600052604160045260246000fd5b60038110610f7f57610f7f614feb565b6001600160a01b0381168114610f7f57600080fd5b63ffffffff81168114610f7f57600080fd5b6001600160601b0381168114610f7f57600080fdfe307866666666666666666666666666666666666666666666666666666666666666666666666666666666666666666666666666666666666666666666666666666666666666666666a26469706673582212202f8ba58c29b3f739d3e6ceb22370d93dee409559b2702c7884170743ad6ca5ce64736f6c63430008060033","linkReferences":{}},"methodIdentifiers":{"acceptOwnership()":"79ba5097","acceptPayeeship(address)":"b121e147","acceptUpkeepAdmin(uint256)":"b148ab6b","addFunds(uint256,uint96)":"948108f7","cancelUpkeep(uint256)":"c8048022","checkUpkeep(uint256)":"f7d334ba","getActiveUpkeepIDs(uint256,uint256)":"06e3b632","getFastGasFeedAddress()":"6709d0e5","getKeeperRegistryLogicAddress()":"572e05e1","getLinkAddress()":"ca30e603","getLinkNativeFeedAddress()":"b10b673c","getMaxPaymentForGas(uint32)":"0e08ae84","getMinBalanceForUpkeep(uint256)":"b657bc9c","getMode()":"4b4fd03b","getPeerRegistryMigrationPermission(address)":"faa3e996","getSignerInfo(address)":"ed56b3e1","getState()":"1865c57d","getTransmitterInfo(address)":"421d183b","getUpkeep(uint256)":"c7c3a19a","latestConfigDetails()":"81ff7048","latestConfigDigestAndEpoch()":"afcb95d7","migrateUpkeeps(uint256[],address)":"85c1b0ba","onTokenTransfer(address,uint256,bytes)":"a4c0ed36","owner()":"8da5cb5b","pause()":"8456cb59","pauseUpkeep(uint256)":"8765ecbe","receiveUpkeeps(bytes)":"8e86139b","recoverFunds()":"b79550be","registerUpkeep(address,uint32,address,bytes,bytes)":"6ded9eae","setConfig(address[],address[],uint8,bytes,uint64,bytes)":"e3d0e712","setPayees(address[])":"3b9cce59","setPeerRegistryMigrationPermission(address,uint8)":"187256e8","setUpkeepGasLimit(uint256,uint32)":"a72aa27e","setUpkeepOffchainConfig(uint256,bytes)":"8dcf0fe7","simulatePerformUpkeep(uint256,bytes)":"aed2e929","transferOwnership(address)":"f2fde38b","transferPayeeship(address,address)":"eb5dcd6c","transferUpkeepAdmin(uint256,address)":"1a2af011","transmit(bytes32[3],bytes,bytes32[],bytes32[],bytes32)":"b1dc65a4","typeAndVersion()":"181f5a77","unpause()":"3f4ba83a","unpauseUpkeep(uint256)":"5165f2f5","updateCheckData(uint256,bytes)":"9fab4386","upkeepTranscoderVersion()":"48013d7b","upkeepVersion()":"aab9edd6","withdrawFunds(uint256,address)":"744bfe61","withdrawOwnerFunds()":"7d9b97e0","withdrawPayment(address,address)":"a710b221"},"id":38}