{"abi":[{"type":"constructor","inputs":[],"stateMutability":"nonpayable"},{"type":"function","name":"acceptOwnership","inputs":[],"outputs":[],"stateMutability":"nonpayable"},{"type":"function","name":"cronDelegateAddress","inputs":[],"outputs":[{"name":"","type":"address","internalType":"address"}],"stateMutability":"view"},{"type":"function","name":"encodeCronJob","inputs":[{"name":"target","type":"address","internalType":"address"},{"name":"handler","type":"bytes","internalType":"bytes"},{"name":"cronString","type":"string","internalType":"string"}],"outputs":[{"name":"","type":"bytes","internalType":"bytes"}],"stateMutability":"pure"},{"type":"function","name":"encodeCronString","inputs":[{"name":"cronString","type":"string","internalType":"string"}],"outputs":[{"name":"","type":"bytes","internalType":"bytes"}],"stateMutability":"pure"},{"type":"function","name":"newCronUpkeep","inputs":[],"outputs":[],"stateMutability":"nonpayable"},{"type":"function","name":"newCronUpkeepWithJob","inputs":[{"name":"encodedJob","type":"bytes","internalType":"bytes"}],"outputs":[],"stateMutability":"nonpayable"},{"type":"function","name":"owner","inputs":[],"outputs":[{"name":"","type":"address","internalType":"address"}],"stateMutability":"view"},{"type":"function","name":"s_maxJobs","inputs":[],"outputs":[{"name":"","type":"uint256","internalType":"uint256"}],"stateMutability":"view"},{"type":"function","name":"setMaxJobs","inputs":[{"name":"maxJobs","type":"uint256","internalType":"uint256"}],"outputs":[],"stateMutability":"nonpayable"},{"type":"function","name":"transferOwnership","inputs":[{"name":"to","type":"address","internalType":"address"}],"outputs":[],"stateMutability":"nonpayable"},{"type":"event","name":"NewCronUpkeepCreated","inputs":[{"name":"upkeep","type":"address","indexed":false,"internalType":"address"},{"name":"owner","type":"address","indexed":false,"internalType":"address"}],"anonymous":false},{"type":"event","name":"OwnershipTransferRequested","inputs":[{"name":"from","type":"address","indexed":true,"internalType":"address"},{"name":"to","type":"address","indexed":true,"internalType":"address"}],"anonymous":false},{"type":"event","name":"OwnershipTransferred","inputs":[{"name":"from","type":"address","indexed":true,"internalType":"address"},{"name":"to","type":"address","indexed":true,"internalType":"address"}],"anonymous":false}],"bytecode":{"object":"0x60a0604052600560025534801561001557600080fd5b50338060008161006c5760405162461bcd60e51b815260206004820152601860248201527f43616e6e6f7420736574206f776e657220746f207a65726f000000000000000060448201526064015b60405180910390fd5b600080546001600160a01b0319166001600160a01b038481169190911790915581161561009c5761009c816100dd565b5050506040516100ab90610187565b604051809103906000f0801580156100c7573d6000803e3d6000fd5b5060601b6001600160601b031916608052610195565b6001600160a01b0381163314156101365760405162461bcd60e51b815260206004820152601760248201527f43616e6e6f74207472616e7366657220746f2073656c660000000000000000006044820152606401610063565b600180546001600160a01b0319166001600160a01b0383811691821790925560008054604051929316917fed8889f560326eb138920d842192f0eb3dd22b4f139c87a2c57538e05bae12789190a350565b6114498062004f2583390190565b60805160601c614d6a620001bb6000396000818161013601526104140152614d6a6000f3fe60806040523480156200001157600080fd5b5060043610620000ab5760003560e01c8063a1ef9e7b116200006e578063a1ef9e7b1462000134578063cab53eed146200015b578063d3b298531462000172578063ebfe2b801462000189578063f2fde38b14620001a057600080fd5b806347b1fa0714620000b05780637500a69914620000df57806379ba509714620000f85780638da5cb5b146200010457806398092b71146200012a575b600080fd5b620000c7620000c136600462000841565b620001b7565b604051620000d6919062000b9a565b60405180910390f35b620000e960025481565b604051908152602001620000d6565b6200010262000251565b005b6000546001600160a01b03165b6040516001600160a01b039091168152602001620000d6565b6200010262000301565b7f000000000000000000000000000000000000000000000000000000000000000062000111565b620001026200016c366004620009a8565b6200031d565b620000c762000183366004620007c4565b6200032c565b620001026200019a36600462000841565b620003f0565b62000102620001b13660046200079f565b62000495565b60405163e04b976960e01b815260609073cccccccccccccccccccc000000000000000000009063e04b976990620001f390859060040162000b9a565b60006040518083038186803b1580156200020c57600080fd5b505af415801562000221573d6000803e3d6000fd5b505050506040513d6000823e601f3d908101601f191682016040526200024b919081019062000882565b92915050565b6001546001600160a01b03163314620002aa5760405162461bcd60e51b815260206004820152601660248201527526bab9ba10313290383937b837b9b2b21037bbb732b960511b60448201526064015b60405180910390fd5b60008054336001600160a01b0319808316821784556001805490911690556040516001600160a01b0390921692909183917f8be0079c531659141344cd1fd0a4f28419497f9722a3daafe3b4186f6b6457e091a350565b6200031b60405180602001604052806000815250620003f0565b565b62000327620004ad565b600255565b6060600073cccccccccccccccccccc000000000000000000006336d24def846040518263ffffffff1660e01b815260040162000369919062000b9a565b6114006040518083038186803b1580156200038357600080fd5b505af415801562000398573d6000803e3d6000fd5b505050506040513d601f19601f82011682018060405250810190620003be919062000902565b9050848482604051602001620003d79392919062000b00565b6040516020818303038152906040529150509392505050565b7f959d571686b1c9343b61bdc3c0459760cb9695fcd4c4c64845e3b2cdd6865ced337f0000000000000000000000000000000000000000000000000000000000000000600254846040516200044590620005ae565b62000454949392919062000ac1565b604051809103906000f08015801562000471573d6000803e3d6000fd5b50604080516001600160a01b0390921682523360208301520160405180910390a150565b6200049f620004ad565b620004aa8162000502565b50565b6000546001600160a01b031633146200031b5760405162461bcd60e51b815260206004820152601660248201527527b7363c9031b0b63630b1363290313c9037bbb732b960511b6044820152606401620002a1565b6001600160a01b0381163314156200055d5760405162461bcd60e51b815260206004820152601760248201527f43616e6e6f74207472616e7366657220746f2073656c660000000000000000006044820152606401620002a1565b600180546001600160a01b0319166001600160a01b0383811691821790925560008054604051929316917fed8889f560326eb138920d842192f0eb3dd22b4f139c87a2c57538e05bae12789190a350565b6140e18062000c5483390190565b80356001600160a01b0381168114620005d457600080fd5b919050565b600082601f830112620005eb57600080fd5b60405161034080820182811067ffffffffffffffff8211171562000613576200061362000c3d565b60405281848281018710156200062857600080fd5b600092505b601a831015620006585762000642816200078d565b825260019290920191602091820191016200062d565b509195945050505050565b600082601f8301126200067557600080fd5b81356200068c620006868262000be3565b62000baf565b818152846020838601011115620006a257600080fd5b816020850160208301376000918101602001919091529392505050565b60006104008284031215620006d357600080fd5b60405160e0810181811067ffffffffffffffff82111715620006f957620006f962000c3d565b80604052508091508251600581106200071157600080fd5b815262000721602084016200078d565b602082015262000734604084016200078d565b604082015262000747606084016200078d565b60608201526200075a608084016200078d565b60808201526200076d60a084016200078d565b60a0820152620007818460c08501620005d9565b60c08201525092915050565b805160ff81168114620005d457600080fd5b600060208284031215620007b257600080fd5b620007bd82620005bc565b9392505050565b600080600060608486031215620007da57600080fd5b620007e584620005bc565b9250602084013567ffffffffffffffff808211156200080357600080fd5b620008118783880162000663565b935060408601359150808211156200082857600080fd5b50620008378682870162000663565b9150509250925092565b6000602082840312156200085457600080fd5b813567ffffffffffffffff8111156200086c57600080fd5b6200087a8482850162000663565b949350505050565b6000602082840312156200089557600080fd5b815167ffffffffffffffff811115620008ad57600080fd5b8201601f81018413620008bf57600080fd5b8051620008d0620006868262000be3565b818152856020838501011115620008e657600080fd5b620008f982602083016020860162000c0e565b95945050505050565b600061140082840312156200091657600080fd5b60405160a0810181811067ffffffffffffffff821117156200093c576200093c62000c3d565b6040526200094b8484620006bf565b81526200095d846104008501620006bf565b602082015262000972846108008501620006bf565b60408201526200098784610c008501620006bf565b60608201526200099c846110008501620006bf565b60808201529392505050565b600060208284031215620009bb57600080fd5b5035919050565b8060005b601a811015620009ea57815160ff16845260209384019390910190600101620009c6565b50505050565b6000815180845262000a0a81602086016020860162000c0e565b601f01601f19169290920160200192915050565b80516005811062000a3f57634e487b7160e01b600052602160045260246000fd5b8083525060ff6020820151166020830152604081015162000a65604084018260ff169052565b50606081015162000a7b606084018260ff169052565b50608081015162000a91608084018260ff169052565b5060a081015162000aa760a084018260ff169052565b5060c081015162000abc60c0840182620009c2565b505050565b6001600160a01b038581168252841660208201526040810183905260806060820181905260009062000af690830184620009f0565b9695505050505050565b6001600160a01b03841681526114406020820181905260009062000b2783820186620009f0565b91505062000b3a60408301845162000a1e565b602083015162000b4f61044084018262000a1e565b50604083015162000b6561084084018262000a1e565b50606083015162000b7b610c4084018262000a1e565b50608083015162000b9161104084018262000a1e565b50949350505050565b602081526000620007bd6020830184620009f0565b604051601f8201601f1916810167ffffffffffffffff8111828210171562000bdb5762000bdb62000c3d565b604052919050565b600067ffffffffffffffff82111562000c005762000c0062000c3d565b50601f01601f191660200190565b60005b8381101562000c2b57818101518382015260200162000c11565b83811115620009ea5750506000910152565b634e487b7160e01b600052604160045260246000fdfe60c060405260016002553480156200001657600080fd5b50604051620040e1380380620040e1833981016040819052620000399162000ba1565b838060006001600160a01b038216620000995760405162461bcd60e51b815260206004820152601860248201527f43616e6e6f7420736574206f776e657220746f207a65726f000000000000000060448201526064015b60405180910390fd5b600080546001600160a01b0319166001600160a01b0384811691909117909155811615620000cc57620000cc8162000138565b50506001805460ff60a01b19169055506001600160601b0319606084901b1660805260a08290528051156200012e5760008060008380602001905181019062000116919062000abf565b919450925090506200012a838383620001e4565b5050505b5050505062000d9b565b6001600160a01b038116331415620001935760405162461bcd60e51b815260206004820152601760248201527f43616e6e6f74207472616e7366657220746f2073656c66000000000000000000604482015260640162000090565b600180546001600160a01b0319166001600160a01b0383811691821790925560008054604051929316917fed8889f560326eb138920d842192f0eb3dd22b4f139c87a2c57538e05bae12789190a350565b60025462000200600382620006ed602090811b620012d817901c565b50600081815260076020908152604080832080546001600160a01b0319166001600160a01b03891617905560088252909120845162000242928601906200078b565b506000818152600660205260409020825180518254859392918391829060ff191660018360048111156200027a576200027a62000d56565b02179055506020820151815460408401516060850151608086015160a087015162ffff001990941661010060ff9687160262ff000019161762010000938616939093029290921764ffff000000191663010000009185169190910260ff60201b191617640100000000918416919091021760ff60281b191665010000000000929091169190910217815560c08201516200031b906001830190601a6200081a565b50505060208201518051600283018054909190829060ff191660018360048111156200034b576200034b62000d56565b02179055506020820151815460408401516060850151608086015160a087015162ffff001990941661010060ff9687160262ff000019161762010000938616939093029290921764ffff000000191663010000009185169190910260ff60201b191617640100000000918416919091021760ff60281b191665010000000000929091169190910217815560c0820151620003ec906001830190601a6200081a565b5050506040820151805160048084018054909291839160ff19169060019084908111156200041e576200041e62000d56565b02179055506020820151815460408401516060850151608086015160a087015162ffff001990941661010060ff9687160262ff000019161762010000938616939093029290921764ffff000000191663010000009185169190910260ff60201b191617640100000000918416919091021760ff60281b191665010000000000929091169190910217815560c0820151620004bf906001830190601a6200081a565b50505060608201518051600683018054909190829060ff19166001836004811115620004ef57620004ef62000d56565b02179055506020820151815460408401516060850151608086015160a087015162ffff001990941661010060ff9687160262ff000019161762010000938616939093029290921764ffff000000191663010000009185169190910260ff60201b191617640100000000918416919091021760ff60281b191665010000000000929091169190910217815560c082015162000590906001830190601a6200081a565b50505060808201518051600883018054909190829060ff19166001836004811115620005c057620005c062000d56565b02179055506020820151815460408401516060850151608086015160a087015162ffff001990941661010060ff9687160262ff000019161762010000938616939093029290921764ffff000000191663010000009185169190910260ff60201b191617640100000000918416919091021760ff60281b191665010000000000929091169190910217815560c082015162000661906001830190601a6200081a565b505050600083815260056020526040902042905550620006849050848462000704565b6000828152600960205260408120919091556002805491620006a68362000d2c565b9190505550807fe66fb0bca0f9d6a395d3eaf5f39c6ac87dd34aff4e3f2f9a9b33a46f155896278585604051620006df92919062000c4d565b60405180910390a250505050565b6000620006fb838362000739565b90505b92915050565b600082826040516020016200071b92919062000c16565b60405160208183030381529060405280519060200120905092915050565b60008181526001830160205260408120546200078257508154600181810184556000848152602080822090930184905584548482528286019093526040902091909155620006fe565b506000620006fe565b828054620007999062000cef565b90600052602060002090601f016020900481019282620007bd576000855562000808565b82601f10620007d857805160ff191683800117855562000808565b8280016001018555821562000808579182015b8281111562000808578251825591602001919060010190620007eb565b5062000816929150620008aa565b5090565b600183019183908215620008085791602002820160005b838211156200087157835183826101000a81548160ff021916908360ff160217905550926020019260010160208160000104928301926001030262000831565b8015620008a05782816101000a81549060ff021916905560010160208160000104928301926001030262000871565b5050620008169291505b5b80821115620008165760008155600101620008ab565b600082601f830112620008d357600080fd5b6040516103408082016001600160401b0381118382101715620008fa57620008fa62000d6c565b60405281848281018710156200090f57600080fd5b600092505b601a8310156200093f57620009298162000aa8565b8252600192909201916020918201910162000914565b509195945050505050565b600082601f8301126200095c57600080fd5b81516001600160401b038082111562000979576200097962000d6c565b604051601f8301601f19908116603f01168101908282118183101715620009a457620009a462000d6c565b81604052838152866020858801011115620009be57600080fd5b620009d184602083016020890162000cbc565b9695505050505050565b60006104008284031215620009ef57600080fd5b60405160e081016001600160401b038111828210171562000a145762000a1462000d6c565b806040525080915082516005811062000a2c57600080fd5b815262000a3c6020840162000aa8565b602082015262000a4f6040840162000aa8565b604082015262000a626060840162000aa8565b606082015262000a756080840162000aa8565b608082015262000a8860a0840162000aa8565b60a082015262000a9c8460c08501620008c1565b60c08201525092915050565b805160ff8116811462000aba57600080fd5b919050565b600080600083850361144081121562000ad757600080fd5b845162000ae48162000d82565b60208601519094506001600160401b0381111562000b0157600080fd5b62000b0f878288016200094a565b935050611400603f198201121562000b2657600080fd5b5062000b3162000c91565b62000b408660408701620009db565b815262000b52866104408701620009db565b602082015262000b67866108408701620009db565b604082015262000b7c86610c408701620009db565b606082015262000b91866110408701620009db565b6080820152809150509250925092565b6000806000806080858703121562000bb857600080fd5b845162000bc58162000d82565b602086015190945062000bd88162000d82565b6040860151606087015191945092506001600160401b0381111562000bfc57600080fd5b62000c0a878288016200094a565b91505092959194509250565b606083901b6001600160601b0319168152815160009062000c3f81601485016020870162000cbc565b919091016014019392505050565b60018060a01b0383168152604060208201526000825180604084015262000c7c81606085016020870162000cbc565b601f01601f1916919091016060019392505050565b60405160a081016001600160401b038111828210171562000cb65762000cb662000d6c565b60405290565b60005b8381101562000cd957818101518382015260200162000cbf565b8381111562000ce9576000848401525b50505050565b600181811c9082168062000d0457607f821691505b6020821081141562000d2657634e487b7160e01b600052602260045260246000fd5b50919050565b600060001982141562000d4f57634e487b7160e01b600052601160045260246000fd5b5060010190565b634e487b7160e01b600052602160045260246000fd5b634e487b7160e01b600052604160045260246000fd5b6001600160a01b038116811462000d9857600080fd5b50565b60805160601c60a05161330f62000dd2600039600081816101f001526110890152600081816102f90152610faa015261330f6000f3fe6080604052600436106100e15760003560e01c806379ba50971161007f5780638da5cb5b116100595780638da5cb5b1461026a578063cb647f1014610292578063ea87605b146102b4578063f2fde38b146102d4576100f0565b806379ba50971461022057806380fc37b3146102355780638456cb5914610255576100f0565b80635077e92f116100bb5780635077e92f1461014d5780635c975abb146101865780636e04ff0d146101b05780637500a699146101de576100f0565b8063245c3a8a146100f85780633f4ba83a146101185780634585e33b1461012d576100f0565b366100f0576100ee6102f4565b005b6100ee6102f4565b34801561010457600080fd5b506100ee610113366004612d27565b61031f565b34801561012457600080fd5b506100ee61080f565b34801561013957600080fd5b506100ee610148366004612b74565b61081f565b34801561015957600080fd5b5061016d610168366004612cf5565b610900565b60405161017d9493929190612f5f565b60405180910390f35b34801561019257600080fd5b50600154600160a01b900460ff16604051901515815260200161017d565b3480156101bc57600080fd5b506101d06101cb366004612b74565b610f91565b60405161017d929190612feb565b3480156101ea57600080fd5b506102127f000000000000000000000000000000000000000000000000000000000000000081565b60405190815260200161017d565b34801561022c57600080fd5b506100ee610fd5565b34801561024157600080fd5b506100ee610250366004612afe565b61107f565b34801561026157600080fd5b506100ee6110f9565b34801561027657600080fd5b506000546040516001600160a01b03909116815260200161017d565b34801561029e57600080fd5b506102a7611109565b60405161017d9190612fa7565b3480156102c057600080fd5b506100ee6102cf366004612cf5565b6111ac565b3480156102e057600080fd5b506100ee6102ef366004612ada565b6112c4565b61031d7f00000000000000000000000000000000000000000000000000000000000000006112ed565b565b610327611316565b83610333600382611369565b6103585760405163229e83cd60e11b8152600481018290526024015b60405180910390fd5b60008280602001905181019061036e9190612c5d565b600087815260076020908152604080832080546001600160a01b0319166001600160a01b038b161790556008825290912086519293506103b29290918701906127d3565b506000868152600660205260409020815180518254849392918391829060ff191660018360048111156103e7576103e761326c565b02179055506020820151815460408401516060850151608086015160a087015162ffff001990941661010060ff9687160262ff000019161762010000938616939093029290921764ffff000000191663010000009185169190910260ff60201b191617600160201b918416919091021760ff60281b1916600160281b929091169190910217815560c0820151610483906001830190601a612857565b50505060208201518051600283018054909190829060ff191660018360048111156104b0576104b061326c565b02179055506020820151815460408401516060850151608086015160a087015162ffff001990941661010060ff9687160262ff000019161762010000938616939093029290921764ffff000000191663010000009185169190910260ff60201b191617600160201b918416919091021760ff60281b1916600160281b929091169190910217815560c082015161054c906001830190601a612857565b5050506040820151805160048084018054909291839160ff191690600190849081111561057b5761057b61326c565b02179055506020820151815460408401516060850151608086015160a087015162ffff001990941661010060ff9687160262ff000019161762010000938616939093029290921764ffff000000191663010000009185169190910260ff60201b191617600160201b918416919091021760ff60281b1916600160281b929091169190910217815560c0820151610617906001830190601a612857565b50505060608201518051600683018054909190829060ff191660018360048111156106445761064461326c565b02179055506020820151815460408401516060850151608086015160a087015162ffff001990941661010060ff9687160262ff000019161762010000938616939093029290921764ffff000000191663010000009185169190910260ff60201b191617600160201b918416919091021760ff60281b1916600160281b929091169190910217815560c08201516106e0906001830190601a612857565b50505060808201518051600883018054909190829060ff1916600183600481111561070d5761070d61326c565b02179055506020820151815460408401516060850151608086015160a087015162ffff001990941661010060ff9687160262ff000019161762010000938616939093029290921764ffff000000191663010000009185169190910260ff60201b191617600160201b918416919091021760ff60281b1916600160281b929091169190910217815560c08201516107a9906001830190601a612857565b5050509050506107b98585611381565b60008781526009602052604090819020919091555186907feeaf6ad42034ba5357ffd961b8c80bf6cbf53c224020541e46573a3f19ef09a5906107ff9088908890612f3b565b60405180910390a2505050505050565b610817611316565b61031d6113b4565b610827611409565b600080808061083885870187612da7565b935093509350935061084c84848484611456565b600084815260056020526040808220429055516001600160a01b03841690610875908490612f1f565b6000604051808303816000865af19150503d80600081146108b2576040519150601f19603f3d011682016040523d82523d6000602084013e6108b7565b606091505b50509050847f25d1b235668fd0219da15f5fa6054013a53e59c4f3ea31459dc1d4e0b9f23d26826040516108ef911515815260200190565b60405180910390a250505050505050565b60006060808284610912600382611369565b6109325760405163229e83cd60e11b81526004810182905260240161034f565b600086815260066020526040808220815161018081019092528054829060a08201908390829060ff16600481111561096c5761096c61326c565b600481111561097d5761097d61326c565b8152815460ff61010082048116602084015262010000820481166040808501919091526301000000830482166060850152600160201b830482166080850152600160281b9092041660a0830152805161034081019182905260c090920191906001840190601a90826000855b825461010083900a900460ff168152602060019283018181049485019490930390920291018084116109e95790505050509190925250505081526040805160e08101909152600283018054602090930192829060ff166004811115610a5057610a5061326c565b6004811115610a6157610a6161326c565b8152815460ff61010082048116602084015262010000820481166040808501919091526301000000830482166060850152600160201b830482166080850152600160281b9092041660a0830152805161034081019182905260c090920191906001840190601a90826000855b825461010083900a900460ff16815260206001928301818104948501949093039092029101808411610acd5790505050505050815250508152602001600482016040518060e00160405290816000820160009054906101000a900460ff166004811115610b3c57610b3c61326c565b6004811115610b4d57610b4d61326c565b8152815460ff61010082048116602084015262010000820481166040808501919091526301000000830482166060850152600160201b830482166080850152600160281b9092041660a0830152805161034081019182905260c090920191906001840190601a90826000855b825461010083900a900460ff16815260206001928301818104948501949093039092029101808411610bb95790505050509190925250505081526040805160e08101909152600683018054602090930192829060ff166004811115610c2057610c2061326c565b6004811115610c3157610c3161326c565b8152815460ff61010082048116602084015262010000820481166040808501919091526301000000830482166060850152600160201b830482166080850152600160281b9092041660a0830152805161034081019182905260c090920191906001840190601a90826000855b825461010083900a900460ff16815260206001928301818104948501949093039092029101808411610c9d5790505050509190925250505081526040805160e08101909152600883018054602090930192829060ff166004811115610d0457610d0461326c565b6004811115610d1557610d1561326c565b8152815460ff61010082048116602084015262010000820481166040808501919091526301000000830482166060850152600160201b830482166080850152600160281b9092041660a0830152805161034081019182905260c090920191906001840190601a90826000855b825461010083900a900460ff16815260206001928301818104948501949093039092029101808411610d81575050509290935250505091525050600088815260076020908152604080832054600890925291829020915163286ac93d60e21b81529293506001600160a01b03169173cccccccccccccccccccc000000000000000000009063a1ab24f490610e19908690600401613006565b60006040518083038186803b158015610e3157600080fd5b505af4158015610e45573d6000803e3d6000fd5b505050506040513d6000823e601f3d908101601f19168201604052610e6d9190810190612be6565b6040516334373a3b60e01b815273cccccccccccccccccccc00000000000000000000906334373a3b90610ea4908790600401613006565b60206040518083038186803b158015610ebc57600080fd5b505af4158015610ed0573d6000803e3d6000fd5b505050506040513d601f19601f82011682018060405250810190610ef49190612d0e565b828054610f0090613173565b80601f0160208091040260200160405190810160405280929190818152602001828054610f2c90613173565b8015610f795780601f10610f4e57610100808354040283529160200191610f79565b820191906000526020600020905b815481529060010190602001808311610f5c57829003601f168201915b50505050509250955095509550955050509193509193565b60006060610f9d611409565b610fa56119a7565b610fce7f00000000000000000000000000000000000000000000000000000000000000006112ed565b9250929050565b6001546001600160a01b031633146110285760405162461bcd60e51b815260206004820152601660248201527526bab9ba10313290383937b837b9b2b21037bbb732b960511b604482015260640161034f565b60008054336001600160a01b0319808316821784556001805490911690556040516001600160a01b0390921692909183917f8be0079c531659141344cd1fd0a4f28419497f9722a3daafe3b4186f6b6457e091a350565b611087611316565b7f00000000000000000000000000000000000000000000000000000000000000006110b260036119c6565b106110d0576040516325d8e56960e21b815260040160405180910390fd5b6000818060200190518101906110e69190612c5d565b90506110f38484836119d0565b50505050565b611101611316565b61031d611e9b565b6060600061111760036119c6565b905060008167ffffffffffffffff811115611134576111346132ae565b60405190808252806020026020018201604052801561115d578160200160208202803683370190505b50905060005b828110156111a557611176600382611ede565b82828151811061118857611188613298565b60209081029190910101528061119d816131ae565b915050611163565b5092915050565b6111b4611316565b806111c0600382611369565b6111e05760405163229e83cd60e11b81526004810182905260240161034f565b60008281526005602081815260408084208490556006808352818520805465ffffffffffff199081168255600182018790556002820180548216905560038201879055600482018054821690559481018690559081018054851690556007808201869055600880830180549096169095556009909101859055825280842080546001600160a01b0319169055919052812061127a916128e5565b600082815260096020526040812055611294600383611eea565b5060405182907f7aaa5a7c35e162386d922bd67e91ea476d38d9bb931bc369d8b15ab11325097490600090a25050565b6112cc611316565b6112d581611ef6565b50565b60006112e48383611fa0565b90505b92915050565b3660008037600080366000845af43d6000803e80801561130c573d6000f35b3d6000fd5b505050565b6000546001600160a01b0316331461031d5760405162461bcd60e51b815260206004820152601660248201527527b7363c9031b0b63630b1363290313c9037bbb732b960511b604482015260640161034f565b600081815260018301602052604081205415156112e4565b60008282604051602001611396929190612ee7565b60405160208183030381529060405280519060200120905092915050565b6113bc611fef565b6001805460ff60a01b191690557f5db9ee0a495bf2e6ff9c91a7834c1ba4fdd244a5e8aa4e537bd38aeae4b073aa335b6040516001600160a01b03909116815260200160405180910390a1565b600154600160a01b900460ff161561031d5760405162461bcd60e51b815260206004820152601060248201526f14185d5cd8589b194e881c185d5cd95960821b604482015260640161034f565b611461603c8461320a565b61146b9084613130565b92508242101561148e57604051635077b0cb60e11b815260040160405180910390fd5b60008481526005602052604090205483116114bc5760405163753a4acf60e01b815260040160405180910390fd5b60008481526006602052604090819020815161018081019092528054611953929190829060a08201908390829060ff1660048111156114fd576114fd61326c565b600481111561150e5761150e61326c565b8152815460ff61010082048116602084015262010000820481166040808501919091526301000000830482166060850152600160201b830482166080850152600160281b9092041660a0830152805161034081019182905260c090920191906001840190601a90826000855b825461010083900a900460ff1681526020600192830181810494850194909303909202910180841161157a5790505050509190925250505081526040805160e08101909152600283018054602090930192829060ff1660048111156115e1576115e161326c565b60048111156115f2576115f261326c565b8152815460ff61010082048116602084015262010000820481166040808501919091526301000000830482166060850152600160201b830482166080850152600160281b9092041660a0830152805161034081019182905260c090920191906001840190601a90826000855b825461010083900a900460ff1681526020600192830181810494850194909303909202910180841161165e5790505050505050815250508152602001600482016040518060e00160405290816000820160009054906101000a900460ff1660048111156116cd576116cd61326c565b60048111156116de576116de61326c565b8152815460ff61010082048116602084015262010000820481166040808501919091526301000000830482166060850152600160201b830482166080850152600160281b9092041660a0830152805161034081019182905260c090920191906001840190601a90826000855b825461010083900a900460ff1681526020600192830181810494850194909303909202910180841161174a5790505050509190925250505081526040805160e08101909152600683018054602090930192829060ff1660048111156117b1576117b161326c565b60048111156117c2576117c261326c565b8152815460ff61010082048116602084015262010000820481166040808501919091526301000000830482166060850152600160201b830482166080850152600160281b9092041660a0830152805161034081019182905260c090920191906001840190601a90826000855b825461010083900a900460ff1681526020600192830181810494850194909303909202910180841161182e5790505050509190925250505081526040805160e08101909152600883018054602090930192829060ff1660048111156118955761189561326c565b60048111156118a6576118a661326c565b8152815460ff61010082048116602084015262010000820481166040808501919091526301000000830482166060850152600160201b830482166080850152600160281b9092041660a0830152805161034081019182905260c090920191906001840190601a90826000855b825461010083900a900460ff16815260206001928301818104948501949093039092029101808411611912579050505050505081525050815250508461203f565b61197057604051631653b6bd60e01b815260040160405180910390fd5b6000848152600960205260409020546119898383611381565b146110f35760405163d8f59fa560e01b815260040160405180910390fd5b321561031d5760405163b60ac5db60e01b815260040160405180910390fd5b60006112e7825490565b6002546119de6003826112d8565b50600081815260076020908152604080832080546001600160a01b0319166001600160a01b038916179055600882529091208451611a1e928601906127d3565b506000818152600660205260409020825180518254859392918391829060ff19166001836004811115611a5357611a5361326c565b02179055506020820151815460408401516060850151608086015160a087015162ffff001990941661010060ff9687160262ff000019161762010000938616939093029290921764ffff000000191663010000009185169190910260ff60201b191617600160201b918416919091021760ff60281b1916600160281b929091169190910217815560c0820151611aef906001830190601a612857565b50505060208201518051600283018054909190829060ff19166001836004811115611b1c57611b1c61326c565b02179055506020820151815460408401516060850151608086015160a087015162ffff001990941661010060ff9687160262ff000019161762010000938616939093029290921764ffff000000191663010000009185169190910260ff60201b191617600160201b918416919091021760ff60281b1916600160281b929091169190910217815560c0820151611bb8906001830190601a612857565b5050506040820151805160048084018054909291839160ff1916906001908490811115611be757611be761326c565b02179055506020820151815460408401516060850151608086015160a087015162ffff001990941661010060ff9687160262ff000019161762010000938616939093029290921764ffff000000191663010000009185169190910260ff60201b191617600160201b918416919091021760ff60281b1916600160281b929091169190910217815560c0820151611c83906001830190601a612857565b50505060608201518051600683018054909190829060ff19166001836004811115611cb057611cb061326c565b02179055506020820151815460408401516060850151608086015160a087015162ffff001990941661010060ff9687160262ff000019161762010000938616939093029290921764ffff000000191663010000009185169190910260ff60201b191617600160201b918416919091021760ff60281b1916600160281b929091169190910217815560c0820151611d4c906001830190601a612857565b50505060808201518051600883018054909190829060ff19166001836004811115611d7957611d7961326c565b02179055506020820151815460408401516060850151608086015160a087015162ffff001990941661010060ff9687160262ff000019161762010000938616939093029290921764ffff000000191663010000009185169190910260ff60201b191617600160201b918416919091021760ff60281b1916600160281b929091169190910217815560c0820151611e15906001830190601a612857565b505050600083815260056020526040902042905550611e3690508484611381565b6000828152600960205260408120919091556002805491611e56836131ae565b9190505550807fe66fb0bca0f9d6a395d3eaf5f39c6ac87dd34aff4e3f2f9a9b33a46f155896278585604051611e8d929190612f3b565b60405180910390a250505050565b611ea3611409565b6001805460ff60a01b1916600160a01b1790557f62e78cea01bee320cd4e420270b5ea74000d11b0c9f74754ebdbfc544b05a2586113ec3390565b60006112e483836120b2565b60006112e483836120dc565b6001600160a01b038116331415611f4f5760405162461bcd60e51b815260206004820152601760248201527f43616e6e6f74207472616e7366657220746f2073656c66000000000000000000604482015260640161034f565b600180546001600160a01b0319166001600160a01b0383811691821790925560008054604051929316917fed8889f560326eb138920d842192f0eb3dd22b4f139c87a2c57538e05bae12789190a350565b6000818152600183016020526040812054611fe7575081546001818101845560008481526020808220909301849055845484825282860190935260409020919091556112e7565b5060006112e7565b600154600160a01b900460ff1661031d5760405162461bcd60e51b815260206004820152601460248201527314185d5cd8589b194e881b9bdd081c185d5cd95960621b604482015260640161034f565b60008061204b836121cf565b905061205f846060015182602001516123b7565b80156120785750612078846040015182604001516123b7565b80156120915750612091846020015182606001516123b7565b80156120aa57506120aa846000015182608001516123b7565b949350505050565b60008260000182815481106120c9576120c9613298565b9060005260206000200154905092915050565b600081815260018301602052604081205480156121c5576000612100600183613130565b855490915060009061211490600190613130565b905081811461217957600086600001828154811061213457612134613298565b906000526020600020015490508087600001848154811061215757612157613298565b6000918252602080832090910192909255918252600188019052604090208390555b855486908061218a5761218a613282565b6001900381819060005260206000200160009055905585600101600086815260200190815260200160002060009055600193505050506112e7565b60009150506112e7565b6040805160e081018252600080825260208201819052918101829052606081018290526080810182905260a0810182905260c0810182905290808061221385612519565b61ffff1684526122246107b261260e565b84516122339061ffff1661260e565b61223d9190613130565b915061224d826301e285006130ee565b61225790846130c2565b9250816107b2856000015161226c919061310d565b61ffff1661227a9190613130565b612288906301e133806130ee565b61229290846130c2565b92506000600191505b600c8260ff1611612303576122b4828660000151612653565b6122c49060ff16620151806130ee565b9050856122d185836130c2565b11156122e55760ff82166020860152612303565b6122ef81856130c2565b9350816122fb816131c9565b92505061229b565b600191505b61231a85602001518660000151612653565b60ff168260ff1611612369578561233485620151806130c2565b11156123485760ff82166040860152612369565b61235562015180856130c2565b935081612361816131c9565b925050612308565b61237286612719565b60ff1660608601526123838661273d565b60ff1660808601526123948661274b565b60ff1660a08601526123a586612758565b60ff1660c08601525092949350505050565b600080835160048111156123cd576123cd61326c565b14156123db575060016112e7565b6002835160048111156123f0576123f061326c565b1415612410576040830151612405908361321e565b60ff161590506112e7565b6001835160048111156124255761242561326c565b141561243f57826020015160ff168260ff161490506112e7565b6003835160048111156124545761245461326c565b141561248557826060015160ff168260ff161015801561247e5750826080015160ff168260ff1611155b90506112e7565b60048351600481111561249a5761249a61326c565b14156125005760005b8360a0015160ff168110156124f6578360c0015181601a81106124c8576124c8613298565b602002015160ff168360ff1614156124e45760019150506112e7565b806124ee816131ae565b9150506124a3565b50600090506112e7565b604051637d8d432960e01b815260040160405180910390fd5b600080808061252c6301e13380866130da565b612538906107b26130c2565b91506125456107b261260e565b6125528361ffff1661260e565b61255c9190613130565b905061256c816301e285006130ee565b61257690846130c2565b9250806125856107b28461310d565b61ffff166125939190613130565b6125a1906301e133806130ee565b6125ab90846130c2565b92505b84831115612606576125c96125c460018461310d565b612774565b156125e3576125dc6301e2850084613130565b92506125f4565b6125f16301e1338084613130565b92505b6125ff60018361310d565b91506125ae565b509392505050565b600061261b600183613130565b9150612629610190836130da565b6126346064846130da565b61263f6004856130da565b6126499190613130565b6112e791906130c2565b60008260ff166001148061266a57508260ff166003145b8061267857508260ff166005145b8061268657508260ff166007145b8061269457508260ff166008145b806126a257508260ff16600a145b806126b057508260ff16600c145b156126bd5750601f6112e7565b8260ff16600414806126d257508260ff166006145b806126e057508260ff166009145b806126ee57508260ff16600b145b156126fb5750601e6112e7565b61270482612774565b156127115750601d6112e7565b50601c6112e7565b60006018603c61272981856130da565b61273391906130da565b6112e7919061320a565b6000603c61273381846130da565b60006112e7603c8361320a565b6000600761276962015180846130da565b6127339060046130c2565b60006127816004836131e9565b61ffff161561279257506000919050565b61279d6064836131e9565b61ffff16156127ae57506001919050565b6127ba610190836131e9565b61ffff16156127cb57506000919050565b506001919050565b8280546127df90613173565b90600052602060002090601f0160209004810192826128015760008555612847565b82601f1061281a57805160ff1916838001178555612847565b82800160010185558215612847579182015b8281111561284757825182559160200191906001019061282c565b5061285392915061291b565b5090565b6001830191839082156128475791602002820160005b838211156128ab57835183826101000a81548160ff021916908360ff160217905550926020019260010160208160000104928301926001030261286d565b80156128d85782816101000a81549060ff02191690556001016020816000010492830192600103026128ab565b505061285392915061291b565b5080546128f190613173565b6000825580601f10612901575050565b601f0160209004906000526020600020908101906112d591905b5b80821115612853576000815560010161291c565b600082601f83011261294157600080fd5b60405161034080820182811067ffffffffffffffff82111715612966576129666132ae565b604052818482810187101561297a57600080fd5b600092505b601a8310156129a65761299181612ac4565b8252600192909201916020918201910161297f565b509195945050505050565b600082601f8301126129c257600080fd5b81356129d56129d08261309a565b613069565b8181528460208386010111156129ea57600080fd5b816020850160208301376000918101602001919091529392505050565b60006104008284031215612a1a57600080fd5b60405160e0810181811067ffffffffffffffff82111715612a3d57612a3d6132ae565b8060405250809150825160058110612a5457600080fd5b8152612a6260208401612ac4565b6020820152612a7360408401612ac4565b6040820152612a8460608401612ac4565b6060820152612a9560808401612ac4565b6080820152612aa660a08401612ac4565b60a0820152612ab88460c08501612930565b60c08201525092915050565b805160ff81168114612ad557600080fd5b919050565b600060208284031215612aec57600080fd5b8135612af7816132c4565b9392505050565b600080600060608486031215612b1357600080fd5b8335612b1e816132c4565b9250602084013567ffffffffffffffff80821115612b3b57600080fd5b612b47878388016129b1565b93506040860135915080821115612b5d57600080fd5b50612b6a868287016129b1565b9150509250925092565b60008060208385031215612b8757600080fd5b823567ffffffffffffffff80821115612b9f57600080fd5b818501915085601f830112612bb357600080fd5b813581811115612bc257600080fd5b866020828501011115612bd457600080fd5b60209290920196919550909350505050565b600060208284031215612bf857600080fd5b815167ffffffffffffffff811115612c0f57600080fd5b8201601f81018413612c2057600080fd5b8051612c2e6129d08261309a565b818152856020838501011115612c4357600080fd5b612c54826020830160208601613147565b95945050505050565b60006114008284031215612c7057600080fd5b60405160a0810181811067ffffffffffffffff82111715612c9357612c936132ae565b604052612ca08484612a07565b8152612cb0846104008501612a07565b6020820152612cc3846108008501612a07565b6040820152612cd684610c008501612a07565b6060820152612ce9846110008501612a07565b60808201529392505050565b600060208284031215612d0757600080fd5b5035919050565b600060208284031215612d2057600080fd5b5051919050565b60008060008060808587031215612d3d57600080fd5b843593506020850135612d4f816132c4565b9250604085013567ffffffffffffffff80821115612d6c57600080fd5b612d78888389016129b1565b93506060870135915080821115612d8e57600080fd5b50612d9b878288016129b1565b91505092959194509250565b60008060008060808587031215612dbd57600080fd5b84359350602085013592506040850135612dd6816132c4565b9150606085013567ffffffffffffffff811115612df257600080fd5b612d9b878288016129b1565b8060005b601a8110156110f357815160ff16845260209384019390910190600101612e02565b60008151808452612e3c816020860160208601613147565b601f01601f19169290920160200192915050565b805160058110612e7057634e487b7160e01b600052602160045260246000fd5b8083525060ff60208201511660208301526040810151612e95604084018260ff169052565b506060810151612eaa606084018260ff169052565b506080810151612ebf608084018260ff169052565b5060a0810151612ed460a084018260ff169052565b5060c081015161131160c0840182612dfe565b6bffffffffffffffffffffffff198360601b16815260008251612f11816014850160208701613147565b919091016014019392505050565b60008251612f31818460208701613147565b9190910192915050565b6001600160a01b03831681526040602082018190526000906120aa90830184612e24565b6001600160a01b0385168152608060208201819052600090612f8390830186612e24565b8281036040840152612f958186612e24565b91505082606083015295945050505050565b6020808252825182820181905260009190848201906040850190845b81811015612fdf57835183529284019291840191600101612fc3565b50909695505050505050565b82151581526040602082015260006120aa6040830184612e24565b60006114008201905061301a828451612e50565b602083015161302d610400840182612e50565b506040830151613041610800840182612e50565b506060830151613055610c00840182612e50565b5060808301516111a5611000840182612e50565b604051601f8201601f1916810167ffffffffffffffff81118282101715613092576130926132ae565b604052919050565b600067ffffffffffffffff8211156130b4576130b46132ae565b50601f01601f191660200190565b600082198211156130d5576130d5613240565b500190565b6000826130e9576130e9613256565b500490565b600081600019048311821515161561310857613108613240565b500290565b600061ffff8381169083168181101561312857613128613240565b039392505050565b60008282101561314257613142613240565b500390565b60005b8381101561316257818101518382015260200161314a565b838111156110f35750506000910152565b600181811c9082168061318757607f821691505b602082108114156131a857634e487b7160e01b600052602260045260246000fd5b50919050565b60006000198214156131c2576131c2613240565b5060010190565b600060ff821660ff8114156131e0576131e0613240565b60010192915050565b600061ffff808416806131fe576131fe613256565b92169190910692915050565b60008261321957613219613256565b500690565b600060ff83168061323157613231613256565b8060ff84160691505092915050565b634e487b7160e01b600052601160045260246000fd5b634e487b7160e01b600052601260045260246000fd5b634e487b7160e01b600052602160045260246000fd5b634e487b7160e01b600052603160045260246000fd5b634e487b7160e01b600052603260045260246000fd5b634e487b7160e01b600052604160045260246000fd5b6001600160a01b03811681146112d557600080fdfea26469706673582212202491d4ebf03fee5a04f232a0952a04df3626df8e38921e16954e109f576cb11164736f6c63430008060033a2646970667358221220ba37ebeff4d227844565db82dee958bc41d5e71f1a63a19f3bdf99960c4f0b1d64736f6c63430008060033608060405234801561001057600080fd5b50611429806100206000396000f3fe608060405234801561001057600080fd5b506004361061002b5760003560e01c80636e04ff0d14610030575b600080fd5b61004361003e366004611074565b61005a565b6040516100519291906110e6565b60405180910390f35b60006060600061006a6003610103565b90508061008a5750506040805160208101909152600080825291506100fc565b60006100968243611365565b9050600060606100a68385610113565b909250905081156100be5790945092506100fc915050565b6100c9600084610113565b909250905081156100e15790945092506100fc915050565b60006040518060200160405280600081525095509550505050505b9250929050565b600061010d825490565b92915050565b600060608180855b8581101561064b5761012e600382610655565b600081815260066020526040908190208151610180810190925280549295506105ca92829060a08201908390829060ff166004811115610170576101706113c7565b6004811115610181576101816113c7565b8152815460ff61010082048116602084015262010000820481166040808501919091526301000000830482166060850152640100000000830482166080850152600160281b9092041660a0830152805161034081019182905260c090920191906001840190601a90826000855b825461010083900a900460ff168152602060019283018181049485019490930390920291018084116101ee5790505050509190925250505081526040805160e08101909152600283018054602090930192829060ff166004811115610255576102556113c7565b6004811115610266576102666113c7565b8152815460ff61010082048116602084015262010000820481166040808501919091526301000000830482166060850152640100000000830482166080850152600160281b9092041660a0830152805161034081019182905260c090920191906001840190601a90826000855b825461010083900a900460ff168152602060019283018181049485019490930390920291018084116102d35790505050505050815250508152602001600482016040518060e00160405290816000820160009054906101000a900460ff166004811115610342576103426113c7565b6004811115610353576103536113c7565b8152815460ff61010082048116602084015262010000820481166040808501919091526301000000830482166060850152640100000000830482166080850152600160281b9092041660a0830152805161034081019182905260c090920191906001840190601a90826000855b825461010083900a900460ff168152602060019283018181049485019490930390920291018084116103c05790505050509190925250505081526040805160e08101909152600683018054602090930192829060ff166004811115610427576104276113c7565b6004811115610438576104386113c7565b8152815460ff61010082048116602084015262010000820481166040808501919091526301000000830482166060850152640100000000830482166080850152600160281b9092041660a0830152805161034081019182905260c090920191906001840190601a90826000855b825461010083900a900460ff168152602060019283018181049485019490930390920291018084116104a55790505050509190925250505081526040805160e08101909152600883018054602090930192829060ff16600481111561050c5761050c6113c7565b600481111561051d5761051d6113c7565b8152815460ff61010082048116602084015262010000820481166040808501919091526301000000830482166060850152640100000000830482166080850152600160281b9092041660a0830152805161034081019182905260c090920191906001840190601a90826000855b825461010083900a900460ff1681526020600192830181810494850194909303909202910180841161058a57905050505050508152505081525050610668565b600084815260056020526040902054909250821115610639576000838152600760209081526040808320546008835292819020905160019361061e93889388936001600160a01b0390931692909101611145565b604051602081830303815290604052945094505050506100fc565b8061064381611309565b91505061011b565b5050509250929050565b60006106618383610824565b9392505050565b6000806106744261084e565b9050600061068142610943565b9050600061068e42610958565b9050600061069b4261096d565b905060006106a842610991565b90506000805b60ff86161561080e576106c589606001518761099f565b6106d9575060179250603b915060016107fc565b80156106ec576106e98688610b01565b94505b60ff8516156107f85761070389604001518661099f565b6107145760179350603b92506107e6565b610727610722888888610bc7565b610be1565b915061073789608001518361099f565b6107485760179350603b92506107e6565b61075689602001518561099f565b61077057603b925060ff841661076b576107e1565b6107cf565b885161077c908461099f565b6107925760ff831661078d576107be565b6107ac565b61079f8787878787610bfd565b9998505050505050505050565b826107b6816112d4565b935050610770565b603b925060ff84166107cf576107e1565b836107d9816112d4565b945050610748565b601793505b846107f0816112d4565b9550506106ec565b5060015b85610806816112d4565b9650506106ae565b600c95508661081c816112b6565b9750506106ae565b600082600001828154811061083b5761083b6113dd565b9060005260206000200154905092915050565b60008080806108616301e1338086611226565b61086d906107b261120e565b915061087a6107b2610c18565b6108878361ffff16610c18565b610891919061127c565b90506108a1816301e2850061123a565b6108ab908461120e565b9250806108ba6107b284611259565b61ffff166108c8919061127c565b6108d6906301e1338061123a565b6108e0908461120e565b92505b8483111561093b576108fe6108f9600184611259565b610c5d565b15610918576109116301e285008461127c565b9250610929565b6109266301e133808461127c565b92505b610934600183611259565b91506108e3565b509392505050565b600061094e82610cbc565b6020015192915050565b600061096382610cbc565b6040015192915050565b60006018603c61097d8185611226565b6109879190611226565b61010d9190611365565b6000603c6109878184611226565b600080835160048111156109b5576109b56113c7565b14156109c35750600161010d565b6002835160048111156109d8576109d86113c7565b14156109f85760408301516109ed9083611379565b60ff1615905061010d565b600183516004811115610a0d57610a0d6113c7565b1415610a2757826020015160ff168260ff1614905061010d565b600383516004811115610a3c57610a3c6113c7565b1415610a6d57826060015160ff168260ff1610158015610a665750826080015160ff168260ff1611155b905061010d565b600483516004811115610a8257610a826113c7565b1415610ae85760005b8360a0015160ff16811015610ade578360c0015181601a8110610ab057610ab06113dd565b602002015160ff168360ff161415610acc57600191505061010d565b80610ad681611309565b915050610a8b565b506000905061010d565b604051637d8d432960e01b815260040160405180910390fd5b60008260ff1660011480610b1857508260ff166003145b80610b2657508260ff166005145b80610b3457508260ff166007145b80610b4257508260ff166008145b80610b5057508260ff16600a145b80610b5e57508260ff16600c145b15610b6b5750601f61010d565b8260ff1660041480610b8057508260ff166006145b80610b8e57508260ff166009145b80610b9c57508260ff16600b145b15610ba95750601e61010d565b610bb282610c5d565b15610bbf5750601d61010d565b50601c61010d565b6000610bd98484846000806000610ea4565b949350505050565b60006007610bf26201518084611226565b61098790600461120e565b6000610c0e86868686866000610ea4565b9695505050505050565b6000610c2560018361127c565b9150610c3361019083611226565b610c3e606484611226565b610c49600485611226565b610c53919061127c565b61010d919061120e565b6000610c6a600483611344565b61ffff1615610c7b57506000919050565b610c86606483611344565b61ffff1615610c9757506001919050565b610ca361019083611344565b61ffff1615610cb457506000919050565b506001919050565b6040805160e081018252600080825260208201819052918101829052606081018290526080810182905260a0810182905260c08101829052908080610d008561084e565b61ffff168452610d116107b2610c18565b8451610d209061ffff16610c18565b610d2a919061127c565b9150610d3a826301e2850061123a565b610d44908461120e565b9250816107b28560000151610d599190611259565b61ffff16610d67919061127c565b610d75906301e1338061123a565b610d7f908461120e565b92506000600191505b600c8260ff1611610df057610da1828660000151610b01565b610db19060ff166201518061123a565b905085610dbe858361120e565b1115610dd25760ff82166020860152610df0565b610ddc818561120e565b935081610de881611324565b925050610d88565b600191505b610e0785602001518660000151610b01565b60ff168260ff1611610e565785610e21856201518061120e565b1115610e355760ff82166040860152610e56565b610e42620151808561120e565b935081610e4e81611324565b925050610df5565b610e5f8661096d565b60ff166060860152610e7086610991565b60ff166080860152610e8186611048565b60ff1660a0860152610e9286610be1565b60ff1660c08601525092949350505050565b60006107b25b8761ffff168161ffff161015610f0057610ec381610c5d565b15610edd57610ed66301e285008361120e565b9150610eee565b610eeb6301e133808361120e565b91505b80610ef8816112e7565b915050610eaa565b610f08611055565b601f8152610f1589610c5d565b15610f2657601d6020820152610f2e565b601c60208201525b601f60408201819052601e606083018190526080830182905260a0830181905260c0830182905260e0830182905261010083018190526101208301829052610140830152610160820152600191505b8760ff168261ffff161015610fdf5780610f98600184611259565b61ffff16600c8110610fac57610fac6113dd565b6020020151610fc19060ff166201518061123a565b610fcb908461120e565b925081610fd7816112e7565b925050610f7d565b610fea600188611293565b610ffa9060ff166201518061123a565b611004908461120e565b925061101560ff8716610e1061123a565b61101f908461120e565b925061102f60ff8616603c61123a565b611039908461120e565b925061079f60ff85168461120e565b600061010d603c83611365565b604051806101800160405280600c906020820280368337509192915050565b6000806020838503121561108757600080fd5b823567ffffffffffffffff8082111561109f57600080fd5b818501915085601f8301126110b357600080fd5b8135818111156110c257600080fd5b8660208285010111156110d457600080fd5b60209290920196919550909350505050565b821515815260006020604081840152835180604085015260005b8181101561111c57858101830151858201606001528201611100565b8181111561112e576000606083870101525b50601f01601f191692909201606001949350505050565b84815260208082018590526001600160a01b0384166040830152608060608301528254600091908290600181811c908281168061118357607f831692505b8583108114156111a157634e487b7160e01b85526022600452602485fd5b6080880183905260a088018180156111c057600181146111d1576111fc565b60ff198616825287820196506111fc565b60008b81526020902060005b868110156111f6578154848201529085019089016111dd565b83019750505b50949c9b505050505050505050505050565b600082198211156112215761122161139b565b500190565b600082611235576112356113b1565b500490565b60008160001904831182151516156112545761125461139b565b500290565b600061ffff838116908316818110156112745761127461139b565b039392505050565b60008282101561128e5761128e61139b565b500390565b600060ff821660ff8416808210156112ad576112ad61139b565b90039392505050565b600061ffff8216806112ca576112ca61139b565b6000190192915050565b600060ff8216806112ca576112ca61139b565b600061ffff808316818114156112ff576112ff61139b565b6001019392505050565b600060001982141561131d5761131d61139b565b5060010190565b600060ff821660ff81141561133b5761133b61139b565b60010192915050565b600061ffff80841680611359576113596113b1565b92169190910692915050565b600082611374576113746113b1565b500690565b600060ff83168061138c5761138c6113b1565b8060ff84160691505092915050565b634e487b7160e01b600052601160045260246000fd5b634e487b7160e01b600052601260045260246000fd5b634e487b7160e01b600052602160045260246000fd5b634e487b7160e01b600052603260045260246000fdfea2646970667358221220ec74eed874e93a5a50e281d38242a3f546f2a9e8b8a199c8f05b74e616ff366364736f6c63430008060033","linkReferences":{}},"methodIdentifiers":{"acceptOwnership()":"79ba5097","cronDelegateAddress()":"a1ef9e7b","encodeCronJob(address,bytes,string)":"d3b29853","encodeCronString(string)":"47b1fa07","newCronUpkeep()":"98092b71","newCronUpkeepWithJob(bytes)":"ebfe2b80","owner()":"8da5cb5b","s_maxJobs()":"7500a699","setMaxJobs(uint256)":"cab53eed","transferOwnership(address)":"f2fde38b"},"id":31}