{"abi":[{"type":"constructor","inputs":[{"name":"linkToken","type":"address","internalType":"address"},{"name":"config","type":"tuple","internalType":"struct FunctionsRouter.Config","components":[{"name":"maxConsumersPerSubscription","type":"uint16","internalType":"uint16"},{"name":"adminFee","type":"uint72","internalType":"uint72"},{"name":"handleOracleFulfillmentSelector","type":"bytes4","internalType":"bytes4"},{"name":"gasForCallExactCheck","type":"uint16","internalType":"uint16"},{"name":"maxCallbackGasLimits","type":"uint32[]","internalType":"uint32[]"},{"name":"subscriptionDepositMinimumRequests","type":"uint16","internalType":"uint16"},{"name":"subscriptionDepositJuels","type":"uint72","internalType":"uint72"}]}],"stateMutability":"nonpayable"},{"type":"function","name":"MAX_CALLBACK_RETURN_BYTES","inputs":[],"outputs":[{"name":"","type":"uint16","internalType":"uint16"}],"stateMutability":"view"},{"type":"function","name":"acceptOwnership","inputs":[],"outputs":[],"stateMutability":"nonpayable"},{"type":"function","name":"acceptSubscriptionOwnerTransfer","inputs":[{"name":"subscriptionId","type":"uint64","internalType":"uint64"}],"outputs":[],"stateMutability":"nonpayable"},{"type":"function","name":"addConsumer","inputs":[{"name":"subscriptionId","type":"uint64","internalType":"uint64"},{"name":"consumer","type":"address","internalType":"address"}],"outputs":[],"stateMutability":"nonpayable"},{"type":"function","name":"cancelSubscription","inputs":[{"name":"subscriptionId","type":"uint64","internalType":"uint64"},{"name":"to","type":"address","internalType":"address"}],"outputs":[],"stateMutability":"nonpayable"},{"type":"function","name":"createSubscription","inputs":[],"outputs":[{"name":"subscriptionId","type":"uint64","internalType":"uint64"}],"stateMutability":"nonpayable"},{"type":"function","name":"createSubscriptionWithConsumer","inputs":[{"name":"consumer","type":"address","internalType":"address"}],"outputs":[{"name":"subscriptionId","type":"uint64","internalType":"uint64"}],"stateMutability":"nonpayable"},{"type":"function","name":"fulfill","inputs":[{"name":"response","type":"bytes","internalType":"bytes"},{"name":"err","type":"bytes","internalType":"bytes"},{"name":"juelsPerGas","type":"uint96","internalType":"uint96"},{"name":"costWithoutCallback","type":"uint96","internalType":"uint96"},{"name":"transmitter","type":"address","internalType":"address"},{"name":"commitment","type":"tuple","internalType":"struct FunctionsResponse.Commitment","components":[{"name":"requestId","type":"bytes32","internalType":"bytes32"},{"name":"coordinator","type":"address","internalType":"address"},{"name":"estimatedTotalCostJuels","type":"uint96","internalType":"uint96"},{"name":"client","type":"address","internalType":"address"},{"name":"subscriptionId","type":"uint64","internalType":"uint64"},{"name":"callbackGasLimit","type":"uint32","internalType":"uint32"},{"name":"adminFee","type":"uint72","internalType":"uint72"},{"name":"donFee","type":"uint72","internalType":"uint72"},{"name":"gasOverheadBeforeCallback","type":"uint40","internalType":"uint40"},{"name":"gasOverheadAfterCallback","type":"uint40","internalType":"uint40"},{"name":"timeoutTimestamp","type":"uint32","internalType":"uint32"}]}],"outputs":[{"name":"resultCode","type":"uint8","internalType":"enum FunctionsResponse.FulfillResult"},{"name":"","type":"uint96","internalType":"uint96"}],"stateMutability":"nonpayable"},{"type":"function","name":"getAdminFee","inputs":[],"outputs":[{"name":"","type":"uint72","internalType":"uint72"}],"stateMutability":"view"},{"type":"function","name":"getAllowListId","inputs":[],"outputs":[{"name":"","type":"bytes32","internalType":"bytes32"}],"stateMutability":"view"},{"type":"function","name":"getConfig","inputs":[],"outputs":[{"name":"","type":"tuple","internalType":"struct FunctionsRouter.Config","components":[{"name":"maxConsumersPerSubscription","type":"uint16","internalType":"uint16"},{"name":"adminFee","type":"uint72","internalType":"uint72"},{"name":"handleOracleFulfillmentSelector","type":"bytes4","internalType":"bytes4"},{"name":"gasForCallExactCheck","type":"uint16","internalType":"uint16"},{"name":"maxCallbackGasLimits","type":"uint32[]","internalType":"uint32[]"},{"name":"subscriptionDepositMinimumRequests","type":"uint16","internalType":"uint16"},{"name":"subscriptionDepositJuels","type":"uint72","internalType":"uint72"}]}],"stateMutability":"view"},{"type":"function","name":"getConsumer","inputs":[{"name":"client","type":"address","internalType":"address"},{"name":"subscriptionId","type":"uint64","internalType":"uint64"}],"outputs":[{"name":"","type":"tuple","internalType":"struct IFunctionsSubscriptions.Consumer","components":[{"name":"allowed","type":"bool","internalType":"bool"},{"name":"initiatedRequests","type":"uint64","internalType":"uint64"},{"name":"completedRequests","type":"uint64","internalType":"uint64"}]}],"stateMutability":"view"},{"type":"function","name":"getContractById","inputs":[{"name":"id","type":"bytes32","internalType":"bytes32"}],"outputs":[{"name":"","type":"address","internalType":"address"}],"stateMutability":"view"},{"type":"function","name":"getFlags","inputs":[{"name":"subscriptionId","type":"uint64","internalType":"uint64"}],"outputs":[{"name":"","type":"bytes32","internalType":"bytes32"}],"stateMutability":"view"},{"type":"function","name":"getProposedContractById","inputs":[{"name":"id","type":"bytes32","internalType":"bytes32"}],"outputs":[{"name":"","type":"address","internalType":"address"}],"stateMutability":"view"},{"type":"function","name":"getProposedContractSet","inputs":[],"outputs":[{"name":"","type":"bytes32[]","internalType":"bytes32[]"},{"name":"","type":"address[]","internalType":"address[]"}],"stateMutability":"view"},{"type":"function","name":"getSubscription","inputs":[{"name":"subscriptionId","type":"uint64","internalType":"uint64"}],"outputs":[{"name":"","type":"tuple","internalType":"struct IFunctionsSubscriptions.Subscription","components":[{"name":"balance","type":"uint96","internalType":"uint96"},{"name":"owner","type":"address","internalType":"address"},{"name":"blockedBalance","type":"uint96","internalType":"uint96"},{"name":"proposedOwner","type":"address","internalType":"address"},{"name":"consumers","type":"address[]","internalType":"address[]"},{"name":"flags","type":"bytes32","internalType":"bytes32"}]}],"stateMutability":"view"},{"type":"function","name":"getSubscriptionCount","inputs":[],"outputs":[{"name":"","type":"uint64","internalType":"uint64"}],"stateMutability":"view"},{"type":"function","name":"getSubscriptionsInRange","inputs":[{"name":"subscriptionIdStart","type":"uint64","internalType":"uint64"},{"name":"subscriptionIdEnd","type":"uint64","internalType":"uint64"}],"outputs":[{"name":"subscriptions","type":"tuple[]","internalType":"struct IFunctionsSubscriptions.Subscription[]","components":[{"name":"balance","type":"uint96","internalType":"uint96"},{"name":"owner","type":"address","internalType":"address"},{"name":"blockedBalance","type":"uint96","internalType":"uint96"},{"name":"proposedOwner","type":"address","internalType":"address"},{"name":"consumers","type":"address[]","internalType":"address[]"},{"name":"flags","type":"bytes32","internalType":"bytes32"}]}],"stateMutability":"view"},{"type":"function","name":"getTotalBalance","inputs":[],"outputs":[{"name":"","type":"uint96","internalType":"uint96"}],"stateMutability":"view"},{"type":"function","name":"isValidCallbackGasLimit","inputs":[{"name":"subscriptionId","type":"uint64","internalType":"uint64"},{"name":"callbackGasLimit","type":"uint32","internalType":"uint32"}],"outputs":[],"stateMutability":"view"},{"type":"function","name":"onTokenTransfer","inputs":[{"name":"","type":"address","internalType":"address"},{"name":"amount","type":"uint256","internalType":"uint256"},{"name":"data","type":"bytes","internalType":"bytes"}],"outputs":[],"stateMutability":"nonpayable"},{"type":"function","name":"oracleWithdraw","inputs":[{"name":"recipient","type":"address","internalType":"address"},{"name":"amount","type":"uint96","internalType":"uint96"}],"outputs":[],"stateMutability":"nonpayable"},{"type":"function","name":"owner","inputs":[],"outputs":[{"name":"","type":"address","internalType":"address"}],"stateMutability":"view"},{"type":"function","name":"ownerCancelSubscription","inputs":[{"name":"subscriptionId","type":"uint64","internalType":"uint64"}],"outputs":[],"stateMutability":"nonpayable"},{"type":"function","name":"ownerWithdraw","inputs":[{"name":"recipient","type":"address","internalType":"address"},{"name":"amount","type":"uint96","internalType":"uint96"}],"outputs":[],"stateMutability":"nonpayable"},{"type":"function","name":"pause","inputs":[],"outputs":[],"stateMutability":"nonpayable"},{"type":"function","name":"paused","inputs":[],"outputs":[{"name":"","type":"bool","internalType":"bool"}],"stateMutability":"view"},{"type":"function","name":"pendingRequestExists","inputs":[{"name":"subscriptionId","type":"uint64","internalType":"uint64"}],"outputs":[{"name":"","type":"bool","internalType":"bool"}],"stateMutability":"view"},{"type":"function","name":"proposeContractsUpdate","inputs":[{"name":"proposedContractSetIds","type":"bytes32[]","internalType":"bytes32[]"},{"name":"proposedContractSetAddresses","type":"address[]","internalType":"address[]"}],"outputs":[],"stateMutability":"nonpayable"},{"type":"function","name":"proposeSubscriptionOwnerTransfer","inputs":[{"name":"subscriptionId","type":"uint64","internalType":"uint64"},{"name":"newOwner","type":"address","internalType":"address"}],"outputs":[],"stateMutability":"nonpayable"},{"type":"function","name":"recoverFunds","inputs":[{"name":"to","type":"address","internalType":"address"}],"outputs":[],"stateMutability":"nonpayable"},{"type":"function","name":"removeConsumer","inputs":[{"name":"subscriptionId","type":"uint64","internalType":"uint64"},{"name":"consumer","type":"address","internalType":"address"}],"outputs":[],"stateMutability":"nonpayable"},{"type":"function","name":"sendRequest","inputs":[{"name":"subscriptionId","type":"uint64","internalType":"uint64"},{"name":"data","type":"bytes","internalType":"bytes"},{"name":"dataVersion","type":"uint16","internalType":"uint16"},{"name":"callbackGasLimit","type":"uint32","internalType":"uint32"},{"name":"donId","type":"bytes32","internalType":"bytes32"}],"outputs":[{"name":"","type":"bytes32","internalType":"bytes32"}],"stateMutability":"nonpayable"},{"type":"function","name":"sendRequestToProposed","inputs":[{"name":"subscriptionId","type":"uint64","internalType":"uint64"},{"name":"data","type":"bytes","internalType":"bytes"},{"name":"dataVersion","type":"uint16","internalType":"uint16"},{"name":"callbackGasLimit","type":"uint32","internalType":"uint32"},{"name":"donId","type":"bytes32","internalType":"bytes32"}],"outputs":[{"name":"","type":"bytes32","internalType":"bytes32"}],"stateMutability":"nonpayable"},{"type":"function","name":"setAllowListId","inputs":[{"name":"allowListId","type":"bytes32","internalType":"bytes32"}],"outputs":[],"stateMutability":"nonpayable"},{"type":"function","name":"setFlags","inputs":[{"name":"subscriptionId","type":"uint64","internalType":"uint64"},{"name":"flags","type":"bytes32","internalType":"bytes32"}],"outputs":[],"stateMutability":"nonpayable"},{"type":"function","name":"timeoutRequests","inputs":[{"name":"requestsToTimeoutByCommitment","type":"tuple[]","internalType":"struct FunctionsResponse.Commitment[]","components":[{"name":"requestId","type":"bytes32","internalType":"bytes32"},{"name":"coordinator","type":"address","internalType":"address"},{"name":"estimatedTotalCostJuels","type":"uint96","internalType":"uint96"},{"name":"client","type":"address","internalType":"address"},{"name":"subscriptionId","type":"uint64","internalType":"uint64"},{"name":"callbackGasLimit","type":"uint32","internalType":"uint32"},{"name":"adminFee","type":"uint72","internalType":"uint72"},{"name":"donFee","type":"uint72","internalType":"uint72"},{"name":"gasOverheadBeforeCallback","type":"uint40","internalType":"uint40"},{"name":"gasOverheadAfterCallback","type":"uint40","internalType":"uint40"},{"name":"timeoutTimestamp","type":"uint32","internalType":"uint32"}]}],"outputs":[],"stateMutability":"nonpayable"},{"type":"function","name":"transferOwnership","inputs":[{"name":"to","type":"address","internalType":"address"}],"outputs":[],"stateMutability":"nonpayable"},{"type":"function","name":"typeAndVersion","inputs":[],"outputs":[{"name":"","type":"string","internalType":"string"}],"stateMutability":"view"},{"type":"function","name":"unpause","inputs":[],"outputs":[],"stateMutability":"nonpayable"},{"type":"function","name":"updateConfig","inputs":[{"name":"config","type":"tuple","internalType":"struct FunctionsRouter.Config","components":[{"name":"maxConsumersPerSubscription","type":"uint16","internalType":"uint16"},{"name":"adminFee","type":"uint72","internalType":"uint72"},{"name":"handleOracleFulfillmentSelector","type":"bytes4","internalType":"bytes4"},{"name":"gasForCallExactCheck","type":"uint16","internalType":"uint16"},{"name":"maxCallbackGasLimits","type":"uint32[]","internalType":"uint32[]"},{"name":"subscriptionDepositMinimumRequests","type":"uint16","internalType":"uint16"},{"name":"subscriptionDepositJuels","type":"uint72","internalType":"uint72"}]}],"outputs":[],"stateMutability":"nonpayable"},{"type":"function","name":"updateContracts","inputs":[],"outputs":[],"stateMutability":"nonpayable"},{"type":"event","name":"ConfigUpdated","inputs":[{"name":"","type":"tuple","indexed":false,"internalType":"struct FunctionsRouter.Config","components":[{"name":"maxConsumersPerSubscription","type":"uint16","internalType":"uint16"},{"name":"adminFee","type":"uint72","internalType":"uint72"},{"name":"handleOracleFulfillmentSelector","type":"bytes4","internalType":"bytes4"},{"name":"gasForCallExactCheck","type":"uint16","internalType":"uint16"},{"name":"maxCallbackGasLimits","type":"uint32[]","internalType":"uint32[]"},{"name":"subscriptionDepositMinimumRequests","type":"uint16","internalType":"uint16"},{"name":"subscriptionDepositJuels","type":"uint72","internalType":"uint72"}]}],"anonymous":false},{"type":"event","name":"ContractProposed","inputs":[{"name":"proposedContractSetId","type":"bytes32","indexed":false,"internalType":"bytes32"},{"name":"proposedContractSetFromAddress","type":"address","indexed":false,"internalType":"address"},{"name":"proposedContractSetToAddress","type":"address","indexed":false,"internalType":"address"}],"anonymous":false},{"type":"event","name":"ContractUpdated","inputs":[{"name":"id","type":"bytes32","indexed":false,"internalType":"bytes32"},{"name":"from","type":"address","indexed":false,"internalType":"address"},{"name":"to","type":"address","indexed":false,"internalType":"address"}],"anonymous":false},{"type":"event","name":"FundsRecovered","inputs":[{"name":"to","type":"address","indexed":false,"internalType":"address"},{"name":"amount","type":"uint256","indexed":false,"internalType":"uint256"}],"anonymous":false},{"type":"event","name":"OwnershipTransferRequested","inputs":[{"name":"from","type":"address","indexed":true,"internalType":"address"},{"name":"to","type":"address","indexed":true,"internalType":"address"}],"anonymous":false},{"type":"event","name":"OwnershipTransferred","inputs":[{"name":"from","type":"address","indexed":true,"internalType":"address"},{"name":"to","type":"address","indexed":true,"internalType":"address"}],"anonymous":false},{"type":"event","name":"Paused","inputs":[{"name":"account","type":"address","indexed":false,"internalType":"address"}],"anonymous":false},{"type":"event","name":"RequestNotProcessed","inputs":[{"name":"requestId","type":"bytes32","indexed":true,"internalType":"bytes32"},{"name":"coordinator","type":"address","indexed":false,"internalType":"address"},{"name":"transmitter","type":"address","indexed":false,"internalType":"address"},{"name":"resultCode","type":"uint8","indexed":false,"internalType":"enum FunctionsResponse.FulfillResult"}],"anonymous":false},{"type":"event","name":"RequestProcessed","inputs":[{"name":"requestId","type":"bytes32","indexed":true,"internalType":"bytes32"},{"name":"subscriptionId","type":"uint64","indexed":true,"internalType":"uint64"},{"name":"totalCostJuels","type":"uint96","indexed":false,"internalType":"uint96"},{"name":"transmitter","type":"address","indexed":false,"internalType":"address"},{"name":"resultCode","type":"uint8","indexed":false,"internalType":"enum FunctionsResponse.FulfillResult"},{"name":"response","type":"bytes","indexed":false,"internalType":"bytes"},{"name":"err","type":"bytes","indexed":false,"internalType":"bytes"},{"name":"callbackReturnData","type":"bytes","indexed":false,"internalType":"bytes"}],"anonymous":false},{"type":"event","name":"RequestStart","inputs":[{"name":"requestId","type":"bytes32","indexed":true,"internalType":"bytes32"},{"name":"donId","type":"bytes32","indexed":true,"internalType":"bytes32"},{"name":"subscriptionId","type":"uint64","indexed":true,"internalType":"uint64"},{"name":"subscriptionOwner","type":"address","indexed":false,"internalType":"address"},{"name":"requestingContract","type":"address","indexed":false,"internalType":"address"},{"name":"requestInitiator","type":"address","indexed":false,"internalType":"address"},{"name":"data","type":"bytes","indexed":false,"internalType":"bytes"},{"name":"dataVersion","type":"uint16","indexed":false,"internalType":"uint16"},{"name":"callbackGasLimit","type":"uint32","indexed":false,"internalType":"uint32"},{"name":"estimatedTotalCostJuels","type":"uint96","indexed":false,"internalType":"uint96"}],"anonymous":false},{"type":"event","name":"RequestTimedOut","inputs":[{"name":"requestId","type":"bytes32","indexed":true,"internalType":"bytes32"}],"anonymous":false},{"type":"event","name":"SubscriptionCanceled","inputs":[{"name":"subscriptionId","type":"uint64","indexed":true,"internalType":"uint64"},{"name":"fundsRecipient","type":"address","indexed":false,"internalType":"address"},{"name":"fundsAmount","type":"uint256","indexed":false,"internalType":"uint256"}],"anonymous":false},{"type":"event","name":"SubscriptionConsumerAdded","inputs":[{"name":"subscriptionId","type":"uint64","indexed":true,"internalType":"uint64"},{"name":"consumer","type":"address","indexed":false,"internalType":"address"}],"anonymous":false},{"type":"event","name":"SubscriptionConsumerRemoved","inputs":[{"name":"subscriptionId","type":"uint64","indexed":true,"internalType":"uint64"},{"name":"consumer","type":"address","indexed":false,"internalType":"address"}],"anonymous":false},{"type":"event","name":"SubscriptionCreated","inputs":[{"name":"subscriptionId","type":"uint64","indexed":true,"internalType":"uint64"},{"name":"owner","type":"address","indexed":false,"internalType":"address"}],"anonymous":false},{"type":"event","name":"SubscriptionFunded","inputs":[{"name":"subscriptionId","type":"uint64","indexed":true,"internalType":"uint64"},{"name":"oldBalance","type":"uint256","indexed":false,"internalType":"uint256"},{"name":"newBalance","type":"uint256","indexed":false,"internalType":"uint256"}],"anonymous":false},{"type":"event","name":"SubscriptionOwnerTransferRequested","inputs":[{"name":"subscriptionId","type":"uint64","indexed":true,"internalType":"uint64"},{"name":"from","type":"address","indexed":false,"internalType":"address"},{"name":"to","type":"address","indexed":false,"internalType":"address"}],"anonymous":false},{"type":"event","name":"SubscriptionOwnerTransferred","inputs":[{"name":"subscriptionId","type":"uint64","indexed":true,"internalType":"uint64"},{"name":"from","type":"address","indexed":false,"internalType":"address"},{"name":"to","type":"address","indexed":false,"internalType":"address"}],"anonymous":false},{"type":"event","name":"Unpaused","inputs":[{"name":"account","type":"address","indexed":false,"internalType":"address"}],"anonymous":false},{"type":"error","name":"CannotRemoveWithPendingRequests","inputs":[]},{"type":"error","name":"DuplicateRequestId","inputs":[{"name":"requestId","type":"bytes32","internalType":"bytes32"}]},{"type":"error","name":"EmptyRequestData","inputs":[]},{"type":"error","name":"GasLimitTooBig","inputs":[{"name":"limit","type":"uint32","internalType":"uint32"}]},{"type":"error","name":"IdentifierIsReserved","inputs":[{"name":"id","type":"bytes32","internalType":"bytes32"}]},{"type":"error","name":"InsufficientBalance","inputs":[{"name":"currentBalanceJuels","type":"uint96","internalType":"uint96"}]},{"type":"error","name":"InvalidCalldata","inputs":[]},{"type":"error","name":"InvalidConsumer","inputs":[]},{"type":"error","name":"InvalidGasFlagValue","inputs":[{"name":"value","type":"uint8","internalType":"uint8"}]},{"type":"error","name":"InvalidProposal","inputs":[]},{"type":"error","name":"InvalidSubscription","inputs":[]},{"type":"error","name":"MustBeProposedOwner","inputs":[{"name":"proposedOwner","type":"address","internalType":"address"}]},{"type":"error","name":"MustBeSubscriptionOwner","inputs":[]},{"type":"error","name":"OnlyCallableFromCoordinator","inputs":[]},{"type":"error","name":"OnlyCallableFromLink","inputs":[]},{"type":"error","name":"RouteNotFound","inputs":[{"name":"id","type":"bytes32","internalType":"bytes32"}]},{"type":"error","name":"SenderMustAcceptTermsOfService","inputs":[{"name":"sender","type":"address","internalType":"address"}]},{"type":"error","name":"TimeoutNotExceeded","inputs":[]},{"type":"error","name":"TooManyConsumers","inputs":[{"name":"maximumConsumers","type":"uint16","internalType":"uint16"}]}],"bytecode":{"object":"0x60a06040523480156200001157600080fd5b50604051620056ed380380620056ed833981016040819052620000349162000549565b6001600160a01b0382166080526006805460ff191690553380600081620000a25760405162461bcd60e51b815260206004820152601860248201527f43616e6e6f7420736574206f776e657220746f207a65726f000000000000000060448201526064015b60405180910390fd5b600680546001600160a01b0380851661010002610100600160a81b031990921691909117909155811615620000dc57620000dc81620000f8565b505050620000f081620001aa60201b60201c565b50506200071a565b336001600160a01b03821603620001525760405162461bcd60e51b815260206004820152601760248201527f43616e6e6f74207472616e7366657220746f2073656c66000000000000000000604482015260640162000099565b600780546001600160a01b0319166001600160a01b03838116918217909255600654604051919261010090910416907fed8889f560326eb138920d842192f0eb3dd22b4f139c87a2c57538e05bae127890600090a350565b620001b4620002c0565b8051600a80546020808501516040860151606087015161ffff908116600160781b0261ffff60781b1960e09390931c6b010000000000000000000000029290921665ffffffffffff60581b196001600160481b0390941662010000026001600160581b031990961691909716179390931716939093171781556080830151805184936200024792600b9291019062000323565b5060a08201516002909101805460c0909301516001600160481b031662010000026001600160581b031990931661ffff909216919091179190911790556040517ea5832bf95f66c7814294cc4db681f20ee79608bfb8912a5321d66cfed5e98590620002b590839062000652565b60405180910390a150565b60065461010090046001600160a01b03163314620003215760405162461bcd60e51b815260206004820152601660248201527f4f6e6c792063616c6c61626c65206279206f776e657200000000000000000000604482015260640162000099565b565b82805482825590600052602060002090600701600890048101928215620003c75791602002820160005b838211156200039357835183826101000a81548163ffffffff021916908363ffffffff16021790555092602001926004016020816003010492830192600103026200034d565b8015620003c55782816101000a81549063ffffffff021916905560040160208160030104928301926001030262000393565b505b50620003d5929150620003d9565b5090565b5b80821115620003d55760008155600101620003da565b634e487b7160e01b600052604160045260246000fd5b60405160e081016001600160401b03811182821017156200042b576200042b620003f0565b60405290565b604051601f8201601f191681016001600160401b03811182821017156200045c576200045c620003f0565b604052919050565b805161ffff811681146200047757600080fd5b919050565b80516001600160481b03811681146200047757600080fd5b80516001600160e01b0319811681146200047757600080fd5b600082601f830112620004bf57600080fd5b815160206001600160401b03821115620004dd57620004dd620003f0565b8160051b620004ee82820162000431565b92835284810182019282810190878511156200050957600080fd5b83870192505b848310156200053e57825163ffffffff811681146200052e5760008081fd5b825291830191908301906200050f565b979650505050505050565b600080604083850312156200055d57600080fd5b82516001600160a01b03811681146200057557600080fd5b60208401519092506001600160401b03808211156200059357600080fd5b9084019060e08287031215620005a857600080fd5b620005b262000406565b620005bd8362000464565b8152620005cd602084016200047c565b6020820152620005e06040840162000494565b6040820152620005f36060840162000464565b60608201526080830151828111156200060b57600080fd5b6200061988828601620004ad565b6080830152506200062d60a0840162000464565b60a08201526200064060c084016200047c565b60c08201528093505050509250929050565b6020808252825161ffff90811683830152838201516001600160481b03166040808501919091528401516001600160e01b0319166060808501919091528401511660808084019190915283015160e060a0840152805161010084018190526000929182019083906101208601905b80831015620006e857835163ffffffff168252928401926001929092019190840190620006c0565b5060a087015161ffff811660c0880152935060c08701516001600160481b03811660e088015293509695505050505050565b608051614f9b6200075260003960008181610f1901528181611a7b015281816121ed015281816122920152612c0d0152614f9b6000f3fe608060405234801561001057600080fd5b50600436106102695760003560e01c80637341c10c11610151578063b734c0f4116100c3578063e72f6e3011610087578063e72f6e30146105fd578063e82622aa14610610578063e82ad7d414610623578063ea320e0b14610636578063ec2454e514610649578063f2fde38b1461066957600080fd5b8063b734c0f4146105a4578063badc3eb6146105ac578063c3f909d4146105c2578063cc77470a146105d7578063d7ae1d30146105ea57600080fd5b80639f87fad7116101155780639f87fad71461053b578063a21a23e41461054e578063a47c769614610556578063a4c0ed3614610576578063a9c9a91814610589578063aab396bd1461059c57600080fd5b80637341c10c146104ef57806379ba509714610502578063823597401461050a5780638456cb591461051d5780638da5cb5b1461052557600080fd5b806341db4ca3116101ea5780635ed6dfba116101ae5780635ed6dfba1461041e5780636162a3231461043157806366316d8d146104445780636641997014610457578063674603d01461047c5780636a2215de146104c457600080fd5b806341db4ca314610393578063461d2762146103b45780634b8832d3146103c757806355fedefa146103da5780635c975abb1461040757600080fd5b80631ded3b36116102315780631ded3b361461031a5780632a905ccc1461032d57806333060529146103575780633e871e4d146103785780633f4ba83a1461038b57600080fd5b806302bcc5b61461026e5780630c5d49cb1461028357806310fc49c1146102a357806312b58349146102b6578063181f5a77146102d1575b600080fd5b61028161027c366004613d32565b61067c565b005b61028b608481565b60405161ffff90911681526020015b60405180910390f35b6102816102b1366004613d73565b6106c5565b6000546040516001600160601b03909116815260200161029a565b61030d6040518060400160405280601781526020017f46756e6374696f6e7320526f757465722076312e302e3000000000000000000081525081565b60405161029a9190613dfc565b610281610328366004613e0f565b61078e565b600a546201000090046001600160481b03166040516001600160481b03909116815260200161029a565b61036a61036536600461408d565b6107bf565b60405161029a92919061415b565b610281610386366004614216565b610ae4565b610281610c86565b6103a66103a1366004614328565b610c98565b60405190815260200161029a565b6103a66103c2366004614328565b610cf8565b6102816103d53660046143ab565b610d04565b6103a66103e8366004613d32565b6001600160401b03166000908152600360208190526040909120015490565b60065460ff165b604051901515815260200161029a565b61028161042c3660046143d9565b610df9565b61028161043f366004614483565b610f55565b6102816104523660046143d9565b611065565b6002546001600160401b03165b6040516001600160401b03909116815260200161029a565b61048f61048a366004614555565b611108565b604080518251151581526020808401516001600160401b0390811691830191909152928201519092169082015260600161029a565b6104d76104d2366004614583565b611184565b6040516001600160a01b03909116815260200161029a565b6102816104fd3660046143ab565b61121d565b610281611364565b610281610518366004613d32565b611421565b61028161150f565b60065461010090046001600160a01b03166104d7565b6102816105493660046143ab565b61151f565b6104646117ee565b610569610564366004613d32565b61195c565b60405161029a919061464c565b61028161058436600461465f565b611a68565b6104d7610597366004614583565b611c25565b6009546103a6565b610281611c5e565b6105b4611d78565b60405161029a9291906146ba565b6105ca611e3b565b60405161029a9190614711565b6104646105e53660046147d0565b611f72565b6102816105f83660046143ab565b612182565b61028161060b3660046147d0565b6121cd565b61028161061e3660046147ed565b612301565b61040e610631366004613d32565b612548565b610281610644366004614583565b612675565b61065c610657366004614862565b612682565b60405161029a9190614880565b6102816106773660046147d0565b6128af565b6106846128c0565b61068d816128c8565b6001600160401b0381166000908152600360205260408120546106c2918391600160601b90046001600160a01b03169061290e565b50565b6001600160401b038216600090815260036020819052604082200154600b54911a908110610710576040516322e0846760e11b815260ff821660048201526024015b60405180910390fd5b6000600a6001018260ff168154811061072b5761072b6148e2565b90600052602060002090600891828204019190066004029054906101000a900463ffffffff1690508063ffffffff168363ffffffff16111561078857604051630eb87c3d60e11b815263ffffffff82166004820152602401610707565b50505050565b6107966128c0565b61079f826128c8565b6001600160401b0390911660009081526003602081905260409091200155565b6000806107ca612ca3565b82602001516001600160a01b0316336001600160a01b03161461080057604051638bec23e760e01b815260040160405180910390fd5b825160009081526005602052604090205480610853578351602085015160405160029550600080516020614f468339815191529161084191899088906148f8565b60405180910390a25060009050610ad9565b8084604051602001610865919061491d565b60405160208183030381529060405280519060200120146108ab578351602085015160405160069550600080516020614f468339815191529161084191899088906148f8565b8361012001518460a0015163ffffffff166108c69190614a3c565b64ffffffffff165a10156108ff578351602085015160405160049550600080516020614f468339815191529161084191899088906148f8565b5060006109158460a0015163ffffffff16612cab565b61091f9088614a5a565b9050600081878660c001516001600160481b031661093d9190614a7d565b6109479190614a7d565b9050610956856080015161195c565b600001516001600160601b0316816001600160601b031611156109b2578451602086015160405160059650600080516020614f468339815191529161099e918a9089906148f8565b60405180910390a25060009150610ad99050565b84604001516001600160601b0316816001600160601b031611156109fb578451602086015160405160039650600080516020614f468339815191529161099e918a9089906148f8565b505082516000908152600560205260408120819055835160a08501516060860151610a2b92918c918c9190612d17565b8051909150610a3b576001610a3e565b60005b92506000610a768560800151866040015187606001518860c001516001600160481b03168c610a708860200151612cab565b8d612e76565b905084608001516001600160401b031685600001517f64778f26c70b60a8d7e29e2451b3844302d959448401c0535b768ed88c6b505e836020015189888f8f8960400151604051610acc96959493929190614a9d565b60405180910390a3519150505b965096945050505050565b610aec61312c565b8151815181141580610afe5750600881115b15610b1c57604051631dc0650160e31b815260040160405180910390fd5b60005b81811015610c3c576000848281518110610b3b57610b3b6148e2565b602002602001015190506000848381518110610b5957610b596148e2565b6020026020010151905060006001600160a01b0316816001600160a01b03161480610b9d57506000828152600860205260409020546001600160a01b038281169116145b15610bbb57604051631dc0650160e31b815260040160405180910390fd5b600082815260086020526040908190205490517f8b052f0f4bf82fede7daffea71592b29d5ef86af1f3c7daaa0345dbb2f52f48191610c219185916001600160a01b03169085909283526001600160a01b03918216602084015216604082015260600190565b60405180910390a1505080610c3590614b0e565b9050610b1f565b506040805180820190915283815260208082018490528451600d91610c65918391880190613b98565b506020828101518051610c7e9260018501920190613bdf565b505050505050565b610c8e61312c565b610c96613184565b565b600080610ca483611184565b9050610cec83828a8a8a8080601f0160208091040260200160405190810160405280939291908181526020018383808284376000920191909152508c92508b91506131d69050565b98975050505050505050565b600080610ca483611c25565b610d0c612ca3565b610d158261352d565b610d1d61359d565b6001600160a01b0381161580610d6057506001600160401b0382166000908152600360205260409020600101546001600160a01b03828116600160601b90920416145b15610d7e57604051638129bbcd60e01b815260040160405180910390fd5b6001600160401b03821660008181526003602090815260409182902060010180546001600160601b0316600160601b6001600160a01b038716908102919091179091558251338152918201527f69436ea6df009049404f564eff6622cd00522b0bd6a89efd9e52a355c4a879be910160405180910390a25050565b610e016128c0565b806001600160601b0316600003610e2d5750306000908152600160205260409020546001600160601b03165b306000908152600160205260409020546001600160601b03908116908216811015610e7657604051636b0fe56f60e01b81526001600160601b0382166004820152602401610707565b3060009081526001602052604081208054849290610e9e9084906001600160601b0316614b27565b92506101000a8154816001600160601b0302191690836001600160601b03160217905550816000808282829054906101000a90046001600160601b0316610ee59190614b27565b92506101000a8154816001600160601b0302191690836001600160601b03160217905550610f5083836001600160601b03167f00000000000000000000000000000000000000000000000000000000000000006001600160a01b031661365b9092919063ffffffff16565b505050565b610f5d61312c565b8051600a80546020808501516040860151606087015161ffff908116600160781b0261ffff60781b1960e09390931c600160581b029290921665ffffffffffff60581b196001600160481b0390941662010000026affffffffffffffffffffff199096169190971617939093171693909317178155608083015180518493610fea92600b92910190613c34565b5060a08201516002909101805460c0909301516001600160481b031662010000026affffffffffffffffffffff1990931661ffff909216919091179190911790556040517ea5832bf95f66c7814294cc4db681f20ee79608bfb8912a5321d66cfed5e9859061105a908390614711565b60405180910390a150565b61106d612ca3565b806001600160601b031660000361109757604051638129bbcd60e01b815260040160405180910390fd5b336000908152600160205260409020546001600160601b039081169082168110156110e057604051636b0fe56f60e01b81526001600160601b0382166004820152602401610707565b3360009081526001602052604081208054849290610e9e9084906001600160601b0316614b27565b6040805160608082018352600080835260208084018290529284018190526001600160a01b0386168152600483528381206001600160401b03868116835290845290849020845192830185525460ff8116151583526101008104821693830193909352600160481b909204909116918101919091525b92915050565b6000805b600d5460ff8216101561120057600d805460ff83169081106111ac576111ac6148e2565b906000526020600020015483036111f057600e805460ff83169081106111d4576111d46148e2565b6000918252602090912001546001600160a01b03169392505050565b6111f981614b47565b9050611188565b506040516380833e3360e01b815260048101839052602401610707565b611225612ca3565b61122e8261352d565b61123661359d565b6000611245600a5461ffff1690565b6001600160401b03841660009081526003602052604090206002015490915061ffff82161161128d5760405163b72bc70360e01b815261ffff82166004820152602401610707565b6001600160a01b03821660009081526004602090815260408083206001600160401b038716845290915290205460ff16156112c757505050565b6001600160a01b03821660008181526004602090815260408083206001600160401b038816808552908352818420805460ff19166001908117909155600384528285206002018054918201815585529383902090930180546001600160a01b031916851790555192835290917f43dc749a04ac8fb825cbd514f7c0e13f13bc6f2ee66043b76629d51776cff8e091015b60405180910390a2505050565b6007546001600160a01b031633146113b75760405162461bcd60e51b815260206004820152601660248201527526bab9ba10313290383937b837b9b2b21037bbb732b960511b6044820152606401610707565b60068054610100600160a81b031981166101003381810292909217909355600780546001600160a01b0319169055604051929091046001600160a01b03169182907f8be0079c531659141344cd1fd0a4f28419497f9722a3daafe3b4186f6b6457e090600090a350565b611429612ca3565b61143161359d565b6001600160401b038116600090815260036020526040902080546001909101546001600160a01b03600160601b9283900481169290910416338114611494576040516309c3b3e360e31b81526001600160a01b0382166004820152602401610707565b6001600160401b0383166000818152600360209081526040918290208054600160601b339081026001600160601b0392831617835560019092018054909116905582516001600160a01b0387168152918201527f6f1dc65165ffffedfd8e507b4a0f1fcfdada045ed11f6c26ba27cedfe87802f09101611357565b61151761312c565b610c966136ad565b611527612ca3565b6115308261352d565b61153861359d565b6001600160a01b03811660009081526004602090815260408083206001600160401b038087168552908352928190208151606081018352905460ff8116151582526101008104851693820193909352600160481b909204909216918101919091526115a382846136ea565b80604001516001600160401b031681602001516001600160401b0316146115dc5760405162dd621960e31b815260040160405180910390fd5b6001600160401b03831660009081526003602090815260408083206002018054825181850281018501909352808352919290919083018282801561164957602002820191906000526020600020905b81546001600160a01b0316815260019091019060200180831161162b575b5050505050905060005b815181101561177957836001600160a01b0316828281518110611678576116786148e2565b60200260200101516001600160a01b03160361176957816001835161169d9190614b66565b815181106116ad576116ad6148e2565b602002602001015160036000876001600160401b03166001600160401b0316815260200190815260200160002060020182815481106116ee576116ee6148e2565b600091825260208083209190910180546001600160a01b0319166001600160a01b0394909416939093179092556001600160401b038716815260039091526040902060020180548061174257611742614b79565b600082815260209020810160001990810180546001600160a01b0319169055019055611779565b61177281614b0e565b9050611653565b506001600160a01b03831660008181526004602090815260408083206001600160401b0389168085529083529281902080546001600160881b03191690555192835290917f182bff9831466789164ca77075fffd84916d35a8180ba73c27e45634549b445b910160405180910390a250505050565b60006117f8612ca3565b61180061359d565b60028054600090611819906001600160401b0316614b8f565b82546001600160401b038083166101009490940a93840293021916919091179091556040805160c081018252600080825233602083015291810182905260608101829052919250608082019060405190808252806020026020018201604052801561188e578160200160208202803683370190505b508152600060209182018190526001600160401b0384168152600382526040908190208351848401516001600160a01b03908116600160601b9081026001600160601b03938416178455938601516060870151909116909302921691909117600182015560808301518051919261190d92600285019290910190613bdf565b5060a091909101516003909101556040513381526001600160401b038216907f464722b4166576d3dcbba877b999bc35cf911f4eaf434b7eba68fa113951d0bf9060200160405180910390a290565b6040805160c0810182526000808252602082018190529181018290526060808201839052608082015260a0810191909152611996826128c8565b6001600160401b038216600090815260036020908152604091829020825160c08101845281546001600160601b0380821683526001600160a01b03600160601b928390048116848701526001850154918216848801529190041660608201526002820180548551818602810186019096528086529194929360808601939290830182828015611a4e57602002820191906000526020600020905b81546001600160a01b03168152600190910190602001808311611a30575b505050505081526020016003820154815250509050919050565b611a70612ca3565b336001600160a01b037f00000000000000000000000000000000000000000000000000000000000000001614611ab9576040516344b0e3c360e01b815260040160405180910390fd5b60208114611ada57604051638129bbcd60e01b815260040160405180910390fd5b6000611ae882840184613d32565b6001600160401b038116600090815260036020526040902054909150600160601b90046001600160a01b0316611b3157604051630fb532db60e11b815260040160405180910390fd5b6001600160401b038116600090815260036020526040812080546001600160601b031691869190611b628385614a7d565b92506101000a8154816001600160601b0302191690836001600160601b03160217905550846000808282829054906101000a90046001600160601b0316611ba99190614a7d565b92506101000a8154816001600160601b0302191690836001600160601b03160217905550816001600160401b03167fd39ec07f4e209f627a4c427971473820dc129761ba28de8906bd56f57101d4f8828784611c059190614bb5565b6040805192835260208301919091520160405180910390a2505050505050565b6000818152600860205260408120546001600160a01b03168061117e576040516380833e3360e01b815260048101849052602401610707565b611c6661312c565b60005b600d54811015611d57576000600d6000018281548110611c8b57611c8b6148e2565b906000526020600020015490506000600d6001018381548110611cb057611cb06148e2565b600091825260208083209190910154848352600882526040928390205483518681526001600160a01b0391821693810193909352169181018290529091507ff8a6175bca1ba37d682089187edc5e20a859989727f10ca6bd9a5bc0de8caf949060600160405180910390a160009182526008602052604090912080546001600160a01b0319166001600160a01b03909216919091179055611d5081614b0e565b9050611c69565b50600d6000611d668282613cde565b611d74600183016000613cde565b5050565b606080600d600001600d60010181805480602002602001604051908101604052809291908181526020018280548015611dd057602002820191906000526020600020905b815481526020019060010190808311611dbc575b5050505050915080805480602002602001604051908101604052809291908181526020018280548015611e2c57602002820191906000526020600020905b81546001600160a01b03168152600190910190602001808311611e0e575b50505050509050915091509091565b6040805160e0810182526000808252602082018190529181018290526060808201839052608082015260a0810182905260c08101919091526040805160e08082018352600a805461ffff80821685526201000082046001600160481b0316602080870191909152600160581b830490941b6001600160e01b03191685870152600160781b909104166060840152600b8054855181850281018501909652808652939491936080860193830182828015611f3f57602002820191906000526020600020906000905b82829054906101000a900463ffffffff1663ffffffff1681526020019060040190602082600301049283019260010382029150808411611f025790505b50505091835250506002919091015461ffff811660208301526201000090046001600160481b0316604090910152919050565b6000611f7c612ca3565b611f8461359d565b60028054600090611f9d906001600160401b0316614b8f565b82546001600160401b038083166101009490940a93840293021916919091179091556040805160c0810182526000808252336020830152918101829052606081018290529192506080820190604051908082528060200260200182016040528015612012578160200160208202803683370190505b508152600060209182018190526001600160401b0384168152600382526040908190208351848401516001600160a01b03908116600160601b9081026001600160601b03938416178455938601516060870151909116909302921691909117600182015560808301518051919261209192600285019290910190613bdf565b5060a091909101516003918201556001600160401b0382166000818152602092835260408082206002018054600180820183559184528584200180546001600160a01b0319166001600160a01b038916908117909155835260048552818320848452855291819020805460ff19169092179091555133815290917f464722b4166576d3dcbba877b999bc35cf911f4eaf434b7eba68fa113951d0bf910160405180910390a26040516001600160a01b03831681526001600160401b038216907f43dc749a04ac8fb825cbd514f7c0e13f13bc6f2ee66043b76629d51776cff8e09060200160405180910390a2919050565b61218a612ca3565b6121938261352d565b61219b61359d565b6121a482612548565b156121c15760405162dd621960e31b815260040160405180910390fd5b611d748282600161290e565b6121d56128c0565b6040516370a0823160e01b81523060048201526000907f00000000000000000000000000000000000000000000000000000000000000006001600160a01b0316906370a0823190602401602060405180830381865afa15801561223c573d6000803e3d6000fd5b505050506040513d601f19601f820116820180604052508101906122609190614bc8565b6000549091506001600160601b031681811015610f505760006122838284614b66565b90506122b96001600160a01b037f000000000000000000000000000000000000000000000000000000000000000016858361365b565b604080516001600160a01b0386168152602081018390527f59bfc682b673f8cbf945f1e454df9334834abf7dfe7f92237ca29ecb9b436600910160405180910390a150505050565b612309612ca3565b60005b81811015610f50576000838383818110612328576123286148e2565b9050610160020180360381019061233f9190614be1565b805160808201516000828152600560209081526040918290205491519495509293919290916123709186910161491d565b60405160208183030381529060405280519060200120146123a457604051638129bbcd60e01b815260040160405180910390fd5b82610140015163ffffffff164210156123d057604051631446edfd60e31b815260040160405180910390fd5b60208301516040516385b214cf60e01b8152600481018490526001600160a01b03909116906385b214cf90602401600060405180830381600087803b15801561241857600080fd5b505af115801561242c573d6000803e3d6000fd5b5050506040808501516001600160401b038416600090815260036020529182206001018054919350919061246a9084906001600160601b0316614b27565b82546001600160601b039182166101009390930a92830291909202199091161790555060608301516001600160a01b031660009081526004602090815260408083206001600160401b038086168552925290912080546001926009916124d9918591600160481b900416614bfe565b82546001600160401b039182166101009390930a9283029190920219909116179055506000828152600560205260408082208290555183917ff1ca1e9147be737b04a2b018a79405f687a97de8dd8a2559bbe62357343af41491a25050508061254190614b0e565b905061230c565b6001600160401b0381166000908152600360209081526040808320600201805482518185028101850190935280835284938301828280156125b257602002820191906000526020600020905b81546001600160a01b03168152600190910190602001808311612594575b5050505050905060005b815181101561266b576000600460008484815181106125dd576125dd6148e2565b6020908102919091018101516001600160a01b0316825281810192909252604090810160009081206001600160401b03808a168352908452908290208251606081018452905460ff81161515825261010081048316948201859052600160481b900490911691810182905292501461265a57506001949350505050565b5061266481614b0e565b90506125bc565b5060009392505050565b61267d61312c565b600955565b6060816001600160401b0316836001600160401b031611806126b257506002546001600160401b03908116908316115b806126c657506002546001600160401b0316155b156126e457604051638129bbcd60e01b815260040160405180910390fd5b6126ee8383614c1e565b6126f9906001614bfe565b6001600160401b03166001600160401b0381111561271957612719613e3b565b60405190808252806020026020018201604052801561277857816020015b6040805160c081018252600080825260208083018290529282018190526060808301829052608083015260a082015282526000199092019101816127375790505b50905060005b6127888484614c1e565b6001600160401b031681116128a857600360006127ae836001600160401b038816614bb5565b6001600160401b031681526020808201929092526040908101600020815160c08101835281546001600160601b0380821683526001600160a01b03600160601b9283900481168488015260018501549182168487015291900416606082015260028201805484518187028101870190955280855291949293608086019390929083018282801561286757602002820191906000526020600020905b81546001600160a01b03168152600190910190602001808311612849575b5050505050815260200160038201548152505082828151811061288c5761288c6148e2565b6020026020010181905250806128a190614b0e565b905061277e565b5092915050565b6128b761312c565b6106c281613737565b610c9661312c565b6001600160401b038116600090815260036020526040902054600160601b90046001600160a01b03166106c257604051630fb532db60e11b815260040160405180910390fd5b6001600160401b0383166000908152600360209081526040808320815160c08101835281546001600160601b0380821683526001600160a01b03600160601b928390048116848801526001850154918216848701529190041660608201526002820180548451818702810187019095528085529194929360808601939092908301828280156129c657602002820191906000526020600020905b81546001600160a01b031681526001909101906020018083116129a8575b50505091835250506003919091015460209091015280519091506000805b836080015151811015612aa257600084608001518281518110612a0957612a096148e2565b6020908102919091018101516001600160a01b03811660009081526004835260408082206001600160401b03808e1684529452902054909250612a5591600160481b9091041684614bfe565b6001600160a01b0390911660009081526004602090815260408083206001600160401b038c168452909152902080546001600160881b03191690559150612a9b81614b0e565b90506129e4565b506001600160401b03861660009081526003602052604081208181556001810182905590612ad36002830182613cde565b50600060039190910155600c5461ffff8116906201000090046001600160481b0316858015612b0e57508161ffff16836001600160401b0316105b15612bad576000846001600160601b0316826001600160481b031611612b3d57816001600160481b0316612b3f565b845b90506001600160601b03811615612bab573060009081526001602052604081208054839290612b789084906001600160601b0316614a7d565b92506101000a8154816001600160601b0302191690836001600160601b031602179055508085612ba89190614b27565b94505b505b6001600160601b03841615612c4457600080548591908190612bd99084906001600160601b0316614b27565b92506101000a8154816001600160601b0302191690836001600160601b03160217905550612c4487856001600160601b03167f00000000000000000000000000000000000000000000000000000000000000006001600160a01b031661365b9092919063ffffffff16565b604080516001600160a01b03891681526001600160601b03861660208201526001600160401b038a16917fe8ed5b475a5b5987aa9165e8731bb78043f39eee32ec5a1169a89e27fcd49815910160405180910390a25050505050505050565b610c966137e7565b60006001600160601b03821115612d135760405162461bcd60e51b815260206004820152602660248201527f53616665436173743a2076616c756520646f65736e27742066697420696e203960448201526536206269747360d01b6064820152608401610707565b5090565b60408051606080820183526000808352602083015291810191909152813b158015612d6a575050604080516060810182526000808252602080830182905283519182528101835291810191909152612e6d565b600a54604051600091600160581b900460e01b90612d90908a908a908a90602401614c3e565b60408051601f19818403018152918152602080830180516001600160e01b03166001600160e01b03199590951694909417909352600a548151608480825260c0820190935292945061ffff600160781b909104169260009283928392820181803683370190505090505a84811015612e0757600080fd5b8490036040810481038a10612e1b57600080fd5b505a60008087516020890160008d8ff193505a900391503d6084811115612e40575060845b808252806000602084013e5060408051606081018252931515845260208401929092529082015293505050505b95945050505050565b60408051808201909152600080825260208201526000612e968486614a5a565b9050600081612ea58886614a7d565b612eaf9190614a7d565b6001600160401b038b166000908152600360205260409020549091506001600160601b0380831691161080612f0a57506001600160401b038a166000908152600360205260409020600101546001600160601b03808b169116105b15612f4e576001600160401b038a1660009081526003602052604090819020549051636b0fe56f60e01b81526001600160601b039091166004820152602401610707565b6001600160401b038a1660009081526003602052604081208054839290612f7f9084906001600160601b0316614b27565b82546101009290920a6001600160601b038181021990931691831602179091556001600160401b038c16600090815260036020526040812060010180548d94509092612fcd91859116614b27565b92506101000a8154816001600160601b0302191690836001600160601b031602179055508184612ffd9190614a7d565b33600090815260016020526040812080549091906130259084906001600160601b0316614a7d565b82546101009290920a6001600160601b0381810219909316918316021790915530600090815260016020526040812080548b9450909261306791859116614a7d565b82546001600160601b039182166101009390930a9283029190920219909116179055506001600160a01b03881660009081526004602090815260408083206001600160401b03808f168552925290912080546001926009916130d2918591600160481b900416614bfe565b92506101000a8154816001600160401b0302191690836001600160401b031602179055506040518060400160405280836001600160601b03168152602001826001600160601b031681525092505050979650505050505050565b60065461010090046001600160a01b03163314610c965760405162461bcd60e51b815260206004820152601660248201527527b7363c9031b0b63630b1363290313c9037bbb732b960511b6044820152606401610707565b61318c61382d565b6006805460ff191690557f5db9ee0a495bf2e6ff9c91a7834c1ba4fdd244a5e8aa4e537bd38aeae4b073aa335b6040516001600160a01b03909116815260200160405180910390a1565b60006131e0612ca3565b6131e9856128c8565b6131f333866136ea565b6131fd85836106c5565b835160000361321e576040516203073f60e61b815260040160405180910390fd5b60006132298661195c565b905060006132373388611108565b600a5460408051610160810182528981526001600160401b038b166000908152600360208181529382200154949550620100009093046001600160481b0316936001600160a01b038d169263a631571e9291908201908152336020820152604088810151895191909201916132ab91614b27565b6001600160601b03168152602001856001600160481b031681526020018c6001600160401b0316815260200186602001516001600160401b031681526020018963ffffffff1681526020018a61ffff16815260200186604001516001600160401b0316815260200187602001516001600160a01b03168152506040518263ffffffff1660e01b81526004016133409190614c69565b610160604051808303816000875af1158015613360573d6000803e3d6000fd5b505050506040513d601f19601f820116820180604052508101906133849190614daa565b8051600090815260056020526040902054909150156133bc578051604051630609e65d60e31b81526004810191909152602401610707565b604051806101600160405280826000015181526020018b6001600160a01b0316815260200182604001516001600160601b03168152602001336001600160a01b031681526020018a6001600160401b031681526020018763ffffffff168152602001836001600160481b031681526020018260e001516001600160481b0316815260200182610100015164ffffffffff16815260200182610120015164ffffffffff16815260200182610140015163ffffffff16815250604051602001613483919061491d565b604051602081830303815290604052805190602001206005600083600001518152602001908152602001600020819055506134c3338a8360400151613876565b886001600160401b03168b82600001517ff67aec45c9a7ede407974a3e0c3a743dffeab99ee3f2d4c9a8144c2ebf2c7ec9876020015133328e8e8e8a604001516040516135169796959493929190614e7d565b60405180910390a4519a9950505050505050505050565b6001600160401b038116600090815260036020526040902054600160601b90046001600160a01b03168061357457604051630fb532db60e11b815260040160405180910390fd5b336001600160a01b03821614611d7457604051635a68151d60e01b815260040160405180910390fd5b6009546000908152600860205260409020546001600160a01b0316806135c05750565b60408051600081526020810191829052630d629b5f60e31b9091526001600160a01b03821690636b14daf8906135fb90339060248101614ee3565b602060405180830381865afa158015613618573d6000803e3d6000fd5b505050506040513d601f19601f8201168201806040525081019061363c9190614f07565b6106c257604051632290626360e01b8152336004820152602401610707565b604080516001600160a01b038416602482015260448082018490528251808303909101815260649091019091526020810180516001600160e01b031663a9059cbb60e01b179052610f50908490613936565b6136b56137e7565b6006805460ff191660011790557f62e78cea01bee320cd4e420270b5ea74000d11b0c9f74754ebdbfc544b05a2586131b93390565b6001600160a01b03821660009081526004602090815260408083206001600160401b038516845290915290205460ff16611d74576040516371e8313760e01b815260040160405180910390fd5b336001600160a01b0382160361378f5760405162461bcd60e51b815260206004820152601760248201527f43616e6e6f74207472616e7366657220746f2073656c660000000000000000006044820152606401610707565b600780546001600160a01b0319166001600160a01b03838116918217909255600654604051919261010090910416907fed8889f560326eb138920d842192f0eb3dd22b4f139c87a2c57538e05bae127890600090a350565b60065460ff1615610c965760405162461bcd60e51b815260206004820152601060248201526f14185d5cd8589b194e881c185d5cd95960821b6044820152606401610707565b60065460ff16610c965760405162461bcd60e51b815260206004820152601460248201527314185d5cd8589b194e881b9bdd081c185d5cd95960621b6044820152606401610707565b6001600160401b038216600090815260036020526040812060010180548392906138aa9084906001600160601b0316614a7d565b82546001600160601b0391821661010093840a90810292021916179091556001600160a01b03851660009081526004602090815260408083206001600160401b03808916855292529091208054600194509092849261390d928492900416614bfe565b92506101000a8154816001600160401b0302191690836001600160401b03160217905550505050565b600061398b826040518060400160405280602081526020017f5361666545524332303a206c6f772d6c6576656c2063616c6c206661696c6564815250856001600160a01b0316613a089092919063ffffffff16565b805190915015610f5057808060200190518101906139a99190614f07565b610f505760405162461bcd60e51b815260206004820152602a60248201527f5361666545524332303a204552433230206f7065726174696f6e20646964206e6044820152691bdd081cdd58d8d9595960b21b6064820152608401610707565b6060613a178484600085613a1f565b949350505050565b606082471015613a805760405162461bcd60e51b815260206004820152602660248201527f416464726573733a20696e73756666696369656e742062616c616e636520666f6044820152651c8818d85b1b60d21b6064820152608401610707565b600080866001600160a01b03168587604051613a9c9190614f29565b60006040518083038185875af1925050503d8060008114613ad9576040519150601f19603f3d011682016040523d82523d6000602084013e613ade565b606091505b5091509150613aef87838387613afa565b979650505050505050565b60608315613b69578251600003613b62576001600160a01b0385163b613b625760405162461bcd60e51b815260206004820152601d60248201527f416464726573733a2063616c6c20746f206e6f6e2d636f6e74726163740000006044820152606401610707565b5081613a17565b613a178383815115613b7e5781518083602001fd5b8060405162461bcd60e51b81526004016107079190613dfc565b828054828255906000526020600020908101928215613bd3579160200282015b82811115613bd3578251825591602001919060010190613bb8565b50612d13929150613cf8565b828054828255906000526020600020908101928215613bd3579160200282015b82811115613bd357825182546001600160a01b0319166001600160a01b03909116178255602090920191600190910190613bff565b82805482825590600052602060002090600701600890048101928215613bd35791602002820160005b83821115613ca157835183826101000a81548163ffffffff021916908363ffffffff1602179055509260200192600401602081600301049283019260010302613c5d565b8015613cd15782816101000a81549063ffffffff0219169055600401602081600301049283019260010302613ca1565b5050612d13929150613cf8565b50805460008255906000526020600020908101906106c291905b5b80821115612d135760008155600101613cf9565b6001600160401b03811681146106c257600080fd5b8035613d2d81613d0d565b919050565b600060208284031215613d4457600080fd5b8135613d4f81613d0d565b9392505050565b63ffffffff811681146106c257600080fd5b8035613d2d81613d56565b60008060408385031215613d8657600080fd5b8235613d9181613d0d565b91506020830135613da181613d56565b809150509250929050565b60005b83811015613dc7578181015183820152602001613daf565b50506000910152565b60008151808452613de8816020860160208601613dac565b601f01601f19169290920160200192915050565b602081526000613d4f6020830184613dd0565b60008060408385031215613e2257600080fd5b8235613e2d81613d0d565b946020939093013593505050565b634e487b7160e01b600052604160045260246000fd5b60405161016081016001600160401b0381118282101715613e7457613e74613e3b565b60405290565b60405160e081016001600160401b0381118282101715613e7457613e74613e3b565b604051601f8201601f191681016001600160401b0381118282101715613ec457613ec4613e3b565b604052919050565b600082601f830112613edd57600080fd5b81356001600160401b03811115613ef657613ef6613e3b565b613f09601f8201601f1916602001613e9c565b818152846020838601011115613f1e57600080fd5b816020850160208301376000918101602001919091529392505050565b6001600160601b03811681146106c257600080fd5b8035613d2d81613f3b565b6001600160a01b03811681146106c257600080fd5b8035613d2d81613f5b565b6001600160481b03811681146106c257600080fd5b8035613d2d81613f7b565b64ffffffffff811681146106c257600080fd5b8035613d2d81613f9b565b60006101608284031215613fcc57600080fd5b613fd4613e51565b905081358152613fe660208301613f70565b6020820152613ff760408301613f50565b604082015261400860608301613f70565b606082015261401960808301613d22565b608082015261402a60a08301613d68565b60a082015261403b60c08301613f90565b60c082015261404c60e08301613f90565b60e082015261010061405f818401613fae565b90820152610120614071838201613fae565b90820152610140614083838201613d68565b9082015292915050565b60008060008060008061020087890312156140a757600080fd5b86356001600160401b03808211156140be57600080fd5b6140ca8a838b01613ecc565b975060208901359150808211156140e057600080fd5b506140ed89828a01613ecc565b95505060408701356140fe81613f3b565b9350606087013561410e81613f3b565b9250608087013561411e81613f5b565b915061412d8860a08901613fb9565b90509295509295509295565b6007811061415757634e487b7160e01b600052602160045260246000fd5b9052565b604081016141698285614139565b6001600160601b03831660208301529392505050565b60006001600160401b0382111561419857614198613e3b565b5060051b60200190565b600082601f8301126141b357600080fd5b813560206141c86141c38361417f565b613e9c565b82815260059290921b840181019181810190868411156141e757600080fd5b8286015b8481101561420b5780356141fe81613f5b565b83529183019183016141eb565b509695505050505050565b6000806040838503121561422957600080fd5b82356001600160401b038082111561424057600080fd5b818501915085601f83011261425457600080fd5b813560206142646141c38361417f565b82815260059290921b8401810191818101908984111561428357600080fd5b948201945b838610156142a157853582529482019490820190614288565b965050860135925050808211156142b757600080fd5b506142c4858286016141a2565b9150509250929050565b60008083601f8401126142e057600080fd5b5081356001600160401b038111156142f757600080fd5b60208301915083602082850101111561430f57600080fd5b9250929050565b803561ffff81168114613d2d57600080fd5b60008060008060008060a0878903121561434157600080fd5b863561434c81613d0d565b955060208701356001600160401b0381111561436757600080fd5b61437389828a016142ce565b9096509450614386905060408801614316565b9250606087013561439681613d56565b80925050608087013590509295509295509295565b600080604083850312156143be57600080fd5b82356143c981613d0d565b91506020830135613da181613f5b565b600080604083850312156143ec57600080fd5b82356143f781613f5b565b91506020830135613da181613f3b565b80356001600160e01b031981168114613d2d57600080fd5b600082601f83011261443057600080fd5b813560206144406141c38361417f565b82815260059290921b8401810191818101908684111561445f57600080fd5b8286015b8481101561420b57803561447681613d56565b8352918301918301614463565b60006020828403121561449557600080fd5b81356001600160401b03808211156144ac57600080fd5b9083019060e082860312156144c057600080fd5b6144c8613e7a565b6144d183614316565b81526144df60208401613f90565b60208201526144f060408401614407565b604082015261450160608401614316565b606082015260808301358281111561451857600080fd5b6145248782860161441f565b60808301525061453660a08401614316565b60a082015261454760c08401613f90565b60c082015295945050505050565b6000806040838503121561456857600080fd5b823561457381613f5b565b91506020830135613da181613d0d565b60006020828403121561459557600080fd5b5035919050565b600081518084526020808501945080840160005b838110156145d55781516001600160a01b0316875295820195908201906001016145b0565b509495945050505050565b60006001600160601b03808351168452602083015160018060a01b038082166020870152826040860151166040870152806060860151166060870152505050608082015160c0608085015261463860c085018261459c565b60a093840151949093019390935250919050565b602081526000613d4f60208301846145e0565b6000806000806060858703121561467557600080fd5b843561468081613f5b565b93506020850135925060408501356001600160401b038111156146a257600080fd5b6146ae878288016142ce565b95989497509550505050565b604080825283519082018190526000906020906060840190828701845b828110156146f3578151845292840192908401906001016146d7565b50505083810382850152614707818661459c565b9695505050505050565b60006020808352610100830161ffff80865116838601526001600160481b038387015116604086015263ffffffff60e01b604087015116606086015280606087015116608086015250608085015160e060a0860152818151808452610120870191508483019350600092505b808310156147a357835163ffffffff16825292840192600192909201919084019061477d565b5060a087015161ffff811660c0880152935060c08701516001600160481b03811660e08801529350614707565b6000602082840312156147e257600080fd5b8135613d4f81613f5b565b6000806020838503121561480057600080fd5b82356001600160401b038082111561481757600080fd5b818501915085601f83011261482b57600080fd5b81358181111561483a57600080fd5b8660206101608302850101111561485057600080fd5b60209290920196919550909350505050565b6000806040838503121561487557600080fd5b823561457381613d0d565b6000602080830181845280855180835260408601915060408160051b870101925083870160005b828110156148d557603f198886030184526148c38583516145e0565b945092850192908501906001016148a7565b5092979650505050505050565b634e487b7160e01b600052603260045260246000fd5b6001600160a01b0384811682528316602082015260608101613a176040830184614139565b81518152602080830151610160830191614941908401826001600160a01b03169052565b50604083015161495c60408401826001600160601b03169052565b50606083015161497760608401826001600160a01b03169052565b50608083015161499260808401826001600160401b03169052565b5060a08301516149aa60a084018263ffffffff169052565b5060c08301516149c560c08401826001600160481b03169052565b5060e08301516149e060e08401826001600160481b03169052565b506101008381015164ffffffffff81168483015250506101208381015164ffffffffff81168483015250506101408381015163ffffffff8116848301525b505092915050565b634e487b7160e01b600052601160045260246000fd5b64ffffffffff8181168382160190808211156128a8576128a8614a26565b6001600160601b03818116838216028082169190828114614a1e57614a1e614a26565b6001600160601b038181168382160190808211156128a8576128a8614a26565b6001600160601b03871681526001600160a01b0386166020820152614ac56040820186614139565b60c060608201526000614adb60c0830186613dd0565b8281036080840152614aed8186613dd0565b905082810360a0840152614b018185613dd0565b9998505050505050505050565b600060018201614b2057614b20614a26565b5060010190565b6001600160601b038281168282160390808211156128a8576128a8614a26565b600060ff821660ff8103614b5d57614b5d614a26565b60010192915050565b8181038181111561117e5761117e614a26565b634e487b7160e01b600052603160045260246000fd5b60006001600160401b03808316818103614bab57614bab614a26565b6001019392505050565b8082018082111561117e5761117e614a26565b600060208284031215614bda57600080fd5b5051919050565b60006101608284031215614bf457600080fd5b613d4f8383613fb9565b6001600160401b038181168382160190808211156128a8576128a8614a26565b6001600160401b038281168282160390808211156128a8576128a8614a26565b838152606060208201526000614c576060830185613dd0565b82810360408401526147078185613dd0565b6020815260008251610160806020850152614c88610180850183613dd0565b9150602085015160408501526040850151614cae60608601826001600160a01b03169052565b5060608501516001600160601b03811660808601525060808501516001600160481b03811660a08601525060a08501516001600160401b03811660c08601525060c08501516001600160401b03811660e08601525060e0850151610100614d1c8187018363ffffffff169052565b8601519050610120614d338682018361ffff169052565b8601519050610140614d4f868201836001600160401b03169052565b909501516001600160a01b031693019290925250919050565b8051613d2d81613f5b565b8051613d2d81613f3b565b8051613d2d81613d0d565b8051613d2d81613d56565b8051613d2d81613f7b565b8051613d2d81613f9b565b60006101608284031215614dbd57600080fd5b614dc5613e51565b82518152614dd560208401614d68565b6020820152614de660408401614d73565b6040820152614df760608401614d68565b6060820152614e0860808401614d7e565b6080820152614e1960a08401614d89565b60a0820152614e2a60c08401614d94565b60c0820152614e3b60e08401614d94565b60e0820152610100614e4e818501614d9f565b90820152610120614e60848201614d9f565b90820152610140614e72848201614d89565b908201529392505050565b6001600160a01b03888116825287811660208301528616604082015260e060608201819052600090614eb190830187613dd0565b61ffff9590951660808301525063ffffffff9290921660a08301526001600160601b031660c090910152949350505050565b6001600160a01b0383168152604060208201819052600090613a1790830184613dd0565b600060208284031215614f1957600080fd5b81518015158114613d4f57600080fd5b60008251614f3b818460208701613dac565b919091019291505056fe1a90e9a50793db2e394cf581e7c522e10c358a81e70acf6b5a0edd620c08dee1a2646970667358221220e7b677aaf11107857de7bd645d05597174351cd2ee7370ea1446dbc093d7094064736f6c63430008130033","linkReferences":{}},"methodIdentifiers":{"MAX_CALLBACK_RETURN_BYTES()":"0c5d49cb","acceptOwnership()":"79ba5097","acceptSubscriptionOwnerTransfer(uint64)":"82359740","addConsumer(uint64,address)":"7341c10c","cancelSubscription(uint64,address)":"d7ae1d30","createSubscription()":"a21a23e4","createSubscriptionWithConsumer(address)":"cc77470a","fulfill(bytes,bytes,uint96,uint96,address,(bytes32,address,uint96,address,uint64,uint32,uint72,uint72,uint40,uint40,uint32))":"33060529","getAdminFee()":"2a905ccc","getAllowListId()":"aab396bd","getConfig()":"c3f909d4","getConsumer(address,uint64)":"674603d0","getContractById(bytes32)":"a9c9a918","getFlags(uint64)":"55fedefa","getProposedContractById(bytes32)":"6a2215de","getProposedContractSet()":"badc3eb6","getSubscription(uint64)":"a47c7696","getSubscriptionCount()":"66419970","getSubscriptionsInRange(uint64,uint64)":"ec2454e5","getTotalBalance()":"12b58349","isValidCallbackGasLimit(uint64,uint32)":"10fc49c1","onTokenTransfer(address,uint256,bytes)":"a4c0ed36","oracleWithdraw(address,uint96)":"66316d8d","owner()":"8da5cb5b","ownerCancelSubscription(uint64)":"02bcc5b6","ownerWithdraw(address,uint96)":"5ed6dfba","pause()":"8456cb59","paused()":"5c975abb","pendingRequestExists(uint64)":"e82ad7d4","proposeContractsUpdate(bytes32[],address[])":"3e871e4d","proposeSubscriptionOwnerTransfer(uint64,address)":"4b8832d3","recoverFunds(address)":"e72f6e30","removeConsumer(uint64,address)":"9f87fad7","sendRequest(uint64,bytes,uint16,uint32,bytes32)":"461d2762","sendRequestToProposed(uint64,bytes,uint16,uint32,bytes32)":"41db4ca3","setAllowListId(bytes32)":"ea320e0b","setFlags(uint64,bytes32)":"1ded3b36","timeoutRequests((bytes32,address,uint96,address,uint64,uint32,uint72,uint72,uint40,uint40,uint32)[])":"e82622aa","transferOwnership(address)":"f2fde38b","typeAndVersion()":"181f5a77","unpause()":"3f4ba83a","updateConfig((uint16,uint72,bytes4,uint16,uint32[],uint16,uint72))":"6162a323","updateContracts()":"b734c0f4"},"id":12}