{"abi":[{"type":"constructor","inputs":[{"name":"logicB","type":"address","internalType":"contract KeeperRegistryLogicB2_1"}],"stateMutability":"nonpayable"},{"type":"fallback","stateMutability":"nonpayable"},{"type":"function","name":"acceptOwnership","inputs":[],"outputs":[],"stateMutability":"nonpayable"},{"type":"function","name":"addFunds","inputs":[{"name":"id","type":"uint256","internalType":"uint256"},{"name":"amount","type":"uint96","internalType":"uint96"}],"outputs":[],"stateMutability":"nonpayable"},{"type":"function","name":"cancelUpkeep","inputs":[{"name":"id","type":"uint256","internalType":"uint256"}],"outputs":[],"stateMutability":"nonpayable"},{"type":"function","name":"checkCallback","inputs":[{"name":"id","type":"uint256","internalType":"uint256"},{"name":"values","type":"bytes[]","internalType":"bytes[]"},{"name":"extraData","type":"bytes","internalType":"bytes"}],"outputs":[{"name":"upkeepNeeded","type":"bool","internalType":"bool"},{"name":"performData","type":"bytes","internalType":"bytes"},{"name":"upkeepFailureReason","type":"uint8","internalType":"enum KeeperRegistryBase2_1.UpkeepFailureReason"},{"name":"gasUsed","type":"uint256","internalType":"uint256"}],"stateMutability":"nonpayable"},{"type":"function","name":"checkUpkeep","inputs":[{"name":"id","type":"uint256","internalType":"uint256"},{"name":"triggerData","type":"bytes","internalType":"bytes"}],"outputs":[{"name":"upkeepNeeded","type":"bool","internalType":"bool"},{"name":"performData","type":"bytes","internalType":"bytes"},{"name":"upkeepFailureReason","type":"uint8","internalType":"enum KeeperRegistryBase2_1.UpkeepFailureReason"},{"name":"gasUsed","type":"uint256","internalType":"uint256"},{"name":"gasLimit","type":"uint256","internalType":"uint256"},{"name":"fastGasWei","type":"uint256","internalType":"uint256"},{"name":"linkNative","type":"uint256","internalType":"uint256"}],"stateMutability":"nonpayable"},{"type":"function","name":"checkUpkeep","inputs":[{"name":"id","type":"uint256","internalType":"uint256"}],"outputs":[{"name":"upkeepNeeded","type":"bool","internalType":"bool"},{"name":"performData","type":"bytes","internalType":"bytes"},{"name":"upkeepFailureReason","type":"uint8","internalType":"enum KeeperRegistryBase2_1.UpkeepFailureReason"},{"name":"gasUsed","type":"uint256","internalType":"uint256"},{"name":"gasLimit","type":"uint256","internalType":"uint256"},{"name":"fastGasWei","type":"uint256","internalType":"uint256"},{"name":"linkNative","type":"uint256","internalType":"uint256"}],"stateMutability":"nonpayable"},{"type":"function","name":"executeCallback","inputs":[{"name":"id","type":"uint256","internalType":"uint256"},{"name":"payload","type":"bytes","internalType":"bytes"}],"outputs":[{"name":"upkeepNeeded","type":"bool","internalType":"bool"},{"name":"performData","type":"bytes","internalType":"bytes"},{"name":"upkeepFailureReason","type":"uint8","internalType":"enum KeeperRegistryBase2_1.UpkeepFailureReason"},{"name":"gasUsed","type":"uint256","internalType":"uint256"}],"stateMutability":"nonpayable"},{"type":"function","name":"fallbackTo","inputs":[],"outputs":[{"name":"","type":"address","internalType":"address"}],"stateMutability":"view"},{"type":"function","name":"migrateUpkeeps","inputs":[{"name":"ids","type":"uint256[]","internalType":"uint256[]"},{"name":"destination","type":"address","internalType":"address"}],"outputs":[],"stateMutability":"nonpayable"},{"type":"function","name":"owner","inputs":[],"outputs":[{"name":"","type":"address","internalType":"address"}],"stateMutability":"view"},{"type":"function","name":"receiveUpkeeps","inputs":[{"name":"encodedUpkeeps","type":"bytes","internalType":"bytes"}],"outputs":[],"stateMutability":"nonpayable"},{"type":"function","name":"registerUpkeep","inputs":[{"name":"target","type":"address","internalType":"address"},{"name":"gasLimit","type":"uint32","internalType":"uint32"},{"name":"admin","type":"address","internalType":"address"},{"name":"triggerType","type":"uint8","internalType":"enum KeeperRegistryBase2_1.Trigger"},{"name":"checkData","type":"bytes","internalType":"bytes"},{"name":"triggerConfig","type":"bytes","internalType":"bytes"},{"name":"offchainConfig","type":"bytes","internalType":"bytes"}],"outputs":[{"name":"id","type":"uint256","internalType":"uint256"}],"stateMutability":"nonpayable"},{"type":"function","name":"registerUpkeep","inputs":[{"name":"target","type":"address","internalType":"address"},{"name":"gasLimit","type":"uint32","internalType":"uint32"},{"name":"admin","type":"address","internalType":"address"},{"name":"checkData","type":"bytes","internalType":"bytes"},{"name":"offchainConfig","type":"bytes","internalType":"bytes"}],"outputs":[{"name":"id","type":"uint256","internalType":"uint256"}],"stateMutability":"nonpayable"},{"type":"function","name":"setUpkeepTriggerConfig","inputs":[{"name":"id","type":"uint256","internalType":"uint256"},{"name":"triggerConfig","type":"bytes","internalType":"bytes"}],"outputs":[],"stateMutability":"nonpayable"},{"type":"function","name":"transferOwnership","inputs":[{"name":"to","type":"address","internalType":"address"}],"outputs":[],"stateMutability":"nonpayable"},{"type":"event","name":"AdminPrivilegeConfigSet","inputs":[{"name":"admin","type":"address","indexed":true,"internalType":"address"},{"name":"privilegeConfig","type":"bytes","indexed":false,"internalType":"bytes"}],"anonymous":false},{"type":"event","name":"CancelledUpkeepReport","inputs":[{"name":"id","type":"uint256","indexed":true,"internalType":"uint256"},{"name":"trigger","type":"bytes","indexed":false,"internalType":"bytes"}],"anonymous":false},{"type":"event","name":"DedupKeyAdded","inputs":[{"name":"dedupKey","type":"bytes32","indexed":true,"internalType":"bytes32"}],"anonymous":false},{"type":"event","name":"FundsAdded","inputs":[{"name":"id","type":"uint256","indexed":true,"internalType":"uint256"},{"name":"from","type":"address","indexed":true,"internalType":"address"},{"name":"amount","type":"uint96","indexed":false,"internalType":"uint96"}],"anonymous":false},{"type":"event","name":"FundsWithdrawn","inputs":[{"name":"id","type":"uint256","indexed":true,"internalType":"uint256"},{"name":"amount","type":"uint256","indexed":false,"internalType":"uint256"},{"name":"to","type":"address","indexed":false,"internalType":"address"}],"anonymous":false},{"type":"event","name":"InsufficientFundsUpkeepReport","inputs":[{"name":"id","type":"uint256","indexed":true,"internalType":"uint256"},{"name":"trigger","type":"bytes","indexed":false,"internalType":"bytes"}],"anonymous":false},{"type":"event","name":"OwnerFundsWithdrawn","inputs":[{"name":"amount","type":"uint96","indexed":false,"internalType":"uint96"}],"anonymous":false},{"type":"event","name":"OwnershipTransferRequested","inputs":[{"name":"from","type":"address","indexed":true,"internalType":"address"},{"name":"to","type":"address","indexed":true,"internalType":"address"}],"anonymous":false},{"type":"event","name":"OwnershipTransferred","inputs":[{"name":"from","type":"address","indexed":true,"internalType":"address"},{"name":"to","type":"address","indexed":true,"internalType":"address"}],"anonymous":false},{"type":"event","name":"Paused","inputs":[{"name":"account","type":"address","indexed":false,"internalType":"address"}],"anonymous":false},{"type":"event","name":"PayeesUpdated","inputs":[{"name":"transmitters","type":"address[]","indexed":false,"internalType":"address[]"},{"name":"payees","type":"address[]","indexed":false,"internalType":"address[]"}],"anonymous":false},{"type":"event","name":"PayeeshipTransferRequested","inputs":[{"name":"transmitter","type":"address","indexed":true,"internalType":"address"},{"name":"from","type":"address","indexed":true,"internalType":"address"},{"name":"to","type":"address","indexed":true,"internalType":"address"}],"anonymous":false},{"type":"event","name":"PayeeshipTransferred","inputs":[{"name":"transmitter","type":"address","indexed":true,"internalType":"address"},{"name":"from","type":"address","indexed":true,"internalType":"address"},{"name":"to","type":"address","indexed":true,"internalType":"address"}],"anonymous":false},{"type":"event","name":"PaymentWithdrawn","inputs":[{"name":"transmitter","type":"address","indexed":true,"internalType":"address"},{"name":"amount","type":"uint256","indexed":true,"internalType":"uint256"},{"name":"to","type":"address","indexed":true,"internalType":"address"},{"name":"payee","type":"address","indexed":false,"internalType":"address"}],"anonymous":false},{"type":"event","name":"ReorgedUpkeepReport","inputs":[{"name":"id","type":"uint256","indexed":true,"internalType":"uint256"},{"name":"trigger","type":"bytes","indexed":false,"internalType":"bytes"}],"anonymous":false},{"type":"event","name":"StaleUpkeepReport","inputs":[{"name":"id","type":"uint256","indexed":true,"internalType":"uint256"},{"name":"trigger","type":"bytes","indexed":false,"internalType":"bytes"}],"anonymous":false},{"type":"event","name":"Unpaused","inputs":[{"name":"account","type":"address","indexed":false,"internalType":"address"}],"anonymous":false},{"type":"event","name":"UpkeepAdminTransferRequested","inputs":[{"name":"id","type":"uint256","indexed":true,"internalType":"uint256"},{"name":"from","type":"address","indexed":true,"internalType":"address"},{"name":"to","type":"address","indexed":true,"internalType":"address"}],"anonymous":false},{"type":"event","name":"UpkeepAdminTransferred","inputs":[{"name":"id","type":"uint256","indexed":true,"internalType":"uint256"},{"name":"from","type":"address","indexed":true,"internalType":"address"},{"name":"to","type":"address","indexed":true,"internalType":"address"}],"anonymous":false},{"type":"event","name":"UpkeepCanceled","inputs":[{"name":"id","type":"uint256","indexed":true,"internalType":"uint256"},{"name":"atBlockHeight","type":"uint64","indexed":true,"internalType":"uint64"}],"anonymous":false},{"type":"event","name":"UpkeepCheckDataSet","inputs":[{"name":"id","type":"uint256","indexed":true,"internalType":"uint256"},{"name":"newCheckData","type":"bytes","indexed":false,"internalType":"bytes"}],"anonymous":false},{"type":"event","name":"UpkeepGasLimitSet","inputs":[{"name":"id","type":"uint256","indexed":true,"internalType":"uint256"},{"name":"gasLimit","type":"uint96","indexed":false,"internalType":"uint96"}],"anonymous":false},{"type":"event","name":"UpkeepMigrated","inputs":[{"name":"id","type":"uint256","indexed":true,"internalType":"uint256"},{"name":"remainingBalance","type":"uint256","indexed":false,"internalType":"uint256"},{"name":"destination","type":"address","indexed":false,"internalType":"address"}],"anonymous":false},{"type":"event","name":"UpkeepOffchainConfigSet","inputs":[{"name":"id","type":"uint256","indexed":true,"internalType":"uint256"},{"name":"offchainConfig","type":"bytes","indexed":false,"internalType":"bytes"}],"anonymous":false},{"type":"event","name":"UpkeepPaused","inputs":[{"name":"id","type":"uint256","indexed":true,"internalType":"uint256"}],"anonymous":false},{"type":"event","name":"UpkeepPerformed","inputs":[{"name":"id","type":"uint256","indexed":true,"internalType":"uint256"},{"name":"success","type":"bool","indexed":true,"internalType":"bool"},{"name":"totalPayment","type":"uint96","indexed":false,"internalType":"uint96"},{"name":"gasUsed","type":"uint256","indexed":false,"internalType":"uint256"},{"name":"gasOverhead","type":"uint256","indexed":false,"internalType":"uint256"},{"name":"trigger","type":"bytes","indexed":false,"internalType":"bytes"}],"anonymous":false},{"type":"event","name":"UpkeepPrivilegeConfigSet","inputs":[{"name":"id","type":"uint256","indexed":true,"internalType":"uint256"},{"name":"privilegeConfig","type":"bytes","indexed":false,"internalType":"bytes"}],"anonymous":false},{"type":"event","name":"UpkeepReceived","inputs":[{"name":"id","type":"uint256","indexed":true,"internalType":"uint256"},{"name":"startingBalance","type":"uint256","indexed":false,"internalType":"uint256"},{"name":"importedFrom","type":"address","indexed":false,"internalType":"address"}],"anonymous":false},{"type":"event","name":"UpkeepRegistered","inputs":[{"name":"id","type":"uint256","indexed":true,"internalType":"uint256"},{"name":"performGas","type":"uint32","indexed":false,"internalType":"uint32"},{"name":"admin","type":"address","indexed":false,"internalType":"address"}],"anonymous":false},{"type":"event","name":"UpkeepTriggerConfigSet","inputs":[{"name":"id","type":"uint256","indexed":true,"internalType":"uint256"},{"name":"triggerConfig","type":"bytes","indexed":false,"internalType":"bytes"}],"anonymous":false},{"type":"event","name":"UpkeepUnpaused","inputs":[{"name":"id","type":"uint256","indexed":true,"internalType":"uint256"}],"anonymous":false},{"type":"error","name":"ArrayHasNoEntries","inputs":[]},{"type":"error","name":"CannotCancel","inputs":[]},{"type":"error","name":"CheckDataExceedsLimit","inputs":[]},{"type":"error","name":"ConfigDigestMismatch","inputs":[]},{"type":"error","name":"DuplicateEntry","inputs":[]},{"type":"error","name":"DuplicateSigners","inputs":[]},{"type":"error","name":"GasLimitCanOnlyIncrease","inputs":[]},{"type":"error","name":"GasLimitOutsideRange","inputs":[]},{"type":"error","name":"IncorrectNumberOfFaultyOracles","inputs":[]},{"type":"error","name":"IncorrectNumberOfSignatures","inputs":[]},{"type":"error","name":"IncorrectNumberOfSigners","inputs":[]},{"type":"error","name":"IndexOutOfRange","inputs":[]},{"type":"error","name":"InsufficientFunds","inputs":[]},{"type":"error","name":"InvalidDataLength","inputs":[]},{"type":"error","name":"InvalidPayee","inputs":[]},{"type":"error","name":"InvalidRecipient","inputs":[]},{"type":"error","name":"InvalidReport","inputs":[]},{"type":"error","name":"InvalidSigner","inputs":[]},{"type":"error","name":"InvalidTransmitter","inputs":[]},{"type":"error","name":"InvalidTrigger","inputs":[]},{"type":"error","name":"InvalidTriggerType","inputs":[]},{"type":"error","name":"MaxCheckDataSizeCanOnlyIncrease","inputs":[]},{"type":"error","name":"MaxPerformDataSizeCanOnlyIncrease","inputs":[]},{"type":"error","name":"MigrationNotPermitted","inputs":[]},{"type":"error","name":"NotAContract","inputs":[]},{"type":"error","name":"OnlyActiveSigners","inputs":[]},{"type":"error","name":"OnlyActiveTransmitters","inputs":[]},{"type":"error","name":"OnlyCallableByAdmin","inputs":[]},{"type":"error","name":"OnlyCallableByLINKToken","inputs":[]},{"type":"error","name":"OnlyCallableByOwnerOrAdmin","inputs":[]},{"type":"error","name":"OnlyCallableByOwnerOrRegistrar","inputs":[]},{"type":"error","name":"OnlyCallableByPayee","inputs":[]},{"type":"error","name":"OnlyCallableByProposedAdmin","inputs":[]},{"type":"error","name":"OnlyCallableByProposedPayee","inputs":[]},{"type":"error","name":"OnlyCallableByUpkeepPrivilegeManager","inputs":[]},{"type":"error","name":"OnlyPausedUpkeep","inputs":[]},{"type":"error","name":"OnlySimulatedBackend","inputs":[]},{"type":"error","name":"OnlyUnpausedUpkeep","inputs":[]},{"type":"error","name":"ParameterLengthError","inputs":[]},{"type":"error","name":"PaymentGreaterThanAllLINK","inputs":[]},{"type":"error","name":"ReentrantCall","inputs":[]},{"type":"error","name":"RegistryPaused","inputs":[]},{"type":"error","name":"RepeatedSigner","inputs":[]},{"type":"error","name":"RepeatedTransmitter","inputs":[]},{"type":"error","name":"TargetCheckReverted","inputs":[{"name":"reason","type":"bytes","internalType":"bytes"}]},{"type":"error","name":"TooManyOracles","inputs":[]},{"type":"error","name":"TranscoderNotSet","inputs":[]},{"type":"error","name":"UpkeepAlreadyExists","inputs":[]},{"type":"error","name":"UpkeepCancelled","inputs":[]},{"type":"error","name":"UpkeepNotCanceled","inputs":[]},{"type":"error","name":"UpkeepNotNeeded","inputs":[]},{"type":"error","name":"ValueNotChanged","inputs":[]}],"bytecode":{"object":"0x6101406040523480156200001257600080fd5b506040516200543a3803806200543a8339810160408190526200003591620003df565b80816001600160a01b0316634b4fd03b6040518163ffffffff1660e01b8152600401602060405180830381865afa15801562000075573d6000803e3d6000fd5b505050506040513d601f19601f820116820180604052508101906200009b919062000406565b826001600160a01b031663ca30e6036040518163ffffffff1660e01b8152600401602060405180830381865afa158015620000da573d6000803e3d6000fd5b505050506040513d601f19601f82011682018060405250810190620001009190620003df565b836001600160a01b031663b10b673c6040518163ffffffff1660e01b8152600401602060405180830381865afa1580156200013f573d6000803e3d6000fd5b505050506040513d601f19601f82011682018060405250810190620001659190620003df565b846001600160a01b0316636709d0e56040518163ffffffff1660e01b8152600401602060405180830381865afa158015620001a4573d6000803e3d6000fd5b505050506040513d601f19601f82011682018060405250810190620001ca9190620003df565b856001600160a01b0316635425d8ac6040518163ffffffff1660e01b8152600401602060405180830381865afa15801562000209573d6000803e3d6000fd5b505050506040513d601f19601f820116820180604052508101906200022f9190620003df565b3380600081620002865760405162461bcd60e51b815260206004820152601860248201527f43616e6e6f7420736574206f776e657220746f207a65726f000000000000000060448201526064015b60405180910390fd5b600080546001600160a01b0319166001600160a01b0384811691909117909155811615620002b957620002b9816200031b565b505050846002811115620002d157620002d162000429565b60e0816002811115620002e857620002e862000429565b9052506001600160a01b0393841660805291831660a052821660c0528116610100529190911661012052506200043f9050565b336001600160a01b03821603620003755760405162461bcd60e51b815260206004820152601760248201527f43616e6e6f74207472616e7366657220746f2073656c6600000000000000000060448201526064016200027d565b600180546001600160a01b0319166001600160a01b0383811691821790925560008054604051929316917fed8889f560326eb138920d842192f0eb3dd22b4f139c87a2c57538e05bae12789190a350565b6001600160a01b0381168114620003dc57600080fd5b50565b600060208284031215620003f257600080fd5b8151620003ff81620003c6565b9392505050565b6000602082840312156200041957600080fd5b815160038110620003ff57600080fd5b634e487b7160e01b600052602160045260246000fd5b60805160a05160c05160e0516101005161012051614f81620004b96000396000818161010e01526101a901526000818161037b0152611bbb015260008181612bc801528181612d7701528181612f99015261311a0152600061286d01526000612944015260008181611a300152611f030152614f816000f3fe60806040523480156200001157600080fd5b50600436106200010c5760003560e01c806385c1b0ba11620000a5578063c8048022116200006f578063c8048022146200029d578063ce7dc5b414620002b4578063f2fde38b14620002cb578063f7d334ba14620002e2576200010c565b806385c1b0ba14620002465780638da5cb5b146200025d5780638e86139b146200026f578063948108f71462000286576200010c565b80634ee88d3511620000e75780634ee88d3514620001e25780636ded9eae14620001f957806371791aa0146200021057806379ba5097146200023c576200010c565b806328f32f38146200015457806329c5efad146200017e578063349e8cca14620001a7575b7f00000000000000000000000000000000000000000000000000000000000000003660008037600080366000845af43d6000803e8080156200014d573d6000f35b3d6000fd5b005b6200016b620001653660046200370d565b620002f9565b6040519081526020015b60405180910390f35b620001956200018f366004620037f2565b620005e4565b604051620001759493929190620038c9565b7f00000000000000000000000000000000000000000000000000000000000000005b6040516001600160a01b03909116815260200162000175565b62000152620001f336600462003906565b62000836565b6200016b6200020a36600462003955565b6200089e565b6200022762000221366004620037f2565b62000904565b60405162000175979695949392919062003a07565b6200015262000f7e565b620001526200025736600462003a59565b6200102e565b6000546001600160a01b0316620001c9565b620001526200028036600462003ae5565b62001ab1565b620001526200029736600462003b42565b62001dcd565b62000152620002ae36600462003b71565b62001fc1565b62000195620002c536600462003c45565b6200228c565b62000152620002dc36600462003cbb565b62002311565b62000227620002f336600462003b71565b62002329565b600080546001600160a01b031633148015906200032057506200031e60093362002367565b155b156200033f5760405163d48b678b60e01b815260040160405180910390fd5b6001600160a01b0389163b62000368576040516309ee12d560e01b815260040160405180910390fd5b62000373866200238e565b9050600089307f0000000000000000000000000000000000000000000000000000000000000000604051620003a89062003505565b6001600160a01b03938416815291831660208301529091166040820152606001604051809103906000f080158015620003e5573d6000803e3d6000fd5b50905062000495826040518060e001604052806000151581526020018c63ffffffff16815260200163ffffffff80168152602001846001600160a01b0316815260200160006001600160601b0316815260200160006001600160601b03168152602001600063ffffffff168152508a89898080601f0160208091040260200160405190810160405280939291908181526020018383808284376000920191909152508b92508a9150620024b59050565b60148054600160a01b900463ffffffff169080620004b38362003cf1565b91906101000a81548163ffffffff021916908363ffffffff16021790555050817fbae366358c023f887e791d7a62f2e4316f1026bd77f6fb49501a917b3bc5d0128a8a6040516200051f92919063ffffffff9290921682526001600160a01b0316602082015260400190565b60405180910390a2817fcba2d5723b2ee59e53a8e8a82a4a7caf4fdfe70e9f7c582950bf7e7a5c24e83d87876040516200055b92919062003d40565b60405180910390a2817f2b72ac786c97e68dbab71023ed6f2bdbfc80ad9bb7808941929229d71b7d56648560405162000595919062003d56565b60405180910390a2817f3e8740446213c8a77d40e08f79136ce3f347d13ed270a6ebdf57159e0faf485084604051620005cf919062003d56565b60405180910390a25098975050505050505050565b60006060600080620005f562002735565b600086815260046020908152604091829020825160e081018452815460ff811615158252610100810463ffffffff90811694830194909452600160281b8104841694820194909452600160481b9093046001600160a01b03166060840152600101546001600160601b038082166080850152600160601b82041660a0840152600160c01b90041660c08201525a915060008082606001516001600160a01b031663f00e6a2a6040518163ffffffff1660e01b8152600401602060405180830381865afa158015620006ca573d6000803e3d6000fd5b505050506040513d601f19601f82011682018060405250810190620006f0919062003d78565b6001600160a01b03166013600101600c9054906101000a900463ffffffff1663ffffffff168960405162000725919062003d98565b60006040518083038160008787f1925050503d806000811462000765576040519150601f19603f3d011682016040523d82523d6000602084013e6200076a565b606091505b50915091505a6200077c908562003db6565b935081620007a75760006040518060200160405280600081525060079650965096505050506200082d565b80806020019051810190620007bd919062003e27565b909750955086620007eb5760006040518060200160405280600081525060049650965096505050506200082d565b601554865164010000000090910463ffffffff161015620008295760006040518060200160405280600081525060059650965096505050506200082d565b5050505b92959194509250565b620008418362002757565b6000838152601a602052604090206200085c82848362003f02565b50827f2b72ac786c97e68dbab71023ed6f2bdbfc80ad9bb7808941929229d71b7d566483836040516200089192919062003d40565b60405180910390a2505050565b6000620008f888888860008989604051806020016040528060008152508a8a8080601f016020809104026020016040519081016040528093929190818152602001838380828437600092019190915250620002f992505050565b98975050505050505050565b6000606060008060008060006200091a62002735565b6000620009278a620027cc565b905060006012604051806101200160405290816000820160009054906101000a900460ff1660ff1660ff1681526020016000820160019054906101000a900463ffffffff1663ffffffff1663ffffffff1681526020016000820160059054906101000a900463ffffffff1663ffffffff1663ffffffff1681526020016000820160099054906101000a900462ffffff1662ffffff1662ffffff16815260200160008201600c9054906101000a900461ffff1661ffff1661ffff16815260200160008201600e9054906101000a900460ff1615151515815260200160008201600f9054906101000a900460ff161515151581526020016000820160109054906101000a90046001600160601b03166001600160601b03166001600160601b0316815260200160008201601c9054906101000a900463ffffffff1663ffffffff1663ffffffff168152505090506000600460008d81526020019081526020016000206040518060e00160405290816000820160009054906101000a900460ff161515151581526020016000820160019054906101000a900463ffffffff1663ffffffff1663ffffffff1681526020016000820160059054906101000a900463ffffffff1663ffffffff1663ffffffff1681526020016000820160099054906101000a90046001600160a01b03166001600160a01b03166001600160a01b031681526020016001820160009054906101000a90046001600160601b03166001600160601b03166001600160601b0316815260200160018201600c9054906101000a90046001600160601b03166001600160601b03166001600160601b031681526020016001820160189054906101000a900463ffffffff1663ffffffff1663ffffffff168152505090508160a001511562000bf7576000604051806020016040528060008152506009600084602001516000808263ffffffff169250995099509950995099509950995050505062000f72565b604081015163ffffffff9081161462000c48576000604051806020016040528060008152506001600084602001516000808263ffffffff169250995099509950995099509950995050505062000f72565b80511562000c8e576000604051806020016040528060008152506002600084602001516000808263ffffffff169250995099509950995099509950995050505062000f72565b62000c99826200284a565b602083015160155492975090955060009162000ccb918591879190640100000000900463ffffffff168a8a8762002a22565b9050806001600160601b03168260a001516001600160601b0316101562000d2b576000604051806020016040528060008152506006600085602001516000808263ffffffff1692509a509a509a509a509a509a509a505050505062000f72565b600062000d3a8e868f62002a73565b90505a985060008084606001516001600160a01b031663f00e6a2a6040518163ffffffff1660e01b8152600401602060405180830381865afa15801562000d85573d6000803e3d6000fd5b505050506040513d601f19601f8201168201806040525081019062000dab919062003d78565b6001600160a01b03166013600101600c9054906101000a900463ffffffff1663ffffffff168460405162000de0919062003d98565b60006040518083038160008787f1925050503d806000811462000e20576040519150601f19603f3d011682016040523d82523d6000602084013e62000e25565b606091505b50915091505a62000e37908c62003db6565b9a508162000eb75760155481516801000000000000000090910463ffffffff16101562000e9457505060408051602080820190925260008082529490910151939c509a50600899505063ffffffff909116955062000f7292505050565b602090940151939b5060039a505063ffffffff909216965062000f729350505050565b8080602001905181019062000ecd919062003e27565b909e509c508d62000f0e57505060408051602080820190925260008082529490910151939c509a50600499505063ffffffff909116955062000f7292505050565b6015548d5164010000000090910463ffffffff16101562000f5f57505060408051602080820190925260008082529490910151939c509a50600599505063ffffffff909116955062000f7292505050565b505050506020015163ffffffff16945050505b92959891949750929550565b6001546001600160a01b0316331462000fd75760405162461bcd60e51b815260206004820152601660248201527526bab9ba10313290383937b837b9b2b21037bbb732b960511b60448201526064015b60405180910390fd5b60008054336001600160a01b0319808316821784556001805490911690556040516001600160a01b0390921692909183917f8be0079c531659141344cd1fd0a4f28419497f9722a3daafe3b4186f6b6457e091a350565b60016001600160a01b03821660009081526019602052604090205460ff16600381111562001060576200106062003890565b141580156200109f575060036001600160a01b03821660009081526019602052604090205460ff1660038111156200109c576200109c62003890565b14155b15620010be576040516303afbb0f60e21b815260040160405180910390fd5b601354600160601b90046001600160a01b0316620010ef5760405163d12d7d8d60e01b815260040160405180910390fd5b60008290036200111257604051632c2fc94160e01b815260040160405180910390fd5b6040805160e081018252600080825260208201819052918101829052606081018290526080810182905260a0810182905260c08101829052600080856001600160401b03811115620011685762001168620035ed565b60405190808252806020026020018201604052801562001192578160200160208202803683370190505b5090506000866001600160401b03811115620011b257620011b2620035ed565b6040519080825280602002602001820160405280156200121b57816020015b6040805160e08101825260008082526020808301829052928201819052606082018190526080820181905260a0820181905260c08201528252600019909201910181620011d15790505b5090506000876001600160401b038111156200123b576200123b620035ed565b6040519080825280602002602001820160405280156200127057816020015b60608152602001906001900390816200125a5790505b5090506000886001600160401b03811115620012905762001290620035ed565b604051908082528060200260200182016040528015620012c557816020015b6060815260200190600190039081620012af5790505b5090506000896001600160401b03811115620012e557620012e5620035ed565b6040519080825280602002602001820160405280156200131a57816020015b6060815260200190600190039081620013045790505b50905060005b8a81101562001827578b8b828181106200133e576200133e62003fcf565b60209081029290920135600081815260048452604090819020815160e081018352815460ff811615158252610100810463ffffffff90811697830197909752600160281b8104871693820193909352600160481b9092046001600160a01b03166060830152600101546001600160601b038082166080840152600160601b82041660a0830152600160c01b900490931660c08401529a50909850620013e590508962002757565b606088015160405163034bb4d960e31b81526001600160a01b038c8116600483015290911690631a5da6c890602401600060405180830381600087803b1580156200142f57600080fd5b505af115801562001444573d6000803e3d6000fd5b50505050878582815181106200145e576200145e62003fcf565b6020026020010181905250600560008a815260200190815260200160002060009054906101000a90046001600160a01b0316868281518110620014a557620014a562003fcf565b6001600160a01b0390921660209283029190910182015260008a81526007909152604090208054620014d79062003e73565b80601f0160208091040260200160405190810160405280929190818152602001828054620015059062003e73565b8015620015565780601f106200152a5761010080835404028352916020019162001556565b820191906000526020600020905b8154815290600101906020018083116200153857829003601f168201915b505050505084828151811062001570576200157062003fcf565b6020026020010181905250601a60008a815260200190815260200160002080546200159b9062003e73565b80601f0160208091040260200160405190810160405280929190818152602001828054620015c99062003e73565b80156200161a5780601f10620015ee576101008083540402835291602001916200161a565b820191906000526020600020905b815481529060010190602001808311620015fc57829003601f168201915b505050505083828151811062001634576200163462003fcf565b6020026020010181905250601b60008a815260200190815260200160002080546200165f9062003e73565b80601f01602080910402602001604051908101604052809291908181526020018280546200168d9062003e73565b8015620016de5780601f10620016b257610100808354040283529160200191620016de565b820191906000526020600020905b815481529060010190602001808311620016c057829003601f168201915b5050505050828281518110620016f857620016f862003fcf565b60200260200101819052508760a001516001600160601b0316876200171e919062003fe5565b60008a815260046020908152604080832080546001600160e81b031916815560010180546001600160e01b03191690556007909152812091985062001764919062003513565b6000898152601a602052604081206200177d9162003513565b6000898152601b60205260408120620017969162003513565b600089815260066020526040902080546001600160a01b0319169055620017bf60028a62002bb4565b5060a0880151604080516001600160601b0390921682526001600160a01b038c1660208301528a917fb38647142fbb1ea4c000fc4569b37a4e9a9f6313317b84ee3e5326c1a6cd06ff910160405180910390a2806200181e8162003ffb565b91505062001320565b508560185462001838919062003db6565b60185560008b8b86816001600160401b038111156200185b576200185b620035ed565b60405190808252806020026020018201604052801562001885578160200160208202803683370190505b5089888888604051602001620018a39897969594939291906200415e565b6040516020818303038152906040529050896001600160a01b0316638e86139b6013600001600c9054906101000a90046001600160a01b03166001600160a01b031663c71249ab60038e6001600160a01b031663aab9edd66040518163ffffffff1660e01b8152600401602060405180830381865afa1580156200192b573d6000803e3d6000fd5b505050506040513d601f19601f8201168201806040525081019062001951919062004215565b866040518463ffffffff1660e01b815260040162001972939291906200423a565b600060405180830381865afa15801562001990573d6000803e3d6000fd5b505050506040513d6000823e601f3d908101601f19168201604052620019ba919081019062004261565b6040518263ffffffff1660e01b8152600401620019d8919062003d56565b600060405180830381600087803b158015620019f357600080fd5b505af115801562001a08573d6000803e3d6000fd5b505060405163a9059cbb60e01b81526001600160a01b038d81166004830152602482018b90527f000000000000000000000000000000000000000000000000000000000000000016925063a9059cbb91506044016020604051808303816000875af115801562001a7c573d6000803e3d6000fd5b505050506040513d601f19601f8201168201806040525081019062001aa2919062004299565b50505050505050505050505050565b60023360009081526019602052604090205460ff16600381111562001ada5762001ada62003890565b1415801562001b10575060033360009081526019602052604090205460ff16600381111562001b0d5762001b0d62003890565b14155b1562001b2f576040516303afbb0f60e21b815260040160405180910390fd5b600080808080808062001b45888a018a62004491565b965096509650965096509650965060005b875181101562001dc15760006001600160a01b031687828151811062001b805762001b8062003fcf565b6020026020010151606001516001600160a01b03160362001c605785818151811062001bb05762001bb062003fcf565b6020026020010151307f000000000000000000000000000000000000000000000000000000000000000060405162001be89062003505565b6001600160a01b03938416815291831660208301529091166040820152606001604051809103906000f08015801562001c25573d6000803e3d6000fd5b5087828151811062001c3b5762001c3b62003fcf565b6020026020010151606001906001600160a01b031690816001600160a01b0316815250505b62001d1888828151811062001c795762001c7962003fcf565b602002602001015188838151811062001c965762001c9662003fcf565b602002602001015187848151811062001cb35762001cb362003fcf565b602002602001015187858151811062001cd05762001cd062003fcf565b602002602001015187868151811062001ced5762001ced62003fcf565b602002602001015187878151811062001d0a5762001d0a62003fcf565b6020026020010151620024b5565b87818151811062001d2d5762001d2d62003fcf565b60200260200101517f74931a144e43a50694897f241d973aecb5024c0e910f9bb80a163ea3c1cf5a7188838151811062001d6b5762001d6b62003fcf565b602002602001015160a001513360405162001da49291906001600160601b039290921682526001600160a01b0316602082015260400190565b60405180910390a28062001db88162003ffb565b91505062001b56565b50505050505050505050565b600082815260046020908152604091829020825160e081018452815460ff81161515825263ffffffff6101008204811694830194909452600160281b810484169482018590526001600160a01b03600160481b9091041660608201526001909101546001600160601b038082166080840152600160601b82041660a0830152600160c01b9004821660c0820152911462001e7a57604051634e0041d160e11b815260040160405180910390fd5b818160a0015162001e8c9190620045c1565b600084815260046020526040902060010180546bffffffffffffffffffffffff60601b1916600160601b6001600160601b039384160217905560185462001ed69184169062003fe5565b6018556040516323b872dd60e01b81523360048201523060248201526001600160601b03831660448201527f00000000000000000000000000000000000000000000000000000000000000006001600160a01b0316906323b872dd906064016020604051808303816000875af115801562001f55573d6000803e3d6000fd5b505050506040513d601f19601f8201168201806040525081019062001f7b919062004299565b506040516001600160601b0383168152339084907fafd24114486da8ebfc32f3626dada8863652e187461aa74d4bfa7348915062039060200160405180910390a3505050565b6000818152600460209081526040808320815160e081018352815460ff81161515825263ffffffff6101008204811695830195909552600160281b810485169382018490526001600160a01b03600160481b9091041660608201526001909101546001600160601b038082166080840152600160601b82041660a0830152600160c01b9004831660c08201529291141590620020656000546001600160a01b031690565b6001600160a01b0316336001600160a01b0316149050818015620020a65750808015620020a457506200209762002bc2565b836040015163ffffffff16115b155b15620020c557604051631f7806af60e31b815260040160405180910390fd5b80158015620020eb57506000848152600560205260409020546001600160a01b03163314155b156200210a57604051637dedc72b60e11b815260040160405180910390fd5b60006200211662002bc2565b9050816200212e576200212b60328262003fe5565b90505b6000858152600460205260409020805463ffffffff808416600160281b0268ffffffff000000000019909216919091179091556200217290600290879062002bb416565b5060135460808501516001600160601b039182169160009116821115620021cc576080860151620021a49083620045e4565b90508560a001516001600160601b0316816001600160601b03161115620021cc575060a08501515b808660a00151620021de9190620045e4565b600088815260046020526040902060010180546bffffffffffffffffffffffff60601b1916600160601b6001600160601b03938416021790556014546200222891839116620045c1565b601480546bffffffffffffffffffffffff19166001600160601b03929092169190911790556040516001600160401b0384169088907f91cb3bb75cfbd718bbfccc56b7f53d92d7048ef4ca39a3b7b7c6d4af1f79118190600090a350505050505050565b600060606000806200229d62002735565b6000634b56a42e60e01b888888604051602401620022be9392919062004607565b60408051601f198184030181529190526020810180516001600160e01b03166001600160e01b0319909316929092179091529050620022fe8982620005e4565b929c919b50995090975095505050505050565b6200231b62002c71565b620023268162002cc6565b50565b60006060600080600080600062002350886040518060200160405280600081525062000904565b959e949d50929b5090995097509550909350915050565b6001600160a01b038116600090815260018301602052604081205415155b90505b92915050565b6000806000620023b56001620023a362002bc2565b620023af919062003db6565b62002d71565b6014546040805160208101939093523090830152600160a01b900463ffffffff16606082015260800160408051601f198184030181528282528051602091820120908301520160408051601f19818403018152919052905060045b600f8110156200245c578282828151811062002430576200243062003fcf565b60200101906001600160f81b031916908160001a90535080620024538162003ffb565b91505062002410565b5083600181111562002472576200247262003890565b60f81b81600f815181106200248b576200248b62003fcf565b60200101906001600160f81b031916908160001a905350620024ad816200463b565b949350505050565b601254600160701b900460ff1615620024e1576040516309148bcd60e21b815260040160405180910390fd5b601554835163ffffffff90911610156200250e5760405163ae7235df60e01b815260040160405180910390fd5b6108fc856020015163ffffffff1610806200253f5750601454602086015163ffffffff600160801b90920482169116115b156200255e576040516314c237fb60e01b815260040160405180910390fd5b600086815260046020526040902054600160481b90046001600160a01b0316156200259c57604051636e3b930b60e01b815260040160405180910390fd5b6000868152600460209081526040808320885181548a8501518b85015160608d015164ffffffffff1990931693151564ffffffff0019169390931761010063ffffffff928316021765010000000000600160e81b031916600160281b938216939093027fffffff0000000000000000000000000000000000000000ffffffffffffffffff1692909217600160481b6001600160a01b039283160217835560808b01516001909301805460a08d015160c08e01516001600160601b039687166001600160c01b031990931692909217600160601b96909116959095029490941763ffffffff60c01b1916600160c01b9490931693909302919091179091556005835281842080546001600160a01b03191691891691909117905560079091529020620026c8848262004660565b508460a001516001600160601b0316601854620026e6919062003fe5565b6018556000868152601a6020526040902062002703838262004660565b506000868152601b602052604090206200271e828262004660565b506200272c60028762002eb3565b50505050505050565b3215620027555760405163b60ac5db60e01b815260040160405180910390fd5b565b6000818152600560205260409020546001600160a01b031633146200278f5760405163523e0b8360e11b815260040160405180910390fd5b600081815260046020526040902054600160281b900463ffffffff908116146200232657604051634e0041d160e11b815260040160405180910390fd5b6000818160045b600f81101562002831576001600160f81b03198216838260208110620027fd57620027fd62003fcf565b1a60f81b6001600160f81b031916146200281c57506000949350505050565b80620028288162003ffb565b915050620027d3565b5081600f1a6001811115620024ad57620024ad62003890565b6000806000836060015162ffffff1690506000808263ffffffff161190506000807f00000000000000000000000000000000000000000000000000000000000000006001600160a01b031663feaf968c6040518163ffffffff1660e01b815260040160a060405180830381865afa158015620028ca573d6000803e3d6000fd5b505050506040513d601f19601f82011682018060405250810190620028f0919062004747565b50945090925050506000811315806200290857508142105b806200292d57508280156200292d575062002924824262003db6565b8463ffffffff16105b156200293e57601654955062002942565b8095505b7f00000000000000000000000000000000000000000000000000000000000000006001600160a01b031663feaf968c6040518163ffffffff1660e01b815260040160a060405180830381865afa158015620029a1573d6000803e3d6000fd5b505050506040513d601f19601f82011682018060405250810190620029c7919062004747565b5094509092505050600081131580620029df57508142105b8062002a04575082801562002a045750620029fb824262003db6565b8463ffffffff16105b1562002a1557601754945062002a19565b8094505b50505050915091565b60008062002a3688878b6000015162002ec1565b905060008062002a538b8a63ffffffff16858a8a60018b62002f60565b909250905062002a648183620045c1565b9b9a5050505050505050505050565b6060600083600181111562002a8c5762002a8c62003890565b0362002af557600084815260076020526040908190209051636e04ff0d60e01b9162002abb9160240162004821565b60408051601f198184030181529190526020810180516001600160e01b03166001600160e01b031990931692909217909152905062002bad565b600183600181111562002b0c5762002b0c62003890565b0362002b945760008280602001905181019062002b2a919062004898565b60008681526007602052604090819020905191925063101a476d60e21b9162002b58918491602401620049ab565b60408051601f198184030181529190526020810180516001600160e01b03166001600160e01b031990931692909217909152915062002bad9050565b6040516379596a0960e11b815260040160405180910390fd5b9392505050565b6000620023858383620033a8565b600060017f0000000000000000000000000000000000000000000000000000000000000000600281111562002bfb5762002bfb62003890565b0362002c6c5760646001600160a01b031663a3b1b31d6040518163ffffffff1660e01b8152600401602060405180830381865afa15801562002c41573d6000803e3d6000fd5b505050506040513d601f19601f8201168201806040525081019062002c67919062004a47565b905090565b504390565b6000546001600160a01b03163314620027555760405162461bcd60e51b815260206004820152601660248201527527b7363c9031b0b63630b1363290313c9037bbb732b960511b604482015260640162000fce565b336001600160a01b0382160362002d205760405162461bcd60e51b815260206004820152601760248201527f43616e6e6f74207472616e7366657220746f2073656c66000000000000000000604482015260640162000fce565b600180546001600160a01b0319166001600160a01b0383811691821790925560008054604051929316917fed8889f560326eb138920d842192f0eb3dd22b4f139c87a2c57538e05bae12789190a350565b600060017f0000000000000000000000000000000000000000000000000000000000000000600281111562002daa5762002daa62003890565b0362002ea957600060646001600160a01b031663a3b1b31d6040518163ffffffff1660e01b8152600401602060405180830381865afa15801562002df2573d6000803e3d6000fd5b505050506040513d601f19601f8201168201806040525081019062002e18919062004a47565b9050808310158062002e36575061010062002e34848362003db6565b115b1562002e455750600092915050565b6040516315a03d4160e11b815260048101849052606490632b407a8290602401602060405180830381865afa15801562002e83573d6000803e3d6000fd5b505050506040513d601f19601f8201168201806040525081019062002bad919062004a47565b504090565b919050565b6000620023858383620034b3565b6000808085600181111562002eda5762002eda62003890565b0362002eeb575062015f9062002f0e565b600185600181111562002f025762002f0262003890565b0362002b9457506201adb05b62002f2163ffffffff8516601462004a61565b62002f2e84600162004a83565b62002f3f9060ff16611d4c62004a61565b62002f4b908362003fe5565b62002f57919062003fe5565b95945050505050565b6000806000896080015161ffff168762002f7b919062004a61565b905083801562002f8a5750803a105b1562002f9357503a5b600060027f0000000000000000000000000000000000000000000000000000000000000000600281111562002fcc5762002fcc62003890565b0362003116576040805160008152602081019091528515620030305760003660405180608001604052806048815260200162004f0460489139604051602001620030199392919062004a9f565b60405160208183030381529060405290506200309d565b6015546200304e90640100000000900463ffffffff16600462004ac8565b63ffffffff166001600160401b038111156200306e576200306e620035ed565b6040519080825280601f01601f19166020018201604052801562003099576020820181803683370190505b5090505b6040516324ca470760e11b8152600f602160991b01906349948e0e90620030c990849060040162003d56565b602060405180830381865afa158015620030e7573d6000803e3d6000fd5b505050506040513d601f19601f820116820180604052508101906200310d919062004a47565b91505062003266565b60017f000000000000000000000000000000000000000000000000000000000000000060028111156200314d576200314d62003890565b0362003266578415620031c857606c6001600160a01b031663c6f7de0e6040518163ffffffff1660e01b8152600401602060405180830381865afa1580156200319a573d6000803e3d6000fd5b505050506040513d601f19601f82011682018060405250810190620031c0919062004a47565b905062003266565b6000606c6001600160a01b03166341b247a86040518163ffffffff1660e01b815260040160c060405180830381865afa1580156200320a573d6000803e3d6000fd5b505050506040513d601f19601f8201168201806040525081019062003230919062004af7565b50506015549294506200325593505050640100000000900463ffffffff168262004a61565b6200326290601062004a61565b9150505b846200328557808b6080015161ffff1662003282919062004a61565b90505b6200329561ffff87168262004b42565b905060008782620032a78c8e62003fe5565b620032b3908662004a61565b620032bf919062003fe5565b620032d390670de0b6b3a764000062004a61565b620032df919062004b42565b905060008c6040015163ffffffff1664e8d4a5100062003300919062004a61565b898e6020015163ffffffff16858f886200331b919062004a61565b62003327919062003fe5565b6200333790633b9aca0062004a61565b62003343919062004a61565b6200334f919062004b42565b6200335b919062003fe5565b90506b033b2e3c9fd0803ce800000062003376828462003fe5565b1115620033965760405163156baa3d60e11b815260040160405180910390fd5b909c909b509950505050505050505050565b60008181526001830160205260408120548015620034a1576000620033cf60018362003db6565b8554909150600090620033e59060019062003db6565b90508181146200345157600086600001828154811062003409576200340962003fcf565b90600052602060002001549050808760000184815481106200342f576200342f62003fcf565b6000918252602080832090910192909255918252600188019052604090208390555b855486908062003465576200346562004b65565b60019003818190600052602060002001600090559055856001016000868152602001908152602001600020600090556001935050505062002388565b600091505062002388565b5092915050565b6000818152600183016020526040812054620034fc5750815460018181018455600084815260208082209093018490558454848252828601909352604090209190915562002388565b50600062002388565b6103888062004b7c83390190565b508054620035219062003e73565b6000825580601f1062003532575050565b601f0160209004906000526020600020908101906200232691905b808211156200356357600081556001016200354d565b5090565b6001600160a01b03811681146200232657600080fd5b803563ffffffff8116811462002eae57600080fd5b80356002811062002eae57600080fd5b60008083601f840112620035b557600080fd5b5081356001600160401b03811115620035cd57600080fd5b602083019150836020828501011115620035e657600080fd5b9250929050565b634e487b7160e01b600052604160045260246000fd5b60405160e081016001600160401b0381118282101715620036285762003628620035ed565b60405290565b60405161010081016001600160401b0381118282101715620036285762003628620035ed565b604051601f8201601f191681016001600160401b03811182821017156200367f576200367f620035ed565b604052919050565b60006001600160401b03821115620036a357620036a3620035ed565b50601f01601f191660200190565b600082601f830112620036c357600080fd5b8135620036da620036d48262003687565b62003654565b818152846020838601011115620036f057600080fd5b816020850160208301376000918101602001919091529392505050565b60008060008060008060008060e0898b0312156200372a57600080fd5b8835620037378162003567565b97506200374760208a016200357d565b96506040890135620037598162003567565b95506200376960608a0162003592565b945060808901356001600160401b03808211156200378657600080fd5b620037948c838d01620035a2565b909650945060a08b0135915080821115620037ae57600080fd5b620037bc8c838d01620036b1565b935060c08b0135915080821115620037d357600080fd5b50620037e28b828c01620036b1565b9150509295985092959890939650565b600080604083850312156200380657600080fd5b8235915060208301356001600160401b038111156200382457600080fd5b6200383285828601620036b1565b9150509250929050565b60005b83811015620038595781810151838201526020016200383f565b50506000910152565b600081518084526200387c8160208601602086016200383c565b601f01601f19169290920160200192915050565b634e487b7160e01b600052602160045260246000fd5b600a8110620038c557634e487b7160e01b600052602160045260246000fd5b9052565b8415158152608060208201526000620038e6608083018662003862565b9050620038f76040830185620038a6565b82606083015295945050505050565b6000806000604084860312156200391c57600080fd5b8335925060208401356001600160401b038111156200393a57600080fd5b6200394886828701620035a2565b9497909650939450505050565b600080600080600080600060a0888a0312156200397157600080fd5b87356200397e8162003567565b96506200398e602089016200357d565b95506040880135620039a08162003567565b945060608801356001600160401b0380821115620039bd57600080fd5b620039cb8b838c01620035a2565b909650945060808a0135915080821115620039e557600080fd5b50620039f48a828b01620035a2565b989b979a50959850939692959293505050565b871515815260e06020820152600062003a2460e083018962003862565b905062003a356040830188620038a6565b8560608301528460808301528360a08301528260c083015298975050505050505050565b60008060006040848603121562003a6f57600080fd5b83356001600160401b038082111562003a8757600080fd5b818601915086601f83011262003a9c57600080fd5b81358181111562003aac57600080fd5b8760208260051b850101111562003ac257600080fd5b6020928301955093505084013562003ada8162003567565b809150509250925092565b6000806020838503121562003af957600080fd5b82356001600160401b0381111562003b1057600080fd5b62003b1e85828601620035a2565b90969095509350505050565b80356001600160601b038116811462002eae57600080fd5b6000806040838503121562003b5657600080fd5b8235915062003b686020840162003b2a565b90509250929050565b60006020828403121562003b8457600080fd5b5035919050565b60006001600160401b0382111562003ba75762003ba7620035ed565b5060051b60200190565b600082601f83011262003bc357600080fd5b8135602062003bd6620036d48362003b8b565b82815260059290921b8401810191818101908684111562003bf657600080fd5b8286015b8481101562003c3a5780356001600160401b0381111562003c1b5760008081fd5b62003c2b8986838b0101620036b1565b84525091830191830162003bfa565b509695505050505050565b6000806000806060858703121562003c5c57600080fd5b8435935060208501356001600160401b038082111562003c7b57600080fd5b62003c898883890162003bb1565b9450604087013591508082111562003ca057600080fd5b5062003caf87828801620035a2565b95989497509550505050565b60006020828403121562003cce57600080fd5b813562002bad8162003567565b634e487b7160e01b600052601160045260246000fd5b600063ffffffff80831681810362003d0d5762003d0d62003cdb565b6001019392505050565b81835281816020850137506000828201602090810191909152601f909101601f19169091010190565b602081526000620024ad60208301848662003d17565b60208152600062002385602083018462003862565b805162002eae8162003567565b60006020828403121562003d8b57600080fd5b815162002bad8162003567565b6000825162003dac8184602087016200383c565b9190910192915050565b8181038181111562002388576200238862003cdb565b80151581146200232657600080fd5b600082601f83011262003ded57600080fd5b815162003dfe620036d48262003687565b81815284602083860101111562003e1457600080fd5b620024ad8260208301602087016200383c565b6000806040838503121562003e3b57600080fd5b825162003e488162003dcc565b60208401519092506001600160401b0381111562003e6557600080fd5b620038328582860162003ddb565b600181811c9082168062003e8857607f821691505b60208210810362003ea957634e487b7160e01b600052602260045260246000fd5b50919050565b601f82111562003efd57600081815260208120601f850160051c8101602086101562003ed85750805b601f850160051c820191505b8181101562003ef95782815560010162003ee4565b5050505b505050565b6001600160401b0383111562003f1c5762003f1c620035ed565b62003f348362003f2d835462003e73565b8362003eaf565b6000601f84116001811462003f6b576000851562003f525750838201355b600019600387901b1c1916600186901b17835562003fc8565b600083815260209020601f19861690835b8281101562003f9e578685013582556020948501946001909201910162003f7c565b508682101562003fbc5760001960f88860031b161c19848701351681555b505060018560011b0183555b5050505050565b634e487b7160e01b600052603260045260246000fd5b8082018082111562002388576200238862003cdb565b60006001820162004010576200401062003cdb565b5060010190565b600081518084526020808501945080840160005b83811015620040bf5781518051151588528381015163ffffffff908116858a0152604080830151909116908901526060808201516001600160a01b0316908901526080808201516001600160601b03169089015260a0808201516200409a828b01826001600160601b03169052565b505060c09081015163ffffffff169088015260e090960195908201906001016200402b565b509495945050505050565b600081518084526020808501945080840160005b83811015620040bf5781516001600160a01b031687529582019590820190600101620040de565b600081518084526020808501808196508360051b8101915082860160005b85811015620041515782840389526200413e84835162003862565b9885019893509084019060010162004123565b5091979650505050505050565b60e0808252810188905260006101006001600160fb1b038a11156200418257600080fd5b8960051b808c83860137830183810382016020850152620041a68282018b62004017565b9150508281036040840152620041bd8189620040ca565b90508281036060840152620041d38188620040ca565b90508281036080840152620041e9818762004105565b905082810360a0840152620041ff818662004105565b905082810360c084015262002a64818562004105565b6000602082840312156200422857600080fd5b815160ff8116811462002bad57600080fd5b60ff8416815260ff8316602082015260606040820152600062002f57606083018462003862565b6000602082840312156200427457600080fd5b81516001600160401b038111156200428b57600080fd5b620024ad8482850162003ddb565b600060208284031215620042ac57600080fd5b815162002bad8162003dcc565b600082601f830112620042cb57600080fd5b81356020620042de620036d48362003b8b565b82815260059290921b84018101918181019086841115620042fe57600080fd5b8286015b8481101562003c3a578035835291830191830162004302565b600082601f8301126200432d57600080fd5b8135602062004340620036d48362003b8b565b82815260e092830285018201928282019190878511156200436057600080fd5b8387015b85811015620044175781818a0312156200437e5760008081fd5b6200438862003603565b8135620043958162003dcc565b8152620043a48287016200357d565b868201526040620043b78184016200357d565b90820152606082810135620043cc8162003567565b908201526080620043df83820162003b2a565b9082015260a0620043f283820162003b2a565b9082015260c0620044058382016200357d565b90820152845292840192810162004364565b5090979650505050505050565b600082601f8301126200443657600080fd5b8135602062004449620036d48362003b8b565b82815260059290921b840181019181810190868411156200446957600080fd5b8286015b8481101562003c3a578035620044838162003567565b83529183019183016200446d565b600080600080600080600060e0888a031215620044ad57600080fd5b87356001600160401b0380821115620044c557600080fd5b620044d38b838c01620042b9565b985060208a0135915080821115620044ea57600080fd5b620044f88b838c016200431b565b975060408a01359150808211156200450f57600080fd5b6200451d8b838c0162004424565b965060608a01359150808211156200453457600080fd5b620045428b838c0162004424565b955060808a01359150808211156200455957600080fd5b620045678b838c0162003bb1565b945060a08a01359150808211156200457e57600080fd5b6200458c8b838c0162003bb1565b935060c08a0135915080821115620045a357600080fd5b50620045b28a828b0162003bb1565b91505092959891949750929550565b6001600160601b03818116838216019080821115620034ac57620034ac62003cdb565b6001600160601b03828116828216039080821115620034ac57620034ac62003cdb565b6040815260006200461c604083018662004105565b82810360208401526200463181858762003d17565b9695505050505050565b8051602080830151919081101562003ea95760001960209190910360031b1b16919050565b81516001600160401b038111156200467c576200467c620035ed565b62004694816200468d845462003e73565b8462003eaf565b602080601f831160018114620046cc5760008415620046b35750858301515b600019600386901b1c1916600185901b17855562003ef9565b600085815260208120601f198616915b82811015620046fd57888601518255948401946001909101908401620046dc565b50858210156200471c5787850151600019600388901b60f8161c191681555b5050505050600190811b01905550565b805169ffffffffffffffffffff8116811462002eae57600080fd5b600080600080600060a086880312156200476057600080fd5b6200476b866200472c565b945060208601519350604086015192506060860151915062004790608087016200472c565b90509295509295909350565b60008154620047ab8162003e73565b808552602060018381168015620047cb5760018114620047e65762004816565b60ff1985168884015283151560051b88018301955062004816565b866000528260002060005b858110156200480e5781548a8201860152908301908401620047f1565b890184019650505b505050505092915050565b6020815260006200238560208301846200479c565b600082601f8301126200484857600080fd5b815160206200485b620036d48362003b8b565b82815260059290921b840181019181810190868411156200487b57600080fd5b8286015b8481101562003c3a57805183529183019183016200487f565b600060208284031215620048ab57600080fd5b81516001600160401b0380821115620048c357600080fd5b908301906101008286031215620048d957600080fd5b620048e36200362e565b82518152602083015160208201526040830151604082015260608301516060820152608083015160808201526200491d60a0840162003d6b565b60a082015260c0830151828111156200493557600080fd5b620049438782860162004836565b60c08301525060e0830151828111156200495c57600080fd5b6200496a8782860162003ddb565b60e08301525095945050505050565b600081518084526020808501945080840160005b83811015620040bf578151875295820195908201906001016200498d565b60408152825160408201526020830151606082015260408301516080820152606083015160a0820152608083015160c082015260018060a01b0360a08401511660e0820152600060c084015161010080818501525062004a1061014084018262004979565b905060e0850151603f198483030161012085015262004a30828262003862565b915050828103602084015262002f5781856200479c565b60006020828403121562004a5a57600080fd5b5051919050565b600081600019048311821515161562004a7e5762004a7e62003cdb565b500290565b60ff818116838216019081111562002388576200238862003cdb565b82848237600083820160008152835162004abe8183602088016200383c565b0195945050505050565b600063ffffffff8083168185168183048111821515161562004aee5762004aee62003cdb565b02949350505050565b60008060008060008060c0878903121562004b1157600080fd5b865195506020870151945060408701519350606087015192506080870151915060a087015190509295509295509295565b60008262004b6057634e487b7160e01b600052601260045260246000fd5b500490565b634e487b7160e01b600052603160045260246000fdfe60c060405234801561001057600080fd5b5060405161038838038061038883398101604081905261002f91610076565b600080546001600160a01b0319166001600160a01b039384161790559181166080521660a0526100b9565b80516001600160a01b038116811461007157600080fd5b919050565b60008060006060848603121561008b57600080fd5b6100948461005a565b92506100a26020850161005a565b91506100b06040850161005a565b90509250925092565b60805160a0516102a66100e26000396000603801526000818160b7015260fd01526102a66000f3fe608060405234801561001057600080fd5b50600436106100365760003560e01c806379188d161461007b578063f00e6a2a146100aa575b7f00000000000000000000000000000000000000000000000000000000000000003660008037600080366000845af43d6000803e808015610076573d6000f35b3d6000fd5b61008e61008936600461018e565b6100e1565b6040805192151583526020830191909152015b60405180910390f35b6040516001600160a01b037f00000000000000000000000000000000000000000000000000000000000000001681526020016100a1565b6000805481906001600160a01b031633146100fb57600080fd5b7f00000000000000000000000000000000000000000000000000000000000000005a91505a61138881101561012f57600080fd5b61138881039050856040820482031161014757600080fd5b50803b61015357600080fd5b6000808551602087016000858af192505a61016e9083610249565b9150509250929050565b634e487b7160e01b600052604160045260246000fd5b600080604083850312156101a157600080fd5b82359150602083013567ffffffffffffffff808211156101c057600080fd5b818501915085601f8301126101d457600080fd5b8135818111156101e6576101e6610178565b604051601f8201601f19908116603f0116810190838211818310171561020e5761020e610178565b8160405282815288602084870101111561022757600080fd5b8260208601602083013760006020848301015280955050505050509250929050565b8181038181111561026a57634e487b7160e01b600052601160045260246000fd5b9291505056fea2646970667358221220de30ad2399e838e8728c2c9ed31584e7cc0e1e2fbb2718a6fdd50eaaa61b20b864736f6c63430008100033307866666666666666666666666666666666666666666666666666666666666666666666666666666666666666666666666666666666666666666666666666666666666666666666a264697066735822122004e57f4697cc3f8ee1e2d6dc6ee0c8a44f3c754840e423a383585646064f650964736f6c63430008100033","linkReferences":{}},"methodIdentifiers":{"acceptOwnership()":"79ba5097","addFunds(uint256,uint96)":"948108f7","cancelUpkeep(uint256)":"c8048022","checkCallback(uint256,bytes[],bytes)":"ce7dc5b4","checkUpkeep(uint256)":"f7d334ba","checkUpkeep(uint256,bytes)":"71791aa0","executeCallback(uint256,bytes)":"29c5efad","fallbackTo()":"349e8cca","migrateUpkeeps(uint256[],address)":"85c1b0ba","owner()":"8da5cb5b","receiveUpkeeps(bytes)":"8e86139b","registerUpkeep(address,uint32,address,bytes,bytes)":"6ded9eae","registerUpkeep(address,uint32,address,uint8,bytes,bytes,bytes)":"28f32f38","setUpkeepTriggerConfig(uint256,bytes)":"4ee88d35","transferOwnership(address)":"f2fde38b"},"id":23}