{"abi":[{"type":"constructor","inputs":[{"name":"LINKAddress","type":"address","internalType":"address"},{"name":"autoApproveConfigType","type":"uint8","internalType":"enum KeeperRegistrar2_0.AutoApproveType"},{"name":"autoApproveMaxAllowed","type":"uint16","internalType":"uint16"},{"name":"keeperRegistry","type":"address","internalType":"address"},{"name":"minLINKJuels","type":"uint96","internalType":"uint96"}],"stateMutability":"nonpayable"},{"type":"function","name":"LINK","inputs":[],"outputs":[{"name":"","type":"address","internalType":"contract LinkTokenInterface"}],"stateMutability":"view"},{"type":"function","name":"acceptOwnership","inputs":[],"outputs":[],"stateMutability":"nonpayable"},{"type":"function","name":"approve","inputs":[{"name":"name","type":"string","internalType":"string"},{"name":"upkeepContract","type":"address","internalType":"address"},{"name":"gasLimit","type":"uint32","internalType":"uint32"},{"name":"adminAddress","type":"address","internalType":"address"},{"name":"checkData","type":"bytes","internalType":"bytes"},{"name":"offchainConfig","type":"bytes","internalType":"bytes"},{"name":"hash","type":"bytes32","internalType":"bytes32"}],"outputs":[],"stateMutability":"nonpayable"},{"type":"function","name":"cancel","inputs":[{"name":"hash","type":"bytes32","internalType":"bytes32"}],"outputs":[],"stateMutability":"nonpayable"},{"type":"function","name":"getAutoApproveAllowedSender","inputs":[{"name":"senderAddress","type":"address","internalType":"address"}],"outputs":[{"name":"","type":"bool","internalType":"bool"}],"stateMutability":"view"},{"type":"function","name":"getPendingRequest","inputs":[{"name":"hash","type":"bytes32","internalType":"bytes32"}],"outputs":[{"name":"","type":"address","internalType":"address"},{"name":"","type":"uint96","internalType":"uint96"}],"stateMutability":"view"},{"type":"function","name":"getRegistrationConfig","inputs":[],"outputs":[{"name":"autoApproveConfigType","type":"uint8","internalType":"enum KeeperRegistrar2_0.AutoApproveType"},{"name":"autoApproveMaxAllowed","type":"uint32","internalType":"uint32"},{"name":"approvedCount","type":"uint32","internalType":"uint32"},{"name":"keeperRegistry","type":"address","internalType":"address"},{"name":"minLINKJuels","type":"uint256","internalType":"uint256"}],"stateMutability":"view"},{"type":"function","name":"onTokenTransfer","inputs":[{"name":"sender","type":"address","internalType":"address"},{"name":"amount","type":"uint256","internalType":"uint256"},{"name":"data","type":"bytes","internalType":"bytes"}],"outputs":[],"stateMutability":"nonpayable"},{"type":"function","name":"owner","inputs":[],"outputs":[{"name":"","type":"address","internalType":"address"}],"stateMutability":"view"},{"type":"function","name":"register","inputs":[{"name":"name","type":"string","internalType":"string"},{"name":"encryptedEmail","type":"bytes","internalType":"bytes"},{"name":"upkeepContract","type":"address","internalType":"address"},{"name":"gasLimit","type":"uint32","internalType":"uint32"},{"name":"adminAddress","type":"address","internalType":"address"},{"name":"checkData","type":"bytes","internalType":"bytes"},{"name":"offchainConfig","type":"bytes","internalType":"bytes"},{"name":"amount","type":"uint96","internalType":"uint96"},{"name":"sender","type":"address","internalType":"address"}],"outputs":[],"stateMutability":"nonpayable"},{"type":"function","name":"registerUpkeep","inputs":[{"name":"requestParams","type":"tuple","internalType":"struct KeeperRegistrar2_0.RegistrationParams","components":[{"name":"name","type":"string","internalType":"string"},{"name":"encryptedEmail","type":"bytes","internalType":"bytes"},{"name":"upkeepContract","type":"address","internalType":"address"},{"name":"gasLimit","type":"uint32","internalType":"uint32"},{"name":"adminAddress","type":"address","internalType":"address"},{"name":"checkData","type":"bytes","internalType":"bytes"},{"name":"offchainConfig","type":"bytes","internalType":"bytes"},{"name":"amount","type":"uint96","internalType":"uint96"}]}],"outputs":[{"name":"","type":"uint256","internalType":"uint256"}],"stateMutability":"nonpayable"},{"type":"function","name":"setAutoApproveAllowedSender","inputs":[{"name":"senderAddress","type":"address","internalType":"address"},{"name":"allowed","type":"bool","internalType":"bool"}],"outputs":[],"stateMutability":"nonpayable"},{"type":"function","name":"setRegistrationConfig","inputs":[{"name":"autoApproveConfigType","type":"uint8","internalType":"enum KeeperRegistrar2_0.AutoApproveType"},{"name":"autoApproveMaxAllowed","type":"uint16","internalType":"uint16"},{"name":"keeperRegistry","type":"address","internalType":"address"},{"name":"minLINKJuels","type":"uint96","internalType":"uint96"}],"outputs":[],"stateMutability":"nonpayable"},{"type":"function","name":"transferOwnership","inputs":[{"name":"to","type":"address","internalType":"address"}],"outputs":[],"stateMutability":"nonpayable"},{"type":"function","name":"typeAndVersion","inputs":[],"outputs":[{"name":"","type":"string","internalType":"string"}],"stateMutability":"view"},{"type":"event","name":"AutoApproveAllowedSenderSet","inputs":[{"name":"senderAddress","type":"address","indexed":true,"internalType":"address"},{"name":"allowed","type":"bool","indexed":false,"internalType":"bool"}],"anonymous":false},{"type":"event","name":"ConfigChanged","inputs":[{"name":"autoApproveConfigType","type":"uint8","indexed":false,"internalType":"enum KeeperRegistrar2_0.AutoApproveType"},{"name":"autoApproveMaxAllowed","type":"uint32","indexed":false,"internalType":"uint32"},{"name":"keeperRegistry","type":"address","indexed":false,"internalType":"address"},{"name":"minLINKJuels","type":"uint96","indexed":false,"internalType":"uint96"}],"anonymous":false},{"type":"event","name":"OwnershipTransferRequested","inputs":[{"name":"from","type":"address","indexed":true,"internalType":"address"},{"name":"to","type":"address","indexed":true,"internalType":"address"}],"anonymous":false},{"type":"event","name":"OwnershipTransferred","inputs":[{"name":"from","type":"address","indexed":true,"internalType":"address"},{"name":"to","type":"address","indexed":true,"internalType":"address"}],"anonymous":false},{"type":"event","name":"RegistrationApproved","inputs":[{"name":"hash","type":"bytes32","indexed":true,"internalType":"bytes32"},{"name":"displayName","type":"string","indexed":false,"internalType":"string"},{"name":"upkeepId","type":"uint256","indexed":true,"internalType":"uint256"}],"anonymous":false},{"type":"event","name":"RegistrationRejected","inputs":[{"name":"hash","type":"bytes32","indexed":true,"internalType":"bytes32"}],"anonymous":false},{"type":"event","name":"RegistrationRequested","inputs":[{"name":"hash","type":"bytes32","indexed":true,"internalType":"bytes32"},{"name":"name","type":"string","indexed":false,"internalType":"string"},{"name":"encryptedEmail","type":"bytes","indexed":false,"internalType":"bytes"},{"name":"upkeepContract","type":"address","indexed":true,"internalType":"address"},{"name":"gasLimit","type":"uint32","indexed":false,"internalType":"uint32"},{"name":"adminAddress","type":"address","indexed":false,"internalType":"address"},{"name":"checkData","type":"bytes","indexed":false,"internalType":"bytes"},{"name":"amount","type":"uint96","indexed":false,"internalType":"uint96"}],"anonymous":false},{"type":"error","name":"AmountMismatch","inputs":[]},{"type":"error","name":"FunctionNotPermitted","inputs":[]},{"type":"error","name":"HashMismatch","inputs":[]},{"type":"error","name":"InsufficientPayment","inputs":[]},{"type":"error","name":"InvalidAdminAddress","inputs":[]},{"type":"error","name":"InvalidDataLength","inputs":[]},{"type":"error","name":"LinkTransferFailed","inputs":[{"name":"to","type":"address","internalType":"address"}]},{"type":"error","name":"OnlyAdminOrOwner","inputs":[]},{"type":"error","name":"OnlyLink","inputs":[]},{"type":"error","name":"RegistrationRequestFailed","inputs":[]},{"type":"error","name":"RequestNotFound","inputs":[]},{"type":"error","name":"SenderMismatch","inputs":[]}],"bytecode":{"object":"0x60a06040523480156200001157600080fd5b506040516200240b3803806200240b833981016040819052620000349162000394565b33806000816200008b5760405162461bcd60e51b815260206004820152601860248201527f43616e6e6f7420736574206f776e657220746f207a65726f000000000000000060448201526064015b60405180910390fd5b600080546001600160a01b0319166001600160a01b0384811691909117909155811615620000be57620000be81620000ec565b5050506001600160601b0319606086901b16608052620000e18484848462000198565b50505050506200048d565b6001600160a01b038116331415620001475760405162461bcd60e51b815260206004820152601760248201527f43616e6e6f74207472616e7366657220746f2073656c66000000000000000000604482015260640162000082565b600180546001600160a01b0319166001600160a01b0383811691821790925560008054604051929316917fed8889f560326eb138920d842192f0eb3dd22b4f139c87a2c57538e05bae12789190a350565b620001a262000319565b6003546040805160a081019091526501000000000090910463ffffffff169080866002811115620001d757620001d762000477565b815261ffff8616602082015263ffffffff831660408201526001600160a01b03851660608201526001600160601b038416608090910152805160038054909190829060ff1916600183600281111562000234576200023462000477565b0217905550602082015181546040808501516060860151610100600160481b031990931661010063ffffffff9586160263ffffffff60281b19161765010000000000949091169390930292909217600160481b600160e81b03191669010000000000000000006001600160a01b0390921691909102178255608090920151600190910180546001600160601b0319166001600160601b03909216919091179055517f6293a703ec7145dfa23c5cde2e627d6a02e153fc2e9c03b14d1e22cbb4a7e9cd906200030a90879087908790879062000422565b60405180910390a15050505050565b6000546001600160a01b03163314620003755760405162461bcd60e51b815260206004820152601660248201527f4f6e6c792063616c6c61626c65206279206f776e657200000000000000000000604482015260640162000082565b565b80516001600160a01b03811681146200038f57600080fd5b919050565b600080600080600060a08688031215620003ad57600080fd5b620003b88662000377565b9450602086015160038110620003cd57600080fd5b604087015190945061ffff81168114620003e657600080fd5b9250620003f66060870162000377565b60808701519092506001600160601b03811681146200041457600080fd5b809150509295509295909350565b60808101600386106200044557634e487b7160e01b600052602160045260246000fd5b94815261ffff9390931660208401526001600160a01b039190911660408301526001600160601b031660609091015290565b634e487b7160e01b600052602160045260246000fd5b60805160601c611f3c620004cf600039600081816101660152818161035f015281816107d501528181610a1401528181610db1015261121e0152611f3c6000f3fe608060405234801561001057600080fd5b50600436106100f55760003560e01c8063850af0cb11610097578063a611ea5611610066578063a611ea56146102c1578063a793ab8b146102d4578063c4d252f5146102e7578063f2fde38b146102fa57600080fd5b8063850af0cb1461020c57806388b12d55146102255780638da5cb5b1461029d578063a4c0ed36146102ae57600080fd5b8063367b9b4f116100d3578063367b9b4f146101a057806362105854146101b557806379ba5097146101c85780637e776f7f146101d057600080fd5b806308b79da4146100fa578063181f5a77146101205780631b6b6d2314610161575b600080fd5b61010d6101083660046119fd565b61030d565b6040519081526020015b60405180910390f35b6101546040518060400160405280601581526020017404b656570657252656769737472617220322e302e3605c1b81525081565b6040516101179190611c83565b6101887f000000000000000000000000000000000000000000000000000000000000000081565b6040516001600160a01b039091168152602001610117565b6101b36101ae3660046115cc565b610440565b005b6101b36101c33660046116fc565b6104a7565b6101b3610654565b6101fc6101de3660046115a8565b6001600160a01b031660009081526005602052604090205460ff1690565b6040519015158152602001610117565b610214610703565b604051610117959493929190611c40565b61027661023336600461167e565b6000908152600260209081526040918290208251808401909352546001600160a01b038116808452600160a01b9091046001600160601b03169290910182905291565b604080516001600160a01b0390931683526001600160601b03909116602083015201610117565b6000546001600160a01b0316610188565b6101b36102bc366004611605565b6107ca565b6101b36102cf3660046117d3565b610a09565b6101b36102e2366004611697565b610b63565b6101b36102f536600461167e565b610ced565b6101b36103083660046115a8565b610eb9565b6004546000906001600160601b031661032d610100840160e08501611a52565b6001600160601b031610156103555760405163cd1c886760e01b815260040160405180910390fd5b6001600160a01b037f0000000000000000000000000000000000000000000000000000000000000000166323b872dd3330610397610100870160e08801611a52565b6040516001600160e01b031960e086901b1681526001600160a01b0393841660048201529290911660248301526001600160601b03166044820152606401602060405180830381600087803b1580156103ef57600080fd5b505af1158015610403573d6000803e3d6000fd5b505050506040513d601f19601f820116820180604052508101906104279190611661565b5061043a61043483611da5565b33610ecd565b92915050565b610448611117565b6001600160a01b038216600081815260056020908152604091829020805460ff191685151590811790915591519182527f20c6237dac83526a849285a9f79d08a483291bdd3a056a0ef9ae94ecee1ad356910160405180910390a25050565b6104af611117565b6000818152600260209081526040918290208251808401909352546001600160a01b038116808452600160a01b9091046001600160601b03169183019190915261050c57604051632589d98f60e11b815260040160405180910390fd5b60008989898989898960405160200161052b9796959493929190611b15565b60405160208183030381529060405280519060200120905080831461056357604051633f4d605360e01b815260040160405180910390fd5b60008381526002602090815260408083208390558051610100810182528e815281518084018352938452808301939093526001600160a01b038d81168483015263ffffffff8d1660608501528b1660808401528051601f8a01839004830281018301909152888152610646929160a0830191908b908b9081908401838280828437600092019190915250505090825250604080516020601f8a01819004810282018101909252888152918101919089908990819084018382808284376000920191909152505050908252506020858101516001600160601b03169101528261116c565b505050505050505050505050565b6001546001600160a01b031633146106ac5760405162461bcd60e51b815260206004820152601660248201527526bab9ba10313290383937b837b9b2b21037bbb732b960511b60448201526064015b60405180910390fd5b60008054336001600160a01b0319808316821784556001805490911690556040516001600160a01b0390921692909183917f8be0079c531659141344cd1fd0a4f28419497f9722a3daafe3b4186f6b6457e091a350565b6040805160a081019091526003805460009283928392839283928392829060ff16600281111561073557610735611eb7565b600281111561074657610746611eb7565b81528154610100810463ffffffff908116602080850191909152600160281b8304909116604080850191909152600160481b9092046001600160a01b03166060808501919091526001909401546001600160601b0390811660809485015285519186015192860151948601519590930151909b919a50929850929650169350915050565b336001600160a01b037f000000000000000000000000000000000000000000000000000000000000000016146108125760405162c6885f60e11b815260040160405180910390fd5b81818080601f01602080910402602001604051908101604052809392919081815260200183838082843760009201919091525050505060208101516001600160e01b03198116635308f52b60e11b1461087e5760405163e3d6792160e01b815260040160405180910390fd5b84848460006108908260048186611d31565b81019061089d91906118fc565b50975050505050505050806001600160601b031684146108d0576040516355e97b0d60e01b815260040160405180910390fd5b89888860006108e28260048186611d31565b8101906108ef91906118fc565b98505050505050505050806001600160a01b0316846001600160a01b03161461092b57604051637c62b1c760e11b815260040160405180910390fd5b6101248b101561094e57604051630dfe930960e41b815260040160405180910390fd5b6004546001600160601b03168d101561097a5760405163cd1c886760e01b815260040160405180910390fd5b6000306001600160a01b03168d8d604051610996929190611b05565b600060405180830381855af49150503d80600081146109d1576040519150601f19603f3d011682016040523d82523d6000602084013e6109d6565b606091505b50509050806109f857604051630649bf8160e41b815260040160405180910390fd5b505050505050505050505050505050565b336001600160a01b037f00000000000000000000000000000000000000000000000000000000000000001614610a515760405162c6885f60e11b815260040160405180910390fd5b610b546040518061010001604052808e81526020018d8d8080601f0160208091040260200160405190810160405280939291908181526020018383808284376000920191909152505050908252506001600160a01b03808d1660208084019190915263ffffffff8d16604080850191909152918c1660608401528151601f8b018290048202810182019092528982526080909201918a908a9081908401838280828437600092019190915250505090825250604080516020601f8901819004810282018101909252878152918101919088908890819084018382808284376000920191909152505050908252506001600160601b03851660209091015282610ecd565b50505050505050505050505050565b610b6b611117565b6003546040805160a08101909152600160281b90910463ffffffff169080866002811115610b9b57610b9b611eb7565b815261ffff8616602082015263ffffffff831660408201526001600160a01b03851660608201526001600160601b038416608090910152805160038054909190829060ff19166001836002811115610bf557610bf5611eb7565b021790555060208201518154604080850151606086015168ffffffffffffffff001990931661010063ffffffff9586160268ffffffff0000000000191617600160281b9490911693909302929092177fffffff0000000000000000000000000000000000000000ffffffffffffffffff16600160481b6001600160a01b0390921691909102178255608090920151600190910180546bffffffffffffffffffffffff19166001600160601b03909216919091179055517f6293a703ec7145dfa23c5cde2e627d6a02e153fc2e9c03b14d1e22cbb4a7e9cd90610cde908790879087908790611c01565b60405180910390a15050505050565b6000818152600260209081526040918290208251808401909352546001600160a01b038116808452600160a01b9091046001600160601b031691830191909152331480610d4457506000546001600160a01b031633145b610d61576040516361685c2b60e01b815260040160405180910390fd5b80516001600160a01b0316610d8957604051632589d98f60e11b815260040160405180910390fd5b6000828152600260209081526040808320839055835191840151905163a9059cbb60e01b81527f00000000000000000000000000000000000000000000000000000000000000006001600160a01b03169263a9059cbb92610e09926004016001600160a01b039290921682526001600160601b0316602082015260400190565b602060405180830381600087803b158015610e2357600080fd5b505af1158015610e37573d6000803e3d6000fd5b505050506040513d601f19601f82011682018060405250810190610e5b9190611661565b905080610e8957815160405163185c9b9d60e31b81526001600160a01b0390911660048201526024016106a3565b60405183907f3663fb28ebc87645eb972c9dad8521bf665c623f287e79f1c56f1eb374b82a2290600090a2505050565b610ec1611117565b610eca81611354565b50565b60808201516000906001600160a01b0316610efb5760405163016ed19f60e21b815260040160405180910390fd5b60008360400151846060015185608001518660a001518760c00151604051602001610f2a959493929190611b6f565b60405160208183030381529060405280519060200120905083604001516001600160a01b0316817f9b8456f925542af2c5fb15ff4be32cc8f209dda96c544766e301367df40f499886600001518760200151886060015189608001518a60a001518b60e00151604051610fa296959493929190611c96565b60405180910390a36040805160a081019091526003805460009283929091829060ff166002811115610fd657610fd6611eb7565b6002811115610fe757610fe7611eb7565b8152815463ffffffff610100820481166020840152600160281b82041660408301526001600160a01b03600160481b9091041660608201526001909101546001600160601b0316608090910152905061104081866113fe565b1561108d576040810151611055906001611d5b565b6003805463ffffffff92909216600160281b0268ffffffff000000000019909216919091179055611086868461116c565b915061110e565b60e086015160008481526002602052604081205490916110bc91600160a01b90046001600160601b0316611d83565b60408051808201825260808a01516001600160a01b0390811682526001600160601b03938416602080840191825260008a815260029091529390932091519251909316600160a01b0291909216179055505b50949350505050565b6000546001600160a01b0316331461116a5760405162461bcd60e51b815260206004820152601660248201527527b7363c9031b0b63630b1363290313c9037bbb732b960511b60448201526064016106a3565b565b6003546040838101516060850151608086015160a087015160c088015194516336f6cf5760e11b8152600096600160481b90046001600160a01b03169587958795636ded9eae956111c69592949193909291600401611b6f565b602060405180830381600087803b1580156111e057600080fd5b505af11580156111f4573d6000803e3d6000fd5b505050506040513d601f19601f820116820180604052508101906112189190611a39565b905060007f00000000000000000000000000000000000000000000000000000000000000006001600160a01b0316634000aea0848860e001518560405160200161126491815260200190565b6040516020818303038152906040526040518463ffffffff1660e01b815260040161129193929190611bc5565b602060405180830381600087803b1580156112ab57600080fd5b505af11580156112bf573d6000803e3d6000fd5b505050506040513d601f19601f820116820180604052508101906112e39190611661565b90508061130e5760405163185c9b9d60e31b81526001600160a01b03841660048201526024016106a3565b81857fb9a292fb7e3edd920cd2d2829a3615a640c43fd7de0a0820aa0668feb4c37d4b88600001516040516113439190611c83565b60405180910390a350949350505050565b6001600160a01b0381163314156113ad5760405162461bcd60e51b815260206004820152601760248201527f43616e6e6f74207472616e7366657220746f2073656c6600000000000000000060448201526064016106a3565b600180546001600160a01b0319166001600160a01b0383811691821790925560008054604051929316917fed8889f560326eb138920d842192f0eb3dd22b4f139c87a2c57538e05bae12789190a350565b6000808351600281111561141457611414611eb7565b14156114225750600061043a565b60018351600281111561143757611437611eb7565b14801561145d57506001600160a01b03821660009081526005602052604090205460ff16155b1561146a5750600061043a565b826020015163ffffffff16836040015163ffffffff16101561148e5750600161043a565b50600092915050565b80356114a281611ee3565b919050565b60008083601f8401126114b957600080fd5b50813567ffffffffffffffff8111156114d157600080fd5b6020830191508360208285010111156114e957600080fd5b9250929050565b600082601f83011261150157600080fd5b813567ffffffffffffffff8082111561151c5761151c611ecd565b604051601f8301601f19908116603f0116810190828211818310171561154457611544611ecd565b8160405283815286602085880101111561155d57600080fd5b836020870160208301376000602085830101528094505050505092915050565b803563ffffffff811681146114a257600080fd5b80356001600160601b03811681146114a257600080fd5b6000602082840312156115ba57600080fd5b81356115c581611ee3565b9392505050565b600080604083850312156115df57600080fd5b82356115ea81611ee3565b915060208301356115fa81611ef8565b809150509250929050565b6000806000806060858703121561161b57600080fd5b843561162681611ee3565b935060208501359250604085013567ffffffffffffffff81111561164957600080fd5b611655878288016114a7565b95989497509550505050565b60006020828403121561167357600080fd5b81516115c581611ef8565b60006020828403121561169057600080fd5b5035919050565b600080600080608085870312156116ad57600080fd5b8435600381106116bc57600080fd5b9350602085013561ffff811681146116d357600080fd5b925060408501356116e381611ee3565b91506116f160608601611591565b905092959194509250565b600080600080600080600080600060e08a8c03121561171a57600080fd5b893567ffffffffffffffff8082111561173257600080fd5b61173e8d838e016114f0565b9a5060208c0135915061175082611ee3565b81995061175f60408d0161157d565b985060608c0135915061177182611ee3565b90965060808b0135908082111561178757600080fd5b6117938d838e016114a7565b909750955060a08c01359150808211156117ac57600080fd5b506117b98c828d016114a7565b9a9d999c50979a9699959894979660c00135949350505050565b6000806000806000806000806000806000806101208d8f0312156117f657600080fd5b67ffffffffffffffff8d35111561180c57600080fd5b6118198e8e358f016114f0565b9b5067ffffffffffffffff60208e0135111561183457600080fd5b6118448e60208f01358f016114a7565b909b50995061185560408e01611497565b985061186360608e0161157d565b975061187160808e01611497565b965067ffffffffffffffff60a08e0135111561188c57600080fd5b61189c8e60a08f01358f016114a7565b909650945067ffffffffffffffff60c08e013511156118ba57600080fd5b6118ca8e60c08f01358f016114a7565b90945092506118db60e08e01611591565b91506118ea6101008e01611497565b90509295989b509295989b509295989b565b60008060008060008060008060006101208a8c03121561191b57600080fd5b893567ffffffffffffffff8082111561193357600080fd5b61193f8d838e016114f0565b9a5060208c013591508082111561195557600080fd5b6119618d838e016114f0565b995061196f60408d01611497565b985061197d60608d0161157d565b975061198b60808d01611497565b965060a08c01359150808211156119a157600080fd5b6119ad8d838e016114f0565b955060c08c01359150808211156119c357600080fd5b506119d08c828d016114f0565b9350506119df60e08b01611591565b91506119ee6101008b01611497565b90509295985092959850929598565b600060208284031215611a0f57600080fd5b813567ffffffffffffffff811115611a2657600080fd5b820161010081850312156115c557600080fd5b600060208284031215611a4b57600080fd5b5051919050565b600060208284031215611a6457600080fd5b6115c582611591565b81835281816020850137506000828201602090810191909152601f909101601f19169091010190565b6000815180845260005b81811015611abc57602081850181015186830182015201611aa0565b81811115611ace576000602083870101525b50601f01601f19169290920160200192915050565b60038110611b0157634e487b7160e01b600052602160045260246000fd5b9052565b8183823760009101908152919050565b6001600160a01b03888116825263ffffffff881660208301528616604082015260a060608201819052600090611b4e9083018688611a6d565b8281036080840152611b61818587611a6d565b9a9950505050505050505050565b6001600160a01b03868116825263ffffffff861660208301528416604082015260a060608201819052600090611ba790830185611a96565b8281036080840152611bb98185611a96565b98975050505050505050565b6001600160a01b03841681526001600160601b0383166020820152606060408201819052600090611bf890830184611a96565b95945050505050565b60808101611c0f8287611ae3565b61ffff9490941660208201526001600160a01b039290921660408301526001600160601b0316606090910152919050565b60a08101611c4e8288611ae3565b63ffffffff95861660208301529390941660408501526001600160a01b03919091166060840152608090920191909152919050565b6020815260006115c56020830184611a96565b60c081526000611ca960c0830189611a96565b8281036020840152611cbb8189611a96565b63ffffffff881660408501526001600160a01b038716606085015283810360808501529050611cea8186611a96565b9150506001600160601b03831660a0830152979650505050505050565b604051610100810167ffffffffffffffff81118282101715611d2b57611d2b611ecd565b60405290565b60008085851115611d4157600080fd5b83861115611d4e57600080fd5b5050820193919092039150565b600063ffffffff808316818516808303821115611d7a57611d7a611ea1565b01949350505050565b60006001600160601b03808316818516808303821115611d7a57611d7a611ea1565b60006101008236031215611db857600080fd5b611dc0611d07565b823567ffffffffffffffff80821115611dd857600080fd5b611de4368387016114f0565b83526020850135915080821115611dfa57600080fd5b611e06368387016114f0565b6020840152611e1760408601611497565b6040840152611e286060860161157d565b6060840152611e3960808601611497565b608084015260a0850135915080821115611e5257600080fd5b611e5e368387016114f0565b60a084015260c0850135915080821115611e7757600080fd5b50611e84368286016114f0565b60c083015250611e9660e08401611591565b60e082015292915050565b634e487b7160e01b600052601160045260246000fd5b634e487b7160e01b600052602160045260246000fd5b634e487b7160e01b600052604160045260246000fd5b6001600160a01b0381168114610eca57600080fd5b8015158114610eca57600080fdfea2646970667358221220b22ab5a2d07a7c90d3e1eef8d87b98d5c23ad4f56dc95368856193fed3e9700d64736f6c63430008060033","linkReferences":{}},"methodIdentifiers":{"LINK()":"1b6b6d23","acceptOwnership()":"79ba5097","approve(string,address,uint32,address,bytes,bytes,bytes32)":"62105854","cancel(bytes32)":"c4d252f5","getAutoApproveAllowedSender(address)":"7e776f7f","getPendingRequest(bytes32)":"88b12d55","getRegistrationConfig()":"850af0cb","onTokenTransfer(address,uint256,bytes)":"a4c0ed36","owner()":"8da5cb5b","register(string,bytes,address,uint32,address,bytes,bytes,uint96,address)":"a611ea56","registerUpkeep((string,bytes,address,uint32,address,bytes,bytes,uint96))":"08b79da4","setAutoApproveAllowedSender(address,bool)":"367b9b4f","setRegistrationConfig(uint8,uint16,address,uint96)":"a793ab8b","transferOwnership(address)":"f2fde38b","typeAndVersion()":"181f5a77"},"id":37}