{"abi":[{"type":"constructor","inputs":[],"stateMutability":"nonpayable"},{"type":"function","name":"checkUpkeep","inputs":[{"name":"","type":"bytes","internalType":"bytes"}],"outputs":[{"name":"upkeepNeeded","type":"bool","internalType":"bool"},{"name":"performData","type":"bytes","internalType":"bytes"}],"stateMutability":"view"},{"type":"function","name":"counter","inputs":[],"outputs":[{"name":"","type":"uint256","internalType":"uint256"}],"stateMutability":"view"},{"type":"function","name":"interval","inputs":[],"outputs":[{"name":"","type":"uint256","internalType":"uint256"}],"stateMutability":"view"},{"type":"function","name":"lastTimeStamp","inputs":[],"outputs":[{"name":"","type":"uint256","internalType":"uint256"}],"stateMutability":"view"},{"type":"function","name":"performUpkeep","inputs":[{"name":"","type":"bytes","internalType":"bytes"}],"outputs":[],"stateMutability":"nonpayable"}],"bytecode":{"object":"0x60a060405234801561001057600080fd5b50606460805242600155600080556080516102b86100456000396000818160bc0152818160e0015261013f01526102b86000f3fe608060405234801561001057600080fd5b50600436106100575760003560e01c80633f3b3b271461005c5780634585e33b1461007857806361bc221a1461008d5780636e04ff0d14610096578063947a36fb146100b7575b600080fd5b61006560015481565b6040519081526020015b60405180910390f35b61008b610086366004610176565b6100de565b005b61006560005481565b6100a96100a4366004610176565b61012d565b60405161006f9291906101e8565b6100657f000000000000000000000000000000000000000000000000000000000000000081565b7f00000000000000000000000000000000000000000000000000000000000000006001544261010d9190610256565b1115610129574260019081556000546101259161026f565b6000555b5050565b604080516000808252602082019092527f00000000000000000000000000000000000000000000000000000000000000006001544261016c9190610256565b1191509250929050565b6000806020838503121561018957600080fd5b823567ffffffffffffffff808211156101a157600080fd5b818501915085601f8301126101b557600080fd5b8135818111156101c457600080fd5b8660208285010111156101d657600080fd5b60209290920196919550909350505050565b821515815260006020604081840152835180604085015260005b8181101561021e57858101830151858201606001528201610202565b506000606082860101526060601f19601f830116850101925050509392505050565b634e487b7160e01b600052601160045260246000fd5b8181038181111561026957610269610240565b92915050565b808201808211156102695761026961024056fea26469706673582212207bbf95ebdf9561973f6d93d168f58424f998ba2c04c42302cb6d6702ce43dae564736f6c63430008130033","linkReferences":{}},"methodIdentifiers":{"checkUpkeep(bytes)":"6e04ff0d","counter()":"61bc221a","interval()":"947a36fb","lastTimeStamp()":"3f3b3b27","performUpkeep(bytes)":"4585e33b"},"id":2}