{
  "abi": [
    {
      "inputs": [],
      "stateMutability": "nonpayable",
      "type": "constructor"
    },
    {
      "inputs": [
        {
          "internalType": "bytes",
          "name": "",
          "type": "bytes"
        }
      ],
      "name": "checkUpkeep",
      "outputs": [
        {
          "internalType": "bool",
          "name": "upkeepNeeded",
          "type": "bool"
        },
        {
          "internalType": "bytes",
          "name": "performData",
          "type": "bytes"
        }
      ],
      "stateMutability": "view",
      "type": "function"
    },
    {
      "inputs": [],
      "name": "counter",
      "outputs": [
        {
          "internalType": "uint256",
          "name": "",
          "type": "uint256"
        }
      ],
      "stateMutability": "view",
      "type": "function"
    },
    {
      "inputs": [],
      "name": "interval",
      "outputs": [
        {
          "internalType": "uint256",
          "name": "",
          "type": "uint256"
        }
      ],
      "stateMutability": "view",
      "type": "function"
    },
    {
      "inputs": [],
      "name": "lastTimeStamp",
      "outputs": [
        {
          "internalType": "uint256",
          "name": "",
          "type": "uint256"
        }
      ],
      "stateMutability": "view",
      "type": "function"
    },
    {
      "inputs": [
        {
          "internalType": "bytes",
          "name": "",
          "type": "bytes"
        }
      ],
      "name": "performUpkeep",
      "outputs": [],
      "stateMutability": "nonpayable",
      "type": "function"
    }
  ],
  "bytecode": {
    "object": "0x60a060405234801561001057600080fd5b50606460805242600155600080556080516102c66100456000396000818160bc0152818160e0015261014201526102c66000f3fe608060405234801561001057600080fd5b50600436106100575760003560e01c80633f3b3b271461005c5780634585e33b1461007857806361bc221a1461008d5780636e04ff0d14610096578063947a36fb146100b7575b600080fd5b61006560015481565b6040519081526020015b60405180910390f35b61008b61008636600461017a565b6100de565b005b61006560005481565b6100a96100a436600461017a565b61012d565b60405161006f9291906101ec565b6100657f000000000000000000000000000000000000000000000000000000000000000081565b7f00000000000000000000000000000000000000000000000000000000000000006001544261010d9190610261565b11156101295742600190815560005461012591610278565b6000555b5050565b604080516000808252602082019092526060907f00000000000000000000000000000000000000000000000000000000000000006001544261016f9190610261565b119590945092505050565b6000806020838503121561018d57600080fd5b823567ffffffffffffffff808211156101a557600080fd5b818501915085601f8301126101b957600080fd5b8135818111156101c857600080fd5b8660208285010111156101da57600080fd5b60209290920196919550909350505050565b821515815260006020604081840152835180604085015260005b8181101561022257858101830151858201606001528201610206565b81811115610234576000606083870101525b50601f01601f191692909201606001949350505050565b634e487b7160e01b600052601160045260246000fd5b6000828210156102735761027361024b565b500390565b6000821982111561028b5761028b61024b565b50019056fea2646970667358221220de7be300f4a15cb403b491f55ec921e6a6c6ae4e63317b8f8e424edfcf460dac64736f6c634300080c0033",
    "linkReferences": {}
  },
  "methodIdentifiers": {
    "checkUpkeep(bytes)": "6e04ff0d",
    "counter()": "61bc221a",
    "interval()": "947a36fb",
    "lastTimeStamp()": "3f3b3b27",
    "performUpkeep(bytes)": "4585e33b"
  },
  "id": 19
}