{"abi":[{"type":"function","name":"callUpkeep","inputs":[],"outputs":[],"stateMutability":"nonpayable"},{"type":"function","name":"calledTimes","inputs":[],"outputs":[{"name":"","type":"uint256","internalType":"uint256"}],"stateMutability":"view"},{"type":"event","name":"CronUpkeepCalled","inputs":[{"name":"calledTimes","type":"uint256","indexed":true,"internalType":"uint256"}],"anonymous":false}],"bytecode":{"object":"0x60806040526000805534801561001457600080fd5b5060f8806100236000396000f3fe6080604052348015600f57600080fd5b506004361060325760003560e01c8063083cfd0b14603757806327352240146051575b600080fd5b603f60005481565b60405190815260200160405180910390f35b60576059565b005b600160008082825460699190609c565b90915550506000805460405190917f7819d8eee0a0d6309bbd450c768005afd70f9cb66f37be2ee186271b6b28b5e691a2565b8082018082111560bc57634e487b7160e01b600052601160045260246000fd5b9291505056fea264697066735822122086d5a09921810d3540ff43542bc97421a6fb35ea4d9fd8d07a2c59d77426b0d464736f6c63430008130033","linkReferences":{}},"methodIdentifiers":{"callUpkeep()":"27352240","calledTimes()":"083cfd0b"},"id":3}