{"abi":[{"type":"function","name":"lastTick","inputs":[{"name":"spec","type":"tuple","internalType":"struct Spec","components":[{"name":"minute","type":"tuple","internalType":"struct Field","components":[{"name":"fieldType","type":"FieldType","internalType":"enum FieldType"},{"name":"singleValue","type":"uint8","internalType":"uint8"},{"name":"interval","type":"uint8","internalType":"uint8"},{"name":"rangeStart","type":"uint8","internalType":"uint8"},{"name":"rangeEnd","type":"uint8","internalType":"uint8"},{"name":"listLength","type":"uint8","internalType":"uint8"},{"name":"list","type":"uint8[26]","internalType":"uint8[26]"}]},{"name":"hour","type":"tuple","internalType":"struct Field","components":[{"name":"fieldType","type":"FieldType","internalType":"enum FieldType"},{"name":"singleValue","type":"uint8","internalType":"uint8"},{"name":"interval","type":"uint8","internalType":"uint8"},{"name":"rangeStart","type":"uint8","internalType":"uint8"},{"name":"rangeEnd","type":"uint8","internalType":"uint8"},{"name":"listLength","type":"uint8","internalType":"uint8"},{"name":"list","type":"uint8[26]","internalType":"uint8[26]"}]},{"name":"day","type":"tuple","internalType":"struct Field","components":[{"name":"fieldType","type":"FieldType","internalType":"enum FieldType"},{"name":"singleValue","type":"uint8","internalType":"uint8"},{"name":"interval","type":"uint8","internalType":"uint8"},{"name":"rangeStart","type":"uint8","internalType":"uint8"},{"name":"rangeEnd","type":"uint8","internalType":"uint8"},{"name":"listLength","type":"uint8","internalType":"uint8"},{"name":"list","type":"uint8[26]","internalType":"uint8[26]"}]},{"name":"month","type":"tuple","internalType":"struct Field","components":[{"name":"fieldType","type":"FieldType","internalType":"enum FieldType"},{"name":"singleValue","type":"uint8","internalType":"uint8"},{"name":"interval","type":"uint8","internalType":"uint8"},{"name":"rangeStart","type":"uint8","internalType":"uint8"},{"name":"rangeEnd","type":"uint8","internalType":"uint8"},{"name":"listLength","type":"uint8","internalType":"uint8"},{"name":"list","type":"uint8[26]","internalType":"uint8[26]"}]},{"name":"dayOfWeek","type":"tuple","internalType":"struct Field","components":[{"name":"fieldType","type":"FieldType","internalType":"enum FieldType"},{"name":"singleValue","type":"uint8","internalType":"uint8"},{"name":"interval","type":"uint8","internalType":"uint8"},{"name":"rangeStart","type":"uint8","internalType":"uint8"},{"name":"rangeEnd","type":"uint8","internalType":"uint8"},{"name":"listLength","type":"uint8","internalType":"uint8"},{"name":"list","type":"uint8[26]","internalType":"uint8[26]"}]}]}],"outputs":[{"name":"","type":"uint256","internalType":"uint256"}],"stateMutability":"view"},{"type":"function","name":"matches","inputs":[{"name":"spec","type":"tuple","internalType":"struct Spec","components":[{"name":"minute","type":"tuple","internalType":"struct Field","components":[{"name":"fieldType","type":"FieldType","internalType":"enum FieldType"},{"name":"singleValue","type":"uint8","internalType":"uint8"},{"name":"interval","type":"uint8","internalType":"uint8"},{"name":"rangeStart","type":"uint8","internalType":"uint8"},{"name":"rangeEnd","type":"uint8","internalType":"uint8"},{"name":"listLength","type":"uint8","internalType":"uint8"},{"name":"list","type":"uint8[26]","internalType":"uint8[26]"}]},{"name":"hour","type":"tuple","internalType":"struct Field","components":[{"name":"fieldType","type":"FieldType","internalType":"enum FieldType"},{"name":"singleValue","type":"uint8","internalType":"uint8"},{"name":"interval","type":"uint8","internalType":"uint8"},{"name":"rangeStart","type":"uint8","internalType":"uint8"},{"name":"rangeEnd","type":"uint8","internalType":"uint8"},{"name":"listLength","type":"uint8","internalType":"uint8"},{"name":"list","type":"uint8[26]","internalType":"uint8[26]"}]},{"name":"day","type":"tuple","internalType":"struct Field","components":[{"name":"fieldType","type":"FieldType","internalType":"enum FieldType"},{"name":"singleValue","type":"uint8","internalType":"uint8"},{"name":"interval","type":"uint8","internalType":"uint8"},{"name":"rangeStart","type":"uint8","internalType":"uint8"},{"name":"rangeEnd","type":"uint8","internalType":"uint8"},{"name":"listLength","type":"uint8","internalType":"uint8"},{"name":"list","type":"uint8[26]","internalType":"uint8[26]"}]},{"name":"month","type":"tuple","internalType":"struct Field","components":[{"name":"fieldType","type":"FieldType","internalType":"enum FieldType"},{"name":"singleValue","type":"uint8","internalType":"uint8"},{"name":"interval","type":"uint8","internalType":"uint8"},{"name":"rangeStart","type":"uint8","internalType":"uint8"},{"name":"rangeEnd","type":"uint8","internalType":"uint8"},{"name":"listLength","type":"uint8","internalType":"uint8"},{"name":"list","type":"uint8[26]","internalType":"uint8[26]"}]},{"name":"dayOfWeek","type":"tuple","internalType":"struct Field","components":[{"name":"fieldType","type":"FieldType","internalType":"enum FieldType"},{"name":"singleValue","type":"uint8","internalType":"uint8"},{"name":"interval","type":"uint8","internalType":"uint8"},{"name":"rangeStart","type":"uint8","internalType":"uint8"},{"name":"rangeEnd","type":"uint8","internalType":"uint8"},{"name":"listLength","type":"uint8","internalType":"uint8"},{"name":"list","type":"uint8[26]","internalType":"uint8[26]"}]}]},{"name":"timestamp","type":"uint256","internalType":"uint256"}],"outputs":[{"name":"","type":"bool","internalType":"bool"}],"stateMutability":"view"},{"type":"function","name":"nextTick","inputs":[{"name":"spec","type":"tuple","internalType":"struct Spec","components":[{"name":"minute","type":"tuple","internalType":"struct Field","components":[{"name":"fieldType","type":"FieldType","internalType":"enum FieldType"},{"name":"singleValue","type":"uint8","internalType":"uint8"},{"name":"interval","type":"uint8","internalType":"uint8"},{"name":"rangeStart","type":"uint8","internalType":"uint8"},{"name":"rangeEnd","type":"uint8","internalType":"uint8"},{"name":"listLength","type":"uint8","internalType":"uint8"},{"name":"list","type":"uint8[26]","internalType":"uint8[26]"}]},{"name":"hour","type":"tuple","internalType":"struct Field","components":[{"name":"fieldType","type":"FieldType","internalType":"enum FieldType"},{"name":"singleValue","type":"uint8","internalType":"uint8"},{"name":"interval","type":"uint8","internalType":"uint8"},{"name":"rangeStart","type":"uint8","internalType":"uint8"},{"name":"rangeEnd","type":"uint8","internalType":"uint8"},{"name":"listLength","type":"uint8","internalType":"uint8"},{"name":"list","type":"uint8[26]","internalType":"uint8[26]"}]},{"name":"day","type":"tuple","internalType":"struct Field","components":[{"name":"fieldType","type":"FieldType","internalType":"enum FieldType"},{"name":"singleValue","type":"uint8","internalType":"uint8"},{"name":"interval","type":"uint8","internalType":"uint8"},{"name":"rangeStart","type":"uint8","internalType":"uint8"},{"name":"rangeEnd","type":"uint8","internalType":"uint8"},{"name":"listLength","type":"uint8","internalType":"uint8"},{"name":"list","type":"uint8[26]","internalType":"uint8[26]"}]},{"name":"month","type":"tuple","internalType":"struct Field","components":[{"name":"fieldType","type":"FieldType","internalType":"enum FieldType"},{"name":"singleValue","type":"uint8","internalType":"uint8"},{"name":"interval","type":"uint8","internalType":"uint8"},{"name":"rangeStart","type":"uint8","internalType":"uint8"},{"name":"rangeEnd","type":"uint8","internalType":"uint8"},{"name":"listLength","type":"uint8","internalType":"uint8"},{"name":"list","type":"uint8[26]","internalType":"uint8[26]"}]},{"name":"dayOfWeek","type":"tuple","internalType":"struct Field","components":[{"name":"fieldType","type":"FieldType","internalType":"enum FieldType"},{"name":"singleValue","type":"uint8","internalType":"uint8"},{"name":"interval","type":"uint8","internalType":"uint8"},{"name":"rangeStart","type":"uint8","internalType":"uint8"},{"name":"rangeEnd","type":"uint8","internalType":"uint8"},{"name":"listLength","type":"uint8","internalType":"uint8"},{"name":"list","type":"uint8[26]","internalType":"uint8[26]"}]}]}],"outputs":[{"name":"","type":"uint256","internalType":"uint256"}],"stateMutability":"view"},{"type":"function","name":"toCronString","inputs":[{"name":"spec","type":"tuple","internalType":"struct Spec","components":[{"name":"minute","type":"tuple","internalType":"struct Field","components":[{"name":"fieldType","type":"FieldType","internalType":"enum FieldType"},{"name":"singleValue","type":"uint8","internalType":"uint8"},{"name":"interval","type":"uint8","internalType":"uint8"},{"name":"rangeStart","type":"uint8","internalType":"uint8"},{"name":"rangeEnd","type":"uint8","internalType":"uint8"},{"name":"listLength","type":"uint8","internalType":"uint8"},{"name":"list","type":"uint8[26]","internalType":"uint8[26]"}]},{"name":"hour","type":"tuple","internalType":"struct Field","components":[{"name":"fieldType","type":"FieldType","internalType":"enum FieldType"},{"name":"singleValue","type":"uint8","internalType":"uint8"},{"name":"interval","type":"uint8","internalType":"uint8"},{"name":"rangeStart","type":"uint8","internalType":"uint8"},{"name":"rangeEnd","type":"uint8","internalType":"uint8"},{"name":"listLength","type":"uint8","internalType":"uint8"},{"name":"list","type":"uint8[26]","internalType":"uint8[26]"}]},{"name":"day","type":"tuple","internalType":"struct Field","components":[{"name":"fieldType","type":"FieldType","internalType":"enum FieldType"},{"name":"singleValue","type":"uint8","internalType":"uint8"},{"name":"interval","type":"uint8","internalType":"uint8"},{"name":"rangeStart","type":"uint8","internalType":"uint8"},{"name":"rangeEnd","type":"uint8","internalType":"uint8"},{"name":"listLength","type":"uint8","internalType":"uint8"},{"name":"list","type":"uint8[26]","internalType":"uint8[26]"}]},{"name":"month","type":"tuple","internalType":"struct Field","components":[{"name":"fieldType","type":"FieldType","internalType":"enum FieldType"},{"name":"singleValue","type":"uint8","internalType":"uint8"},{"name":"interval","type":"uint8","internalType":"uint8"},{"name":"rangeStart","type":"uint8","internalType":"uint8"},{"name":"rangeEnd","type":"uint8","internalType":"uint8"},{"name":"listLength","type":"uint8","internalType":"uint8"},{"name":"list","type":"uint8[26]","internalType":"uint8[26]"}]},{"name":"dayOfWeek","type":"tuple","internalType":"struct Field","components":[{"name":"fieldType","type":"FieldType","internalType":"enum FieldType"},{"name":"singleValue","type":"uint8","internalType":"uint8"},{"name":"interval","type":"uint8","internalType":"uint8"},{"name":"rangeStart","type":"uint8","internalType":"uint8"},{"name":"rangeEnd","type":"uint8","internalType":"uint8"},{"name":"listLength","type":"uint8","internalType":"uint8"},{"name":"list","type":"uint8[26]","internalType":"uint8[26]"}]}]}],"outputs":[{"name":"","type":"string","internalType":"string"}],"stateMutability":"pure"},{"type":"function","name":"toEncodedSpec","inputs":[{"name":"cronString","type":"string","internalType":"string"}],"outputs":[{"name":"","type":"bytes","internalType":"bytes"}],"stateMutability":"pure"},{"type":"function","name":"toSpec","inputs":[{"name":"cronString","type":"string","internalType":"string"}],"outputs":[{"name":"","type":"tuple","internalType":"struct Spec","components":[{"name":"minute","type":"tuple","internalType":"struct Field","components":[{"name":"fieldType","type":"FieldType","internalType":"enum FieldType"},{"name":"singleValue","type":"uint8","internalType":"uint8"},{"name":"interval","type":"uint8","internalType":"uint8"},{"name":"rangeStart","type":"uint8","internalType":"uint8"},{"name":"rangeEnd","type":"uint8","internalType":"uint8"},{"name":"listLength","type":"uint8","internalType":"uint8"},{"name":"list","type":"uint8[26]","internalType":"uint8[26]"}]},{"name":"hour","type":"tuple","internalType":"struct Field","components":[{"name":"fieldType","type":"FieldType","internalType":"enum FieldType"},{"name":"singleValue","type":"uint8","internalType":"uint8"},{"name":"interval","type":"uint8","internalType":"uint8"},{"name":"rangeStart","type":"uint8","internalType":"uint8"},{"name":"rangeEnd","type":"uint8","internalType":"uint8"},{"name":"listLength","type":"uint8","internalType":"uint8"},{"name":"list","type":"uint8[26]","internalType":"uint8[26]"}]},{"name":"day","type":"tuple","internalType":"struct Field","components":[{"name":"fieldType","type":"FieldType","internalType":"enum FieldType"},{"name":"singleValue","type":"uint8","internalType":"uint8"},{"name":"interval","type":"uint8","internalType":"uint8"},{"name":"rangeStart","type":"uint8","internalType":"uint8"},{"name":"rangeEnd","type":"uint8","internalType":"uint8"},{"name":"listLength","type":"uint8","internalType":"uint8"},{"name":"list","type":"uint8[26]","internalType":"uint8[26]"}]},{"name":"month","type":"tuple","internalType":"struct Field","components":[{"name":"fieldType","type":"FieldType","internalType":"enum FieldType"},{"name":"singleValue","type":"uint8","internalType":"uint8"},{"name":"interval","type":"uint8","internalType":"uint8"},{"name":"rangeStart","type":"uint8","internalType":"uint8"},{"name":"rangeEnd","type":"uint8","internalType":"uint8"},{"name":"listLength","type":"uint8","internalType":"uint8"},{"name":"list","type":"uint8[26]","internalType":"uint8[26]"}]},{"name":"dayOfWeek","type":"tuple","internalType":"struct Field","components":[{"name":"fieldType","type":"FieldType","internalType":"enum FieldType"},{"name":"singleValue","type":"uint8","internalType":"uint8"},{"name":"interval","type":"uint8","internalType":"uint8"},{"name":"rangeStart","type":"uint8","internalType":"uint8"},{"name":"rangeEnd","type":"uint8","internalType":"uint8"},{"name":"listLength","type":"uint8","internalType":"uint8"},{"name":"list","type":"uint8[26]","internalType":"uint8[26]"}]}]}],"stateMutability":"pure"},{"type":"error","name":"InvalidField","inputs":[{"name":"field","type":"string","internalType":"string"},{"name":"reason","type":"string","internalType":"string"}]},{"type":"error","name":"InvalidSpec","inputs":[{"name":"reason","type":"string","internalType":"string"}]},{"type":"error","name":"ListTooLarge","inputs":[]},{"type":"error","name":"UnknownFieldType","inputs":[]}],"bytecode":{"object":"0x612cf461003a600b82828239805160001a60731461002d57634e487b7160e01b600052600060045260246000fd5b30600052607381538281f3fe730000000000000000000000000000000000000000301460806040526004361061006c5760003560e01c806334373a3b1461007157806336d24def14610097578063a1ab24f4146100b7578063b70d6970146100d7578063bddee373146100ea578063e04b97691461010d575b600080fd5b61008461007f3660046123ab565b610120565b6040519081526020015b60405180910390f35b6100aa6100a5366004612339565b61013f565b60405161008e91906128ad565b6100ca6100c53660046123ab565b61018d565b60405161008e919061281a565b6100846100e53660046123ab565b6101a6565b6100fd6100f83660046123c8565b6101bf565b604051901515815260200161008e565b6100ca61011b366004612339565b6101da565b6000610139610134368490038401846123f5565b61021b565b92915050565b61014761210b565b61018683838080601f0160208091040260200160405190810160405280939291908181526020018383808284376000920191909152506103cd92505050565b9392505050565b60606101396101a1368490038401846123f5565b610587565b60006101396101ba368490038401846123f5565b6105f4565b6000610186826101d4368690038601866123f5565b9061078c565b606061018683838080601f0160208091040260200160405190810160405280939291908181526020018383808284376000920191909152506107ff92505050565b6000806102274261081a565b905060006102344261090f565b9050600061024142610924565b9050600061024e42610939565b9050600061025b4261095d565b905060005b600c8560ff16116103b75761027988606001518661096b565b61028e576001935060009250600091506103a5565b600061029a8688610acd565b90505b8060ff168560ff161161039f576102b889604001518661096b565b6102c957600093506000925061038d565b6102dc6102d7888888610b93565b610ba5565b91506102ec89608001518361096b565b6102fd57600093506000925061038d565b60188460ff1610156103885761031789602001518561096b565b6103245760009250610376565b603c8360ff16101561037157885161033c908461096b565b6103455761035f565b6103528787878787610bc1565b9998505050505050505050565b8261036981612bd9565b935050610324565b600092505b8361038081612bd9565b9450506102fd565b600093505b8461039781612bd9565b95505061029d565b60019450505b846103af81612bd9565b955050610260565b60019450856103c581612b9c565b965050610260565b6103d561210b565b60006103f9604051806040016040528060018152602001600160fd1b815250610bdc565b9050600061040684610bdc565b90506104128183610c09565b60041461045b576040516357b234a760e11b81526020600482015260116024820152700d081cdc1858d95cc81c995c5d5a5c9959607a1b60448201526064015b60405180910390fd5b60006104678284610caa565b905060006104758385610caa565b905060006104838486610caa565b905060006104918587610caa565b905061049c84610cc9565b15806104ae57506104ac83610cc9565b155b806104bf57506104bd82610cc9565b155b806104d057506104ce81610cc9565b155b806104e157506104df85610cc9565b155b15610525576040516357b234a760e11b8152602060048201526013602482015272736f6d65206669656c6473206d697373696e6760681b6044820152606401610452565b61057b6040518060a0016040528061053c87610da2565b815260200161054a86610da2565b815260200161055885610da2565b815260200161056684610da2565b815260200161057488610da2565b9052610fc0565b98975050505050505050565b606061059682600001516110ce565b6105a383602001516110ce565b6105b084604001516110ce565b6105bd85606001516110ce565b6105ca86608001516110ce565b6040516020016105de959493929190612597565b6040516020818303038152906040529050919050565b6000806106004261081a565b9050600061060d4261090f565b9050600061061a42610924565b9050600061062742610939565b905060006106344261095d565b90506000805b60ff8616156107765761065189606001518761096b565b610665575060179250603b91506001610764565b8015610678576106758688610acd565b94505b60ff8516156107605761068f89604001518661096b565b6106a05760179350603b925061074e565b6106ae6102d7888888610b93565b91506106be89608001518361096b565b6106cf5760179350603b925061074e565b6106dd89602001518561096b565b6106f757603b925060ff84166106f257610749565b610737565b8851610703908461096b565b6103455760ff831661071457610726565b8261071e81612b89565b9350506106f7565b603b925060ff841661073757610749565b8361074181612b89565b9450506106cf565b601793505b8461075881612b89565b955050610678565b5060015b8561076e81612b89565b96505061063a565b600c95508661078481612b54565b97505061063a565b60008061079883611253565b90506107ac8460600151826020015161096b565b80156107c557506107c58460400151826040015161096b565b80156107de57506107de8460200151826060015161096b565b80156107f757506107f78460000151826080015161096b565b949350505050565b606061080a826103cd565b6040516020016105de91906128ad565b600080808061082d6301e133808661294d565b610839906107b2612910565b91506108466107b261143b565b6108538361ffff1661143b565b61085d9190612aee565b905061086d816301e28500612a4c565b6108779084612910565b9250806108866107b284612acb565b61ffff166108949190612aee565b6108a2906301e13380612a4c565b6108ac9084612910565b92505b84831115610907576108ca6108c5600184612acb565b611480565b156108e4576108dd6301e2850084612aee565b92506108f5565b6108f26301e1338084612aee565b92505b610900600183612acb565b91506108af565b509392505050565b600061091a82611253565b6020015192915050565b600061092f82611253565b6040015192915050565b60006018603c610949818561294d565b610953919061294d565b6101399190612c1a565b6000603c610953818461294d565b6000808351600481111561098157610981612c7c565b141561098f57506001610139565b6002835160048111156109a4576109a4612c7c565b14156109c45760408301516109b99083612c2e565b60ff16159050610139565b6001835160048111156109d9576109d9612c7c565b14156109f357826020015160ff168260ff16149050610139565b600383516004811115610a0857610a08612c7c565b1415610a3957826060015160ff168260ff1610158015610a325750826080015160ff168260ff1611155b9050610139565b600483516004811115610a4e57610a4e612c7c565b1415610ab45760005b8360a0015160ff16811015610aaa578360c0015181601a8110610a7c57610a7c612c92565b602002015160ff168360ff161415610a98576001915050610139565b80610aa281612bbe565b915050610a57565b5060009050610139565b604051637d8d432960e01b815260040160405180910390fd5b60008260ff1660011480610ae457508260ff166003145b80610af257508260ff166005145b80610b0057508260ff166007145b80610b0e57508260ff166008145b80610b1c57508260ff16600a145b80610b2a57508260ff16600c145b15610b375750601f610139565b8260ff1660041480610b4c57508260ff166006145b80610b5a57508260ff166009145b80610b6857508260ff16600b145b15610b755750601e610139565b610b7e82611480565b15610b8b5750601d610139565b50601c610139565b60006107f784848460008060006114df565b60006007610bb6620151808461294d565b610953906004612910565b6000610bd2868686868660006114df565b9695505050505050565b60408051808201825260008082526020918201528151808301909252825182529182019181019190915290565b6000808260000151610c2d8560000151866020015186600001518760200151611683565b610c379190612910565b90505b83516020850151610c4b9190612910565b8111610ca35781610c5b81612bbe565b9250508260000151610c92856020015183610c769190612aee565b8651610c829190612aee565b8386600001518760200151611683565b610c9c9190612910565b9050610c3a565b5092915050565b6040805180820190915260008082526020820152610ca38383836117a4565b600080601f8360200151610cdd9190612aee565b8351909150600090610cef9083612910565b9050600092505b80821015610d9b57815160ff166080811015610d1e57610d17600184612910565b9250610d88565b60e08160ff161015610d3557610d17600284612910565b60f08160ff161015610d4c57610d17600384612910565b60f88160ff161015610d6357610d17600484612910565b60fc8160ff161015610d7a57610d17600584612910565b610d85600684612910565b92505b5082610d9381612bbe565b935050610cf6565b5050919050565b610daa612157565b6000610dce604051806040016040528060018152602001601560f91b815250610bdc565b90506000610df4604051806040016040528060018152602001602d60f81b815250610bdc565b90506000610e1a604051806040016040528060018152602001602f60f81b815250610bdc565b90506000610e40604051806040016040528060018152602001600b60fa1b815250610bdc565b9050610e4a612157565b610e548786611850565b15610e625760008152610bd2565b610e6c8785611864565b15610eab57600381526000610e818886610caa565b9050610e8c8161188b565b60ff166060830152610e9d8861188b565b60ff16608083015250610bd2565b610eb58784611864565b15610edf5760028152610ec88784610caa565b50610ed28761188b565b60ff166040820152610bd2565b610ee98783611864565b15610fa1576004815260408051808201909152600080825260208201525b6000610f1289610cc9565b1115610f9b5760198260a0015160ff161115610f41576040516388b27b5f60e01b815260040160405180910390fd5b610f4b8884610caa565b9050610f568161188b565b8260c001518360a0015160ff16601a8110610f7357610f73612c92565b60ff909216602092909202015260a08201805190610f9082612bd9565b60ff16905250610f07565b50610bd2565b60018152610fae8761188b565b60ff1660208201529695505050505050565b610fc861210b565b610ffd82608001516040518060400160405280600b81526020016a646179206f66207765656b60a81b8152506000600661191a565b61102c8260600151604051806040016040528060058152602001640dadedce8d60db1b8152506001600c61191a565b600061103b8360600151611bbc565b905061106983604001516040518060400160405280600381526020016264617960e81b81525060018461191a565b6110978360200151604051806040016040528060048152602001633437bab960e11b8152506000601761191a565b6110c78360000151604051806040016040528060068152602001656d696e75746560d01b8152506000603b61191a565b5090919050565b60606000825160048111156110e5576110e5612c7c565b14156111085750506040805180820190915260018152601560f91b602082015290565b60018251600481111561111d5761111d612c7c565b141561113357610139826020015160ff16611d09565b60038251600481111561114857611148612c7c565b141561117f5761115e826060015160ff16611d09565b61116e836080015160ff16611d09565b6040516020016105de92919061262d565b60028251600481111561119457611194612c7c565b14156111ba576111aa826040015160ff16611d09565b6040516020016105de91906126c7565b6004825160048111156111cf576111cf612c7c565b1415610ab45760c08201516000906111f090825b602002015160ff16611d09565b905060015b8360a0015160ff16811015610ca3578161121e8560c0015183601a81106111e3576111e3612c92565b60405160200161122f92919061255b565b6040516020818303038152906040529150808061124b90612bbe565b9150506111f5565b6040805160e081018252600080825260208201819052918101829052606081018290526080810182905260a0810182905260c081018290529080806112978561081a565b61ffff1684526112a86107b261143b565b84516112b79061ffff1661143b565b6112c19190612aee565b91506112d1826301e28500612a4c565b6112db9084612910565b9250816107b285600001516112f09190612acb565b61ffff166112fe9190612aee565b61130c906301e13380612a4c565b6113169084612910565b92506000600191505b600c8260ff161161138757611338828660000151610acd565b6113489060ff1662015180612a4c565b9050856113558583612910565b11156113695760ff82166020860152611387565b6113738185612910565b93508161137f81612bd9565b92505061131f565b600191505b61139e85602001518660000151610acd565b60ff168260ff16116113ed57856113b88562015180612910565b11156113cc5760ff821660408601526113ed565b6113d96201518085612910565b9350816113e581612bd9565b92505061138c565b6113f686610939565b60ff1660608601526114078661095d565b60ff16608086015261141886611e32565b60ff1660a086015261142986610ba5565b60ff1660c08601525092949350505050565b6000611448600183612aee565b91506114566101908361294d565b61146160648461294d565b61146c60048561294d565b6114769190612aee565b6101399190612910565b600061148d600483612bf9565b61ffff161561149e57506000919050565b6114a9606483612bf9565b61ffff16156114ba57506001919050565b6114c661019083612bf9565b61ffff16156114d757506000919050565b506001919050565b60006107b25b8761ffff168161ffff16101561153b576114fe81611480565b15611518576115116301e2850083612910565b9150611529565b6115266301e1338083612910565b91505b8061153381612b9c565b9150506114e5565b611543612195565b601f815261155089611480565b1561156157601d6020820152611569565b601c60208201525b601f60408201819052601e606083018190526080830182905260a0830181905260c0830182905260e0830182905261010083018190526101208301829052610140830152610160820152600191505b8760ff168261ffff16101561161a57806115d3600184612acb565b61ffff16600c81106115e7576115e7612c92565b60200201516115fc9060ff1662015180612a4c565b6116069084612910565b92508161161281612b9c565b9250506115b8565b611625600188612b05565b6116359060ff1662015180612a4c565b61163f9084612910565b925061165060ff8716610e10612a4c565b61165a9084612910565b925061166a60ff8616603c612a4c565b6116749084612910565b925061035260ff851684612910565b6000838186851161178f576020851161173d57600085156116cf5760016116ab876020612aee565b6116b6906008612a4c565b6116c19060026129a4565b6116cb9190612aee565b1990505b845181166000876116e08b8b612910565b6116ea9190612aee565b855190915083165b82811461172f578186106117175761170a8b8b612910565b96505050505050506107f7565b8561172181612bbe565b9650508386511690506116f2565b8596505050505050506107f7565b508383206000905b61174f8689612aee565b821161178d578583208181141561176c57839450505050506107f7565b611777600185612910565b935050818061178590612bbe565b925050611745565b505b6117998787612910565b979650505050505050565b604080518082019091526000808252602082015260006117d68560000151866020015186600001518760200151611683565b6020808701805191860191909152519091506117f29082612aee565b8352845160208601516118059190612910565b8114156118155760008552611847565b835183516118239190612910565b85518690611832908390612aee565b90525083516118419082612910565b60208601525b50909392505050565b600061185c8383611e3f565b159392505050565b60208083015183518351928401516000936118829291849190611f1a565b14159392505050565b6000806118978361202c565b90506000805b82518260ff1610156107f7576000838360ff16815181106118c0576118c0612c92565b016020015160f81c9050603081108015906118df575060398160ff1611155b15611907576118ef603082612b05565b6118fa83600a612a6b565b6119049190612928565b91505b508161191281612bd9565b92505061189d565b60008451600481111561192f5761192f612c7c565b141561193a57611bb6565b60018451600481111561194f5761194f612c7c565b14156119d9578160ff16846020015160ff16108061197657508060ff16846020015160ff16115b156119d45760006119898360ff16611d09565b6119958360ff16611d09565b6040516020016119a6929190612756565b6040516020818303038152906040529050838160405163081a25d560e21b815260040161045292919061282d565b611bb6565b6002845160048111156119ee576119ee612c7c565b1415611a41576001846040015160ff161080611a1357508060ff16846040015160ff16115b156119d4576000611a246001611d09565b611a308360ff16611d09565b6040516020016119a692919061265d565b600384516004811115611a5657611a56612c7c565b1415611ab2578060ff16846080015160ff161180611a825750836060015160ff16846080015160ff1611155b156119d4576000611a958360ff16611d09565b611aa18360ff16611d09565b6040516020016119a69291906127b5565b600484516004811115611ac757611ac7612c7c565b1415610ab45760028460a0015160ff161015611af8578260405163081a25d560e21b8152600401610452919061285b565b6000611b068360ff16611d09565b611b128360ff16611d09565b604051602001611b239291906126f1565b60408051601f1981840301815291905290506000805b8660a0015160ff16811015611bb2578660c0015181601a8110611b5e57611b5e612c92565b602002015191508460ff168260ff161080611b7e57508360ff168260ff16115b15611ba057858360405163081a25d560e21b815260040161045292919061282d565b80611baa81612bbe565b915050611b39565b5050505b50505050565b60008082516004811115611bd257611bd2612c7c565b1480611bf05750600382516004811115611bee57611bee612c7c565b145b15611bfd5750601f919050565b600182516004811115611c1257611c12612c7c565b1415611c275761013982602001516004610acd565b600282516004811115611c3c57611c3c612c7c565b1415611c7457816040015160ff1660091480611c5f5750816040015160ff16600b145b15611c6c5750601e919050565b50601f919050565b600482516004811115611c8957611c89612c7c565b1415610ab4576000805b8360a0015160ff16811015610ca3576000611cc98560c0015183601a8110611cbd57611cbd612c92565b60200201516004610acd565b90508060ff16601f1415611cdf57949350505050565b8260ff168160ff161115611cf1578092505b5080611cfc81612bbe565b915050611c93565b919050565b606081611d2d5750506040805180820190915260018152600360fc1b602082015290565b8160005b8115611d575780611d4181612bbe565b9150611d509050600a8361294d565b9150611d31565b60008167ffffffffffffffff811115611d7257611d72612ca8565b6040519080825280601f01601f191660200182016040528015611d9c576020820181803683370190505b509050815b8515611e2957611db2600182612aee565b90506000611dc1600a8861294d565b611dcc90600a612a4c565b611dd69088612aee565b611de1906030612928565b905060008160f81b905080848481518110611dfe57611dfe612c92565b60200101906001600160f81b031916908160001a905350611e20600a8961294d565b97505050611da1565b50949350505050565b6000610139603c83612c1a565b8151815160009190811115611e52575081515b6020808501519084015160005b83811015611f0b5782518251808214611edb576000196020871015611eba57600184611e8c896020612aee565b611e969190612910565b611ea1906008612a4c565b611eac9060026129a4565b611eb69190612aee565b1990505b8181168382168181039114611ed85797506101399650505050505050565b50505b611ee6602086612910565b9450611ef3602085612910565b93505050602081611f049190612910565b9050611e5f565b5084518651610bd29190612a8c565b6000808584116120225760208411611fcd5760008415611f65576001611f41866020612aee565b611f4c906008612a4c565b611f579060026129a4565b611f619190612aee565b1990505b8351811685611f748989612910565b611f7e9190612aee565b805190935082165b818114611fb857878411611fa057879450505050506107f7565b83611faa81612b72565b945050828451169050611f86565b611fc28785612910565b9450505050506107f7565b838320611fda8588612aee565b611fe49087612910565b91505b858210612020578482208181141561200d576120038684612910565b93505050506107f7565b612018600184612aee565b925050611fe7565b505b5092949350505050565b60606000826000015167ffffffffffffffff81111561204d5761204d612ca8565b6040519080825280601f01601f191660200182016040528015612077576020820181803683370190505b5090506000602082019050610ca381856020015186600001515b602081106120c957815183526120a8602084612910565b92506120b5602083612910565b91506120c2602082612aee565b9050612091565b60001981156120f85760016120df836020612aee565b6120eb906101006129a4565b6120f59190612aee565b90505b9151835183169219169190911790915250565b6040518060a0016040528061211e612157565b815260200161212b612157565b8152602001612138612157565b8152602001612145612157565b8152602001612152612157565b905290565b6040805160e08101909152806000815260006020820181905260408201819052606082018190526080820181905260a082015260c0016121526121b4565b604051806101800160405280600c906020820280368337509192915050565b604051806103400160405280601a906020820280368337509192915050565b600082601f8301126121e457600080fd5b60405161034080820182811067ffffffffffffffff8211171561220957612209612ca8565b604052818482810187101561221d57600080fd5b600092505b601a8310156122495761223481612328565b82526001929092019160209182019101612222565b509195945050505050565b6000610400828403121561226757600080fd5b60405160e0810181811067ffffffffffffffff8211171561228a5761228a612ca8565b60405290508082356005811061229f57600080fd5b81526122ad60208401612328565b60208201526122be60408401612328565b60408201526122cf60608401612328565b60608201526122e060808401612328565b60808201526122f160a08401612328565b60a08201526123038460c085016121d3565b60c08201525092915050565b6000611400828403121561232257600080fd5b50919050565b803560ff81168114611d0457600080fd5b6000806020838503121561234c57600080fd5b823567ffffffffffffffff8082111561236457600080fd5b818501915085601f83011261237857600080fd5b81358181111561238757600080fd5b86602082850101111561239957600080fd5b60209290920196919550909350505050565b600061140082840312156123be57600080fd5b610186838361230f565b60008061142083850312156123dc57600080fd5b6123e6848461230f565b94611400939093013593505050565b6000611400828403121561240857600080fd5b60405160a0810181811067ffffffffffffffff8211171561242b5761242b612ca8565b6040526124388484612254565b8152612448846104008501612254565b602082015261245b846108008501612254565b604082015261246e84610c008501612254565b6060820152612481846110008501612254565b60808201529392505050565b8060005b601a811015611bb657815160ff16845260209384019390910190600101612491565b600081518084526124cb816020860160208601612b28565b601f01601f19169290920160200192915050565b8051600581106124ff57634e487b7160e01b600052602160045260246000fd5b8083525060ff602082015116602083015260ff604082015116604083015260ff606082015116606083015260ff608082015116608083015260ff60a08201511660a083015260c081015161255660c084018261248d565b505050565b6000835161256d818460208801612b28565b600b60fa1b908301908152835161258b816001840160208801612b28565b01600101949350505050565b600086516125a9818460208b01612b28565b8083019050600160fd1b80825287516125c9816001850160208c01612b28565b6001920191820181905286516125e6816002850160208b01612b28565b600292019182018190528551612603816003850160208a01612b28565b6003920191820152835161261e816004840160208801612b28565b01600401979650505050505050565b6000835161263f818460208801612b28565b602d60f81b908301908152835161258b816001840160208801612b28565b730d2dceccae4ecc2d840daeae6e840c4ca40545e560631b81526000835161268c816014850160208801612b28565b602d60f81b60149184019182015283516126ad816015840160208801612b28565b602960f81b60159290910191820152601601949350505050565b612a2f60f01b8152600082516126e4816002850160208701612b28565b9190910160020192915050565b7f6974656d7320696e206c697374206d7573742062652077697468696e2000000081526000835161272981601d850160208801612b28565b602d60f81b601d91840191820152835161274a81601e840160208801612b28565b01601e01949350505050565b701d985b1d59481b5d5cdd081899480f8f4b607a1b815260008351612782816011850160208801612b28565b6620616e64203c3d60c81b60119184019182015283516127a9816018840160208801612b28565b01601801949350505050565b7f696e76657276616c206d7573742062652077697468696e2000000000000000008152600083516127ed816018850160208801612b28565b602d60f81b601891840191820152835161280e816019840160208801612b28565b01601901949350505050565b60208152600061018660208301846124b3565b60408152600061284060408301856124b3565b828103602084015261285281856124b3565b95945050505050565b60408152600061286e60408301846124b3565b8281036020840152602081527f6c69737473206d7573742068617665206174206c656173742032206974656d7360208201526040810191505092915050565b6000611400820190506128c18284516124df565b60208301516128d46104008401826124df565b5060408301516128e86108008401826124df565b5060608301516128fc610c008401826124df565b506080830151610ca36110008401826124df565b6000821982111561292357612923612c50565b500190565b600060ff821660ff84168060ff0382111561294557612945612c50565b019392505050565b60008261295c5761295c612c66565b500490565b600181815b8085111561299c57816000190482111561298257612982612c50565b8085161561298f57918102915b93841c9390800290612966565b509250929050565b600061018683836000826129ba57506001610139565b816129c757506000610139565b81600181146129dd57600281146129e757612a03565b6001915050610139565b60ff8411156129f8576129f8612c50565b50506001821b610139565b5060208310610133831016604e8410600b8410161715612a26575081810a610139565b612a308383612961565b8060001904821115612a4457612a44612c50565b029392505050565b6000816000190483118215151615612a6657612a66612c50565b500290565b600060ff821660ff84168160ff0481118215151615612a4457612a44612c50565b60008083128015600160ff1b850184121615612aaa57612aaa612c50565b6001600160ff1b0384018313811615612ac557612ac5612c50565b50500390565b600061ffff83811690831681811015612ae657612ae6612c50565b039392505050565b600082821015612b0057612b00612c50565b500390565b600060ff821660ff841680821015612b1f57612b1f612c50565b90039392505050565b60005b83811015612b43578181015183820152602001612b2b565b83811115611bb65750506000910152565b600061ffff821680612b6857612b68612c50565b6000190192915050565b600081612b8157612b81612c50565b506000190190565b600060ff821680612b6857612b68612c50565b600061ffff80831681811415612bb457612bb4612c50565b6001019392505050565b6000600019821415612bd257612bd2612c50565b5060010190565b600060ff821660ff811415612bf057612bf0612c50565b60010192915050565b600061ffff80841680612c0e57612c0e612c66565b92169190910692915050565b600082612c2957612c29612c66565b500690565b600060ff831680612c4157612c41612c66565b8060ff84160691505092915050565b634e487b7160e01b600052601160045260246000fd5b634e487b7160e01b600052601260045260246000fd5b634e487b7160e01b600052602160045260246000fd5b634e487b7160e01b600052603260045260246000fd5b634e487b7160e01b600052604160045260246000fdfea2646970667358221220ba7dc38289b3e23aa578292642681bb6fbc7b4bf0f7070ff626cfc9b71b273ee64736f6c63430008060033","linkReferences":{}},"methodIdentifiers":{"lastTick(Spec)":"b70d6970","matches(Spec,uint256)":"bddee373","nextTick(Spec)":"34373a3b","toCronString(Spec)":"a1ab24f4","toEncodedSpec(string)":"e04b9769","toSpec(string)":"36d24def"},"id":0}