{"abi":[{"type":"constructor","inputs":[{"name":"mode","type":"uint8","internalType":"enum KeeperRegistryBase2_0.Mode"},{"name":"link","type":"address","internalType":"address"},{"name":"linkNativeFeed","type":"address","internalType":"address"},{"name":"fastGasFeed","type":"address","internalType":"address"}],"stateMutability":"nonpayable"},{"type":"function","name":"acceptOwnership","inputs":[],"outputs":[],"stateMutability":"nonpayable"},{"type":"function","name":"acceptPayeeship","inputs":[{"name":"transmitter","type":"address","internalType":"address"}],"outputs":[],"stateMutability":"nonpayable"},{"type":"function","name":"acceptUpkeepAdmin","inputs":[{"name":"id","type":"uint256","internalType":"uint256"}],"outputs":[],"stateMutability":"nonpayable"},{"type":"function","name":"addFunds","inputs":[{"name":"id","type":"uint256","internalType":"uint256"},{"name":"amount","type":"uint96","internalType":"uint96"}],"outputs":[],"stateMutability":"nonpayable"},{"type":"function","name":"cancelUpkeep","inputs":[{"name":"id","type":"uint256","internalType":"uint256"}],"outputs":[],"stateMutability":"nonpayable"},{"type":"function","name":"checkUpkeep","inputs":[{"name":"id","type":"uint256","internalType":"uint256"}],"outputs":[{"name":"upkeepNeeded","type":"bool","internalType":"bool"},{"name":"performData","type":"bytes","internalType":"bytes"},{"name":"upkeepFailureReason","type":"uint8","internalType":"enum UpkeepFailureReason"},{"name":"gasUsed","type":"uint256","internalType":"uint256"},{"name":"fastGasWei","type":"uint256","internalType":"uint256"},{"name":"linkNative","type":"uint256","internalType":"uint256"}],"stateMutability":"nonpayable"},{"type":"function","name":"getFastGasFeedAddress","inputs":[],"outputs":[{"name":"","type":"address","internalType":"address"}],"stateMutability":"view"},{"type":"function","name":"getLinkAddress","inputs":[],"outputs":[{"name":"","type":"address","internalType":"address"}],"stateMutability":"view"},{"type":"function","name":"getLinkNativeFeedAddress","inputs":[],"outputs":[{"name":"","type":"address","internalType":"address"}],"stateMutability":"view"},{"type":"function","name":"getMode","inputs":[],"outputs":[{"name":"","type":"uint8","internalType":"enum KeeperRegistryBase2_0.Mode"}],"stateMutability":"view"},{"type":"function","name":"migrateUpkeeps","inputs":[{"name":"ids","type":"uint256[]","internalType":"uint256[]"},{"name":"destination","type":"address","internalType":"address"}],"outputs":[],"stateMutability":"nonpayable"},{"type":"function","name":"owner","inputs":[],"outputs":[{"name":"","type":"address","internalType":"address"}],"stateMutability":"view"},{"type":"function","name":"pause","inputs":[],"outputs":[],"stateMutability":"nonpayable"},{"type":"function","name":"pauseUpkeep","inputs":[{"name":"id","type":"uint256","internalType":"uint256"}],"outputs":[],"stateMutability":"nonpayable"},{"type":"function","name":"receiveUpkeeps","inputs":[{"name":"encodedUpkeeps","type":"bytes","internalType":"bytes"}],"outputs":[],"stateMutability":"nonpayable"},{"type":"function","name":"recoverFunds","inputs":[],"outputs":[],"stateMutability":"nonpayable"},{"type":"function","name":"registerUpkeep","inputs":[{"name":"target","type":"address","internalType":"address"},{"name":"gasLimit","type":"uint32","internalType":"uint32"},{"name":"admin","type":"address","internalType":"address"},{"name":"checkData","type":"bytes","internalType":"bytes"},{"name":"offchainConfig","type":"bytes","internalType":"bytes"}],"outputs":[{"name":"id","type":"uint256","internalType":"uint256"}],"stateMutability":"nonpayable"},{"type":"function","name":"setPayees","inputs":[{"name":"payees","type":"address[]","internalType":"address[]"}],"outputs":[],"stateMutability":"nonpayable"},{"type":"function","name":"setPeerRegistryMigrationPermission","inputs":[{"name":"peer","type":"address","internalType":"address"},{"name":"permission","type":"uint8","internalType":"enum KeeperRegistryBase2_0.MigrationPermission"}],"outputs":[],"stateMutability":"nonpayable"},{"type":"function","name":"setUpkeepGasLimit","inputs":[{"name":"id","type":"uint256","internalType":"uint256"},{"name":"gasLimit","type":"uint32","internalType":"uint32"}],"outputs":[],"stateMutability":"nonpayable"},{"type":"function","name":"setUpkeepOffchainConfig","inputs":[{"name":"id","type":"uint256","internalType":"uint256"},{"name":"config","type":"bytes","internalType":"bytes"}],"outputs":[],"stateMutability":"nonpayable"},{"type":"function","name":"transferOwnership","inputs":[{"name":"to","type":"address","internalType":"address"}],"outputs":[],"stateMutability":"nonpayable"},{"type":"function","name":"transferPayeeship","inputs":[{"name":"transmitter","type":"address","internalType":"address"},{"name":"proposed","type":"address","internalType":"address"}],"outputs":[],"stateMutability":"nonpayable"},{"type":"function","name":"transferUpkeepAdmin","inputs":[{"name":"id","type":"uint256","internalType":"uint256"},{"name":"proposed","type":"address","internalType":"address"}],"outputs":[],"stateMutability":"nonpayable"},{"type":"function","name":"unpause","inputs":[],"outputs":[],"stateMutability":"nonpayable"},{"type":"function","name":"unpauseUpkeep","inputs":[{"name":"id","type":"uint256","internalType":"uint256"}],"outputs":[],"stateMutability":"nonpayable"},{"type":"function","name":"updateCheckData","inputs":[{"name":"id","type":"uint256","internalType":"uint256"},{"name":"newCheckData","type":"bytes","internalType":"bytes"}],"outputs":[],"stateMutability":"nonpayable"},{"type":"function","name":"withdrawFunds","inputs":[{"name":"id","type":"uint256","internalType":"uint256"},{"name":"to","type":"address","internalType":"address"}],"outputs":[],"stateMutability":"nonpayable"},{"type":"function","name":"withdrawOwnerFunds","inputs":[],"outputs":[],"stateMutability":"nonpayable"},{"type":"function","name":"withdrawPayment","inputs":[{"name":"from","type":"address","internalType":"address"},{"name":"to","type":"address","internalType":"address"}],"outputs":[],"stateMutability":"nonpayable"},{"type":"event","name":"CancelledUpkeepReport","inputs":[{"name":"id","type":"uint256","indexed":true,"internalType":"uint256"}],"anonymous":false},{"type":"event","name":"FundsAdded","inputs":[{"name":"id","type":"uint256","indexed":true,"internalType":"uint256"},{"name":"from","type":"address","indexed":true,"internalType":"address"},{"name":"amount","type":"uint96","indexed":false,"internalType":"uint96"}],"anonymous":false},{"type":"event","name":"FundsWithdrawn","inputs":[{"name":"id","type":"uint256","indexed":true,"internalType":"uint256"},{"name":"amount","type":"uint256","indexed":false,"internalType":"uint256"},{"name":"to","type":"address","indexed":false,"internalType":"address"}],"anonymous":false},{"type":"event","name":"InsufficientFundsUpkeepReport","inputs":[{"name":"id","type":"uint256","indexed":true,"internalType":"uint256"}],"anonymous":false},{"type":"event","name":"OwnerFundsWithdrawn","inputs":[{"name":"amount","type":"uint96","indexed":false,"internalType":"uint96"}],"anonymous":false},{"type":"event","name":"OwnershipTransferRequested","inputs":[{"name":"from","type":"address","indexed":true,"internalType":"address"},{"name":"to","type":"address","indexed":true,"internalType":"address"}],"anonymous":false},{"type":"event","name":"OwnershipTransferred","inputs":[{"name":"from","type":"address","indexed":true,"internalType":"address"},{"name":"to","type":"address","indexed":true,"internalType":"address"}],"anonymous":false},{"type":"event","name":"Paused","inputs":[{"name":"account","type":"address","indexed":false,"internalType":"address"}],"anonymous":false},{"type":"event","name":"PayeesUpdated","inputs":[{"name":"transmitters","type":"address[]","indexed":false,"internalType":"address[]"},{"name":"payees","type":"address[]","indexed":false,"internalType":"address[]"}],"anonymous":false},{"type":"event","name":"PayeeshipTransferRequested","inputs":[{"name":"transmitter","type":"address","indexed":true,"internalType":"address"},{"name":"from","type":"address","indexed":true,"internalType":"address"},{"name":"to","type":"address","indexed":true,"internalType":"address"}],"anonymous":false},{"type":"event","name":"PayeeshipTransferred","inputs":[{"name":"transmitter","type":"address","indexed":true,"internalType":"address"},{"name":"from","type":"address","indexed":true,"internalType":"address"},{"name":"to","type":"address","indexed":true,"internalType":"address"}],"anonymous":false},{"type":"event","name":"PaymentWithdrawn","inputs":[{"name":"transmitter","type":"address","indexed":true,"internalType":"address"},{"name":"amount","type":"uint256","indexed":true,"internalType":"uint256"},{"name":"to","type":"address","indexed":true,"internalType":"address"},{"name":"payee","type":"address","indexed":false,"internalType":"address"}],"anonymous":false},{"type":"event","name":"ReorgedUpkeepReport","inputs":[{"name":"id","type":"uint256","indexed":true,"internalType":"uint256"}],"anonymous":false},{"type":"event","name":"StaleUpkeepReport","inputs":[{"name":"id","type":"uint256","indexed":true,"internalType":"uint256"}],"anonymous":false},{"type":"event","name":"Unpaused","inputs":[{"name":"account","type":"address","indexed":false,"internalType":"address"}],"anonymous":false},{"type":"event","name":"UpkeepAdminTransferRequested","inputs":[{"name":"id","type":"uint256","indexed":true,"internalType":"uint256"},{"name":"from","type":"address","indexed":true,"internalType":"address"},{"name":"to","type":"address","indexed":true,"internalType":"address"}],"anonymous":false},{"type":"event","name":"UpkeepAdminTransferred","inputs":[{"name":"id","type":"uint256","indexed":true,"internalType":"uint256"},{"name":"from","type":"address","indexed":true,"internalType":"address"},{"name":"to","type":"address","indexed":true,"internalType":"address"}],"anonymous":false},{"type":"event","name":"UpkeepCanceled","inputs":[{"name":"id","type":"uint256","indexed":true,"internalType":"uint256"},{"name":"atBlockHeight","type":"uint64","indexed":true,"internalType":"uint64"}],"anonymous":false},{"type":"event","name":"UpkeepCheckDataUpdated","inputs":[{"name":"id","type":"uint256","indexed":true,"internalType":"uint256"},{"name":"newCheckData","type":"bytes","indexed":false,"internalType":"bytes"}],"anonymous":false},{"type":"event","name":"UpkeepGasLimitSet","inputs":[{"name":"id","type":"uint256","indexed":true,"internalType":"uint256"},{"name":"gasLimit","type":"uint96","indexed":false,"internalType":"uint96"}],"anonymous":false},{"type":"event","name":"UpkeepMigrated","inputs":[{"name":"id","type":"uint256","indexed":true,"internalType":"uint256"},{"name":"remainingBalance","type":"uint256","indexed":false,"internalType":"uint256"},{"name":"destination","type":"address","indexed":false,"internalType":"address"}],"anonymous":false},{"type":"event","name":"UpkeepOffchainConfigSet","inputs":[{"name":"id","type":"uint256","indexed":true,"internalType":"uint256"},{"name":"offchainConfig","type":"bytes","indexed":false,"internalType":"bytes"}],"anonymous":false},{"type":"event","name":"UpkeepPaused","inputs":[{"name":"id","type":"uint256","indexed":true,"internalType":"uint256"}],"anonymous":false},{"type":"event","name":"UpkeepPerformed","inputs":[{"name":"id","type":"uint256","indexed":true,"internalType":"uint256"},{"name":"success","type":"bool","indexed":true,"internalType":"bool"},{"name":"checkBlockNumber","type":"uint32","indexed":false,"internalType":"uint32"},{"name":"gasUsed","type":"uint256","indexed":false,"internalType":"uint256"},{"name":"gasOverhead","type":"uint256","indexed":false,"internalType":"uint256"},{"name":"totalPayment","type":"uint96","indexed":false,"internalType":"uint96"}],"anonymous":false},{"type":"event","name":"UpkeepReceived","inputs":[{"name":"id","type":"uint256","indexed":true,"internalType":"uint256"},{"name":"startingBalance","type":"uint256","indexed":false,"internalType":"uint256"},{"name":"importedFrom","type":"address","indexed":false,"internalType":"address"}],"anonymous":false},{"type":"event","name":"UpkeepRegistered","inputs":[{"name":"id","type":"uint256","indexed":true,"internalType":"uint256"},{"name":"executeGas","type":"uint32","indexed":false,"internalType":"uint32"},{"name":"admin","type":"address","indexed":false,"internalType":"address"}],"anonymous":false},{"type":"event","name":"UpkeepUnpaused","inputs":[{"name":"id","type":"uint256","indexed":true,"internalType":"uint256"}],"anonymous":false},{"type":"error","name":"ArrayHasNoEntries","inputs":[]},{"type":"error","name":"CannotCancel","inputs":[]},{"type":"error","name":"CheckDataExceedsLimit","inputs":[]},{"type":"error","name":"ConfigDigestMismatch","inputs":[]},{"type":"error","name":"DuplicateEntry","inputs":[]},{"type":"error","name":"DuplicateSigners","inputs":[]},{"type":"error","name":"GasLimitCanOnlyIncrease","inputs":[]},{"type":"error","name":"GasLimitOutsideRange","inputs":[]},{"type":"error","name":"IncorrectNumberOfFaultyOracles","inputs":[]},{"type":"error","name":"IncorrectNumberOfSignatures","inputs":[]},{"type":"error","name":"IncorrectNumberOfSigners","inputs":[]},{"type":"error","name":"IndexOutOfRange","inputs":[]},{"type":"error","name":"InsufficientFunds","inputs":[]},{"type":"error","name":"InvalidDataLength","inputs":[]},{"type":"error","name":"InvalidPayee","inputs":[]},{"type":"error","name":"InvalidRecipient","inputs":[]},{"type":"error","name":"InvalidReport","inputs":[]},{"type":"error","name":"MaxCheckDataSizeCanOnlyIncrease","inputs":[]},{"type":"error","name":"MaxPerformDataSizeCanOnlyIncrease","inputs":[]},{"type":"error","name":"MigrationNotPermitted","inputs":[]},{"type":"error","name":"NotAContract","inputs":[]},{"type":"error","name":"OnchainConfigNonEmpty","inputs":[]},{"type":"error","name":"OnlyActiveSigners","inputs":[]},{"type":"error","name":"OnlyActiveTransmitters","inputs":[]},{"type":"error","name":"OnlyCallableByAdmin","inputs":[]},{"type":"error","name":"OnlyCallableByLINKToken","inputs":[]},{"type":"error","name":"OnlyCallableByOwnerOrAdmin","inputs":[]},{"type":"error","name":"OnlyCallableByOwnerOrRegistrar","inputs":[]},{"type":"error","name":"OnlyCallableByPayee","inputs":[]},{"type":"error","name":"OnlyCallableByProposedAdmin","inputs":[]},{"type":"error","name":"OnlyCallableByProposedPayee","inputs":[]},{"type":"error","name":"OnlyPausedUpkeep","inputs":[]},{"type":"error","name":"OnlySimulatedBackend","inputs":[]},{"type":"error","name":"OnlyUnpausedUpkeep","inputs":[]},{"type":"error","name":"ParameterLengthError","inputs":[]},{"type":"error","name":"PaymentGreaterThanAllLINK","inputs":[]},{"type":"error","name":"ReentrantCall","inputs":[]},{"type":"error","name":"RegistryPaused","inputs":[]},{"type":"error","name":"RepeatedSigner","inputs":[]},{"type":"error","name":"RepeatedTransmitter","inputs":[]},{"type":"error","name":"TargetCheckReverted","inputs":[{"name":"reason","type":"bytes","internalType":"bytes"}]},{"type":"error","name":"TooManyOracles","inputs":[]},{"type":"error","name":"TranscoderNotSet","inputs":[]},{"type":"error","name":"UpkeepAlreadyExists","inputs":[]},{"type":"error","name":"UpkeepCancelled","inputs":[]},{"type":"error","name":"UpkeepNotCanceled","inputs":[]},{"type":"error","name":"UpkeepNotNeeded","inputs":[]},{"type":"error","name":"ValueNotChanged","inputs":[]}],"bytecode":{"object":"0x6101006040523480156200001257600080fd5b5060405162004efb38038062004efb8339810160408190526200003591620001ef565b838383833380600081620000905760405162461bcd60e51b815260206004820152601860248201527f43616e6e6f7420736574206f776e657220746f207a65726f000000000000000060448201526064015b60405180910390fd5b600080546001600160a01b0319166001600160a01b0384811691909117909155811615620000c357620000c38162000126565b505050836002811115620000db57620000db62000251565b60e0816002811115620000f257620000f262000251565b60f81b9052506001600160601b0319606093841b811660805291831b821660a05290911b1660c05250620002679350505050565b6001600160a01b038116331415620001815760405162461bcd60e51b815260206004820152601760248201527f43616e6e6f74207472616e7366657220746f2073656c66000000000000000000604482015260640162000087565b600180546001600160a01b0319166001600160a01b0383811691821790925560008054604051929316917fed8889f560326eb138920d842192f0eb3dd22b4f139c87a2c57538e05bae12789190a350565b80516001600160a01b0381168114620001ea57600080fd5b919050565b600080600080608085870312156200020657600080fd5b8451600381106200021657600080fd5b93506200022660208601620001d2565b92506200023660408601620001d2565b91506200024660608601620001d2565b905092959194509250565b634e487b7160e01b600052602160045260246000fd5b60805160601c60a05160601c60c05160601c60e05160f81c614bf3620003086000396000818161022401528181612b4b01528181612c03015281816136ba015261383501526000818161026e01526132f701526000818161039d01526133d301526000818161040401528181610be701528181610dfb0152818161157301528181611a9301528181611cc90152818161207201526120f80152614bf36000f3fe608060405234801561001057600080fd5b50600436106101da5760003560e01c80638dcf0fe711610104578063b121e147116100a2578063ca30e60311610071578063ca30e60314610402578063eb5dcd6c14610428578063f2fde38b1461043b578063f7d334ba1461044e57600080fd5b8063b121e147146103c1578063b148ab6b146103d4578063b79550be146103e7578063c8048022146103ef57600080fd5b80639fab4386116100de5780639fab438614610362578063a710b22114610375578063a72aa27e14610388578063b10b673c1461039b57600080fd5b80638dcf0fe7146103295780638e86139b1461033c578063948108f71461034f57600080fd5b80636ded9eae1161017c5780638456cb591161014b5780638456cb59146102ea57806385c1b0ba146102f25780638765ecbe146103055780638da5cb5b1461031857600080fd5b80636ded9eae146102a6578063744bfe61146102c757806379ba5097146102da5780637d9b97e0146102e257600080fd5b80633f4ba83a116101b85780633f4ba83a1461021a5780634b4fd03b146102225780635165f2f5146102595780636709d0e51461026c57600080fd5b8063187256e8146101df5780631a2af011146101f45780633b9cce5914610207575b600080fd5b6101f26101ed366004613ef9565b610473565b005b6101f2610202366004614279565b6104b9565b6101f2610215366004613fd5565b61058f565b6101f2610733565b7f000000000000000000000000000000000000000000000000000000000000000060405161025091906147a6565b60405180910390f35b6101f2610267366004614260565b61077e565b7f00000000000000000000000000000000000000000000000000000000000000005b6040516001600160a01b039091168152602001610250565b6102b96102b4366004613f34565b610888565b604051908152602001610250565b6101f26102d5366004614279565b610a24565b6101f2610cbc565b6101f2610d6b565b6101f2610e84565b6101f2610300366004614016565b610ecf565b6101f2610313366004614260565b6115fe565b6000546001600160a01b031661028e565b6101f261033736600461429c565b611710565b6101f261034a3660046141f7565b611772565b6101f261035d36600461430a565b611966565b6101f261037036600461429c565b611b5d565b6101f2610383366004613ec6565b611be2565b6101f26103963660046142e7565b611da5565b7f000000000000000000000000000000000000000000000000000000000000000061028e565b6101f26103cf366004613eab565b611e52565b6101f26103e2366004614260565b611eff565b6101f2612052565b6101f26103fd366004614260565b612165565b7f000000000000000000000000000000000000000000000000000000000000000061028e565b6101f2610436366004613ec6565b612415565b6101f2610449366004613eab565b6124f6565b61046161045c366004614260565b61250a565b6040516102509695949392919061466c565b61047b612a68565b6001600160a01b0382166000908152601660205260409020805482919060ff191660018360038111156104b0576104b0614b0f565b02179055505050565b6104c282612abd565b6001600160a01b0381163314156104ec57604051638c8728c760e01b815260040160405180910390fd5b6001600160a01b03811661051357604051634e46966960e11b815260040160405180910390fd5b6000828152600660205260409020546001600160a01b0382811691161461058b5760008281526006602052604080822080546001600160a01b0319166001600160a01b03851690811790915590519091339185917fb1cbb2c4b8480034c27e06da5f096b8233a8fd4497028593a41ff6df79726b3591a45b5050565b610597612a68565b600b5481146105b9576040516367aa603560e11b815260040160405180910390fd5b60005b600b548110156106f2576000600b82815481106105db576105db614b3b565b60009182526020808320909101546001600160a01b03908116808452600c9092526040832054919350169085858581811061061857610618614b3b565b905060200201602081019061062d9190613eab565b90506001600160a01b038116158061067f57506001600160a01b0382161580159061066a5750806001600160a01b0316826001600160a01b031614155b801561067f57506001600160a01b0381811614155b1561069d57604051631670f44760e31b815260040160405180910390fd5b6001600160a01b03818116146106dc576001600160a01b038381166000908152600c6020526040902080546001600160a01b0319169183169190911790555b50505080806106ea90614aa4565b9150506105bc565b507fa46de38886467c59be07a0675f14781206a5477d871628af46c2443822fcb725600b8383604051610727939291906144ba565b60405180910390a15050565b61073b612a68565b600f805460ff60701b191690556040513381527f5db9ee0a495bf2e6ff9c91a7834c1ba4fdd244a5e8aa4e537bd38aeae4b073aa906020015b60405180910390a1565b61078781612abd565b600081815260046020908152604091829020825160e081018452815463ffffffff8082168352600160201b8204811694830194909452600160401b810460ff161515948201859052600160481b90046001600160a01b031660608201526001909101546001600160601b038082166080840152600160601b82041660a0830152600160c01b900490911660c082015290610834576040516306e229e160e21b815260040160405180910390fd5b6000828152600460205260409020805460ff60401b19169055610858600283612b30565b5060405182907f7bada562044eb163f6b4003c4553e4e62825344c0418eea087bed5ee05a4745690600090a25050565b600080546001600160a01b031633148015906108b65750601154600160601b90046001600160a01b03163314155b156108d45760405163d48b678b60e01b815260040160405180910390fd5b6108f060016108e1612b45565b6108eb91906149fa565b612bfd565b6012546040805160208101939093523090830152600160401b900463ffffffff1660608201526080016040516020818303038152906040528051906020012060001c90506109798189898960008a8a8080601f01602080910402602001604051908101604052809392919081815260200183838082843760009201829052509250612d57915050565b60128054600160401b900463ffffffff1690600861099683614abf565b825463ffffffff9182166101009390930a92830291909202199091161790555060008181526017602052604090206109cf908484613a02565b506040805163ffffffff891681526001600160a01b038816602082015282917fbae366358c023f887e791d7a62f2e4316f1026bd77f6fb49501a917b3bc5d012910160405180910390a2979650505050505050565b600f54600160781b900460ff1615610a4f576040516306fda65d60e31b815260040160405180910390fd5b600f805460ff60781b1916600160781b1790556001600160a01b038116610a8957604051634e46966960e11b815260040160405180910390fd5b6000828152600460209081526040808320815160e081018352815463ffffffff8082168352600160201b820481168387015260ff600160401b8304161515838601526001600160a01b03600160481b909204821660608401526001909301546001600160601b038082166080850152600160601b82041660a0840152600160c01b900490921660c082015286855260059093529220549091163314610b415760405163523e0b8360e11b815260040160405180910390fd5b610b49612b45565b816020015163ffffffff161115610b76576040516001627b1a2360e01b0319815260040160405180910390fd5b600083815260046020526040902060010154601554600160601b9091046001600160601b031690610ba89082906149fa565b6015556000848152600460208190526040918290206001018054600160601b600160c01b0319169055905163a9059cbb60e01b81526001600160a01b037f0000000000000000000000000000000000000000000000000000000000000000169163a9059cbb91610c1c918791869101614498565b602060405180830381600087803b158015610c3657600080fd5b505af1158015610c4a573d6000803e3d6000fd5b505050506040513d601f19601f82011682018060405250810190610c6e9190614171565b50837ff3b5906e5672f3e524854103bcafbbdba80dbdfeca2c35e116127b1060a683188285604051610ca1929190614823565b60405180910390a25050600f805460ff60781b191690555050565b6001546001600160a01b03163314610d145760405162461bcd60e51b815260206004820152601660248201527526bab9ba10313290383937b837b9b2b21037bbb732b960511b60448201526064015b60405180910390fd5b60008054336001600160a01b0319808316821784556001805490911690556040516001600160a01b0390921692909183917f8be0079c531659141344cd1fd0a4f28419497f9722a3daafe3b4186f6b6457e091a350565b610d73612a68565b6011546015546001600160601b0390911690610d909082906149fa565b601555601180546bffffffffffffffffffffffff191690556040516001600160601b03821681527f1d07d0b0be43d3e5fee41a80b579af370affee03fa595bf56d5d4c19328162f19060200160405180910390a160405163a9059cbb60e01b81526001600160a01b037f0000000000000000000000000000000000000000000000000000000000000000169063a9059cbb90610e329033908590600401614498565b602060405180830381600087803b158015610e4c57600080fd5b505af1158015610e60573d6000803e3d6000fd5b505050506040513d601f19601f8201168201806040525081019061058b9190614171565b610e8c612a68565b600f805460ff60701b1916600160701b1790556040513381527f62e78cea01bee320cd4e420270b5ea74000d11b0c9f74754ebdbfc544b05a25890602001610774565b60016001600160a01b03821660009081526016602052604090205460ff166003811115610efe57610efe614b0f565b14158015610f39575060036001600160a01b03821660009081526016602052604090205460ff166003811115610f3657610f36614b0f565b14155b15610f57576040516303afbb0f60e21b815260040160405180910390fd5b601054600160601b90046001600160a01b0316610f875760405163d12d7d8d60e01b815260040160405180910390fd5b81610fa557604051632c2fc94160e01b815260040160405180910390fd5b6040805160e081018252600080825260208201819052918101829052606081018290526080810182905260a0810182905260c08101829052600080856001600160401b03811115610ff857610ff8614b51565b60405190808252806020026020018201604052801561102b57816020015b60608152602001906001900390816110165790505b5090506000866001600160401b0381111561104857611048614b51565b604051908082528060200260200182016040528015611071578160200160208202803683370190505b5090506000876001600160401b0381111561108e5761108e614b51565b6040519080825280602002602001820160405280156110f557816020015b6040805160e08101825260008082526020808301829052928201819052606082018190526080820181905260a0820181905260c082015282526000199092019101816110ac5790505b50905060005b888110156113b75789898281811061111557611115614b3b565b60209081029290920135600081815260048452604090819020815160e081018352815463ffffffff8082168352600160201b8204811697830197909752600160401b810460ff16151593820193909352600160481b9092046001600160a01b03166060830152600101546001600160601b038082166080840152600160601b82041660a0830152600160c01b900490931660c084015298509096506111bb905087612abd565b858282815181106111ce576111ce614b3b565b60200260200101819052506007600088815260200190815260200160002080546111f790614a69565b80601f016020809104026020016040519081016040528092919081815260200182805461122390614a69565b80156112705780601f1061124557610100808354040283529160200191611270565b820191906000526020600020905b81548152906001019060200180831161125357829003601f168201915b505050505084828151811061128757611287614b3b565b60200260200101819052506005600088815260200190815260200160002060009054906101000a90046001600160a01b03168382815181106112cb576112cb614b3b565b6001600160a01b039092166020928302919091019091015260a08601516112fb906001600160601b0316866148e7565b600088815260046020908152604080832080546001600160e81b031916815560010180546001600160e01b03191690556007909152812091965061133f9190613a86565b600087815260066020526040902080546001600160a01b031916905561136660028861307c565b50867fb38647142fbb1ea4c000fc4569b37a4e9a9f6313317b84ee3e5326c1a6cd06ff8760a001518a60405161139d929190614823565b60405180910390a2806113af81614aa4565b9150506110fb565b50836015546113c691906149fa565b6015556040516000906113e5908b908b90859088908890602001614550565b60408051601f198184030181529190526010549091506001600160a01b03808a1691638e86139b91600160601b9091041663c71249ab60028c6001600160a01b031663aab9edd66040518163ffffffff1660e01b815260040160206040518083038186803b15801561145657600080fd5b505afa15801561146a573d6000803e3d6000fd5b505050506040513d601f19601f8201168201806040525081019061148e919061437d565b866040518463ffffffff1660e01b81526004016114ad939291906147f5565b60006040518083038186803b1580156114c557600080fd5b505afa1580156114d9573d6000803e3d6000fd5b505050506040513d6000823e601f3d908101601f19168201604052611501919081019061422c565b6040518263ffffffff1660e01b815260040161151d91906146eb565b600060405180830381600087803b15801561153757600080fd5b505af115801561154b573d6000803e3d6000fd5b505060405163a9059cbb60e01b81526001600160a01b038b81166004830152602482018990527f000000000000000000000000000000000000000000000000000000000000000016925063a9059cbb9150604401602060405180830381600087803b1580156115b957600080fd5b505af11580156115cd573d6000803e3d6000fd5b505050506040513d601f19601f820116820180604052508101906115f19190614171565b5050505050505050505050565b61160781612abd565b600081815260046020908152604091829020825160e081018452815463ffffffff8082168352600160201b8204811694830194909452600160401b810460ff1615801595830195909552600160481b90046001600160a01b031660608201526001909101546001600160601b038082166080840152600160601b82041660a0830152600160c01b900490911660c0820152906116b657604051631452db0960e21b815260040160405180910390fd5b6000828152600460205260409020805460ff60401b1916600160401b1790556116e060028361307c565b5060405182907f8ab10247ce168c27748e656ecf852b951fcaac790c18106b19aa0ae57a8b741f90600090a25050565b61171983612abd565b6000838152601760205260409020611732908383613a02565b50827f3e8740446213c8a77d40e08f79136ce3f347d13ed270a6ebdf57159e0faf485083836040516117659291906146bc565b60405180910390a2505050565b60023360009081526016602052604090205460ff16600381111561179857611798614b0f565b141580156117ca575060033360009081526016602052604090205460ff1660038111156117c7576117c7614b0f565b14155b156117e8576040516303afbb0f60e21b815260040160405180910390fd5b60008080806117f985870187614069565b935093509350935060005b845181101561195d576118db85828151811061182257611822614b3b565b602002602001015185838151811061183c5761183c614b3b565b60200260200101516060015186848151811061185a5761185a614b3b565b60200260200101516000015185858151811061187857611878614b3b565b602002602001015188868151811061189257611892614b3b565b602002602001015160a001518887815181106118b0576118b0614b3b565b60200260200101518a88815181106118ca576118ca614b3b565b602002602001015160400151612d57565b8481815181106118ed576118ed614b3b565b60200260200101517f74931a144e43a50694897f241d973aecb5024c0e910f9bb80a163ea3c1cf5a7185838151811061192857611928614b3b565b602002602001015160a0015133604051611943929190614823565b60405180910390a28061195581614aa4565b915050611804565b50505050505050565b600082815260046020908152604091829020825160e081018452815463ffffffff8082168352600160201b82048116948301859052600160401b820460ff16151595830195909552600160481b90046001600160a01b031660608201526001909101546001600160601b038082166080840152600160601b82041660a0830152600160c01b9004831660c08201529114611a1357604051634e0041d160e11b815260040160405180910390fd5b818160a00151611a239190614924565b60008481526004602052604090206001018054600160601b600160c01b031916600160601b6001600160601b0393841602179055601554611a66918416906148e7565b6015556040516323b872dd60e01b81523360048201523060248201526001600160601b03831660448201527f00000000000000000000000000000000000000000000000000000000000000006001600160a01b0316906323b872dd90606401602060405180830381600087803b158015611adf57600080fd5b505af1158015611af3573d6000803e3d6000fd5b505050506040513d601f19601f82011682018060405250810190611b179190614171565b506040516001600160601b0383168152339084907fafd24114486da8ebfc32f3626dada8863652e187461aa74d4bfa7348915062039060200160405180910390a3505050565b611b6683612abd565b601254600160a01b900463ffffffff16811115611b965760405163ae7235df60e01b815260040160405180910390fd5b6000838152600760205260409020611baf908383613a02565b50827f7b778136e5211932b51a145badd01959415e79e051a933604b3d323f862dcabf83836040516117659291906146bc565b6001600160a01b038116611c0957604051634e46966960e11b815260040160405180910390fd5b6001600160a01b038281166000908152600c6020526040902054163314611c435760405163cebf515b60e01b815260040160405180910390fd5b600f54600b54600091611c68918591600160801b90046001600160601b031690613088565b6001600160a01b038416600090815260086020526040902080546dffffffffffffffffffffffff000019169055601554909150611caf906001600160601b038316906149fa565b60155560405163a9059cbb60e01b81526001600160a01b037f0000000000000000000000000000000000000000000000000000000000000000169063a9059cbb90611d009085908590600401614498565b602060405180830381600087803b158015611d1a57600080fd5b505af1158015611d2e573d6000803e3d6000fd5b505050506040513d601f19601f82011682018060405250810190611d529190614171565b506040513381526001600160a01b03808416916001600160601b038416918616907f9819093176a1851202c7bcfa46845809b4e47c261866550e94ed3775d2f406989060200160405180910390a4505050565b6108fc8163ffffffff161080611dcd575060125463ffffffff600160201b9091048116908216115b15611deb576040516314c237fb60e01b815260040160405180910390fd5b611df482612abd565b600082815260046020908152604091829020805463ffffffff191663ffffffff8516908117909155915191825283917fc24c07e655ce79fba8a589778987d3c015bc6af1632bb20cf9182e02a65d972c910160405180910390a25050565b6001600160a01b038181166000908152600d6020526040902054163314611e8c576040516333a973d560e11b815260040160405180910390fd5b6001600160a01b038181166000818152600c602090815260408083208054336001600160a01b03198083168217909355600d909452828520805490921690915590519416939092849290917f78af32efdcad432315431e9b03d27e6cd98fb79c405fdc5af7c1714d9c0f75b39190a45050565b600081815260046020908152604091829020825160e081018452815463ffffffff8082168352600160201b82048116948301859052600160401b820460ff16151595830195909552600160481b90046001600160a01b031660608201526001909101546001600160601b038082166080840152600160601b82041660a0830152600160c01b9004831660c08201529114611fac57604051634e0041d160e11b815260040160405180910390fd5b6000828152600660205260409020546001600160a01b03163314611fe357604051636352a85360e01b815260040160405180910390fd5b60008281526005602090815260408083208054336001600160a01b031980831682179093556006909452828520805490921690915590516001600160a01b0390911692839186917f5cff4db96bef051785e999f44bfcd21c18823e034fb92dd376e3db4ce0feeb2c91a4505050565b61205a612a68565b6040516370a0823160e01b81523060048201526000907f00000000000000000000000000000000000000000000000000000000000000006001600160a01b0316906370a082319060240160206040518083038186803b1580156120bc57600080fd5b505afa1580156120d0573d6000803e3d6000fd5b505050506040513d601f19601f820116820180604052508101906120f491906141de565b90507f00000000000000000000000000000000000000000000000000000000000000006001600160a01b031663a9059cbb336015548461213491906149fa565b6040516001600160e01b031960e085901b1681526001600160a01b0390921660048301526024820152604401610e32565b6000818152600460209081526040808320815160e081018352815463ffffffff8082168352600160201b8204811695830186905260ff600160401b8304161515948301949094526001600160a01b03600160481b9091041660608201526001909101546001600160601b038082166080840152600160601b82041660a0830152600160c01b9004821660c0820152929114159061220a6000546001600160a01b031690565b6001600160a01b0316336001600160a01b031614905081801561224757508080156122455750612238612b45565b836020015163ffffffff16115b155b1561226557604051631f7806af60e31b815260040160405180910390fd5b8015801561228a57506000848152600560205260409020546001600160a01b03163314155b156122a857604051637dedc72b60e11b815260040160405180910390fd5b60006122b2612b45565b9050816122c7576122c46032826148e7565b90505b6000858152600460205260409020805463ffffffff808416600160201b0267ffffffff00000000199092169190911790915561230890600290879061307c16565b5060105460808501516001600160601b03918216916000911682111561235e5760808601516123379083614a11565b90508560a001516001600160601b0316816001600160601b0316111561235e575060a08501515b808660a0015161236e9190614a11565b60008881526004602052604090206001018054600160601b600160c01b031916600160601b6001600160601b03938416021790556011546123b191839116614924565b601180546bffffffffffffffffffffffff19166001600160601b03929092169190911790556040516001600160401b0384169088907f91cb3bb75cfbd718bbfccc56b7f53d92d7048ef4ca39a3b7b7c6d4af1f79118190600090a350505050505050565b6001600160a01b038281166000908152600c602052604090205416331461244f5760405163cebf515b60e01b815260040160405180910390fd5b6001600160a01b03811633141561247957604051638c8728c760e01b815260040160405180910390fd5b6001600160a01b038281166000908152600d602052604090205481169082161461058b576001600160a01b038281166000818152600d602052604080822080546001600160a01b0319169486169485179055513392917f84f7c7c80bb8ed2279b4aab5f61cd05e6374073d38f46d7f32de8c30e9e3836791a45050565b6124fe612a68565b6125078161320b565b50565b6000606060008060008061251c6132b5565b6000600f604051806101200160405290816000820160009054906101000a900460ff1660ff1660ff1681526020016000820160019054906101000a900463ffffffff1663ffffffff1663ffffffff1681526020016000820160059054906101000a900463ffffffff1663ffffffff1663ffffffff1681526020016000820160099054906101000a900462ffffff1662ffffff1662ffffff16815260200160008201600c9054906101000a900461ffff1661ffff1661ffff16815260200160008201600e9054906101000a900460ff1615151515815260200160008201600f9054906101000a900460ff161515151581526020016000820160109054906101000a90046001600160601b03166001600160601b03166001600160601b0316815260200160008201601c9054906101000a900463ffffffff1663ffffffff1663ffffffff168152505090506000600460008a81526020019081526020016000206040518060e00160405290816000820160009054906101000a900463ffffffff1663ffffffff1663ffffffff1681526020016000820160049054906101000a900463ffffffff1663ffffffff1663ffffffff1681526020016000820160089054906101000a900460ff161515151581526020016000820160099054906101000a90046001600160a01b03166001600160a01b03166001600160a01b031681526020016001820160009054906101000a90046001600160601b03166001600160601b03166001600160601b0316815260200160018201600c9054906101000a90046001600160601b03166001600160601b03166001600160601b031681526020016001820160189054906101000a900463ffffffff1663ffffffff1663ffffffff1681525050905063ffffffff8016816020015163ffffffff16146127dd575050604080516020810190915260008082529650945060019350859150819050612a5f565b80604001511561280c575050604080516020810190915260008082529650945060029350859150819050612a5f565b612815826132d4565b825160125492965090945060009161283e918591600160c01b900463ffffffff168888866134b6565b9050806001600160601b03168260a001516001600160601b03161015612880576000604051806020016040528060008152506006985098509850505050612a5f565b5a60008b81526007602052604080822090519298509091636e04ff0d60e01b916128ac916024016146fe565b60408051601f198184030181529181526020820180516001600160e01b03166001600160e01b0319909416939093179092526060850151601254925191935060009283926001600160a01b039092169163ffffffff9091169061291090869061447c565b60006040518083038160008787f1925050503d806000811461294e576040519150601f19603f3d011682016040523d82523d6000602084013e612953565b606091505b50915091505a612963908a6149fa565b98508161297357600399506129f4565b80806020019051810190612987919061418e565b909c5090508b6129b65760006040518060200160405280600081525060049b509b509b50505050505050612a5f565b6012548151600160c01b90910463ffffffff1610156129f45760006040518060200160405280600081525060059b509b509b50505050505050612a5f565b60405180606001604052806001612a09612b45565b612a1391906149fa565b63ffffffff168152602001612a2b60016108e1612b45565b815260200182815250604051602001612a4491906147c0565b6040516020818303038152906040529a50819b505050505050505b91939550919395565b6000546001600160a01b03163314612abb5760405162461bcd60e51b815260206004820152601660248201527527b7363c9031b0b63630b1363290313c9037bbb732b960511b6044820152606401610d0b565b565b6000818152600560205260409020546001600160a01b03163314612af45760405163523e0b8360e11b815260040160405180910390fd5b600081815260046020526040902054600160201b900463ffffffff9081161461250757604051634e0041d160e11b815260040160405180910390fd5b6000612b3c83836134ff565b90505b92915050565b600060017f00000000000000000000000000000000000000000000000000000000000000006002811115612b7b57612b7b614b0f565b1415612bf85760646001600160a01b031663a3b1b31d6040518163ffffffff1660e01b815260040160206040518083038186803b158015612bbb57600080fd5b505afa158015612bcf573d6000803e3d6000fd5b505050506040513d601f19601f82011682018060405250810190612bf391906141de565b905090565b504390565b600060017f00000000000000000000000000000000000000000000000000000000000000006002811115612c3357612c33614b0f565b1415612d4d57600060646001600160a01b031663a3b1b31d6040518163ffffffff1660e01b815260040160206040518083038186803b158015612c7557600080fd5b505afa158015612c89573d6000803e3d6000fd5b505050506040513d601f19601f82011682018060405250810190612cad91906141de565b90508083101580612cc85750610100612cc684836149fa565b115b15612cd65750600092915050565b6040516315a03d4160e11b815260048101849052606490632b407a829060240160206040518083038186803b158015612d0e57600080fd5b505afa158015612d22573d6000803e3d6000fd5b505050506040513d601f19601f82011682018060405250810190612d4691906141de565b9392505050565b504090565b919050565b600f54600160701b900460ff1615612d82576040516309148bcd60e21b815260040160405180910390fd5b6001600160a01b0386163b612daa576040516309ee12d560e01b815260040160405180910390fd5b6012548251600160a01b90910463ffffffff161015612ddc5760405163ae7235df60e01b815260040160405180910390fd5b6108fc8563ffffffff161080612e04575060125463ffffffff600160201b9091048116908616115b15612e22576040516314c237fb60e01b815260040160405180910390fd5b600087815260046020526040902054600160481b90046001600160a01b031615612e5f57604051636e3b930b60e01b815260040160405180910390fd5b6040518060e001604052808663ffffffff16815260200163ffffffff801681526020018215158152602001876001600160a01b0316815260200160006001600160601b03168152602001846001600160601b03168152602001600063ffffffff168152506004600089815260200190815260200160002060008201518160000160006101000a81548163ffffffff021916908363ffffffff16021790555060208201518160000160046101000a81548163ffffffff021916908363ffffffff16021790555060408201518160000160086101000a81548160ff02191690831515021790555060608201518160000160096101000a8154816001600160a01b0302191690836001600160a01b0316021790555060808201518160010160006101000a8154816001600160601b0302191690836001600160601b0316021790555060a082015181600101600c6101000a8154816001600160601b0302191690836001600160601b0316021790555060c08201518160010160186101000a81548163ffffffff021916908363ffffffff160217905550905050836005600089815260200190815260200160002060006101000a8154816001600160a01b0302191690836001600160a01b03160217905550826001600160601b031660155461304491906148e7565b6015556000878152600760209081526040909120835161306692850190613ac0565b50613072600288612b30565b5050505050505050565b6000612b3c838361354e565b6001600160a01b03831660009081526008602090815260408083208151608081018352905460ff80821615158352610100820416938201939093526001600160601b03620100008404811692820192909252600160701b909204166060820181905282906130f69086614a11565b905060006131048583614963565b905080836040018181516131189190614924565b6001600160601b03908116909152871660608501525061313885826149d4565b6131429083614a11565b6011805460009061315d9084906001600160601b0316614924565b825461010092830a6001600160601b038181021990921692821602919091179092556001600160a01b039990991660009081526008602090815260409182902087518154928901519389015160609099015161ffff1990931690151561ff0019161760ff909316909b029190911762010000600160d01b03191662010000878416026bffffffffffffffffffffffff60701b191617600160701b919092160217909755509095945050505050565b6001600160a01b0381163314156132645760405162461bcd60e51b815260206004820152601760248201527f43616e6e6f74207472616e7366657220746f2073656c660000000000000000006044820152606401610d0b565b600180546001600160a01b0319166001600160a01b0383811691821790925560008054604051929316917fed8889f560326eb138920d842192f0eb3dd22b4f139c87a2c57538e05bae12789190a350565b3215612abb5760405163b60ac5db60e01b815260040160405180910390fd5b6000806000836060015162ffffff1690506000808263ffffffff161190506000807f00000000000000000000000000000000000000000000000000000000000000006001600160a01b031663feaf968c6040518163ffffffff1660e01b815260040160a06040518083038186803b15801561334e57600080fd5b505afa158015613362573d6000803e3d6000fd5b505050506040513d601f19601f82011682018060405250810190613386919061432d565b509450909250505060008113158061339d57508142105b806133be57508280156133be57506133b582426149fa565b8463ffffffff16105b156133cd5760135495506133d1565b8095505b7f00000000000000000000000000000000000000000000000000000000000000006001600160a01b031663feaf968c6040518163ffffffff1660e01b815260040160a06040518083038186803b15801561342a57600080fd5b505afa15801561343e573d6000803e3d6000fd5b505050506040513d601f19601f82011682018060405250810190613462919061432d565b509450909250505060008113158061347957508142105b8061349a575082801561349a575061349182426149fa565b8463ffffffff16105b156134a95760145494506134ad565b8094505b50505050915091565b6000806134c7868960000151613641565b90506000806134e28a8a63ffffffff16858a8a60018b613685565b90925090506134f18183614924565b9a9950505050505050505050565b600081815260018301602052604081205461354657508154600181810184556000848152602080822090930184905584548482528286019093526040902091909155612b3f565b506000612b3f565b600081815260018301602052604081205480156136375760006135726001836149fa565b8554909150600090613586906001906149fa565b90508181146135eb5760008660000182815481106135a6576135a6614b3b565b90600052602060002001549050808760000184815481106135c9576135c9614b3b565b6000918252602080832090910192909255918252600188019052604090208390555b85548690806135fc576135fc614b25565b600190038181906000526020600020016000905590558560010160008681526020019081526020016000206000905560019350505050612b3f565b6000915050612b3f565b600061365463ffffffff84166014614989565b61365f8360016148ff565b61366e9060ff16611d4c614989565b61367b90620111706148e7565b612b3c91906148e7565b6000806000896080015161ffff168761369e9190614989565b90508380156136ac5750803a105b156136b457503a5b600060027f000000000000000000000000000000000000000000000000000000000000000060028111156136ea576136ea614b0f565b141561383157604080516000815260208101909152851561374957600036604051806080016040528060488152602001614b766048913960405160200161373393929190614455565b60405160208183030381529060405290506137af565b60125461376490600160c01b900463ffffffff1660046149a8565b63ffffffff166001600160401b0381111561378157613781614b51565b6040519080825280601f01601f1916602001820160405280156137ab576020820181803683370190505b5090505b6040516324ca470760e11b8152600f602160991b01906349948e0e906137d99084906004016146eb565b60206040518083038186803b1580156137f157600080fd5b505afa158015613805573d6000803e3d6000fd5b505050506040513d601f19601f8201168201806040525081019061382991906141de565b9150506138e0565b60017f0000000000000000000000000000000000000000000000000000000000000000600281111561386557613865614b0f565b14156138e057606c6001600160a01b031663c6f7de0e6040518163ffffffff1660e01b815260040160206040518083038186803b1580156138a557600080fd5b505afa1580156138b9573d6000803e3d6000fd5b505050506040513d601f19601f820116820180604052508101906138dd91906141de565b90505b846138fc57808b6080015161ffff166138f99190614989565b90505b61390a61ffff87168261494f565b90506000878261391a8c8e6148e7565b6139249086614989565b61392e91906148e7565b61394090670de0b6b3a7640000614989565b61394a919061494f565b905060008c6040015163ffffffff1664e8d4a510006139699190614989565b898e6020015163ffffffff16858f886139829190614989565b61398c91906148e7565b61399a90633b9aca00614989565b6139a49190614989565b6139ae919061494f565b6139b891906148e7565b90506b033b2e3c9fd0803ce80000006139d182846148e7565b11156139f05760405163156baa3d60e11b815260040160405180910390fd5b909c909b509950505050505050505050565b828054613a0e90614a69565b90600052602060002090601f016020900481019282613a305760008555613a76565b82601f10613a495782800160ff19823516178555613a76565b82800160010185558215613a76579182015b82811115613a76578235825591602001919060010190613a5b565b50613a82929150613b34565b5090565b508054613a9290614a69565b6000825580601f10613aa2575050565b601f0160209004906000526020600020908101906125079190613b34565b828054613acc90614a69565b90600052602060002090601f016020900481019282613aee5760008555613a76565b82601f10613b0757805160ff1916838001178555613a76565b82800160010185558215613a76579182015b82811115613a76578251825591602001919060010190613b19565b5b80821115613a825760008155600101613b35565b80356001600160a01b0381168114612d5257600080fd5b60008083601f840112613b7257600080fd5b5081356001600160401b03811115613b8957600080fd5b6020830191508360208260051b8501011115613ba457600080fd5b9250929050565b600082601f830112613bbc57600080fd5b81356020613bd1613bcc8361489d565b61486d565b80838252828201915082860187848660051b8901011115613bf157600080fd5b60005b85811015613c1757613c0582613b49565b84529284019290840190600101613bf4565b5090979650505050505050565b600082601f830112613c3557600080fd5b81356020613c45613bcc8361489d565b80838252828201915082860187848660051b8901011115613c6557600080fd5b60005b85811015613c175781356001600160401b03811115613c8657600080fd5b8801603f81018a13613c9757600080fd5b858101356040613ca9613bcc836148c0565b8281528c82848601011115613cbd57600080fd5b828285018a8301376000928101890192909252508552509284019290840190600101613c68565b600082601f830112613cf557600080fd5b81356020613d05613bcc8361489d565b8281528181019085830160e080860288018501891015613d2457600080fd5b6000805b87811015613dc95782848c031215613d3e578182fd5b613d46614845565b613d4f85613e66565b8152613d5c888601613e66565b88820152604080860135613d6f81614b67565b908201526060613d80868201613b49565b908201526080613d91868201613e94565b9082015260a0613da2868201613e94565b9082015260c0613db3868201613e66565b9082015286529486019492820192600101613d28565b50929998505050505050505050565b60008083601f840112613dea57600080fd5b5081356001600160401b03811115613e0157600080fd5b602083019150836020828501011115613ba457600080fd5b600082601f830112613e2a57600080fd5b8151613e38613bcc826148c0565b818152846020838601011115613e4d57600080fd5b613e5e826020830160208701614a39565b949350505050565b803563ffffffff81168114612d5257600080fd5b805169ffffffffffffffffffff81168114612d5257600080fd5b80356001600160601b0381168114612d5257600080fd5b600060208284031215613ebd57600080fd5b612b3c82613b49565b60008060408385031215613ed957600080fd5b613ee283613b49565b9150613ef060208401613b49565b90509250929050565b60008060408385031215613f0c57600080fd5b613f1583613b49565b9150602083013560048110613f2957600080fd5b809150509250929050565b600080600080600080600060a0888a031215613f4f57600080fd5b613f5888613b49565b9650613f6660208901613e66565b9550613f7460408901613b49565b945060608801356001600160401b0380821115613f9057600080fd5b613f9c8b838c01613dd8565b909650945060808a0135915080821115613fb557600080fd5b50613fc28a828b01613dd8565b989b979a50959850939692959293505050565b60008060208385031215613fe857600080fd5b82356001600160401b03811115613ffe57600080fd5b61400a85828601613b60565b90969095509350505050565b60008060006040848603121561402b57600080fd5b83356001600160401b0381111561404157600080fd5b61404d86828701613b60565b9094509250614060905060208501613b49565b90509250925092565b6000806000806080858703121561407f57600080fd5b84356001600160401b038082111561409657600080fd5b818701915087601f8301126140aa57600080fd5b813560206140ba613bcc8361489d565b8083825282820191508286018c848660051b89010111156140da57600080fd5b600096505b848710156140fd5780358352600196909601959183019183016140df565b509850508801359250508082111561411457600080fd5b61412088838901613ce4565b9450604087013591508082111561413657600080fd5b61414288838901613c24565b9350606087013591508082111561415857600080fd5b5061416587828801613bab565b91505092959194509250565b60006020828403121561418357600080fd5b8151612d4681614b67565b600080604083850312156141a157600080fd5b82516141ac81614b67565b60208401519092506001600160401b038111156141c857600080fd5b6141d485828601613e19565b9150509250929050565b6000602082840312156141f057600080fd5b5051919050565b6000806020838503121561420a57600080fd5b82356001600160401b0381111561422057600080fd5b61400a85828601613dd8565b60006020828403121561423e57600080fd5b81516001600160401b0381111561425457600080fd5b613e5e84828501613e19565b60006020828403121561427257600080fd5b5035919050565b6000806040838503121561428c57600080fd5b82359150613ef060208401613b49565b6000806000604084860312156142b157600080fd5b8335925060208401356001600160401b038111156142ce57600080fd5b6142da86828701613dd8565b9497909650939450505050565b600080604083850312156142fa57600080fd5b82359150613ef060208401613e66565b6000806040838503121561431d57600080fd5b82359150613ef060208401613e94565b600080600080600060a0868803121561434557600080fd5b61434e86613e7a565b945060208601519350604086015192506060860151915061437160808701613e7a565b90509295509295909350565b60006020828403121561438f57600080fd5b815160ff81168114612d4657600080fd5b600081518084526020808501945080840160005b838110156143d95781516001600160a01b0316875295820195908201906001016143b4565b509495945050505050565b6000815180845260208085019450848260051b860182860160005b85811015613c17578383038952614417838351614429565b988501989250908401906001016143ff565b60008151808452614441816020860160208601614a39565b601f01601f19169290920160200192915050565b828482376000838201600081528351614472818360208801614a39565b0195945050505050565b6000825161448e818460208701614a39565b9190910192915050565b6001600160a01b039290921682526001600160601b0316602082015260400190565b6000604082016040835280865480835260608501915087600052602092508260002060005b828110156145045781546001600160a01b0316845292840192600191820191016144df565b505050838103828501528481528590820160005b86811015614544576001600160a01b0361453184613b49565b1682529183019190830190600101614518565b50979650505050505050565b608080825281810186905260009060a06001600160fb1b0388111561457457600080fd5b8760051b808a838701378085019050818101600081526020838784030181880152818a5180845260c093508385019150828c01945060005b81811015614633578551805163ffffffff90811685528582015116858501526040808201511515908501526060808201516001600160a01b031690850152888101516001600160601b03168985015287810151614613898601826001600160601b03169052565b5085015163ffffffff16838601529483019460e0909201916001016145ac565b50508781036040890152614647818b6143e4565b95505050505050828103606084015261466081856143a0565b98975050505050505050565b861515815260c06020820152600061468760c0830188614429565b90506007861061469957614699614b0f565b8560408301528460608301528360808301528260a0830152979650505050505050565b60208152816020820152818360408301376000818301604090810191909152601f909201601f19160101919050565b602081526000612b3c6020830184614429565b600060208083526000845481600182811c91508083168061472057607f831692505b85831081141561473e57634e487b7160e01b85526022600452602485fd5b87860183815260200181801561475b576001811461476c57614797565b60ff19861682528782019650614797565b60008b81526020902060005b8681101561479157815484820152908501908901614778565b83019750505b50949998505050505050505050565b60208101600383106147ba576147ba614b0f565b91905290565b6020815263ffffffff82511660208201526020820151604082015260006040830151606080840152613e5e6080840182614429565b60ff8416815260ff8316602082015260606040820152600061481a6060830184614429565b95945050505050565b6001600160601b039290921682526001600160a01b0316602082015260400190565b60405160e081016001600160401b038111828210171561486757614867614b51565b60405290565b604051601f8201601f191681016001600160401b038111828210171561489557614895614b51565b604052919050565b60006001600160401b038211156148b6576148b6614b51565b5060051b60200190565b60006001600160401b038211156148d9576148d9614b51565b50601f01601f191660200190565b600082198211156148fa576148fa614ae3565b500190565b600060ff821660ff84168060ff0382111561491c5761491c614ae3565b019392505050565b60006001600160601b0380831681851680830382111561494657614946614ae3565b01949350505050565b60008261495e5761495e614af9565b500490565b60006001600160601b038084168061497d5761497d614af9565b92169190910492915050565b60008160001904831182151516156149a3576149a3614ae3565b500290565b600063ffffffff808316818516818304811182151516156149cb576149cb614ae3565b02949350505050565b60006001600160601b03808316818516818304811182151516156149cb576149cb614ae3565b600082821015614a0c57614a0c614ae3565b500390565b60006001600160601b0383811690831681811015614a3157614a31614ae3565b039392505050565b60005b83811015614a54578181015183820152602001614a3c565b83811115614a63576000848401525b50505050565b600181811c90821680614a7d57607f821691505b60208210811415614a9e57634e487b7160e01b600052602260045260246000fd5b50919050565b6000600019821415614ab857614ab8614ae3565b5060010190565b600063ffffffff80831681811415614ad957614ad9614ae3565b6001019392505050565b634e487b7160e01b600052601160045260246000fd5b634e487b7160e01b600052601260045260246000fd5b634e487b7160e01b600052602160045260246000fd5b634e487b7160e01b600052603160045260246000fd5b634e487b7160e01b600052603260045260246000fd5b634e487b7160e01b600052604160045260246000fd5b801515811461250757600080fdfe307866666666666666666666666666666666666666666666666666666666666666666666666666666666666666666666666666666666666666666666666666666666666666666666a264697066735822122078d76c6e9fa4b6a637a8140286ef2ba017e1be38f69ca30ce39963c5ccb0161764736f6c63430008060033","linkReferences":{}},"methodIdentifiers":{"acceptOwnership()":"79ba5097","acceptPayeeship(address)":"b121e147","acceptUpkeepAdmin(uint256)":"b148ab6b","addFunds(uint256,uint96)":"948108f7","cancelUpkeep(uint256)":"c8048022","checkUpkeep(uint256)":"f7d334ba","getFastGasFeedAddress()":"6709d0e5","getLinkAddress()":"ca30e603","getLinkNativeFeedAddress()":"b10b673c","getMode()":"4b4fd03b","migrateUpkeeps(uint256[],address)":"85c1b0ba","owner()":"8da5cb5b","pause()":"8456cb59","pauseUpkeep(uint256)":"8765ecbe","receiveUpkeeps(bytes)":"8e86139b","recoverFunds()":"b79550be","registerUpkeep(address,uint32,address,bytes,bytes)":"6ded9eae","setPayees(address[])":"3b9cce59","setPeerRegistryMigrationPermission(address,uint8)":"187256e8","setUpkeepGasLimit(uint256,uint32)":"a72aa27e","setUpkeepOffchainConfig(uint256,bytes)":"8dcf0fe7","transferOwnership(address)":"f2fde38b","transferPayeeship(address,address)":"eb5dcd6c","transferUpkeepAdmin(uint256,address)":"1a2af011","unpause()":"3f4ba83a","unpauseUpkeep(uint256)":"5165f2f5","updateCheckData(uint256,bytes)":"9fab4386","withdrawFunds(uint256,address)":"744bfe61","withdrawOwnerFunds()":"7d9b97e0","withdrawPayment(address,address)":"a710b221"},"id":40}