{"abi":[{"type":"constructor","inputs":[{"name":"logicA","type":"address","internalType":"contract KeeperRegistryLogicB2_1"}],"stateMutability":"nonpayable"},{"type":"fallback","stateMutability":"nonpayable"},{"type":"function","name":"acceptOwnership","inputs":[],"outputs":[],"stateMutability":"nonpayable"},{"type":"function","name":"fallbackTo","inputs":[],"outputs":[{"name":"","type":"address","internalType":"address"}],"stateMutability":"view"},{"type":"function","name":"latestConfigDetails","inputs":[],"outputs":[{"name":"configCount","type":"uint32","internalType":"uint32"},{"name":"blockNumber","type":"uint32","internalType":"uint32"},{"name":"configDigest","type":"bytes32","internalType":"bytes32"}],"stateMutability":"view"},{"type":"function","name":"latestConfigDigestAndEpoch","inputs":[],"outputs":[{"name":"scanLogs","type":"bool","internalType":"bool"},{"name":"configDigest","type":"bytes32","internalType":"bytes32"},{"name":"epoch","type":"uint32","internalType":"uint32"}],"stateMutability":"view"},{"type":"function","name":"onTokenTransfer","inputs":[{"name":"sender","type":"address","internalType":"address"},{"name":"amount","type":"uint256","internalType":"uint256"},{"name":"data","type":"bytes","internalType":"bytes"}],"outputs":[],"stateMutability":"nonpayable"},{"type":"function","name":"owner","inputs":[],"outputs":[{"name":"","type":"address","internalType":"address"}],"stateMutability":"view"},{"type":"function","name":"setConfig","inputs":[{"name":"signers","type":"address[]","internalType":"address[]"},{"name":"transmitters","type":"address[]","internalType":"address[]"},{"name":"f","type":"uint8","internalType":"uint8"},{"name":"onchainConfigBytes","type":"bytes","internalType":"bytes"},{"name":"offchainConfigVersion","type":"uint64","internalType":"uint64"},{"name":"offchainConfig","type":"bytes","internalType":"bytes"}],"outputs":[],"stateMutability":"nonpayable"},{"type":"function","name":"setConfigTypeSafe","inputs":[{"name":"signers","type":"address[]","internalType":"address[]"},{"name":"transmitters","type":"address[]","internalType":"address[]"},{"name":"f","type":"uint8","internalType":"uint8"},{"name":"onchainConfig","type":"tuple","internalType":"struct KeeperRegistryBase2_1.OnchainConfig","components":[{"name":"paymentPremiumPPB","type":"uint32","internalType":"uint32"},{"name":"flatFeeMicroLink","type":"uint32","internalType":"uint32"},{"name":"checkGasLimit","type":"uint32","internalType":"uint32"},{"name":"stalenessSeconds","type":"uint24","internalType":"uint24"},{"name":"gasCeilingMultiplier","type":"uint16","internalType":"uint16"},{"name":"minUpkeepSpend","type":"uint96","internalType":"uint96"},{"name":"maxPerformGas","type":"uint32","internalType":"uint32"},{"name":"maxCheckDataSize","type":"uint32","internalType":"uint32"},{"name":"maxPerformDataSize","type":"uint32","internalType":"uint32"},{"name":"maxRevertDataSize","type":"uint32","internalType":"uint32"},{"name":"fallbackGasPrice","type":"uint256","internalType":"uint256"},{"name":"fallbackLinkPrice","type":"uint256","internalType":"uint256"},{"name":"transcoder","type":"address","internalType":"address"},{"name":"registrars","type":"address[]","internalType":"address[]"},{"name":"upkeepPrivilegeManager","type":"address","internalType":"address"}]},{"name":"offchainConfigVersion","type":"uint64","internalType":"uint64"},{"name":"offchainConfig","type":"bytes","internalType":"bytes"}],"outputs":[],"stateMutability":"nonpayable"},{"type":"function","name":"simulatePerformUpkeep","inputs":[{"name":"id","type":"uint256","internalType":"uint256"},{"name":"performData","type":"bytes","internalType":"bytes"}],"outputs":[{"name":"success","type":"bool","internalType":"bool"},{"name":"gasUsed","type":"uint256","internalType":"uint256"}],"stateMutability":"nonpayable"},{"type":"function","name":"transferOwnership","inputs":[{"name":"to","type":"address","internalType":"address"}],"outputs":[],"stateMutability":"nonpayable"},{"type":"function","name":"transmit","inputs":[{"name":"reportContext","type":"bytes32[3]","internalType":"bytes32[3]"},{"name":"rawReport","type":"bytes","internalType":"bytes"},{"name":"rs","type":"bytes32[]","internalType":"bytes32[]"},{"name":"ss","type":"bytes32[]","internalType":"bytes32[]"},{"name":"rawVs","type":"bytes32","internalType":"bytes32"}],"outputs":[],"stateMutability":"nonpayable"},{"type":"function","name":"typeAndVersion","inputs":[],"outputs":[{"name":"","type":"string","internalType":"string"}],"stateMutability":"view"},{"type":"event","name":"AdminPrivilegeConfigSet","inputs":[{"name":"admin","type":"address","indexed":true,"internalType":"address"},{"name":"privilegeConfig","type":"bytes","indexed":false,"internalType":"bytes"}],"anonymous":false},{"type":"event","name":"CancelledUpkeepReport","inputs":[{"name":"id","type":"uint256","indexed":true,"internalType":"uint256"},{"name":"trigger","type":"bytes","indexed":false,"internalType":"bytes"}],"anonymous":false},{"type":"event","name":"ConfigSet","inputs":[{"name":"previousConfigBlockNumber","type":"uint32","indexed":false,"internalType":"uint32"},{"name":"configDigest","type":"bytes32","indexed":false,"internalType":"bytes32"},{"name":"configCount","type":"uint64","indexed":false,"internalType":"uint64"},{"name":"signers","type":"address[]","indexed":false,"internalType":"address[]"},{"name":"transmitters","type":"address[]","indexed":false,"internalType":"address[]"},{"name":"f","type":"uint8","indexed":false,"internalType":"uint8"},{"name":"onchainConfig","type":"bytes","indexed":false,"internalType":"bytes"},{"name":"offchainConfigVersion","type":"uint64","indexed":false,"internalType":"uint64"},{"name":"offchainConfig","type":"bytes","indexed":false,"internalType":"bytes"}],"anonymous":false},{"type":"event","name":"DedupKeyAdded","inputs":[{"name":"dedupKey","type":"bytes32","indexed":true,"internalType":"bytes32"}],"anonymous":false},{"type":"event","name":"FundsAdded","inputs":[{"name":"id","type":"uint256","indexed":true,"internalType":"uint256"},{"name":"from","type":"address","indexed":true,"internalType":"address"},{"name":"amount","type":"uint96","indexed":false,"internalType":"uint96"}],"anonymous":false},{"type":"event","name":"FundsWithdrawn","inputs":[{"name":"id","type":"uint256","indexed":true,"internalType":"uint256"},{"name":"amount","type":"uint256","indexed":false,"internalType":"uint256"},{"name":"to","type":"address","indexed":false,"internalType":"address"}],"anonymous":false},{"type":"event","name":"InsufficientFundsUpkeepReport","inputs":[{"name":"id","type":"uint256","indexed":true,"internalType":"uint256"},{"name":"trigger","type":"bytes","indexed":false,"internalType":"bytes"}],"anonymous":false},{"type":"event","name":"OwnerFundsWithdrawn","inputs":[{"name":"amount","type":"uint96","indexed":false,"internalType":"uint96"}],"anonymous":false},{"type":"event","name":"OwnershipTransferRequested","inputs":[{"name":"from","type":"address","indexed":true,"internalType":"address"},{"name":"to","type":"address","indexed":true,"internalType":"address"}],"anonymous":false},{"type":"event","name":"OwnershipTransferred","inputs":[{"name":"from","type":"address","indexed":true,"internalType":"address"},{"name":"to","type":"address","indexed":true,"internalType":"address"}],"anonymous":false},{"type":"event","name":"Paused","inputs":[{"name":"account","type":"address","indexed":false,"internalType":"address"}],"anonymous":false},{"type":"event","name":"PayeesUpdated","inputs":[{"name":"transmitters","type":"address[]","indexed":false,"internalType":"address[]"},{"name":"payees","type":"address[]","indexed":false,"internalType":"address[]"}],"anonymous":false},{"type":"event","name":"PayeeshipTransferRequested","inputs":[{"name":"transmitter","type":"address","indexed":true,"internalType":"address"},{"name":"from","type":"address","indexed":true,"internalType":"address"},{"name":"to","type":"address","indexed":true,"internalType":"address"}],"anonymous":false},{"type":"event","name":"PayeeshipTransferred","inputs":[{"name":"transmitter","type":"address","indexed":true,"internalType":"address"},{"name":"from","type":"address","indexed":true,"internalType":"address"},{"name":"to","type":"address","indexed":true,"internalType":"address"}],"anonymous":false},{"type":"event","name":"PaymentWithdrawn","inputs":[{"name":"transmitter","type":"address","indexed":true,"internalType":"address"},{"name":"amount","type":"uint256","indexed":true,"internalType":"uint256"},{"name":"to","type":"address","indexed":true,"internalType":"address"},{"name":"payee","type":"address","indexed":false,"internalType":"address"}],"anonymous":false},{"type":"event","name":"ReorgedUpkeepReport","inputs":[{"name":"id","type":"uint256","indexed":true,"internalType":"uint256"},{"name":"trigger","type":"bytes","indexed":false,"internalType":"bytes"}],"anonymous":false},{"type":"event","name":"StaleUpkeepReport","inputs":[{"name":"id","type":"uint256","indexed":true,"internalType":"uint256"},{"name":"trigger","type":"bytes","indexed":false,"internalType":"bytes"}],"anonymous":false},{"type":"event","name":"Transmitted","inputs":[{"name":"configDigest","type":"bytes32","indexed":false,"internalType":"bytes32"},{"name":"epoch","type":"uint32","indexed":false,"internalType":"uint32"}],"anonymous":false},{"type":"event","name":"Unpaused","inputs":[{"name":"account","type":"address","indexed":false,"internalType":"address"}],"anonymous":false},{"type":"event","name":"UpkeepAdminTransferRequested","inputs":[{"name":"id","type":"uint256","indexed":true,"internalType":"uint256"},{"name":"from","type":"address","indexed":true,"internalType":"address"},{"name":"to","type":"address","indexed":true,"internalType":"address"}],"anonymous":false},{"type":"event","name":"UpkeepAdminTransferred","inputs":[{"name":"id","type":"uint256","indexed":true,"internalType":"uint256"},{"name":"from","type":"address","indexed":true,"internalType":"address"},{"name":"to","type":"address","indexed":true,"internalType":"address"}],"anonymous":false},{"type":"event","name":"UpkeepCanceled","inputs":[{"name":"id","type":"uint256","indexed":true,"internalType":"uint256"},{"name":"atBlockHeight","type":"uint64","indexed":true,"internalType":"uint64"}],"anonymous":false},{"type":"event","name":"UpkeepCheckDataSet","inputs":[{"name":"id","type":"uint256","indexed":true,"internalType":"uint256"},{"name":"newCheckData","type":"bytes","indexed":false,"internalType":"bytes"}],"anonymous":false},{"type":"event","name":"UpkeepGasLimitSet","inputs":[{"name":"id","type":"uint256","indexed":true,"internalType":"uint256"},{"name":"gasLimit","type":"uint96","indexed":false,"internalType":"uint96"}],"anonymous":false},{"type":"event","name":"UpkeepMigrated","inputs":[{"name":"id","type":"uint256","indexed":true,"internalType":"uint256"},{"name":"remainingBalance","type":"uint256","indexed":false,"internalType":"uint256"},{"name":"destination","type":"address","indexed":false,"internalType":"address"}],"anonymous":false},{"type":"event","name":"UpkeepOffchainConfigSet","inputs":[{"name":"id","type":"uint256","indexed":true,"internalType":"uint256"},{"name":"offchainConfig","type":"bytes","indexed":false,"internalType":"bytes"}],"anonymous":false},{"type":"event","name":"UpkeepPaused","inputs":[{"name":"id","type":"uint256","indexed":true,"internalType":"uint256"}],"anonymous":false},{"type":"event","name":"UpkeepPerformed","inputs":[{"name":"id","type":"uint256","indexed":true,"internalType":"uint256"},{"name":"success","type":"bool","indexed":true,"internalType":"bool"},{"name":"totalPayment","type":"uint96","indexed":false,"internalType":"uint96"},{"name":"gasUsed","type":"uint256","indexed":false,"internalType":"uint256"},{"name":"gasOverhead","type":"uint256","indexed":false,"internalType":"uint256"},{"name":"trigger","type":"bytes","indexed":false,"internalType":"bytes"}],"anonymous":false},{"type":"event","name":"UpkeepPrivilegeConfigSet","inputs":[{"name":"id","type":"uint256","indexed":true,"internalType":"uint256"},{"name":"privilegeConfig","type":"bytes","indexed":false,"internalType":"bytes"}],"anonymous":false},{"type":"event","name":"UpkeepReceived","inputs":[{"name":"id","type":"uint256","indexed":true,"internalType":"uint256"},{"name":"startingBalance","type":"uint256","indexed":false,"internalType":"uint256"},{"name":"importedFrom","type":"address","indexed":false,"internalType":"address"}],"anonymous":false},{"type":"event","name":"UpkeepRegistered","inputs":[{"name":"id","type":"uint256","indexed":true,"internalType":"uint256"},{"name":"performGas","type":"uint32","indexed":false,"internalType":"uint32"},{"name":"admin","type":"address","indexed":false,"internalType":"address"}],"anonymous":false},{"type":"event","name":"UpkeepTriggerConfigSet","inputs":[{"name":"id","type":"uint256","indexed":true,"internalType":"uint256"},{"name":"triggerConfig","type":"bytes","indexed":false,"internalType":"bytes"}],"anonymous":false},{"type":"event","name":"UpkeepUnpaused","inputs":[{"name":"id","type":"uint256","indexed":true,"internalType":"uint256"}],"anonymous":false},{"type":"error","name":"ArrayHasNoEntries","inputs":[]},{"type":"error","name":"CannotCancel","inputs":[]},{"type":"error","name":"CheckDataExceedsLimit","inputs":[]},{"type":"error","name":"ConfigDigestMismatch","inputs":[]},{"type":"error","name":"DuplicateEntry","inputs":[]},{"type":"error","name":"DuplicateSigners","inputs":[]},{"type":"error","name":"GasLimitCanOnlyIncrease","inputs":[]},{"type":"error","name":"GasLimitOutsideRange","inputs":[]},{"type":"error","name":"IncorrectNumberOfFaultyOracles","inputs":[]},{"type":"error","name":"IncorrectNumberOfSignatures","inputs":[]},{"type":"error","name":"IncorrectNumberOfSigners","inputs":[]},{"type":"error","name":"IndexOutOfRange","inputs":[]},{"type":"error","name":"InsufficientFunds","inputs":[]},{"type":"error","name":"InvalidDataLength","inputs":[]},{"type":"error","name":"InvalidPayee","inputs":[]},{"type":"error","name":"InvalidRecipient","inputs":[]},{"type":"error","name":"InvalidReport","inputs":[]},{"type":"error","name":"InvalidSigner","inputs":[]},{"type":"error","name":"InvalidTransmitter","inputs":[]},{"type":"error","name":"InvalidTrigger","inputs":[]},{"type":"error","name":"InvalidTriggerType","inputs":[]},{"type":"error","name":"MaxCheckDataSizeCanOnlyIncrease","inputs":[]},{"type":"error","name":"MaxPerformDataSizeCanOnlyIncrease","inputs":[]},{"type":"error","name":"MigrationNotPermitted","inputs":[]},{"type":"error","name":"NotAContract","inputs":[]},{"type":"error","name":"OnlyActiveSigners","inputs":[]},{"type":"error","name":"OnlyActiveTransmitters","inputs":[]},{"type":"error","name":"OnlyCallableByAdmin","inputs":[]},{"type":"error","name":"OnlyCallableByLINKToken","inputs":[]},{"type":"error","name":"OnlyCallableByOwnerOrAdmin","inputs":[]},{"type":"error","name":"OnlyCallableByOwnerOrRegistrar","inputs":[]},{"type":"error","name":"OnlyCallableByPayee","inputs":[]},{"type":"error","name":"OnlyCallableByProposedAdmin","inputs":[]},{"type":"error","name":"OnlyCallableByProposedPayee","inputs":[]},{"type":"error","name":"OnlyCallableByUpkeepPrivilegeManager","inputs":[]},{"type":"error","name":"OnlyPausedUpkeep","inputs":[]},{"type":"error","name":"OnlySimulatedBackend","inputs":[]},{"type":"error","name":"OnlyUnpausedUpkeep","inputs":[]},{"type":"error","name":"ParameterLengthError","inputs":[]},{"type":"error","name":"PaymentGreaterThanAllLINK","inputs":[]},{"type":"error","name":"ReentrantCall","inputs":[]},{"type":"error","name":"RegistryPaused","inputs":[]},{"type":"error","name":"RepeatedSigner","inputs":[]},{"type":"error","name":"RepeatedTransmitter","inputs":[]},{"type":"error","name":"TargetCheckReverted","inputs":[{"name":"reason","type":"bytes","internalType":"bytes"}]},{"type":"error","name":"TooManyOracles","inputs":[]},{"type":"error","name":"TranscoderNotSet","inputs":[]},{"type":"error","name":"UpkeepAlreadyExists","inputs":[]},{"type":"error","name":"UpkeepCancelled","inputs":[]},{"type":"error","name":"UpkeepNotCanceled","inputs":[]},{"type":"error","name":"UpkeepNotNeeded","inputs":[]},{"type":"error","name":"ValueNotChanged","inputs":[]}],"bytecode":{"object":"0x6101406040523480156200001257600080fd5b5060405162004817380380620048178339810160408190526200003591620003df565b80816001600160a01b0316634b4fd03b6040518163ffffffff1660e01b8152600401602060405180830381865afa15801562000075573d6000803e3d6000fd5b505050506040513d601f19601f820116820180604052508101906200009b919062000406565b826001600160a01b031663ca30e6036040518163ffffffff1660e01b8152600401602060405180830381865afa158015620000da573d6000803e3d6000fd5b505050506040513d601f19601f82011682018060405250810190620001009190620003df565b836001600160a01b031663b10b673c6040518163ffffffff1660e01b8152600401602060405180830381865afa1580156200013f573d6000803e3d6000fd5b505050506040513d601f19601f82011682018060405250810190620001659190620003df565b846001600160a01b0316636709d0e56040518163ffffffff1660e01b8152600401602060405180830381865afa158015620001a4573d6000803e3d6000fd5b505050506040513d601f19601f82011682018060405250810190620001ca9190620003df565b856001600160a01b0316635425d8ac6040518163ffffffff1660e01b8152600401602060405180830381865afa15801562000209573d6000803e3d6000fd5b505050506040513d601f19601f820116820180604052508101906200022f9190620003df565b3380600081620002865760405162461bcd60e51b815260206004820152601860248201527f43616e6e6f7420736574206f776e657220746f207a65726f000000000000000060448201526064015b60405180910390fd5b600080546001600160a01b0319166001600160a01b0384811691909117909155811615620002b957620002b9816200031b565b505050846002811115620002d157620002d162000429565b60e0816002811115620002e857620002e862000429565b9052506001600160a01b0393841660805291831660a052821660c0528116610100529190911661012052506200043f9050565b336001600160a01b03821603620003755760405162461bcd60e51b815260206004820152601760248201527f43616e6e6f74207472616e7366657220746f2073656c6600000000000000000060448201526064016200027d565b600180546001600160a01b0319166001600160a01b0383811691821790925560008054604051929316917fed8889f560326eb138920d842192f0eb3dd22b4f139c87a2c57538e05bae12789190a350565b6001600160a01b0381168114620003dc57600080fd5b50565b600060208284031215620003f257600080fd5b8151620003ff81620003c6565b9392505050565b6000602082840312156200041957600080fd5b815160038110620003ff57600080fd5b634e487b7160e01b600052602160045260246000fd5b60805160a05160c05160e0516101005161012051614376620004a16000396000818160b6015261014601526000505060008181612517015281816127bd015281816129290152612f5601526000505060005050600061035101526143766000f3fe608060405234801561001057600080fd5b50600436106100b45760003560e01c8063aed2e92911610071578063aed2e929146101f1578063afcb95d71461021b578063b1dc65a41461024b578063e29b753c1461025e578063e3d0e71214610271578063f2fde38b14610284576100b4565b8063181f5a77146100fb578063349e8cca1461014457806379ba50971461017e57806381ff7048146101865780638da5cb5b146101cd578063a4c0ed36146101de575b7f00000000000000000000000000000000000000000000000000000000000000003660008037600080366000845af43d6000803e8080156100f4573d6000f35b3d6000fd5b005b61012e6040518060400160405280601481526020017304b6565706572526567697374727920322e312e360641b81525081565b60405161013b919061316c565b60405180910390f35b7f00000000000000000000000000000000000000000000000000000000000000005b6040516001600160a01b03909116815260200161013b565b6100f9610297565b6101aa60145460115463ffffffff600160c01b8304811693600160e01b9093041691565b6040805163ffffffff94851681529390921660208401529082015260600161013b565b6000546001600160a01b0316610166565b6100f96101ec3660046131e7565b610346565b6102046101ff366004613242565b6104ca565b60408051921515835260208301919091520161013b565b60115460125460408051600081526020810193909352600160e01b90910463ffffffff169082015260600161013b565b6100f96102593660046132d1565b6105d6565b6100f961026c3660046136ea565b610fb5565b6100f961027f3660046137b6565b611b6c565b6100f9610292366004613844565b611b95565b6001546001600160a01b031633146102ef5760405162461bcd60e51b815260206004820152601660248201527526bab9ba10313290383937b837b9b2b21037bbb732b960511b60448201526064015b60405180910390fd5b60008054336001600160a01b0319808316821784556001805490911690556040516001600160a01b0390921692909183917f8be0079c531659141344cd1fd0a4f28419497f9722a3daafe3b4186f6b6457e091a350565b336001600160a01b037f0000000000000000000000000000000000000000000000000000000000000000161461038f5760405163c8bad78d60e01b815260040160405180910390fd5b602081146103b057604051630dfe930960e41b815260040160405180910390fd5b60006103be82840184613861565b600081815260046020526040902054909150600160281b900463ffffffff908116146103fd57604051634e0041d160e11b815260040160405180910390fd5b60008181526004602052604090206001015461042a908590600160601b90046001600160601b0316613890565b600082815260046020526040902060010180546001600160601b0392909216600160601b026bffffffffffffffffffffffff60601b199092169190911790556018546104779085906138b0565b6018556040516001600160601b03851681526001600160a01b0386169082907fafd24114486da8ebfc32f3626dada8863652e187461aa74d4bfa7348915062039060200160405180910390a35050505050565b6000806104d5611ba9565b601254600160701b900460ff1615610500576040516309148bcd60e21b815260040160405180910390fd5b600085815260046020908152604091829020825160e081018452815460ff811615158252610100810463ffffffff908116838601819052600160281b8304821684880152600160481b9092046001600160a01b0316606084018190526001909401546001600160601b038082166080860152600160601b82041660a0850152600160c01b90041660c08301528451601f890185900485028101850190955287855290936105c7938990899081908401838280828437600092019190915250611bca92505050565b9093509150505b935093915050565b60005a604080516101208101825260125460ff808216835261010080830463ffffffff9081166020860152600160281b8404811695850195909552600160481b830462ffffff166060850152600160601b830461ffff166080850152600160701b8304821615801560a0860152600160781b8404909216151560c0850152600160801b83046001600160601b031660e0850152600160e01b90920490931690820152919250610698576040516309148bcd60e21b815260040160405180910390fd5b336000908152600b602052604090205460ff166106c857604051631099ed7560e01b815260040160405180910390fd5b6011548a35146106eb5760405163dfdcf8e760e01b815260040160405180910390fd5b80516106f89060016138d9565b60ff16861415806107095750858414155b15610727576040516301227b8d60e11b815260040160405180910390fd5b6107378a8a8a8a8a8a8a8a611ce4565b60006107438a8a611ed2565b905060008160400151516001600160401b0381111561076457610764613387565b60405190808252806020026020018201604052801561080a57816020015b604080516101e0810182526000610100820181815261012083018290526101408301829052610160830182905261018083018290526101a083018290526101c0830182905282526020808301829052928201819052606082018190526080820181905260a0820181905260c0820181905260e082015282526000199092019101816107825790505b5090506000805b836040015151811015610c11576004600085604001518381518110610838576108386138c3565b6020908102919091018101518252818101929092526040908101600020815160e081018352815460ff811615158252610100810463ffffffff90811695830195909552600160281b8104851693820193909352600160481b9092046001600160a01b03166060830152600101546001600160601b038082166080840152600160601b82041660a0830152600160c01b900490911660c082015283518490839081106108e5576108e56138c3565b60200260200101516000018190525061091a8460400151828151811061090d5761090d6138c3565b6020026020010151611f74565b83828151811061092c5761092c6138c3565b6020026020010151608001906001811115610949576109496138f2565b9081600181111561095c5761095c6138f2565b815250506109d085848381518110610976576109766138c3565b60200260200101516080015186606001518481518110610998576109986138c3565b60200260200101518760a0015185815181106109b6576109b66138c3565b602002602001015151886000015189602001516001611fef565b8382815181106109e2576109e26138c3565b6020026020010151604001906001600160601b031690816001600160601b031681525050610a6484604001518281518110610a1f57610a1f6138c3565b602002602001015185608001518381518110610a3d57610a3d6138c3565b6020026020010151858481518110610a5757610a576138c3565b602002602001015161203a565b848381518110610a7657610a766138c3565b6020026020010151602001858481518110610a9357610a936138c3565b602002602001015160e0018281525082151515158152505050828181518110610abe57610abe6138c3565b60200260200101516020015115610ae157610ada600183613908565b9150610ae6565b610bff565b610b4c838281518110610afb57610afb6138c3565b6020026020010151600001516060015185606001518381518110610b2157610b216138c3565b60200260200101518660a001518481518110610b3f57610b3f6138c3565b6020026020010151611bca565b848381518110610b5e57610b5e6138c3565b6020026020010151606001858481518110610b7b57610b7b6138c3565b602002602001015160a0018281525082151515158152505050828181518110610ba657610ba66138c3565b602002602001015160a0015186610bbd9190613923565b9550610bff84604001518281518110610bd857610bd86138c3565b6020026020010151848381518110610bf257610bf26138c3565b6020026020010151612196565b80610c0981613936565b915050610811565b508061ffff16600003610c28575050505050610fab565b8351610c359060016138d9565b610c449060ff1661044c61394f565b616b6c610c528d601061394f565b5a610c5d9089613923565b610c6791906138b0565b610c7191906138b0565b610c7b91906138b0565b9450611b58610c8e61ffff831687613984565b610c9891906138b0565b945060008060008060005b876040015151811015610e9957868181518110610cc257610cc26138c3565b60200260200101516020015115610e8757610d1e8a888381518110610ce957610ce96138c3565b6020026020010151608001518a60a001518481518110610d0b57610d0b6138c3565b6020026020010151518c6000015161225d565b878281518110610d3057610d306138c3565b602002602001015160c0018181525050610d8c8989604001518381518110610d5a57610d5a6138c3565b6020026020010151898481518110610d7457610d746138c3565b60200260200101518b600001518c602001518b61227d565b9093509150610d9b8285613890565b9350610da78386613890565b9450868181518110610dbb57610dbb6138c3565b602002602001015160600151151588604001518281518110610ddf57610ddf6138c3565b60200260200101517fad8cc9579b21dfe2c2f6ea35ba15b656e46b4f5b0cb424f52739b8ce5cac9c5b8486610e149190613890565b8a8581518110610e2657610e266138c3565b602002602001015160a001518b8681518110610e4457610e446138c3565b602002602001015160c001518d608001518781518110610e6657610e666138c3565b6020026020010151604051610e7e9493929190613998565b60405180910390a35b80610e9181613936565b915050610ca3565b5050336000908152600b602052604090208054849250600290610ecc9084906201000090046001600160601b0316613890565b92506101000a8154816001600160601b0302191690836001600160601b0316021790555080601260000160108282829054906101000a90046001600160601b0316610f179190613890565b92506101000a8154816001600160601b0302191690836001600160601b0316021790555060008f600160038110610f5057610f506138c3565b602002013560001c9050600060088264ffffffffff16901c905087610100015163ffffffff168163ffffffff161115610fa157601280546001600160e01b0316600160e01b63ffffffff8416021790555b5050505050505050505b5050505050505050565b610fbd612353565b601f86511115610fe057604051630974082760e21b815260040160405180910390fd5b8360ff16600003611004576040516373bedd2b60e11b815260040160405180910390fd5b84518651141580611023575061101b8460036139d0565b60ff16865111155b15611041576040516303a5a38b60e31b815260040160405180910390fd5b601254600e54600160801b9091046001600160601b03169060005b816001600160601b03168110156110b25761109f600e8281548110611083576110836138c3565b6000918252602090912001546001600160a01b031684846123a6565b50806110aa81613936565b91505061105c565b5060008060005b836001600160601b031681101561116157600d81815481106110dd576110dd6138c3565b600091825260209091200154600e80546001600160a01b039092169450908290811061110b5761110b6138c3565b60009182526020808320909101546001600160a01b038681168452600c83526040808520805461ffff191690559116808452600b909252909120805460ff1916905591508061115981613936565b9150506110b9565b5061116e600d6000613084565b61117a600e6000613084565b604080516080810182526000808252602082018190529181018290526060810182905290805b8c5181101561145d57600c60008e83815181106111bf576111bf6138c3565b6020908102919091018101516001600160a01b031682528101919091526040016000205460ff161561120457604051633be7507d60e11b815260040160405180910390fd5b60006001600160a01b03168d8281518110611221576112216138c3565b60200260200101516001600160a01b03160361125057604051632057875960e21b815260040160405180910390fd5b60405180604001604052806001151581526020018260ff16815250600c60008f8481518110611281576112816138c3565b6020908102919091018101516001600160a01b031682528181019290925260400160002082518154939092015160ff166101000261ff00199215159290921661ffff19909316929092171790558b518c90829081106112e2576112e26138c3565b6020026020010151915060006001600160a01b0316826001600160a01b03160361131f57604051632c53850560e11b815260040160405180910390fd5b6001600160a01b0382166000908152600b60209081526040918290208251608081018452905460ff80821615801584526101008304909116938301939093526001600160601b03620100008204811694830194909452600160701b900490921660608301529093506113a457604051636a7281ad60e01b815260040160405180910390fd5b6001835260ff80821660208086019182526001600160601b03808b16606088019081526001600160a01b0387166000908152600b909352604092839020885181549551948a015192518416600160701b026bffffffffffffffffffffffff60701b199390941662010000029290921662010000600160d01b0319949096166101000261ff00199215159290921661ffff19909516949094171791909116929092179190911790558061145581613936565b9150506111a0565b50508a516114739150600d9060208d01906130a2565b50885161148790600e9060208c01906130a2565b506040518061012001604052808960ff168152602001886000015163ffffffff168152602001886020015163ffffffff168152602001886060015162ffffff168152602001886080015161ffff1681526020016012600001600e9054906101000a900460ff16151581526020016012600001600f9054906101000a900460ff1615158152602001856001600160601b03168152602001600063ffffffff16815250601260008201518160000160006101000a81548160ff021916908360ff16021790555060208201518160000160016101000a81548163ffffffff021916908363ffffffff16021790555060408201518160000160056101000a81548163ffffffff021916908363ffffffff16021790555060608201518160000160096101000a81548162ffffff021916908362ffffff160217905550608082015181600001600c6101000a81548161ffff021916908361ffff16021790555060a082015181600001600e6101000a81548160ff02191690831515021790555060c082015181600001600f6101000a81548160ff02191690831515021790555060e08201518160000160106101000a8154816001600160601b0302191690836001600160601b0316021790555061010082015181600001601c6101000a81548163ffffffff021916908363ffffffff1602179055509050506040518061018001604052808860a001516001600160601b031681526020018861018001516001600160a01b03168152602001601360010160009054906101000a90046001600160601b03166001600160601b03168152602001886040015163ffffffff1681526020018860c0015163ffffffff168152602001601360010160149054906101000a900463ffffffff1663ffffffff168152602001601360010160189054906101000a900463ffffffff1663ffffffff1681526020016013600101601c9054906101000a900463ffffffff1663ffffffff1681526020018860e0015163ffffffff16815260200188610100015163ffffffff16815260200188610120015163ffffffff168152602001886101c001516001600160a01b0316815250601360008201518160000160006101000a8154816001600160601b0302191690836001600160601b03160217905550602082015181600001600c6101000a8154816001600160a01b0302191690836001600160a01b0316021790555060408201518160010160006101000a8154816001600160601b0302191690836001600160601b03160217905550606082015181600101600c6101000a81548163ffffffff021916908363ffffffff16021790555060808201518160010160106101000a81548163ffffffff021916908363ffffffff16021790555060a08201518160010160146101000a81548163ffffffff021916908363ffffffff16021790555060c08201518160010160186101000a81548163ffffffff021916908363ffffffff16021790555060e082015181600101601c6101000a81548163ffffffff021916908363ffffffff1602179055506101008201518160020160006101000a81548163ffffffff021916908363ffffffff1602179055506101208201518160020160046101000a81548163ffffffff021916908363ffffffff1602179055506101408201518160020160086101000a81548163ffffffff021916908363ffffffff16021790555061016082015181600201600c6101000a8154816001600160a01b0302191690836001600160a01b0316021790555090505086610140015160168190555086610160015160178190555060006013600101601c9054906101000a900463ffffffff1690506119c9612511565b601480546001600160e01b0316600160e01b63ffffffff9384160217808255600192601891611a01918591600160c01b9004166139f9565b92506101000a81548163ffffffff021916908363ffffffff160217905550600088604051602001611a329190613a5a565b60408051808303601f19018152919052601454909150611a689046903090600160c01b900463ffffffff168f8f8f878f8f6125b9565b60115560005b611a786009612613565b811015611aa857611a95611a8d60098361261d565b600990612629565b5080611aa081613936565b915050611a6e565b5060005b896101a0015151811015611aff57611aec8a6101a001518281518110611ad457611ad46138c3565b6020026020010151600961263e90919063ffffffff16565b5080611af781613936565b915050611aac565b507f1591690b8638f5fb2dbec82ac741805ac5da8b45dc5263f4875b0496fdce4e0582601154601360010160189054906101000a900463ffffffff168f8f8f878f8f604051611b5699989796959493929190613b9f565b60405180910390a1505050505050505050505050565b611b8d86868686806020019051810190611b869190613ccf565b8686610fb5565b505050505050565b611b9d612353565b611ba681612653565b50565b3215611bc85760405163b60ac5db60e01b815260040160405180910390fd5b565b6012546000908190600160781b900460ff1615611bfa576040516306fda65d60e31b815260040160405180910390fd5b6012805460ff60781b1916600160781b179055604051634585e33b60e01b90611c2790859060240161316c565b60408051601f198184030181529181526020820180516001600160e01b03166001600160e01b0319909416939093179092529051633c8c468b60e11b81529093506001600160a01b038616906379188d1690611c899087908790600401613e28565b60408051808303816000875af1158015611ca7573d6000803e3d6000fd5b505050506040513d601f19601f82011682018060405250810190611ccb9190613e41565b6012805460ff60781b1916905590969095509350505050565b60008787604051611cf6929190613e74565b604051908190038120611d0d918b90602001613e84565b60408051601f1981840301815282825280516020918201208383019092526000808452908301819052909250906000805b88811015611e8257600185878360208110611d5b57611d5b6138c3565b611d6891901a601b6138d9565b8c8c85818110611d7a57611d7a6138c3565b905060200201358b8b86818110611d9357611d936138c3565b9050602002013560405160008152602001604052604051611dd0949392919093845260ff9290921660208401526040830152606082015260800190565b6020604051602081039080840390855afa158015611df2573d6000803e3d6000fd5b505060408051601f198101516001600160a01b0381166000908152600c602090815290849020838501909452925460ff8082161515808552610100909204169383019390935290955093509050611e5c57604051630f4c073760e01b815260040160405180910390fd5b826020015160080260ff166001901b840193508080611e7a90613936565b915050611d3e565b50827e01010101010101010101010101010101010101010101010101010101010101841614611ec457604051636081df1760e11b815260040160405180910390fd5b505050505050505050505050565b611f0b6040518060c001604052806000815260200160008152602001606081526020016060815260200160608152602001606081525090565b6000611f1983850185613f74565b6040810151516060820151519192509081141580611f3c57508082608001515114155b80611f4c5750808260a001515114155b15611f6a57604051632d56b1d560e21b815260040160405180910390fd5b5090505b92915050565b6000818160045b600f811015611fd1576001600160f81b03198216838260208110611fa157611fa16138c3565b1a60f81b6001600160f81b03191614611fbf57506000949350505050565b80611fc981613936565b915050611f7b565b5081600f1a6001811115611fe757611fe76138f2565b949350505050565b60008061200188878b600001516126fc565b905060008061201c8b8a63ffffffff16858a8a60018b612788565b909250905061202b8183613890565b9b9a5050505050505050505050565b600080808084608001516001811115612055576120556138f2565b0361207957612065868686612b87565b612074576000925090506105ce565b6120d7565b600184608001516001811115612091576120916138f2565b036120be5760006120a3878787612c7b565b92509050806120b857506000925090506105ce565b506120d7565b6040516379596a0960e11b815260040160405180910390fd5b6120df612511565b84516040015163ffffffff161161213357857fc3237c8807c467c1b39b8d0395eff077313e691bf0a7388106792564ebfd563686604051612120919061316c565b60405180910390a26000925090506105ce565b83604001516001600160601b0316846000015160a001516001600160601b0316101561218957857f377c8b0c126ae5248d27aca1c76fac4608aff85673ee3caf09747e1044549e0286604051612120919061316c565b6001969095509350505050565b6000816080015160018111156121ae576121ae6138f2565b036121f3576121bb612511565b6000838152600460205260409020600101805463ffffffff92909216600160c01b0263ffffffff60c01b199092169190911790555050565b60018160800151600181111561220b5761220b6138f2565b036122595760e081018051600090815260086020526040808220805460ff19166001179055915191517fa4a4e334c0e330143f9437484fe516c13bc560b86b5b0daf58e7084aaac228f29190a25b5050565b600061226a8484846126fc565b905080851015611fe75750929392505050565b600080612298888760a001518860c001518888886001612788565b909250905060006122a98284613890565b600089815260046020526040902060010180549192508291600c906122df908490600160601b90046001600160601b0316614060565b82546101009290920a6001600160601b0381810219909316918316021790915560008a81526004602052604081206001018054859450909261232391859116613890565b92506101000a8154816001600160601b0302191690836001600160601b0316021790555050965096945050505050565b6000546001600160a01b03163314611bc85760405162461bcd60e51b815260206004820152601660248201527527b7363c9031b0b63630b1363290313c9037bbb732b960511b60448201526064016102e6565b6001600160a01b0383166000908152600b602090815260408083208151608081018352905460ff80821615801584526101008304909116948301949094526001600160601b03620100008204811693830193909352600160701b90049091166060820152906125035760008160600151856124219190614060565b9050600061242f8583614080565b905080836040018181516124439190613890565b6001600160601b031690525061245985826140a6565b8360600181815161246a9190613890565b6001600160601b039081169091526001600160a01b0389166000908152600b602090815260409182902087518154928901519389015160608a01518616600160701b026bffffffffffffffffffffffff60701b199190961662010000021662010000600160d01b031960ff959095166101000261ff00199215159290921661ffff19909416939093171792909216179190911790555050505b6040015190505b9392505050565b600060017f00000000000000000000000000000000000000000000000000000000000000006002811115612547576125476138f2565b036125b45760646001600160a01b031663a3b1b31d6040518163ffffffff1660e01b8152600401602060405180830381865afa15801561258b573d6000803e3d6000fd5b505050506040513d601f19601f820116820180604052508101906125af91906140d5565b905090565b504390565b6000808a8a8a8a8a8a8a8a8a6040516020016125dd999897969594939291906140ee565b60408051808303601f1901815291905280516020909101206001600160f01b0316600160f01b179b9a5050505050505050505050565b6000611f6e825490565b600061250a8383612ddd565b600061250a836001600160a01b038416612e07565b600061250a836001600160a01b038416612f01565b336001600160a01b038216036126ab5760405162461bcd60e51b815260206004820152601760248201527f43616e6e6f74207472616e7366657220746f2073656c6600000000000000000060448201526064016102e6565b600180546001600160a01b0319166001600160a01b0383811691821790925560008054604051929316917fed8889f560326eb138920d842192f0eb3dd22b4f139c87a2c57538e05bae12789190a350565b60008080856001811115612712576127126138f2565b03612721575062015f90612740565b6001856001811115612735576127356138f2565b036120be57506201adb05b61275163ffffffff8516601461394f565b61275c8460016138d9565b61276b9060ff16611d4c61394f565b61277590836138b0565b61277f91906138b0565b95945050505050565b6000806000896080015161ffff16876127a1919061394f565b90508380156127af5750803a105b156127b757503a5b600060027f000000000000000000000000000000000000000000000000000000000000000060028111156127ed576127ed6138f2565b0361292557604080516000815260208101909152851561284b576000366040518060800160405280604881526020016142f96048913960405160200161283593929190614177565b60405160208183030381529060405290506128b2565b60155461286790640100000000900463ffffffff16600461419e565b63ffffffff166001600160401b0381111561288457612884613387565b6040519080825280601f01601f1916602001820160405280156128ae576020820181803683370190505b5090505b6040516324ca470760e11b8152600f602160991b01906349948e0e906128dc90849060040161316c565b602060405180830381865afa1580156128f9573d6000803e3d6000fd5b505050506040513d601f19601f8201168201806040525081019061291d91906140d5565b915050612a65565b60017f00000000000000000000000000000000000000000000000000000000000000006002811115612959576129596138f2565b03612a655784156129ce57606c6001600160a01b031663c6f7de0e6040518163ffffffff1660e01b8152600401602060405180830381865afa1580156129a3573d6000803e3d6000fd5b505050506040513d601f19601f820116820180604052508101906129c791906140d5565b9050612a65565b6000606c6001600160a01b03166341b247a86040518163ffffffff1660e01b815260040160c060405180830381865afa158015612a0f573d6000803e3d6000fd5b505050506040513d601f19601f82011682018060405250810190612a3391906141c1565b5050601554929450612a5693505050640100000000900463ffffffff168261394f565b612a6190601061394f565b9150505b84612a8157808b6080015161ffff16612a7e919061394f565b90505b612a8f61ffff871682613984565b905060008782612a9f8c8e6138b0565b612aa9908661394f565b612ab391906138b0565b612ac590670de0b6b3a764000061394f565b612acf9190613984565b905060008c6040015163ffffffff1664e8d4a51000612aee919061394f565b898e6020015163ffffffff16858f88612b07919061394f565b612b1191906138b0565b612b1f90633b9aca0061394f565b612b29919061394f565b612b339190613984565b612b3d91906138b0565b90506b033b2e3c9fd0803ce8000000612b5682846138b0565b1115612b755760405163156baa3d60e11b815260040160405180910390fd5b909c909b509950505050505050505050565b60008083806020019051810190612b9e919061420b565b835160c00151815191925063ffffffff90811691161015612bfb57847f405288ea7be309e16cfdf481367f90a413e1d4634fcdaf8966546db9b93012e885604051612be9919061316c565b60405180910390a2600091505061250a565b602081015115801590612c22575060208101518151612c1f9063ffffffff16612f50565b14155b80612c3b5750612c30612511565b815163ffffffff1610155b15612c7057847f6aa7f60c176da7af894b384daea2249497448137f5943c1237ada8bc92bdc30185604051612be9919061316c565b506001949350505050565b600080600084806020019051810190612c949190614262565b9050600086826000015183602001518460400151604051602001612cde94939291909384526020840192909252604083015260e01b6001600160e01b031916606082015260640190565b60408051601f198184030181529190528051602090910120608083015190915015801590612d2257508160800151612d1f836060015163ffffffff16612f50565b14155b80612d3e5750612d30612511565b826060015163ffffffff1610155b15612d8857867f6aa7f60c176da7af894b384daea2249497448137f5943c1237ada8bc92bdc30187604051612d73919061316c565b60405180910390a26000935091506105ce9050565b60008181526008602052604090205460ff1615612dcf57867f405288ea7be309e16cfdf481367f90a413e1d4634fcdaf8966546db9b93012e887604051612d73919061316c565b600197909650945050505050565b6000826000018281548110612df457612df46138c3565b9060005260206000200154905092915050565b60008181526001830160205260408120548015612ef0576000612e2b600183613923565b8554909150600090612e3f90600190613923565b9050818114612ea4576000866000018281548110612e5f57612e5f6138c3565b9060005260206000200154905080876000018481548110612e8257612e826138c3565b6000918252602080832090910192909255918252600188019052604090208390555b8554869080612eb557612eb56142e2565b600190038181906000526020600020016000905590558560010160008681526020019081526020016000206000905560019350505050611f6e565b6000915050611f6e565b5092915050565b6000818152600183016020526040812054612f4857508154600181810184556000848152602080822090930184905584548482528286019093526040902091909155611f6e565b506000611f6e565b600060017f00000000000000000000000000000000000000000000000000000000000000006002811115612f8657612f866138f2565b0361307a57600060646001600160a01b031663a3b1b31d6040518163ffffffff1660e01b8152600401602060405180830381865afa158015612fcc573d6000803e3d6000fd5b505050506040513d601f19601f82011682018060405250810190612ff091906140d5565b9050808310158061300b57506101006130098483613923565b115b156130195750600092915050565b6040516315a03d4160e11b815260048101849052606490632b407a8290602401602060405180830381865afa158015613056573d6000803e3d6000fd5b505050506040513d601f19601f8201168201806040525081019061250a91906140d5565b504090565b919050565b5080546000825590600052602060002090810190611ba69190613107565b8280548282559060005260206000209081019282156130f7579160200282015b828111156130f757825182546001600160a01b0319166001600160a01b039091161782556020909201916001909101906130c2565b50613103929150613107565b5090565b5b808211156131035760008155600101613108565b60005b8381101561313757818101518382015260200161311f565b50506000910152565b6000815180845261315881602086016020860161311c565b601f01601f19169290920160200192915050565b60208152600061250a6020830184613140565b6001600160a01b0381168114611ba657600080fd5b803561307f8161317f565b60008083601f8401126131b157600080fd5b5081356001600160401b038111156131c857600080fd5b6020830191508360208285010111156131e057600080fd5b9250929050565b600080600080606085870312156131fd57600080fd5b84356132088161317f565b93506020850135925060408501356001600160401b0381111561322a57600080fd5b6132368782880161319f565b95989497509550505050565b60008060006040848603121561325757600080fd5b8335925060208401356001600160401b0381111561327457600080fd5b6132808682870161319f565b9497909650939450505050565b60008083601f84011261329f57600080fd5b5081356001600160401b038111156132b657600080fd5b6020830191508360208260051b85010111156131e057600080fd5b60008060008060008060008060e0898b0312156132ed57600080fd5b606089018a8111156132fe57600080fd5b899850356001600160401b038082111561331757600080fd5b6133238c838d0161319f565b909950975060808b013591508082111561333c57600080fd5b6133488c838d0161328d565b909750955060a08b013591508082111561336157600080fd5b5061336e8b828c0161328d565b999c989b50969995989497949560c00135949350505050565b634e487b7160e01b600052604160045260246000fd5b6040516101e081016001600160401b03811182821017156133c0576133c0613387565b60405290565b60405160c081016001600160401b03811182821017156133c0576133c0613387565b604051601f8201601f191681016001600160401b038111828210171561341057613410613387565b604052919050565b60006001600160401b0382111561343157613431613387565b5060051b60200190565b600082601f83011261344c57600080fd5b8135602061346161345c83613418565b6133e8565b82815260059290921b8401810191818101908684111561348057600080fd5b8286015b848110156134a45780356134978161317f565b8352918301918301613484565b509695505050505050565b803560ff8116811461307f57600080fd5b63ffffffff81168114611ba657600080fd5b803561307f816134c0565b62ffffff81168114611ba657600080fd5b803561307f816134dd565b61ffff81168114611ba657600080fd5b803561307f816134f9565b6001600160601b0381168114611ba657600080fd5b803561307f81613514565b60006101e0828403121561354757600080fd5b61354f61339d565b905061355a826134d2565b8152613568602083016134d2565b6020820152613579604083016134d2565b604082015261358a606083016134ee565b606082015261359b60808301613509565b60808201526135ac60a08301613529565b60a08201526135bd60c083016134d2565b60c08201526135ce60e083016134d2565b60e08201526101006135e18184016134d2565b908201526101206135f38382016134d2565b908201526101408281013590820152610160808301359082015261018061361b818401613194565b908201526101a0828101356001600160401b0381111561363a57600080fd5b6136468582860161343b565b8284015250506101c061365a818401613194565b9082015292915050565b80356001600160401b038116811461307f57600080fd5b600082601f83011261368c57600080fd5b81356001600160401b038111156136a5576136a5613387565b6136b8601f8201601f19166020016133e8565b8181528460208386010111156136cd57600080fd5b816020850160208301376000918101602001919091529392505050565b60008060008060008060c0878903121561370357600080fd5b86356001600160401b038082111561371a57600080fd5b6137268a838b0161343b565b9750602089013591508082111561373c57600080fd5b6137488a838b0161343b565b965061375660408a016134af565b9550606089013591508082111561376c57600080fd5b6137788a838b01613534565b945061378660808a01613664565b935060a089013591508082111561379c57600080fd5b506137a989828a0161367b565b9150509295509295509295565b60008060008060008060c087890312156137cf57600080fd5b86356001600160401b03808211156137e657600080fd5b6137f28a838b0161343b565b9750602089013591508082111561380857600080fd5b6138148a838b0161343b565b965061382260408a016134af565b9550606089013591508082111561383857600080fd5b6137788a838b0161367b565b60006020828403121561385657600080fd5b813561250a8161317f565b60006020828403121561387357600080fd5b5035919050565b634e487b7160e01b600052601160045260246000fd5b6001600160601b03818116838216019080821115612efa57612efa61387a565b80820180821115611f6e57611f6e61387a565b634e487b7160e01b600052603260045260246000fd5b60ff8181168382160190811115611f6e57611f6e61387a565b634e487b7160e01b600052602160045260246000fd5b61ffff818116838216019080821115612efa57612efa61387a565b81810381811115611f6e57611f6e61387a565b6000600182016139485761394861387a565b5060010190565b60008160001904831182151516156139695761396961387a565b500290565b634e487b7160e01b600052601260045260246000fd5b6000826139935761399361396e565b500490565b6001600160601b03851681528360208201528260408201526080606082015260006139c66080830184613140565b9695505050505050565b600060ff821660ff84168160ff04811182151516156139f1576139f161387a565b029392505050565b63ffffffff818116838216019080821115612efa57612efa61387a565b600081518084526020808501945080840160005b83811015613a4f5781516001600160a01b031687529582019590820190600101613a2a565b509495945050505050565b60208152613a7160208201835163ffffffff169052565b60006020830151613a8a604084018263ffffffff169052565b50604083015163ffffffff8116606084015250606083015162ffffff8116608084015250608083015161ffff811660a08401525060a08301516001600160601b03811660c08401525060c083015163ffffffff811660e08401525060e0830151610100613afe8185018363ffffffff169052565b8401519050610120613b178482018363ffffffff169052565b8401519050610140613b308482018363ffffffff169052565b840151610160848101919091528401516101808085019190915284015190506101a0613b66818501836001600160a01b03169052565b808501519150506101e06101c08181860152613b86610200860184613a16565b9501516001600160a01b03169301929092525090919050565b600061012063ffffffff808d1684528b6020850152808b16604085015250806060840152613bcf8184018a613a16565b90508281036080840152613be38189613a16565b905060ff871660a084015282810360c0840152613c008187613140565b90506001600160401b03851660e0840152828103610100840152613c248185613140565b9c9b505050505050505050505050565b805161307f816134c0565b805161307f816134dd565b805161307f816134f9565b805161307f81613514565b805161307f8161317f565b600082601f830112613c7c57600080fd5b81516020613c8c61345c83613418565b82815260059290921b84018101918181019086841115613cab57600080fd5b8286015b848110156134a4578051613cc28161317f565b8352918301918301613caf565b600060208284031215613ce157600080fd5b81516001600160401b0380821115613cf857600080fd5b908301906101e08286031215613d0d57600080fd5b613d1561339d565b613d1e83613c34565b8152613d2c60208401613c34565b6020820152613d3d60408401613c34565b6040820152613d4e60608401613c3f565b6060820152613d5f60808401613c4a565b6080820152613d7060a08401613c55565b60a0820152613d8160c08401613c34565b60c0820152613d9260e08401613c34565b60e0820152610100613da5818501613c34565b90820152610120613db7848201613c34565b9082015261014083810151908201526101608084015190820152610180613ddf818501613c60565b908201526101a08381015183811115613df757600080fd5b613e0388828701613c6b565b8284015250506101c09150613e19828401613c60565b91810191909152949350505050565b828152604060208201526000611fe76040830184613140565b60008060408385031215613e5457600080fd5b82518015158114613e6457600080fd5b6020939093015192949293505050565b8183823760009101908152919050565b8281526080810160608360208401379392505050565b600082601f830112613eab57600080fd5b81356020613ebb61345c83613418565b82815260059290921b84018101918181019086841115613eda57600080fd5b8286015b848110156134a45780358352918301918301613ede565b600082601f830112613f0657600080fd5b81356020613f1661345c83613418565b82815260059290921b84018101918181019086841115613f3557600080fd5b8286015b848110156134a45780356001600160401b03811115613f585760008081fd5b613f668986838b010161367b565b845250918301918301613f39565b600060208284031215613f8657600080fd5b81356001600160401b0380821115613f9d57600080fd5b9083019060c08286031215613fb157600080fd5b613fb96133c6565b8235815260208301356020820152604083013582811115613fd957600080fd5b613fe587828601613e9a565b604083015250606083013582811115613ffd57600080fd5b61400987828601613e9a565b60608301525060808301358281111561402157600080fd5b61402d87828601613ef5565b60808301525060a08301358281111561404557600080fd5b61405187828601613ef5565b60a08301525095945050505050565b6001600160601b03828116828216039080821115612efa57612efa61387a565b60006001600160601b038084168061409a5761409a61396e565b92169190910492915050565b60006001600160601b03808316818516818304811182151516156140cc576140cc61387a565b02949350505050565b6000602082840312156140e757600080fd5b5051919050565b8981526001600160a01b03891660208201526001600160401b038881166040830152610120606083018190526000916141298483018b613a16565b9150838203608085015261413d828a613a16565b915060ff881660a085015283820360c085015261415a8288613140565b90861660e08501528381036101008501529050613c248185613140565b82848237600083820160008152835161419481836020880161311c565b0195945050505050565b600063ffffffff808316818516818304811182151516156140cc576140cc61387a565b60008060008060008060c087890312156141da57600080fd5b865195506020870151945060408701519350606087015192506080870151915060a087015190509295509295509295565b60006040828403121561421d57600080fd5b604051604081018181106001600160401b038211171561423f5761423f613387565b604052825161424d816134c0565b81526020928301519281019290925250919050565b600060a0828403121561427457600080fd5b60405160a081018181106001600160401b038211171561429657614296613387565b8060405250825181526020830151602082015260408301516142b7816134c0565b604082015260608301516142ca816134c0565b60608201526080928301519281019290925250919050565b634e487b7160e01b600052603160045260246000fdfe307866666666666666666666666666666666666666666666666666666666666666666666666666666666666666666666666666666666666666666666666666666666666666666666a26469706673582212203bc73901f867ca1c83f7440c8852cde94b4097f459ec4382884baedb01cf1e7664736f6c63430008100033","linkReferences":{}},"methodIdentifiers":{"acceptOwnership()":"79ba5097","fallbackTo()":"349e8cca","latestConfigDetails()":"81ff7048","latestConfigDigestAndEpoch()":"afcb95d7","onTokenTransfer(address,uint256,bytes)":"a4c0ed36","owner()":"8da5cb5b","setConfig(address[],address[],uint8,bytes,uint64,bytes)":"e3d0e712","setConfigTypeSafe(address[],address[],uint8,(uint32,uint32,uint32,uint24,uint16,uint96,uint32,uint32,uint32,uint32,uint256,uint256,address,address[],address),uint64,bytes)":"e29b753c","simulatePerformUpkeep(uint256,bytes)":"aed2e929","transferOwnership(address)":"f2fde38b","transmit(bytes32[3],bytes,bytes32[],bytes32[],bytes32)":"b1dc65a4","typeAndVersion()":"181f5a77"},"id":21}