{"abi":[{"type":"constructor","inputs":[{"name":"link","type":"address","internalType":"address"},{"name":"owner","type":"address","internalType":"address"}],"stateMutability":"nonpayable"},{"type":"function","name":"acceptAuthorizedReceivers","inputs":[{"name":"targets","type":"address[]","internalType":"address[]"},{"name":"senders","type":"address[]","internalType":"address[]"}],"outputs":[],"stateMutability":"nonpayable"},{"type":"function","name":"acceptOwnableContracts","inputs":[{"name":"ownable","type":"address[]","internalType":"address[]"}],"outputs":[],"stateMutability":"nonpayable"},{"type":"function","name":"acceptOwnership","inputs":[],"outputs":[],"stateMutability":"nonpayable"},{"type":"function","name":"cancelOracleRequest","inputs":[{"name":"requestId","type":"bytes32","internalType":"bytes32"},{"name":"payment","type":"uint256","internalType":"uint256"},{"name":"callbackFunc","type":"bytes4","internalType":"bytes4"},{"name":"expiration","type":"uint256","internalType":"uint256"}],"outputs":[],"stateMutability":"nonpayable"},{"type":"function","name":"cancelOracleRequestByRequester","inputs":[{"name":"nonce","type":"uint256","internalType":"uint256"},{"name":"payment","type":"uint256","internalType":"uint256"},{"name":"callbackFunc","type":"bytes4","internalType":"bytes4"},{"name":"expiration","type":"uint256","internalType":"uint256"}],"outputs":[],"stateMutability":"nonpayable"},{"type":"function","name":"distributeFunds","inputs":[{"name":"receivers","type":"address[]","internalType":"address payable[]"},{"name":"amounts","type":"uint256[]","internalType":"uint256[]"}],"outputs":[],"stateMutability":"payable"},{"type":"function","name":"fulfillOracleRequest","inputs":[{"name":"requestId","type":"bytes32","internalType":"bytes32"},{"name":"payment","type":"uint256","internalType":"uint256"},{"name":"callbackAddress","type":"address","internalType":"address"},{"name":"callbackFunctionId","type":"bytes4","internalType":"bytes4"},{"name":"expiration","type":"uint256","internalType":"uint256"},{"name":"data","type":"bytes32","internalType":"bytes32"}],"outputs":[{"name":"","type":"bool","internalType":"bool"}],"stateMutability":"nonpayable"},{"type":"function","name":"fulfillOracleRequest2","inputs":[{"name":"requestId","type":"bytes32","internalType":"bytes32"},{"name":"payment","type":"uint256","internalType":"uint256"},{"name":"callbackAddress","type":"address","internalType":"address"},{"name":"callbackFunctionId","type":"bytes4","internalType":"bytes4"},{"name":"expiration","type":"uint256","internalType":"uint256"},{"name":"data","type":"bytes","internalType":"bytes"}],"outputs":[{"name":"","type":"bool","internalType":"bool"}],"stateMutability":"nonpayable"},{"type":"function","name":"getAuthorizedSenders","inputs":[],"outputs":[{"name":"","type":"address[]","internalType":"address[]"}],"stateMutability":"view"},{"type":"function","name":"getChainlinkToken","inputs":[],"outputs":[{"name":"","type":"address","internalType":"address"}],"stateMutability":"view"},{"type":"function","name":"getExpiryTime","inputs":[],"outputs":[{"name":"","type":"uint256","internalType":"uint256"}],"stateMutability":"view"},{"type":"function","name":"isAuthorizedSender","inputs":[{"name":"sender","type":"address","internalType":"address"}],"outputs":[{"name":"","type":"bool","internalType":"bool"}],"stateMutability":"view"},{"type":"function","name":"onTokenTransfer","inputs":[{"name":"sender","type":"address","internalType":"address"},{"name":"amount","type":"uint256","internalType":"uint256"},{"name":"data","type":"bytes","internalType":"bytes"}],"outputs":[],"stateMutability":"nonpayable"},{"type":"function","name":"operatorRequest","inputs":[{"name":"sender","type":"address","internalType":"address"},{"name":"payment","type":"uint256","internalType":"uint256"},{"name":"specId","type":"bytes32","internalType":"bytes32"},{"name":"callbackFunctionId","type":"bytes4","internalType":"bytes4"},{"name":"nonce","type":"uint256","internalType":"uint256"},{"name":"dataVersion","type":"uint256","internalType":"uint256"},{"name":"data","type":"bytes","internalType":"bytes"}],"outputs":[],"stateMutability":"nonpayable"},{"type":"function","name":"oracleRequest","inputs":[{"name":"sender","type":"address","internalType":"address"},{"name":"payment","type":"uint256","internalType":"uint256"},{"name":"specId","type":"bytes32","internalType":"bytes32"},{"name":"callbackAddress","type":"address","internalType":"address"},{"name":"callbackFunctionId","type":"bytes4","internalType":"bytes4"},{"name":"nonce","type":"uint256","internalType":"uint256"},{"name":"dataVersion","type":"uint256","internalType":"uint256"},{"name":"data","type":"bytes","internalType":"bytes"}],"outputs":[],"stateMutability":"nonpayable"},{"type":"function","name":"owner","inputs":[],"outputs":[{"name":"","type":"address","internalType":"address"}],"stateMutability":"view"},{"type":"function","name":"ownerForward","inputs":[{"name":"to","type":"address","internalType":"address"},{"name":"data","type":"bytes","internalType":"bytes"}],"outputs":[],"stateMutability":"nonpayable"},{"type":"function","name":"ownerTransferAndCall","inputs":[{"name":"to","type":"address","internalType":"address"},{"name":"value","type":"uint256","internalType":"uint256"},{"name":"data","type":"bytes","internalType":"bytes"}],"outputs":[{"name":"success","type":"bool","internalType":"bool"}],"stateMutability":"nonpayable"},{"type":"function","name":"setAuthorizedSenders","inputs":[{"name":"senders","type":"address[]","internalType":"address[]"}],"outputs":[],"stateMutability":"nonpayable"},{"type":"function","name":"setAuthorizedSendersOn","inputs":[{"name":"targets","type":"address[]","internalType":"address[]"},{"name":"senders","type":"address[]","internalType":"address[]"}],"outputs":[],"stateMutability":"nonpayable"},{"type":"function","name":"transferOwnableContracts","inputs":[{"name":"ownable","type":"address[]","internalType":"address[]"},{"name":"newOwner","type":"address","internalType":"address"}],"outputs":[],"stateMutability":"nonpayable"},{"type":"function","name":"transferOwnership","inputs":[{"name":"to","type":"address","internalType":"address"}],"outputs":[],"stateMutability":"nonpayable"},{"type":"function","name":"typeAndVersion","inputs":[],"outputs":[{"name":"","type":"string","internalType":"string"}],"stateMutability":"pure"},{"type":"function","name":"withdraw","inputs":[{"name":"recipient","type":"address","internalType":"address"},{"name":"amount","type":"uint256","internalType":"uint256"}],"outputs":[],"stateMutability":"nonpayable"},{"type":"function","name":"withdrawable","inputs":[],"outputs":[{"name":"","type":"uint256","internalType":"uint256"}],"stateMutability":"view"},{"type":"event","name":"AuthorizedSendersChanged","inputs":[{"name":"senders","type":"address[]","indexed":false,"internalType":"address[]"},{"name":"changedBy","type":"address","indexed":false,"internalType":"address"}],"anonymous":false},{"type":"event","name":"CancelOracleRequest","inputs":[{"name":"requestId","type":"bytes32","indexed":true,"internalType":"bytes32"}],"anonymous":false},{"type":"event","name":"OracleRequest","inputs":[{"name":"specId","type":"bytes32","indexed":true,"internalType":"bytes32"},{"name":"requester","type":"address","indexed":false,"internalType":"address"},{"name":"requestId","type":"bytes32","indexed":false,"internalType":"bytes32"},{"name":"payment","type":"uint256","indexed":false,"internalType":"uint256"},{"name":"callbackAddr","type":"address","indexed":false,"internalType":"address"},{"name":"callbackFunctionId","type":"bytes4","indexed":false,"internalType":"bytes4"},{"name":"cancelExpiration","type":"uint256","indexed":false,"internalType":"uint256"},{"name":"dataVersion","type":"uint256","indexed":false,"internalType":"uint256"},{"name":"data","type":"bytes","indexed":false,"internalType":"bytes"}],"anonymous":false},{"type":"event","name":"OracleResponse","inputs":[{"name":"requestId","type":"bytes32","indexed":true,"internalType":"bytes32"}],"anonymous":false},{"type":"event","name":"OwnableContractAccepted","inputs":[{"name":"acceptedContract","type":"address","indexed":true,"internalType":"address"}],"anonymous":false},{"type":"event","name":"OwnershipTransferRequested","inputs":[{"name":"from","type":"address","indexed":true,"internalType":"address"},{"name":"to","type":"address","indexed":true,"internalType":"address"}],"anonymous":false},{"type":"event","name":"OwnershipTransferred","inputs":[{"name":"from","type":"address","indexed":true,"internalType":"address"},{"name":"to","type":"address","indexed":true,"internalType":"address"}],"anonymous":false},{"type":"event","name":"TargetsUpdatedAuthorizedSenders","inputs":[{"name":"targets","type":"address[]","indexed":false,"internalType":"address[]"},{"name":"senders","type":"address[]","indexed":false,"internalType":"address[]"},{"name":"changedBy","type":"address","indexed":false,"internalType":"address"}],"anonymous":false}],"bytecode":{"object":"0x60a060405260016006553480156200001657600080fd5b506040516200314b3803806200314b833981810160405260408110156200003c57600080fd5b508051602090910151808060006001600160a01b038216620000a5576040805162461bcd60e51b815260206004820152601860248201527f43616e6e6f7420736574206f776e657220746f207a65726f0000000000000000604482015290519081900360640190fd5b600280546001600160a01b0319166001600160a01b0384811691909117909155811615620000d857620000d881620000f2565b5050505060601b6001600160601b031916608052620001a3565b6001600160a01b03811633141562000151576040805162461bcd60e51b815260206004820152601760248201527f43616e6e6f74207472616e7366657220746f2073656c66000000000000000000604482015290519081900360640190fd5b600380546001600160a01b0319166001600160a01b03838116918217909255600254604051919216907fed8889f560326eb138920d842192f0eb3dd22b4f139c87a2c57538e05bae127890600090a350565b60805160601c612f67620001e460003980610ddd5280610f755280611bee5280611d7e52806121465280612480528061277e5280612ad95250612f676000f3fe6080604052600436106101665760003560e01c80636ae0bc76116100d1578063a4c0ed361161008a578063f2fde38b11610064578063f2fde38b14610aed578063f3fef3a314610b20578063fa00763a14610b59578063fc4a03ed14610b8c57610166565b8063a4c0ed3614610966578063eb007d9914610a2c578063ee56997b14610a7257610166565b80636ae0bc76146106fb5780636bd59ec0146107a85780636ee4d5531461086657806379ba5097146108ac5780638da5cb5b146108c1578063902fc370146108d657610166565b80633c6d41b9116101235780633c6d41b9146103ba5780633ec5bc141461046c57806340429946146104f05780634ab0d190146105ac578063501883011461061b5780635ffa62881461063057610166565b806301994b991461016b578063033f49f7146101e8578063165d35e114610273578063181f5a77146102a45780632408afaa1461032e57806325cb5bc014610393575b600080fd5b34801561017757600080fd5b506101e66004803603602081101561018e57600080fd5b810190602081018135600160201b8111156101a857600080fd5b8201836020820111156101ba57600080fd5b803590602001918460208302840111600160201b831117156101db57600080fd5b509092509050610c57565b005b3480156101f457600080fd5b506101e66004803603604081101561020b57600080fd5b6001600160a01b038235169190810190604081016020820135600160201b81111561023557600080fd5b82018360208201111561024757600080fd5b803590602001918460018302840111600160201b8311171561026857600080fd5b509092509050610dd2565b34801561027f57600080fd5b50610288610f73565b604080516001600160a01b039092168252519081900360200190f35b3480156102b057600080fd5b506102b9610f97565b6040805160208082528351818301528351919283929083019185019080838360005b838110156102f35781810151838201526020016102db565b50505050905090810190601f1680156103205780820380516001836020036101000a031916815260200191505b509250505060405180910390f35b34801561033a57600080fd5b50610343610fbf565b60408051602080825283518183015283519192839290830191858101910280838360005b8381101561037f578181015183820152602001610367565b505050509050019250505060405180910390f35b34801561039f57600080fd5b506103a8611021565b60408051918252519081900360200190f35b3480156103c657600080fd5b506101e6600480360360e08110156103dd57600080fd5b6001600160a01b03823516916020810135916040820135916001600160e01b03196060820135169160808201359160a08101359181019060e0810160c0820135600160201b81111561042e57600080fd5b82018360208201111561044057600080fd5b803590602001918460018302840111600160201b8311171561046157600080fd5b509092509050611027565b34801561047857600080fd5b506101e66004803603604081101561048f57600080fd5b810190602081018135600160201b8111156104a957600080fd5b8201836020820111156104bb57600080fd5b803590602001918460208302840111600160201b831117156104dc57600080fd5b9193509150356001600160a01b0316611160565b3480156104fc57600080fd5b506101e6600480360361010081101561051457600080fd5b6001600160a01b038235811692602081013592604082013592606083013516916001600160e01b03196080820135169160a08201359160c081013591810190610100810160e0820135600160201b81111561056e57600080fd5b82018360208201111561058057600080fd5b803590602001918460018302840111600160201b831117156105a157600080fd5b509092509050611260565b3480156105b857600080fd5b50610607600480360360c08110156105cf57600080fd5b508035906020810135906001600160a01b03604082013516906001600160e01b03196060820135169060808101359060a0013561139a565b604080519115158252519081900360200190f35b34801561062757600080fd5b506103a8611602565b34801561063c57600080fd5b506101e66004803603604081101561065357600080fd5b810190602081018135600160201b81111561066d57600080fd5b82018360208201111561067f57600080fd5b803590602001918460208302840111600160201b831117156106a057600080fd5b919390929091602081019035600160201b8111156106bd57600080fd5b8201836020820111156106cf57600080fd5b803590602001918460208302840111600160201b831117156106f057600080fd5b509092509050611611565b34801561070757600080fd5b50610607600480360360c081101561071e57600080fd5b8135916020810135916001600160a01b03604083013516916001600160e01b0319606082013516916080820135919081019060c0810160a0820135600160201b81111561076a57600080fd5b82018360208201111561077c57600080fd5b803590602001918460018302840111600160201b8311171561079d57600080fd5b50909250905061166e565b6101e6600480360360408110156107be57600080fd5b810190602081018135600160201b8111156107d857600080fd5b8201836020820111156107ea57600080fd5b803590602001918460208302840111600160201b8311171561080b57600080fd5b919390929091602081019035600160201b81111561082857600080fd5b82018360208201111561083a57600080fd5b803590602001918460208302840111600160201b8311171561085b57600080fd5b509092509050611986565b34801561087257600080fd5b506101e66004803603608081101561088957600080fd5b508035906020810135906001600160e01b03196040820135169060600135611ac3565b3480156108b857600080fd5b506101e6611c69565b3480156108cd57600080fd5b50610288611d1c565b3480156108e257600080fd5b50610607600480360360608110156108f957600080fd5b6001600160a01b0382351691602081013591810190606081016040820135600160201b81111561092857600080fd5b82018360208201111561093a57600080fd5b803590602001918460018302840111600160201b8311171561095b57600080fd5b509092509050611d2b565b34801561097257600080fd5b506101e66004803603606081101561098957600080fd5b6001600160a01b0382351691602081013591810190606081016040820135600160201b8111156109b857600080fd5b8201836020820111156109ca57600080fd5b803590602001918460018302840111600160201b831117156109eb57600080fd5b91908080601f016020809104026020016040519081016040528093929190818152602001838380828437600092019190915250929550611e5d945050505050565b348015610a3857600080fd5b506101e660048036036080811015610a4f57600080fd5b508035906020810135906001600160e01b03196040820135169060600135611fdc565b348015610a7e57600080fd5b506101e660048036036020811015610a9557600080fd5b810190602081018135600160201b811115610aaf57600080fd5b820183602082011115610ac157600080fd5b803590602001918460208302840111600160201b83111715610ae257600080fd5b5090925090506121c2565b348015610af957600080fd5b506101e660048036036020811015610b1057600080fd5b50356001600160a01b031661241b565b348015610b2c57600080fd5b506101e660048036036040811015610b4357600080fd5b506001600160a01b03813516906020013561242f565b348015610b6557600080fd5b5061060760048036036020811015610b7c57600080fd5b50356001600160a01b0316612527565b348015610b9857600080fd5b506101e660048036036040811015610baf57600080fd5b810190602081018135600160201b811115610bc957600080fd5b820183602082011115610bdb57600080fd5b803590602001918460208302840111600160201b83111715610bfc57600080fd5b919390929091602081019035600160201b811115610c1957600080fd5b820183602082011115610c2b57600080fd5b803590602001918460208302840111600160201b83111715610c4c57600080fd5b509092509050612545565b610c5f6126ef565b610c9e576040805162461bcd60e51b815260206004820152601d6024820152600080516020612edd833981519152604482015290519081900360640190fd5b60005b81811015610dcd57600160056000858585818110610cbb57fe5b905060200201356001600160a01b03166001600160a01b03166001600160a01b0316815260200190815260200160002060006101000a81548160ff021916908315150217905550828282818110610d0e57fe5b905060200201356001600160a01b03166001600160a01b03167f615a0c1cb00a60d4acd77ec67acf2f17f223ef0932d591052fabc33643fe7e8260405160405180910390a2828282818110610d5f57fe5b905060200201356001600160a01b03166001600160a01b03166379ba50976040518163ffffffff1660e01b8152600401600060405180830381600087803b158015610da957600080fd5b505af1158015610dbd573d6000803e3d6000fd5b505060019092019150610ca19050565b505050565b610dda612718565b827f00000000000000000000000000000000000000000000000000000000000000006001600160a01b0316816001600160a01b03161415610e58576040805162461bcd60e51b815260206004820152601360248201527243616e6e6f742063616c6c20746f204c494e4b60681b604482015290519081900360640190fd5b610e6a846001600160a01b0316612772565b610ebb576040805162461bcd60e51b815260206004820152601a60248201527f4d75737420666f727761726420746f206120636f6e7472616374000000000000604482015290519081900360640190fd5b6000846001600160a01b03168484604051808383808284376040519201945060009350909150508083038183865af19150503d8060008114610f19576040519150601f19603f3d011682016040523d82523d6000602084013e610f1e565b606091505b5050905080610f6c576040805162461bcd60e51b8152602060048201526015602482015274119bdc9dd85c9919590818d85b1b0819985a5b1959605a1b604482015290519081900360640190fd5b5050505050565b7f000000000000000000000000000000000000000000000000000000000000000090565b60408051808201909152600e81526d04f70657261746f7220312e302e360941b602082015290565b6060600180548060200260200160405190810160405280929190818152602001828054801561101757602002820191906000526020600020905b81546001600160a01b03168152600190910190602001808311610ff9575b5050505050905090565b61012c81565b61102f610f73565b6001600160a01b0316336001600160a01b03161461108a576040805162461bcd60e51b815260206004820152601360248201527226bab9ba103ab9b2902624a725903a37b5b2b760691b604482015290519081900360640190fd5b60008061109b8a8a8c8a8a8a612778565b91509150877fd8d7ecc4800d25fa53ce0372f13a416d98907a7ef3d8d3bdd79cf4fe75529c658b848c8e8c878c8c8c604051808a6001600160a01b03168152602001898152602001888152602001876001600160a01b03168152602001866001600160e01b0319168152602001858152602001848152602001806020018281038252848482818152602001925080828437600083820152604051601f909101601f19169092018290039c50909a5050505050505050505050a250505050505050505050565b611168612718565b60005b8281101561125a5760006005600086868581811061118557fe5b905060200201356001600160a01b03166001600160a01b03166001600160a01b0316815260200190815260200160002060006101000a81548160ff0219169083151502179055508383828181106111d857fe5b905060200201356001600160a01b03166001600160a01b031663f2fde38b836040518263ffffffff1660e01b815260040180826001600160a01b03168152602001915050600060405180830381600087803b15801561123657600080fd5b505af115801561124a573d6000803e3d6000fd5b50506001909201915061116b9050565b50505050565b611268610f73565b6001600160a01b0316336001600160a01b0316146112c3576040805162461bcd60e51b815260206004820152601360248201527226bab9ba103ab9b2902624a725903a37b5b2b760691b604482015290519081900360640190fd5b6000806112d48b8b8a8a8a8a612778565b91509150887fd8d7ecc4800d25fa53ce0372f13a416d98907a7ef3d8d3bdd79cf4fe75529c658c848d8f8c878c8c8c604051808a6001600160a01b03168152602001898152602001888152602001876001600160a01b03168152602001866001600160e01b0319168152602001858152602001848152602001806020018281038252848482818152602001925080828437600083820152604051601f909101601f19169092018290039c50909a5050505050505050505050a25050505050505050505050565b60006113a4612946565b600087815260046020526040902054879060081b60ff191661140d576040805162461bcd60e51b815260206004820152601b60248201527f4d757374206861766520612076616c6964207265717565737449640000000000604482015290519081900360640190fd5b6001600160a01b038616600090815260056020526040902054869060ff161561147d576040805162461bcd60e51b815260206004820152601a60248201527f43616e6e6f742063616c6c206f776e656420636f6e7472616374000000000000604482015290519081900360640190fd5b61148c89898989896001612998565b60405189907f9e9bc7616d42c2835d05ae617e508454e63b30b934be8aa932ebc125e0e58a6490600090a262061a805a101561150f576040805162461bcd60e51b815260206004820181905260248201527f4d7573742070726f7669646520636f6e73756d657220656e6f75676820676173604482015290519081900360640190fd5b60408051602481018b9052604480820187905282518083039091018152606490910182526020810180516001600160e01b03166001600160e01b03198a16178152915181516000936001600160a01b038c169392918291908083835b6020831061158a5780518252601f19909201916020918201910161156b565b6001836020036101000a0380198251168184511680821785525050505050509050019150506000604051808303816000865af19150503d80600081146115ec576040519150601f19603f3d011682016040523d82523d6000602084013e6115f1565b606091505b50909b9a5050505050505050505050565b600061160c612ab8565b905090565b6116196126ef565b611658576040805162461bcd60e51b815260206004820152601d6024820152600080516020612edd833981519152604482015290519081900360640190fd5b6116628484610c57565b61125a84848484612545565b6000611678612946565b600088815260046020526040902054889060081b60ff19166116e1576040805162461bcd60e51b815260206004820152601b60248201527f4d757374206861766520612076616c6964207265717565737449640000000000604482015290519081900360640190fd5b6001600160a01b038716600090815260056020526040902054879060ff1615611751576040805162461bcd60e51b815260206004820152601a60248201527f43616e6e6f742063616c6c206f776e656420636f6e7472616374000000000000604482015290519081900360640190fd5b89858560208110156117aa576040805162461bcd60e51b815260206004820152601b60248201527f526573706f6e7365206d757374206265203e2033322062797465730000000000604482015290519081900360640190fd5b8135838114611800576040805162461bcd60e51b815260206004820152601c60248201527f466972737420776f7264206d7573742062652072657175657374496400000000604482015290519081900360640190fd5b61180f8e8e8e8e8e6002612998565b6040518e907f9e9bc7616d42c2835d05ae617e508454e63b30b934be8aa932ebc125e0e58a6490600090a262061a805a1015611892576040805162461bcd60e51b815260206004820181905260248201527f4d7573742070726f7669646520636f6e73756d657220656e6f75676820676173604482015290519081900360640190fd5b60008c6001600160a01b03168c8b8b60405160200180846001600160e01b03191681526004018383808284378083019250505093505050506040516020818303038152906040526040518082805190602001908083835b602083106119085780518252601f1990920191602091820191016118e9565b6001836020036101000a0380198251168184511680821785525050505050509050019150506000604051808303816000865af19150503d806000811461196a576040519150601f19603f3d011682016040523d82523d6000602084013e61196f565b606091505b509098505050505050505050979650505050505050565b821580159061199457508281145b6119e5576040805162461bcd60e51b815260206004820152601760248201527f496e76616c6964206172726179206c656e677468287329000000000000000000604482015290519081900360640190fd5b3460005b84811015611a7b5760008484838181106119ff57fe5b905060200201359050611a1b8184612b7c90919063ffffffff16565b9250868683818110611a2957fe5b905060200201356001600160a01b03166001600160a01b03166108fc829081150290604051600060405180830381858888f19350505050158015611a71573d6000803e3d6000fd5b50506001016119e9565b508015610f6c576040805162461bcd60e51b8152602060048201526011602482015270151bdbc81b5d58da08115512081cd95b9d607a1b604482015290519081900360640190fd5b6000611ad184338585612bd9565b60008681526004602052604090205490915060081b60ff1990811690821614611b41576040805162461bcd60e51b815260206004820152601e60248201527f506172616d7320646f206e6f74206d6174636820726571756573742049440000604482015290519081900360640190fd5b42821115611b8f576040805162461bcd60e51b815260206004820152601660248201527514995c5d595cdd081a5cc81b9bdd08195e1c1a5c995960521b604482015290519081900360640190fd5b6000858152600460205260408082208290555186917fa7842b9ec549398102c0d91b1b9919b2f20558aefdadf57528a95c6cd3292e9391a26040805163a9059cbb60e01b81523360048201526024810186905290516001600160a01b037f0000000000000000000000000000000000000000000000000000000000000000169163a9059cbb9160448083019260209291908290030181600087803b158015611c3657600080fd5b505af1158015611c4a573d6000803e3d6000fd5b505050506040513d6020811015611c6057600080fd5b50505050505050565b6003546001600160a01b03163314611cc1576040805162461bcd60e51b815260206004820152601660248201527526bab9ba10313290383937b837b9b2b21037bbb732b960511b604482015290519081900360640190fd5b600280546001600160a01b0319808216339081179093556003805490911690556040516001600160a01b03909116919082907f8be0079c531659141344cd1fd0a4f28419497f9722a3daafe3b4186f6b6457e090600090a350565b6002546001600160a01b031690565b6000611d35612718565b8380611d3f612ab8565b1015611d7c5760405162461bcd60e51b8152600401808060200182810382526035815260200180612efd6035913960400191505060405180910390fd5b7f00000000000000000000000000000000000000000000000000000000000000006001600160a01b0316634000aea0878787876040518563ffffffff1660e01b815260040180856001600160a01b03168152602001848152602001806020018281038252848482818152602001925080828437600081840152601f19601f82011690508083019250505095505050505050602060405180830381600087803b158015611e2757600080fd5b505af1158015611e3b573d6000803e3d6000fd5b505050506040513d6020811015611e5157600080fd5b50519695505050505050565b611e65610f73565b6001600160a01b0316336001600160a01b031614611ec0576040805162461bcd60e51b815260206004820152601360248201527226bab9ba103ab9b2902624a725903a37b5b2b760691b604482015290519081900360640190fd5b60208101518190611ed18183612c33565b8460248401528360448401526000306001600160a01b0316846040518082805190602001908083835b60208310611f195780518252601f199092019160209182019101611efa565b6001836020036101000a038019825116818451168082178552505050505050905001915050600060405180830381855af49150503d8060008114611f79576040519150601f19603f3d011682016040523d82523d6000602084013e611f7e565b606091505b5050905080611fd4576040805162461bcd60e51b815260206004820152601860248201527f556e61626c6520746f2063726561746520726571756573740000000000000000604482015290519081900360640190fd5b505050505050565b6000338560405160200180836001600160a01b031660601b815260140182815260200192505050604051602081830303815290604052805190602001209050600061202985338686612bd9565b60008381526004602052604090205490915060081b60ff1990811690821614612099576040805162461bcd60e51b815260206004820152601e60248201527f506172616d7320646f206e6f74206d6174636820726571756573742049440000604482015290519081900360640190fd5b428311156120e7576040805162461bcd60e51b815260206004820152601660248201527514995c5d595cdd081a5cc81b9bdd08195e1c1a5c995960521b604482015290519081900360640190fd5b6000828152600460205260408082208290555183917fa7842b9ec549398102c0d91b1b9919b2f20558aefdadf57528a95c6cd3292e9391a26040805163a9059cbb60e01b81523360048201526024810187905290516001600160a01b037f0000000000000000000000000000000000000000000000000000000000000000169163a9059cbb9160448083019260209291908290030181600087803b15801561218e57600080fd5b505af11580156121a2573d6000803e3d6000fd5b505050506040513d60208110156121b857600080fd5b5050505050505050565b6121ca6126ef565b612209576040805162461bcd60e51b815260206004820152601d6024820152600080516020612edd833981519152604482015290519081900360640190fd5b8061225b576040805162461bcd60e51b815260206004820152601b60248201527f4d7573742068617665206174206c6561737420312073656e6465720000000000604482015290519081900360640190fd5b60015460005b818110156122b75760008060006001848154811061227b57fe5b6000918252602080832091909101546001600160a01b031683528201929092526040019020805460ff1916911515919091179055600101612261565b5060005b82811015612394576000808585848181106122d257fe5b602090810292909201356001600160a01b03168352508101919091526040016000205460ff161561234a576040805162461bcd60e51b815260206004820152601f60248201527f4d757374206e6f742068617665206475706c69636174652073656e6465727300604482015290519081900360640190fd5b600160008086868581811061235b57fe5b602090810292909201356001600160a01b0316835250810191909152604001600020805460ff19169115159190911790556001016122bb565b506123a160018484612e6d565b507ff263cfb3e4298332e776194610cf9fdc09ccb3ada8b9aa39764d882e11fbf0a08383336040518080602001836001600160a01b031681526020018281038252858582818152602001925060200280828437600083820152604051601f909101601f1916909201829003965090945050505050a1505050565b612423612718565b61242c81612d07565b50565b612437612718565b8080612441612ab8565b101561247e5760405162461bcd60e51b8152600401808060200182810382526035815260200180612efd6035913960400191505060405180910390fd5b7f00000000000000000000000000000000000000000000000000000000000000006001600160a01b031663a9059cbb84846040518363ffffffff1660e01b815260040180836001600160a01b0316815260200182815260200192505050602060405180830381600087803b1580156124f557600080fd5b505af1158015612509573d6000803e3d6000fd5b505050506040513d602081101561251f57600080fd5b5051610dcd57fe5b6001600160a01b031660009081526020819052604090205460ff1690565b61254d6126ef565b61258c576040805162461bcd60e51b815260206004820152601d6024820152600080516020612edd833981519152604482015290519081900360640190fd5b7f1bb185903e2cb2f1b303523128b60e314dea81df4f8d9b7351cadd344f6e77278484848433604051808060200180602001846001600160a01b031681526020018381038352888882818152602001925060200280828437600083820152601f01601f19169091018481038352868152602090810191508790870280828437600083820152604051601f909101601f1916909201829003995090975050505050505050a160005b83811015610f6c5784848281811061264757fe5b905060200201356001600160a01b03166001600160a01b031663ee56997b84846040518363ffffffff1660e01b815260040180806020018281038252848482818152602001925060200280828437600081840152601f19601f8201169050808301925050509350505050600060405180830381600087803b1580156126cb57600080fd5b505af11580156126df573d6000803e3d6000fd5b5050600190920191506126339050565b60006126fa33612527565b8061160c575033612709611d1c565b6001600160a01b031614905090565b6002546001600160a01b03163314612770576040805162461bcd60e51b815260206004820152601660248201527527b7363c9031b0b63630b1363290313c9037bbb732b960511b604482015290519081900360640190fd5b565b3b151590565b600080857f00000000000000000000000000000000000000000000000000000000000000006001600160a01b0316816001600160a01b031614156127f9576040805162461bcd60e51b815260206004820152601360248201527243616e6e6f742063616c6c20746f204c494e4b60681b604482015290519081900360640190fd5b6040805160608b901b6bffffffffffffffffffffffff191660208083019190915260348083018990528351808403909101815260549092018352815191810191909120600081815260049092529190205490935060081b60ff19161561289d576040805162461bcd60e51b8152602060048201526014602482015273135d5cdd081d5cd94818481d5b9a5c5d5948125160621b604482015290519081900360640190fd5b6128a94261012c612db7565b915060006128b989898986612bd9565b905060405180604001604052808260ff191681526020016128d987612e18565b60ff9081169091526000868152600460209081526040909120835181549490920151909216600160f81b0260089190911c6001600160f81b0319909316929092176001600160f81b0316919091179055600654612936908a612db7565b6006555050965096945050505050565b61294f33612527565b612770576040805162461bcd60e51b81526020600482015260156024820152742737ba1030baba3437b934bd32b21039b2b73232b960591b604482015290519081900360640190fd5b60006129a686868686612bd9565b60008881526004602052604090205490915060081b60ff1990811690821614612a16576040805162461bcd60e51b815260206004820152601e60248201527f506172616d7320646f206e6f74206d6174636820726571756573742049440000604482015290519081900360640190fd5b612a1f82612e18565b60008881526004602052604090205460ff918216600160f81b9091049091161115612a91576040805162461bcd60e51b815260206004820152601860248201527f446174612076657273696f6e73206d757374206d617463680000000000000000604482015290519081900360640190fd5b600654612a9e9087612b7c565b600655505050600093845250506004602052506040812055565b600080612ad16001600654612b7c90919063ffffffff16565b9050612b76817f00000000000000000000000000000000000000000000000000000000000000006001600160a01b03166370a08231306040518263ffffffff1660e01b815260040180826001600160a01b0316815260200191505060206040518083038186803b158015612b4457600080fd5b505afa158015612b58573d6000803e3d6000fd5b505050506040513d6020811015612b6e57600080fd5b505190612b7c565b91505090565b600082821115612bd3576040805162461bcd60e51b815260206004820152601e60248201527f536166654d6174683a207375627472616374696f6e206f766572666c6f770000604482015290519081900360640190fd5b50900390565b6040805160208082019690965260609490941b6bffffffffffffffffffffffff1916848201526001600160e01b03199290921660548401526058808401919091528151808403909101815260789092019052805191012090565b805160441115612c83576040805162461bcd60e51b8152602060048201526016602482015275092dcecc2d8d2c840e4cae2eacae6e840d8cadccee8d60531b604482015290519081900360640190fd5b6001600160e01b03198216633c6d41b960e01b1480612cb257506001600160e01b031982166320214ca360e11b145b612d03576040805162461bcd60e51b815260206004820152601e60248201527f4d757374207573652077686974656c69737465642066756e6374696f6e730000604482015290519081900360640190fd5b5050565b6001600160a01b038116331415612d65576040805162461bcd60e51b815260206004820152601760248201527f43616e6e6f74207472616e7366657220746f2073656c66000000000000000000604482015290519081900360640190fd5b600380546001600160a01b0319166001600160a01b03838116918217909255600254604051919216907fed8889f560326eb138920d842192f0eb3dd22b4f139c87a2c57538e05bae127890600090a350565b600082820183811015612e11576040805162461bcd60e51b815260206004820152601b60248201527f536166654d6174683a206164646974696f6e206f766572666c6f770000000000604482015290519081900360640190fd5b9392505050565b60006101008210612e69576040805162461bcd60e51b81526020600482015260166024820152751b9d5b58995c881d1bdbc8189a59c81d1bc818d85cdd60521b604482015290519081900360640190fd5b5090565b828054828255906000526020600020908101928215612ec0579160200282015b82811115612ec05781546001600160a01b0319166001600160a01b03843516178255602090920191600190910190612e8d565b50612e699291505b80821115612e695760008155600101612ec856fe43616e6e6f742073657420617574686f72697a65642073656e64657273000000416d6f756e74207265717565737465642069732067726561746572207468616e20776974686472617761626c652062616c616e6365a2646970667358221220acd018efc10dfbcb1be19df0ac541bb8bd6384b92d8a6cfcb140a868403a137b64736f6c63430007060033","linkReferences":{}},"methodIdentifiers":{"acceptAuthorizedReceivers(address[],address[])":"5ffa6288","acceptOwnableContracts(address[])":"01994b99","acceptOwnership()":"79ba5097","cancelOracleRequest(bytes32,uint256,bytes4,uint256)":"6ee4d553","cancelOracleRequestByRequester(uint256,uint256,bytes4,uint256)":"eb007d99","distributeFunds(address[],uint256[])":"6bd59ec0","fulfillOracleRequest(bytes32,uint256,address,bytes4,uint256,bytes32)":"4ab0d190","fulfillOracleRequest2(bytes32,uint256,address,bytes4,uint256,bytes)":"6ae0bc76","getAuthorizedSenders()":"2408afaa","getChainlinkToken()":"165d35e1","getExpiryTime()":"25cb5bc0","isAuthorizedSender(address)":"fa00763a","onTokenTransfer(address,uint256,bytes)":"a4c0ed36","operatorRequest(address,uint256,bytes32,bytes4,uint256,uint256,bytes)":"3c6d41b9","oracleRequest(address,uint256,bytes32,address,bytes4,uint256,uint256,bytes)":"40429946","owner()":"8da5cb5b","ownerForward(address,bytes)":"033f49f7","ownerTransferAndCall(address,uint256,bytes)":"902fc370","setAuthorizedSenders(address[])":"ee56997b","setAuthorizedSendersOn(address[],address[])":"fc4a03ed","transferOwnableContracts(address[],address)":"3ec5bc14","transferOwnership(address)":"f2fde38b","typeAndVersion()":"181f5a77","withdraw(address,uint256)":"f3fef3a3","withdrawable()":"50188301"},"id":12}