{"abi":[{"type":"constructor","inputs":[{"name":"mode","type":"uint8","internalType":"enum KeeperRegistryBase2_1.Mode"},{"name":"link","type":"address","internalType":"address"},{"name":"linkNativeFeed","type":"address","internalType":"address"},{"name":"fastGasFeed","type":"address","internalType":"address"},{"name":"automationForwarderLogic","type":"address","internalType":"address"}],"stateMutability":"nonpayable"},{"type":"function","name":"acceptOwnership","inputs":[],"outputs":[],"stateMutability":"nonpayable"},{"type":"function","name":"acceptPayeeship","inputs":[{"name":"transmitter","type":"address","internalType":"address"}],"outputs":[],"stateMutability":"nonpayable"},{"type":"function","name":"acceptUpkeepAdmin","inputs":[{"name":"id","type":"uint256","internalType":"uint256"}],"outputs":[],"stateMutability":"nonpayable"},{"type":"function","name":"getActiveUpkeepIDs","inputs":[{"name":"startIndex","type":"uint256","internalType":"uint256"},{"name":"maxCount","type":"uint256","internalType":"uint256"}],"outputs":[{"name":"","type":"uint256[]","internalType":"uint256[]"}],"stateMutability":"view"},{"type":"function","name":"getAdminPrivilegeConfig","inputs":[{"name":"admin","type":"address","internalType":"address"}],"outputs":[{"name":"","type":"bytes","internalType":"bytes"}],"stateMutability":"view"},{"type":"function","name":"getAutomationForwarderLogic","inputs":[],"outputs":[{"name":"","type":"address","internalType":"address"}],"stateMutability":"view"},{"type":"function","name":"getBalance","inputs":[{"name":"id","type":"uint256","internalType":"uint256"}],"outputs":[{"name":"balance","type":"uint96","internalType":"uint96"}],"stateMutability":"view"},{"type":"function","name":"getCancellationDelay","inputs":[],"outputs":[{"name":"","type":"uint256","internalType":"uint256"}],"stateMutability":"pure"},{"type":"function","name":"getConditionalGasOverhead","inputs":[],"outputs":[{"name":"","type":"uint256","internalType":"uint256"}],"stateMutability":"pure"},{"type":"function","name":"getFastGasFeedAddress","inputs":[],"outputs":[{"name":"","type":"address","internalType":"address"}],"stateMutability":"view"},{"type":"function","name":"getForwarder","inputs":[{"name":"upkeepID","type":"uint256","internalType":"uint256"}],"outputs":[{"name":"","type":"address","internalType":"contract IAutomationForwarder"}],"stateMutability":"view"},{"type":"function","name":"getLinkAddress","inputs":[],"outputs":[{"name":"","type":"address","internalType":"address"}],"stateMutability":"view"},{"type":"function","name":"getLinkNativeFeedAddress","inputs":[],"outputs":[{"name":"","type":"address","internalType":"address"}],"stateMutability":"view"},{"type":"function","name":"getLogGasOverhead","inputs":[],"outputs":[{"name":"","type":"uint256","internalType":"uint256"}],"stateMutability":"pure"},{"type":"function","name":"getMaxPaymentForGas","inputs":[{"name":"triggerType","type":"uint8","internalType":"enum KeeperRegistryBase2_1.Trigger"},{"name":"gasLimit","type":"uint32","internalType":"uint32"}],"outputs":[{"name":"maxPayment","type":"uint96","internalType":"uint96"}],"stateMutability":"view"},{"type":"function","name":"getMinBalance","inputs":[{"name":"id","type":"uint256","internalType":"uint256"}],"outputs":[{"name":"","type":"uint96","internalType":"uint96"}],"stateMutability":"view"},{"type":"function","name":"getMinBalanceForUpkeep","inputs":[{"name":"id","type":"uint256","internalType":"uint256"}],"outputs":[{"name":"minBalance","type":"uint96","internalType":"uint96"}],"stateMutability":"view"},{"type":"function","name":"getMode","inputs":[],"outputs":[{"name":"","type":"uint8","internalType":"enum KeeperRegistryBase2_1.Mode"}],"stateMutability":"view"},{"type":"function","name":"getPeerRegistryMigrationPermission","inputs":[{"name":"peer","type":"address","internalType":"address"}],"outputs":[{"name":"","type":"uint8","internalType":"enum KeeperRegistryBase2_1.MigrationPermission"}],"stateMutability":"view"},{"type":"function","name":"getPerPerformByteGasOverhead","inputs":[],"outputs":[{"name":"","type":"uint256","internalType":"uint256"}],"stateMutability":"pure"},{"type":"function","name":"getPerSignerGasOverhead","inputs":[],"outputs":[{"name":"","type":"uint256","internalType":"uint256"}],"stateMutability":"pure"},{"type":"function","name":"getSignerInfo","inputs":[{"name":"query","type":"address","internalType":"address"}],"outputs":[{"name":"active","type":"bool","internalType":"bool"},{"name":"index","type":"uint8","internalType":"uint8"}],"stateMutability":"view"},{"type":"function","name":"getState","inputs":[],"outputs":[{"name":"state","type":"tuple","internalType":"struct KeeperRegistryBase2_1.State","components":[{"name":"nonce","type":"uint32","internalType":"uint32"},{"name":"ownerLinkBalance","type":"uint96","internalType":"uint96"},{"name":"expectedLinkBalance","type":"uint256","internalType":"uint256"},{"name":"totalPremium","type":"uint96","internalType":"uint96"},{"name":"numUpkeeps","type":"uint256","internalType":"uint256"},{"name":"configCount","type":"uint32","internalType":"uint32"},{"name":"latestConfigBlockNumber","type":"uint32","internalType":"uint32"},{"name":"latestConfigDigest","type":"bytes32","internalType":"bytes32"},{"name":"latestEpoch","type":"uint32","internalType":"uint32"},{"name":"paused","type":"bool","internalType":"bool"}]},{"name":"config","type":"tuple","internalType":"struct KeeperRegistryBase2_1.OnchainConfig","components":[{"name":"paymentPremiumPPB","type":"uint32","internalType":"uint32"},{"name":"flatFeeMicroLink","type":"uint32","internalType":"uint32"},{"name":"checkGasLimit","type":"uint32","internalType":"uint32"},{"name":"stalenessSeconds","type":"uint24","internalType":"uint24"},{"name":"gasCeilingMultiplier","type":"uint16","internalType":"uint16"},{"name":"minUpkeepSpend","type":"uint96","internalType":"uint96"},{"name":"maxPerformGas","type":"uint32","internalType":"uint32"},{"name":"maxCheckDataSize","type":"uint32","internalType":"uint32"},{"name":"maxPerformDataSize","type":"uint32","internalType":"uint32"},{"name":"maxRevertDataSize","type":"uint32","internalType":"uint32"},{"name":"fallbackGasPrice","type":"uint256","internalType":"uint256"},{"name":"fallbackLinkPrice","type":"uint256","internalType":"uint256"},{"name":"transcoder","type":"address","internalType":"address"},{"name":"registrars","type":"address[]","internalType":"address[]"},{"name":"upkeepPrivilegeManager","type":"address","internalType":"address"}]},{"name":"signers","type":"address[]","internalType":"address[]"},{"name":"transmitters","type":"address[]","internalType":"address[]"},{"name":"f","type":"uint8","internalType":"uint8"}],"stateMutability":"view"},{"type":"function","name":"getTransmitterInfo","inputs":[{"name":"query","type":"address","internalType":"address"}],"outputs":[{"name":"active","type":"bool","internalType":"bool"},{"name":"index","type":"uint8","internalType":"uint8"},{"name":"balance","type":"uint96","internalType":"uint96"},{"name":"lastCollected","type":"uint96","internalType":"uint96"},{"name":"payee","type":"address","internalType":"address"}],"stateMutability":"view"},{"type":"function","name":"getTriggerType","inputs":[{"name":"upkeepId","type":"uint256","internalType":"uint256"}],"outputs":[{"name":"","type":"uint8","internalType":"enum KeeperRegistryBase2_1.Trigger"}],"stateMutability":"pure"},{"type":"function","name":"getUpkeep","inputs":[{"name":"id","type":"uint256","internalType":"uint256"}],"outputs":[{"name":"upkeepInfo","type":"tuple","internalType":"struct KeeperRegistryBase2_1.UpkeepInfo","components":[{"name":"target","type":"address","internalType":"address"},{"name":"performGas","type":"uint32","internalType":"uint32"},{"name":"checkData","type":"bytes","internalType":"bytes"},{"name":"balance","type":"uint96","internalType":"uint96"},{"name":"admin","type":"address","internalType":"address"},{"name":"maxValidBlocknumber","type":"uint64","internalType":"uint64"},{"name":"lastPerformedBlockNumber","type":"uint32","internalType":"uint32"},{"name":"amountSpent","type":"uint96","internalType":"uint96"},{"name":"paused","type":"bool","internalType":"bool"},{"name":"offchainConfig","type":"bytes","internalType":"bytes"}]}],"stateMutability":"view"},{"type":"function","name":"getUpkeepPrivilegeConfig","inputs":[{"name":"upkeepId","type":"uint256","internalType":"uint256"}],"outputs":[{"name":"","type":"bytes","internalType":"bytes"}],"stateMutability":"view"},{"type":"function","name":"getUpkeepTriggerConfig","inputs":[{"name":"upkeepId","type":"uint256","internalType":"uint256"}],"outputs":[{"name":"","type":"bytes","internalType":"bytes"}],"stateMutability":"view"},{"type":"function","name":"hasDedupKey","inputs":[{"name":"dedupKey","type":"bytes32","internalType":"bytes32"}],"outputs":[{"name":"","type":"bool","internalType":"bool"}],"stateMutability":"view"},{"type":"function","name":"owner","inputs":[],"outputs":[{"name":"","type":"address","internalType":"address"}],"stateMutability":"view"},{"type":"function","name":"pause","inputs":[],"outputs":[],"stateMutability":"nonpayable"},{"type":"function","name":"pauseUpkeep","inputs":[{"name":"id","type":"uint256","internalType":"uint256"}],"outputs":[],"stateMutability":"nonpayable"},{"type":"function","name":"recoverFunds","inputs":[],"outputs":[],"stateMutability":"nonpayable"},{"type":"function","name":"setAdminPrivilegeConfig","inputs":[{"name":"admin","type":"address","internalType":"address"},{"name":"newPrivilegeConfig","type":"bytes","internalType":"bytes"}],"outputs":[],"stateMutability":"nonpayable"},{"type":"function","name":"setPayees","inputs":[{"name":"payees","type":"address[]","internalType":"address[]"}],"outputs":[],"stateMutability":"nonpayable"},{"type":"function","name":"setPeerRegistryMigrationPermission","inputs":[{"name":"peer","type":"address","internalType":"address"},{"name":"permission","type":"uint8","internalType":"enum KeeperRegistryBase2_1.MigrationPermission"}],"outputs":[],"stateMutability":"nonpayable"},{"type":"function","name":"setUpkeepCheckData","inputs":[{"name":"id","type":"uint256","internalType":"uint256"},{"name":"newCheckData","type":"bytes","internalType":"bytes"}],"outputs":[],"stateMutability":"nonpayable"},{"type":"function","name":"setUpkeepGasLimit","inputs":[{"name":"id","type":"uint256","internalType":"uint256"},{"name":"gasLimit","type":"uint32","internalType":"uint32"}],"outputs":[],"stateMutability":"nonpayable"},{"type":"function","name":"setUpkeepOffchainConfig","inputs":[{"name":"id","type":"uint256","internalType":"uint256"},{"name":"config","type":"bytes","internalType":"bytes"}],"outputs":[],"stateMutability":"nonpayable"},{"type":"function","name":"setUpkeepPrivilegeConfig","inputs":[{"name":"upkeepId","type":"uint256","internalType":"uint256"},{"name":"newPrivilegeConfig","type":"bytes","internalType":"bytes"}],"outputs":[],"stateMutability":"nonpayable"},{"type":"function","name":"transferOwnership","inputs":[{"name":"to","type":"address","internalType":"address"}],"outputs":[],"stateMutability":"nonpayable"},{"type":"function","name":"transferPayeeship","inputs":[{"name":"transmitter","type":"address","internalType":"address"},{"name":"proposed","type":"address","internalType":"address"}],"outputs":[],"stateMutability":"nonpayable"},{"type":"function","name":"transferUpkeepAdmin","inputs":[{"name":"id","type":"uint256","internalType":"uint256"},{"name":"proposed","type":"address","internalType":"address"}],"outputs":[],"stateMutability":"nonpayable"},{"type":"function","name":"unpause","inputs":[],"outputs":[],"stateMutability":"nonpayable"},{"type":"function","name":"unpauseUpkeep","inputs":[{"name":"id","type":"uint256","internalType":"uint256"}],"outputs":[],"stateMutability":"nonpayable"},{"type":"function","name":"upkeepTranscoderVersion","inputs":[],"outputs":[{"name":"","type":"uint8","internalType":"enum UpkeepFormat"}],"stateMutability":"pure"},{"type":"function","name":"upkeepVersion","inputs":[],"outputs":[{"name":"","type":"uint8","internalType":"uint8"}],"stateMutability":"pure"},{"type":"function","name":"withdrawFunds","inputs":[{"name":"id","type":"uint256","internalType":"uint256"},{"name":"to","type":"address","internalType":"address"}],"outputs":[],"stateMutability":"nonpayable"},{"type":"function","name":"withdrawOwnerFunds","inputs":[],"outputs":[],"stateMutability":"nonpayable"},{"type":"function","name":"withdrawPayment","inputs":[{"name":"from","type":"address","internalType":"address"},{"name":"to","type":"address","internalType":"address"}],"outputs":[],"stateMutability":"nonpayable"},{"type":"event","name":"AdminPrivilegeConfigSet","inputs":[{"name":"admin","type":"address","indexed":true,"internalType":"address"},{"name":"privilegeConfig","type":"bytes","indexed":false,"internalType":"bytes"}],"anonymous":false},{"type":"event","name":"CancelledUpkeepReport","inputs":[{"name":"id","type":"uint256","indexed":true,"internalType":"uint256"},{"name":"trigger","type":"bytes","indexed":false,"internalType":"bytes"}],"anonymous":false},{"type":"event","name":"DedupKeyAdded","inputs":[{"name":"dedupKey","type":"bytes32","indexed":true,"internalType":"bytes32"}],"anonymous":false},{"type":"event","name":"FundsAdded","inputs":[{"name":"id","type":"uint256","indexed":true,"internalType":"uint256"},{"name":"from","type":"address","indexed":true,"internalType":"address"},{"name":"amount","type":"uint96","indexed":false,"internalType":"uint96"}],"anonymous":false},{"type":"event","name":"FundsWithdrawn","inputs":[{"name":"id","type":"uint256","indexed":true,"internalType":"uint256"},{"name":"amount","type":"uint256","indexed":false,"internalType":"uint256"},{"name":"to","type":"address","indexed":false,"internalType":"address"}],"anonymous":false},{"type":"event","name":"InsufficientFundsUpkeepReport","inputs":[{"name":"id","type":"uint256","indexed":true,"internalType":"uint256"},{"name":"trigger","type":"bytes","indexed":false,"internalType":"bytes"}],"anonymous":false},{"type":"event","name":"OwnerFundsWithdrawn","inputs":[{"name":"amount","type":"uint96","indexed":false,"internalType":"uint96"}],"anonymous":false},{"type":"event","name":"OwnershipTransferRequested","inputs":[{"name":"from","type":"address","indexed":true,"internalType":"address"},{"name":"to","type":"address","indexed":true,"internalType":"address"}],"anonymous":false},{"type":"event","name":"OwnershipTransferred","inputs":[{"name":"from","type":"address","indexed":true,"internalType":"address"},{"name":"to","type":"address","indexed":true,"internalType":"address"}],"anonymous":false},{"type":"event","name":"Paused","inputs":[{"name":"account","type":"address","indexed":false,"internalType":"address"}],"anonymous":false},{"type":"event","name":"PayeesUpdated","inputs":[{"name":"transmitters","type":"address[]","indexed":false,"internalType":"address[]"},{"name":"payees","type":"address[]","indexed":false,"internalType":"address[]"}],"anonymous":false},{"type":"event","name":"PayeeshipTransferRequested","inputs":[{"name":"transmitter","type":"address","indexed":true,"internalType":"address"},{"name":"from","type":"address","indexed":true,"internalType":"address"},{"name":"to","type":"address","indexed":true,"internalType":"address"}],"anonymous":false},{"type":"event","name":"PayeeshipTransferred","inputs":[{"name":"transmitter","type":"address","indexed":true,"internalType":"address"},{"name":"from","type":"address","indexed":true,"internalType":"address"},{"name":"to","type":"address","indexed":true,"internalType":"address"}],"anonymous":false},{"type":"event","name":"PaymentWithdrawn","inputs":[{"name":"transmitter","type":"address","indexed":true,"internalType":"address"},{"name":"amount","type":"uint256","indexed":true,"internalType":"uint256"},{"name":"to","type":"address","indexed":true,"internalType":"address"},{"name":"payee","type":"address","indexed":false,"internalType":"address"}],"anonymous":false},{"type":"event","name":"ReorgedUpkeepReport","inputs":[{"name":"id","type":"uint256","indexed":true,"internalType":"uint256"},{"name":"trigger","type":"bytes","indexed":false,"internalType":"bytes"}],"anonymous":false},{"type":"event","name":"StaleUpkeepReport","inputs":[{"name":"id","type":"uint256","indexed":true,"internalType":"uint256"},{"name":"trigger","type":"bytes","indexed":false,"internalType":"bytes"}],"anonymous":false},{"type":"event","name":"Unpaused","inputs":[{"name":"account","type":"address","indexed":false,"internalType":"address"}],"anonymous":false},{"type":"event","name":"UpkeepAdminTransferRequested","inputs":[{"name":"id","type":"uint256","indexed":true,"internalType":"uint256"},{"name":"from","type":"address","indexed":true,"internalType":"address"},{"name":"to","type":"address","indexed":true,"internalType":"address"}],"anonymous":false},{"type":"event","name":"UpkeepAdminTransferred","inputs":[{"name":"id","type":"uint256","indexed":true,"internalType":"uint256"},{"name":"from","type":"address","indexed":true,"internalType":"address"},{"name":"to","type":"address","indexed":true,"internalType":"address"}],"anonymous":false},{"type":"event","name":"UpkeepCanceled","inputs":[{"name":"id","type":"uint256","indexed":true,"internalType":"uint256"},{"name":"atBlockHeight","type":"uint64","indexed":true,"internalType":"uint64"}],"anonymous":false},{"type":"event","name":"UpkeepCheckDataSet","inputs":[{"name":"id","type":"uint256","indexed":true,"internalType":"uint256"},{"name":"newCheckData","type":"bytes","indexed":false,"internalType":"bytes"}],"anonymous":false},{"type":"event","name":"UpkeepGasLimitSet","inputs":[{"name":"id","type":"uint256","indexed":true,"internalType":"uint256"},{"name":"gasLimit","type":"uint96","indexed":false,"internalType":"uint96"}],"anonymous":false},{"type":"event","name":"UpkeepMigrated","inputs":[{"name":"id","type":"uint256","indexed":true,"internalType":"uint256"},{"name":"remainingBalance","type":"uint256","indexed":false,"internalType":"uint256"},{"name":"destination","type":"address","indexed":false,"internalType":"address"}],"anonymous":false},{"type":"event","name":"UpkeepOffchainConfigSet","inputs":[{"name":"id","type":"uint256","indexed":true,"internalType":"uint256"},{"name":"offchainConfig","type":"bytes","indexed":false,"internalType":"bytes"}],"anonymous":false},{"type":"event","name":"UpkeepPaused","inputs":[{"name":"id","type":"uint256","indexed":true,"internalType":"uint256"}],"anonymous":false},{"type":"event","name":"UpkeepPerformed","inputs":[{"name":"id","type":"uint256","indexed":true,"internalType":"uint256"},{"name":"success","type":"bool","indexed":true,"internalType":"bool"},{"name":"totalPayment","type":"uint96","indexed":false,"internalType":"uint96"},{"name":"gasUsed","type":"uint256","indexed":false,"internalType":"uint256"},{"name":"gasOverhead","type":"uint256","indexed":false,"internalType":"uint256"},{"name":"trigger","type":"bytes","indexed":false,"internalType":"bytes"}],"anonymous":false},{"type":"event","name":"UpkeepPrivilegeConfigSet","inputs":[{"name":"id","type":"uint256","indexed":true,"internalType":"uint256"},{"name":"privilegeConfig","type":"bytes","indexed":false,"internalType":"bytes"}],"anonymous":false},{"type":"event","name":"UpkeepReceived","inputs":[{"name":"id","type":"uint256","indexed":true,"internalType":"uint256"},{"name":"startingBalance","type":"uint256","indexed":false,"internalType":"uint256"},{"name":"importedFrom","type":"address","indexed":false,"internalType":"address"}],"anonymous":false},{"type":"event","name":"UpkeepRegistered","inputs":[{"name":"id","type":"uint256","indexed":true,"internalType":"uint256"},{"name":"performGas","type":"uint32","indexed":false,"internalType":"uint32"},{"name":"admin","type":"address","indexed":false,"internalType":"address"}],"anonymous":false},{"type":"event","name":"UpkeepTriggerConfigSet","inputs":[{"name":"id","type":"uint256","indexed":true,"internalType":"uint256"},{"name":"triggerConfig","type":"bytes","indexed":false,"internalType":"bytes"}],"anonymous":false},{"type":"event","name":"UpkeepUnpaused","inputs":[{"name":"id","type":"uint256","indexed":true,"internalType":"uint256"}],"anonymous":false},{"type":"error","name":"ArrayHasNoEntries","inputs":[]},{"type":"error","name":"CannotCancel","inputs":[]},{"type":"error","name":"CheckDataExceedsLimit","inputs":[]},{"type":"error","name":"ConfigDigestMismatch","inputs":[]},{"type":"error","name":"DuplicateEntry","inputs":[]},{"type":"error","name":"DuplicateSigners","inputs":[]},{"type":"error","name":"GasLimitCanOnlyIncrease","inputs":[]},{"type":"error","name":"GasLimitOutsideRange","inputs":[]},{"type":"error","name":"IncorrectNumberOfFaultyOracles","inputs":[]},{"type":"error","name":"IncorrectNumberOfSignatures","inputs":[]},{"type":"error","name":"IncorrectNumberOfSigners","inputs":[]},{"type":"error","name":"IndexOutOfRange","inputs":[]},{"type":"error","name":"InsufficientFunds","inputs":[]},{"type":"error","name":"InvalidDataLength","inputs":[]},{"type":"error","name":"InvalidPayee","inputs":[]},{"type":"error","name":"InvalidRecipient","inputs":[]},{"type":"error","name":"InvalidReport","inputs":[]},{"type":"error","name":"InvalidSigner","inputs":[]},{"type":"error","name":"InvalidTransmitter","inputs":[]},{"type":"error","name":"InvalidTrigger","inputs":[]},{"type":"error","name":"InvalidTriggerType","inputs":[]},{"type":"error","name":"MaxCheckDataSizeCanOnlyIncrease","inputs":[]},{"type":"error","name":"MaxPerformDataSizeCanOnlyIncrease","inputs":[]},{"type":"error","name":"MigrationNotPermitted","inputs":[]},{"type":"error","name":"NotAContract","inputs":[]},{"type":"error","name":"OnlyActiveSigners","inputs":[]},{"type":"error","name":"OnlyActiveTransmitters","inputs":[]},{"type":"error","name":"OnlyCallableByAdmin","inputs":[]},{"type":"error","name":"OnlyCallableByLINKToken","inputs":[]},{"type":"error","name":"OnlyCallableByOwnerOrAdmin","inputs":[]},{"type":"error","name":"OnlyCallableByOwnerOrRegistrar","inputs":[]},{"type":"error","name":"OnlyCallableByPayee","inputs":[]},{"type":"error","name":"OnlyCallableByProposedAdmin","inputs":[]},{"type":"error","name":"OnlyCallableByProposedPayee","inputs":[]},{"type":"error","name":"OnlyCallableByUpkeepPrivilegeManager","inputs":[]},{"type":"error","name":"OnlyPausedUpkeep","inputs":[]},{"type":"error","name":"OnlySimulatedBackend","inputs":[]},{"type":"error","name":"OnlyUnpausedUpkeep","inputs":[]},{"type":"error","name":"ParameterLengthError","inputs":[]},{"type":"error","name":"PaymentGreaterThanAllLINK","inputs":[]},{"type":"error","name":"ReentrantCall","inputs":[]},{"type":"error","name":"RegistryPaused","inputs":[]},{"type":"error","name":"RepeatedSigner","inputs":[]},{"type":"error","name":"RepeatedTransmitter","inputs":[]},{"type":"error","name":"TargetCheckReverted","inputs":[{"name":"reason","type":"bytes","internalType":"bytes"}]},{"type":"error","name":"TooManyOracles","inputs":[]},{"type":"error","name":"TranscoderNotSet","inputs":[]},{"type":"error","name":"UpkeepAlreadyExists","inputs":[]},{"type":"error","name":"UpkeepCancelled","inputs":[]},{"type":"error","name":"UpkeepNotCanceled","inputs":[]},{"type":"error","name":"UpkeepNotNeeded","inputs":[]},{"type":"error","name":"ValueNotChanged","inputs":[]}],"bytecode":{"object":"0x6101206040523480156200001257600080fd5b506040516200414f3803806200414f8339810160408190526200003591620001e9565b84848484843380600081620000915760405162461bcd60e51b815260206004820152601860248201527f43616e6e6f7420736574206f776e657220746f207a65726f000000000000000060448201526064015b60405180910390fd5b600080546001600160a01b0319166001600160a01b0384811691909117909155811615620000c457620000c48162000121565b505050846002811115620000dc57620000dc6200025e565b60e0816002811115620000f357620000f36200025e565b9052506001600160a01b0393841660805291831660a052821660c05216610100525062000274945050505050565b336001600160a01b038216036200017b5760405162461bcd60e51b815260206004820152601760248201527f43616e6e6f74207472616e7366657220746f2073656c66000000000000000000604482015260640162000088565b600180546001600160a01b0319166001600160a01b0383811691821790925560008054604051929316917fed8889f560326eb138920d842192f0eb3dd22b4f139c87a2c57538e05bae12789190a350565b80516001600160a01b0381168114620001e457600080fd5b919050565b600080600080600060a086880312156200020257600080fd5b8551600381106200021257600080fd5b94506200022260208701620001cc565b93506200023260408701620001cc565b92506200024260608701620001cc565b91506200025260808701620001cc565b90509295509295909350565b634e487b7160e01b600052602160045260246000fd5b60805160a05160c05160e05161010051613e50620002ff60003960006105020152600081816104a00152818161283901528181612cab0152612e18015260008181610562015261264701526000818161066a01526127140152600081816106f8015281816115fc0152818161181301528181611b1f01528181611eed0152611f640152613e506000f3fe608060405234801561001057600080fd5b50600436106102d65760003560e01c806379ba509711610182578063b121e147116100e9578063ca30e603116100a2578063eb5dcd6c1161007c578063eb5dcd6c14610742578063ed56b3e114610755578063f2fde38b146107bb578063faa3e996146107ce57600080fd5b8063ca30e603146106f6578063cd7f71b51461071c578063d76326481461072f57600080fd5b8063b121e1471461068e578063b148ab6b146106a1578063b6511a2a146106b4578063b657bc9c146106bb578063b79550be146106ce578063c7c3a19a146106d657600080fd5b80638dcf0fe71161013b5780638dcf0fe714610618578063a710b2211461062b578063a72aa27e1461063e578063aab9edd614610651578063abc76ae014610660578063b10b673c1461066857600080fd5b806379ba5097146105ac57806379ea9943146105b45780637d9b97e0146105e45780638456cb59146105ec5780638765ecbe146105f45780638da5cb5b1461060757600080fd5b8063421d183b116102415780635165f2f5116101fa5780636209e1e9116101d45780636209e1e91461054d5780636709d0e514610560578063671d36ed14610586578063744bfe611461059957600080fd5b80635165f2f5146104ed5780635425d8ac146105005780635b6aa71c1461053a57600080fd5b8063421d183b1461040757806344cb70b81461045b57806348013d7b1461048e5780634b4fd03b1461049e5780634ca16c52146104c45780635147cd59146104cd57600080fd5b80631a2af011116102935780631a2af011146103745780631e01043914610387578063207b6516146103d2578063232c1cc5146103e55780633b9cce59146103ec5780633f4ba83a146103ff57600080fd5b8063050ee65d146102db57806306e3b632146102f35780630b7d33e6146103135780631865c57d14610328578063187256e81461034157806319d97a9414610354575b600080fd5b6201adb05b6040519081526020015b60405180910390f35b610306610301366004613170565b610807565b6040516102ea9190613192565b61032661032136600461321f565b61090b565b005b610330610996565b6040516102ea9594939291906133f6565b61032661034f366004613516565b610cf3565b610367610362366004613553565b610d39565b6040516102ea91906135bc565b6103266103823660046135cf565b610ddb565b6103ba610395366004613553565b600090815260046020526040902060010154600160601b90046001600160601b031690565b6040516001600160601b0390911681526020016102ea565b6103676103e0366004613553565b610e89565b60146102e0565b6103266103fa3660046135f4565b610ea6565b61032661104a565b61041a610415366004613669565b611095565b60408051951515865260ff90941660208601526001600160601b03928316938501939093521660608301526001600160a01b0316608082015260a0016102ea565b61047e610469366004613553565b60009081526008602052604090205460ff1690565b60405190151581526020016102ea565b60005b6040516102ea91906136ac565b7f0000000000000000000000000000000000000000000000000000000000000000610491565b62015f906102e0565b6104e06104db366004613553565b61118c565b6040516102ea91906136bf565b6103266104fb366004613553565b611197565b7f00000000000000000000000000000000000000000000000000000000000000005b6040516001600160a01b0390911681526020016102ea565b6103ba6105483660046136ec565b61129f565b61036761055b366004613669565b61137e565b7f0000000000000000000000000000000000000000000000000000000000000000610522565b610326610594366004613725565b6113a5565b6103266105a73660046135cf565b611436565b6103266116d4565b6105226105c2366004613553565b600090815260046020526040902054600160481b90046001600160a01b031690565b610326611783565b61032661188d565b610326610602366004613553565b6118d8565b6000546001600160a01b0316610522565b61032661062636600461321f565b6119e3565b610326610639366004613761565b611a38565b61032661064c36600461378f565b611bec565b604051600381526020016102ea565b611d4c6102e0565b7f0000000000000000000000000000000000000000000000000000000000000000610522565b61032661069c366004613669565b611ca1565b6103266106af366004613553565b611d4e565b60326102e0565b6103ba6106c9366004613553565b611ea0565b610326611ecd565b6106e96106e4366004613553565b611fd1565b6040516102ea91906137b2565b7f0000000000000000000000000000000000000000000000000000000000000000610522565b61032661072a36600461321f565b61232e565b6103ba61073d366004613553565b6123ac565b610326610750366004613761565b6123b7565b6107a2610763366004613669565b6001600160a01b03166000908152600c602090815260409182902082518084019093525460ff8082161515808552610100909204169290910182905291565b60408051921515835260ff9091166020830152016102ea565b6103266107c9366004613669565b612497565b6107fa6107dc366004613669565b6001600160a01b031660009081526019602052604090205460ff1690565b6040516102ea91906138a7565b6060600061081560026124ab565b905080841061083757604051631390f2a160e01b815260040160405180910390fd5b600061084384866138d1565b905081811180610851575083155b61085b578061085d565b815b9050600061086b86836138e4565b67ffffffffffffffff811115610883576108836138f7565b6040519080825280602002602001820160405280156108ac578160200160208202803683370190505b50905060005b81518110156108ff576108d06108c888836138d1565b6002906124b5565b8282815181106108e2576108e261390d565b6020908102919091010152806108f781613923565b9150506108b2565b50925050505b92915050565b601554600160601b90046001600160a01b0316331461093d57604051633be1acc960e11b815260040160405180910390fd5b6000838152601c602052604090206109568284836139c5565b50827f2fd8d70753a007014349d4591843cc031c2dd7a260d7dd82eca8253686ae77698383604051610989929190613a86565b60405180910390a2505050565b6040805161014081018252600080825260208201819052918101829052606081018290526080810182905260a0810182905260c0810182905260e081018290526101008101829052610120810191909152604080516101e08101825260008082526020820181905291810182905260608082018390526080820183905260a0820183905260c0820183905260e08201839052610100820183905261012082018390526101408201839052610160820183905261018082018390526101a08201526101c0810191909152604080516101408101825260145463ffffffff600160a01b82041682526001600160601b03908116602083015260185492820192909252601254600160801b900490911660608281019190915290819060009060808101610ac060026124ab565b8152601454600160c01b810463ffffffff908116602080850191909152600160e01b80840483166040808701919091526011546060808801919091526012549283048516608080890191909152600160701b840460ff16151560a09889015282516101e08101845261010080860488168252600160281b8604881696820196909652600160601b808904881694820194909452600160481b850462ffffff16928101929092529282900461ffff16928101929092526013546001600160601b03811696830196909652600160801b909404831660c082015260155480841660e083015264010000000081048416928201929092526801000000000000000090910490911661012082015260165461014082015260175461016082015291046001600160a01b03166101808201529095506101a08101610bff60096124c8565b8152601554600160601b90046001600160a01b0316602091820152601254600d80546040805182860281018601909152818152949850899489949293600e9360ff909116928591830182828015610c7f57602002820191906000526020600020905b81546001600160a01b03168152600190910190602001808311610c61575b5050505050925081805480602002602001604051908101604052809291908181526020018280548015610cdb57602002820191906000526020600020905b81546001600160a01b03168152600190910190602001808311610cbd575b50505050509150945094509450945094509091929394565b610cfb6124d5565b6001600160a01b0382166000908152601960205260409020805482919060ff19166001836003811115610d3057610d30613686565b02179055505050565b6000818152601c60205260409020805460609190610d569061393c565b80601f0160208091040260200160405190810160405280929190818152602001828054610d829061393c565b8015610dcf5780601f10610da457610100808354040283529160200191610dcf565b820191906000526020600020905b815481529060010190602001808311610db257829003601f168201915b50505050509050919050565b610de48261252a565b336001600160a01b03821603610e0d57604051638c8728c760e01b815260040160405180910390fd5b6000828152600660205260409020546001600160a01b03828116911614610e855760008281526006602052604080822080546001600160a01b0319166001600160a01b03851690811790915590519091339185917fb1cbb2c4b8480034c27e06da5f096b8233a8fd4497028593a41ff6df79726b3591a45b5050565b6000818152601a60205260409020805460609190610d569061393c565b610eae6124d5565b600e548114610ed0576040516367aa603560e11b815260040160405180910390fd5b60005b600e54811015611009576000600e8281548110610ef257610ef261390d565b60009182526020808320909101546001600160a01b03908116808452600f90925260408320549193501690858585818110610f2f57610f2f61390d565b9050602002016020810190610f449190613669565b90506001600160a01b0381161580610f9657506001600160a01b03821615801590610f815750806001600160a01b0316826001600160a01b031614155b8015610f9657506001600160a01b0381811614155b15610fb457604051631670f44760e31b815260040160405180910390fd5b6001600160a01b0381811614610ff3576001600160a01b038381166000908152600f6020526040902080546001600160a01b0319169183169190911790555b505050808061100190613923565b915050610ed3565b507fa46de38886467c59be07a0675f14781206a5477d871628af46c2443822fcb725600e838360405161103e93929190613ab5565b60405180910390a15050565b6110526124d5565b6012805460ff60701b191690556040513381527f5db9ee0a495bf2e6ff9c91a7834c1ba4fdd244a5e8aa4e537bd38aeae4b073aa906020015b60405180910390a1565b6001600160a01b0381166000908152600b602090815260408083208151608081018352905460ff80821615801584526101008304909116948301949094526001600160601b03620100008204811693830193909352600160701b90049091166060820152829182918291829190829061114057606082015160125460009161112c91600160801b90046001600160601b0316613b4d565b600e5490915061113c9082613b83565b9150505b815160208301516040840151611157908490613ba9565b606094909401516001600160a01b039a8b166000908152600f6020526040902054929b919a9499509750921694509092505050565b60006109058261259d565b6111a08161252a565b600081815260046020908152604091829020825160e081018452815460ff8116151580835263ffffffff6101008304811695840195909552600160281b82048516958301959095526001600160a01b03600160481b9091041660608201526001909101546001600160601b038082166080840152600160601b82041660a0830152600160c01b900490911660c08201529061124e576040516306e229e160e21b815260040160405180910390fd5b6000828152600460205260409020805460ff1916905561126f600283612618565b5060405182907f7bada562044eb163f6b4003c4553e4e62825344c0418eea087bed5ee05a4745690600090a25050565b604080516101208101825260125460ff808216835263ffffffff61010080840482166020860152600160281b840482169585019590955262ffffff600160481b840416606085015261ffff600160601b8404166080850152600160701b83048216151560a0850152600160781b8304909116151560c08401526001600160601b03600160801b83041660e0840152600160e01b9091041691810191909152600090818061134b83612624565b91509150611374838787601360020160049054906101000a900463ffffffff16868660006127e8565b9695505050505050565b6001600160a01b0381166000908152601d60205260409020805460609190610d569061393c565b601554600160601b90046001600160a01b031633146113d757604051633be1acc960e11b815260040160405180910390fd5b6001600160a01b0383166000908152601d602052604090206113fa8284836139c5565b50826001600160a01b03167f7c44b4eb59ee7873514e7e43e7718c269d872965938b288aa143befca62f99d28383604051610989929190613a86565b601254600160781b900460ff1615611461576040516306fda65d60e31b815260040160405180910390fd5b6012805460ff60781b1916600160781b1790556001600160a01b03811661149b57604051634e46966960e11b815260040160405180910390fd5b6000828152600460209081526040808320815160e081018352815460ff81161515825263ffffffff6101008204811683870152600160281b82048116838601526001600160a01b03600160481b909204821660608401526001909301546001600160601b038082166080850152600160601b82041660a0840152600160c01b900490921660c0820152868552600590935292205490911633146115515760405163523e0b8360e11b815260040160405180910390fd5b611559612833565b816040015163ffffffff161115611586576040516001627b1a2360e01b0319815260040160405180910390fd5b600083815260046020526040902060010154601854600160601b9091046001600160601b0316906115b89082906138e4565b60185560008481526004602081905260409182902060010180546bffffffffffffffffffffffff60601b19169055905163a9059cbb60e01b81526001600160a01b037f0000000000000000000000000000000000000000000000000000000000000000169163a9059cbb91611631918791869101613bc9565b6020604051808303816000875af1158015611650573d6000803e3d6000fd5b505050506040513d601f19601f820116820180604052508101906116749190613beb565b50604080516001600160601b03831681526001600160a01b038516602082015285917ff3b5906e5672f3e524854103bcafbbdba80dbdfeca2c35e116127b1060a68318910160405180910390a250506012805460ff60781b191690555050565b6001546001600160a01b0316331461172c5760405162461bcd60e51b815260206004820152601660248201527526bab9ba10313290383937b837b9b2b21037bbb732b960511b60448201526064015b60405180910390fd5b60008054336001600160a01b0319808316821784556001805490911690556040516001600160a01b0390921692909183917f8be0079c531659141344cd1fd0a4f28419497f9722a3daafe3b4186f6b6457e091a350565b61178b6124d5565b6014546018546001600160601b03909116906117a89082906138e4565b601855601480546bffffffffffffffffffffffff191690556040516001600160601b03821681527f1d07d0b0be43d3e5fee41a80b579af370affee03fa595bf56d5d4c19328162f19060200160405180910390a160405163a9059cbb60e01b81526001600160a01b037f0000000000000000000000000000000000000000000000000000000000000000169063a9059cbb9061184a9033908590600401613bc9565b6020604051808303816000875af1158015611869573d6000803e3d6000fd5b505050506040513d601f19601f82011682018060405250810190610e859190613beb565b6118956124d5565b6012805460ff60701b1916600160701b1790556040513381527f62e78cea01bee320cd4e420270b5ea74000d11b0c9f74754ebdbfc544b05a2589060200161108b565b6118e18161252a565b600081815260046020908152604091829020825160e081018452815460ff8116158015835263ffffffff6101008304811695840195909552600160281b82048516958301959095526001600160a01b03600160481b9091041660608201526001909101546001600160601b038082166080840152600160601b82041660a0830152600160c01b900490911660c08201529061198f57604051631452db0960e21b815260040160405180910390fd5b6000828152600460205260409020805460ff191660011790556119b36002836128db565b5060405182907f8ab10247ce168c27748e656ecf852b951fcaac790c18106b19aa0ae57a8b741f90600090a25050565b6119ec8361252a565b6000838152601b60205260409020611a058284836139c5565b50827f3e8740446213c8a77d40e08f79136ce3f347d13ed270a6ebdf57159e0faf48508383604051610989929190613a86565b6001600160a01b038116611a5f57604051634e46966960e11b815260040160405180910390fd5b6001600160a01b038281166000908152600f6020526040902054163314611a995760405163cebf515b60e01b815260040160405180910390fd5b601254600e54600091611abe918591600160801b90046001600160601b0316906128e7565b6001600160a01b0384166000908152600b6020526040902080546dffffffffffffffffffffffff000019169055601854909150611b05906001600160601b038316906138e4565b60185560405163a9059cbb60e01b81526001600160a01b037f0000000000000000000000000000000000000000000000000000000000000000169063a9059cbb90611b569085908590600401613bc9565b6020604051808303816000875af1158015611b75573d6000803e3d6000fd5b505050506040513d601f19601f82011682018060405250810190611b999190613beb565b506040513381526001600160a01b03808416916001600160601b038416918616907f9819093176a1851202c7bcfa46845809b4e47c261866550e94ed3775d2f406989060200160405180910390a4505050565b6108fc8163ffffffff161080611c14575060145463ffffffff600160801b9091048116908216115b15611c32576040516314c237fb60e01b815260040160405180910390fd5b611c3b8261252a565b600082815260046020908152604091829020805464ffffffff00191661010063ffffffff861690810291909117909155915191825283917fc24c07e655ce79fba8a589778987d3c015bc6af1632bb20cf9182e02a65d972c910160405180910390a25050565b6001600160a01b03818116600090815260106020526040902054163314611cdb576040516333a973d560e11b815260040160405180910390fd5b6001600160a01b038181166000818152600f602090815260408083208054336001600160a01b031980831682179093556010909452828520805490921690915590519416939092849290917f78af32efdcad432315431e9b03d27e6cd98fb79c405fdc5af7c1714d9c0f75b39190a45050565b600081815260046020908152604091829020825160e081018452815460ff81161515825263ffffffff6101008204811694830194909452600160281b810484169482018590526001600160a01b03600160481b9091041660608201526001909101546001600160601b038082166080840152600160601b82041660a0830152600160c01b9004821660c08201529114611dfa57604051634e0041d160e11b815260040160405180910390fd5b6000828152600660205260409020546001600160a01b03163314611e3157604051636352a85360e01b815260040160405180910390fd5b60008281526005602090815260408083208054336001600160a01b031980831682179093556006909452828520805490921690915590516001600160a01b0390911692839186917f5cff4db96bef051785e999f44bfcd21c18823e034fb92dd376e3db4ce0feeb2c91a4505050565b6000610905611eae8361259d565b600084815260046020526040902054610100900463ffffffff1661129f565b611ed56124d5565b6040516370a0823160e01b81523060048201526000907f00000000000000000000000000000000000000000000000000000000000000006001600160a01b0316906370a0823190602401602060405180830381865afa158015611f3c573d6000803e3d6000fd5b505050506040513d601f19601f82011682018060405250810190611f609190613c0d565b90507f00000000000000000000000000000000000000000000000000000000000000006001600160a01b031663a9059cbb3360185484611fa091906138e4565b6040516001600160e01b031960e085901b1681526001600160a01b039092166004830152602482015260440161184a565b604080516101408101825260008082526020820181905260609282018390528282018190526080820181905260a0820181905260c0820181905260e082018190526101008201526101208101919091526000828152600460209081526040808320815160e081018352815460ff811615158252610100810463ffffffff90811695830195909552600160281b8104851693820193909352600160481b9092046001600160a01b0316606083018190526001909101546001600160601b038082166080850152600160601b82041660a0840152600160c01b900490921660c08201529190156121245781606001516001600160a01b031663f00e6a2a6040518163ffffffff1660e01b8152600401602060405180830381865afa1580156120fb573d6000803e3d6000fd5b505050506040513d601f19601f8201168201806040525081019061211f9190613c26565b612127565b60005b9050604051806101400160405280826001600160a01b03168152602001836020015163ffffffff1681526020016007600087815260200190815260200160002080546121729061393c565b80601f016020809104026020016040519081016040528092919081815260200182805461219e9061393c565b80156121eb5780601f106121c0576101008083540402835291602001916121eb565b820191906000526020600020905b8154815290600101906020018083116121ce57829003601f168201915b505050505081526020018360a001516001600160601b031681526020016005600087815260200190815260200160002060009054906101000a90046001600160a01b03166001600160a01b03168152602001836040015163ffffffff1667ffffffffffffffff1681526020018360c0015163ffffffff16815260200183608001516001600160601b03168152602001836000015115158152602001601b600087815260200190815260200160002080546122a49061393c565b80601f01602080910402602001604051908101604052809291908181526020018280546122d09061393c565b801561231d5780601f106122f25761010080835404028352916020019161231d565b820191906000526020600020905b81548152906001019060200180831161230057829003601f168201915b505050505081525092505050919050565b6123378361252a565b60155463ffffffff168111156123605760405163ae7235df60e01b815260040160405180910390fd5b60008381526007602052604090206123798284836139c5565b50827fcba2d5723b2ee59e53a8e8a82a4a7caf4fdfe70e9f7c582950bf7e7a5c24e83d8383604051610989929190613a86565b600061090582611ea0565b6001600160a01b038281166000908152600f60205260409020541633146123f15760405163cebf515b60e01b815260040160405180910390fd5b336001600160a01b0382160361241a57604051638c8728c760e01b815260040160405180910390fd5b6001600160a01b03828116600090815260106020526040902054811690821614610e85576001600160a01b0382811660008181526010602052604080822080546001600160a01b0319169486169485179055513392917f84f7c7c80bb8ed2279b4aab5f61cd05e6374073d38f46d7f32de8c30e9e3836791a45050565b61249f6124d5565b6124a881612a50565b50565b6000610905825490565b60006124c18383612af9565b9392505050565b606060006124c183612b23565b6000546001600160a01b031633146125285760405162461bcd60e51b815260206004820152601660248201527527b7363c9031b0b63630b1363290313c9037bbb732b960511b6044820152606401611723565b565b6000818152600560205260409020546001600160a01b031633146125615760405163523e0b8360e11b815260040160405180910390fd5b600081815260046020526040902054600160281b900463ffffffff908116146124a857604051634e0041d160e11b815260040160405180910390fd5b6000818160045b600f8110156125fa576001600160f81b031982168382602081106125ca576125ca61390d565b1a60f81b6001600160f81b031916146125e857506000949350505050565b806125f281613923565b9150506125a4565b5081600f1a600181111561261057612610613686565b949350505050565b60006124c18383612b7e565b6000806000836060015162ffffff1690506000808263ffffffff161190506000807f00000000000000000000000000000000000000000000000000000000000000006001600160a01b031663feaf968c6040518163ffffffff1660e01b815260040160a060405180830381865afa1580156126a3573d6000803e3d6000fd5b505050506040513d601f19601f820116820180604052508101906126c79190613c5d565b50945090925050506000811315806126de57508142105b806126ff57508280156126ff57506126f682426138e4565b8463ffffffff16105b1561270e576016549550612712565b8095505b7f00000000000000000000000000000000000000000000000000000000000000006001600160a01b031663feaf968c6040518163ffffffff1660e01b815260040160a060405180830381865afa158015612770573d6000803e3d6000fd5b505050506040513d601f19601f820116820180604052508101906127949190613c5d565b50945090925050506000811315806127ab57508142105b806127cc57508280156127cc57506127c382426138e4565b8463ffffffff16105b156127db5760175494506127df565b8094505b50505050915091565b6000806127fa88878b60000151612bcd565b90506000806128158b8a63ffffffff16858a8a60018b612c76565b90925090506128248183613ba9565b9b9a5050505050505050505050565b600060017f0000000000000000000000000000000000000000000000000000000000000000600281111561286957612869613686565b036128d65760646001600160a01b031663a3b1b31d6040518163ffffffff1660e01b8152600401602060405180830381865afa1580156128ad573d6000803e3d6000fd5b505050506040513d601f19601f820116820180604052508101906128d19190613c0d565b905090565b504390565b60006124c18383613076565b6001600160a01b0383166000908152600b602090815260408083208151608081018352905460ff80821615801584526101008304909116948301949094526001600160601b03620100008204811693830193909352600160701b9004909116606082015290612a445760008160600151856129629190613b4d565b905060006129708583613b83565b905080836040018181516129849190613ba9565b6001600160601b031690525061299a8582613cad565b836060018181516129ab9190613ba9565b6001600160601b039081169091526001600160a01b0389166000908152600b602090815260409182902087518154928901519389015160608a01518616600160701b026bffffffffffffffffffffffff60701b199190961662010000021662010000600160d01b031960ff959095166101000261ff00199215159290921661ffff19909416939093171792909216179190911790555050505b60400151949350505050565b336001600160a01b03821603612aa85760405162461bcd60e51b815260206004820152601760248201527f43616e6e6f74207472616e7366657220746f2073656c660000000000000000006044820152606401611723565b600180546001600160a01b0319166001600160a01b0383811691821790925560008054604051929316917fed8889f560326eb138920d842192f0eb3dd22b4f139c87a2c57538e05bae12789190a350565b6000826000018281548110612b1057612b1061390d565b9060005260206000200154905092915050565b606081600001805480602002602001604051908101604052809291908181526020018280548015610dcf57602002820191906000526020600020905b815481526020019060010190808311612b5f5750505050509050919050565b6000818152600183016020526040812054612bc557508154600181810184556000848152602080822090930184905584548482528286019093526040902091909155610905565b506000610905565b60008080856001811115612be357612be3613686565b03612bf2575062015f90612c2e565b6001856001811115612c0657612c06613686565b03612c1557506201adb0612c2e565b6040516379596a0960e11b815260040160405180910390fd5b612c3f63ffffffff85166014613cdc565b612c4a846001613cfb565b612c599060ff16611d4c613cdc565b612c6390836138d1565b612c6d91906138d1565b95945050505050565b6000806000896080015161ffff1687612c8f9190613cdc565b9050838015612c9d5750803a105b15612ca557503a5b600060027f00000000000000000000000000000000000000000000000000000000000000006002811115612cdb57612cdb613686565b03612e14576040805160008152602081019091528515612d3957600036604051806080016040528060488152602001613dd360489139604051602001612d2393929190613d14565b6040516020818303038152906040529050612da1565b601554612d5590640100000000900463ffffffff166004613d3b565b63ffffffff1667ffffffffffffffff811115612d7357612d736138f7565b6040519080825280601f01601f191660200182016040528015612d9d576020820181803683370190505b5090505b6040516324ca470760e11b8152600f602160991b01906349948e0e90612dcb9084906004016135bc565b602060405180830381865afa158015612de8573d6000803e3d6000fd5b505050506040513d601f19601f82011682018060405250810190612e0c9190613c0d565b915050612f54565b60017f00000000000000000000000000000000000000000000000000000000000000006002811115612e4857612e48613686565b03612f54578415612ebd57606c6001600160a01b031663c6f7de0e6040518163ffffffff1660e01b8152600401602060405180830381865afa158015612e92573d6000803e3d6000fd5b505050506040513d601f19601f82011682018060405250810190612eb69190613c0d565b9050612f54565b6000606c6001600160a01b03166341b247a86040518163ffffffff1660e01b815260040160c060405180830381865afa158015612efe573d6000803e3d6000fd5b505050506040513d601f19601f82011682018060405250810190612f229190613d5e565b5050601554929450612f4593505050640100000000900463ffffffff1682613cdc565b612f50906010613cdc565b9150505b84612f7057808b6080015161ffff16612f6d9190613cdc565b90505b612f7e61ffff871682613da8565b905060008782612f8e8c8e6138d1565b612f989086613cdc565b612fa291906138d1565b612fb490670de0b6b3a7640000613cdc565b612fbe9190613da8565b905060008c6040015163ffffffff1664e8d4a51000612fdd9190613cdc565b898e6020015163ffffffff16858f88612ff69190613cdc565b61300091906138d1565b61300e90633b9aca00613cdc565b6130189190613cdc565b6130229190613da8565b61302c91906138d1565b90506b033b2e3c9fd0803ce800000061304582846138d1565b11156130645760405163156baa3d60e11b815260040160405180910390fd5b909c909b509950505050505050505050565b6000818152600183016020526040812054801561315f57600061309a6001836138e4565b85549091506000906130ae906001906138e4565b90508181146131135760008660000182815481106130ce576130ce61390d565b90600052602060002001549050808760000184815481106130f1576130f161390d565b6000918252602080832090910192909255918252600188019052604090208390555b855486908061312457613124613dbc565b600190038181906000526020600020016000905590558560010160008681526020019081526020016000206000905560019350505050610905565b6000915050610905565b5092915050565b6000806040838503121561318357600080fd5b50508035926020909101359150565b6020808252825182820181905260009190848201906040850190845b818110156131ca578351835292840192918401916001016131ae565b50909695505050505050565b60008083601f8401126131e857600080fd5b50813567ffffffffffffffff81111561320057600080fd5b60208301915083602082850101111561321857600080fd5b9250929050565b60008060006040848603121561323457600080fd5b83359250602084013567ffffffffffffffff81111561325257600080fd5b61325e868287016131d6565b9497909650939450505050565b600081518084526020808501945080840160005b838110156132a45781516001600160a01b03168752958201959082019060010161327f565b509495945050505050565b805163ffffffff16825260006101e060208301516132d5602086018263ffffffff169052565b5060408301516132ed604086018263ffffffff169052565b506060830151613304606086018262ffffff169052565b50608083015161331a608086018261ffff169052565b5060a083015161333560a08601826001600160601b03169052565b5060c083015161334d60c086018263ffffffff169052565b5060e083015161336560e086018263ffffffff169052565b506101008381015163ffffffff90811691860191909152610120808501519091169085015261014080840151908501526101608084015190850152610180808401516001600160a01b0316908501526101a0808401518186018390526133cd8387018261326b565b925050506101c0808401516133ec828701826001600160a01b03169052565b5090949350505050565b855163ffffffff16815260006101c0602088015161341f60208501826001600160601b03169052565b5060408801516040840152606088015161344460608501826001600160601b03169052565b506080880151608084015260a088015161346660a085018263ffffffff169052565b5060c088015161347e60c085018263ffffffff169052565b5060e088015160e0840152610100808901516134a18286018263ffffffff169052565b50506101208881015115159084015261014083018190526134c4818401886132af565b90508281036101608401526134d9818761326b565b90508281036101808401526134ee818661326b565b9150506113746101a083018460ff169052565b6001600160a01b03811681146124a857600080fd5b6000806040838503121561352957600080fd5b823561353481613501565b915060208301356004811061354857600080fd5b809150509250929050565b60006020828403121561356557600080fd5b5035919050565b60005b8381101561358757818101518382015260200161356f565b50506000910152565b600081518084526135a881602086016020860161356c565b601f01601f19169290920160200192915050565b6020815260006124c16020830184613590565b600080604083850312156135e257600080fd5b82359150602083013561354881613501565b6000806020838503121561360757600080fd5b823567ffffffffffffffff8082111561361f57600080fd5b818501915085601f83011261363357600080fd5b81358181111561364257600080fd5b8660208260051b850101111561365757600080fd5b60209290920196919550909350505050565b60006020828403121561367b57600080fd5b81356124c181613501565b634e487b7160e01b600052602160045260246000fd5b600381106124a8576124a8613686565b602081016136b98361369c565b91905290565b60208101600283106136b9576136b9613686565b803563ffffffff811681146136e757600080fd5b919050565b600080604083850312156136ff57600080fd5b82356002811061370e57600080fd5b915061371c602084016136d3565b90509250929050565b60008060006040848603121561373a57600080fd5b833561374581613501565b9250602084013567ffffffffffffffff81111561325257600080fd5b6000806040838503121561377457600080fd5b823561377f81613501565b9150602083013561354881613501565b600080604083850312156137a257600080fd5b8235915061371c602084016136d3565b602081526137cc6020820183516001600160a01b03169052565b600060208301516137e5604084018263ffffffff169052565b506040830151610140806060850152613802610160850183613590565b9150606085015161381e60808601826001600160601b03169052565b5060808501516001600160a01b03811660a08601525060a085015167ffffffffffffffff811660c08601525060c085015163ffffffff811660e08601525060e0850151610100613878818701836001600160601b03169052565b860151905061012061388d8682018315159052565b860151858403601f19018387015290506113748382613590565b60208101600483106136b9576136b9613686565b634e487b7160e01b600052601160045260246000fd5b80820180821115610905576109056138bb565b81810381811115610905576109056138bb565b634e487b7160e01b600052604160045260246000fd5b634e487b7160e01b600052603260045260246000fd5b600060018201613935576139356138bb565b5060010190565b600181811c9082168061395057607f821691505b60208210810361397057634e487b7160e01b600052602260045260246000fd5b50919050565b601f8211156139c057600081815260208120601f850160051c8101602086101561399d5750805b601f850160051c820191505b818110156139bc578281556001016139a9565b5050505b505050565b67ffffffffffffffff8311156139dd576139dd6138f7565b6139f1836139eb835461393c565b83613976565b6000601f841160018114613a255760008515613a0d5750838201355b600019600387901b1c1916600186901b178355613a7f565b600083815260209020601f19861690835b82811015613a565786850135825560209485019460019092019101613a36565b5086821015613a735760001960f88860031b161c19848701351681555b505060018560011b0183555b5050505050565b60208152816020820152818360408301376000818301604090810191909152601f909201601f19160101919050565b6000604082016040835280865480835260608501915087600052602092508260002060005b82811015613aff5781546001600160a01b031684529284019260019182019101613ada565b505050838103828501528481528590820160005b86811015613b41578235613b2681613501565b6001600160a01b031682529183019190830190600101613b13565b50979650505050505050565b6001600160601b03828116828216039080821115613169576131696138bb565b634e487b7160e01b600052601260045260246000fd5b60006001600160601b0380841680613b9d57613b9d613b6d565b92169190910492915050565b6001600160601b03818116838216019080821115613169576131696138bb565b6001600160a01b039290921682526001600160601b0316602082015260400190565b600060208284031215613bfd57600080fd5b815180151581146124c157600080fd5b600060208284031215613c1f57600080fd5b5051919050565b600060208284031215613c3857600080fd5b81516124c181613501565b805169ffffffffffffffffffff811681146136e757600080fd5b600080600080600060a08688031215613c7557600080fd5b613c7e86613c43565b9450602086015193506040860151925060608601519150613ca160808701613c43565b90509295509295909350565b60006001600160601b0380831681851681830481118215151615613cd357613cd36138bb565b02949350505050565b6000816000190483118215151615613cf657613cf66138bb565b500290565b60ff8181168382160190811115610905576109056138bb565b828482376000838201600081528351613d3181836020880161356c565b0195945050505050565b600063ffffffff80831681851681830481118215151615613cd357613cd36138bb565b60008060008060008060c08789031215613d7757600080fd5b865195506020870151945060408701519350606087015192506080870151915060a087015190509295509295509295565b600082613db757613db7613b6d565b500490565b634e487b7160e01b600052603160045260246000fdfe307866666666666666666666666666666666666666666666666666666666666666666666666666666666666666666666666666666666666666666666666666666666666666666666a264697066735822122018f7422fd260bb8cb0d4c18ca12ca491017b7760df967d48695b29dea695386b64736f6c63430008100033","linkReferences":{}},"methodIdentifiers":{"acceptOwnership()":"79ba5097","acceptPayeeship(address)":"b121e147","acceptUpkeepAdmin(uint256)":"b148ab6b","getActiveUpkeepIDs(uint256,uint256)":"06e3b632","getAdminPrivilegeConfig(address)":"6209e1e9","getAutomationForwarderLogic()":"5425d8ac","getBalance(uint256)":"1e010439","getCancellationDelay()":"b6511a2a","getConditionalGasOverhead()":"4ca16c52","getFastGasFeedAddress()":"6709d0e5","getForwarder(uint256)":"79ea9943","getLinkAddress()":"ca30e603","getLinkNativeFeedAddress()":"b10b673c","getLogGasOverhead()":"050ee65d","getMaxPaymentForGas(uint8,uint32)":"5b6aa71c","getMinBalance(uint256)":"d7632648","getMinBalanceForUpkeep(uint256)":"b657bc9c","getMode()":"4b4fd03b","getPeerRegistryMigrationPermission(address)":"faa3e996","getPerPerformByteGasOverhead()":"232c1cc5","getPerSignerGasOverhead()":"abc76ae0","getSignerInfo(address)":"ed56b3e1","getState()":"1865c57d","getTransmitterInfo(address)":"421d183b","getTriggerType(uint256)":"5147cd59","getUpkeep(uint256)":"c7c3a19a","getUpkeepPrivilegeConfig(uint256)":"19d97a94","getUpkeepTriggerConfig(uint256)":"207b6516","hasDedupKey(bytes32)":"44cb70b8","owner()":"8da5cb5b","pause()":"8456cb59","pauseUpkeep(uint256)":"8765ecbe","recoverFunds()":"b79550be","setAdminPrivilegeConfig(address,bytes)":"671d36ed","setPayees(address[])":"3b9cce59","setPeerRegistryMigrationPermission(address,uint8)":"187256e8","setUpkeepCheckData(uint256,bytes)":"cd7f71b5","setUpkeepGasLimit(uint256,uint32)":"a72aa27e","setUpkeepOffchainConfig(uint256,bytes)":"8dcf0fe7","setUpkeepPrivilegeConfig(uint256,bytes)":"0b7d33e6","transferOwnership(address)":"f2fde38b","transferPayeeship(address,address)":"eb5dcd6c","transferUpkeepAdmin(uint256,address)":"1a2af011","unpause()":"3f4ba83a","unpauseUpkeep(uint256)":"5165f2f5","upkeepTranscoderVersion()":"48013d7b","upkeepVersion()":"aab9edd6","withdrawFunds(uint256,address)":"744bfe61","withdrawOwnerFunds()":"7d9b97e0","withdrawPayment(address,address)":"a710b221"},"id":24}