{"abi":[{"type":"function","name":"currentPrice","inputs":[],"outputs":[{"name":"","type":"uint256","internalType":"uint256"}],"stateMutability":"view"},{"type":"function","name":"fulfillEthereumPrice","inputs":[{"name":"_price","type":"uint256","internalType":"uint256"}],"outputs":[],"stateMutability":"nonpayable"},{"type":"event","name":"EthereumPriceFulfilled","inputs":[{"name":"price","type":"uint256","indexed":true,"internalType":"uint256"}],"anonymous":false}],"bytecode":{"object":"0x608060405234801561001057600080fd5b5060e08061001f6000396000f3fe6080604052348015600f57600080fd5b506004361060325760003560e01c806313cd155b1460375780639d1b464a146048575b600080fd5b604660423660046092565b6062565b005b605060005481565b60405190815260200160405180910390f35b60405181907f2df183e8bf863f06ad900e4354edaabec6df47dacbf191b19a3ff3f23097aca490600090a2600055565b60006020828403121560a357600080fd5b503591905056fea26469706673582212207cf453d1093c984ef80d98cbb28ce4d94384b1c3a3cfdb18f9a855cbdee5afab64736f6c63430008130033","linkReferences":{}},"methodIdentifiers":{"currentPrice()":"9d1b464a","fulfillEthereumPrice(uint256)":"13cd155b"},"id":0}