{
  "abi": [
    {
      "anonymous": false,
      "inputs": [
        {
          "indexed": true,
          "internalType": "uint256",
          "name": "price",
          "type": "uint256"
        }
      ],
      "name": "EthereumPriceFulfilled",
      "type": "event"
    },
    {
      "inputs": [],
      "name": "currentPrice",
      "outputs": [
        {
          "internalType": "uint256",
          "name": "",
          "type": "uint256"
        }
      ],
      "stateMutability": "view",
      "type": "function"
    },
    {
      "inputs": [
        {
          "internalType": "uint256",
          "name": "_price",
          "type": "uint256"
        }
      ],
      "name": "fulfillEthereumPrice",
      "outputs": [],
      "stateMutability": "nonpayable",
      "type": "function"
    }
  ],
  "bytecode": {
    "object": "0x608060405234801561001057600080fd5b5060e08061001f6000396000f3fe6080604052348015600f57600080fd5b506004361060325760003560e01c806313cd155b1460375780639d1b464a146048575b600080fd5b604660423660046092565b6062565b005b605060005481565b60405190815260200160405180910390f35b60405181907f2df183e8bf863f06ad900e4354edaabec6df47dacbf191b19a3ff3f23097aca490600090a2600055565b60006020828403121560a357600080fd5b503591905056fea2646970667358221220eddd45fb1f5adbc49d2dea1315f2912785cf0908656342f8f3cb11b078c40a9a64736f6c634300080c0033",
    "linkReferences": {}
  },
  "methodIdentifiers": {
    "currentPrice()": "9d1b464a",
    "fulfillEthereumPrice(uint256)": "13cd155b"
  },
  "id": 17
}