{"abi":[{"type":"constructor","inputs":[{"name":"_link","type":"address","internalType":"address"}],"stateMutability":"nonpayable"},{"type":"function","name":"EXPIRY_TIME","inputs":[],"outputs":[{"name":"","type":"uint256","internalType":"uint256"}],"stateMutability":"view"},{"type":"function","name":"cancelOracleRequest","inputs":[{"name":"_requestId","type":"bytes32","internalType":"bytes32"},{"name":"_payment","type":"uint256","internalType":"uint256"},{"name":"_callbackFunc","type":"bytes4","internalType":"bytes4"},{"name":"_expiration","type":"uint256","internalType":"uint256"}],"outputs":[],"stateMutability":"nonpayable"},{"type":"function","name":"fulfillOracleRequest","inputs":[{"name":"_requestId","type":"bytes32","internalType":"bytes32"},{"name":"_payment","type":"uint256","internalType":"uint256"},{"name":"_callbackAddress","type":"address","internalType":"address"},{"name":"_callbackFunctionId","type":"bytes4","internalType":"bytes4"},{"name":"_expiration","type":"uint256","internalType":"uint256"},{"name":"_data","type":"bytes32","internalType":"bytes32"}],"outputs":[{"name":"","type":"bool","internalType":"bool"}],"stateMutability":"nonpayable"},{"type":"function","name":"getAuthorizationStatus","inputs":[{"name":"_node","type":"address","internalType":"address"}],"outputs":[{"name":"","type":"bool","internalType":"bool"}],"stateMutability":"view"},{"type":"function","name":"getChainlinkToken","inputs":[],"outputs":[{"name":"","type":"address","internalType":"address"}],"stateMutability":"view"},{"type":"function","name":"isOwner","inputs":[],"outputs":[{"name":"","type":"bool","internalType":"bool"}],"stateMutability":"view"},{"type":"function","name":"onTokenTransfer","inputs":[{"name":"_sender","type":"address","internalType":"address"},{"name":"_amount","type":"uint256","internalType":"uint256"},{"name":"_data","type":"bytes","internalType":"bytes"}],"outputs":[],"stateMutability":"nonpayable"},{"type":"function","name":"oracleRequest","inputs":[{"name":"_sender","type":"address","internalType":"address"},{"name":"_payment","type":"uint256","internalType":"uint256"},{"name":"_specId","type":"bytes32","internalType":"bytes32"},{"name":"_callbackAddress","type":"address","internalType":"address"},{"name":"_callbackFunctionId","type":"bytes4","internalType":"bytes4"},{"name":"_nonce","type":"uint256","internalType":"uint256"},{"name":"_dataVersion","type":"uint256","internalType":"uint256"},{"name":"_data","type":"bytes","internalType":"bytes"}],"outputs":[],"stateMutability":"nonpayable"},{"type":"function","name":"owner","inputs":[],"outputs":[{"name":"","type":"address","internalType":"address"}],"stateMutability":"view"},{"type":"function","name":"setFulfillmentPermission","inputs":[{"name":"_node","type":"address","internalType":"address"},{"name":"_allowed","type":"bool","internalType":"bool"}],"outputs":[],"stateMutability":"nonpayable"},{"type":"function","name":"transferOwnership","inputs":[{"name":"newOwner","type":"address","internalType":"address"}],"outputs":[],"stateMutability":"nonpayable"},{"type":"function","name":"withdraw","inputs":[{"name":"_recipient","type":"address","internalType":"address"},{"name":"_amount","type":"uint256","internalType":"uint256"}],"outputs":[],"stateMutability":"nonpayable"},{"type":"function","name":"withdrawable","inputs":[],"outputs":[{"name":"","type":"uint256","internalType":"uint256"}],"stateMutability":"view"},{"type":"event","name":"CancelOracleRequest","inputs":[{"name":"requestId","type":"bytes32","indexed":true,"internalType":"bytes32"}],"anonymous":false},{"type":"event","name":"OracleRequest","inputs":[{"name":"specId","type":"bytes32","indexed":true,"internalType":"bytes32"},{"name":"requester","type":"address","indexed":false,"internalType":"address"},{"name":"requestId","type":"bytes32","indexed":false,"internalType":"bytes32"},{"name":"payment","type":"uint256","indexed":false,"internalType":"uint256"},{"name":"callbackAddr","type":"address","indexed":false,"internalType":"address"},{"name":"callbackFunctionId","type":"bytes4","indexed":false,"internalType":"bytes4"},{"name":"cancelExpiration","type":"uint256","indexed":false,"internalType":"uint256"},{"name":"dataVersion","type":"uint256","indexed":false,"internalType":"uint256"},{"name":"data","type":"bytes","indexed":false,"internalType":"bytes"}],"anonymous":false},{"type":"event","name":"OwnershipTransferred","inputs":[{"name":"previousOwner","type":"address","indexed":true,"internalType":"address"},{"name":"newOwner","type":"address","indexed":true,"internalType":"address"}],"anonymous":false}],"bytecode":{"object":"0x6080604052600160045534801561001557600080fd5b506040516113363803806113368339818101604052602081101561003857600080fd5b5051600080546001600160a01b03191633178082556040516001600160a01b039190911691907f8be0079c531659141344cd1fd0a4f28419497f9722a3daafe3b4186f6b6457e0908290a3600180546001600160a01b0319166001600160a01b0392909216919091179055611284806100b26000396000f3fe608060405234801561001057600080fd5b50600436106100cf5760003560e01c80637fcd56db1161008c578063a4c0ed3611610066578063a4c0ed36146102a6578063d3e9c31414610361578063f2fde38b14610387578063f3fef3a3146103ad576100cf565b80637fcd56db146102685780638da5cb5b146102965780638f32d59b1461029e576100cf565b8063165d35e1146100d457806340429946146100f85780634ab0d190146101ab5780634b6022821461020d57806350188301146102275780636ee4d5531461022f575b600080fd5b6100dc6103d9565b604080516001600160a01b039092168252519081900360200190f35b6101a9600480360361010081101561010f57600080fd5b6001600160a01b038235811692602081013592604082013592606083013516916001600160e01b03196080820135169160a08201359160c081013591810190610100810160e082013564010000000081111561016a57600080fd5b82018360208201111561017c57600080fd5b8035906020019184600183028401116401000000008311171561019e57600080fd5b5090925090506103e8565b005b6101f9600480360360c08110156101c157600080fd5b508035906020810135906001600160a01b03604082013516906001600160e01b03196060820135169060808101359060a001356106be565b604080519115158252519081900360200190f35b6102156109b8565b60408051918252519081900360200190f35b6102156109be565b6101a96004803603608081101561024557600080fd5b508035906020810135906001600160e01b03196040820135169060600135610a20565b6101a96004803603604081101561027e57600080fd5b506001600160a01b0381351690602001351515610bda565b6100dc610c4c565b6101f9610c5b565b6101a9600480360360608110156102bc57600080fd5b6001600160a01b03823516916020810135918101906060810160408201356401000000008111156102ec57600080fd5b8201836020820111156102fe57600080fd5b8035906020019184600183028401116401000000008311171561032057600080fd5b91908080601f016020809104026020016040519081016040528093929190818152602001838380828437600092019190915250929550610c6c945050505050565b6101f96004803603602081101561037757600080fd5b50356001600160a01b0316610e99565b6101a96004803603602081101561039d57600080fd5b50356001600160a01b0316610eb7565b6101a9600480360360408110156103c357600080fd5b506001600160a01b038135169060200135610f0a565b6001546001600160a01b031690565b6103f06103d9565b6001600160a01b0316336001600160a01b03161461044b576040805162461bcd60e51b815260206004820152601360248201527226bab9ba103ab9b2902624a725903a37b5b2b760691b604482015290519081900360640190fd5b60015486906001600160a01b03808316911614156104b0576040805162461bcd60e51b815260206004820152601760248201527f43616e6e6f742063616c6c6261636b20746f204c494e4b000000000000000000604482015290519081900360640190fd5b604080516bffffffffffffffffffffffff1960608d901b166020808301919091526034808301899052835180840390910181526054909201835281519181019190912060008181526002909252919020541561054a576040805162461bcd60e51b8152602060048201526014602482015273135d5cdd081d5cd94818481d5b9a5c5d5948125160621b604482015290519081900360640190fd5b600061055e4261012c63ffffffff61104b16565b90508a89898360405160200180858152602001846001600160a01b03166001600160a01b031660601b8152601401836001600160e01b0319166001600160e01b0319168152600401828152602001945050505050604051602081830303815290604052805190602001206002600084815260200190815260200160002081905550897fd8d7ecc4800d25fa53ce0372f13a416d98907a7ef3d8d3bdd79cf4fe75529c658d848e8d8d878d8d8d604051808a6001600160a01b03166001600160a01b03168152602001898152602001888152602001876001600160a01b03166001600160a01b03168152602001866001600160e01b0319166001600160e01b0319168152602001858152602001848152602001806020018281038252848482818152602001925080828437600083820152604051601f909101601f19169092018290039c50909a5050505050505050505050a2505050505050505050505050565b3360009081526003602052604081205460ff16806106f457506106df610c4c565b6001600160a01b0316336001600160a01b0316145b61072f5760405162461bcd60e51b815260040180806020018281038252602a815260200180611205602a913960400191505060405180910390fd5b6000878152600260205260409020548790610791576040805162461bcd60e51b815260206004820152601b60248201527f4d757374206861766520612076616c6964207265717565737449640000000000604482015290519081900360640190fd5b6040805160208082018a90526bffffffffffffffffffffffff1960608a901b16828401526001600160e01b0319881660548301526058808301889052835180840390910181526078909201835281519181019190912060008b81526002909252919020548114610848576040805162461bcd60e51b815260206004820152601e60248201527f506172616d7320646f206e6f74206d6174636820726571756573742049440000604482015290519081900360640190fd5b60045461085b908963ffffffff61104b16565b60045560008981526002602052604081205562061a805a10156108c5576040805162461bcd60e51b815260206004820181905260248201527f4d7573742070726f7669646520636f6e73756d657220656e6f75676820676173604482015290519081900360640190fd5b60408051602481018b9052604480820187905282518083039091018152606490910182526020810180516001600160e01b03166001600160e01b03198a16178152915181516000936001600160a01b038c169392918291908083835b602083106109405780518252601f199092019160209182019101610921565b6001836020036101000a0380198251168184511680821785525050505050509050019150506000604051808303816000865af19150503d80600081146109a2576040519150601f19603f3d011682016040523d82523d6000602084013e6109a7565b606091505b50909b9a5050505050505050505050565b61012c81565b60006109c8610c5b565b610a07576040805162461bcd60e51b8152602060048201819052602482015260008051602061122f833981519152604482015290519081900360640190fd5b600454610a1b90600163ffffffff6110ac16565b905090565b6040805160208082018690523360601b828401526001600160e01b0319851660548301526058808301859052835180840390910181526078909201835281519181019190912060008781526002909252919020548114610ac7576040805162461bcd60e51b815260206004820152601e60248201527f506172616d7320646f206e6f74206d6174636820726571756573742049440000604482015290519081900360640190fd5b42821115610b15576040805162461bcd60e51b815260206004820152601660248201527514995c5d595cdd081a5cc81b9bdd08195e1c1a5c995960521b604482015290519081900360640190fd5b6000858152600260205260408082208290555186917fa7842b9ec549398102c0d91b1b9919b2f20558aefdadf57528a95c6cd3292e9391a26001546040805163a9059cbb60e01b81523360048201526024810187905290516001600160a01b039092169163a9059cbb916044808201926020929091908290030181600087803b158015610ba157600080fd5b505af1158015610bb5573d6000803e3d6000fd5b505050506040513d6020811015610bcb57600080fd5b5051610bd357fe5b5050505050565b610be2610c5b565b610c21576040805162461bcd60e51b8152602060048201819052602482015260008051602061122f833981519152604482015290519081900360640190fd5b6001600160a01b03919091166000908152600360205260409020805460ff1916911515919091179055565b6000546001600160a01b031690565b6000546001600160a01b0316331490565b610c746103d9565b6001600160a01b0316336001600160a01b031614610ccf576040805162461bcd60e51b815260206004820152601360248201527226bab9ba103ab9b2902624a725903a37b5b2b760691b604482015290519081900360640190fd5b8051819060441115610d21576040805162461bcd60e51b8152602060048201526016602482015275092dcecc2d8d2c840e4cae2eacae6e840d8cadccee8d60531b604482015290519081900360640190fd5b602082015182906001600160e01b031981166320214ca360e11b14610d8d576040805162461bcd60e51b815260206004820152601e60248201527f4d757374207573652077686974656c69737465642066756e6374696f6e730000604482015290519081900360640190fd5b8560248501528460448501526000306001600160a01b0316856040518082805190602001908083835b60208310610dd55780518252601f199092019160209182019101610db6565b6001836020036101000a038019825116818451168082178552505050505050905001915050600060405180830381855af49150503d8060008114610e35576040519150601f19603f3d011682016040523d82523d6000602084013e610e3a565b606091505b5050905080610e90576040805162461bcd60e51b815260206004820152601860248201527f556e61626c6520746f2063726561746520726571756573740000000000000000604482015290519081900360640190fd5b50505050505050565b6001600160a01b031660009081526003602052604090205460ff1690565b610ebf610c5b565b610efe576040805162461bcd60e51b8152602060048201819052602482015260008051602061122f833981519152604482015290519081900360640190fd5b610f0781611109565b50565b610f12610c5b565b610f51576040805162461bcd60e51b8152602060048201819052602482015260008051602061122f833981519152604482015290519081900360640190fd5b80610f6381600163ffffffff61104b16565b6004541015610fa35760405162461bcd60e51b81526004018080602001828103825260358152602001806111d06035913960400191505060405180910390fd5b600454610fb6908363ffffffff6110ac16565b60049081556001546040805163a9059cbb60e01b81526001600160a01b0387811694820194909452602481018690529051929091169163a9059cbb916044808201926020929091908290030181600087803b15801561101457600080fd5b505af1158015611028573d6000803e3d6000fd5b505050506040513d602081101561103e57600080fd5b505161104657fe5b505050565b6000828201838110156110a5576040805162461bcd60e51b815260206004820152601b60248201527f536166654d6174683a206164646974696f6e206f766572666c6f770000000000604482015290519081900360640190fd5b9392505050565b600082821115611103576040805162461bcd60e51b815260206004820152601e60248201527f536166654d6174683a207375627472616374696f6e206f766572666c6f770000604482015290519081900360640190fd5b50900390565b6001600160a01b03811661114e5760405162461bcd60e51b81526004018080602001828103825260268152602001806111aa6026913960400191505060405180910390fd5b600080546040516001600160a01b03808516939216917f8be0079c531659141344cd1fd0a4f28419497f9722a3daafe3b4186f6b6457e091a3600080546001600160a01b0319166001600160a01b039290921691909117905556fe4f776e61626c653a206e6577206f776e657220697320746865207a65726f2061646472657373416d6f756e74207265717565737465642069732067726561746572207468616e20776974686472617761626c652062616c616e63654e6f7420616e20617574686f72697a6564206e6f646520746f2066756c66696c6c2072657175657374734f776e61626c653a2063616c6c6572206973206e6f7420746865206f776e6572a264697066735822122092b358aa1deec3a5b113c7c7b61d698ed0055753b53597e6a18ce726c42d0c8864736f6c63430006060033","linkReferences":{}},"methodIdentifiers":{"EXPIRY_TIME()":"4b602282","cancelOracleRequest(bytes32,uint256,bytes4,uint256)":"6ee4d553","fulfillOracleRequest(bytes32,uint256,address,bytes4,uint256,bytes32)":"4ab0d190","getAuthorizationStatus(address)":"d3e9c314","getChainlinkToken()":"165d35e1","isOwner()":"8f32d59b","onTokenTransfer(address,uint256,bytes)":"a4c0ed36","oracleRequest(address,uint256,bytes32,address,bytes4,uint256,uint256,bytes)":"40429946","owner()":"8da5cb5b","setFulfillmentPermission(address,bool)":"7fcd56db","transferOwnership(address)":"f2fde38b","withdraw(address,uint256)":"f3fef3a3","withdrawable()":"50188301"},"id":6}