{
  "abi": [
    {
      "inputs": [
        {
          "internalType": "address",
          "name": "linkTokenAddress",
          "type": "address"
        }
      ],
      "stateMutability": "nonpayable",
      "type": "constructor"
    },
    {
      "anonymous": false,
      "inputs": [
        {
          "indexed": true,
          "internalType": "bytes32",
          "name": "id",
          "type": "bytes32"
        }
      ],
      "name": "ChainlinkCancelled",
      "type": "event"
    },
    {
      "anonymous": false,
      "inputs": [
        {
          "indexed": true,
          "internalType": "bytes32",
          "name": "id",
          "type": "bytes32"
        }
      ],
      "name": "ChainlinkFulfilled",
      "type": "event"
    },
    {
      "anonymous": false,
      "inputs": [
        {
          "indexed": true,
          "internalType": "bytes32",
          "name": "id",
          "type": "bytes32"
        }
      ],
      "name": "ChainlinkRequested",
      "type": "event"
    },
    {
      "anonymous": false,
      "inputs": [
        {
          "indexed": true,
          "internalType": "address",
          "name": "from",
          "type": "address"
        },
        {
          "indexed": true,
          "internalType": "address",
          "name": "to",
          "type": "address"
        }
      ],
      "name": "OwnershipTransferRequested",
      "type": "event"
    },
    {
      "anonymous": false,
      "inputs": [
        {
          "indexed": true,
          "internalType": "address",
          "name": "from",
          "type": "address"
        },
        {
          "indexed": true,
          "internalType": "address",
          "name": "to",
          "type": "address"
        }
      ],
      "name": "OwnershipTransferred",
      "type": "event"
    },
    {
      "anonymous": false,
      "inputs": [
        {
          "indexed": true,
          "internalType": "bytes32",
          "name": "requestId",
          "type": "bytes32"
        },
        {
          "indexed": true,
          "internalType": "uint256",
          "name": "price",
          "type": "uint256"
        }
      ],
      "name": "RequestEthereumPriceFulfilled",
      "type": "event"
    },
    {
      "inputs": [],
      "name": "acceptOwnership",
      "outputs": [],
      "stateMutability": "nonpayable",
      "type": "function"
    },
    {
      "inputs": [
        {
          "internalType": "bytes32",
          "name": "_requestId",
          "type": "bytes32"
        },
        {
          "internalType": "uint256",
          "name": "_payment",
          "type": "uint256"
        },
        {
          "internalType": "bytes4",
          "name": "_callbackFunctionId",
          "type": "bytes4"
        },
        {
          "internalType": "uint256",
          "name": "_expiration",
          "type": "uint256"
        }
      ],
      "name": "cancelRequest",
      "outputs": [],
      "stateMutability": "nonpayable",
      "type": "function"
    },
    {
      "inputs": [],
      "name": "currentPrice",
      "outputs": [
        {
          "internalType": "uint256",
          "name": "",
          "type": "uint256"
        }
      ],
      "stateMutability": "view",
      "type": "function"
    },
    {
      "inputs": [
        {
          "internalType": "bytes32",
          "name": "_requestId",
          "type": "bytes32"
        },
        {
          "internalType": "uint256",
          "name": "_price",
          "type": "uint256"
        }
      ],
      "name": "fulfillEthereumPrice",
      "outputs": [],
      "stateMutability": "nonpayable",
      "type": "function"
    },
    {
      "inputs": [],
      "name": "getChainlinkToken",
      "outputs": [
        {
          "internalType": "address",
          "name": "",
          "type": "address"
        }
      ],
      "stateMutability": "view",
      "type": "function"
    },
    {
      "inputs": [],
      "name": "owner",
      "outputs": [
        {
          "internalType": "address",
          "name": "",
          "type": "address"
        }
      ],
      "stateMutability": "view",
      "type": "function"
    },
    {
      "inputs": [
        {
          "internalType": "address",
          "name": "_oracle",
          "type": "address"
        },
        {
          "internalType": "string",
          "name": "_jobId",
          "type": "string"
        }
      ],
      "name": "requestEthereumPrice",
      "outputs": [],
      "stateMutability": "nonpayable",
      "type": "function"
    },
    {
      "inputs": [
        {
          "internalType": "address",
          "name": "to",
          "type": "address"
        }
      ],
      "name": "transferOwnership",
      "outputs": [],
      "stateMutability": "nonpayable",
      "type": "function"
    },
    {
      "inputs": [],
      "name": "withdrawLink",
      "outputs": [],
      "stateMutability": "nonpayable",
      "type": "function"
    }
  ],
  "bytecode": {
    "object": "0x608060405260016004553480156200001657600080fd5b50604051620015c5380380620015c58339810160408190526200003991620001ad565b3380600081620000905760405162461bcd60e51b815260206004820152601860248201527f43616e6e6f7420736574206f776e657220746f207a65726f000000000000000060448201526064015b60405180910390fd5b600680546001600160a01b0319166001600160a01b0384811691909117909155811615620000c357620000c381620000de565b505050620000d7816200018b60201b60201c565b50620001df565b6001600160a01b038116331415620001395760405162461bcd60e51b815260206004820152601760248201527f43616e6e6f74207472616e7366657220746f2073656c66000000000000000000604482015260640162000087565b600780546001600160a01b0319166001600160a01b03838116918217909255600654604051919216907fed8889f560326eb138920d842192f0eb3dd22b4f139c87a2c57538e05bae127890600090a350565b600280546001600160a01b0319166001600160a01b0392909216919091179055565b600060208284031215620001c057600080fd5b81516001600160a01b0381168114620001d857600080fd5b9392505050565b6113d680620001ef6000396000f3fe608060405234801561001057600080fd5b50600436106100935760003560e01c806392cdaaf31161006657806392cdaaf3146100e05780639d1b464a146100f3578063ab643c101461010a578063ec65d0f81461011d578063f2fde38b1461013057600080fd5b8063165d35e11461009857806379ba5097146100bd5780638da5cb5b146100c75780638dc654a2146100d8575b600080fd5b6100a0610143565b6040516001600160a01b0390911681526020015b60405180910390f35b6100c561015c565b005b6006546001600160a01b03166100a0565b6100c561020f565b6100c56100ee366004610f0b565b610353565b6100fc60085481565b6040519081526020016100b4565b6100c5610118366004610f5f565b610443565b6100c561012b366004611021565b61054a565b6100c561013e36600461106d565b61055e565b60006101576002546001600160a01b031690565b905090565b6007546001600160a01b031633146101b45760405162461bcd60e51b815260206004820152601660248201527526bab9ba10313290383937b837b9b2b21037bbb732b960511b60448201526064015b60405180910390fd5b600680546001600160a01b0319808216339081179093556007805490911690556040516001600160a01b03909116919082907f8be0079c531659141344cd1fd0a4f28419497f9722a3daafe3b4186f6b6457e090600090a350565b61021761056f565b600061022b6002546001600160a01b031690565b6040516370a0823160e01b81523060048201529091506001600160a01b0382169063a9059cbb90339083906370a0823190602401602060405180830381865afa15801561027c573d6000803e3d6000fd5b505050506040513d601f19601f820116820180604052508101906102a09190611088565b6040516001600160e01b031960e085901b1681526001600160a01b03909216600483015260248201526044016020604051808303816000875af11580156102eb573d6000803e3d6000fd5b505050506040513d601f19601f8201168201806040525081019061030f91906110a1565b6103505760405162461bcd60e51b81526020600482015260126024820152712ab730b13632903a37903a3930b739b332b960711b60448201526064016101ab565b50565b60008281526005602052604090205482906001600160a01b031633146103cc5760405162461bcd60e51b815260206004820152602860248201527f536f75726365206d75737420626520746865206f7261636c65206f6620746865604482015267081c995c5d595cdd60c21b60648201526084016101ab565b60008181526005602052604080822080546001600160a01b03191690555182917f7cc135e0cebb02c3480ae5d74d377283180a2601f8f644edf7987b009316c63a91a2604051829084907f794eb9e29f6750ede99e05248d997a9ab9fa23c4a7eaff8afa729080eb7c642890600090a35060085550565b61044b61056f565b6000610467610459836105c4565b306392cdaaf360e01b6105e1565b90506104a96040518060400160405280600381526020016219d95d60ea1b8152506040518060800160405280604c8152602001611355604c9139839190610606565b6104fe604051806040016040528060048152602001630e0c2e8d60e31b8152506040518060400160405280600c81526020016b195d1a195c995d5b4b1d5cd960a21b815250836106069092919063ffffffff16565b60408051808201909152600581526474696d657360d81b60208201526105279082906064610629565b610544838261053f670de0b6b3a764000060016110d9565b610647565b50505050565b61055261056f565b610544848484846106da565b61056661056f565b610350816107ac565b6006546001600160a01b031633146105c25760405162461bcd60e51b815260206004820152601660248201527527b7363c9031b0b63630b1363290313c9037bbb732b960511b60448201526064016101ab565b565b805160009082906105d85750600092915050565b50506020015190565b6105e9610ed0565b6105f1610ed0565b6105fd81868686610857565b95945050505050565b6080830151610615908361089d565b6080830151610624908261089d565b505050565b6080830151610638908361089d565b608083015161062490826108b4565b6004546000906106588160016110f8565b600455835160408086015160808701515191516000936320214ca360e11b936106909386938493923092918a9160019160240161115d565b60408051601f198184030181529190526020810180516001600160e01b03166001600160e01b03199093169290921790915290506106d086838684610918565b9695505050505050565b60008481526005602052604080822080546001600160a01b0319811690915590516001600160a01b039091169186917fe1fe3afa0f7f761ff0a8b89086790efd5140d2907ebd5b7ff6bfcb5e075fd4c59190a2604051636ee4d55360e01b815260048101869052602481018590526001600160e01b031984166044820152606481018390526001600160a01b03821690636ee4d55390608401600060405180830381600087803b15801561078d57600080fd5b505af11580156107a1573d6000803e3d6000fd5b505050505050505050565b6001600160a01b0381163314156108055760405162461bcd60e51b815260206004820152601760248201527f43616e6e6f74207472616e7366657220746f2073656c6600000000000000000060448201526064016101ab565b600780546001600160a01b0319166001600160a01b03838116918217909255600654604051919216907fed8889f560326eb138920d842192f0eb3dd22b4f139c87a2c57538e05bae127890600090a350565b61085f610ed0565b61086f8560800151610100610a76565b50508284526001600160a01b03821660208501526001600160e01b031981166040850152835b949350505050565b6108aa8260038351610ae1565b6106248282610bf0565b67ffffffffffffffff198112156108d3576108cf8282610c1e565b5050565b67ffffffffffffffff8113156108ed576108cf8282610c60565b60008112610901576108cf82600083610ae1565b6108cf826001610913846000196111c5565b610ae1565b6040516bffffffffffffffffffffffff193060601b1660208201526034810184905260009060540160408051808303601f1901815282825280516020918201206000818152600590925291812080546001600160a01b0319166001600160a01b038a1617905590925082917fb5e6e01e79f91267dc17b4e6314d5d4d03593d2ceee0fbb452b750bd70ea5af99190a2600254604051630200057560e51b81526001600160a01b0390911690634000aea0906109db90889087908790600401611204565b6020604051808303816000875af11580156109fa573d6000803e3d6000fd5b505050506040513d601f19601f82011682018060405250810190610a1e91906110a1565b6108955760405162461bcd60e51b815260206004820152602360248201527f756e61626c6520746f207472616e73666572416e6443616c6c20746f206f7261604482015262636c6560e81b60648201526084016101ab565b604080518082019091526060815260006020820152610a9660208361122b565b15610abe57610aa660208361122b565b610ab190602061124d565b610abb90836110f8565b91505b506020808301829052604080518085526000815283019091019052815b92915050565b60178167ffffffffffffffff1611610b06576105448360e0600585901b168317610c83565b60ff8167ffffffffffffffff1611610b4457610b2d836018611fe0600586901b1617610c83565b506105448367ffffffffffffffff83166001610ca8565b61ffff8167ffffffffffffffff1611610b8357610b6c836019611fe0600586901b1617610c83565b506105448367ffffffffffffffff83166002610ca8565b63ffffffff8167ffffffffffffffff1611610bc457610bad83601a611fe0600586901b1617610c83565b506105448367ffffffffffffffff83166004610ca8565b610bd983601b611fe0600586901b1617610c83565b506105448367ffffffffffffffff83166008610ca8565b604080518082019091526060815260006020820152610c1783846000015151848551610cce565b9392505050565b610c298260c3610c83565b506108cf82610c3a836000196111c5565b604051602001610c4c91815260200190565b604051602081830303815290604052610db8565b610c6b8260c2610c83565b506108cf8282604051602001610c4c91815260200190565b604080518082019091526060815260006020820152610c178384600001515184610dc5565b604080518082019091526060815260006020820152610895848560000151518585610e21565b6040805180820190915260608152600060208201528251821115610cf157600080fd5b6020850151610d0083866110f8565b1115610d3357610d3385610d2387602001518786610d1e91906110f8565b610ea2565b610d2e9060026110d9565b610eb9565b600080865180518760208301019350808887011115610d525787860182525b505050602084015b60208410610d925780518252610d716020836110f8565b9150610d7e6020826110f8565b9050610d8b60208561124d565b9350610d5a565b51815160001960208690036101000a019081169019919091161790525083949350505050565b6108aa8260028351610ae1565b60408051808201909152606081526000602082015283602001518310610dfa57610dfa8485602001516002610d2e91906110d9565b835180516020858301018481535080851415610e17576001810182525b5093949350505050565b6040805180820190915260608152600060208201526020850151610e4585846110f8565b1115610e5957610e5985610d2386856110f8565b60006001610e6984610100611348565b610e73919061124d565b9050855183868201018583198251161781525080518487011115610e975783860181525b509495945050505050565b600081831115610eb3575081610adb565b50919050565b8151610ec58383610a76565b506105448382610bf0565b6040805160a0810182526000808252602080830182905282840182905260608084018390528451808601909552845283015290608082015290565b60008060408385031215610f1e57600080fd5b50508035926020909101359150565b80356001600160a01b0381168114610f4457600080fd5b919050565b634e487b7160e01b600052604160045260246000fd5b60008060408385031215610f7257600080fd5b610f7b83610f2d565b9150602083013567ffffffffffffffff80821115610f9857600080fd5b818501915085601f830112610fac57600080fd5b813581811115610fbe57610fbe610f49565b604051601f8201601f19908116603f01168101908382118183101715610fe657610fe6610f49565b81604052828152886020848701011115610fff57600080fd5b8260208601602083013760006020848301015280955050505050509250929050565b6000806000806080858703121561103757600080fd5b843593506020850135925060408501356001600160e01b03198116811461105d57600080fd5b9396929550929360600135925050565b60006020828403121561107f57600080fd5b610c1782610f2d565b60006020828403121561109a57600080fd5b5051919050565b6000602082840312156110b357600080fd5b81518015158114610c1757600080fd5b634e487b7160e01b600052601160045260246000fd5b60008160001904831182151516156110f3576110f36110c3565b500290565b6000821982111561110b5761110b6110c3565b500190565b6000815180845260005b818110156111365760208185018101518683018201520161111a565b81811115611148576000602083870101525b50601f01601f19169290920160200192915050565b6001600160a01b0389811682526020820189905260408201889052861660608201526001600160e01b03198516608082015260a0810184905260c0810183905261010060e082018190526000906111b683820185611110565b9b9a5050505050505050505050565b60008083128015600160ff1b8501841216156111e3576111e36110c3565b6001600160ff1b03840183138116156111fe576111fe6110c3565b50500390565b60018060a01b03841681528260208201526060604082015260006105fd6060830184611110565b60008261124857634e487b7160e01b600052601260045260246000fd5b500690565b60008282101561125f5761125f6110c3565b500390565b600181815b8085111561129f578160001904821115611285576112856110c3565b8085161561129257918102915b93841c9390800290611269565b509250929050565b6000826112b657506001610adb565b816112c357506000610adb565b81600181146112d957600281146112e3576112ff565b6001915050610adb565b60ff8411156112f4576112f46110c3565b50506001821b610adb565b5060208310610133831016604e8410600b8410161715611322575081810a610adb565b61132c8383611264565b8060001904821115611340576113406110c3565b029392505050565b6000610c1783836112a756fe68747470733a2f2f6170692e636f696e6765636b6f2e636f6d2f6170692f76332f73696d706c652f70726963653f6964733d657468657265756d2676735f63757272656e636965733d757364a2646970667358221220406cd70e62ea13ef5423b699257bbdcd77843e14e6b543dea63fbbf4e609c27964736f6c634300080c0033",
    "linkReferences": {}
  },
  "methodIdentifiers": {
    "acceptOwnership()": "79ba5097",
    "cancelRequest(bytes32,uint256,bytes4,uint256)": "ec65d0f8",
    "currentPrice()": "9d1b464a",
    "fulfillEthereumPrice(bytes32,uint256)": "92cdaaf3",
    "getChainlinkToken()": "165d35e1",
    "owner()": "8da5cb5b",
    "requestEthereumPrice(address,string)": "ab643c10",
    "transferOwnership(address)": "f2fde38b",
    "withdrawLink()": "8dc654a2"
  },
  "id": 18
}