{"abi":[{"type":"function","name":"canCheck","inputs":[],"outputs":[{"name":"","type":"bool","internalType":"bool"}],"stateMutability":"view"},{"type":"function","name":"canPerform","inputs":[],"outputs":[{"name":"","type":"bool","internalType":"bool"}],"stateMutability":"view"},{"type":"function","name":"checkGasToBurn","inputs":[],"outputs":[{"name":"","type":"uint256","internalType":"uint256"}],"stateMutability":"view"},{"type":"function","name":"checkRevertReason","inputs":[],"outputs":[{"name":"","type":"string","internalType":"string"}],"stateMutability":"view"},{"type":"function","name":"checkUpkeep","inputs":[{"name":"data","type":"bytes","internalType":"bytes"}],"outputs":[{"name":"callable","type":"bool","internalType":"bool"},{"name":"executedata","type":"bytes","internalType":"bytes"}],"stateMutability":"nonpayable"},{"type":"function","name":"performData","inputs":[],"outputs":[{"name":"","type":"bytes","internalType":"bytes"}],"stateMutability":"view"},{"type":"function","name":"performGasToBurn","inputs":[],"outputs":[{"name":"","type":"uint256","internalType":"uint256"}],"stateMutability":"view"},{"type":"function","name":"performUpkeep","inputs":[{"name":"data","type":"bytes","internalType":"bytes"}],"outputs":[],"stateMutability":"nonpayable"},{"type":"function","name":"setCanCheck","inputs":[{"name":"value","type":"bool","internalType":"bool"}],"outputs":[],"stateMutability":"nonpayable"},{"type":"function","name":"setCanPerform","inputs":[{"name":"value","type":"bool","internalType":"bool"}],"outputs":[],"stateMutability":"nonpayable"},{"type":"function","name":"setCheckGasToBurn","inputs":[{"name":"value","type":"uint256","internalType":"uint256"}],"outputs":[],"stateMutability":"nonpayable"},{"type":"function","name":"setCheckRevertReason","inputs":[{"name":"value","type":"string","internalType":"string"}],"outputs":[],"stateMutability":"nonpayable"},{"type":"function","name":"setPerformData","inputs":[{"name":"data","type":"bytes","internalType":"bytes"}],"outputs":[],"stateMutability":"nonpayable"},{"type":"function","name":"setPerformGasToBurn","inputs":[{"name":"value","type":"uint256","internalType":"uint256"}],"outputs":[],"stateMutability":"nonpayable"},{"type":"function","name":"setShouldRevertCheck","inputs":[{"name":"value","type":"bool","internalType":"bool"}],"outputs":[],"stateMutability":"nonpayable"},{"type":"function","name":"shouldRevertCheck","inputs":[],"outputs":[{"name":"","type":"bool","internalType":"bool"}],"stateMutability":"view"},{"type":"event","name":"UpkeepPerformedWith","inputs":[{"name":"upkeepData","type":"bytes","indexed":false,"internalType":"bytes"}],"anonymous":false}],"bytecode":{"object":"0x608060405234801561001057600080fd5b50610ae3806100206000396000f3fe608060405234801561001057600080fd5b50600436106101005760003560e01c806380c4b95811610097578063c0ecfc5911610066578063c0ecfc591461040d578063c719ae1014610415578063ec8533721461041d578063f8c826061461048b57610100565b806380c4b958146102fb5780638c96ee2c146103785780639b947f6a146103e6578063b30566b41461040557610100565b806356218de7116100d357806356218de7146101c957806360f90080146101e55780636e04ff0d1461020457806379bbf47c146102f357610100565b806313bda75b146101055780632555d2cf146101245780632ff3617d146101415780634585e33b1461015b575b600080fd5b6101226004803603602081101561011b57600080fd5b50356104aa565b005b6101226004803603602081101561013a57600080fd5b5035610510565b610149610575565b60408051918252519081900360200190f35b6101226004803603602081101561017157600080fd5b810190602081018135600160201b81111561018b57600080fd5b82018360208201111561019d57600080fd5b803590602001918460018302840111600160201b831117156101be57600080fd5b50909250905061057b565b6101d1610646565b604080519115158252519081900360200190f35b610122600480360360208110156101fb57600080fd5b5035151561064f565b6102726004803603602081101561021a57600080fd5b810190602081018135600160201b81111561023457600080fd5b82018360208201111561024657600080fd5b803590602001918460018302840111600160201b8311171561026757600080fd5b50909250905061066b565b60405180831515815260200180602001828103825283818151815260200191508051906020019080838360005b838110156102b757818101518382015260200161029f565b50505050905090810190601f1680156102e45780820380516001836020036101000a031916815260200191505b50935050505060405180910390f35b6101d16107f1565b6103036107ff565b6040805160208082528351818301528351919283929083019185019080838360005b8381101561033d578181015183820152602001610325565b50505050905090810190601f16801561036a5780820380516001836020036101000a031916815260200191505b509250505060405180910390f35b6101226004803603602081101561038e57600080fd5b810190602081018135600160201b8111156103a857600080fd5b8201836020820111156103ba57600080fd5b803590602001918460018302840111600160201b831117156103db57600080fd5b50909250905061088d565b610122600480360360208110156103fc57600080fd5b50351515610899565b6101496108ac565b6101d16108b2565b6103036108c1565b6101226004803603602081101561043357600080fd5b810190602081018135600160201b81111561044d57600080fd5b82018360208201111561045f57600080fd5b803590602001918460018302840111600160201b8311171561048057600080fd5b50909250905061091b565b610122600480360360208110156104a157600080fd5b50351515610927565b6117708111806104b8575080155b6104f35760405162461bcd60e51b815260040180806020018281038252603a815260200180610a38603a913960400191505060405180910390fd5b80156105075761176f19810160025561050d565b60006002555b50565b6103e881118061051e575080155b6105595760405162461bcd60e51b815260040180806020018281038252603c815260200180610a72603c913960400191505060405180910390fd5b801561056d576103e719810160035561050d565b600060035550565b60025481565b60005a60005490915062010000900460ff166105cf576040805162461bcd60e51b815260206004820152600e60248201526d43616e6e6f7420706572666f726d60901b604482015290519081900360640190fd5b7f20ce13cdd0a772811a0b719829d2b4cc837ad2a03e6b8330f9f41156c1560096838360405180806020018281038252848482818152602001925080828437600083820152604051601f909101601f19169092018290039550909350505050a15b6003545a8203101561064157610630565b505050565b60005460ff1681565b60008054911515620100000262ff000019909216919091179055565b60006060610677610941565b60005460049060ff161561071e5760405162461bcd60e51b815260206004820190815282546002600019610100600184161502019091160460248301819052909182916044909101908490801561070f5780601f106106e45761010080835404028352916020019161070f565b820191906000526020600020905b8154815290600101906020018083116106f257829003601f168201915b50509250505060405180910390fd5b5060005a905060008060019054906101000a900460ff1690506107416000610927565b5b6002545a8303101561075357610742565b60018054604080516020600284861615610100026000190190941693909304601f8101849004840282018401909252818152849392909183918301828280156107dd5780601f106107b2576101008083540402835291602001916107dd565b820191906000526020600020905b8154815290600101906020018083116107c057829003601f168201915b505050505090509350935050509250929050565b600054610100900460ff1681565b6004805460408051602060026001851615610100026000190190941693909304601f810184900484028201840190925281815292918301828280156108855780601f1061085a57610100808354040283529160200191610885565b820191906000526020600020905b81548152906001019060200180831161086857829003601f168201915b505050505081565b61064160018383610996565b6000805460ff1916911515919091179055565b60035481565b60005462010000900460ff1681565b60018054604080516020600284861615610100026000190190941693909304601f810184900484028201840190925281815292918301828280156108855780601f1061085a57610100808354040283529160200191610885565b61064160048383610996565b600080549115156101000261ff0019909216919091179055565b3215610994576040805162461bcd60e51b815260206004820152601a60248201527f6f6e6c7920666f722073696d756c61746564206261636b656e64000000000000604482015290519081900360640190fd5b565b828054600181600116156101000203166002900490600052602060002090601f0160209004810192826109cc5760008555610a12565b82601f106109e55782800160ff19823516178555610a12565b82800160010185558215610a12579182015b82811115610a125782358255916020019190600101906109f7565b50610a1e929150610a22565b5090565b5b80821115610a1e5760008155600101610a2356fe636865636b476173546f4275726e206d7573742062652030202864697361626c656429206f722067726561746572207468616e20627566666572706572666f726d476173546f4275726e206d7573742062652030202864697361626c656429206f722067726561746572207468616e20627566666572a264697066735822122027ad3888a863f17ee59fec8e3128f2d5a936d8836c233bd715a8598d2d096e3564736f6c63430007060033","linkReferences":{}},"methodIdentifiers":{"canCheck()":"79bbf47c","canPerform()":"c0ecfc59","checkGasToBurn()":"2ff3617d","checkRevertReason()":"80c4b958","checkUpkeep(bytes)":"6e04ff0d","performData()":"c719ae10","performGasToBurn()":"b30566b4","performUpkeep(bytes)":"4585e33b","setCanCheck(bool)":"f8c82606","setCanPerform(bool)":"60f90080","setCheckGasToBurn(uint256)":"13bda75b","setCheckRevertReason(string)":"ec853372","setPerformData(bytes)":"8c96ee2c","setPerformGasToBurn(uint256)":"2555d2cf","setShouldRevertCheck(bool)":"9b947f6a","shouldRevertCheck()":"56218de7"},"id":25}