{"abi":[{"type":"constructor","inputs":[{"name":"_maximumGasPrice","type":"uint32","internalType":"uint32"},{"name":"_reasonableGasPrice","type":"uint32","internalType":"uint32"},{"name":"_microLinkPerEth","type":"uint32","internalType":"uint32"},{"name":"_linkGweiPerObservation","type":"uint32","internalType":"uint32"},{"name":"_linkGweiPerTransmission","type":"uint32","internalType":"uint32"},{"name":"_link","type":"address","internalType":"contract LinkTokenInterface"},{"name":"_minAnswer","type":"int192","internalType":"int192"},{"name":"_maxAnswer","type":"int192","internalType":"int192"},{"name":"_billingAccessController","type":"address","internalType":"contract AccessControllerInterface"},{"name":"_requesterAccessController","type":"address","internalType":"contract AccessControllerInterface"},{"name":"_decimals","type":"uint8","internalType":"uint8"},{"name":"_description","type":"string","internalType":"string"}],"stateMutability":"nonpayable"},{"type":"function","name":"acceptOwnership","inputs":[],"outputs":[],"stateMutability":"nonpayable"},{"type":"function","name":"acceptPayeeship","inputs":[{"name":"_transmitter","type":"address","internalType":"address"}],"outputs":[],"stateMutability":"nonpayable"},{"type":"function","name":"billingAccessController","inputs":[],"outputs":[{"name":"","type":"address","internalType":"contract AccessControllerInterface"}],"stateMutability":"view"},{"type":"function","name":"decimals","inputs":[],"outputs":[{"name":"","type":"uint8","internalType":"uint8"}],"stateMutability":"view"},{"type":"function","name":"description","inputs":[],"outputs":[{"name":"","type":"string","internalType":"string"}],"stateMutability":"view"},{"type":"function","name":"getAnswer","inputs":[{"name":"_roundId","type":"uint256","internalType":"uint256"}],"outputs":[{"name":"","type":"int256","internalType":"int256"}],"stateMutability":"view"},{"type":"function","name":"getBilling","inputs":[],"outputs":[{"name":"maximumGasPrice","type":"uint32","internalType":"uint32"},{"name":"reasonableGasPrice","type":"uint32","internalType":"uint32"},{"name":"microLinkPerEth","type":"uint32","internalType":"uint32"},{"name":"linkGweiPerObservation","type":"uint32","internalType":"uint32"},{"name":"linkGweiPerTransmission","type":"uint32","internalType":"uint32"}],"stateMutability":"view"},{"type":"function","name":"getLinkToken","inputs":[],"outputs":[{"name":"linkToken","type":"address","internalType":"contract LinkTokenInterface"}],"stateMutability":"view"},{"type":"function","name":"getRoundData","inputs":[{"name":"_roundId","type":"uint80","internalType":"uint80"}],"outputs":[{"name":"roundId","type":"uint80","internalType":"uint80"},{"name":"answer","type":"int256","internalType":"int256"},{"name":"startedAt","type":"uint256","internalType":"uint256"},{"name":"updatedAt","type":"uint256","internalType":"uint256"},{"name":"answeredInRound","type":"uint80","internalType":"uint80"}],"stateMutability":"view"},{"type":"function","name":"getTimestamp","inputs":[{"name":"_roundId","type":"uint256","internalType":"uint256"}],"outputs":[{"name":"","type":"uint256","internalType":"uint256"}],"stateMutability":"view"},{"type":"function","name":"latestAnswer","inputs":[],"outputs":[{"name":"","type":"int256","internalType":"int256"}],"stateMutability":"view"},{"type":"function","name":"latestConfigDetails","inputs":[],"outputs":[{"name":"configCount","type":"uint32","internalType":"uint32"},{"name":"blockNumber","type":"uint32","internalType":"uint32"},{"name":"configDigest","type":"bytes16","internalType":"bytes16"}],"stateMutability":"view"},{"type":"function","name":"latestRound","inputs":[],"outputs":[{"name":"","type":"uint256","internalType":"uint256"}],"stateMutability":"view"},{"type":"function","name":"latestRoundData","inputs":[],"outputs":[{"name":"roundId","type":"uint80","internalType":"uint80"},{"name":"answer","type":"int256","internalType":"int256"},{"name":"startedAt","type":"uint256","internalType":"uint256"},{"name":"updatedAt","type":"uint256","internalType":"uint256"},{"name":"answeredInRound","type":"uint80","internalType":"uint80"}],"stateMutability":"view"},{"type":"function","name":"latestTimestamp","inputs":[],"outputs":[{"name":"","type":"uint256","internalType":"uint256"}],"stateMutability":"view"},{"type":"function","name":"latestTransmissionDetails","inputs":[],"outputs":[{"name":"configDigest","type":"bytes16","internalType":"bytes16"},{"name":"epoch","type":"uint32","internalType":"uint32"},{"name":"round","type":"uint8","internalType":"uint8"},{"name":"latestAnswer","type":"int192","internalType":"int192"},{"name":"latestTimestamp","type":"uint64","internalType":"uint64"}],"stateMutability":"view"},{"type":"function","name":"linkAvailableForPayment","inputs":[],"outputs":[{"name":"availableBalance","type":"int256","internalType":"int256"}],"stateMutability":"view"},{"type":"function","name":"maxAnswer","inputs":[],"outputs":[{"name":"","type":"int192","internalType":"int192"}],"stateMutability":"view"},{"type":"function","name":"minAnswer","inputs":[],"outputs":[{"name":"","type":"int192","internalType":"int192"}],"stateMutability":"view"},{"type":"function","name":"oracleObservationCount","inputs":[{"name":"_signerOrTransmitter","type":"address","internalType":"address"}],"outputs":[{"name":"","type":"uint16","internalType":"uint16"}],"stateMutability":"view"},{"type":"function","name":"owedPayment","inputs":[{"name":"_transmitter","type":"address","internalType":"address"}],"outputs":[{"name":"","type":"uint256","internalType":"uint256"}],"stateMutability":"view"},{"type":"function","name":"owner","inputs":[],"outputs":[{"name":"","type":"address","internalType":"address"}],"stateMutability":"view"},{"type":"function","name":"requestNewRound","inputs":[],"outputs":[{"name":"","type":"uint80","internalType":"uint80"}],"stateMutability":"nonpayable"},{"type":"function","name":"requesterAccessController","inputs":[],"outputs":[{"name":"","type":"address","internalType":"contract AccessControllerInterface"}],"stateMutability":"view"},{"type":"function","name":"setBilling","inputs":[{"name":"_maximumGasPrice","type":"uint32","internalType":"uint32"},{"name":"_reasonableGasPrice","type":"uint32","internalType":"uint32"},{"name":"_microLinkPerEth","type":"uint32","internalType":"uint32"},{"name":"_linkGweiPerObservation","type":"uint32","internalType":"uint32"},{"name":"_linkGweiPerTransmission","type":"uint32","internalType":"uint32"}],"outputs":[],"stateMutability":"nonpayable"},{"type":"function","name":"setBillingAccessController","inputs":[{"name":"_billingAccessController","type":"address","internalType":"contract AccessControllerInterface"}],"outputs":[],"stateMutability":"nonpayable"},{"type":"function","name":"setConfig","inputs":[{"name":"_signers","type":"address[]","internalType":"address[]"},{"name":"_transmitters","type":"address[]","internalType":"address[]"},{"name":"_threshold","type":"uint8","internalType":"uint8"},{"name":"_encodedConfigVersion","type":"uint64","internalType":"uint64"},{"name":"_encoded","type":"bytes","internalType":"bytes"}],"outputs":[],"stateMutability":"nonpayable"},{"type":"function","name":"setLinkToken","inputs":[{"name":"_linkToken","type":"address","internalType":"contract LinkTokenInterface"},{"name":"_recipient","type":"address","internalType":"address"}],"outputs":[],"stateMutability":"nonpayable"},{"type":"function","name":"setPayees","inputs":[{"name":"_transmitters","type":"address[]","internalType":"address[]"},{"name":"_payees","type":"address[]","internalType":"address[]"}],"outputs":[],"stateMutability":"nonpayable"},{"type":"function","name":"setRequesterAccessController","inputs":[{"name":"_requesterAccessController","type":"address","internalType":"contract AccessControllerInterface"}],"outputs":[],"stateMutability":"nonpayable"},{"type":"function","name":"setValidatorConfig","inputs":[{"name":"_newValidator","type":"address","internalType":"contract AggregatorValidatorInterface"},{"name":"_newGasLimit","type":"uint32","internalType":"uint32"}],"outputs":[],"stateMutability":"nonpayable"},{"type":"function","name":"transferOwnership","inputs":[{"name":"_to","type":"address","internalType":"address"}],"outputs":[],"stateMutability":"nonpayable"},{"type":"function","name":"transferPayeeship","inputs":[{"name":"_transmitter","type":"address","internalType":"address"},{"name":"_proposed","type":"address","internalType":"address"}],"outputs":[],"stateMutability":"nonpayable"},{"type":"function","name":"transmit","inputs":[{"name":"_report","type":"bytes","internalType":"bytes"},{"name":"_rs","type":"bytes32[]","internalType":"bytes32[]"},{"name":"_ss","type":"bytes32[]","internalType":"bytes32[]"},{"name":"_rawVs","type":"bytes32","internalType":"bytes32"}],"outputs":[],"stateMutability":"nonpayable"},{"type":"function","name":"transmitters","inputs":[],"outputs":[{"name":"","type":"address[]","internalType":"address[]"}],"stateMutability":"view"},{"type":"function","name":"typeAndVersion","inputs":[],"outputs":[{"name":"","type":"string","internalType":"string"}],"stateMutability":"pure"},{"type":"function","name":"validatorConfig","inputs":[],"outputs":[{"name":"validator","type":"address","internalType":"contract AggregatorValidatorInterface"},{"name":"gasLimit","type":"uint32","internalType":"uint32"}],"stateMutability":"view"},{"type":"function","name":"version","inputs":[],"outputs":[{"name":"","type":"uint256","internalType":"uint256"}],"stateMutability":"view"},{"type":"function","name":"withdrawFunds","inputs":[{"name":"_recipient","type":"address","internalType":"address"},{"name":"_amount","type":"uint256","internalType":"uint256"}],"outputs":[],"stateMutability":"nonpayable"},{"type":"function","name":"withdrawPayment","inputs":[{"name":"_transmitter","type":"address","internalType":"address"}],"outputs":[],"stateMutability":"nonpayable"},{"type":"event","name":"AnswerUpdated","inputs":[{"name":"current","type":"int256","indexed":true,"internalType":"int256"},{"name":"roundId","type":"uint256","indexed":true,"internalType":"uint256"},{"name":"updatedAt","type":"uint256","indexed":false,"internalType":"uint256"}],"anonymous":false},{"type":"event","name":"BillingAccessControllerSet","inputs":[{"name":"old","type":"address","indexed":false,"internalType":"contract AccessControllerInterface"},{"name":"current","type":"address","indexed":false,"internalType":"contract AccessControllerInterface"}],"anonymous":false},{"type":"event","name":"BillingSet","inputs":[{"name":"maximumGasPrice","type":"uint32","indexed":false,"internalType":"uint32"},{"name":"reasonableGasPrice","type":"uint32","indexed":false,"internalType":"uint32"},{"name":"microLinkPerEth","type":"uint32","indexed":false,"internalType":"uint32"},{"name":"linkGweiPerObservation","type":"uint32","indexed":false,"internalType":"uint32"},{"name":"linkGweiPerTransmission","type":"uint32","indexed":false,"internalType":"uint32"}],"anonymous":false},{"type":"event","name":"ConfigSet","inputs":[{"name":"previousConfigBlockNumber","type":"uint32","indexed":false,"internalType":"uint32"},{"name":"configCount","type":"uint64","indexed":false,"internalType":"uint64"},{"name":"signers","type":"address[]","indexed":false,"internalType":"address[]"},{"name":"transmitters","type":"address[]","indexed":false,"internalType":"address[]"},{"name":"threshold","type":"uint8","indexed":false,"internalType":"uint8"},{"name":"encodedConfigVersion","type":"uint64","indexed":false,"internalType":"uint64"},{"name":"encoded","type":"bytes","indexed":false,"internalType":"bytes"}],"anonymous":false},{"type":"event","name":"LinkTokenSet","inputs":[{"name":"_oldLinkToken","type":"address","indexed":true,"internalType":"contract LinkTokenInterface"},{"name":"_newLinkToken","type":"address","indexed":true,"internalType":"contract LinkTokenInterface"}],"anonymous":false},{"type":"event","name":"NewRound","inputs":[{"name":"roundId","type":"uint256","indexed":true,"internalType":"uint256"},{"name":"startedBy","type":"address","indexed":true,"internalType":"address"},{"name":"startedAt","type":"uint256","indexed":false,"internalType":"uint256"}],"anonymous":false},{"type":"event","name":"NewTransmission","inputs":[{"name":"aggregatorRoundId","type":"uint32","indexed":true,"internalType":"uint32"},{"name":"answer","type":"int192","indexed":false,"internalType":"int192"},{"name":"transmitter","type":"address","indexed":false,"internalType":"address"},{"name":"observations","type":"int192[]","indexed":false,"internalType":"int192[]"},{"name":"observers","type":"bytes","indexed":false,"internalType":"bytes"},{"name":"rawReportContext","type":"bytes32","indexed":false,"internalType":"bytes32"}],"anonymous":false},{"type":"event","name":"OraclePaid","inputs":[{"name":"transmitter","type":"address","indexed":true,"internalType":"address"},{"name":"payee","type":"address","indexed":true,"internalType":"address"},{"name":"amount","type":"uint256","indexed":false,"internalType":"uint256"},{"name":"linkToken","type":"address","indexed":true,"internalType":"contract LinkTokenInterface"}],"anonymous":false},{"type":"event","name":"OwnershipTransferRequested","inputs":[{"name":"from","type":"address","indexed":true,"internalType":"address"},{"name":"to","type":"address","indexed":true,"internalType":"address"}],"anonymous":false},{"type":"event","name":"OwnershipTransferred","inputs":[{"name":"from","type":"address","indexed":true,"internalType":"address"},{"name":"to","type":"address","indexed":true,"internalType":"address"}],"anonymous":false},{"type":"event","name":"PayeeshipTransferRequested","inputs":[{"name":"transmitter","type":"address","indexed":true,"internalType":"address"},{"name":"current","type":"address","indexed":true,"internalType":"address"},{"name":"proposed","type":"address","indexed":true,"internalType":"address"}],"anonymous":false},{"type":"event","name":"PayeeshipTransferred","inputs":[{"name":"transmitter","type":"address","indexed":true,"internalType":"address"},{"name":"previous","type":"address","indexed":true,"internalType":"address"},{"name":"current","type":"address","indexed":true,"internalType":"address"}],"anonymous":false},{"type":"event","name":"RequesterAccessControllerSet","inputs":[{"name":"old","type":"address","indexed":false,"internalType":"contract AccessControllerInterface"},{"name":"current","type":"address","indexed":false,"internalType":"contract AccessControllerInterface"}],"anonymous":false},{"type":"event","name":"RoundRequested","inputs":[{"name":"requester","type":"address","indexed":true,"internalType":"address"},{"name":"configDigest","type":"bytes16","indexed":false,"internalType":"bytes16"},{"name":"epoch","type":"uint32","indexed":false,"internalType":"uint32"},{"name":"round","type":"uint8","indexed":false,"internalType":"uint8"}],"anonymous":false},{"type":"event","name":"ValidatorConfigSet","inputs":[{"name":"previousValidator","type":"address","indexed":true,"internalType":"contract AggregatorValidatorInterface"},{"name":"previousGasLimit","type":"uint32","indexed":false,"internalType":"uint32"},{"name":"currentValidator","type":"address","indexed":true,"internalType":"contract AggregatorValidatorInterface"},{"name":"currentGasLimit","type":"uint32","indexed":false,"internalType":"uint32"}],"anonymous":false}],"bytecode":{"object":"0x60e06040523480156200001157600080fd5b506040516200505f3803806200505f83398181016040526101808110156200003857600080fd5b815160208301516040808501516060860151608087015160a088015160c089015160e08a01516101008b01516101208c01516101408d01516101608e0180519a519c9e9b9d999c989b979a969995989497939692959194939182019284640100000000821115620000a857600080fd5b908301906020820185811115620000be57600080fd5b8251640100000000811182820188101715620000d957600080fd5b82525081516020918201929091019080838360005b8381101562000108578181015183820152602001620000ee565b50505050905090810190601f168015620001365780820380516001836020036101000a031916815260200191505b506040525050600080546001600160a01b03191633179055508b8b8b8b8b8b89620001658787878787620002ca565b600380546001600160a01b0319166001600160a01b0384169081179091556040516000907f4966a50c93f855342ccf6c5c0d358b85b91335b2acedc7da0932f691f351711a908290a3620001b981620003bc565b620001c362000653565b620001cd62000653565b60005b601f8160ff1610156200021d576001838260ff16601f8110620001ef57fe5b61ffff909216602092909202015260018260ff8316601f81106200020f57fe5b6020020152600101620001d0565b506200022d600583601f62000672565b506200023d600982601f6200070f565b505050505060f887901b7fff000000000000000000000000000000000000000000000000000000000000001660c052505083516200028693506030925060208501915062000740565b50620002928362000435565b6200029f6000806200050d565b50505050601791820b820b604090811b60805290820b90910b901b60a05250620007d9945050505050565b6040805160a0808201835263ffffffff88811680845288821660208086018290528984168688018190528985166060808901829052958a1660809889018190526002805463ffffffff1916871763ffffffff60201b191664010000000087021763ffffffff60401b19166801000000000000000085021763ffffffff60601b19166c0100000000000000000000000084021763ffffffff60801b1916600160801b830217905589519586529285019390935283880152928201529283015291517fd0d9486a2c673e2a4b57fc82e4c8a556b3e2b82dd5db07e2c04a920ca0f469b6929181900390910190a15050505050565b6004546001600160a01b0390811690821681146200043157600480546001600160a01b0319166001600160a01b03848116918217909255604080519284168352602083019190915280517f793cb73064f3c8cde7e187ae515511e6e56d1ee89bf08b82fa60fb70f8d489129281900390910190a15b5050565b6000546001600160a01b0316331462000495576040805162461bcd60e51b815260206004820152601660248201527f4f6e6c792063616c6c61626c65206279206f776e657200000000000000000000604482015290519081900360640190fd5b602f546001600160a01b0390811690821681146200043157602f80546001600160a01b0319166001600160a01b03848116918217909255604080519284168352602083019190915280517f27b89aede8b560578baaa25ee5ce3852c5eecad1e114b941bbd89e1eb4bae6349281900390910190a15050565b6000546001600160a01b031633146200056d576040805162461bcd60e51b815260206004820152601660248201527f4f6e6c792063616c6c61626c65206279206f776e657200000000000000000000604482015290519081900360640190fd5b60408051808201909152602e546001600160a01b03808216808452600160a01b90920463ffffffff1660208401528416141580620005bb57508163ffffffff16816020015163ffffffff1614155b156200064e576040805180820182526001600160a01b0385811680835263ffffffff8681166020948501819052602e80546001600160a01b031916841763ffffffff60a01b1916600160a01b8302179055865187860151875193168352948201528451919493909216927fb04e3a37abe9c0fcdfebdeae019a8e2b12ddf53f5d55ffb0caccc1bedaca1541928290030190a35b505050565b604051806103e00160405280601f906020820280368337509192915050565b600283019183908215620006fd5791602002820160005b83821115620006cb57835183826101000a81548161ffff021916908361ffff160217905550926020019260020160208160010104928301926001030262000689565b8015620006fb5782816101000a81549061ffff0219169055600201602081600101049283019260010302620006cb565b505b506200070b929150620007c2565b5090565b82601f8101928215620006fd579160200282015b82811115620006fd57825182559160200191906001019062000723565b828054600181600116156101000203166002900490600052602060002090601f016020900481019282620007785760008555620006fd565b82601f106200079357805160ff1916838001178555620006fd565b82800160010185558215620006fd5791820182811115620006fd57825182559160200191906001019062000723565b5b808211156200070b5760008155600101620007c3565b60805160401c60a05160401c60c05160f81c6148466200081960003980610cb95250806117445280612f2a525080610c345280612efd52506148466000f3fe608060405234801561001057600080fd5b50600436106102485760003560e01c806398e5b12a1161013b578063c9807539116100b8578063eb4571631161007c578063eb45716314610a18578063eb5dcd6c14610a4a578063f2fde38b14610a78578063fbffd2c114610a9e578063feaf968c14610ac457610248565b8063c98075391461086c578063d09dc3391461097a578063e4902f8214610982578063e5fe4577146109bf578063e76d516814610a1057610248565b8063b121e147116100ff578063b121e1471461079b578063b5ab58dc146107c1578063b633620c146107de578063bd824706146107fb578063c10753291461084057610248565b806398e5b12a14610621578063996e8298146106455780639a6fc8f51461064d5780639c849b30146106b75780639e3ceeab1461077557610248565b806370da2f67116101c957806381ff70481161018d57806381ff7048146105825780638205bf6a146105bb5780638ac28d5a146105c35780638da5cb5b146105e95780638e0566de146105f157610248565b806370da2f67146104ee57806370efdf2d146104f65780637284e4161461051a57806379ba509714610522578063814118341461052a57610248565b80634fb17470116102105780634fb174701461038057806350d25bcd146103b057806354fd4d50146103b8578063585aa7de146103c0578063668a0f02146104e657610248565b80630eafb25b1461024d578063181f5a771461028557806322adbc78146103025780632993726814610321578063313ce56714610362575b600080fd5b6102736004803603602081101561026357600080fd5b50356001600160a01b0316610acc565b60408051918252519081900360200190f35b61028d610bfb565b6040805160208082528351818301528351919283929083019185019080838360005b838110156102c75781810151838201526020016102af565b50505050905090810190601f1680156102f45780820380516001836020036101000a031916815260200191505b509250505060405180910390f35b61030a610c32565b6040805160179290920b8252519081900360200190f35b610329610c56565b6040805163ffffffff96871681529486166020860152928516848401529084166060840152909216608082015290519081900360a00190f35b61036a610cb7565b6040805160ff9092168252519081900360200190f35b6103ae6004803603604081101561039657600080fd5b506001600160a01b0381358116916020013516610cdb565b005b610273610f63565b610273610f8c565b6103ae600480360360a08110156103d657600080fd5b810190602081018135600160201b8111156103f057600080fd5b82018360208201111561040257600080fd5b803590602001918460208302840111600160201b8311171561042357600080fd5b919390929091602081019035600160201b81111561044057600080fd5b82018360208201111561045257600080fd5b803590602001918460208302840111600160201b8311171561047357600080fd5b9193909260ff833516926001600160401b03602082013516929190606081019060400135600160201b8111156104a857600080fd5b8201836020820111156104ba57600080fd5b803590602001918460018302840111600160201b831117156104db57600080fd5b509092509050610f91565b61027361172f565b61030a611742565b6104fe611766565b604080516001600160a01b039092168252519081900360200190f35b61028d611775565b6103ae61180b565b6105326118ba565b60408051602080825283518183015283519192839290830191858101910280838360005b8381101561056e578181015183820152602001610556565b505050509050019250505060405180910390f35b61058a61191b565b6040805163ffffffff94851681529290931660208301526001600160801b0319168183015290519081900360600190f35b61027361193b565b6103ae600480360360208110156105d957600080fd5b50356001600160a01b031661196d565b6104fe6119e7565b6105f96119f6565b604080516001600160a01b03909316835263ffffffff90911660208301528051918290030190f35b610629611a29565b604080516001600160501b039092168252519081900360200190f35b6104fe611bfc565b6106736004803603602081101561066357600080fd5b50356001600160501b0316611c0b565b60405180866001600160501b03168152602001858152602001848152602001838152602001826001600160501b031681526020019550505050505060405180910390f35b6103ae600480360360408110156106cd57600080fd5b810190602081018135600160201b8111156106e757600080fd5b8201836020820111156106f957600080fd5b803590602001918460208302840111600160201b8311171561071a57600080fd5b919390929091602081019035600160201b81111561073757600080fd5b82018360208201111561074957600080fd5b803590602001918460208302840111600160201b8311171561076a57600080fd5b509092509050611d2f565b6103ae6004803603602081101561078b57600080fd5b50356001600160a01b0316611f32565b6103ae600480360360208110156107b157600080fd5b50356001600160a01b0316611ff6565b610273600480360360208110156107d757600080fd5b50356120d7565b610273600480360360208110156107f457600080fd5b503561210d565b6103ae600480360360a081101561081157600080fd5b5063ffffffff81358116916020810135821691604082013581169160608101358216916080909101351661214c565b6103ae6004803603604081101561085657600080fd5b506001600160a01b03813516906020013561227b565b6103ae6004803603608081101561088257600080fd5b810190602081018135600160201b81111561089c57600080fd5b8201836020820111156108ae57600080fd5b803590602001918460018302840111600160201b831117156108cf57600080fd5b919390929091602081019035600160201b8111156108ec57600080fd5b8201836020820111156108fe57600080fd5b803590602001918460208302840111600160201b8311171561091f57600080fd5b919390929091602081019035600160201b81111561093c57600080fd5b82018360208201111561094e57600080fd5b803590602001918460208302840111600160201b8311171561096f57600080fd5b91935091503561253e565b61027361328c565b6109a86004803603602081101561099857600080fd5b50356001600160a01b031661331d565b6040805161ffff9092168252519081900360200190f35b6109c76133ca565b604080516001600160801b0319909616865263ffffffff909416602086015260ff9092168484015260170b60608401526001600160401b03166080830152519081900360a00190f35b6104fe61347a565b6103ae60048036036040811015610a2e57600080fd5b5080356001600160a01b0316906020013563ffffffff16613489565b6103ae60048036036040811015610a6057600080fd5b506001600160a01b03813581169160200135166135ba565b6103ae60048036036020811015610a8e57600080fd5b50356001600160a01b03166136fd565b6103ae60048036036020811015610ab457600080fd5b50356001600160a01b031661379b565b6106736137f1565b6001600160a01b03811660009081526028602090815260408083208151808301909252805460ff808216845285948401916101009004166002811115610b0e57fe5b6002811115610b1957fe5b9052509050600081602001516002811115610b3057fe5b1415610b40576000915050610bf6565b6040805160a08101825260025463ffffffff8082168352600160201b820481166020840152600160401b8204811693830193909352600160601b8104831660608301819052600160801b90910490921660808201528251909160009160019060059060ff16601f8110610baf57fe5b601091828204019190066002029054906101000a900461ffff160361ffff1602633b9aca0002905060016009846000015160ff16601f8110610bed57fe5b01540301925050505b919050565b60408051808201909152601881527f4f6666636861696e41676772656761746f7220332e302e300000000000000000602082015290565b7f000000000000000000000000000000000000000000000000000000000000000081565b6040805160a08101825260025463ffffffff808216808452600160201b8304821660208501819052600160401b84048316958501869052600160601b8404831660608601819052600160801b90940490921660809094018490529490939290565b7f000000000000000000000000000000000000000000000000000000000000000081565b6000546001600160a01b03163314610d28576040805162461bcd60e51b815260206004820152601660248201526000805160206147f1833981519152604482015290519081900360640190fd5b6003546001600160a01b03908116908316811415610d465750610f5f565b604080516370a0823160e01b815230600482015290516001600160a01b038516916370a08231916024808301926020929190829003018186803b158015610d8c57600080fd5b505afa158015610da0573d6000803e3d6000fd5b505050506040513d6020811015610db657600080fd5b50610dc1905061384c565b6000816001600160a01b03166370a08231306040518263ffffffff1660e01b815260040180826001600160a01b0316815260200191505060206040518083038186803b158015610e1057600080fd5b505afa158015610e24573d6000803e3d6000fd5b505050506040513d6020811015610e3a57600080fd5b50516040805163a9059cbb60e01b81526001600160a01b0386811660048301526024820184905291519293509084169163a9059cbb916044808201926020929091908290030181600087803b158015610e9257600080fd5b505af1158015610ea6573d6000803e3d6000fd5b505050506040513d6020811015610ebc57600080fd5b5051610f0f576040805162461bcd60e51b815260206004820152601f60248201527f7472616e736665722072656d61696e696e672066756e6473206661696c656400604482015290519081900360640190fd5b600380546001600160a01b0319166001600160a01b0386811691821790925560405190918416907f4966a50c93f855342ccf6c5c0d358b85b91335b2acedc7da0932f691f351711a90600090a350505b5050565b602b54600160b01b900463ffffffff166000908152602c6020526040902054601790810b900b90565b600481565b868560ff8616601f831115610fe0576040805162461bcd60e51b815260206004820152601060248201526f746f6f206d616e79207369676e65727360801b604482015290519081900360640190fd5b60008111611035576040805162461bcd60e51b815260206004820152601a60248201527f7468726573686f6c64206d75737420626520706f736974697665000000000000604482015290519081900360640190fd5b8183146110735760405162461bcd60e51b81526004018080602001828103825260248152602001806147cd6024913960400191505060405180910390fd5b8060030283116110ca576040805162461bcd60e51b815260206004820181905260248201527f6661756c74792d6f7261636c65207468726573686f6c6420746f6f2068696768604482015290519081900360640190fd5b6000546001600160a01b03163314611117576040805162461bcd60e51b815260206004820152601660248201526000805160206147f1833981519152604482015290519081900360640190fd5b6029541561121457602980546000198101916000918390811061113657fe5b6000918252602082200154602a80546001600160a01b039092169350908490811061115d57fe5b6000918252602090912001546001600160a01b0316905061117d81613bd5565b6001600160a01b03808316600090815260286020526040808220805461ffff19908116909155928416825290208054909116905560298054806111bc57fe5b600082815260209020810160001990810180546001600160a01b0319169055019055602a8054806111e957fe5b600082815260209020810160001990810180546001600160a01b031916905501905550611117915050565b60005b8a811015611570576000602860008e8e8581811061123157fe5b602090810292909201356001600160a01b031683525081019190915260400160002054610100900460ff16600281111561126757fe5b146112b9576040805162461bcd60e51b815260206004820152601760248201527f7265706561746564207369676e65722061646472657373000000000000000000604482015290519081900360640190fd5b6040805180820190915260ff8216815260016020820152602860008e8e858181106112e057fe5b602090810292909201356001600160a01b0316835250818101929092526040016000208251815460ff191660ff90911617808255918301519091829061ff00191661010083600281111561133057fe5b02179055506000915060079050818c8c8581811061134a57fe5b6001600160a01b03602091820293909301358316845283019390935260409091016000205416919091141590506113bc576040805162461bcd60e51b81526020600482015260116024820152701c185e5959481b5d5cdd081899481cd95d607a1b604482015290519081900360640190fd5b6000602860008c8c858181106113ce57fe5b602090810292909201356001600160a01b031683525081019190915260400160002054610100900460ff16600281111561140457fe5b14611456576040805162461bcd60e51b815260206004820152601c60248201527f7265706561746564207472616e736d6974746572206164647265737300000000604482015290519081900360640190fd5b6040805180820190915260ff8216815260026020820152602860008c8c8581811061147d57fe5b602090810292909201356001600160a01b0316835250818101929092526040016000208251815460ff191660ff90911617808255918301519091829061ff0019166101008360028111156114cd57fe5b021790555090505060298c8c838181106114e357fe5b835460018101855560009485526020948590200180546001600160a01b0319166001600160a01b039590920293909301359390931692909217905550602a8a8a8381811061152d57fe5b835460018181018655600095865260209586902090910180546001600160a01b0319166001600160a01b0396909302949094013594909416179091555001611217565b50602b805460ff8916600160a81b0260ff60a81b19909116179055602d80544363ffffffff908116600160201b90810267ffffffff0000000019841617808316600101831663ffffffff199091161793849055909104811691166115dc30828f8f8f8f8f8f8f8f613dbd565b602b60000160006101000a8154816001600160801b03021916908360801c02179055506000602b60000160106101000a81548164ffffffffff021916908364ffffffffff1602179055507f25d719d88a4512dd76c7442b910a83360845505894eb444ef299409e180f8fb982828f8f8f8f8f8f8f8f604051808b63ffffffff1681526020018a6001600160401b0316815260200180602001806020018760ff168152602001866001600160401b031681526020018060200184810384528c8c82818152602001925060200280828437600083820152601f01601f191690910185810384528a8152602090810191508b908b0280828437600083820152601f01601f191690910185810383528681526020019050868680828437600083820152604051601f909101601f19169092018290039f50909d5050505050505050505050505050a150505050505050505050505050565b602b54600160b01b900463ffffffff1690565b7f000000000000000000000000000000000000000000000000000000000000000081565b602f546001600160a01b031690565b60308054604080516020601f60026000196101006001881615020190951694909404938401819004810282018101909252828152606093909290918301828280156118015780601f106117d657610100808354040283529160200191611801565b820191906000526020600020905b8154815290600101906020018083116117e457829003601f168201915b5050505050905090565b6001546001600160a01b03163314611863576040805162461bcd60e51b815260206004820152601660248201527526bab9ba10313290383937b837b9b2b21037bbb732b960511b604482015290519081900360640190fd5b60008054336001600160a01b0319808316821784556001805490911690556040516001600160a01b0390921692909183917f8be0079c531659141344cd1fd0a4f28419497f9722a3daafe3b4186f6b6457e091a350565b6060602a80548060200260200160405190810160405280929190818152602001828054801561180157602002820191906000526020600020905b81546001600160a01b031681526001909101906020018083116118f4575050505050905090565b602d54602b5463ffffffff80831692600160201b9004169060801b909192565b602b54600160b01b900463ffffffff166000908152602c6020526040902054600160c01b90046001600160401b031690565b6001600160a01b038181166000908152600760205260409020541633146119db576040805162461bcd60e51b815260206004820152601760248201527f4f6e6c792070617965652063616e207769746864726177000000000000000000604482015290519081900360640190fd5b6119e481613bd5565b50565b6000546001600160a01b031681565b60408051808201909152602e546001600160a01b038116808352600160a01b90910463ffffffff16602090920182905291565b600080546001600160a01b0316331480611aec5750602f5460408051630d629b5f60e31b815233600482018181526024830193845236604484018190526001600160a01b0390951694636b14daf894929360009391929190606401848480828437600083820152604051601f909101601f1916909201965060209550909350505081840390508186803b158015611abf57600080fd5b505afa158015611ad3573d6000803e3d6000fd5b505050506040513d6020811015611ae957600080fd5b50515b611b3d576040805162461bcd60e51b815260206004820152601d60248201527f4f6e6c79206f776e6572267265717565737465722063616e2063616c6c000000604482015290519081900360640190fd5b6040805160808082018352602b549081901b6001600160801b031916808352600160801b820464ffffffffff8116602080860191909152600160a81b840460ff90811686880152600160b01b90940463ffffffff9081166060808801919091528751948552600884901c909116918401919091529216818501529251919233927f3ea16a923ff4b1df6526e854c9e3a995c43385d70e73359e10623c74f0b52037929181900390910190a2806060015160010163ffffffff1691505090565b6004546001600160a01b031690565b600080600080600063ffffffff866001600160501b031611156040518060400160405280600f81526020016e139bc819185d18481c1c995cd95b9d608a1b81525090611cd55760405162461bcd60e51b81526004018080602001828103825283818151815260200191508051906020019080838360005b83811015611c9a578181015183820152602001611c82565b50505050905090810190601f168015611cc75780820380516001836020036101000a031916815260200191505b509250505060405180910390fd5b5050505063ffffffff83166000908152602c6020908152604091829020825180840190935254601781810b810b810b808552600160c01b9092046001600160401b031693909201839052949594900b939092508291508490565b6000546001600160a01b03163314611d7c576040805162461bcd60e51b815260206004820152601660248201526000805160206147f1833981519152604482015290519081900360640190fd5b828114611dd0576040805162461bcd60e51b815260206004820181905260248201527f7472616e736d6974746572732e73697a6520213d207061796565732e73697a65604482015290519081900360640190fd5b60005b83811015611f2b576000858583818110611de957fe5b905060200201356001600160a01b031690506000848484818110611e0957fe5b6001600160a01b038581166000908152600760209081526040909120549202939093013583169350909116905080158080611e555750826001600160a01b0316826001600160a01b0316145b611e9a576040805162461bcd60e51b81526020600482015260116024820152701c185e595948185b1c9958591e481cd95d607a1b604482015290519081900360640190fd5b6001600160a01b03848116600090815260076020526040902080546001600160a01b03191685831690811790915590831614611f1b57826001600160a01b0316826001600160a01b0316856001600160a01b03167f78af32efdcad432315431e9b03d27e6cd98fb79c405fdc5af7c1714d9c0f75b360405160405180910390a45b505060019092019150611dd39050565b5050505050565b6000546001600160a01b03163314611f7f576040805162461bcd60e51b815260206004820152601660248201526000805160206147f1833981519152604482015290519081900360640190fd5b602f546001600160a01b039081169082168114610f5f57602f80546001600160a01b0319166001600160a01b03848116918217909255604080519284168352602083019190915280517f27b89aede8b560578baaa25ee5ce3852c5eecad1e114b941bbd89e1eb4bae6349281900390910190a15050565b6001600160a01b03818116600090815260086020526040902054163314612064576040805162461bcd60e51b815260206004820152601f60248201527f6f6e6c792070726f706f736564207061796565732063616e2061636365707400604482015290519081900360640190fd5b6001600160a01b0381811660008181526007602090815260408083208054336001600160a01b031980831682179093556008909452828520805490921690915590519416939092849290917f78af32efdcad432315431e9b03d27e6cd98fb79c405fdc5af7c1714d9c0f75b39190a45050565b600063ffffffff8211156120ed57506000610bf6565b5063ffffffff166000908152602c6020526040902054601790810b900b90565b600063ffffffff82111561212357506000610bf6565b5063ffffffff166000908152602c6020526040902054600160c01b90046001600160401b031690565b6004546000546001600160a01b03918216911633148061220d575060408051630d629b5f60e31b815233600482018181526024830193845236604484018190526001600160a01b03861694636b14daf8946000939190606401848480828437600083820152604051601f909101601f1916909201965060209550909350505081840390508186803b1580156121e057600080fd5b505afa1580156121f4573d6000803e3d6000fd5b505050506040513d602081101561220a57600080fd5b50515b61225e576040805162461bcd60e51b815260206004820181905260248201527f4f6e6c79206f776e65722662696c6c696e6741646d696e2063616e2063616c6c604482015290519081900360640190fd5b61226661384c565b6122738686868686613ebf565b505050505050565b6000546001600160a01b031633148061233c57506004805460408051630d629b5f60e31b8152339381018481526024820192835236604483018190526001600160a01b0390941694636b14daf8949093600093919291606401848480828437600083820152604051601f909101601f1916909201965060209550909350505081840390508186803b15801561230f57600080fd5b505afa158015612323573d6000803e3d6000fd5b505050506040513d602081101561233957600080fd5b50515b61238d576040805162461bcd60e51b815260206004820181905260248201527f4f6e6c79206f776e65722662696c6c696e6741646d696e2063616e2063616c6c604482015290519081900360640190fd5b6000612397613fa8565b600354604080516370a0823160e01b815230600482015290519293506000926001600160a01b03909216916370a0823191602480820192602092909190829003018186803b1580156123e857600080fd5b505afa1580156123fc573d6000803e3d6000fd5b505050506040513d602081101561241257600080fd5b5051905081811015612462576040805162461bcd60e51b8152602060048201526014602482015273696e73756666696369656e742062616c616e636560601b604482015290519081900360640190fd5b6003546001600160a01b031663a9059cbb856124808585038761415c565b6040518363ffffffff1660e01b815260040180836001600160a01b0316815260200182815260200192505050602060405180830381600087803b1580156124c657600080fd5b505af11580156124da573d6000803e3d6000fd5b505050506040513d60208110156124f057600080fd5b5051612538576040805162461bcd60e51b8152602060048201526012602482015271696e73756666696369656e742066756e647360701b604482015290519081900360640190fd5b50505050565b60005a9050612551888888888888614176565b36146125a4576040805162461bcd60e51b815260206004820152601960248201527f7472616e736d6974206d65737361676520746f6f206c6f6e6700000000000000604482015290519081900360640190fd5b6125ac614662565b6040805160808082018352602b549081901b6001600160801b0319168252600160801b810464ffffffffff166020830152600160a81b810460ff1692820192909252600160b01b90910463ffffffff166060808301919091529082526000908a908a9081101561261b57600080fd5b813591602081013591810190606081016040820135600160201b81111561264157600080fd5b82018360208201111561265357600080fd5b803590602001918460208302840111600160201b8311171561267457600080fd5b91908080602002602001604051908101604052809392919081815260200183836020028082843760009201919091525050505060408801525050506080840182905283515190925060589190911b906001600160801b031980831691161461271b576040805162461bcd60e51b81526020600482015260156024820152740c6dedcccd2ce88d2cecae6e840dad2e6dac2e8c6d605b1b604482015290519081900360640190fd5b608083015183516020015164ffffffffff808316911610612772576040805162461bcd60e51b815260206004820152600c60248201526b1cdd185b19481c995c1bdc9d60a21b604482015290519081900360640190fd5b83516040015160ff1689116127c6576040805162461bcd60e51b81526020600482015260156024820152746e6f7420656e6f756768207369676e61747572657360581b604482015290519081900360640190fd5b601f891115612812576040805162461bcd60e51b8152602060048201526013602482015272746f6f206d616e79207369676e61747572657360681b604482015290519081900360640190fd5b868914612866576040805162461bcd60e51b815260206004820152601e60248201527f7369676e617475726573206f7574206f6620726567697374726174696f6e0000604482015290519081900360640190fd5b601f84604001515111156128c1576040805162461bcd60e51b815260206004820152601e60248201527f6e756d206f62736572766174696f6e73206f7574206f6620626f756e64730000604482015290519081900360640190fd5b83600001516040015160020260ff1684604001515111612928576040805162461bcd60e51b815260206004820152601e60248201527f746f6f206665772076616c75657320746f207472757374206d656469616e0000604482015290519081900360640190fd5b886001600160401b038111801561293e57600080fd5b506040519080825280601f01601f191660200182016040528015612969576020820181803683370190505b50606085015260005b60ff81168a11156129c257868160ff166020811061298c57fe5b1a60f81b85606001518260ff16815181106129a357fe5b60200101906001600160f81b031916908160001a905350600101612972565b508360400151516001600160401b03811180156129de57600080fd5b506040519080825280601f01601f191660200182016040528015612a09576020820181803683370190505b506020850152612a17614696565b60005b8560400151518160ff161015612b05576000858260ff1660208110612a3b57fe5b1a90508281601f8110612a4a57fe5b602002015115612aa1576040805162461bcd60e51b815260206004820152601760248201527f6f6273657276657220696e646578207265706561746564000000000000000000604482015290519081900360640190fd5b6001838260ff16601f8110612ab257fe5b91151560209283029190910152869060ff8416908110612ace57fe5b1a60f81b87602001518360ff1681518110612ae557fe5b60200101906001600160f81b031916908160001a90535050600101612a1a565b503360009081526028602090815260408083208151808301909252805460ff80821684529293919291840191610100909104166002811115612b4357fe5b6002811115612b4e57fe5b9052509050600281602001516002811115612b6557fe5b148015612b995750602a816000015160ff1681548110612b8157fe5b6000918252602090912001546001600160a01b031633145b612bea576040805162461bcd60e51b815260206004820152601860248201527f756e617574686f72697a6564207472616e736d69747465720000000000000000604482015290519081900360640190fd5b5050835164ffffffffff90911660209091015250506040516000908a908a908083838082843760405192018290039091209450612c2b935061469692505050565b612c336146b5565b60005b89811015612e2357600060018587606001518481518110612c5357fe5b60209101015160f81c601b018e8e86818110612c6b57fe5b905060200201358d8d87818110612c7e57fe5b9050602002013560405160008152602001604052604051808581526020018460ff1681526020018381526020018281526020019450505050506020604051602081039080840390855afa158015612cd9573d6000803e3d6000fd5b505060408051601f198101516001600160a01b03811660009081526028602090815290849020838501909452835460ff80821685529296509294508401916101009004166002811115612d2857fe5b6002811115612d3357fe5b9052509250600183602001516002811115612d4a57fe5b14612d9c576040805162461bcd60e51b815260206004820152601e60248201527f61646472657373206e6f7420617574686f72697a656420746f207369676e0000604482015290519081900360640190fd5b8251849060ff16601f8110612dad57fe5b602002015115612dfb576040805162461bcd60e51b81526020600482015260146024820152736e6f6e2d756e69717565207369676e617475726560601b604482015290519081900360640190fd5b600184846000015160ff16601f8110612e1057fe5b9115156020909202015250600101612c36565b5050505060005b600182604001515103811015612ed457600082604001518260010181518110612e4f57fe5b602002602001015160170b83604001518381518110612e6a57fe5b602002602001015160170b1315905080612ecb576040805162461bcd60e51b815260206004820152601760248201527f6f62736572766174696f6e73206e6f7420736f72746564000000000000000000604482015290519081900360640190fd5b50600101612e2a565b50604081015180516000919060028104908110612eed57fe5b602002602001015190508060170b7f000000000000000000000000000000000000000000000000000000000000000060170b13158015612f5357507f000000000000000000000000000000000000000000000000000000000000000060170b8160170b13155b612fa4576040805162461bcd60e51b815260206004820152601e60248201527f6d656469616e206973206f7574206f66206d696e2d6d61782072616e67650000604482015290519081900360640190fd5b81516060908101805163ffffffff60019091018116909152604080518082018252601785810b8083526001600160401b0342811660208086019182528a5189015188166000908152602c8252878120965187549351909416600160c01b029390950b6001600160c01b039081166001600160c01b03199093169290921790911691909117909355875186015184890151848a01516080808c015188519586523386890181905291860181905260a0988601898152845199870199909952835194909916997ff6a97944f31ea060dfde0566e4167c1a1082551e64b60ecb14d599a9d023d451998c999298949793969095909492939185019260c086019289820192909102908190849084905b838110156130c85781810151838201526020016130b0565b50505050905001838103825285818151815260200191508051906020019080838360005b838110156131045781810151838201526020016130ec565b50505050905090810190601f1680156131315780820380516001836020036101000a031916815260200191505b5097505050505050505060405180910390a281516060015160408051428152905160009263ffffffff16917f0109fc6f55cf40689f02fbaad7af7fe7bbac8a3d2186600afc7d3e10cac60271919081900360200190a381600001516060015163ffffffff168160170b7f0559884fd3a460db3073b7fc896cc77986f16e378210ded43186175bf646fc5f426040518082815260200191505060405180910390a36131e68260000151606001518260170b61418e565b5080518051602b8054602084015160408501516060909501516001600160801b031990921660809490941c9390931764ffffffffff60801b1916600160801b64ffffffffff909416939093029290921760ff60a81b1916600160a81b60ff909416939093029290921763ffffffff60b01b1916600160b01b63ffffffff9283160217909155821061327357fe5b613281828260200151614286565b505050505050505050565b600354604080516370a0823160e01b8152306004820152905160009283926001600160a01b03909116916370a0823191602480820192602092909190829003018186803b1580156132dc57600080fd5b505afa1580156132f0573d6000803e3d6000fd5b505050506040513d602081101561330657600080fd5b505190506000613314613fa8565b90910391505090565b6001600160a01b03811660009081526028602090815260408083208151808301909252805460ff80821684528594840191610100900416600281111561335f57fe5b600281111561336a57fe5b905250905060008160200151600281111561338157fe5b1415613391576000915050610bf6565b60016005826000015160ff16601f81106133a757fe5b601091828204019190066002029054906101000a900461ffff1603915050919050565b60008080808033321461341b576040805162461bcd60e51b81526020600482015260146024820152734f6e6c792063616c6c61626c6520627920454f4160601b604482015290519081900360640190fd5b5050602b5463ffffffff600160b01b820481166000908152602c6020526040902054608083901b96600160801b909304600881901c909216955064ffffffffff9091169350601781900b9250600160c01b90046001600160401b031690565b6003546001600160a01b031690565b6000546001600160a01b031633146134d6576040805162461bcd60e51b815260206004820152601660248201526000805160206147f1833981519152604482015290519081900360640190fd5b60408051808201909152602e546001600160a01b03808216808452600160a01b90920463ffffffff166020840152841614158061352357508163ffffffff16816020015163ffffffff1614155b156135b5576040805180820182526001600160a01b0385811680835263ffffffff8681166020948501819052602e80546001600160a01b031916841763ffffffff60a01b1916600160a01b8302179055865187860151875193168352948201528451919493909216927fb04e3a37abe9c0fcdfebdeae019a8e2b12ddf53f5d55ffb0caccc1bedaca1541928290030190a35b505050565b6001600160a01b03828116600090815260076020526040902054163314613628576040805162461bcd60e51b815260206004820152601d60248201527f6f6e6c792063757272656e742070617965652063616e20757064617465000000604482015290519081900360640190fd5b336001600160a01b0382161415613686576040805162461bcd60e51b815260206004820152601760248201527f63616e6e6f74207472616e7366657220746f2073656c66000000000000000000604482015290519081900360640190fd5b6001600160a01b03808316600090815260086020526040902080548383166001600160a01b0319821681179092559091169081146135b5576040516001600160a01b038084169133918616907f84f7c7c80bb8ed2279b4aab5f61cd05e6374073d38f46d7f32de8c30e9e3836790600090a4505050565b6000546001600160a01b0316331461374a576040805162461bcd60e51b815260206004820152601660248201526000805160206147f1833981519152604482015290519081900360640190fd5b600180546001600160a01b0319166001600160a01b0383811691821790925560008054604051929316917fed8889f560326eb138920d842192f0eb3dd22b4f139c87a2c57538e05bae12789190a350565b6000546001600160a01b031633146137e8576040805162461bcd60e51b815260206004820152601660248201526000805160206147f1833981519152604482015290519081900360640190fd5b6119e4816144ae565b602b54600160b01b900463ffffffff166000818152602c6020908152604091829020825180840190935254601781810b810b810b808552600160c01b9092046001600160401b031693909201839052929392900b9181908490565b6040805160a08101825260025463ffffffff8082168352600160201b820481166020840152600160401b8204811683850152600160601b820481166060840152600160801b90910416608082015260035482516103e081019384905291926001600160a01b0390911691600091600590601f908285855b82829054906101000a900461ffff1661ffff16815260200190600201906020826001010492830192600103820291508084116138c3575050604080516103e0810191829052959650600095945060099350601f9250905082845b81548152602001906001019080831161391d57505050505090506000602a80548060200260200160405190810160405280929190818152602001828054801561398f57602002820191906000526020600020905b81546001600160a01b03168152600190910190602001808311613971575b5050505050905060005b8151811015613bb957600060018483601f81106139b257fe5b6020020151039050600060018684601f81106139ca57fe5b60200201510361ffff169050600082896060015163ffffffff168302633b9aca00020190506000811115613bae57600060076000878781518110613a0a57fe5b60200260200101516001600160a01b03166001600160a01b0316815260200190815260200160002060009054906101000a90046001600160a01b03169050886001600160a01b031663a9059cbb82846040518363ffffffff1660e01b815260040180836001600160a01b0316815260200182815260200192505050602060405180830381600087803b158015613a9f57600080fd5b505af1158015613ab3573d6000803e3d6000fd5b505050506040513d6020811015613ac957600080fd5b5051613b11576040805162461bcd60e51b8152602060048201526012602482015271696e73756666696369656e742066756e647360701b604482015290519081900360640190fd5b60018886601f8110613b1f57fe5b61ffff909216602092909202015260018786601f8110613b3b57fe5b602002018181525050886001600160a01b0316816001600160a01b0316878781518110613b6457fe5b60200260200101516001600160a01b03167fd0b1dac935d85bd54cf0a33b0d41d39f8cf53a968465fc7ea2377526b8ac712c856040518082815260200191505060405180910390a4505b505050600101613999565b50613bc7600584601f6146cc565b50612273600983601f614762565b6001600160a01b03811660009081526028602090815260408083208151808301909252805460ff80821684529293919291840191610100909104166002811115613c1b57fe5b6002811115613c2657fe5b90525090506000613c3683610acc565b905080156135b5576001600160a01b03808416600090815260076020908152604080832054600354825163a9059cbb60e01b8152918616600483018190526024830188905292519295169363a9059cbb9360448084019491939192918390030190829087803b158015613ca857600080fd5b505af1158015613cbc573d6000803e3d6000fd5b505050506040513d6020811015613cd257600080fd5b5051613d1a576040805162461bcd60e51b8152602060048201526012602482015271696e73756666696369656e742066756e647360701b604482015290519081900360640190fd5b60016005846000015160ff16601f8110613d3057fe5b601091828204019190066002026101000a81548161ffff021916908361ffff16021790555060016009846000015160ff16601f8110613d6b57fe5b01556003546040805184815290516001600160a01b039283169284811692908816917fd0b1dac935d85bd54cf0a33b0d41d39f8cf53a968465fc7ea2377526b8ac712c9181900360200190a450505050565b60008a8a8a8a8a8a8a8a8a8a604051602001808b6001600160a01b031681526020018a6001600160401b0316815260200180602001806020018760ff168152602001866001600160401b031681526020018060200184810384528c8c82818152602001925060200280828437600083820152601f01601f191690910185810384528a8152602090810191508b908b0280828437600083820152601f01601f191690910185810383528681526020019050868680828437600081840152601f19601f8201169050808301925050509d50505050505050505050505050506040516020818303038152906040528051906020012090509a9950505050505050505050565b6040805160a0808201835263ffffffff88811680845288821660208086018290528984168688018190528985166060808901829052958a1660809889018190526002805463ffffffff1916871767ffffffff000000001916600160201b8702176bffffffff00000000000000001916600160401b85021763ffffffff60601b1916600160601b84021763ffffffff60801b1916600160801b830217905589519586529285019390935283880152928201529283015291517fd0d9486a2c673e2a4b57fc82e4c8a556b3e2b82dd5db07e2c04a920ca0f469b6929181900390910190a15050505050565b604080516103e0810191829052600091829190600590601f908285855b82829054906101000a900461ffff1661ffff1681526020019060020190602082600101049283019260010382029150808411613fc55790505050505050905060005b601f8110156140355760018282601f811061401e57fe5b60200201510361ffff169290920191600101614007565b506040805160a08101825260025463ffffffff8082168352600160201b82048116602080850191909152600160401b8304821684860152600160601b8304821660608501819052600160801b9093049091166080840152602a805485518184028101840190965280865296909202633b9aca00029592936000939092918301828280156140eb57602002820191906000526020600020905b81546001600160a01b031681526001909101906020018083116140cd575b5050604080516103e0810191829052949550600094935060099250601f915082845b81548152602001906001019080831161410d575050505050905060005b82518110156141545760018282601f811061414157fe5b602002015103959095019460010161412a565b505050505090565b60008183101561416d575081614170565b50805b92915050565b602083810286019082020160e4019695505050505050565b60408051808201909152602e546001600160a01b038116808352600160a01b90910463ffffffff1660208301526141c55750610f5f565b600019830163ffffffff8181166000818152602c6020908152604080832054875188840151835163beed9b5160e01b81526004810197909752601792830b90920b602487018190528b88166044880152606487018b9052925192966001600160a01b039091169563beed9b51959290911693608480830194919391928390030190829088803b15801561425757600080fd5b5087f19350505050801561427d57506040513d602081101561427857600080fd5b505160015b61227357611f2b565b3360009081526028602090815260408083208151808301909252805460ff808216845292939192918401916101009091041660028111156142c357fe5b60028111156142ce57fe5b9052506040805160a08101825260025463ffffffff8082168352600160201b820481166020840152600160401b8204811683850152600160601b820481166060840152600160801b90910416608082015281516103e08101928390529293509161438291859190600590601f90826000855b82829054906101000a900461ffff1661ffff16815260200190600201906020826001010492830192600103820291508084116143405790505050505050614525565b61439090600590601f6146cc565b506002826020015160028111156143a357fe5b146143f5576040805162461bcd60e51b815260206004820181905260248201527f73656e7420627920756e64657369676e61746564207472616e736d6974746572604482015290519081900360640190fd5b600061441c633b9aca003a04836020015163ffffffff16846000015163ffffffff1661459a565b90506010360260005a9050600061443b8863ffffffff168585856145c0565b6001600160801b031690506000620f4240866040015163ffffffff1683028161446057fe5b049050856080015163ffffffff16633b9aca0002816009896000015160ff16601f811061448957fe5b015401016009886000015160ff16601f81106144a157fe5b0155505050505050505050565b6004546001600160a01b039081169082168114610f5f57600480546001600160a01b0319166001600160a01b03848116918217909255604080519284168352602083019190915280517f793cb73064f3c8cde7e187ae515511e6e56d1ee89bf08b82fa60fb70f8d489129281900390910190a15050565b61452d614696565b60005b835181101561459257600084828151811061454757fe5b016020015160f81c905061456c8482601f811061456057fe5b60200201516001614643565b848260ff16601f811061457b57fe5b61ffff909216602092909202015250600101614530565b509092915050565b600083838110156145ad57600285850304015b6145b7818461415c565b95945050505050565b600081851015614617576040805162461bcd60e51b815260206004820181905260248201527f6761734c6566742063616e6e6f742065786365656420696e697469616c476173604482015290519081900360640190fd5b818503830161179301633b9aca00858202026001600160801b03811061463957fe5b9695505050505050565b600061465b8261ffff168461ffff160161ffff61415c565b9392505050565b6040518060a00160405280614675614790565b81526060602082018190526040820181905280820152600060809091015290565b604051806103e00160405280601f906020820280368337509192915050565b604080518082019091526000808252602082015290565b6002830191839082156147525791602002820160005b8382111561472257835183826101000a81548161ffff021916908361ffff16021790555092602001926002016020816001010492830192600103026146e2565b80156147505782816101000a81549061ffff0219169055600201602081600101049283019260010302614722565b505b5061475e9291506147b7565b5090565b82601f8101928215614752579160200282015b82811115614752578251825591602001919060010190614775565b60408051608081018252600080825260208201819052918101829052606081019190915290565b5b8082111561475e57600081556001016147b856fe6f7261636c6520616464726573736573206f7574206f6620726567697374726174696f6e4f6e6c792063616c6c61626c65206279206f776e657200000000000000000000a26469706673582212200d299dbaf84e0de42847dc382ddacd653c9136137940f8281aac2aa079b6dbd864736f6c63430007060033","linkReferences":{}},"methodIdentifiers":{"acceptOwnership()":"79ba5097","acceptPayeeship(address)":"b121e147","billingAccessController()":"996e8298","decimals()":"313ce567","description()":"7284e416","getAnswer(uint256)":"b5ab58dc","getBilling()":"29937268","getLinkToken()":"e76d5168","getRoundData(uint80)":"9a6fc8f5","getTimestamp(uint256)":"b633620c","latestAnswer()":"50d25bcd","latestConfigDetails()":"81ff7048","latestRound()":"668a0f02","latestRoundData()":"feaf968c","latestTimestamp()":"8205bf6a","latestTransmissionDetails()":"e5fe4577","linkAvailableForPayment()":"d09dc339","maxAnswer()":"70da2f67","minAnswer()":"22adbc78","oracleObservationCount(address)":"e4902f82","owedPayment(address)":"0eafb25b","owner()":"8da5cb5b","requestNewRound()":"98e5b12a","requesterAccessController()":"70efdf2d","setBilling(uint32,uint32,uint32,uint32,uint32)":"bd824706","setBillingAccessController(address)":"fbffd2c1","setConfig(address[],address[],uint8,uint64,bytes)":"585aa7de","setLinkToken(address,address)":"4fb17470","setPayees(address[],address[])":"9c849b30","setRequesterAccessController(address)":"9e3ceeab","setValidatorConfig(address,uint32)":"eb457163","transferOwnership(address)":"f2fde38b","transferPayeeship(address,address)":"eb5dcd6c","transmit(bytes,bytes32[],bytes32[],bytes32)":"c9807539","transmitters()":"81411834","typeAndVersion()":"181f5a77","validatorConfig()":"8e0566de","version()":"54fd4d50","withdrawFunds(address,uint256)":"c1075329","withdrawPayment(address)":"8ac28d5a"},"id":1}