{"abi":[{"type":"constructor","inputs":[{"name":"paymentModel","type":"uint8","internalType":"enum KeeperRegistryBase1_3.PaymentModel"},{"name":"registryGasOverhead","type":"uint256","internalType":"uint256"},{"name":"link","type":"address","internalType":"address"},{"name":"linkEthFeed","type":"address","internalType":"address"},{"name":"fastGasFeed","type":"address","internalType":"address"}],"stateMutability":"nonpayable"},{"type":"function","name":"ARB_NITRO_ORACLE","inputs":[],"outputs":[{"name":"","type":"address","internalType":"contract ArbGasInfo"}],"stateMutability":"view"},{"type":"function","name":"FAST_GAS_FEED","inputs":[],"outputs":[{"name":"","type":"address","internalType":"contract AggregatorV3Interface"}],"stateMutability":"view"},{"type":"function","name":"LINK","inputs":[],"outputs":[{"name":"","type":"address","internalType":"contract LinkTokenInterface"}],"stateMutability":"view"},{"type":"function","name":"LINK_ETH_FEED","inputs":[],"outputs":[{"name":"","type":"address","internalType":"contract AggregatorV3Interface"}],"stateMutability":"view"},{"type":"function","name":"OPTIMISM_ORACLE","inputs":[],"outputs":[{"name":"","type":"address","internalType":"contract OVM_GasPriceOracle"}],"stateMutability":"view"},{"type":"function","name":"PAYMENT_MODEL","inputs":[],"outputs":[{"name":"","type":"uint8","internalType":"enum KeeperRegistryBase1_3.PaymentModel"}],"stateMutability":"view"},{"type":"function","name":"REGISTRY_GAS_OVERHEAD","inputs":[],"outputs":[{"name":"","type":"uint256","internalType":"uint256"}],"stateMutability":"view"},{"type":"function","name":"acceptOwnership","inputs":[],"outputs":[],"stateMutability":"nonpayable"},{"type":"function","name":"acceptPayeeship","inputs":[{"name":"keeper","type":"address","internalType":"address"}],"outputs":[],"stateMutability":"nonpayable"},{"type":"function","name":"acceptUpkeepAdmin","inputs":[{"name":"id","type":"uint256","internalType":"uint256"}],"outputs":[],"stateMutability":"nonpayable"},{"type":"function","name":"addFunds","inputs":[{"name":"id","type":"uint256","internalType":"uint256"},{"name":"amount","type":"uint96","internalType":"uint96"}],"outputs":[],"stateMutability":"nonpayable"},{"type":"function","name":"cancelUpkeep","inputs":[{"name":"id","type":"uint256","internalType":"uint256"}],"outputs":[],"stateMutability":"nonpayable"},{"type":"function","name":"checkUpkeep","inputs":[{"name":"id","type":"uint256","internalType":"uint256"},{"name":"from","type":"address","internalType":"address"}],"outputs":[{"name":"performData","type":"bytes","internalType":"bytes"},{"name":"maxLinkPayment","type":"uint256","internalType":"uint256"},{"name":"gasLimit","type":"uint256","internalType":"uint256"},{"name":"adjustedGasWei","type":"uint256","internalType":"uint256"},{"name":"linkEth","type":"uint256","internalType":"uint256"}],"stateMutability":"nonpayable"},{"type":"function","name":"migrateUpkeeps","inputs":[{"name":"ids","type":"uint256[]","internalType":"uint256[]"},{"name":"destination","type":"address","internalType":"address"}],"outputs":[],"stateMutability":"nonpayable"},{"type":"function","name":"owner","inputs":[],"outputs":[{"name":"","type":"address","internalType":"address"}],"stateMutability":"view"},{"type":"function","name":"pause","inputs":[],"outputs":[],"stateMutability":"nonpayable"},{"type":"function","name":"paused","inputs":[],"outputs":[{"name":"","type":"bool","internalType":"bool"}],"stateMutability":"view"},{"type":"function","name":"receiveUpkeeps","inputs":[{"name":"encodedUpkeeps","type":"bytes","internalType":"bytes"}],"outputs":[],"stateMutability":"nonpayable"},{"type":"function","name":"recoverFunds","inputs":[],"outputs":[],"stateMutability":"nonpayable"},{"type":"function","name":"registerUpkeep","inputs":[{"name":"target","type":"address","internalType":"address"},{"name":"gasLimit","type":"uint32","internalType":"uint32"},{"name":"admin","type":"address","internalType":"address"},{"name":"checkData","type":"bytes","internalType":"bytes"}],"outputs":[{"name":"id","type":"uint256","internalType":"uint256"}],"stateMutability":"nonpayable"},{"type":"function","name":"setKeepers","inputs":[{"name":"keepers","type":"address[]","internalType":"address[]"},{"name":"payees","type":"address[]","internalType":"address[]"}],"outputs":[],"stateMutability":"nonpayable"},{"type":"function","name":"setPeerRegistryMigrationPermission","inputs":[{"name":"peer","type":"address","internalType":"address"},{"name":"permission","type":"uint8","internalType":"enum KeeperRegistryBase1_3.MigrationPermission"}],"outputs":[],"stateMutability":"nonpayable"},{"type":"function","name":"setUpkeepGasLimit","inputs":[{"name":"id","type":"uint256","internalType":"uint256"},{"name":"gasLimit","type":"uint32","internalType":"uint32"}],"outputs":[],"stateMutability":"nonpayable"},{"type":"function","name":"transferOwnership","inputs":[{"name":"to","type":"address","internalType":"address"}],"outputs":[],"stateMutability":"nonpayable"},{"type":"function","name":"transferPayeeship","inputs":[{"name":"keeper","type":"address","internalType":"address"},{"name":"proposed","type":"address","internalType":"address"}],"outputs":[],"stateMutability":"nonpayable"},{"type":"function","name":"transferUpkeepAdmin","inputs":[{"name":"id","type":"uint256","internalType":"uint256"},{"name":"proposed","type":"address","internalType":"address"}],"outputs":[],"stateMutability":"nonpayable"},{"type":"function","name":"unpause","inputs":[],"outputs":[],"stateMutability":"nonpayable"},{"type":"function","name":"withdrawFunds","inputs":[{"name":"id","type":"uint256","internalType":"uint256"},{"name":"to","type":"address","internalType":"address"}],"outputs":[],"stateMutability":"nonpayable"},{"type":"function","name":"withdrawOwnerFunds","inputs":[],"outputs":[],"stateMutability":"nonpayable"},{"type":"function","name":"withdrawPayment","inputs":[{"name":"from","type":"address","internalType":"address"},{"name":"to","type":"address","internalType":"address"}],"outputs":[],"stateMutability":"nonpayable"},{"type":"event","name":"ConfigSet","inputs":[{"name":"config","type":"tuple","indexed":false,"internalType":"struct Config","components":[{"name":"paymentPremiumPPB","type":"uint32","internalType":"uint32"},{"name":"flatFeeMicroLink","type":"uint32","internalType":"uint32"},{"name":"blockCountPerTurn","type":"uint24","internalType":"uint24"},{"name":"checkGasLimit","type":"uint32","internalType":"uint32"},{"name":"stalenessSeconds","type":"uint24","internalType":"uint24"},{"name":"gasCeilingMultiplier","type":"uint16","internalType":"uint16"},{"name":"minUpkeepSpend","type":"uint96","internalType":"uint96"},{"name":"maxPerformGas","type":"uint32","internalType":"uint32"},{"name":"fallbackGasPrice","type":"uint256","internalType":"uint256"},{"name":"fallbackLinkPrice","type":"uint256","internalType":"uint256"},{"name":"transcoder","type":"address","internalType":"address"},{"name":"registrar","type":"address","internalType":"address"}]}],"anonymous":false},{"type":"event","name":"FundsAdded","inputs":[{"name":"id","type":"uint256","indexed":true,"internalType":"uint256"},{"name":"from","type":"address","indexed":true,"internalType":"address"},{"name":"amount","type":"uint96","indexed":false,"internalType":"uint96"}],"anonymous":false},{"type":"event","name":"FundsWithdrawn","inputs":[{"name":"id","type":"uint256","indexed":true,"internalType":"uint256"},{"name":"amount","type":"uint256","indexed":false,"internalType":"uint256"},{"name":"to","type":"address","indexed":false,"internalType":"address"}],"anonymous":false},{"type":"event","name":"KeepersUpdated","inputs":[{"name":"keepers","type":"address[]","indexed":false,"internalType":"address[]"},{"name":"payees","type":"address[]","indexed":false,"internalType":"address[]"}],"anonymous":false},{"type":"event","name":"OwnerFundsWithdrawn","inputs":[{"name":"amount","type":"uint96","indexed":false,"internalType":"uint96"}],"anonymous":false},{"type":"event","name":"OwnershipTransferRequested","inputs":[{"name":"from","type":"address","indexed":true,"internalType":"address"},{"name":"to","type":"address","indexed":true,"internalType":"address"}],"anonymous":false},{"type":"event","name":"OwnershipTransferred","inputs":[{"name":"from","type":"address","indexed":true,"internalType":"address"},{"name":"to","type":"address","indexed":true,"internalType":"address"}],"anonymous":false},{"type":"event","name":"Paused","inputs":[{"name":"account","type":"address","indexed":false,"internalType":"address"}],"anonymous":false},{"type":"event","name":"PayeeshipTransferRequested","inputs":[{"name":"keeper","type":"address","indexed":true,"internalType":"address"},{"name":"from","type":"address","indexed":true,"internalType":"address"},{"name":"to","type":"address","indexed":true,"internalType":"address"}],"anonymous":false},{"type":"event","name":"PayeeshipTransferred","inputs":[{"name":"keeper","type":"address","indexed":true,"internalType":"address"},{"name":"from","type":"address","indexed":true,"internalType":"address"},{"name":"to","type":"address","indexed":true,"internalType":"address"}],"anonymous":false},{"type":"event","name":"PaymentWithdrawn","inputs":[{"name":"keeper","type":"address","indexed":true,"internalType":"address"},{"name":"amount","type":"uint256","indexed":true,"internalType":"uint256"},{"name":"to","type":"address","indexed":true,"internalType":"address"},{"name":"payee","type":"address","indexed":false,"internalType":"address"}],"anonymous":false},{"type":"event","name":"Unpaused","inputs":[{"name":"account","type":"address","indexed":false,"internalType":"address"}],"anonymous":false},{"type":"event","name":"UpkeepAdminTransferRequested","inputs":[{"name":"id","type":"uint256","indexed":true,"internalType":"uint256"},{"name":"from","type":"address","indexed":true,"internalType":"address"},{"name":"to","type":"address","indexed":true,"internalType":"address"}],"anonymous":false},{"type":"event","name":"UpkeepAdminTransferred","inputs":[{"name":"id","type":"uint256","indexed":true,"internalType":"uint256"},{"name":"from","type":"address","indexed":true,"internalType":"address"},{"name":"to","type":"address","indexed":true,"internalType":"address"}],"anonymous":false},{"type":"event","name":"UpkeepCanceled","inputs":[{"name":"id","type":"uint256","indexed":true,"internalType":"uint256"},{"name":"atBlockHeight","type":"uint64","indexed":true,"internalType":"uint64"}],"anonymous":false},{"type":"event","name":"UpkeepCheckDataUpdated","inputs":[{"name":"id","type":"uint256","indexed":true,"internalType":"uint256"},{"name":"newCheckData","type":"bytes","indexed":false,"internalType":"bytes"}],"anonymous":false},{"type":"event","name":"UpkeepGasLimitSet","inputs":[{"name":"id","type":"uint256","indexed":true,"internalType":"uint256"},{"name":"gasLimit","type":"uint96","indexed":false,"internalType":"uint96"}],"anonymous":false},{"type":"event","name":"UpkeepMigrated","inputs":[{"name":"id","type":"uint256","indexed":true,"internalType":"uint256"},{"name":"remainingBalance","type":"uint256","indexed":false,"internalType":"uint256"},{"name":"destination","type":"address","indexed":false,"internalType":"address"}],"anonymous":false},{"type":"event","name":"UpkeepPaused","inputs":[{"name":"id","type":"uint256","indexed":true,"internalType":"uint256"}],"anonymous":false},{"type":"event","name":"UpkeepPerformed","inputs":[{"name":"id","type":"uint256","indexed":true,"internalType":"uint256"},{"name":"success","type":"bool","indexed":true,"internalType":"bool"},{"name":"from","type":"address","indexed":true,"internalType":"address"},{"name":"payment","type":"uint96","indexed":false,"internalType":"uint96"},{"name":"performData","type":"bytes","indexed":false,"internalType":"bytes"}],"anonymous":false},{"type":"event","name":"UpkeepReceived","inputs":[{"name":"id","type":"uint256","indexed":true,"internalType":"uint256"},{"name":"startingBalance","type":"uint256","indexed":false,"internalType":"uint256"},{"name":"importedFrom","type":"address","indexed":false,"internalType":"address"}],"anonymous":false},{"type":"event","name":"UpkeepRegistered","inputs":[{"name":"id","type":"uint256","indexed":true,"internalType":"uint256"},{"name":"executeGas","type":"uint32","indexed":false,"internalType":"uint32"},{"name":"admin","type":"address","indexed":false,"internalType":"address"}],"anonymous":false},{"type":"event","name":"UpkeepUnpaused","inputs":[{"name":"id","type":"uint256","indexed":true,"internalType":"uint256"}],"anonymous":false},{"type":"error","name":"ArrayHasNoEntries","inputs":[]},{"type":"error","name":"CannotCancel","inputs":[]},{"type":"error","name":"DuplicateEntry","inputs":[]},{"type":"error","name":"EmptyAddress","inputs":[]},{"type":"error","name":"GasLimitCanOnlyIncrease","inputs":[]},{"type":"error","name":"GasLimitOutsideRange","inputs":[]},{"type":"error","name":"IndexOutOfRange","inputs":[]},{"type":"error","name":"InsufficientFunds","inputs":[]},{"type":"error","name":"InvalidDataLength","inputs":[]},{"type":"error","name":"InvalidPayee","inputs":[]},{"type":"error","name":"InvalidRecipient","inputs":[]},{"type":"error","name":"KeepersMustTakeTurns","inputs":[]},{"type":"error","name":"MigrationNotPermitted","inputs":[]},{"type":"error","name":"NotAContract","inputs":[]},{"type":"error","name":"OnlyActiveKeepers","inputs":[]},{"type":"error","name":"OnlyCallableByAdmin","inputs":[]},{"type":"error","name":"OnlyCallableByLINKToken","inputs":[]},{"type":"error","name":"OnlyCallableByOwnerOrAdmin","inputs":[]},{"type":"error","name":"OnlyCallableByOwnerOrRegistrar","inputs":[]},{"type":"error","name":"OnlyCallableByPayee","inputs":[]},{"type":"error","name":"OnlyCallableByProposedAdmin","inputs":[]},{"type":"error","name":"OnlyCallableByProposedPayee","inputs":[]},{"type":"error","name":"OnlyPausedUpkeep","inputs":[]},{"type":"error","name":"OnlySimulatedBackend","inputs":[]},{"type":"error","name":"OnlyUnpausedUpkeep","inputs":[]},{"type":"error","name":"ParameterLengthError","inputs":[]},{"type":"error","name":"PaymentGreaterThanAllLINK","inputs":[]},{"type":"error","name":"TargetCheckReverted","inputs":[{"name":"reason","type":"bytes","internalType":"bytes"}]},{"type":"error","name":"TranscoderNotSet","inputs":[]},{"type":"error","name":"UpkeepCancelled","inputs":[]},{"type":"error","name":"UpkeepNotCanceled","inputs":[]},{"type":"error","name":"UpkeepNotNeeded","inputs":[]},{"type":"error","name":"ValueNotChanged","inputs":[]}],"bytecode":{"object":"0x6101606040527f420000000000000000000000000000000000000f00000000000000000000000060e0526c6c000000000000000000000000610100523480156200004857600080fd5b50604051620047d6380380620047d68339810160408190526200006b916200028f565b84848484843380600081620000c75760405162461bcd60e51b815260206004820152601860248201527f43616e6e6f7420736574206f776e657220746f207a65726f000000000000000060448201526064015b60405180910390fd5b600080546001600160a01b0319166001600160a01b0384811691909117909155811615620000fa57620000fa81620001c6565b5050600160029081556003805460ff19169055869150811115620001225762000122620002fc565b6101208160028111156200013a576200013a620002fc565b60f81b9052506101408490526001600160a01b03831615806200016457506001600160a01b038216155b806200017757506001600160a01b038116155b156200019657604051637138356f60e01b815260040160405180910390fd5b6001600160601b0319606093841b811660805291831b821660a05290911b1660c052506200031295505050505050565b6001600160a01b038116331415620002215760405162461bcd60e51b815260206004820152601760248201527f43616e6e6f74207472616e7366657220746f2073656c660000000000000000006044820152606401620000be565b600180546001600160a01b0319166001600160a01b0383811691821790925560008054604051929316917fed8889f560326eb138920d842192f0eb3dd22b4f139c87a2c57538e05bae12789190a350565b80516001600160a01b03811681146200028a57600080fd5b919050565b600080600080600060a08688031215620002a857600080fd5b855160038110620002b857600080fd5b60208701519095509350620002d06040870162000272565b9250620002e06060870162000272565b9150620002f06080870162000272565b90509295509295909350565b634e487b7160e01b600052602160045260246000fd5b60805160601c60a05160601c60c05160601c60e05160601c6101005160601c6101205160f81c610140516143f5620003e16000396000818161027f0152612f7301526000818161035601528181612fc6015261311c0152600081816102ed015261315401526000818161031c015261308b0152600081816102580152612d000152600081816103e70152612dd401526000818161020c01528181610835015281816109ff01528181611059015281816114060152818161161b01528181611a770152611afd01526143f56000f3fe608060405234801561001057600080fd5b50600436106101da5760003560e01c80638da5cb5b11610104578063b148ab6b116100a2578063c804802211610071578063c80480221461046e578063da5c674114610481578063eb5dcd6c14610494578063f2fde38b146104a757600080fd5b8063b148ab6b1461041c578063b79550be1461042f578063b7fdb43614610437578063c41b813a1461044a57600080fd5b8063a710b221116100de578063a710b221146103bc578063a72aa27e146103cf578063ad178361146103e2578063b121e1471461040957600080fd5b80638da5cb5b146103855780638e86139b14610396578063948108f7146103a957600080fd5b8063744bfe611161017c5780638456cb591161014b5780638456cb591461030f578063850cce341461031757806385c1b0ba1461033e5780638811cbe81461035157600080fd5b8063744bfe61146102c557806379ba5097146102d85780637d9b97e0146102e05780637f37618e146102e857600080fd5b80633f4ba83a116101b85780633f4ba83a1461024b5780634584a419146102535780635077b2101461027a5780635c975abb146102af57600080fd5b8063187256e8146101df5780631a2af011146101f45780631b6b6d2314610207575b600080fd5b6101f26101ed3660046137b0565b6104ba565b005b6101f2610202366004613b3d565b610500565b61022e7f000000000000000000000000000000000000000000000000000000000000000081565b6040516001600160a01b0390911681526020015b60405180910390f35b6101f2610673565b61022e7f000000000000000000000000000000000000000000000000000000000000000081565b6102a17f000000000000000000000000000000000000000000000000000000000000000081565b604051908152602001610242565b60035460ff166040519015158152602001610242565b6101f26102d3366004613b3d565b610685565b6101f26108c5565b6101f2610974565b61022e7f000000000000000000000000000000000000000000000000000000000000000081565b6101f2610a8c565b61022e7f000000000000000000000000000000000000000000000000000000000000000081565b6101f261034c3660046138cb565b610a9c565b6103787f000000000000000000000000000000000000000000000000000000000000000081565b6040516102429190613f52565b6000546001600160a01b031661022e565b6101f26103a4366004613a75565b6110e3565b6101f26103b7366004613b83565b6112d7565b6101f26103ca36600461377d565b6114d0565b6101f26103dd366004613b60565b6116a8565b61022e7f000000000000000000000000000000000000000000000000000000000000000081565b6101f2610417366004613762565b611834565b6101f261042a366004613b0b565b6118e1565b6101f2611a57565b6101f2610445366004613860565b611b6a565b61045d610458366004613b3d565b611db7565b604051610242959493929190613e73565b6101f261047c366004613b0b565b611ffe565b6102a161048f3660046137eb565b61227f565b6101f26104a236600461377d565b612404565b6101f26104b5366004613762565b6124e5565b6104c26124f9565b6001600160a01b0382166000908152600c60205260409020805482919060ff191660018360038111156104f7576104f76141e3565b02179055505050565b60008281526007602090815260409182902082516101008101845281546001600160601b0380821683526001600160a01b03600160601b92839004811695840195909552600184015490811695830195909552909304821660608401526002015463ffffffff8082166080850152600160201b82041660a0840152600160401b810490911660c083015260ff600160e01b90910416151560e08201526105a58161254c565b6001600160a01b0382163314156105cf57604051638c8728c760e01b815260040160405180910390fd5b6001600160a01b0382166105f657604051634e46966960e11b815260040160405180910390fd5b6000838152600a60205260409020546001600160a01b0383811691161461066e576000838152600a602052604080822080546001600160a01b0319166001600160a01b03861690811790915590519091339186917fb1cbb2c4b8480034c27e06da5f096b8233a8fd4497028593a41ff6df79726b3591a45b505050565b61067b6124f9565b6106836125ad565b565b6001600160a01b0381166106ac57604051634e46966960e11b815260040160405180910390fd5b60008281526007602090815260409182902082516101008101845281546001600160601b038082168352600160601b918290046001600160a01b039081169584019590955260018401549081169583019590955290930482166060840181905260029091015463ffffffff8082166080860152600160201b82041660a0850152600160401b810490921660c0840152600160e01b90910460ff16151560e0830152331461076c5760405163523e0b8360e11b815260040160405180910390fd5b438160a0015163ffffffff16111561079a576040516001627b1a2360e01b0319815260040160405180910390fd5b6000838152600760205260409020546012546001600160601b03909116906107c39082906140e8565b6012556000848152600760205260409081902080546001600160601b03191690555184907ff3b5906e5672f3e524854103bcafbbdba80dbdfeca2c35e116127b1060a68318906108169084908790613f9f565b60405180910390a260405163a9059cbb60e01b81526001600160a01b037f0000000000000000000000000000000000000000000000000000000000000000169063a9059cbb9061086c9086908590600401613cf1565b602060405180830381600087803b15801561088657600080fd5b505af115801561089a573d6000803e3d6000fd5b505050506040513d601f19601f820116820180604052508101906108be9190613a01565b5050505050565b6001546001600160a01b0316331461091d5760405162461bcd60e51b815260206004820152601660248201527526bab9ba10313290383937b837b9b2b21037bbb732b960511b60448201526064015b60405180910390fd5b60008054336001600160a01b0319808316821784556001805490911690556040516001600160a01b0390921692909183917f8be0079c531659141344cd1fd0a4f28419497f9722a3daafe3b4186f6b6457e091a350565b61097c6124f9565b6011546012546001600160601b03909116906109999082906140e8565b601255601180546001600160601b03191690556040516001600160601b03821681527f1d07d0b0be43d3e5fee41a80b579af370affee03fa595bf56d5d4c19328162f19060200160405180910390a160405163a9059cbb60e01b81526001600160a01b037f0000000000000000000000000000000000000000000000000000000000000000169063a9059cbb90610a369033908590600401613cf1565b602060405180830381600087803b158015610a5057600080fd5b505af1158015610a64573d6000803e3d6000fd5b505050506040513d601f19601f82011682018060405250810190610a889190613a01565b5050565b610a946124f9565b6106836125ff565b60016001600160a01b0382166000908152600c602052604090205460ff166003811115610acb57610acb6141e3565b14158015610b06575060036001600160a01b0382166000908152600c602052604090205460ff166003811115610b0357610b036141e3565b14155b15610b24576040516303afbb0f60e21b815260040160405180910390fd5b6013546001600160a01b0316610b4d5760405163d12d7d8d60e01b815260040160405180910390fd5b81610b6b57604051632c2fc94160e01b815260040160405180910390fd5b6000610b756132e3565b600080856001600160401b03811115610b9057610b90614225565b604051908082528060200260200182016040528015610bc357816020015b6060815260200190600190039081610bae5790505b5090506000866001600160401b03811115610be057610be0614225565b604051908082528060200260200182016040528015610c1957816020015b610c066132e3565b815260200190600190039081610bfe5790505b50905060005b87811015610e9157888882818110610c3957610c3961420f565b6020908102929092013560008181526007845260409081902081516101008101835281546001600160601b038082168352600160601b918290046001600160a01b0390811698840198909852600184015490811694830194909452909204851660608301526002015463ffffffff8082166080840152600160201b82041660a0830152600160401b810490941660c0820152600160e01b90930460ff16151560e08401529750909550610ced90508561254c565b84828281518110610d0057610d0061420f565b6020026020010181905250600b60008781526020019081526020016000208054610d2990614153565b80601f0160208091040260200160405190810160405280929190818152602001828054610d5590614153565b8015610da25780601f10610d7757610100808354040283529160200191610da2565b820191906000526020600020905b815481529060010190602001808311610d8557829003601f168201915b5050505050838281518110610db957610db961420f565b60209081029190910101528451610dd9906001600160601b031685614064565b60008781526007602090815260408083208381556001810184905560020180546001600160e81b0319169055600b9091528120919550610e199190613327565b6000868152600a6020526040902080546001600160a01b0319169055610e4060058761263c565b50857fb38647142fbb1ea4c000fc4569b37a4e9a9f6313317b84ee3e5326c1a6cd06ff866000015189604051610e77929190613f9f565b60405180910390a280610e898161418e565b915050610c1f565b5082601254610ea091906140e8565b601255604051600090610ebd908a908a9085908790602001613d45565b6040516020818303038152906040529050866001600160a01b0316638e86139b601360009054906101000a90046001600160a01b03166001600160a01b031663c71249ab60018b6001600160a01b03166348013d7b6040518163ffffffff1660e01b815260040160206040518083038186803b158015610f3c57600080fd5b505afa158015610f50573d6000803e3d6000fd5b505050506040513d601f19601f82011682018060405250810190610f749190613aea565b866040518463ffffffff1660e01b8152600401610f9393929190613f65565b60006040518083038186803b158015610fab57600080fd5b505afa158015610fbf573d6000803e3d6000fd5b505050506040513d6000823e601f3d908101601f19168201604052610fe79190810190613ab6565b6040518263ffffffff1660e01b81526004016110039190613e60565b600060405180830381600087803b15801561101d57600080fd5b505af1158015611031573d6000803e3d6000fd5b505060405163a9059cbb60e01b81526001600160a01b038a81166004830152602482018890527f000000000000000000000000000000000000000000000000000000000000000016925063a9059cbb9150604401602060405180830381600087803b15801561109f57600080fd5b505af11580156110b3573d6000803e3d6000fd5b505050506040513d601f19601f820116820180604052508101906110d79190613a01565b50505050505050505050565b6002336000908152600c602052604090205460ff166003811115611109576111096141e3565b1415801561113b57506003336000908152600c602052604090205460ff166003811115611138576111386141e3565b14155b15611159576040516303afbb0f60e21b815260040160405180910390fd5b600080806111698486018661391e565b92509250925060005b83518110156112cf5761124d8482815181106111905761119061420f565b60200260200101518483815181106111aa576111aa61420f565b602002602001015160c001518584815181106111c8576111c861420f565b6020026020010151608001518685815181106111e6576111e661420f565b6020026020010151606001518786815181106112045761120461420f565b6020026020010151600001518787815181106112225761122261420f565b602002602001015189888151811061123c5761123c61420f565b602002602001015160e00151612651565b83818151811061125f5761125f61420f565b60200260200101517f74931a144e43a50694897f241d973aecb5024c0e910f9bb80a163ea3c1cf5a7184838151811061129a5761129a61420f565b602002602001015160000151336040516112b5929190613f9f565b60405180910390a2806112c78161418e565b915050611172565b505050505050565b60008281526007602090815260409182902082516101008101845281546001600160601b038082168352600160601b918290046001600160a01b0390811695840195909552600184015490811695830195909552909304821660608401526002015463ffffffff8082166080850152600160201b8204811660a08501819052600160401b830490931660c0850152600160e01b90910460ff16151560e08401521461139557604051634e0041d160e11b815260040160405180910390fd5b80516113a290839061407c565b600084815260076020526040902080546001600160601b0319166001600160601b039283161790556012546113d991841690614064565b6012556040516323b872dd60e01b81523360048201523060248201526001600160601b03831660448201527f00000000000000000000000000000000000000000000000000000000000000006001600160a01b0316906323b872dd90606401602060405180830381600087803b15801561145257600080fd5b505af1158015611466573d6000803e3d6000fd5b505050506040513d601f19601f8201168201806040525081019061148a9190613a01565b506040516001600160601b0383168152339084907fafd24114486da8ebfc32f3626dada8863652e187461aa74d4bfa7348915062039060200160405180910390a3505050565b6001600160a01b0381166114f757604051634e46966960e11b815260040160405180910390fd5b6001600160a01b0382811660009081526008602090815260409182902082516060810184528154948516808252600160a01b9095046001600160601b0316928101929092526001015460ff1615159181019190915290331461156c5760405163cebf515b60e01b815260040160405180910390fd5b6001600160a01b03808416600090815260086020908152604090912080549092169091558101516012546115a9916001600160601b0316906140e8565b6012556020808201516040513381526001600160a01b03808616936001600160601b0390931692908716917f9819093176a1851202c7bcfa46845809b4e47c261866550e94ed3775d2f40698910160405180910390a4602081015160405163a9059cbb60e01b81526001600160a01b037f0000000000000000000000000000000000000000000000000000000000000000169163a9059cbb91611650918691600401613cf1565b602060405180830381600087803b15801561166a57600080fd5b505af115801561167e573d6000803e3d6000fd5b505050506040513d601f19601f820116820180604052508101906116a29190613a01565b50505050565b6108fc8163ffffffff1610806116c95750600e5463ffffffff908116908216115b156116e7576040516314c237fb60e01b815260040160405180910390fd5b60008281526007602090815260409182902082516101008101845281546001600160601b038082168352600160601b918290046001600160a01b0390811695840195909552600184015490811695830195909552909304821660608401526002015463ffffffff8082166080850152600160201b8204811660a08501819052600160401b830490931660c0850152600160e01b90910460ff16151560e0840152146117a557604051634e0041d160e11b815260040160405180910390fd5b60608101516001600160a01b031633146117d25760405163523e0b8360e11b815260040160405180910390fd5b600083815260076020908152604091829020600201805463ffffffff191663ffffffff8616908117909155915191825284917fc24c07e655ce79fba8a589778987d3c015bc6af1632bb20cf9182e02a65d972c910160405180910390a2505050565b6001600160a01b0381811660009081526009602052604090205416331461186e576040516333a973d560e11b815260040160405180910390fd5b6001600160a01b0381811660008181526008602090815260408083208054336001600160a01b031980831682179093556009909452828520805490921690915590519416939092849290917f78af32efdcad432315431e9b03d27e6cd98fb79c405fdc5af7c1714d9c0f75b39190a45050565b60008181526007602090815260409182902082516101008101845281546001600160601b038082168352600160601b918290046001600160a01b0390811695840195909552600184015490811695830195909552909304821660608401526002015463ffffffff8082166080850152600160201b8204811660a08501819052600160401b830490931660c0850152600160e01b90910460ff16151560e08401521461199f57604051634e0041d160e11b815260040160405180910390fd5b6000828152600a60205260409020546001600160a01b031633146119d657604051636352a85360e01b815260040160405180910390fd5b6060810151600083815260076020908152604080832060010180546001600160601b031633600160601b810291909117909155600a90925280832080546001600160a01b03191690555190916001600160a01b0384169186917f5cff4db96bef051785e999f44bfcd21c18823e034fb92dd376e3db4ce0feeb2c91a4505050565b611a5f6124f9565b6040516370a0823160e01b81523060048201526000907f00000000000000000000000000000000000000000000000000000000000000006001600160a01b0316906370a082319060240160206040518083038186803b158015611ac157600080fd5b505afa158015611ad5573d6000803e3d6000fd5b505050506040513d601f19601f82011682018060405250810190611af99190613b24565b90507f00000000000000000000000000000000000000000000000000000000000000006001600160a01b031663a9059cbb3360125484611b3991906140e8565b6040516001600160e01b031960e085901b1681526001600160a01b0390921660048301526024820152604401610a36565b611b726124f9565b8281141580611b815750600283105b15611b9f576040516367aa603560e11b815260040160405180910390fd5b60005b600454811015611c0057600060048281548110611bc157611bc161420f565b60009182526020808320909101546001600160a01b031682526008905260409020600101805460ff191690555080611bf88161418e565b915050611ba2565b5060005b83811015611d66576000858583818110611c2057611c2061420f565b9050602002016020810190611c359190613762565b6001600160a01b03808216600090815260086020526040812080549394509290911690868686818110611c6a57611c6a61420f565b9050602002016020810190611c7f9190613762565b90506001600160a01b0381161580611cd157506001600160a01b03821615801590611cbc5750806001600160a01b0316826001600160a01b031614155b8015611cd157506001600160a01b0381811614155b15611cef57604051631670f44760e31b815260040160405180910390fd5b600183015460ff1615611d1557604051630d5f433160e21b815260040160405180910390fd5b6001838101805460ff191690911790556001600160a01b0381811614611d4f5782546001600160a01b0319166001600160a01b0382161783555b505050508080611d5e9061418e565b915050611c04565b50611d7360048585613361565b507f056264c94f28bb06c99d13f0446eb96c67c215d8d707bce2655a98ddf1c0b71f84848484604051611da99493929190613d13565b60405180910390a150505050565b6060600080600080611dc76128eb565b600087815260076020908152604080832081516101008101835281546001600160601b038082168352600160601b918290046001600160a01b03908116848801526001850154918216848701529190048116606083015260029092015463ffffffff8082166080840152600160201b82041660a0830152600160401b810490921660c0820152600160e01b90910460ff16151560e08201528a8452600b9092528083209051919291636e04ff0d60e01b91611e8491602401613eaa565b604051602081830303815290604052906001600160e01b0319166020820180516001600160e01b03838183161783525050505090506000808360c001516001600160a01b0316600d600001600b9054906101000a900463ffffffff1663ffffffff1684604051611ef49190613cd5565b60006040518083038160008787f1925050503d8060008114611f32576040519150601f19603f3d011682016040523d82523d6000602084013e611f37565b606091505b509150915081611f5c57806040516396c3623560e01b81526004016109149190613e60565b80806020019051810190611f709190613a25565b9950915081611f925760405163865676e360e01b815260040160405180910390fd5b6000611fa18b8d8c600061290a565b9050611fb685826000015183606001516129d5565b60608101516080820151600d5460a08401518d939291611fe291600160901b90910461ffff16906140c9565b60c090940151929f919e509c50919a5098509650505050505050565b600081815260076020908152604080832081516101008101835281546001600160601b038082168352600160601b918290046001600160a01b0390811696840196909652600184015490811694830194909452909204831660608301526002015463ffffffff8082166080840152600160201b8204811660a08401819052600160401b8304851660c0850152600160e01b90920460ff16151560e084015293549193148015929190911633149082906120ca57508080156120c85750438360a0015163ffffffff16115b155b156120e857604051631f7806af60e31b815260040160405180910390fd5b8015801561210c575082606001516001600160a01b0316336001600160a01b031614155b1561212a57604051637dedc72b60e11b815260040160405180910390fd5b438161213e5761213b603282614064565b90505b6000858152600760205260409020600201805463ffffffff808416600160201b0267ffffffff00000000199092169190911790915561218290600590879061263c16565b50600d5460408501516001600160601b03600160a01b909204821691600091168211156121dc5760408601516121b890836140ff565b905085600001516001600160601b0316816001600160601b031611156121dc575084515b85516121e99082906140ff565b600088815260076020526040902080546001600160601b0319166001600160601b039283161790556011546122209183911661407c565b601180546001600160601b0319166001600160601b03929092169190911790556040516001600160401b0384169088907f91cb3bb75cfbd718bbfccc56b7f53d92d7048ef4ca39a3b7b7c6d4af1f79118190600090a350505050505050565b600080546001600160a01b031633148015906122a657506014546001600160a01b03163314155b156122c45760405163d48b678b60e01b815260040160405180910390fd5b6122cf6001436140e8565b600e5460408051924060208401523060601b6001600160601b03191690830152600160201b900460e01b6001600160e01b03191660548201526058016040516020818303038152906040528051906020012060001c905061236b81878787600088888080601f01602080910402602001604051908101604052809392919081815260200183838082843760009201829052509250612651915050565b600e8054600160201b900463ffffffff16906004612388836141a9565b91906101000a81548163ffffffff021916908363ffffffff16021790555050807fbae366358c023f887e791d7a62f2e4316f1026bd77f6fb49501a917b3bc5d01286866040516123f392919063ffffffff9290921682526001600160a01b0316602082015260400190565b60405180910390a295945050505050565b6001600160a01b0382811660009081526008602052604090205416331461243e5760405163cebf515b60e01b815260040160405180910390fd5b6001600160a01b03811633141561246857604051638c8728c760e01b815260040160405180910390fd5b6001600160a01b03828116600090815260096020526040902054811690821614610a88576001600160a01b0382811660008181526009602052604080822080546001600160a01b0319169486169485179055513392917f84f7c7c80bb8ed2279b4aab5f61cd05e6374073d38f46d7f32de8c30e9e3836791a45050565b6124ed6124f9565b6124f681612a95565b50565b6000546001600160a01b031633146106835760405162461bcd60e51b815260206004820152601660248201527527b7363c9031b0b63630b1363290313c9037bbb732b960511b6044820152606401610914565b80606001516001600160a01b0316336001600160a01b0316146125825760405163523e0b8360e11b815260040160405180910390fd5b60a081015163ffffffff908116146124f657604051634e0041d160e11b815260040160405180910390fd5b6125b5612b3f565b6003805460ff191690557f5db9ee0a495bf2e6ff9c91a7834c1ba4fdd244a5e8aa4e537bd38aeae4b073aa335b6040516001600160a01b03909116815260200160405180910390a1565b612607612b88565b6003805460ff191660011790557f62e78cea01bee320cd4e420270b5ea74000d11b0c9f74754ebdbfc544b05a2586125e23390565b60006126488383612bce565b90505b92915050565b612659612b88565b6001600160a01b0386163b612681576040516309ee12d560e01b815260040160405180910390fd5b6108fc8563ffffffff1610806126a25750600e5463ffffffff908116908616115b156126c0576040516314c237fb60e01b815260040160405180910390fd5b604051806101000160405280846001600160601b0316815260200160006001600160a01b0316815260200160006001600160601b03168152602001856001600160a01b031681526020018663ffffffff16815260200163ffffffff80168152602001876001600160a01b031681526020018215158152506007600089815260200190815260200160002060008201518160000160006101000a8154816001600160601b0302191690836001600160601b03160217905550602082015181600001600c6101000a8154816001600160a01b0302191690836001600160a01b0316021790555060408201518160010160006101000a8154816001600160601b0302191690836001600160601b03160217905550606082015181600101600c6101000a8154816001600160a01b0302191690836001600160a01b0316021790555060808201518160020160006101000a81548163ffffffff021916908363ffffffff16021790555060a08201518160020160046101000a81548163ffffffff021916908363ffffffff16021790555060c08201518160020160086101000a8154816001600160a01b0302191690836001600160a01b0316021790555060e082015181600201601c6101000a81548160ff021916908315150217905550905050826001600160601b03166012546128b39190614064565b6012556000878152600b6020908152604090912083516128d5928501906133c4565b506128e1600588612cc1565b5050505050505050565b32156106835760405163b60ac5db60e01b815260040160405180910390fd5b6129536040518060e0016040528060006001600160a01b031681526020016000815260200160608152602001600081526020016000815260200160008152602001600081525090565b60008481526007602052604081206002015463ffffffff169080612975612ccd565b91509150600061298784848489612eae565b6040805160e0810182526001600160a01b03909b168b5260208b0199909952978901969096526001600160601b039096166060880152608087019190915260a086015250505060c082015290565b8260e00151156129f857604051631452db0960e21b815260040160405180910390fd5b6001600160a01b03821660009081526008602052604090206001015460ff16612a34576040516319f759fb60e31b815260040160405180910390fd5b82516001600160601b0316811115612a5f5760405163356680b760e01b815260040160405180910390fd5b816001600160a01b031683602001516001600160a01b0316141561066e57604051621af04160e61b815260040160405180910390fd5b6001600160a01b038116331415612aee5760405162461bcd60e51b815260206004820152601760248201527f43616e6e6f74207472616e7366657220746f2073656c660000000000000000006044820152606401610914565b600180546001600160a01b0319166001600160a01b0383811691821790925560008054604051929316917fed8889f560326eb138920d842192f0eb3dd22b4f139c87a2c57538e05bae12789190a350565b60035460ff166106835760405162461bcd60e51b815260206004820152601460248201527314185d5cd8589b194e881b9bdd081c185d5cd95960621b6044820152606401610914565b60035460ff16156106835760405162461bcd60e51b815260206004820152601060248201526f14185d5cd8589b194e881c185d5cd95960821b6044820152606401610914565b60008181526001830160205260408120548015612cb7576000612bf26001836140e8565b8554909150600090612c06906001906140e8565b9050818114612c6b576000866000018281548110612c2657612c2661420f565b9060005260206000200154905080876000018481548110612c4957612c4961420f565b6000918252602080832090910192909255918252600188019052604090208390555b8554869080612c7c57612c7c6141f9565b60019003818190600052602060002001600090559055856001016000868152602001908152602001600020600090556001935050505061264b565b600091505061264b565b60006126488383613294565b6000806000600d600001600f9054906101000a900462ffffff1662ffffff1690506000808263ffffffff161190506000807f00000000000000000000000000000000000000000000000000000000000000006001600160a01b031663feaf968c6040518163ffffffff1660e01b815260040160a06040518083038186803b158015612d5757600080fd5b505afa158015612d6b573d6000803e3d6000fd5b505050506040513d601f19601f82011682018060405250810190612d8f9190613ba6565b509450909250849150508015612db35750612daa82426140e8565b8463ffffffff16105b80612dbf575060008113155b15612dce57600f549550612dd2565b8095505b7f00000000000000000000000000000000000000000000000000000000000000006001600160a01b031663feaf968c6040518163ffffffff1660e01b815260040160a06040518083038186803b158015612e2b57600080fd5b505afa158015612e3f573d6000803e3d6000fd5b505050506040513d601f19601f82011682018060405250810190612e639190613ba6565b509450909250849150508015612e875750612e7e82426140e8565b8463ffffffff16105b80612e93575060008113155b15612ea2576010549450612ea6565b8094505b505050509091565b6040805161012081018252600d5463ffffffff8082168352600160201b80830482166020850152600160401b830462ffffff90811695850195909552600160581b830482166060850152600160781b83049094166080840152600160901b820461ffff1660a08401819052600160a01b9092046001600160601b031660c0840152600e5480821660e0850152939093049092166101008201526000918290612f5690876140c9565b9050838015612f645750803a105b15612f6c57503a5b6000612f987f000000000000000000000000000000000000000000000000000000000000000089614064565b612fa290836140c9565b8351909150600090612fbe9063ffffffff16633b9aca00614064565b9050600060027f00000000000000000000000000000000000000000000000000000000000000006002811115612ff657612ff66141e3565b1415613118576040805160008152602081019091528715613055576000366040518060800160405280604881526020016142686048913960405160200161303f93929190613cae565b6040516020818303038152906040529050613074565b60405180610140016040528061011081526020016142b0610110913990505b6040516324ca470760e11b81526001600160a01b037f000000000000000000000000000000000000000000000000000000000000000016906349948e0e906130c0908490600401613e60565b60206040518083038186803b1580156130d857600080fd5b505afa1580156130ec573d6000803e3d6000fd5b505050506040513d601f19601f820116820180604052508101906131109190613b24565b9150506131e6565b60017f0000000000000000000000000000000000000000000000000000000000000000600281111561314c5761314c6141e3565b14156131e6577f00000000000000000000000000000000000000000000000000000000000000006001600160a01b031663c6f7de0e6040518163ffffffff1660e01b815260040160206040518083038186803b1580156131ab57600080fd5b505afa1580156131bf573d6000803e3d6000fd5b505050506040513d601f19601f820116820180604052508101906131e39190613b24565b90505b8661320257808560a0015161ffff166131ff91906140c9565b90505b6000856020015163ffffffff1664e8d4a5100061321f91906140c9565b898461322b8588614064565b61323990633b9aca006140c9565b61324391906140c9565b61324d91906140a7565b6132579190614064565b90506b033b2e3c9fd0803ce80000008111156132865760405163156baa3d60e11b815260040160405180910390fd5b9a9950505050505050505050565b60008181526001830160205260408120546132db5750815460018181018455600084815260208082209093018490558454848252828601909352604090209190915561264b565b50600061264b565b6040805161010081018252600080825260208201819052918101829052606081018290526080810182905260a0810182905260c0810182905260e081019190915290565b50805461333390614153565b6000825580601f10613343575050565b601f0160209004906000526020600020908101906124f69190613438565b8280548282559060005260206000209081019282156133b4579160200282015b828111156133b45781546001600160a01b0319166001600160a01b03843516178255602090920191600190910190613381565b506133c0929150613438565b5090565b8280546133d090614153565b90600052602060002090601f0160209004810192826133f257600085556133b4565b82601f1061340b57805160ff19168380011785556133b4565b828001600101855582156133b4579182015b828111156133b457825182559160200191906001019061341d565b5b808211156133c05760008155600101613439565b80356001600160a01b038116811461346457600080fd5b919050565b60008083601f84011261347b57600080fd5b5081356001600160401b0381111561349257600080fd5b6020830191508360208260051b85010111156134ad57600080fd5b9250929050565b600082601f8301126134c557600080fd5b813560206134da6134d58361401a565b613fea565b80838252828201915082860187848660051b89010111156134fa57600080fd5b60005b858110156135795781356001600160401b0381111561351b57600080fd5b8801603f81018a1361352c57600080fd5b85810135604061353e6134d58361403d565b8281528c8284860101111561355257600080fd5b828285018a83013760009281018901929092525085525092840192908401906001016134fd565b5090979650505050505050565b600082601f83011261359757600080fd5b813560206135a76134d58361401a565b80838252828201915082860187848660081b89010111156135c757600080fd5b6000805b868110156136815761010080848c0312156135e4578283fd5b6135ec613fc1565b6135f58561374b565b815261360288860161344d565b88820152604061361381870161374b565b90820152606061362486820161344d565b90820152608061363586820161371d565b9082015260a061364686820161371d565b9082015260c061365786820161344d565b9082015260e08581013561366a81614259565b9082015286529486019492909201916001016135cb565b509198975050505050505050565b60008083601f8401126136a157600080fd5b5081356001600160401b038111156136b857600080fd5b6020830191508360208285010111156134ad57600080fd5b600082601f8301126136e157600080fd5b81516136ef6134d58261403d565b81815284602083860101111561370457600080fd5b613715826020830160208701614127565b949350505050565b803563ffffffff8116811461346457600080fd5b805169ffffffffffffffffffff8116811461346457600080fd5b80356001600160601b038116811461346457600080fd5b60006020828403121561377457600080fd5b6126488261344d565b6000806040838503121561379057600080fd5b6137998361344d565b91506137a76020840161344d565b90509250929050565b600080604083850312156137c357600080fd5b6137cc8361344d565b91506020830135600481106137e057600080fd5b809150509250929050565b60008060008060006080868803121561380357600080fd5b61380c8661344d565b945061381a6020870161371d565b93506138286040870161344d565b925060608601356001600160401b0381111561384357600080fd5b61384f8882890161368f565b969995985093965092949392505050565b6000806000806040858703121561387657600080fd5b84356001600160401b038082111561388d57600080fd5b61389988838901613469565b909650945060208701359150808211156138b257600080fd5b506138bf87828801613469565b95989497509550505050565b6000806000604084860312156138e057600080fd5b83356001600160401b038111156138f657600080fd5b61390286828701613469565b909450925061391590506020850161344d565b90509250925092565b60008060006060848603121561393357600080fd5b83356001600160401b038082111561394a57600080fd5b818601915086601f83011261395e57600080fd5b8135602061396e6134d58361401a565b8083825282820191508286018b848660051b890101111561398e57600080fd5b600096505b848710156139b1578035835260019690960195918301918301613993565b50975050870135925050808211156139c857600080fd5b6139d487838801613586565b935060408601359150808211156139ea57600080fd5b506139f7868287016134b4565b9150509250925092565b600060208284031215613a1357600080fd5b8151613a1e81614259565b9392505050565b60008060408385031215613a3857600080fd5b8251613a4381614259565b60208401519092506001600160401b03811115613a5f57600080fd5b613a6b858286016136d0565b9150509250929050565b60008060208385031215613a8857600080fd5b82356001600160401b03811115613a9e57600080fd5b613aaa8582860161368f565b90969095509350505050565b600060208284031215613ac857600080fd5b81516001600160401b03811115613ade57600080fd5b613715848285016136d0565b600060208284031215613afc57600080fd5b815160038110613a1e57600080fd5b600060208284031215613b1d57600080fd5b5035919050565b600060208284031215613b3657600080fd5b5051919050565b60008060408385031215613b5057600080fd5b823591506137a76020840161344d565b60008060408385031215613b7357600080fd5b823591506137a76020840161371d565b60008060408385031215613b9657600080fd5b823591506137a76020840161374b565b600080600080600060a08688031215613bbe57600080fd5b613bc786613731565b9450602086015193506040860151925060608601519150613bea60808701613731565b90509295509295909350565b8183526000602080850194508260005b85811015613c32576001600160a01b03613c1f8361344d565b1687529582019590820190600101613c06565b509495945050505050565b6000815180845260208085019450848260051b860182860160005b85811015613579578383038952613c70838351613c82565b98850198925090840190600101613c58565b60008151808452613c9a816020860160208601614127565b601f01601f19169290920160200192915050565b828482376000838201600081528351613ccb818360208801614127565b0195945050505050565b60008251613ce7818460208701614127565b9190910192915050565b6001600160a01b039290921682526001600160601b0316602082015260400190565b604081526000613d27604083018688613bf6565b8281036020840152613d3a818587613bf6565b979650505050505050565b606080825281810185905260009060806001600160fb1b03871115613d6957600080fd5b8660051b808983870137808501905081810160008152602083878403018188015281895180845260a093508385019150828b01945060005b81811015613e3c57855180516001600160601b039081168552858201516001600160a01b0316868601526040808301519091169085015288810151613df08a8601826001600160a01b03169052565b508781015163ffffffff908116858a015286820151168685015260c0808201516001600160a01b03169085015260e0908101511515908401529483019461010090920191600101613da1565b50508781036040890152613e50818a613c3d565b9c9b505050505050505050505050565b6020815260006126486020830184613c82565b60a081526000613e8660a0830188613c82565b90508560208301528460408301528360608301528260808301529695505050505050565b600060208083526000845481600182811c915080831680613ecc57607f831692505b858310811415613eea57634e487b7160e01b85526022600452602485fd5b878601838152602001818015613f075760018114613f1857613f43565b60ff19861682528782019650613f43565b60008b81526020902060005b86811015613f3d57815484820152908501908901613f24565b83019750505b50949998505050505050505050565b60208101613f5f8361423b565b91905290565b613f6e8461423b565b838152613f7a8361423b565b826020820152606060408201526000613f966060830184613c82565b95945050505050565b6001600160601b039290921682526001600160a01b0316602082015260400190565b60405161010081016001600160401b0381118282101715613fe457613fe4614225565b60405290565b604051601f8201601f191681016001600160401b038111828210171561401257614012614225565b604052919050565b60006001600160401b0382111561403357614033614225565b5060051b60200190565b60006001600160401b0382111561405657614056614225565b50601f01601f191660200190565b60008219821115614077576140776141cd565b500190565b60006001600160601b0380831681851680830382111561409e5761409e6141cd565b01949350505050565b6000826140c457634e487b7160e01b600052601260045260246000fd5b500490565b60008160001904831182151516156140e3576140e36141cd565b500290565b6000828210156140fa576140fa6141cd565b500390565b60006001600160601b038381169083168181101561411f5761411f6141cd565b039392505050565b60005b8381101561414257818101518382015260200161412a565b838111156116a25750506000910152565b600181811c9082168061416757607f821691505b6020821081141561418857634e487b7160e01b600052602260045260246000fd5b50919050565b60006000198214156141a2576141a26141cd565b5060010190565b600063ffffffff808316818114156141c3576141c36141cd565b6001019392505050565b634e487b7160e01b600052601160045260246000fd5b634e487b7160e01b600052602160045260246000fd5b634e487b7160e01b600052603160045260246000fd5b634e487b7160e01b600052603260045260246000fd5b634e487b7160e01b600052604160045260246000fd5b600381106124f657634e487b7160e01b600052602160045260246000fd5b80151581146124f657600080fdfe3078666666666666666666666666666666666666666666666666666666666666666666666666666666666666666666666666666666666666666666666666666666666666666666663078666666666666666666666666666666666666666666666666666666666666666666666666666666666666666666666666666666666666666666666666666666666666666666666666666666666666666666666666666666666666666666666666666666666666666666666666666666666666666666666666666666666666666666666666666666666666666666666666666666666666666666666666666666666666666666666666666666666666666666666666666666666666666666666666666666666666666666666666666666666666666666666666666666666666666666666666666666666666666666666666666666666666666666666666666666666666666666666666666666666666a26469706673582212208c242991ab0559ba41b2d6e0e4cb2be32e2e9fe937b5b2c50105b6a469a48c3164736f6c63430008060033","linkReferences":{}},"methodIdentifiers":{"ARB_NITRO_ORACLE()":"7f37618e","FAST_GAS_FEED()":"4584a419","LINK()":"1b6b6d23","LINK_ETH_FEED()":"ad178361","OPTIMISM_ORACLE()":"850cce34","PAYMENT_MODEL()":"8811cbe8","REGISTRY_GAS_OVERHEAD()":"5077b210","acceptOwnership()":"79ba5097","acceptPayeeship(address)":"b121e147","acceptUpkeepAdmin(uint256)":"b148ab6b","addFunds(uint256,uint96)":"948108f7","cancelUpkeep(uint256)":"c8048022","checkUpkeep(uint256,address)":"c41b813a","migrateUpkeeps(uint256[],address)":"85c1b0ba","owner()":"8da5cb5b","pause()":"8456cb59","paused()":"5c975abb","receiveUpkeeps(bytes)":"8e86139b","recoverFunds()":"b79550be","registerUpkeep(address,uint32,address,bytes)":"da5c6741","setKeepers(address[],address[])":"b7fdb436","setPeerRegistryMigrationPermission(address,uint8)":"187256e8","setUpkeepGasLimit(uint256,uint32)":"a72aa27e","transferOwnership(address)":"f2fde38b","transferPayeeship(address,address)":"eb5dcd6c","transferUpkeepAdmin(uint256,address)":"1a2af011","unpause()":"3f4ba83a","withdrawFunds(uint256,address)":"744bfe61","withdrawOwnerFunds()":"7d9b97e0","withdrawPayment(address,address)":"a710b221"},"id":36}