{
  "abi": [
    {
      "inputs": [
        {
          "internalType": "enum KeeperRegistryBase1_3.PaymentModel",
          "name": "paymentModel",
          "type": "uint8"
        },
        {
          "internalType": "uint256",
          "name": "registryGasOverhead",
          "type": "uint256"
        },
        {
          "internalType": "address",
          "name": "link",
          "type": "address"
        },
        {
          "internalType": "address",
          "name": "linkEthFeed",
          "type": "address"
        },
        {
          "internalType": "address",
          "name": "fastGasFeed",
          "type": "address"
        }
      ],
      "stateMutability": "nonpayable",
      "type": "constructor"
    },
    {
      "inputs": [],
      "name": "ArrayHasNoEntries",
      "type": "error"
    },
    {
      "inputs": [],
      "name": "CannotCancel",
      "type": "error"
    },
    {
      "inputs": [],
      "name": "DuplicateEntry",
      "type": "error"
    },
    {
      "inputs": [],
      "name": "EmptyAddress",
      "type": "error"
    },
    {
      "inputs": [],
      "name": "GasLimitCanOnlyIncrease",
      "type": "error"
    },
    {
      "inputs": [],
      "name": "GasLimitOutsideRange",
      "type": "error"
    },
    {
      "inputs": [],
      "name": "IndexOutOfRange",
      "type": "error"
    },
    {
      "inputs": [],
      "name": "InsufficientFunds",
      "type": "error"
    },
    {
      "inputs": [],
      "name": "InvalidDataLength",
      "type": "error"
    },
    {
      "inputs": [],
      "name": "InvalidPayee",
      "type": "error"
    },
    {
      "inputs": [],
      "name": "InvalidRecipient",
      "type": "error"
    },
    {
      "inputs": [],
      "name": "KeepersMustTakeTurns",
      "type": "error"
    },
    {
      "inputs": [],
      "name": "MigrationNotPermitted",
      "type": "error"
    },
    {
      "inputs": [],
      "name": "NotAContract",
      "type": "error"
    },
    {
      "inputs": [],
      "name": "OnlyActiveKeepers",
      "type": "error"
    },
    {
      "inputs": [],
      "name": "OnlyCallableByAdmin",
      "type": "error"
    },
    {
      "inputs": [],
      "name": "OnlyCallableByLINKToken",
      "type": "error"
    },
    {
      "inputs": [],
      "name": "OnlyCallableByOwnerOrAdmin",
      "type": "error"
    },
    {
      "inputs": [],
      "name": "OnlyCallableByOwnerOrRegistrar",
      "type": "error"
    },
    {
      "inputs": [],
      "name": "OnlyCallableByPayee",
      "type": "error"
    },
    {
      "inputs": [],
      "name": "OnlyCallableByProposedAdmin",
      "type": "error"
    },
    {
      "inputs": [],
      "name": "OnlyCallableByProposedPayee",
      "type": "error"
    },
    {
      "inputs": [],
      "name": "OnlyPausedUpkeep",
      "type": "error"
    },
    {
      "inputs": [],
      "name": "OnlySimulatedBackend",
      "type": "error"
    },
    {
      "inputs": [],
      "name": "OnlyUnpausedUpkeep",
      "type": "error"
    },
    {
      "inputs": [],
      "name": "ParameterLengthError",
      "type": "error"
    },
    {
      "inputs": [],
      "name": "PaymentGreaterThanAllLINK",
      "type": "error"
    },
    {
      "inputs": [
        {
          "internalType": "bytes",
          "name": "reason",
          "type": "bytes"
        }
      ],
      "name": "TargetCheckReverted",
      "type": "error"
    },
    {
      "inputs": [],
      "name": "TranscoderNotSet",
      "type": "error"
    },
    {
      "inputs": [],
      "name": "UpkeepCancelled",
      "type": "error"
    },
    {
      "inputs": [],
      "name": "UpkeepNotCanceled",
      "type": "error"
    },
    {
      "inputs": [],
      "name": "UpkeepNotNeeded",
      "type": "error"
    },
    {
      "inputs": [],
      "name": "ValueNotChanged",
      "type": "error"
    },
    {
      "anonymous": false,
      "inputs": [
        {
          "components": [
            {
              "internalType": "uint32",
              "name": "paymentPremiumPPB",
              "type": "uint32"
            },
            {
              "internalType": "uint32",
              "name": "flatFeeMicroLink",
              "type": "uint32"
            },
            {
              "internalType": "uint24",
              "name": "blockCountPerTurn",
              "type": "uint24"
            },
            {
              "internalType": "uint32",
              "name": "checkGasLimit",
              "type": "uint32"
            },
            {
              "internalType": "uint24",
              "name": "stalenessSeconds",
              "type": "uint24"
            },
            {
              "internalType": "uint16",
              "name": "gasCeilingMultiplier",
              "type": "uint16"
            },
            {
              "internalType": "uint96",
              "name": "minUpkeepSpend",
              "type": "uint96"
            },
            {
              "internalType": "uint32",
              "name": "maxPerformGas",
              "type": "uint32"
            },
            {
              "internalType": "uint256",
              "name": "fallbackGasPrice",
              "type": "uint256"
            },
            {
              "internalType": "uint256",
              "name": "fallbackLinkPrice",
              "type": "uint256"
            },
            {
              "internalType": "address",
              "name": "transcoder",
              "type": "address"
            },
            {
              "internalType": "address",
              "name": "registrar",
              "type": "address"
            }
          ],
          "indexed": false,
          "internalType": "struct Config",
          "name": "config",
          "type": "tuple"
        }
      ],
      "name": "ConfigSet",
      "type": "event"
    },
    {
      "anonymous": false,
      "inputs": [
        {
          "indexed": true,
          "internalType": "uint256",
          "name": "id",
          "type": "uint256"
        },
        {
          "indexed": true,
          "internalType": "address",
          "name": "from",
          "type": "address"
        },
        {
          "indexed": false,
          "internalType": "uint96",
          "name": "amount",
          "type": "uint96"
        }
      ],
      "name": "FundsAdded",
      "type": "event"
    },
    {
      "anonymous": false,
      "inputs": [
        {
          "indexed": true,
          "internalType": "uint256",
          "name": "id",
          "type": "uint256"
        },
        {
          "indexed": false,
          "internalType": "uint256",
          "name": "amount",
          "type": "uint256"
        },
        {
          "indexed": false,
          "internalType": "address",
          "name": "to",
          "type": "address"
        }
      ],
      "name": "FundsWithdrawn",
      "type": "event"
    },
    {
      "anonymous": false,
      "inputs": [
        {
          "indexed": false,
          "internalType": "address[]",
          "name": "keepers",
          "type": "address[]"
        },
        {
          "indexed": false,
          "internalType": "address[]",
          "name": "payees",
          "type": "address[]"
        }
      ],
      "name": "KeepersUpdated",
      "type": "event"
    },
    {
      "anonymous": false,
      "inputs": [
        {
          "indexed": false,
          "internalType": "uint96",
          "name": "amount",
          "type": "uint96"
        }
      ],
      "name": "OwnerFundsWithdrawn",
      "type": "event"
    },
    {
      "anonymous": false,
      "inputs": [
        {
          "indexed": true,
          "internalType": "address",
          "name": "from",
          "type": "address"
        },
        {
          "indexed": true,
          "internalType": "address",
          "name": "to",
          "type": "address"
        }
      ],
      "name": "OwnershipTransferRequested",
      "type": "event"
    },
    {
      "anonymous": false,
      "inputs": [
        {
          "indexed": true,
          "internalType": "address",
          "name": "from",
          "type": "address"
        },
        {
          "indexed": true,
          "internalType": "address",
          "name": "to",
          "type": "address"
        }
      ],
      "name": "OwnershipTransferred",
      "type": "event"
    },
    {
      "anonymous": false,
      "inputs": [
        {
          "indexed": false,
          "internalType": "address",
          "name": "account",
          "type": "address"
        }
      ],
      "name": "Paused",
      "type": "event"
    },
    {
      "anonymous": false,
      "inputs": [
        {
          "indexed": true,
          "internalType": "address",
          "name": "keeper",
          "type": "address"
        },
        {
          "indexed": true,
          "internalType": "address",
          "name": "from",
          "type": "address"
        },
        {
          "indexed": true,
          "internalType": "address",
          "name": "to",
          "type": "address"
        }
      ],
      "name": "PayeeshipTransferRequested",
      "type": "event"
    },
    {
      "anonymous": false,
      "inputs": [
        {
          "indexed": true,
          "internalType": "address",
          "name": "keeper",
          "type": "address"
        },
        {
          "indexed": true,
          "internalType": "address",
          "name": "from",
          "type": "address"
        },
        {
          "indexed": true,
          "internalType": "address",
          "name": "to",
          "type": "address"
        }
      ],
      "name": "PayeeshipTransferred",
      "type": "event"
    },
    {
      "anonymous": false,
      "inputs": [
        {
          "indexed": true,
          "internalType": "address",
          "name": "keeper",
          "type": "address"
        },
        {
          "indexed": true,
          "internalType": "uint256",
          "name": "amount",
          "type": "uint256"
        },
        {
          "indexed": true,
          "internalType": "address",
          "name": "to",
          "type": "address"
        },
        {
          "indexed": false,
          "internalType": "address",
          "name": "payee",
          "type": "address"
        }
      ],
      "name": "PaymentWithdrawn",
      "type": "event"
    },
    {
      "anonymous": false,
      "inputs": [
        {
          "indexed": false,
          "internalType": "address",
          "name": "account",
          "type": "address"
        }
      ],
      "name": "Unpaused",
      "type": "event"
    },
    {
      "anonymous": false,
      "inputs": [
        {
          "indexed": true,
          "internalType": "uint256",
          "name": "id",
          "type": "uint256"
        },
        {
          "indexed": true,
          "internalType": "address",
          "name": "from",
          "type": "address"
        },
        {
          "indexed": true,
          "internalType": "address",
          "name": "to",
          "type": "address"
        }
      ],
      "name": "UpkeepAdminTransferRequested",
      "type": "event"
    },
    {
      "anonymous": false,
      "inputs": [
        {
          "indexed": true,
          "internalType": "uint256",
          "name": "id",
          "type": "uint256"
        },
        {
          "indexed": true,
          "internalType": "address",
          "name": "from",
          "type": "address"
        },
        {
          "indexed": true,
          "internalType": "address",
          "name": "to",
          "type": "address"
        }
      ],
      "name": "UpkeepAdminTransferred",
      "type": "event"
    },
    {
      "anonymous": false,
      "inputs": [
        {
          "indexed": true,
          "internalType": "uint256",
          "name": "id",
          "type": "uint256"
        },
        {
          "indexed": true,
          "internalType": "uint64",
          "name": "atBlockHeight",
          "type": "uint64"
        }
      ],
      "name": "UpkeepCanceled",
      "type": "event"
    },
    {
      "anonymous": false,
      "inputs": [
        {
          "indexed": true,
          "internalType": "uint256",
          "name": "id",
          "type": "uint256"
        },
        {
          "indexed": false,
          "internalType": "bytes",
          "name": "newCheckData",
          "type": "bytes"
        }
      ],
      "name": "UpkeepCheckDataUpdated",
      "type": "event"
    },
    {
      "anonymous": false,
      "inputs": [
        {
          "indexed": true,
          "internalType": "uint256",
          "name": "id",
          "type": "uint256"
        },
        {
          "indexed": false,
          "internalType": "uint96",
          "name": "gasLimit",
          "type": "uint96"
        }
      ],
      "name": "UpkeepGasLimitSet",
      "type": "event"
    },
    {
      "anonymous": false,
      "inputs": [
        {
          "indexed": true,
          "internalType": "uint256",
          "name": "id",
          "type": "uint256"
        },
        {
          "indexed": false,
          "internalType": "uint256",
          "name": "remainingBalance",
          "type": "uint256"
        },
        {
          "indexed": false,
          "internalType": "address",
          "name": "destination",
          "type": "address"
        }
      ],
      "name": "UpkeepMigrated",
      "type": "event"
    },
    {
      "anonymous": false,
      "inputs": [
        {
          "indexed": true,
          "internalType": "uint256",
          "name": "id",
          "type": "uint256"
        }
      ],
      "name": "UpkeepPaused",
      "type": "event"
    },
    {
      "anonymous": false,
      "inputs": [
        {
          "indexed": true,
          "internalType": "uint256",
          "name": "id",
          "type": "uint256"
        },
        {
          "indexed": true,
          "internalType": "bool",
          "name": "success",
          "type": "bool"
        },
        {
          "indexed": true,
          "internalType": "address",
          "name": "from",
          "type": "address"
        },
        {
          "indexed": false,
          "internalType": "uint96",
          "name": "payment",
          "type": "uint96"
        },
        {
          "indexed": false,
          "internalType": "bytes",
          "name": "performData",
          "type": "bytes"
        }
      ],
      "name": "UpkeepPerformed",
      "type": "event"
    },
    {
      "anonymous": false,
      "inputs": [
        {
          "indexed": true,
          "internalType": "uint256",
          "name": "id",
          "type": "uint256"
        },
        {
          "indexed": false,
          "internalType": "uint256",
          "name": "startingBalance",
          "type": "uint256"
        },
        {
          "indexed": false,
          "internalType": "address",
          "name": "importedFrom",
          "type": "address"
        }
      ],
      "name": "UpkeepReceived",
      "type": "event"
    },
    {
      "anonymous": false,
      "inputs": [
        {
          "indexed": true,
          "internalType": "uint256",
          "name": "id",
          "type": "uint256"
        },
        {
          "indexed": false,
          "internalType": "uint32",
          "name": "executeGas",
          "type": "uint32"
        },
        {
          "indexed": false,
          "internalType": "address",
          "name": "admin",
          "type": "address"
        }
      ],
      "name": "UpkeepRegistered",
      "type": "event"
    },
    {
      "anonymous": false,
      "inputs": [
        {
          "indexed": true,
          "internalType": "uint256",
          "name": "id",
          "type": "uint256"
        }
      ],
      "name": "UpkeepUnpaused",
      "type": "event"
    },
    {
      "inputs": [],
      "name": "ARB_NITRO_ORACLE",
      "outputs": [
        {
          "internalType": "contract ArbGasInfo",
          "name": "",
          "type": "address"
        }
      ],
      "stateMutability": "view",
      "type": "function"
    },
    {
      "inputs": [],
      "name": "FAST_GAS_FEED",
      "outputs": [
        {
          "internalType": "contract AggregatorV3Interface",
          "name": "",
          "type": "address"
        }
      ],
      "stateMutability": "view",
      "type": "function"
    },
    {
      "inputs": [],
      "name": "LINK",
      "outputs": [
        {
          "internalType": "contract LinkTokenInterface",
          "name": "",
          "type": "address"
        }
      ],
      "stateMutability": "view",
      "type": "function"
    },
    {
      "inputs": [],
      "name": "LINK_ETH_FEED",
      "outputs": [
        {
          "internalType": "contract AggregatorV3Interface",
          "name": "",
          "type": "address"
        }
      ],
      "stateMutability": "view",
      "type": "function"
    },
    {
      "inputs": [],
      "name": "OPTIMISM_ORACLE",
      "outputs": [
        {
          "internalType": "contract OVM_GasPriceOracle",
          "name": "",
          "type": "address"
        }
      ],
      "stateMutability": "view",
      "type": "function"
    },
    {
      "inputs": [],
      "name": "PAYMENT_MODEL",
      "outputs": [
        {
          "internalType": "enum KeeperRegistryBase1_3.PaymentModel",
          "name": "",
          "type": "uint8"
        }
      ],
      "stateMutability": "view",
      "type": "function"
    },
    {
      "inputs": [],
      "name": "REGISTRY_GAS_OVERHEAD",
      "outputs": [
        {
          "internalType": "uint256",
          "name": "",
          "type": "uint256"
        }
      ],
      "stateMutability": "view",
      "type": "function"
    },
    {
      "inputs": [],
      "name": "acceptOwnership",
      "outputs": [],
      "stateMutability": "nonpayable",
      "type": "function"
    },
    {
      "inputs": [
        {
          "internalType": "address",
          "name": "keeper",
          "type": "address"
        }
      ],
      "name": "acceptPayeeship",
      "outputs": [],
      "stateMutability": "nonpayable",
      "type": "function"
    },
    {
      "inputs": [
        {
          "internalType": "uint256",
          "name": "id",
          "type": "uint256"
        }
      ],
      "name": "acceptUpkeepAdmin",
      "outputs": [],
      "stateMutability": "nonpayable",
      "type": "function"
    },
    {
      "inputs": [
        {
          "internalType": "uint256",
          "name": "id",
          "type": "uint256"
        },
        {
          "internalType": "uint96",
          "name": "amount",
          "type": "uint96"
        }
      ],
      "name": "addFunds",
      "outputs": [],
      "stateMutability": "nonpayable",
      "type": "function"
    },
    {
      "inputs": [
        {
          "internalType": "uint256",
          "name": "id",
          "type": "uint256"
        }
      ],
      "name": "cancelUpkeep",
      "outputs": [],
      "stateMutability": "nonpayable",
      "type": "function"
    },
    {
      "inputs": [
        {
          "internalType": "uint256",
          "name": "id",
          "type": "uint256"
        },
        {
          "internalType": "address",
          "name": "from",
          "type": "address"
        }
      ],
      "name": "checkUpkeep",
      "outputs": [
        {
          "internalType": "bytes",
          "name": "performData",
          "type": "bytes"
        },
        {
          "internalType": "uint256",
          "name": "maxLinkPayment",
          "type": "uint256"
        },
        {
          "internalType": "uint256",
          "name": "gasLimit",
          "type": "uint256"
        },
        {
          "internalType": "uint256",
          "name": "adjustedGasWei",
          "type": "uint256"
        },
        {
          "internalType": "uint256",
          "name": "linkEth",
          "type": "uint256"
        }
      ],
      "stateMutability": "nonpayable",
      "type": "function"
    },
    {
      "inputs": [
        {
          "internalType": "uint256[]",
          "name": "ids",
          "type": "uint256[]"
        },
        {
          "internalType": "address",
          "name": "destination",
          "type": "address"
        }
      ],
      "name": "migrateUpkeeps",
      "outputs": [],
      "stateMutability": "nonpayable",
      "type": "function"
    },
    {
      "inputs": [],
      "name": "owner",
      "outputs": [
        {
          "internalType": "address",
          "name": "",
          "type": "address"
        }
      ],
      "stateMutability": "view",
      "type": "function"
    },
    {
      "inputs": [],
      "name": "pause",
      "outputs": [],
      "stateMutability": "nonpayable",
      "type": "function"
    },
    {
      "inputs": [],
      "name": "paused",
      "outputs": [
        {
          "internalType": "bool",
          "name": "",
          "type": "bool"
        }
      ],
      "stateMutability": "view",
      "type": "function"
    },
    {
      "inputs": [
        {
          "internalType": "bytes",
          "name": "encodedUpkeeps",
          "type": "bytes"
        }
      ],
      "name": "receiveUpkeeps",
      "outputs": [],
      "stateMutability": "nonpayable",
      "type": "function"
    },
    {
      "inputs": [],
      "name": "recoverFunds",
      "outputs": [],
      "stateMutability": "nonpayable",
      "type": "function"
    },
    {
      "inputs": [
        {
          "internalType": "address",
          "name": "target",
          "type": "address"
        },
        {
          "internalType": "uint32",
          "name": "gasLimit",
          "type": "uint32"
        },
        {
          "internalType": "address",
          "name": "admin",
          "type": "address"
        },
        {
          "internalType": "bytes",
          "name": "checkData",
          "type": "bytes"
        }
      ],
      "name": "registerUpkeep",
      "outputs": [
        {
          "internalType": "uint256",
          "name": "id",
          "type": "uint256"
        }
      ],
      "stateMutability": "nonpayable",
      "type": "function"
    },
    {
      "inputs": [
        {
          "internalType": "address[]",
          "name": "keepers",
          "type": "address[]"
        },
        {
          "internalType": "address[]",
          "name": "payees",
          "type": "address[]"
        }
      ],
      "name": "setKeepers",
      "outputs": [],
      "stateMutability": "nonpayable",
      "type": "function"
    },
    {
      "inputs": [
        {
          "internalType": "address",
          "name": "peer",
          "type": "address"
        },
        {
          "internalType": "enum KeeperRegistryBase1_3.MigrationPermission",
          "name": "permission",
          "type": "uint8"
        }
      ],
      "name": "setPeerRegistryMigrationPermission",
      "outputs": [],
      "stateMutability": "nonpayable",
      "type": "function"
    },
    {
      "inputs": [
        {
          "internalType": "uint256",
          "name": "id",
          "type": "uint256"
        },
        {
          "internalType": "uint32",
          "name": "gasLimit",
          "type": "uint32"
        }
      ],
      "name": "setUpkeepGasLimit",
      "outputs": [],
      "stateMutability": "nonpayable",
      "type": "function"
    },
    {
      "inputs": [
        {
          "internalType": "address",
          "name": "to",
          "type": "address"
        }
      ],
      "name": "transferOwnership",
      "outputs": [],
      "stateMutability": "nonpayable",
      "type": "function"
    },
    {
      "inputs": [
        {
          "internalType": "address",
          "name": "keeper",
          "type": "address"
        },
        {
          "internalType": "address",
          "name": "proposed",
          "type": "address"
        }
      ],
      "name": "transferPayeeship",
      "outputs": [],
      "stateMutability": "nonpayable",
      "type": "function"
    },
    {
      "inputs": [
        {
          "internalType": "uint256",
          "name": "id",
          "type": "uint256"
        },
        {
          "internalType": "address",
          "name": "proposed",
          "type": "address"
        }
      ],
      "name": "transferUpkeepAdmin",
      "outputs": [],
      "stateMutability": "nonpayable",
      "type": "function"
    },
    {
      "inputs": [],
      "name": "unpause",
      "outputs": [],
      "stateMutability": "nonpayable",
      "type": "function"
    },
    {
      "inputs": [
        {
          "internalType": "uint256",
          "name": "id",
          "type": "uint256"
        },
        {
          "internalType": "address",
          "name": "to",
          "type": "address"
        }
      ],
      "name": "withdrawFunds",
      "outputs": [],
      "stateMutability": "nonpayable",
      "type": "function"
    },
    {
      "inputs": [],
      "name": "withdrawOwnerFunds",
      "outputs": [],
      "stateMutability": "nonpayable",
      "type": "function"
    },
    {
      "inputs": [
        {
          "internalType": "address",
          "name": "from",
          "type": "address"
        },
        {
          "internalType": "address",
          "name": "to",
          "type": "address"
        }
      ],
      "name": "withdrawPayment",
      "outputs": [],
      "stateMutability": "nonpayable",
      "type": "function"
    }
  ],
  "bytecode": {
    "object": "0x6101606040527f420000000000000000000000000000000000000f00000000000000000000000060e0526c6c000000000000000000000000610100523480156200004857600080fd5b50604051620047d8380380620047d88339810160408190526200006b916200028f565b84848484843380600081620000c75760405162461bcd60e51b815260206004820152601860248201527f43616e6e6f7420736574206f776e657220746f207a65726f000000000000000060448201526064015b60405180910390fd5b600080546001600160a01b0319166001600160a01b0384811691909117909155811615620000fa57620000fa81620001c6565b5050600160029081556003805460ff19169055869150811115620001225762000122620002fc565b6101208160028111156200013a576200013a620002fc565b60f81b9052506101408490526001600160a01b03831615806200016457506001600160a01b038216155b806200017757506001600160a01b038116155b156200019657604051637138356f60e01b815260040160405180910390fd5b6001600160601b0319606093841b811660805291831b821660a05290911b1660c052506200031295505050505050565b6001600160a01b038116331415620002215760405162461bcd60e51b815260206004820152601760248201527f43616e6e6f74207472616e7366657220746f2073656c660000000000000000006044820152606401620000be565b600180546001600160a01b0319166001600160a01b0383811691821790925560008054604051929316917fed8889f560326eb138920d842192f0eb3dd22b4f139c87a2c57538e05bae12789190a350565b80516001600160a01b03811681146200028a57600080fd5b919050565b600080600080600060a08688031215620002a857600080fd5b855160038110620002b857600080fd5b60208701519095509350620002d06040870162000272565b9250620002e06060870162000272565b9150620002f06080870162000272565b90509295509295909350565b634e487b7160e01b600052602160045260246000fd5b60805160601c60a05160601c60c05160601c60e05160601c6101005160601c6101205160f81c610140516143f7620003e16000396000818161027f0152612f7501526000818161035601528181612fc8015261311e0152600081816102ed015261315601526000818161031c015261308d0152600081816102580152612d020152600081816103e70152612dd601526000818161020c01528181610835015281816109ff0152818161105b015281816114080152818161161d01528181611a790152611aff01526143f76000f3fe608060405234801561001057600080fd5b50600436106101da5760003560e01c80638da5cb5b11610104578063b148ab6b116100a2578063c804802211610071578063c80480221461046e578063da5c674114610481578063eb5dcd6c14610494578063f2fde38b146104a757600080fd5b8063b148ab6b1461041c578063b79550be1461042f578063b7fdb43614610437578063c41b813a1461044a57600080fd5b8063a710b221116100de578063a710b221146103bc578063a72aa27e146103cf578063ad178361146103e2578063b121e1471461040957600080fd5b80638da5cb5b146103855780638e86139b14610396578063948108f7146103a957600080fd5b8063744bfe611161017c5780638456cb591161014b5780638456cb591461030f578063850cce341461031757806385c1b0ba1461033e5780638811cbe81461035157600080fd5b8063744bfe61146102c557806379ba5097146102d85780637d9b97e0146102e05780637f37618e146102e857600080fd5b80633f4ba83a116101b85780633f4ba83a1461024b5780634584a419146102535780635077b2101461027a5780635c975abb146102af57600080fd5b8063187256e8146101df5780631a2af011146101f45780631b6b6d2314610207575b600080fd5b6101f26101ed3660046137b2565b6104ba565b005b6101f2610202366004613b3f565b610500565b61022e7f000000000000000000000000000000000000000000000000000000000000000081565b6040516001600160a01b0390911681526020015b60405180910390f35b6101f2610673565b61022e7f000000000000000000000000000000000000000000000000000000000000000081565b6102a17f000000000000000000000000000000000000000000000000000000000000000081565b604051908152602001610242565b60035460ff166040519015158152602001610242565b6101f26102d3366004613b3f565b610685565b6101f26108c5565b6101f2610974565b61022e7f000000000000000000000000000000000000000000000000000000000000000081565b6101f2610a8c565b61022e7f000000000000000000000000000000000000000000000000000000000000000081565b6101f261034c3660046138cd565b610a9c565b6103787f000000000000000000000000000000000000000000000000000000000000000081565b6040516102429190613f54565b6000546001600160a01b031661022e565b6101f26103a4366004613a77565b6110e5565b6101f26103b7366004613b85565b6112d9565b6101f26103ca36600461377f565b6114d2565b6101f26103dd366004613b62565b6116aa565b61022e7f000000000000000000000000000000000000000000000000000000000000000081565b6101f2610417366004613764565b611836565b6101f261042a366004613b0d565b6118e3565b6101f2611a59565b6101f2610445366004613862565b611b6c565b61045d610458366004613b3f565b611db9565b604051610242959493929190613e75565b6101f261047c366004613b0d565b612000565b6102a161048f3660046137ed565b612281565b6101f26104a236600461377f565b612406565b6101f26104b5366004613764565b6124e7565b6104c26124fb565b6001600160a01b0382166000908152600c60205260409020805482919060ff191660018360038111156104f7576104f76141e5565b02179055505050565b60008281526007602090815260409182902082516101008101845281546001600160601b0380821683526001600160a01b03600160601b92839004811695840195909552600184015490811695830195909552909304821660608401526002015463ffffffff8082166080850152600160201b82041660a0840152600160401b810490911660c083015260ff600160e01b90910416151560e08201526105a58161254e565b6001600160a01b0382163314156105cf57604051638c8728c760e01b815260040160405180910390fd5b6001600160a01b0382166105f657604051634e46966960e11b815260040160405180910390fd5b6000838152600a60205260409020546001600160a01b0383811691161461066e576000838152600a602052604080822080546001600160a01b0319166001600160a01b03861690811790915590519091339186917fb1cbb2c4b8480034c27e06da5f096b8233a8fd4497028593a41ff6df79726b3591a45b505050565b61067b6124fb565b6106836125af565b565b6001600160a01b0381166106ac57604051634e46966960e11b815260040160405180910390fd5b60008281526007602090815260409182902082516101008101845281546001600160601b038082168352600160601b918290046001600160a01b039081169584019590955260018401549081169583019590955290930482166060840181905260029091015463ffffffff8082166080860152600160201b82041660a0850152600160401b810490921660c0840152600160e01b90910460ff16151560e0830152331461076c5760405163523e0b8360e11b815260040160405180910390fd5b438160a0015163ffffffff16111561079a576040516001627b1a2360e01b0319815260040160405180910390fd5b6000838152600760205260409020546012546001600160601b03909116906107c39082906140ea565b6012556000848152600760205260409081902080546001600160601b03191690555184907ff3b5906e5672f3e524854103bcafbbdba80dbdfeca2c35e116127b1060a68318906108169084908790613fa1565b60405180910390a260405163a9059cbb60e01b81526001600160a01b037f0000000000000000000000000000000000000000000000000000000000000000169063a9059cbb9061086c9086908590600401613cf3565b602060405180830381600087803b15801561088657600080fd5b505af115801561089a573d6000803e3d6000fd5b505050506040513d601f19601f820116820180604052508101906108be9190613a03565b5050505050565b6001546001600160a01b0316331461091d5760405162461bcd60e51b815260206004820152601660248201527526bab9ba10313290383937b837b9b2b21037bbb732b960511b60448201526064015b60405180910390fd5b60008054336001600160a01b0319808316821784556001805490911690556040516001600160a01b0390921692909183917f8be0079c531659141344cd1fd0a4f28419497f9722a3daafe3b4186f6b6457e091a350565b61097c6124fb565b6011546012546001600160601b03909116906109999082906140ea565b601255601180546001600160601b03191690556040516001600160601b03821681527f1d07d0b0be43d3e5fee41a80b579af370affee03fa595bf56d5d4c19328162f19060200160405180910390a160405163a9059cbb60e01b81526001600160a01b037f0000000000000000000000000000000000000000000000000000000000000000169063a9059cbb90610a369033908590600401613cf3565b602060405180830381600087803b158015610a5057600080fd5b505af1158015610a64573d6000803e3d6000fd5b505050506040513d601f19601f82011682018060405250810190610a889190613a03565b5050565b610a946124fb565b610683612601565b60016001600160a01b0382166000908152600c602052604090205460ff166003811115610acb57610acb6141e5565b14158015610b06575060036001600160a01b0382166000908152600c602052604090205460ff166003811115610b0357610b036141e5565b14155b15610b24576040516303afbb0f60e21b815260040160405180910390fd5b6013546001600160a01b0316610b4d5760405163d12d7d8d60e01b815260040160405180910390fd5b81610b6b57604051632c2fc94160e01b815260040160405180910390fd5b6000610b756132e5565b600080856001600160401b03811115610b9057610b90614227565b604051908082528060200260200182016040528015610bc357816020015b6060815260200190600190039081610bae5790505b5090506000866001600160401b03811115610be057610be0614227565b604051908082528060200260200182016040528015610c1957816020015b610c066132e5565b815260200190600190039081610bfe5790505b50905060005b87811015610e9157888882818110610c3957610c39614211565b6020908102929092013560008181526007845260409081902081516101008101835281546001600160601b038082168352600160601b918290046001600160a01b0390811698840198909852600184015490811694830194909452909204851660608301526002015463ffffffff8082166080840152600160201b82041660a0830152600160401b810490941660c0820152600160e01b90930460ff16151560e08401529750909550610ced90508561254e565b84828281518110610d0057610d00614211565b6020026020010181905250600b60008781526020019081526020016000208054610d2990614155565b80601f0160208091040260200160405190810160405280929190818152602001828054610d5590614155565b8015610da25780601f10610d7757610100808354040283529160200191610da2565b820191906000526020600020905b815481529060010190602001808311610d8557829003601f168201915b5050505050838281518110610db957610db9614211565b60209081029190910101528451610dd9906001600160601b031685614066565b60008781526007602090815260408083208381556001810184905560020180546001600160e81b0319169055600b9091528120919550610e199190613329565b6000868152600a6020526040902080546001600160a01b0319169055610e4060058761263e565b50857fb38647142fbb1ea4c000fc4569b37a4e9a9f6313317b84ee3e5326c1a6cd06ff866000015189604051610e77929190613fa1565b60405180910390a280610e8981614190565b915050610c1f565b5082601254610ea091906140ea565b601255604051600090610ebd908a908a9085908790602001613d47565b6040516020818303038152906040529050866001600160a01b0316638e86139b601360009054906101000a90046001600160a01b03166001600160a01b031663c71249ab60018b6001600160a01b03166348013d7b6040518163ffffffff1660e01b8152600401602060405180830381600087803b158015610f3e57600080fd5b505af1158015610f52573d6000803e3d6000fd5b505050506040513d601f19601f82011682018060405250810190610f769190613aec565b866040518463ffffffff1660e01b8152600401610f9593929190613f67565b60006040518083038186803b158015610fad57600080fd5b505afa158015610fc1573d6000803e3d6000fd5b505050506040513d6000823e601f3d908101601f19168201604052610fe99190810190613ab8565b6040518263ffffffff1660e01b81526004016110059190613e62565b600060405180830381600087803b15801561101f57600080fd5b505af1158015611033573d6000803e3d6000fd5b505060405163a9059cbb60e01b81526001600160a01b038a81166004830152602482018890527f000000000000000000000000000000000000000000000000000000000000000016925063a9059cbb9150604401602060405180830381600087803b1580156110a157600080fd5b505af11580156110b5573d6000803e3d6000fd5b505050506040513d601f19601f820116820180604052508101906110d99190613a03565b50505050505050505050565b6002336000908152600c602052604090205460ff16600381111561110b5761110b6141e5565b1415801561113d57506003336000908152600c602052604090205460ff16600381111561113a5761113a6141e5565b14155b1561115b576040516303afbb0f60e21b815260040160405180910390fd5b6000808061116b84860186613920565b92509250925060005b83518110156112d15761124f84828151811061119257611192614211565b60200260200101518483815181106111ac576111ac614211565b602002602001015160c001518584815181106111ca576111ca614211565b6020026020010151608001518685815181106111e8576111e8614211565b60200260200101516060015187868151811061120657611206614211565b60200260200101516000015187878151811061122457611224614211565b602002602001015189888151811061123e5761123e614211565b602002602001015160e00151612653565b83818151811061126157611261614211565b60200260200101517f74931a144e43a50694897f241d973aecb5024c0e910f9bb80a163ea3c1cf5a7184838151811061129c5761129c614211565b602002602001015160000151336040516112b7929190613fa1565b60405180910390a2806112c981614190565b915050611174565b505050505050565b60008281526007602090815260409182902082516101008101845281546001600160601b038082168352600160601b918290046001600160a01b0390811695840195909552600184015490811695830195909552909304821660608401526002015463ffffffff8082166080850152600160201b8204811660a08501819052600160401b830490931660c0850152600160e01b90910460ff16151560e08401521461139757604051634e0041d160e11b815260040160405180910390fd5b80516113a490839061407e565b600084815260076020526040902080546001600160601b0319166001600160601b039283161790556012546113db91841690614066565b6012556040516323b872dd60e01b81523360048201523060248201526001600160601b03831660448201527f00000000000000000000000000000000000000000000000000000000000000006001600160a01b0316906323b872dd90606401602060405180830381600087803b15801561145457600080fd5b505af1158015611468573d6000803e3d6000fd5b505050506040513d601f19601f8201168201806040525081019061148c9190613a03565b506040516001600160601b0383168152339084907fafd24114486da8ebfc32f3626dada8863652e187461aa74d4bfa7348915062039060200160405180910390a3505050565b6001600160a01b0381166114f957604051634e46966960e11b815260040160405180910390fd5b6001600160a01b0382811660009081526008602090815260409182902082516060810184528154948516808252600160a01b9095046001600160601b0316928101929092526001015460ff1615159181019190915290331461156e5760405163cebf515b60e01b815260040160405180910390fd5b6001600160a01b03808416600090815260086020908152604090912080549092169091558101516012546115ab916001600160601b0316906140ea565b6012556020808201516040513381526001600160a01b03808616936001600160601b0390931692908716917f9819093176a1851202c7bcfa46845809b4e47c261866550e94ed3775d2f40698910160405180910390a4602081015160405163a9059cbb60e01b81526001600160a01b037f0000000000000000000000000000000000000000000000000000000000000000169163a9059cbb91611652918691600401613cf3565b602060405180830381600087803b15801561166c57600080fd5b505af1158015611680573d6000803e3d6000fd5b505050506040513d601f19601f820116820180604052508101906116a49190613a03565b50505050565b6108fc8163ffffffff1610806116cb5750600e5463ffffffff908116908216115b156116e9576040516314c237fb60e01b815260040160405180910390fd5b60008281526007602090815260409182902082516101008101845281546001600160601b038082168352600160601b918290046001600160a01b0390811695840195909552600184015490811695830195909552909304821660608401526002015463ffffffff8082166080850152600160201b8204811660a08501819052600160401b830490931660c0850152600160e01b90910460ff16151560e0840152146117a757604051634e0041d160e11b815260040160405180910390fd5b60608101516001600160a01b031633146117d45760405163523e0b8360e11b815260040160405180910390fd5b600083815260076020908152604091829020600201805463ffffffff191663ffffffff8616908117909155915191825284917fc24c07e655ce79fba8a589778987d3c015bc6af1632bb20cf9182e02a65d972c910160405180910390a2505050565b6001600160a01b03818116600090815260096020526040902054163314611870576040516333a973d560e11b815260040160405180910390fd5b6001600160a01b0381811660008181526008602090815260408083208054336001600160a01b031980831682179093556009909452828520805490921690915590519416939092849290917f78af32efdcad432315431e9b03d27e6cd98fb79c405fdc5af7c1714d9c0f75b39190a45050565b60008181526007602090815260409182902082516101008101845281546001600160601b038082168352600160601b918290046001600160a01b0390811695840195909552600184015490811695830195909552909304821660608401526002015463ffffffff8082166080850152600160201b8204811660a08501819052600160401b830490931660c0850152600160e01b90910460ff16151560e0840152146119a157604051634e0041d160e11b815260040160405180910390fd5b6000828152600a60205260409020546001600160a01b031633146119d857604051636352a85360e01b815260040160405180910390fd5b6060810151600083815260076020908152604080832060010180546001600160601b031633600160601b810291909117909155600a90925280832080546001600160a01b03191690555190916001600160a01b0384169186917f5cff4db96bef051785e999f44bfcd21c18823e034fb92dd376e3db4ce0feeb2c91a4505050565b611a616124fb565b6040516370a0823160e01b81523060048201526000907f00000000000000000000000000000000000000000000000000000000000000006001600160a01b0316906370a082319060240160206040518083038186803b158015611ac357600080fd5b505afa158015611ad7573d6000803e3d6000fd5b505050506040513d601f19601f82011682018060405250810190611afb9190613b26565b90507f00000000000000000000000000000000000000000000000000000000000000006001600160a01b031663a9059cbb3360125484611b3b91906140ea565b6040516001600160e01b031960e085901b1681526001600160a01b0390921660048301526024820152604401610a36565b611b746124fb565b8281141580611b835750600283105b15611ba1576040516367aa603560e11b815260040160405180910390fd5b60005b600454811015611c0257600060048281548110611bc357611bc3614211565b60009182526020808320909101546001600160a01b031682526008905260409020600101805460ff191690555080611bfa81614190565b915050611ba4565b5060005b83811015611d68576000858583818110611c2257611c22614211565b9050602002016020810190611c379190613764565b6001600160a01b03808216600090815260086020526040812080549394509290911690868686818110611c6c57611c6c614211565b9050602002016020810190611c819190613764565b90506001600160a01b0381161580611cd357506001600160a01b03821615801590611cbe5750806001600160a01b0316826001600160a01b031614155b8015611cd357506001600160a01b0381811614155b15611cf157604051631670f44760e31b815260040160405180910390fd5b600183015460ff1615611d1757604051630d5f433160e21b815260040160405180910390fd5b6001838101805460ff191690911790556001600160a01b0381811614611d515782546001600160a01b0319166001600160a01b0382161783555b505050508080611d6090614190565b915050611c06565b50611d7560048585613363565b507f056264c94f28bb06c99d13f0446eb96c67c215d8d707bce2655a98ddf1c0b71f84848484604051611dab9493929190613d15565b60405180910390a150505050565b6060600080600080611dc96128ed565b600087815260076020908152604080832081516101008101835281546001600160601b038082168352600160601b918290046001600160a01b03908116848801526001850154918216848701529190048116606083015260029092015463ffffffff8082166080840152600160201b82041660a0830152600160401b810490921660c0820152600160e01b90910460ff16151560e08201528a8452600b9092528083209051919291636e04ff0d60e01b91611e8691602401613eac565b604051602081830303815290604052906001600160e01b0319166020820180516001600160e01b03838183161783525050505090506000808360c001516001600160a01b0316600d600001600b9054906101000a900463ffffffff1663ffffffff1684604051611ef69190613cd7565b60006040518083038160008787f1925050503d8060008114611f34576040519150601f19603f3d011682016040523d82523d6000602084013e611f39565b606091505b509150915081611f5e57806040516396c3623560e01b81526004016109149190613e62565b80806020019051810190611f729190613a27565b9950915081611f945760405163865676e360e01b815260040160405180910390fd5b6000611fa38b8d8c600061290c565b9050611fb885826000015183606001516129d7565b60608101516080820151600d5460a08401518d939291611fe491600160901b90910461ffff16906140cb565b60c090940151929f919e509c50919a5098509650505050505050565b600081815260076020908152604080832081516101008101835281546001600160601b038082168352600160601b918290046001600160a01b0390811696840196909652600184015490811694830194909452909204831660608301526002015463ffffffff8082166080840152600160201b8204811660a08401819052600160401b8304851660c0850152600160e01b90920460ff16151560e084015293549193148015929190911633149082906120cc57508080156120ca5750438360a0015163ffffffff16115b155b156120ea57604051631f7806af60e31b815260040160405180910390fd5b8015801561210e575082606001516001600160a01b0316336001600160a01b031614155b1561212c57604051637dedc72b60e11b815260040160405180910390fd5b43816121405761213d603282614066565b90505b6000858152600760205260409020600201805463ffffffff808416600160201b0267ffffffff00000000199092169190911790915561218490600590879061263e16565b50600d5460408501516001600160601b03600160a01b909204821691600091168211156121de5760408601516121ba9083614101565b905085600001516001600160601b0316816001600160601b031611156121de575084515b85516121eb908290614101565b600088815260076020526040902080546001600160601b0319166001600160601b039283161790556011546122229183911661407e565b601180546001600160601b0319166001600160601b03929092169190911790556040516001600160401b0384169088907f91cb3bb75cfbd718bbfccc56b7f53d92d7048ef4ca39a3b7b7c6d4af1f79118190600090a350505050505050565b600080546001600160a01b031633148015906122a857506014546001600160a01b03163314155b156122c65760405163d48b678b60e01b815260040160405180910390fd5b6122d16001436140ea565b600e5460408051924060208401523060601b6001600160601b03191690830152600160201b900460e01b6001600160e01b03191660548201526058016040516020818303038152906040528051906020012060001c905061236d81878787600088888080601f01602080910402602001604051908101604052809392919081815260200183838082843760009201829052509250612653915050565b600e8054600160201b900463ffffffff1690600461238a836141ab565b91906101000a81548163ffffffff021916908363ffffffff16021790555050807fbae366358c023f887e791d7a62f2e4316f1026bd77f6fb49501a917b3bc5d01286866040516123f592919063ffffffff9290921682526001600160a01b0316602082015260400190565b60405180910390a295945050505050565b6001600160a01b038281166000908152600860205260409020541633146124405760405163cebf515b60e01b815260040160405180910390fd5b6001600160a01b03811633141561246a57604051638c8728c760e01b815260040160405180910390fd5b6001600160a01b03828116600090815260096020526040902054811690821614610a88576001600160a01b0382811660008181526009602052604080822080546001600160a01b0319169486169485179055513392917f84f7c7c80bb8ed2279b4aab5f61cd05e6374073d38f46d7f32de8c30e9e3836791a45050565b6124ef6124fb565b6124f881612a97565b50565b6000546001600160a01b031633146106835760405162461bcd60e51b815260206004820152601660248201527527b7363c9031b0b63630b1363290313c9037bbb732b960511b6044820152606401610914565b80606001516001600160a01b0316336001600160a01b0316146125845760405163523e0b8360e11b815260040160405180910390fd5b60a081015163ffffffff908116146124f857604051634e0041d160e11b815260040160405180910390fd5b6125b7612b41565b6003805460ff191690557f5db9ee0a495bf2e6ff9c91a7834c1ba4fdd244a5e8aa4e537bd38aeae4b073aa335b6040516001600160a01b03909116815260200160405180910390a1565b612609612b8a565b6003805460ff191660011790557f62e78cea01bee320cd4e420270b5ea74000d11b0c9f74754ebdbfc544b05a2586125e43390565b600061264a8383612bd0565b90505b92915050565b61265b612b8a565b6001600160a01b0386163b612683576040516309ee12d560e01b815260040160405180910390fd5b6108fc8563ffffffff1610806126a45750600e5463ffffffff908116908616115b156126c2576040516314c237fb60e01b815260040160405180910390fd5b604051806101000160405280846001600160601b0316815260200160006001600160a01b0316815260200160006001600160601b03168152602001856001600160a01b031681526020018663ffffffff16815260200163ffffffff80168152602001876001600160a01b031681526020018215158152506007600089815260200190815260200160002060008201518160000160006101000a8154816001600160601b0302191690836001600160601b03160217905550602082015181600001600c6101000a8154816001600160a01b0302191690836001600160a01b0316021790555060408201518160010160006101000a8154816001600160601b0302191690836001600160601b03160217905550606082015181600101600c6101000a8154816001600160a01b0302191690836001600160a01b0316021790555060808201518160020160006101000a81548163ffffffff021916908363ffffffff16021790555060a08201518160020160046101000a81548163ffffffff021916908363ffffffff16021790555060c08201518160020160086101000a8154816001600160a01b0302191690836001600160a01b0316021790555060e082015181600201601c6101000a81548160ff021916908315150217905550905050826001600160601b03166012546128b59190614066565b6012556000878152600b6020908152604090912083516128d7928501906133c6565b506128e3600588612cc3565b5050505050505050565b32156106835760405163b60ac5db60e01b815260040160405180910390fd5b6129556040518060e0016040528060006001600160a01b031681526020016000815260200160608152602001600081526020016000815260200160008152602001600081525090565b60008481526007602052604081206002015463ffffffff169080612977612ccf565b91509150600061298984848489612eb0565b6040805160e0810182526001600160a01b03909b168b5260208b0199909952978901969096526001600160601b039096166060880152608087019190915260a086015250505060c082015290565b8260e00151156129fa57604051631452db0960e21b815260040160405180910390fd5b6001600160a01b03821660009081526008602052604090206001015460ff16612a36576040516319f759fb60e31b815260040160405180910390fd5b82516001600160601b0316811115612a615760405163356680b760e01b815260040160405180910390fd5b816001600160a01b031683602001516001600160a01b0316141561066e57604051621af04160e61b815260040160405180910390fd5b6001600160a01b038116331415612af05760405162461bcd60e51b815260206004820152601760248201527f43616e6e6f74207472616e7366657220746f2073656c660000000000000000006044820152606401610914565b600180546001600160a01b0319166001600160a01b0383811691821790925560008054604051929316917fed8889f560326eb138920d842192f0eb3dd22b4f139c87a2c57538e05bae12789190a350565b60035460ff166106835760405162461bcd60e51b815260206004820152601460248201527314185d5cd8589b194e881b9bdd081c185d5cd95960621b6044820152606401610914565b60035460ff16156106835760405162461bcd60e51b815260206004820152601060248201526f14185d5cd8589b194e881c185d5cd95960821b6044820152606401610914565b60008181526001830160205260408120548015612cb9576000612bf46001836140ea565b8554909150600090612c08906001906140ea565b9050818114612c6d576000866000018281548110612c2857612c28614211565b9060005260206000200154905080876000018481548110612c4b57612c4b614211565b6000918252602080832090910192909255918252600188019052604090208390555b8554869080612c7e57612c7e6141fb565b60019003818190600052602060002001600090559055856001016000868152602001908152602001600020600090556001935050505061264d565b600091505061264d565b600061264a8383613296565b6000806000600d600001600f9054906101000a900462ffffff1662ffffff1690506000808263ffffffff161190506000807f00000000000000000000000000000000000000000000000000000000000000006001600160a01b031663feaf968c6040518163ffffffff1660e01b815260040160a06040518083038186803b158015612d5957600080fd5b505afa158015612d6d573d6000803e3d6000fd5b505050506040513d601f19601f82011682018060405250810190612d919190613ba8565b509450909250849150508015612db55750612dac82426140ea565b8463ffffffff16105b80612dc1575060008113155b15612dd057600f549550612dd4565b8095505b7f00000000000000000000000000000000000000000000000000000000000000006001600160a01b031663feaf968c6040518163ffffffff1660e01b815260040160a06040518083038186803b158015612e2d57600080fd5b505afa158015612e41573d6000803e3d6000fd5b505050506040513d601f19601f82011682018060405250810190612e659190613ba8565b509450909250849150508015612e895750612e8082426140ea565b8463ffffffff16105b80612e95575060008113155b15612ea4576010549450612ea8565b8094505b505050509091565b6040805161012081018252600d5463ffffffff8082168352600160201b80830482166020850152600160401b830462ffffff90811695850195909552600160581b830482166060850152600160781b83049094166080840152600160901b820461ffff1660a08401819052600160a01b9092046001600160601b031660c0840152600e5480821660e0850152939093049092166101008201526000918290612f5890876140cb565b9050838015612f665750803a105b15612f6e57503a5b6000612f9a7f000000000000000000000000000000000000000000000000000000000000000089614066565b612fa490836140cb565b8351909150600090612fc09063ffffffff16633b9aca00614066565b9050600060027f00000000000000000000000000000000000000000000000000000000000000006002811115612ff857612ff86141e5565b141561311a5760408051600081526020810190915287156130575760003660405180608001604052806048815260200161426a6048913960405160200161304193929190613cb0565b6040516020818303038152906040529050613076565b60405180610140016040528061011081526020016142b2610110913990505b6040516324ca470760e11b81526001600160a01b037f000000000000000000000000000000000000000000000000000000000000000016906349948e0e906130c2908490600401613e62565b60206040518083038186803b1580156130da57600080fd5b505afa1580156130ee573d6000803e3d6000fd5b505050506040513d601f19601f820116820180604052508101906131129190613b26565b9150506131e8565b60017f0000000000000000000000000000000000000000000000000000000000000000600281111561314e5761314e6141e5565b14156131e8577f00000000000000000000000000000000000000000000000000000000000000006001600160a01b031663c6f7de0e6040518163ffffffff1660e01b815260040160206040518083038186803b1580156131ad57600080fd5b505afa1580156131c1573d6000803e3d6000fd5b505050506040513d601f19601f820116820180604052508101906131e59190613b26565b90505b8661320457808560a0015161ffff1661320191906140cb565b90505b6000856020015163ffffffff1664e8d4a5100061322191906140cb565b898461322d8588614066565b61323b90633b9aca006140cb565b61324591906140cb565b61324f91906140a9565b6132599190614066565b90506b033b2e3c9fd0803ce80000008111156132885760405163156baa3d60e11b815260040160405180910390fd5b9a9950505050505050505050565b60008181526001830160205260408120546132dd5750815460018181018455600084815260208082209093018490558454848252828601909352604090209190915561264d565b50600061264d565b6040805161010081018252600080825260208201819052918101829052606081018290526080810182905260a0810182905260c0810182905260e081019190915290565b50805461333590614155565b6000825580601f10613345575050565b601f0160209004906000526020600020908101906124f8919061343a565b8280548282559060005260206000209081019282156133b6579160200282015b828111156133b65781546001600160a01b0319166001600160a01b03843516178255602090920191600190910190613383565b506133c292915061343a565b5090565b8280546133d290614155565b90600052602060002090601f0160209004810192826133f457600085556133b6565b82601f1061340d57805160ff19168380011785556133b6565b828001600101855582156133b6579182015b828111156133b657825182559160200191906001019061341f565b5b808211156133c2576000815560010161343b565b80356001600160a01b038116811461346657600080fd5b919050565b60008083601f84011261347d57600080fd5b5081356001600160401b0381111561349457600080fd5b6020830191508360208260051b85010111156134af57600080fd5b9250929050565b600082601f8301126134c757600080fd5b813560206134dc6134d78361401c565b613fec565b80838252828201915082860187848660051b89010111156134fc57600080fd5b60005b8581101561357b5781356001600160401b0381111561351d57600080fd5b8801603f81018a1361352e57600080fd5b8581013560406135406134d78361403f565b8281528c8284860101111561355457600080fd5b828285018a83013760009281018901929092525085525092840192908401906001016134ff565b5090979650505050505050565b600082601f83011261359957600080fd5b813560206135a96134d78361401c565b80838252828201915082860187848660081b89010111156135c957600080fd5b6000805b868110156136835761010080848c0312156135e6578283fd5b6135ee613fc3565b6135f78561374d565b815261360488860161344f565b88820152604061361581870161374d565b90820152606061362686820161344f565b90820152608061363786820161371f565b9082015260a061364886820161371f565b9082015260c061365986820161344f565b9082015260e08581013561366c8161425b565b9082015286529486019492909201916001016135cd565b509198975050505050505050565b60008083601f8401126136a357600080fd5b5081356001600160401b038111156136ba57600080fd5b6020830191508360208285010111156134af57600080fd5b600082601f8301126136e357600080fd5b81516136f16134d78261403f565b81815284602083860101111561370657600080fd5b613717826020830160208701614129565b949350505050565b803563ffffffff8116811461346657600080fd5b805169ffffffffffffffffffff8116811461346657600080fd5b80356001600160601b038116811461346657600080fd5b60006020828403121561377657600080fd5b61264a8261344f565b6000806040838503121561379257600080fd5b61379b8361344f565b91506137a96020840161344f565b90509250929050565b600080604083850312156137c557600080fd5b6137ce8361344f565b91506020830135600481106137e257600080fd5b809150509250929050565b60008060008060006080868803121561380557600080fd5b61380e8661344f565b945061381c6020870161371f565b935061382a6040870161344f565b925060608601356001600160401b0381111561384557600080fd5b61385188828901613691565b969995985093965092949392505050565b6000806000806040858703121561387857600080fd5b84356001600160401b038082111561388f57600080fd5b61389b8883890161346b565b909650945060208701359150808211156138b457600080fd5b506138c18782880161346b565b95989497509550505050565b6000806000604084860312156138e257600080fd5b83356001600160401b038111156138f857600080fd5b6139048682870161346b565b909450925061391790506020850161344f565b90509250925092565b60008060006060848603121561393557600080fd5b83356001600160401b038082111561394c57600080fd5b818601915086601f83011261396057600080fd5b813560206139706134d78361401c565b8083825282820191508286018b848660051b890101111561399057600080fd5b600096505b848710156139b3578035835260019690960195918301918301613995565b50975050870135925050808211156139ca57600080fd5b6139d687838801613588565b935060408601359150808211156139ec57600080fd5b506139f9868287016134b6565b9150509250925092565b600060208284031215613a1557600080fd5b8151613a208161425b565b9392505050565b60008060408385031215613a3a57600080fd5b8251613a458161425b565b60208401519092506001600160401b03811115613a6157600080fd5b613a6d858286016136d2565b9150509250929050565b60008060208385031215613a8a57600080fd5b82356001600160401b03811115613aa057600080fd5b613aac85828601613691565b90969095509350505050565b600060208284031215613aca57600080fd5b81516001600160401b03811115613ae057600080fd5b613717848285016136d2565b600060208284031215613afe57600080fd5b815160038110613a2057600080fd5b600060208284031215613b1f57600080fd5b5035919050565b600060208284031215613b3857600080fd5b5051919050565b60008060408385031215613b5257600080fd5b823591506137a96020840161344f565b60008060408385031215613b7557600080fd5b823591506137a96020840161371f565b60008060408385031215613b9857600080fd5b823591506137a96020840161374d565b600080600080600060a08688031215613bc057600080fd5b613bc986613733565b9450602086015193506040860151925060608601519150613bec60808701613733565b90509295509295909350565b8183526000602080850194508260005b85811015613c34576001600160a01b03613c218361344f565b1687529582019590820190600101613c08565b509495945050505050565b6000815180845260208085019450848260051b860182860160005b8581101561357b578383038952613c72838351613c84565b98850198925090840190600101613c5a565b60008151808452613c9c816020860160208601614129565b601f01601f19169290920160200192915050565b828482376000838201600081528351613ccd818360208801614129565b0195945050505050565b60008251613ce9818460208701614129565b9190910192915050565b6001600160a01b039290921682526001600160601b0316602082015260400190565b604081526000613d29604083018688613bf8565b8281036020840152613d3c818587613bf8565b979650505050505050565b606080825281810185905260009060806001600160fb1b03871115613d6b57600080fd5b8660051b808983870137808501905081810160008152602083878403018188015281895180845260a093508385019150828b01945060005b81811015613e3e57855180516001600160601b039081168552858201516001600160a01b0316868601526040808301519091169085015288810151613df28a8601826001600160a01b03169052565b508781015163ffffffff908116858a015286820151168685015260c0808201516001600160a01b03169085015260e0908101511515908401529483019461010090920191600101613da3565b50508781036040890152613e52818a613c3f565b9c9b505050505050505050505050565b60208152600061264a6020830184613c84565b60a081526000613e8860a0830188613c84565b90508560208301528460408301528360608301528260808301529695505050505050565b600060208083526000845481600182811c915080831680613ece57607f831692505b858310811415613eec57634e487b7160e01b85526022600452602485fd5b878601838152602001818015613f095760018114613f1a57613f45565b60ff19861682528782019650613f45565b60008b81526020902060005b86811015613f3f57815484820152908501908901613f26565b83019750505b50949998505050505050505050565b60208101613f618361423d565b91905290565b613f708461423d565b838152613f7c8361423d565b826020820152606060408201526000613f986060830184613c84565b95945050505050565b6001600160601b039290921682526001600160a01b0316602082015260400190565b60405161010081016001600160401b0381118282101715613fe657613fe6614227565b60405290565b604051601f8201601f191681016001600160401b038111828210171561401457614014614227565b604052919050565b60006001600160401b0382111561403557614035614227565b5060051b60200190565b60006001600160401b0382111561405857614058614227565b50601f01601f191660200190565b60008219821115614079576140796141cf565b500190565b60006001600160601b038083168185168083038211156140a0576140a06141cf565b01949350505050565b6000826140c657634e487b7160e01b600052601260045260246000fd5b500490565b60008160001904831182151516156140e5576140e56141cf565b500290565b6000828210156140fc576140fc6141cf565b500390565b60006001600160601b0383811690831681811015614121576141216141cf565b039392505050565b60005b8381101561414457818101518382015260200161412c565b838111156116a45750506000910152565b600181811c9082168061416957607f821691505b6020821081141561418a57634e487b7160e01b600052602260045260246000fd5b50919050565b60006000198214156141a4576141a46141cf565b5060010190565b600063ffffffff808316818114156141c5576141c56141cf565b6001019392505050565b634e487b7160e01b600052601160045260246000fd5b634e487b7160e01b600052602160045260246000fd5b634e487b7160e01b600052603160045260246000fd5b634e487b7160e01b600052603260045260246000fd5b634e487b7160e01b600052604160045260246000fd5b600381106124f857634e487b7160e01b600052602160045260246000fd5b80151581146124f857600080fdfe3078666666666666666666666666666666666666666666666666666666666666666666666666666666666666666666666666666666666666666666666666666666666666666666663078666666666666666666666666666666666666666666666666666666666666666666666666666666666666666666666666666666666666666666666666666666666666666666666666666666666666666666666666666666666666666666666666666666666666666666666666666666666666666666666666666666666666666666666666666666666666666666666666666666666666666666666666666666666666666666666666666666666666666666666666666666666666666666666666666666666666666666666666666666666666666666666666666666666666666666666666666666666666666666666666666666666666666666666666666666666666666666666666666666666666a264697066735822122090461a354706be43c6d8b310c94bfba91e3372eb510c399168e9c80e5a098ed464736f6c63430008060033",
    "linkReferences": {}
  },
  "methodIdentifiers": {
    "ARB_NITRO_ORACLE()": "7f37618e",
    "FAST_GAS_FEED()": "4584a419",
    "LINK()": "1b6b6d23",
    "LINK_ETH_FEED()": "ad178361",
    "OPTIMISM_ORACLE()": "850cce34",
    "PAYMENT_MODEL()": "8811cbe8",
    "REGISTRY_GAS_OVERHEAD()": "5077b210",
    "acceptOwnership()": "79ba5097",
    "acceptPayeeship(address)": "b121e147",
    "acceptUpkeepAdmin(uint256)": "b148ab6b",
    "addFunds(uint256,uint96)": "948108f7",
    "cancelUpkeep(uint256)": "c8048022",
    "checkUpkeep(uint256,address)": "c41b813a",
    "migrateUpkeeps(uint256[],address)": "85c1b0ba",
    "owner()": "8da5cb5b",
    "pause()": "8456cb59",
    "paused()": "5c975abb",
    "receiveUpkeeps(bytes)": "8e86139b",
    "recoverFunds()": "b79550be",
    "registerUpkeep(address,uint32,address,bytes)": "da5c6741",
    "setKeepers(address[],address[])": "b7fdb436",
    "setPeerRegistryMigrationPermission(address,uint8)": "187256e8",
    "setUpkeepGasLimit(uint256,uint32)": "a72aa27e",
    "transferOwnership(address)": "f2fde38b",
    "transferPayeeship(address,address)": "eb5dcd6c",
    "transferUpkeepAdmin(uint256,address)": "1a2af011",
    "unpause()": "3f4ba83a",
    "withdrawFunds(uint256,address)": "744bfe61",
    "withdrawOwnerFunds()": "7d9b97e0",
    "withdrawPayment(address,address)": "a710b221"
  },
  "id": 26
}