{"abi":[{"type":"function","name":"getRegistry","inputs":[],"outputs":[{"name":"","type":"address","internalType":"contract IAutomationRegistryConsumer"}],"stateMutability":"view"},{"type":"function","name":"typeAndVersion","inputs":[],"outputs":[{"name":"","type":"string","internalType":"string"}],"stateMutability":"view"},{"type":"function","name":"updateRegistry","inputs":[{"name":"newRegistry","type":"address","internalType":"address"}],"outputs":[],"stateMutability":"nonpayable"}],"bytecode":{"object":"0x608060405234801561001057600080fd5b506101b5806100206000396000f3fe608060405234801561001057600080fd5b50600436106100415760003560e01c8063181f5a77146100465780631a5da6c8146100985780635ab1bd53146100ad575b600080fd5b6100826040518060400160405280601981526020017f4175746f6d6174696f6e466f7277617264657220312e302e300000000000000081525081565b60405161008f9190610101565b60405180910390f35b6100ab6100a636600461014f565b6100c8565b005b6000546040516001600160a01b03909116815260200161008f565b6000546001600160a01b031633146100df57600080fd5b600080546001600160a01b0319166001600160a01b0392909216919091179055565b600060208083528351808285015260005b8181101561012e57858101830151858201604001528201610112565b506000604082860101526040601f19601f8301168501019250505092915050565b60006020828403121561016157600080fd5b81356001600160a01b038116811461017857600080fd5b939250505056fea26469706673582212200868492e843f50a5be53797af665ee14ae58fe00c97fd98f3a7d8b90f147045664736f6c63430008100033","linkReferences":{}},"methodIdentifiers":{"getRegistry()":"5ab1bd53","typeAndVersion()":"181f5a77","updateRegistry(address)":"1a5da6c8"},"id":19}