{"abi":[{"type":"function","name":"transcodeUpkeeps","inputs":[{"name":"fromVersion","type":"uint8","internalType":"enum UpkeepFormat"},{"name":"toVersion","type":"uint8","internalType":"enum UpkeepFormat"},{"name":"encodedUpkeeps","type":"bytes","internalType":"bytes"}],"outputs":[{"name":"","type":"bytes","internalType":"bytes"}],"stateMutability":"view"},{"type":"function","name":"typeAndVersion","inputs":[],"outputs":[{"name":"","type":"string","internalType":"string"}],"stateMutability":"view"},{"type":"error","name":"InvalidTranscoding","inputs":[]}],"bytecode":{"object":"0x608060405234801561001057600080fd5b5061026d806100206000396000f3fe608060405234801561001057600080fd5b50600436106100365760003560e01c8063181f5a771461003b578063c71249ab14610086575b600080fd5b61007060405180604001604052806016815260200175055706b6565705472616e73636f64657220312e302e360541b81525081565b60405161007d9190610207565b60405180910390f35b61007061009436600461012c565b60608360028111156100a8576100a8610221565b8560028111156100ba576100ba610221565b146100d8576040516390aaccc360e01b815260040160405180910390fd5b82828080601f0160208091040260200160405190810160405280939291908181526020018383808284376000920191909152509298975050505050505050565b80356003811061012757600080fd5b919050565b6000806000806060858703121561014257600080fd5b61014b85610118565b935061015960208601610118565b9250604085013567ffffffffffffffff8082111561017657600080fd5b818701915087601f83011261018a57600080fd5b81358181111561019957600080fd5b8860208285010111156101ab57600080fd5b95989497505060200194505050565b6000815180845260005b818110156101e0576020818501810151868301820152016101c4565b818111156101f2576000602083870101525b50601f01601f19169290920160200192915050565b60208152600061021a60208301846101ba565b9392505050565b634e487b7160e01b600052602160045260246000fdfea264697066735822122085a36c61842224b41f2cb219c659173a0bbe0dfc651ae1f4cfc08db2c123ceef64736f6c63430008060033","linkReferences":{}},"methodIdentifiers":{"transcodeUpkeeps(uint8,uint8,bytes)":"c71249ab","typeAndVersion()":"181f5a77"},"id":16}