{"abi":[{"type":"constructor","inputs":[],"stateMutability":"nonpayable"},{"type":"function","name":"allowance","inputs":[{"name":"_owner","type":"address"},{"name":"_spender","type":"address"}],"outputs":[{"name":"remaining","type":"uint256"}],"stateMutability":"view"},{"type":"function","name":"approve","inputs":[{"name":"_spender","type":"address"},{"name":"_value","type":"uint256"}],"outputs":[{"name":"","type":"bool"}],"stateMutability":"nonpayable"},{"type":"function","name":"balanceOf","inputs":[{"name":"_owner","type":"address"}],"outputs":[{"name":"balance","type":"uint256"}],"stateMutability":"view"},{"type":"function","name":"decimals","inputs":[],"outputs":[{"name":"","type":"uint8"}],"stateMutability":"view"},{"type":"function","name":"decreaseApproval","inputs":[{"name":"_spender","type":"address"},{"name":"_subtractedValue","type":"uint256"}],"outputs":[{"name":"success","type":"bool"}],"stateMutability":"nonpayable"},{"type":"function","name":"increaseApproval","inputs":[{"name":"_spender","type":"address"},{"name":"_addedValue","type":"uint256"}],"outputs":[{"name":"success","type":"bool"}],"stateMutability":"nonpayable"},{"type":"function","name":"name","inputs":[],"outputs":[{"name":"","type":"string"}],"stateMutability":"view"},{"type":"function","name":"symbol","inputs":[],"outputs":[{"name":"","type":"string"}],"stateMutability":"view"},{"type":"function","name":"totalSupply","inputs":[],"outputs":[{"name":"","type":"uint256"}],"stateMutability":"view"},{"type":"function","name":"transfer","inputs":[{"name":"_to","type":"address"},{"name":"_value","type":"uint256"}],"outputs":[{"name":"success","type":"bool"}],"stateMutability":"nonpayable"},{"type":"function","name":"transferAndCall","inputs":[{"name":"_to","type":"address"},{"name":"_value","type":"uint256"},{"name":"_data","type":"bytes"}],"outputs":[{"name":"success","type":"bool"}],"stateMutability":"nonpayable"},{"type":"function","name":"transferFrom","inputs":[{"name":"_from","type":"address"},{"name":"_to","type":"address"},{"name":"_value","type":"uint256"}],"outputs":[{"name":"","type":"bool"}],"stateMutability":"nonpayable"},{"type":"event","name":"Approval","inputs":[{"name":"owner","type":"address","indexed":true},{"name":"spender","type":"address","indexed":true},{"name":"value","type":"uint256","indexed":false}],"anonymous":false},{"type":"event","name":"Transfer","inputs":[{"name":"from","type":"address","indexed":true},{"name":"to","type":"address","indexed":true},{"name":"value","type":"uint256","indexed":false},{"name":"data","type":"bytes","indexed":false}],"anonymous":false},{"type":"event","name":"Transfer","inputs":[{"name":"from","type":"address","indexed":true},{"name":"to","type":"address","indexed":true},{"name":"value","type":"uint256","indexed":false}],"anonymous":false}],"bytecode":{"object":"0x608060405234801561001057600080fd5b503360009081526001602052604090206b033b2e3c9fd0803ce80000009055610aae8061003e6000396000f30060806040526004361061009d5760003560e01c63ffffffff16806306fdde03146100a2578063095ea7b31461012c57806318160ddd1461016457806323b872dd1461018b578063313ce567146101b55780634000aea0146101e0578063661884631461024957806370a082311461026d57806395d89b411461028e578063a9059cbb146102a3578063d73dd623146102c7578063dd62ed3e146102eb575b600080fd5b3480156100ae57600080fd5b506100b7610312565b6040805160208082528351818301528351919283929083019185019080838360005b838110156100f15781810151838201526020016100d9565b50505050905090810190601f16801561011e5780820380516001836020036101000a031916815260200191505b509250505060405180910390f35b34801561013857600080fd5b50610150600160a060020a0360043516602435610349565b604080519115158252519081900360200190f35b34801561017057600080fd5b5061017961038a565b60408051918252519081900360200190f35b34801561019757600080fd5b50610150600160a060020a036004358116906024351660443561039a565b3480156101c157600080fd5b506101ca6103dd565b6040805160ff9092168252519081900360200190f35b3480156101ec57600080fd5b50604080516020600460443581810135601f8101849004840285018401909552848452610150948235600160a060020a03169460248035953695946064949201919081908401838280828437509497506103e29650505050505050565b34801561025557600080fd5b50610150600160a060020a036004351660243561041c565b34801561027957600080fd5b50610179600160a060020a036004351661050c565b34801561029a57600080fd5b506100b7610527565b3480156102af57600080fd5b50610150600160a060020a036004351660243561055e565b3480156102d357600080fd5b50610150600160a060020a0360043516602435610597565b3480156102f757600080fd5b50610179600160a060020a0360043581169060243516610630565b60408051808201909152600f81527f436861696e4c696e6b20546f6b656e0000000000000000000000000000000000602082015281565b600082600160a060020a0381161580159061036d5750600160a060020a0381163014155b151561037857600080fd5b610382848461065b565b949350505050565b6b033b2e3c9fd0803ce800000081565b600082600160a060020a038116158015906103be5750600160a060020a0381163014155b15156103c957600080fd5b6103d48585856106c1565b95945050505050565b601281565b600083600160a060020a038116158015906104065750600160a060020a0381163014155b151561041157600080fd5b6103d48585856107cd565b336000908152600260209081526040808320600160a060020a03861684529091528120548083111561047157336000908152600260209081526040808320600160a060020a03881684529091528120556104a6565b610481818463ffffffff6108b216565b336000908152600260209081526040808320600160a060020a03891684529091529020555b336000818152600260209081526040808320600160a060020a0389168085529083529281902054815190815290519293927f8c5be1e5ebec7d5bd14f71427d1e84f3dd0314c0f7b2291e5b200ac8c7c3b925929181900390910190a35060019392505050565b600160a060020a031660009081526001602052604090205490565b60408051808201909152600481527f4c494e4b00000000000000000000000000000000000000000000000000000000602082015281565b600082600160a060020a038116158015906105825750600160a060020a0381163014155b151561058d57600080fd5b61038284846108c4565b336000908152600260209081526040808320600160a060020a03861684529091528120546105cb908363ffffffff61097416565b336000818152600260209081526040808320600160a060020a0389168085529083529281902085905580519485525191937f8c5be1e5ebec7d5bd14f71427d1e84f3dd0314c0f7b2291e5b200ac8c7c3b925929081900390910190a350600192915050565b600160a060020a03918216600090815260026020908152604080832093909416825291909152205490565b336000818152600260209081526040808320600160a060020a038716808552908352818420869055815186815291519394909390927f8c5be1e5ebec7d5bd14f71427d1e84f3dd0314c0f7b2291e5b200ac8c7c3b925928290030190a350600192915050565b600160a060020a03831660008181526002602090815260408083203384528252808320549383526001909152812054909190610703908463ffffffff6108b216565b600160a060020a038087166000908152600160205260408082209390935590861681522054610738908463ffffffff61097416565b600160a060020a038516600090815260016020526040902055610761818463ffffffff6108b216565b600160a060020a03808716600081815260026020908152604080832033845282529182902094909455805187815290519288169391927fddf252ad1be2c89b69c2b068fc378daa952ba7f163c4a11628f55a4df523b3ef929181900390910190a3506001949350505050565b60006107d984846108c4565b5083600160a060020a031633600160a060020a03167fe19260aff97b920c7df27010903aeb9c8d2be5d310a2c67824cf3f15396e4c1685856040518083815260200180602001828103825283818151815260200191508051906020019080838360005b8381101561085457818101518382015260200161083c565b50505050905090810190601f1680156108815780820380516001836020036101000a031916815260200191505b50935050505060405180910390a361089884610987565b156108a8576108a884848461098f565b5060019392505050565b6000828211156108be57fe5b50900390565b336000908152600160205260408120546108e4908363ffffffff6108b216565b3360009081526001602052604080822092909255600160a060020a03851681522054610916908363ffffffff61097416565b600160a060020a0384166000818152600160209081526040918290209390935580518581529051919233927fddf252ad1be2c89b69c2b068fc378daa952ba7f163c4a11628f55a4df523b3ef9281900390910190a350600192915050565b8181018281101561098157fe5b92915050565b6000903b1190565b6040517fa4c0ed360000000000000000000000000000000000000000000000000000000081523360048201818152602483018590526060604484019081528451606485015284518794600160a060020a0386169463a4c0ed369490938993899360840190602085019080838360005b83811015610a165781810151838201526020016109fe565b50505050905090810190601f168015610a435780820380516001836020036101000a031916815260200191505b50945050505050600060405180830381600087803b158015610a6457600080fd5b505af1158015610a78573d6000803e3d6000fd5b50505050505050505600a165627a7a723058207ff09a5906f1b240aeb64d25d1a289f65abf4e7a5f9f748523900c5c2531485e0029","linkReferences":{}},"methodIdentifiers":{"allowance(address,address)":"dd62ed3e","approve(address,uint256)":"095ea7b3","balanceOf(address)":"70a08231","decimals()":"313ce567","decreaseApproval(address,uint256)":"66188463","increaseApproval(address,uint256)":"d73dd623","name()":"06fdde03","symbol()":"95d89b41","totalSupply()":"18160ddd","transfer(address,uint256)":"a9059cbb","transferAndCall(address,uint256,bytes)":"4000aea0","transferFrom(address,address,uint256)":"23b872dd"},"id":2}