{"abi":[{"type":"constructor","inputs":[{"name":"LINKAddress","type":"address","internalType":"address"},{"name":"keeperRegistry","type":"address","internalType":"address"},{"name":"minLINKJuels","type":"uint96","internalType":"uint96"},{"name":"triggerConfigs","type":"tuple[]","internalType":"struct AutomationRegistrar2_1.InitialTriggerConfig[]","components":[{"name":"triggerType","type":"uint8","internalType":"uint8"},{"name":"autoApproveType","type":"uint8","internalType":"enum AutomationRegistrar2_1.AutoApproveType"},{"name":"autoApproveMaxAllowed","type":"uint32","internalType":"uint32"}]}],"stateMutability":"nonpayable"},{"type":"function","name":"LINK","inputs":[],"outputs":[{"name":"","type":"address","internalType":"contract LinkTokenInterface"}],"stateMutability":"view"},{"type":"function","name":"acceptOwnership","inputs":[],"outputs":[],"stateMutability":"nonpayable"},{"type":"function","name":"approve","inputs":[{"name":"name","type":"string","internalType":"string"},{"name":"upkeepContract","type":"address","internalType":"address"},{"name":"gasLimit","type":"uint32","internalType":"uint32"},{"name":"adminAddress","type":"address","internalType":"address"},{"name":"triggerType","type":"uint8","internalType":"uint8"},{"name":"checkData","type":"bytes","internalType":"bytes"},{"name":"triggerConfig","type":"bytes","internalType":"bytes"},{"name":"offchainConfig","type":"bytes","internalType":"bytes"},{"name":"hash","type":"bytes32","internalType":"bytes32"}],"outputs":[],"stateMutability":"nonpayable"},{"type":"function","name":"cancel","inputs":[{"name":"hash","type":"bytes32","internalType":"bytes32"}],"outputs":[],"stateMutability":"nonpayable"},{"type":"function","name":"getAutoApproveAllowedSender","inputs":[{"name":"senderAddress","type":"address","internalType":"address"}],"outputs":[{"name":"","type":"bool","internalType":"bool"}],"stateMutability":"view"},{"type":"function","name":"getConfig","inputs":[],"outputs":[{"name":"keeperRegistry","type":"address","internalType":"address"},{"name":"minLINKJuels","type":"uint256","internalType":"uint256"}],"stateMutability":"view"},{"type":"function","name":"getPendingRequest","inputs":[{"name":"hash","type":"bytes32","internalType":"bytes32"}],"outputs":[{"name":"","type":"address","internalType":"address"},{"name":"","type":"uint96","internalType":"uint96"}],"stateMutability":"view"},{"type":"function","name":"getTriggerRegistrationDetails","inputs":[{"name":"triggerType","type":"uint8","internalType":"uint8"}],"outputs":[{"name":"","type":"tuple","internalType":"struct AutomationRegistrar2_1.TriggerRegistrationStorage","components":[{"name":"autoApproveType","type":"uint8","internalType":"enum AutomationRegistrar2_1.AutoApproveType"},{"name":"autoApproveMaxAllowed","type":"uint32","internalType":"uint32"},{"name":"approvedCount","type":"uint32","internalType":"uint32"}]}],"stateMutability":"view"},{"type":"function","name":"onTokenTransfer","inputs":[{"name":"sender","type":"address","internalType":"address"},{"name":"amount","type":"uint256","internalType":"uint256"},{"name":"data","type":"bytes","internalType":"bytes"}],"outputs":[],"stateMutability":"nonpayable"},{"type":"function","name":"owner","inputs":[],"outputs":[{"name":"","type":"address","internalType":"address"}],"stateMutability":"view"},{"type":"function","name":"register","inputs":[{"name":"name","type":"string","internalType":"string"},{"name":"encryptedEmail","type":"bytes","internalType":"bytes"},{"name":"upkeepContract","type":"address","internalType":"address"},{"name":"gasLimit","type":"uint32","internalType":"uint32"},{"name":"adminAddress","type":"address","internalType":"address"},{"name":"triggerType","type":"uint8","internalType":"uint8"},{"name":"checkData","type":"bytes","internalType":"bytes"},{"name":"triggerConfig","type":"bytes","internalType":"bytes"},{"name":"offchainConfig","type":"bytes","internalType":"bytes"},{"name":"amount","type":"uint96","internalType":"uint96"},{"name":"sender","type":"address","internalType":"address"}],"outputs":[],"stateMutability":"nonpayable"},{"type":"function","name":"registerUpkeep","inputs":[{"name":"requestParams","type":"tuple","internalType":"struct AutomationRegistrar2_1.RegistrationParams","components":[{"name":"name","type":"string","internalType":"string"},{"name":"encryptedEmail","type":"bytes","internalType":"bytes"},{"name":"upkeepContract","type":"address","internalType":"address"},{"name":"gasLimit","type":"uint32","internalType":"uint32"},{"name":"adminAddress","type":"address","internalType":"address"},{"name":"triggerType","type":"uint8","internalType":"uint8"},{"name":"checkData","type":"bytes","internalType":"bytes"},{"name":"triggerConfig","type":"bytes","internalType":"bytes"},{"name":"offchainConfig","type":"bytes","internalType":"bytes"},{"name":"amount","type":"uint96","internalType":"uint96"}]}],"outputs":[{"name":"","type":"uint256","internalType":"uint256"}],"stateMutability":"nonpayable"},{"type":"function","name":"setAutoApproveAllowedSender","inputs":[{"name":"senderAddress","type":"address","internalType":"address"},{"name":"allowed","type":"bool","internalType":"bool"}],"outputs":[],"stateMutability":"nonpayable"},{"type":"function","name":"setConfig","inputs":[{"name":"keeperRegistry","type":"address","internalType":"address"},{"name":"minLINKJuels","type":"uint96","internalType":"uint96"}],"outputs":[],"stateMutability":"nonpayable"},{"type":"function","name":"setTriggerConfig","inputs":[{"name":"triggerType","type":"uint8","internalType":"uint8"},{"name":"autoApproveType","type":"uint8","internalType":"enum AutomationRegistrar2_1.AutoApproveType"},{"name":"autoApproveMaxAllowed","type":"uint32","internalType":"uint32"}],"outputs":[],"stateMutability":"nonpayable"},{"type":"function","name":"transferOwnership","inputs":[{"name":"to","type":"address","internalType":"address"}],"outputs":[],"stateMutability":"nonpayable"},{"type":"function","name":"typeAndVersion","inputs":[],"outputs":[{"name":"","type":"string","internalType":"string"}],"stateMutability":"view"},{"type":"event","name":"AutoApproveAllowedSenderSet","inputs":[{"name":"senderAddress","type":"address","indexed":true,"internalType":"address"},{"name":"allowed","type":"bool","indexed":false,"internalType":"bool"}],"anonymous":false},{"type":"event","name":"ConfigChanged","inputs":[{"name":"keeperRegistry","type":"address","indexed":false,"internalType":"address"},{"name":"minLINKJuels","type":"uint96","indexed":false,"internalType":"uint96"}],"anonymous":false},{"type":"event","name":"OwnershipTransferRequested","inputs":[{"name":"from","type":"address","indexed":true,"internalType":"address"},{"name":"to","type":"address","indexed":true,"internalType":"address"}],"anonymous":false},{"type":"event","name":"OwnershipTransferred","inputs":[{"name":"from","type":"address","indexed":true,"internalType":"address"},{"name":"to","type":"address","indexed":true,"internalType":"address"}],"anonymous":false},{"type":"event","name":"RegistrationApproved","inputs":[{"name":"hash","type":"bytes32","indexed":true,"internalType":"bytes32"},{"name":"displayName","type":"string","indexed":false,"internalType":"string"},{"name":"upkeepId","type":"uint256","indexed":true,"internalType":"uint256"}],"anonymous":false},{"type":"event","name":"RegistrationRejected","inputs":[{"name":"hash","type":"bytes32","indexed":true,"internalType":"bytes32"}],"anonymous":false},{"type":"event","name":"RegistrationRequested","inputs":[{"name":"hash","type":"bytes32","indexed":true,"internalType":"bytes32"},{"name":"name","type":"string","indexed":false,"internalType":"string"},{"name":"encryptedEmail","type":"bytes","indexed":false,"internalType":"bytes"},{"name":"upkeepContract","type":"address","indexed":true,"internalType":"address"},{"name":"gasLimit","type":"uint32","indexed":false,"internalType":"uint32"},{"name":"adminAddress","type":"address","indexed":false,"internalType":"address"},{"name":"triggerType","type":"uint8","indexed":false,"internalType":"uint8"},{"name":"triggerConfig","type":"bytes","indexed":false,"internalType":"bytes"},{"name":"offchainConfig","type":"bytes","indexed":false,"internalType":"bytes"},{"name":"checkData","type":"bytes","indexed":false,"internalType":"bytes"},{"name":"amount","type":"uint96","indexed":false,"internalType":"uint96"}],"anonymous":false},{"type":"event","name":"TriggerConfigSet","inputs":[{"name":"triggerType","type":"uint8","indexed":false,"internalType":"uint8"},{"name":"autoApproveType","type":"uint8","indexed":false,"internalType":"enum AutomationRegistrar2_1.AutoApproveType"},{"name":"autoApproveMaxAllowed","type":"uint32","indexed":false,"internalType":"uint32"}],"anonymous":false},{"type":"error","name":"AmountMismatch","inputs":[]},{"type":"error","name":"FunctionNotPermitted","inputs":[]},{"type":"error","name":"HashMismatch","inputs":[]},{"type":"error","name":"InsufficientPayment","inputs":[]},{"type":"error","name":"InvalidAdminAddress","inputs":[]},{"type":"error","name":"InvalidDataLength","inputs":[]},{"type":"error","name":"LinkTransferFailed","inputs":[{"name":"to","type":"address","internalType":"address"}]},{"type":"error","name":"OnlyAdminOrOwner","inputs":[]},{"type":"error","name":"OnlyLink","inputs":[]},{"type":"error","name":"RegistrationRequestFailed","inputs":[]},{"type":"error","name":"RequestNotFound","inputs":[]},{"type":"error","name":"SenderMismatch","inputs":[]}],"bytecode":{"object":"0x60a06040523480156200001157600080fd5b50604051620026b6380380620026b683398101604081905262000034916200043b565b33806000816200008b5760405162461bcd60e51b815260206004820152601860248201527f43616e6e6f7420736574206f776e657220746f207a65726f000000000000000060448201526064015b60405180910390fd5b600080546001600160a01b0319166001600160a01b0384811691909117909155811615620000be57620000be816200017a565b5050506001600160a01b038416608052620000da838362000225565b60005b81518110156200016f576200015a82828151811062000100576200010062000598565b60200260200101516000015183838151811062000121576200012162000598565b60200260200101516020015184848151811062000142576200014262000598565b6020026020010151604001516200029e60201b60201c565b806200016681620005ae565b915050620000dd565b50505050506200062f565b336001600160a01b03821603620001d45760405162461bcd60e51b815260206004820152601760248201527f43616e6e6f74207472616e7366657220746f2073656c66000000000000000000604482015260640162000082565b600180546001600160a01b0319166001600160a01b0383811691821790925560008054604051929316917fed8889f560326eb138920d842192f0eb3dd22b4f139c87a2c57538e05bae12789190a350565b6200022f6200034c565b6040805180820182526001600160a01b0384168082526001600160601b0384166020928301819052600160a01b810282176004558351918252918101919091527f39ce5d867555f0b0183e358fce5b158e7ca4fecd7c01cb7e0e19f1e23285838a910160405180910390a15050565b620002a86200034c565b60ff83166000908152600360205260409020805483919060ff19166001836002811115620002da57620002da620005d6565b021790555060ff831660009081526003602052604090819020805464ffffffff00191661010063ffffffff851602179055517f830a6d06a4e2caac67eba04323de22bdb04f032dd8b3d6a0c52b503d9a7036a3906200033f90859085908590620005ec565b60405180910390a1505050565b6000546001600160a01b03163314620003a85760405162461bcd60e51b815260206004820152601660248201527f4f6e6c792063616c6c61626c65206279206f776e657200000000000000000000604482015260640162000082565b565b80516001600160a01b0381168114620003c257600080fd5b919050565b634e487b7160e01b600052604160045260246000fd5b604051606081016001600160401b0381118282101715620004025762000402620003c7565b60405290565b604051601f8201601f191681016001600160401b0381118282101715620004335762000433620003c7565b604052919050565b600080600080608085870312156200045257600080fd5b6200045d85620003aa565b935060206200046e818701620003aa565b604087810151919550906001600160601b03811681146200048e57600080fd5b606088810151919550906001600160401b0380821115620004ae57600080fd5b818a0191508a601f830112620004c357600080fd5b815181811115620004d857620004d8620003c7565b620004e8868260051b0162000408565b818152868101925090840283018601908c8211156200050657600080fd5b928601925b81841015620005875784848e031215620005255760008081fd5b6200052f620003dd565b845160ff81168114620005425760008081fd5b81528488015160038110620005575760008081fd5b818901528487015163ffffffff81168114620005735760008081fd5b81880152835292840192918601916200050b565b999c989b5096995050505050505050565b634e487b7160e01b600052603260045260246000fd5b600060018201620005cf57634e487b7160e01b600052601160045260246000fd5b5060010190565b634e487b7160e01b600052602160045260246000fd5b60ff8416815260608101600384106200061557634e487b7160e01b600052602160045260246000fd5b83602083015263ffffffff83166040830152949350505050565b6080516120486200066e60003960008181610167015281816104c2015281816106c7015281816107c401528181610b4b01526111b001526120486000f3fe608060405234801561001057600080fd5b506004361061010b5760003560e01c8063856853e6116100a2578063b5ff5b4111610071578063b5ff5b41146102e4578063c3f909d4146102f7578063c4d252f51461033b578063e8d4070d1461034e578063f2fde38b1461036157600080fd5b8063856853e61461024e57806388b12d55146102615780638da5cb5b146102c0578063a4c0ed36146102d157600080fd5b80633f678e11116100de5780633f678e11146101d65780636c4cdfc3146101f757806379ba50971461020a5780637e776f7f1461021257600080fd5b8063181f5a77146101105780631b6b6d2314610162578063212d0884146101a1578063367b9b4f146101c1575b600080fd5b61014c6040518060400160405280601981526020017f4175746f6d6174696f6e52656769737472617220322e312e300000000000000081525081565b604051610159919061145f565b60405180910390f35b6101897f000000000000000000000000000000000000000000000000000000000000000081565b6040516001600160a01b039091168152602001610159565b6101b46101af36600461148f565b610374565b60405161015991906114e2565b6101d46101cf366004611549565b610401565b005b6101e96101e4366004611582565b610468565b604051908152602001610159565b6101d46102053660046115d4565b610595565b6101d461060d565b61023e610220366004611609565b6001600160a01b031660009081526005602052604090205460ff1690565b6040519015158152602001610159565b6101d461025c36600461174d565b6106bc565b6102b261026f3660046118a7565b6000908152600260209081526040918290208251808401909352546001600160a01b038116808452600160a01b9091046001600160601b03169290910182905291565b6040516101599291906118c0565b6000546001600160a01b0316610189565b6101d46102df3660046118e2565b6107b9565b6101d46102f236600461193d565b6109e0565b6040805180820182526004546001600160a01b038116808352600160a01b9091046001600160601b0316602092830181905283519182529181019190915201610159565b6101d46103493660046118a7565b610a87565b6101d461035c366004611986565b610c27565b6101d461036f366004611609565b610e2e565b60408051606080820183526000808352602080840182905283850182905260ff8681168352600390915290849020845192830190945283549293919283911660028111156103c4576103c46114aa565b60028111156103d5576103d56114aa565b8152905463ffffffff610100820481166020840152650100000000009091041660409091015292915050565b610409610e42565b6001600160a01b038216600081815260056020908152604091829020805460ff191685151590811790915591519182527f20c6237dac83526a849285a9f79d08a483291bdd3a056a0ef9ae94ecee1ad356910160405180910390a25050565b600454600090600160a01b90046001600160601b031661049061014084016101208501611a90565b6001600160601b031610156104b85760405163cd1c886760e01b815260040160405180910390fd5b6001600160a01b037f0000000000000000000000000000000000000000000000000000000000000000166323b872dd33306104fb61014087016101208801611a90565b6040516001600160e01b031960e086901b1681526001600160a01b0393841660048201529290911660248301526001600160601b031660448201526064016020604051808303816000875af1158015610558573d6000803e3d6000fd5b505050506040513d601f19601f8201168201806040525081019061057c9190611aab565b5061058f61058983611ac8565b33610e97565b92915050565b61059d610e42565b6040805180820182526001600160a01b0384168082526001600160601b0384166020909201829052600160a01b90910217600455517f39ce5d867555f0b0183e358fce5b158e7ca4fecd7c01cb7e0e19f1e23285838a9061060190849084906118c0565b60405180910390a15050565b6001546001600160a01b031633146106655760405162461bcd60e51b815260206004820152601660248201527526bab9ba10313290383937b837b9b2b21037bbb732b960511b60448201526064015b60405180910390fd5b60008054336001600160a01b0319808316821784556001805490911690556040516001600160a01b0390921692909183917f8be0079c531659141344cd1fd0a4f28419497f9722a3daafe3b4186f6b6457e091a350565b336001600160a01b037f000000000000000000000000000000000000000000000000000000000000000016146107045760405162c6885f60e11b815260040160405180910390fd5b6107aa6040518061014001604052808e81526020018d8d8080601f0160208091040260200160405190810160405280939291908181526020018383808284376000920191909152505050908252506001600160a01b03808d16602083015263ffffffff8c1660408301528a16606082015260ff8916608082015260a0810188905260c0810187905260e081018690526001600160601b0385166101009091015282610e97565b50505050505050505050505050565b336001600160a01b037f000000000000000000000000000000000000000000000000000000000000000016146108015760405162c6885f60e11b815260040160405180910390fd5b81818080601f01602080910402602001604051908101604052809392919081815260200183838082843760009201919091525050505060208101516001600160e01b031981166342b429f360e11b1461086d5760405163e3d6792160e01b815260040160405180910390fd5b848484600061087f8260048186611bfc565b81019061088c9190611c26565b509950505050505050505050806001600160601b031684146108c1576040516355e97b0d60e01b815260040160405180910390fd5b89888860006108d38260048186611bfc565b8101906108e09190611c26565b9a5050505050505050505050806001600160a01b0316846001600160a01b03161461091e57604051637c62b1c760e11b815260040160405180910390fd5b600454600160a01b90046001600160601b03168d10156109515760405163cd1c886760e01b815260040160405180910390fd5b6000306001600160a01b03168d8d60405161096d929190611d62565b600060405180830381855af49150503d80600081146109a8576040519150601f19603f3d011682016040523d82523d6000602084013e6109ad565b606091505b50509050806109cf57604051630649bf8160e41b815260040160405180910390fd5b505050505050505050505050505050565b6109e8610e42565b60ff83166000908152600360205260409020805483919060ff19166001836002811115610a1757610a176114aa565b021790555060ff831660009081526003602052604090819020805464ffffffff00191661010063ffffffff851602179055517f830a6d06a4e2caac67eba04323de22bdb04f032dd8b3d6a0c52b503d9a7036a390610a7a90859085908590611d72565b60405180910390a1505050565b6000818152600260209081526040918290208251808401909352546001600160a01b038116808452600160a01b9091046001600160601b031691830191909152331480610ade57506000546001600160a01b031633145b610afb576040516361685c2b60e01b815260040160405180910390fd5b80516001600160a01b0316610b2357604051632589d98f60e11b815260040160405180910390fd5b6000828152600260209081526040808320839055835191840151905163a9059cbb60e01b81527f00000000000000000000000000000000000000000000000000000000000000006001600160a01b03169263a9059cbb92610b86926004016118c0565b6020604051808303816000875af1158015610ba5573d6000803e3d6000fd5b505050506040513d601f19601f82011682018060405250810190610bc99190611aab565b905080610bf757815160405163185c9b9d60e31b81526001600160a01b03909116600482015260240161065c565b60405183907f3663fb28ebc87645eb972c9dad8521bf665c623f287e79f1c56f1eb374b82a2290600090a2505050565b610c2f610e42565b6000818152600260209081526040918290208251808401909352546001600160a01b038116808452600160a01b9091046001600160601b031691830191909152610c8c57604051632589d98f60e11b815260040160405180910390fd5b60008b8b8b8b8b8b8b8b8b604051602001610caf99989796959493929190611dc6565b604051602081830303815290604052805190602001209050808314610ce757604051633f4d605360e01b815260040160405180910390fd5b60026000848152602001908152602001600020600080820160006101000a8154906001600160a01b0302191690556000820160146101000a8154906001600160601b0302191690555050610e1e6040518061014001604052808f81526020016040518060200160405280600081525081526020018e6001600160a01b031681526020018d63ffffffff1681526020018c6001600160a01b031681526020018b60ff1681526020018a8a8080601f01602080910402602001604051908101604052809392919081815260200183838082843760009201919091525050509082525060208082018a905260408051601f8a0183900483028101830182528981529201919089908990819084018382808284376000920191909152505050908252506020858101516001600160601b031691015282611102565b5050505050505050505050505050565b610e36610e42565b610e3f816112d8565b50565b6000546001600160a01b03163314610e955760405162461bcd60e51b815260206004820152601660248201527527b7363c9031b0b63630b1363290313c9037bbb732b960511b604482015260640161065c565b565b60808201516000906001600160a01b0316610ec55760405163016ed19f60e21b815260040160405180910390fd5b60008360400151846060015185608001518660a001518760c001518860e00151896101000151604051602001610f019796959493929190611e3f565b60405160208183030381529060405280519060200120905083604001516001600160a01b0316817f7684390ebb103102f7f48c71439c2408713f8d437782a6fab2756acc0e42c1b786600001518760200151886060015189608001518a60a001518b60e001518c61010001518d60c001518e6101200151604051610f8d99989796959493929190611eb4565b60405180910390a360a084015160ff90811660009081526003602052604080822081516060810190925280549293611010938391166002811115610fd357610fd36114aa565b6002811115610fe457610fe46114aa565b8152905463ffffffff610100820481166020840152650100000000009091041660409091015285611381565b156110785760a085015160ff166000908152600360205260409020805465010000000000900463ffffffff1690600561104883611f73565b91906101000a81548163ffffffff021916908363ffffffff160217905550506110718583611102565b90506110fa565b61012085015160008381526002602052604081205490916110a891600160a01b90046001600160601b0316611f96565b60408051808201825260808901516001600160a01b0390811682526001600160601b039384166020808401918252600089815260029091529390932091519251909316600160a01b0291909216179055505b949350505050565b600480546040808501516060860151608087015160a088015160c089015160e08a01516101008b0151965163051e65e760e31b81526000996001600160a01b03909916988a988a986328f32f3898611167989197909691959094919390929101611e3f565b6020604051808303816000875af1158015611186573d6000803e3d6000fd5b505050506040513d601f19601f820116820180604052508101906111aa9190611fbd565b905060007f00000000000000000000000000000000000000000000000000000000000000006001600160a01b0316634000aea084886101200151856040516020016111f791815260200190565b6040516020818303038152906040526040518463ffffffff1660e01b815260040161122493929190611fd6565b6020604051808303816000875af1158015611243573d6000803e3d6000fd5b505050506040513d601f19601f820116820180604052508101906112679190611aab565b9050806112925760405163185c9b9d60e31b81526001600160a01b038416600482015260240161065c565b81857fb9a292fb7e3edd920cd2d2829a3615a640c43fd7de0a0820aa0668feb4c37d4b88600001516040516112c7919061145f565b60405180910390a350949350505050565b336001600160a01b038216036113305760405162461bcd60e51b815260206004820152601760248201527f43616e6e6f74207472616e7366657220746f2073656c66000000000000000000604482015260640161065c565b600180546001600160a01b0319166001600160a01b0383811691821790925560008054604051929316917fed8889f560326eb138920d842192f0eb3dd22b4f139c87a2c57538e05bae12789190a350565b60008083516002811115611397576113976114aa565b036113a45750600061058f565b6001835160028111156113b9576113b96114aa565b1480156113df57506001600160a01b03821660009081526005602052604090205460ff16155b156113ec5750600061058f565b826020015163ffffffff16836040015163ffffffff1610156114105750600161058f565b50600092915050565b6000815180845260005b8181101561143f57602081850181015186830182015201611423565b506000602082860101526020601f19601f83011685010191505092915050565b6020815260006114726020830184611419565b9392505050565b803560ff8116811461148a57600080fd5b919050565b6000602082840312156114a157600080fd5b61147282611479565b634e487b7160e01b600052602160045260246000fd5b600381106114de57634e487b7160e01b600052602160045260246000fd5b9052565b60006060820190506114f58284516114c0565b602083015163ffffffff8082166020850152806040860151166040850152505092915050565b6001600160a01b0381168114610e3f57600080fd5b803561148a8161151b565b8015158114610e3f57600080fd5b6000806040838503121561155c57600080fd5b82356115678161151b565b915060208301356115778161153b565b809150509250929050565b60006020828403121561159457600080fd5b81356001600160401b038111156115aa57600080fd5b8201610140818503121561147257600080fd5b80356001600160601b038116811461148a57600080fd5b600080604083850312156115e757600080fd5b82356115f28161151b565b9150611600602084016115bd565b90509250929050565b60006020828403121561161b57600080fd5b81356114728161151b565b634e487b7160e01b600052604160045260246000fd5b60405161014081016001600160401b038111828210171561165f5761165f611626565b60405290565b600082601f83011261167657600080fd5b81356001600160401b038082111561169057611690611626565b604051601f8301601f19908116603f011681019082821181831017156116b8576116b8611626565b816040528381528660208588010111156116d157600080fd5b836020870160208301376000602085830101528094505050505092915050565b60008083601f84011261170357600080fd5b5081356001600160401b0381111561171a57600080fd5b60208301915083602082850101111561173257600080fd5b9250929050565b803563ffffffff8116811461148a57600080fd5b6000806000806000806000806000806000806101608d8f03121561177057600080fd5b6001600160401b038d35111561178557600080fd5b6117928e8e358f01611665565b9b506001600160401b0360208e013511156117ac57600080fd5b6117bc8e60208f01358f016116f1565b909b5099506117cd60408e01611530565b98506117db60608e01611739565b97506117e960808e01611530565b96506117f760a08e01611479565b95506001600160401b0360c08e0135111561181157600080fd5b6118218e60c08f01358f01611665565b94506001600160401b0360e08e0135111561183b57600080fd5b61184b8e60e08f01358f01611665565b93506001600160401b036101008e0135111561186657600080fd5b6118778e6101008f01358f01611665565b92506118866101208e016115bd565b91506118956101408e01611530565b90509295989b509295989b509295989b565b6000602082840312156118b957600080fd5b5035919050565b6001600160a01b039290921682526001600160601b0316602082015260400190565b600080600080606085870312156118f857600080fd5b84356119038161151b565b93506020850135925060408501356001600160401b0381111561192557600080fd5b611931878288016116f1565b95989497509550505050565b60008060006060848603121561195257600080fd5b61195b84611479565b925060208401356003811061196f57600080fd5b915061197d60408501611739565b90509250925092565b60008060008060008060008060008060006101208c8e0312156119a857600080fd5b6001600160401b03808d3511156119be57600080fd5b6119cb8e8e358f01611665565b9b506119d960208e01611530565b9a506119e760408e01611739565b99506119f560608e01611530565b9850611a0360808e01611479565b97508060a08e01351115611a1657600080fd5b611a268e60a08f01358f016116f1565b909750955060c08d0135811015611a3c57600080fd5b611a4c8e60c08f01358f01611665565b94508060e08e01351115611a5f57600080fd5b50611a708d60e08e01358e016116f1565b81945080935050506101008c013590509295989b509295989b9093969950565b600060208284031215611aa257600080fd5b611472826115bd565b600060208284031215611abd57600080fd5b81516114728161153b565b60006101408236031215611adb57600080fd5b611ae361163c565b82356001600160401b0380821115611afa57600080fd5b611b0636838701611665565b83526020850135915080821115611b1c57600080fd5b611b2836838701611665565b6020840152611b3960408601611530565b6040840152611b4a60608601611739565b6060840152611b5b60808601611530565b6080840152611b6c60a08601611479565b60a084015260c0850135915080821115611b8557600080fd5b611b9136838701611665565b60c084015260e0850135915080821115611baa57600080fd5b611bb636838701611665565b60e084015261010091508185013581811115611bd157600080fd5b611bdd36828801611665565b83850152505050610120611bf28185016115bd565b9082015292915050565b60008085851115611c0c57600080fd5b83861115611c1957600080fd5b5050820193919092039150565b60008060008060008060008060008060006101608c8e031215611c4857600080fd5b6001600160401b03808d351115611c5e57600080fd5b611c6b8e8e358f01611665565b9b508060208e01351115611c7e57600080fd5b611c8e8e60208f01358f01611665565b9a50611c9c60408e01611530565b9950611caa60608e01611739565b9850611cb860808e01611530565b9750611cc660a08e01611479565b96508060c08e01351115611cd957600080fd5b611ce98e60c08f01358f01611665565b95508060e08e01351115611cfc57600080fd5b611d0c8e60e08f01358f01611665565b9450806101008e01351115611d2057600080fd5b50611d328d6101008e01358e01611665565b9250611d416101208d016115bd565b9150611d506101408d01611530565b90509295989b509295989b9093969950565b8183823760009101908152919050565b60ff8416815260608101611d8960208301856114c0565b63ffffffff83166040830152949350505050565b81835281816020850137506000828201602090810191909152601f909101601f19169091010190565b6001600160a01b038a8116825263ffffffff8a1660208301528816604082015260ff8716606082015260e060808201819052600090611e089083018789611d9d565b82810360a0840152611e1a8187611419565b905082810360c0840152611e2f818587611d9d565b9c9b505050505050505050505050565b6001600160a01b03888116825263ffffffff881660208301528616604082015260ff8516606082015260e060808201819052600090611e8090830186611419565b82810360a0840152611e928186611419565b905082810360c0840152611ea68185611419565b9a9950505050505050505050565b6000610120808352611ec88184018d611419565b90508281036020840152611edc818c611419565b63ffffffff8b1660408501526001600160a01b038a16606085015260ff8916608085015283810360a08501529050611f148188611419565b905082810360c0840152611f288187611419565b905082810360e0840152611f3c8186611419565b9150506001600160601b0383166101008301529a9950505050505050505050565b634e487b7160e01b600052601160045260246000fd5b600063ffffffff808316818103611f8c57611f8c611f5d565b6001019392505050565b6001600160601b03818116838216019080821115611fb657611fb6611f5d565b5092915050565b600060208284031215611fcf57600080fd5b5051919050565b6001600160a01b03841681526001600160601b038316602082015260606040820181905260009061200990830184611419565b9594505050505056fea2646970667358221220f1319a63430dce35c90b9cae8cc5c95963e7ddbda1b1a5c3f8658c81fca8489c64736f6c63430008100033","linkReferences":{}},"methodIdentifiers":{"LINK()":"1b6b6d23","acceptOwnership()":"79ba5097","approve(string,address,uint32,address,uint8,bytes,bytes,bytes,bytes32)":"e8d4070d","cancel(bytes32)":"c4d252f5","getAutoApproveAllowedSender(address)":"7e776f7f","getConfig()":"c3f909d4","getPendingRequest(bytes32)":"88b12d55","getTriggerRegistrationDetails(uint8)":"212d0884","onTokenTransfer(address,uint256,bytes)":"a4c0ed36","owner()":"8da5cb5b","register(string,bytes,address,uint32,address,uint8,bytes,bytes,bytes,uint96,address)":"856853e6","registerUpkeep((string,bytes,address,uint32,address,uint8,bytes,bytes,bytes,uint96))":"3f678e11","setAutoApproveAllowedSender(address,bool)":"367b9b4f","setConfig(address,uint96)":"6c4cdfc3","setTriggerConfig(uint8,uint8,uint32)":"b5ff5b41","transferOwnership(address)":"f2fde38b","typeAndVersion()":"181f5a77"},"id":20}