{
  "abi": [
    {
      "inputs": [
        {
          "internalType": "address",
          "name": "linkTokenAddress",
          "type": "address"
        }
      ],
      "stateMutability": "nonpayable",
      "type": "constructor"
    },
    {
      "anonymous": false,
      "inputs": [
        {
          "indexed": true,
          "internalType": "bytes32",
          "name": "id",
          "type": "bytes32"
        }
      ],
      "name": "ChainlinkCancelled",
      "type": "event"
    },
    {
      "anonymous": false,
      "inputs": [
        {
          "indexed": true,
          "internalType": "bytes32",
          "name": "id",
          "type": "bytes32"
        }
      ],
      "name": "ChainlinkFulfilled",
      "type": "event"
    },
    {
      "anonymous": false,
      "inputs": [
        {
          "indexed": true,
          "internalType": "bytes32",
          "name": "id",
          "type": "bytes32"
        }
      ],
      "name": "ChainlinkRequested",
      "type": "event"
    },
    {
      "anonymous": false,
      "inputs": [
        {
          "indexed": true,
          "internalType": "address",
          "name": "from",
          "type": "address"
        },
        {
          "indexed": true,
          "internalType": "address",
          "name": "to",
          "type": "address"
        }
      ],
      "name": "OwnershipTransferRequested",
      "type": "event"
    },
    {
      "anonymous": false,
      "inputs": [
        {
          "indexed": true,
          "internalType": "address",
          "name": "from",
          "type": "address"
        },
        {
          "indexed": true,
          "internalType": "address",
          "name": "to",
          "type": "address"
        }
      ],
      "name": "OwnershipTransferred",
      "type": "event"
    },
    {
      "anonymous": false,
      "inputs": [
        {
          "indexed": true,
          "internalType": "bytes32",
          "name": "requestId",
          "type": "bytes32"
        },
        {
          "indexed": true,
          "internalType": "int256",
          "name": "change",
          "type": "int256"
        }
      ],
      "name": "RequestEthereumChangeFulfilled",
      "type": "event"
    },
    {
      "anonymous": false,
      "inputs": [
        {
          "indexed": true,
          "internalType": "bytes32",
          "name": "requestId",
          "type": "bytes32"
        },
        {
          "indexed": true,
          "internalType": "bytes32",
          "name": "market",
          "type": "bytes32"
        }
      ],
      "name": "RequestEthereumLastMarket",
      "type": "event"
    },
    {
      "anonymous": false,
      "inputs": [
        {
          "indexed": true,
          "internalType": "bytes32",
          "name": "requestId",
          "type": "bytes32"
        },
        {
          "indexed": true,
          "internalType": "uint256",
          "name": "price",
          "type": "uint256"
        }
      ],
      "name": "RequestEthereumPriceFulfilled",
      "type": "event"
    },
    {
      "inputs": [],
      "name": "acceptOwnership",
      "outputs": [],
      "stateMutability": "nonpayable",
      "type": "function"
    },
    {
      "inputs": [
        {
          "internalType": "bytes32",
          "name": "_requestId",
          "type": "bytes32"
        },
        {
          "internalType": "uint256",
          "name": "_payment",
          "type": "uint256"
        },
        {
          "internalType": "bytes4",
          "name": "_callbackFunctionId",
          "type": "bytes4"
        },
        {
          "internalType": "uint256",
          "name": "_expiration",
          "type": "uint256"
        }
      ],
      "name": "cancelRequest",
      "outputs": [],
      "stateMutability": "nonpayable",
      "type": "function"
    },
    {
      "inputs": [],
      "name": "changeDay",
      "outputs": [
        {
          "internalType": "int256",
          "name": "",
          "type": "int256"
        }
      ],
      "stateMutability": "view",
      "type": "function"
    },
    {
      "inputs": [],
      "name": "currentPrice",
      "outputs": [
        {
          "internalType": "uint256",
          "name": "",
          "type": "uint256"
        }
      ],
      "stateMutability": "view",
      "type": "function"
    },
    {
      "inputs": [
        {
          "internalType": "bytes32",
          "name": "_requestId",
          "type": "bytes32"
        },
        {
          "internalType": "int256",
          "name": "_change",
          "type": "int256"
        }
      ],
      "name": "fulfillEthereumChange",
      "outputs": [],
      "stateMutability": "nonpayable",
      "type": "function"
    },
    {
      "inputs": [
        {
          "internalType": "bytes32",
          "name": "_requestId",
          "type": "bytes32"
        },
        {
          "internalType": "bytes32",
          "name": "_market",
          "type": "bytes32"
        }
      ],
      "name": "fulfillEthereumLastMarket",
      "outputs": [],
      "stateMutability": "nonpayable",
      "type": "function"
    },
    {
      "inputs": [
        {
          "internalType": "bytes32",
          "name": "_requestId",
          "type": "bytes32"
        },
        {
          "internalType": "uint256",
          "name": "_price",
          "type": "uint256"
        }
      ],
      "name": "fulfillEthereumPrice",
      "outputs": [],
      "stateMutability": "nonpayable",
      "type": "function"
    },
    {
      "inputs": [],
      "name": "getChainlinkToken",
      "outputs": [
        {
          "internalType": "address",
          "name": "",
          "type": "address"
        }
      ],
      "stateMutability": "view",
      "type": "function"
    },
    {
      "inputs": [],
      "name": "lastMarket",
      "outputs": [
        {
          "internalType": "bytes32",
          "name": "",
          "type": "bytes32"
        }
      ],
      "stateMutability": "view",
      "type": "function"
    },
    {
      "inputs": [],
      "name": "owner",
      "outputs": [
        {
          "internalType": "address",
          "name": "",
          "type": "address"
        }
      ],
      "stateMutability": "view",
      "type": "function"
    },
    {
      "inputs": [
        {
          "internalType": "address",
          "name": "_oracle",
          "type": "address"
        },
        {
          "internalType": "string",
          "name": "_jobId",
          "type": "string"
        }
      ],
      "name": "requestEthereumChange",
      "outputs": [],
      "stateMutability": "nonpayable",
      "type": "function"
    },
    {
      "inputs": [
        {
          "internalType": "address",
          "name": "_oracle",
          "type": "address"
        },
        {
          "internalType": "string",
          "name": "_jobId",
          "type": "string"
        }
      ],
      "name": "requestEthereumLastMarket",
      "outputs": [],
      "stateMutability": "nonpayable",
      "type": "function"
    },
    {
      "inputs": [
        {
          "internalType": "address",
          "name": "_oracle",
          "type": "address"
        },
        {
          "internalType": "string",
          "name": "_jobId",
          "type": "string"
        }
      ],
      "name": "requestEthereumPrice",
      "outputs": [],
      "stateMutability": "nonpayable",
      "type": "function"
    },
    {
      "inputs": [
        {
          "internalType": "address",
          "name": "to",
          "type": "address"
        }
      ],
      "name": "transferOwnership",
      "outputs": [],
      "stateMutability": "nonpayable",
      "type": "function"
    },
    {
      "inputs": [],
      "name": "withdrawLink",
      "outputs": [],
      "stateMutability": "nonpayable",
      "type": "function"
    }
  ],
  "bytecode": {
    "object": "0x608060405260016004553480156200001657600080fd5b5060405162001b9138038062001b918339810160408190526200003991620001ad565b3380600081620000905760405162461bcd60e51b815260206004820152601860248201527f43616e6e6f7420736574206f776e657220746f207a65726f000000000000000060448201526064015b60405180910390fd5b600680546001600160a01b0319166001600160a01b0384811691909117909155811615620000c357620000c381620000de565b505050620000d7816200018b60201b60201c565b50620001df565b6001600160a01b038116331415620001395760405162461bcd60e51b815260206004820152601760248201527f43616e6e6f74207472616e7366657220746f2073656c66000000000000000000604482015260640162000087565b600780546001600160a01b0319166001600160a01b03838116918217909255600654604051919216907fed8889f560326eb138920d842192f0eb3dd22b4f139c87a2c57538e05bae127890600090a350565b600280546001600160a01b0319166001600160a01b0392909216919091179055565b600060208284031215620001c057600080fd5b81516001600160a01b0381168114620001d857600080fd5b9392505050565b6119a280620001ef6000396000f3fe608060405234801561001057600080fd5b50600436106100f55760003560e01c806392cdaaf311610097578063e9edbf0311610066578063e9edbf03146101c1578063ec65d0f8146101ca578063f2fde38b146101dd578063f3bdf8ba146101f057600080fd5b806392cdaaf31461017f5780639d1b464a14610192578063a46fbe1a1461019b578063ab643c10146101ae57600080fd5b8063619cba1a116100d3578063619cba1a1461014b57806379ba50971461015e5780638da5cb5b146101665780638dc654a21461017757600080fd5b8063165d35e1146100fa5780632183abd11461011f57806349556aff14610136575b600080fd5b610102610203565b6040516001600160a01b0390911681526020015b60405180910390f35b61012860095481565b604051908152602001610116565b610149610144366004611422565b61021c565b005b610149610159366004611476565b6102d4565b6101496103ec565b6006546001600160a01b0316610102565b61014961049a565b61014961018d366004611422565b6105de565b61012860085481565b6101496101a9366004611422565b61068d565b6101496101bc366004611476565b61073c565b610128600a5481565b6101496101d8366004611538565b6107ee565b6101496101eb366004611584565b610802565b6101496101fe366004611476565b610813565b60006102176002546001600160a01b031690565b905090565b60008281526005602052604090205482906001600160a01b0316331461025d5760405162461bcd60e51b81526004016102549061159f565b60405180910390fd5b60008181526005602052604080822080546001600160a01b03191690555182917f7cc135e0cebb02c3480ae5d74d377283180a2601f8f644edf7987b009316c63a91a2604051829084907f1a7783cfc5355cd0706abec2229662cda9cefcfc8aeb31fec8b391ba5eb67cbe90600090a350600a5550565b6102dc6109e7565b60006102f86102ea83610a3c565b30635237df0d60e11b610a59565b905061033a6040518060400160405280600381526020016219d95d60ea1b81525060405180608001604052806049815260200161192460499139839190610a7e565b6103a0604051806040016040528060048152602001630e0c2e8d60e31b8152506040518060400160405280601881526020017f5241572c4554482c5553442c4348414e4745504354444159000000000000000081525083610a7e9092919063ffffffff16565b60408051808201909152600581526474696d657360d81b60208201526103c99082906064610aa1565b6103e683826103e1670de0b6b3a764000060016115fd565b610abf565b50505050565b6007546001600160a01b0316331461043f5760405162461bcd60e51b815260206004820152601660248201527526bab9ba10313290383937b837b9b2b21037bbb732b960511b6044820152606401610254565b600680546001600160a01b0319808216339081179093556007805490911690556040516001600160a01b03909116919082907f8be0079c531659141344cd1fd0a4f28419497f9722a3daafe3b4186f6b6457e090600090a350565b6104a26109e7565b60006104b66002546001600160a01b031690565b6040516370a0823160e01b81523060048201529091506001600160a01b0382169063a9059cbb90339083906370a0823190602401602060405180830381865afa158015610507573d6000803e3d6000fd5b505050506040513d601f19601f8201168201806040525081019061052b919061161c565b6040516001600160e01b031960e085901b1681526001600160a01b03909216600483015260248201526044016020604051808303816000875af1158015610576573d6000803e3d6000fd5b505050506040513d601f19601f8201168201806040525081019061059a9190611635565b6105db5760405162461bcd60e51b81526020600482015260126024820152712ab730b13632903a37903a3930b739b332b960711b6044820152606401610254565b50565b60008281526005602052604090205482906001600160a01b031633146106165760405162461bcd60e51b81526004016102549061159f565b60008181526005602052604080822080546001600160a01b03191690555182917f7cc135e0cebb02c3480ae5d74d377283180a2601f8f644edf7987b009316c63a91a2604051829084907f794eb9e29f6750ede99e05248d997a9ab9fa23c4a7eaff8afa729080eb7c642890600090a35060085550565b60008281526005602052604090205482906001600160a01b031633146106c55760405162461bcd60e51b81526004016102549061159f565b60008181526005602052604080822080546001600160a01b03191690555182917f7cc135e0cebb02c3480ae5d74d377283180a2601f8f644edf7987b009316c63a91a2604051829084907f36f03c766dbeb725bf2a1e6cf2d934a02bf3cd9644b55767c8f41ef2d4af061290600090a35060095550565b6107446109e7565b600061076061075283610a3c565b306392cdaaf360e01b610a59565b90506107a26040518060400160405280600381526020016219d95d60ea1b8152506040518060600160405280603f81526020016118e5603f9139839190610a7e565b6103a0604051806040016040528060048152602001630e0c2e8d60e31b815250604051806040016040528060038152602001621554d160ea1b81525083610a7e9092919063ffffffff16565b6107f66109e7565b6103e684848484610b52565b61080a6109e7565b6105db81610c24565b61081b6109e7565b600061083761082983610a3c565b306349556aff60e01b610a59565b90506108796040518060400160405280600381526020016219d95d60ea1b81525060405180608001604052806049815260200161192460499139839190610a7e565b60408051600480825260a08201909252600091816020015b60608152602001906001900390816108915790505090506040518060400160405280600381526020016252415760e81b815250816000815181106108d7576108d7611657565b60200260200101819052506040518060400160405280600381526020016208aa8960eb1b8152508160018151811061091157610911611657565b6020026020010181905250604051806040016040528060038152602001621554d160ea1b8152508160028151811061094b5761094b611657565b60200260200101819052506040518060400160405280600a815260200169131054d513505492d15560b21b8152508160038151811061098c5761098c611657565b60200260200101819052506109c8604051806040016040528060048152602001630e0c2e8d60e31b8152508284610ccf9092919063ffffffff16565b6109e084836103e1670de0b6b3a764000060016115fd565b5050505050565b6006546001600160a01b03163314610a3a5760405162461bcd60e51b815260206004820152601660248201527527b7363c9031b0b63630b1363290313c9037bbb732b960511b6044820152606401610254565b565b80516000908290610a505750600092915050565b50506020015190565b610a616113e7565b610a696113e7565b610a7581868686610d47565b95945050505050565b6080830151610a8d9083610d8d565b6080830151610a9c9082610d8d565b505050565b6080830151610ab09083610d8d565b6080830151610a9c9082610da4565b600454600090610ad081600161166d565b600455835160408086015160808701515191516000936320214ca360e11b93610b089386938493923092918a916001916024016116d2565b60408051601f198184030181529190526020810180516001600160e01b03166001600160e01b0319909316929092179091529050610b4886838684610e08565b9695505050505050565b60008481526005602052604080822080546001600160a01b0319811690915590516001600160a01b039091169186917fe1fe3afa0f7f761ff0a8b89086790efd5140d2907ebd5b7ff6bfcb5e075fd4c59190a2604051636ee4d55360e01b815260048101869052602481018590526001600160e01b031984166044820152606481018390526001600160a01b03821690636ee4d55390608401600060405180830381600087803b158015610c0557600080fd5b505af1158015610c19573d6000803e3d6000fd5b505050505050505050565b6001600160a01b038116331415610c7d5760405162461bcd60e51b815260206004820152601760248201527f43616e6e6f74207472616e7366657220746f2073656c660000000000000000006044820152606401610254565b600780546001600160a01b0319166001600160a01b03838116918217909255600654604051919216907fed8889f560326eb138920d842192f0eb3dd22b4f139c87a2c57538e05bae127890600090a350565b6080830151610cde9083610d8d565b610ceb8360800151610f66565b60005b8151811015610d3957610d27828281518110610d0c57610d0c611657565b60200260200101518560800151610d8d90919063ffffffff16565b80610d318161173a565b915050610cee565b50610a9c8360800151610f71565b610d4f6113e7565b610d5f8560800151610100610f7c565b50508284526001600160a01b03821660208501526001600160e01b031981166040850152835b949350505050565b610d9a8260038351610fe7565b610a9c82826110f6565b67ffffffffffffffff19811215610dc357610dbf8282611124565b5050565b67ffffffffffffffff811315610ddd57610dbf8282611166565b60008112610df157610dbf82600083610fe7565b610dbf826001610e0384600019611755565b610fe7565b6040516bffffffffffffffffffffffff193060601b1660208201526034810184905260009060540160408051808303601f1901815282825280516020918201206000818152600590925291812080546001600160a01b0319166001600160a01b038a1617905590925082917fb5e6e01e79f91267dc17b4e6314d5d4d03593d2ceee0fbb452b750bd70ea5af99190a2600254604051630200057560e51b81526001600160a01b0390911690634000aea090610ecb90889087908790600401611794565b6020604051808303816000875af1158015610eea573d6000803e3d6000fd5b505050506040513d601f19601f82011682018060405250810190610f0e9190611635565b610d855760405162461bcd60e51b815260206004820152602360248201527f756e61626c6520746f207472616e73666572416e6443616c6c20746f206f7261604482015262636c6560e81b6064820152608401610254565b6105db816004611189565b6105db816007611189565b604080518082019091526060815260006020820152610f9c6020836117bb565b15610fc457610fac6020836117bb565b610fb79060206117dd565b610fc1908361166d565b91505b506020808301829052604080518085526000815283019091019052815b92915050565b60178167ffffffffffffffff161161100c576103e68360e0600585901b16831761119a565b60ff8167ffffffffffffffff161161104a57611033836018611fe0600586901b161761119a565b506103e68367ffffffffffffffff831660016111bf565b61ffff8167ffffffffffffffff161161108957611072836019611fe0600586901b161761119a565b506103e68367ffffffffffffffff831660026111bf565b63ffffffff8167ffffffffffffffff16116110ca576110b383601a611fe0600586901b161761119a565b506103e68367ffffffffffffffff831660046111bf565b6110df83601b611fe0600586901b161761119a565b506103e68367ffffffffffffffff831660086111bf565b60408051808201909152606081526000602082015261111d838460000151518485516111e5565b9392505050565b61112f8260c361119a565b50610dbf8261114083600019611755565b60405160200161115291815260200190565b6040516020818303038152906040526112cf565b6111718260c261119a565b50610dbf828260405160200161115291815260200190565b610a9c82601f611fe0600585901b16175b60408051808201909152606081526000602082015261111d83846000015151846112dc565b604080518082019091526060815260006020820152610d85848560000151518585611338565b604080518082019091526060815260006020820152825182111561120857600080fd5b6020850151611217838661166d565b111561124a5761124a8561123a87602001518786611235919061166d565b6113b9565b6112459060026115fd565b6113d0565b6000808651805187602083010193508088870111156112695787860182525b505050602084015b602084106112a9578051825261128860208361166d565b915061129560208261166d565b90506112a26020856117dd565b9350611271565b51815160001960208690036101000a019081169019919091161790525083949350505050565b610d9a8260028351610fe7565b6040805180820190915260608152600060208201528360200151831061131157611311848560200151600261124591906115fd565b83518051602085830101848153508085141561132e576001810182525b5093949350505050565b604080518082019091526060815260006020820152602085015161135c858461166d565b1115611370576113708561123a868561166d565b60006001611380846101006118d8565b61138a91906117dd565b90508551838682010185831982511617815250805184870111156113ae5783860181525b509495945050505050565b6000818311156113ca575081610fe1565b50919050565b81516113dc8383610f7c565b506103e683826110f6565b6040805160a0810182526000808252602080830182905282840182905260608084018390528451808601909552845283015290608082015290565b6000806040838503121561143557600080fd5b50508035926020909101359150565b80356001600160a01b038116811461145b57600080fd5b919050565b634e487b7160e01b600052604160045260246000fd5b6000806040838503121561148957600080fd5b61149283611444565b9150602083013567ffffffffffffffff808211156114af57600080fd5b818501915085601f8301126114c357600080fd5b8135818111156114d5576114d5611460565b604051601f8201601f19908116603f011681019083821181831017156114fd576114fd611460565b8160405282815288602084870101111561151657600080fd5b8260208601602083013760006020848301015280955050505050509250929050565b6000806000806080858703121561154e57600080fd5b843593506020850135925060408501356001600160e01b03198116811461157457600080fd5b9396929550929360600135925050565b60006020828403121561159657600080fd5b61111d82611444565b60208082526028908201527f536f75726365206d75737420626520746865206f7261636c65206f6620746865604082015267081c995c5d595cdd60c21b606082015260800190565b634e487b7160e01b600052601160045260246000fd5b6000816000190483118215151615611617576116176115e7565b500290565b60006020828403121561162e57600080fd5b5051919050565b60006020828403121561164757600080fd5b8151801515811461111d57600080fd5b634e487b7160e01b600052603260045260246000fd5b60008219821115611680576116806115e7565b500190565b6000815180845260005b818110156116ab5760208185018101518683018201520161168f565b818111156116bd576000602083870101525b50601f01601f19169290920160200192915050565b6001600160a01b0389811682526020820189905260408201889052861660608201526001600160e01b03198516608082015260a0810184905260c0810183905261010060e0820181905260009061172b83820185611685565b9b9a5050505050505050505050565b600060001982141561174e5761174e6115e7565b5060010190565b60008083128015600160ff1b850184121615611773576117736115e7565b6001600160ff1b038401831381161561178e5761178e6115e7565b50500390565b60018060a01b0384168152826020820152606060408201526000610a756060830184611685565b6000826117d857634e487b7160e01b600052601260045260246000fd5b500690565b6000828210156117ef576117ef6115e7565b500390565b600181815b8085111561182f578160001904821115611815576118156115e7565b8085161561182257918102915b93841c93908002906117f9565b509250929050565b60008261184657506001610fe1565b8161185357506000610fe1565b816001811461186957600281146118735761188f565b6001915050610fe1565b60ff841115611884576118846115e7565b50506001821b610fe1565b5060208310610133831016604e8410600b84101617156118b2575081810a610fe1565b6118bc83836117f4565b80600019048211156118d0576118d06115e7565b029392505050565b600061111d838361183756fe68747470733a2f2f6d696e2d6170692e63727970746f636f6d706172652e636f6d2f646174612f70726963653f6673796d3d455448267473796d733d55534468747470733a2f2f6d696e2d6170692e63727970746f636f6d706172652e636f6d2f646174612f70726963656d756c746966756c6c3f6673796d733d455448267473796d733d555344a264697066735822122010f5d7efc2e69aaa4faf29a8ff3926e06c7c9f0e75d67086ebaef2d27376b53764736f6c634300080c0033",
    "linkReferences": {}
  },
  "methodIdentifiers": {
    "acceptOwnership()": "79ba5097",
    "cancelRequest(bytes32,uint256,bytes4,uint256)": "ec65d0f8",
    "changeDay()": "2183abd1",
    "currentPrice()": "9d1b464a",
    "fulfillEthereumChange(bytes32,int256)": "a46fbe1a",
    "fulfillEthereumLastMarket(bytes32,bytes32)": "49556aff",
    "fulfillEthereumPrice(bytes32,uint256)": "92cdaaf3",
    "getChainlinkToken()": "165d35e1",
    "lastMarket()": "e9edbf03",
    "owner()": "8da5cb5b",
    "requestEthereumChange(address,string)": "619cba1a",
    "requestEthereumLastMarket(address,string)": "f3bdf8ba",
    "requestEthereumPrice(address,string)": "ab643c10",
    "transferOwnership(address)": "f2fde38b",
    "withdrawLink()": "8dc654a2"
  },
  "id": 17
}