{"abi":[{"type":"constructor","inputs":[{"name":"link","type":"address","internalType":"address"},{"name":"linkEthFeed","type":"address","internalType":"address"},{"name":"fastGasFeed","type":"address","internalType":"address"},{"name":"config","type":"tuple","internalType":"struct Config","components":[{"name":"paymentPremiumPPB","type":"uint32","internalType":"uint32"},{"name":"flatFeeMicroLink","type":"uint32","internalType":"uint32"},{"name":"blockCountPerTurn","type":"uint24","internalType":"uint24"},{"name":"checkGasLimit","type":"uint32","internalType":"uint32"},{"name":"stalenessSeconds","type":"uint24","internalType":"uint24"},{"name":"gasCeilingMultiplier","type":"uint16","internalType":"uint16"},{"name":"minUpkeepSpend","type":"uint96","internalType":"uint96"},{"name":"maxPerformGas","type":"uint32","internalType":"uint32"},{"name":"fallbackGasPrice","type":"uint256","internalType":"uint256"},{"name":"fallbackLinkPrice","type":"uint256","internalType":"uint256"},{"name":"transcoder","type":"address","internalType":"address"},{"name":"registrar","type":"address","internalType":"address"}]}],"stateMutability":"nonpayable"},{"type":"function","name":"FAST_GAS_FEED","inputs":[],"outputs":[{"name":"","type":"address","internalType":"contract AggregatorV3Interface"}],"stateMutability":"view"},{"type":"function","name":"LINK","inputs":[],"outputs":[{"name":"","type":"address","internalType":"contract LinkTokenInterface"}],"stateMutability":"view"},{"type":"function","name":"LINK_ETH_FEED","inputs":[],"outputs":[{"name":"","type":"address","internalType":"contract AggregatorV3Interface"}],"stateMutability":"view"},{"type":"function","name":"acceptOwnership","inputs":[],"outputs":[],"stateMutability":"nonpayable"},{"type":"function","name":"acceptPayeeship","inputs":[{"name":"keeper","type":"address","internalType":"address"}],"outputs":[],"stateMutability":"nonpayable"},{"type":"function","name":"addFunds","inputs":[{"name":"id","type":"uint256","internalType":"uint256"},{"name":"amount","type":"uint96","internalType":"uint96"}],"outputs":[],"stateMutability":"nonpayable"},{"type":"function","name":"cancelUpkeep","inputs":[{"name":"id","type":"uint256","internalType":"uint256"}],"outputs":[],"stateMutability":"nonpayable"},{"type":"function","name":"checkUpkeep","inputs":[{"name":"id","type":"uint256","internalType":"uint256"},{"name":"from","type":"address","internalType":"address"}],"outputs":[{"name":"performData","type":"bytes","internalType":"bytes"},{"name":"maxLinkPayment","type":"uint256","internalType":"uint256"},{"name":"gasLimit","type":"uint256","internalType":"uint256"},{"name":"adjustedGasWei","type":"uint256","internalType":"uint256"},{"name":"linkEth","type":"uint256","internalType":"uint256"}],"stateMutability":"nonpayable"},{"type":"function","name":"getActiveUpkeepIDs","inputs":[{"name":"startIndex","type":"uint256","internalType":"uint256"},{"name":"maxCount","type":"uint256","internalType":"uint256"}],"outputs":[{"name":"","type":"uint256[]","internalType":"uint256[]"}],"stateMutability":"view"},{"type":"function","name":"getKeeperInfo","inputs":[{"name":"query","type":"address","internalType":"address"}],"outputs":[{"name":"payee","type":"address","internalType":"address"},{"name":"active","type":"bool","internalType":"bool"},{"name":"balance","type":"uint96","internalType":"uint96"}],"stateMutability":"view"},{"type":"function","name":"getMaxPaymentForGas","inputs":[{"name":"gasLimit","type":"uint256","internalType":"uint256"}],"outputs":[{"name":"maxPayment","type":"uint96","internalType":"uint96"}],"stateMutability":"view"},{"type":"function","name":"getMinBalanceForUpkeep","inputs":[{"name":"id","type":"uint256","internalType":"uint256"}],"outputs":[{"name":"minBalance","type":"uint96","internalType":"uint96"}],"stateMutability":"view"},{"type":"function","name":"getPeerRegistryMigrationPermission","inputs":[{"name":"peer","type":"address","internalType":"address"}],"outputs":[{"name":"","type":"uint8","internalType":"enum KeeperRegistry1_2.MigrationPermission"}],"stateMutability":"view"},{"type":"function","name":"getState","inputs":[],"outputs":[{"name":"state","type":"tuple","internalType":"struct State","components":[{"name":"nonce","type":"uint32","internalType":"uint32"},{"name":"ownerLinkBalance","type":"uint96","internalType":"uint96"},{"name":"expectedLinkBalance","type":"uint256","internalType":"uint256"},{"name":"numUpkeeps","type":"uint256","internalType":"uint256"}]},{"name":"config","type":"tuple","internalType":"struct Config","components":[{"name":"paymentPremiumPPB","type":"uint32","internalType":"uint32"},{"name":"flatFeeMicroLink","type":"uint32","internalType":"uint32"},{"name":"blockCountPerTurn","type":"uint24","internalType":"uint24"},{"name":"checkGasLimit","type":"uint32","internalType":"uint32"},{"name":"stalenessSeconds","type":"uint24","internalType":"uint24"},{"name":"gasCeilingMultiplier","type":"uint16","internalType":"uint16"},{"name":"minUpkeepSpend","type":"uint96","internalType":"uint96"},{"name":"maxPerformGas","type":"uint32","internalType":"uint32"},{"name":"fallbackGasPrice","type":"uint256","internalType":"uint256"},{"name":"fallbackLinkPrice","type":"uint256","internalType":"uint256"},{"name":"transcoder","type":"address","internalType":"address"},{"name":"registrar","type":"address","internalType":"address"}]},{"name":"keepers","type":"address[]","internalType":"address[]"}],"stateMutability":"view"},{"type":"function","name":"getUpkeep","inputs":[{"name":"id","type":"uint256","internalType":"uint256"}],"outputs":[{"name":"target","type":"address","internalType":"address"},{"name":"executeGas","type":"uint32","internalType":"uint32"},{"name":"checkData","type":"bytes","internalType":"bytes"},{"name":"balance","type":"uint96","internalType":"uint96"},{"name":"lastKeeper","type":"address","internalType":"address"},{"name":"admin","type":"address","internalType":"address"},{"name":"maxValidBlocknumber","type":"uint64","internalType":"uint64"},{"name":"amountSpent","type":"uint96","internalType":"uint96"}],"stateMutability":"view"},{"type":"function","name":"migrateUpkeeps","inputs":[{"name":"ids","type":"uint256[]","internalType":"uint256[]"},{"name":"destination","type":"address","internalType":"address"}],"outputs":[],"stateMutability":"nonpayable"},{"type":"function","name":"onTokenTransfer","inputs":[{"name":"sender","type":"address","internalType":"address"},{"name":"amount","type":"uint256","internalType":"uint256"},{"name":"data","type":"bytes","internalType":"bytes"}],"outputs":[],"stateMutability":"nonpayable"},{"type":"function","name":"owner","inputs":[],"outputs":[{"name":"","type":"address","internalType":"address"}],"stateMutability":"view"},{"type":"function","name":"pause","inputs":[],"outputs":[],"stateMutability":"nonpayable"},{"type":"function","name":"paused","inputs":[],"outputs":[{"name":"","type":"bool","internalType":"bool"}],"stateMutability":"view"},{"type":"function","name":"performUpkeep","inputs":[{"name":"id","type":"uint256","internalType":"uint256"},{"name":"performData","type":"bytes","internalType":"bytes"}],"outputs":[{"name":"success","type":"bool","internalType":"bool"}],"stateMutability":"nonpayable"},{"type":"function","name":"receiveUpkeeps","inputs":[{"name":"encodedUpkeeps","type":"bytes","internalType":"bytes"}],"outputs":[],"stateMutability":"nonpayable"},{"type":"function","name":"recoverFunds","inputs":[],"outputs":[],"stateMutability":"nonpayable"},{"type":"function","name":"registerUpkeep","inputs":[{"name":"target","type":"address","internalType":"address"},{"name":"gasLimit","type":"uint32","internalType":"uint32"},{"name":"admin","type":"address","internalType":"address"},{"name":"checkData","type":"bytes","internalType":"bytes"}],"outputs":[{"name":"id","type":"uint256","internalType":"uint256"}],"stateMutability":"nonpayable"},{"type":"function","name":"setConfig","inputs":[{"name":"config","type":"tuple","internalType":"struct Config","components":[{"name":"paymentPremiumPPB","type":"uint32","internalType":"uint32"},{"name":"flatFeeMicroLink","type":"uint32","internalType":"uint32"},{"name":"blockCountPerTurn","type":"uint24","internalType":"uint24"},{"name":"checkGasLimit","type":"uint32","internalType":"uint32"},{"name":"stalenessSeconds","type":"uint24","internalType":"uint24"},{"name":"gasCeilingMultiplier","type":"uint16","internalType":"uint16"},{"name":"minUpkeepSpend","type":"uint96","internalType":"uint96"},{"name":"maxPerformGas","type":"uint32","internalType":"uint32"},{"name":"fallbackGasPrice","type":"uint256","internalType":"uint256"},{"name":"fallbackLinkPrice","type":"uint256","internalType":"uint256"},{"name":"transcoder","type":"address","internalType":"address"},{"name":"registrar","type":"address","internalType":"address"}]}],"outputs":[],"stateMutability":"nonpayable"},{"type":"function","name":"setKeepers","inputs":[{"name":"keepers","type":"address[]","internalType":"address[]"},{"name":"payees","type":"address[]","internalType":"address[]"}],"outputs":[],"stateMutability":"nonpayable"},{"type":"function","name":"setPeerRegistryMigrationPermission","inputs":[{"name":"peer","type":"address","internalType":"address"},{"name":"permission","type":"uint8","internalType":"enum KeeperRegistry1_2.MigrationPermission"}],"outputs":[],"stateMutability":"nonpayable"},{"type":"function","name":"setUpkeepGasLimit","inputs":[{"name":"id","type":"uint256","internalType":"uint256"},{"name":"gasLimit","type":"uint32","internalType":"uint32"}],"outputs":[],"stateMutability":"nonpayable"},{"type":"function","name":"transferOwnership","inputs":[{"name":"to","type":"address","internalType":"address"}],"outputs":[],"stateMutability":"nonpayable"},{"type":"function","name":"transferPayeeship","inputs":[{"name":"keeper","type":"address","internalType":"address"},{"name":"proposed","type":"address","internalType":"address"}],"outputs":[],"stateMutability":"nonpayable"},{"type":"function","name":"typeAndVersion","inputs":[],"outputs":[{"name":"","type":"string","internalType":"string"}],"stateMutability":"view"},{"type":"function","name":"unpause","inputs":[],"outputs":[],"stateMutability":"nonpayable"},{"type":"function","name":"upkeepTranscoderVersion","inputs":[],"outputs":[{"name":"","type":"uint8","internalType":"enum UpkeepFormat"}],"stateMutability":"view"},{"type":"function","name":"withdrawFunds","inputs":[{"name":"id","type":"uint256","internalType":"uint256"},{"name":"to","type":"address","internalType":"address"}],"outputs":[],"stateMutability":"nonpayable"},{"type":"function","name":"withdrawOwnerFunds","inputs":[],"outputs":[],"stateMutability":"nonpayable"},{"type":"function","name":"withdrawPayment","inputs":[{"name":"from","type":"address","internalType":"address"},{"name":"to","type":"address","internalType":"address"}],"outputs":[],"stateMutability":"nonpayable"},{"type":"event","name":"ConfigSet","inputs":[{"name":"config","type":"tuple","indexed":false,"internalType":"struct Config","components":[{"name":"paymentPremiumPPB","type":"uint32","internalType":"uint32"},{"name":"flatFeeMicroLink","type":"uint32","internalType":"uint32"},{"name":"blockCountPerTurn","type":"uint24","internalType":"uint24"},{"name":"checkGasLimit","type":"uint32","internalType":"uint32"},{"name":"stalenessSeconds","type":"uint24","internalType":"uint24"},{"name":"gasCeilingMultiplier","type":"uint16","internalType":"uint16"},{"name":"minUpkeepSpend","type":"uint96","internalType":"uint96"},{"name":"maxPerformGas","type":"uint32","internalType":"uint32"},{"name":"fallbackGasPrice","type":"uint256","internalType":"uint256"},{"name":"fallbackLinkPrice","type":"uint256","internalType":"uint256"},{"name":"transcoder","type":"address","internalType":"address"},{"name":"registrar","type":"address","internalType":"address"}]}],"anonymous":false},{"type":"event","name":"FundsAdded","inputs":[{"name":"id","type":"uint256","indexed":true,"internalType":"uint256"},{"name":"from","type":"address","indexed":true,"internalType":"address"},{"name":"amount","type":"uint96","indexed":false,"internalType":"uint96"}],"anonymous":false},{"type":"event","name":"FundsWithdrawn","inputs":[{"name":"id","type":"uint256","indexed":true,"internalType":"uint256"},{"name":"amount","type":"uint256","indexed":false,"internalType":"uint256"},{"name":"to","type":"address","indexed":false,"internalType":"address"}],"anonymous":false},{"type":"event","name":"KeepersUpdated","inputs":[{"name":"keepers","type":"address[]","indexed":false,"internalType":"address[]"},{"name":"payees","type":"address[]","indexed":false,"internalType":"address[]"}],"anonymous":false},{"type":"event","name":"OwnerFundsWithdrawn","inputs":[{"name":"amount","type":"uint96","indexed":false,"internalType":"uint96"}],"anonymous":false},{"type":"event","name":"OwnershipTransferRequested","inputs":[{"name":"from","type":"address","indexed":true,"internalType":"address"},{"name":"to","type":"address","indexed":true,"internalType":"address"}],"anonymous":false},{"type":"event","name":"OwnershipTransferred","inputs":[{"name":"from","type":"address","indexed":true,"internalType":"address"},{"name":"to","type":"address","indexed":true,"internalType":"address"}],"anonymous":false},{"type":"event","name":"Paused","inputs":[{"name":"account","type":"address","indexed":false,"internalType":"address"}],"anonymous":false},{"type":"event","name":"PayeeshipTransferRequested","inputs":[{"name":"keeper","type":"address","indexed":true,"internalType":"address"},{"name":"from","type":"address","indexed":true,"internalType":"address"},{"name":"to","type":"address","indexed":true,"internalType":"address"}],"anonymous":false},{"type":"event","name":"PayeeshipTransferred","inputs":[{"name":"keeper","type":"address","indexed":true,"internalType":"address"},{"name":"from","type":"address","indexed":true,"internalType":"address"},{"name":"to","type":"address","indexed":true,"internalType":"address"}],"anonymous":false},{"type":"event","name":"PaymentWithdrawn","inputs":[{"name":"keeper","type":"address","indexed":true,"internalType":"address"},{"name":"amount","type":"uint256","indexed":true,"internalType":"uint256"},{"name":"to","type":"address","indexed":true,"internalType":"address"},{"name":"payee","type":"address","indexed":false,"internalType":"address"}],"anonymous":false},{"type":"event","name":"Unpaused","inputs":[{"name":"account","type":"address","indexed":false,"internalType":"address"}],"anonymous":false},{"type":"event","name":"UpkeepCanceled","inputs":[{"name":"id","type":"uint256","indexed":true,"internalType":"uint256"},{"name":"atBlockHeight","type":"uint64","indexed":true,"internalType":"uint64"}],"anonymous":false},{"type":"event","name":"UpkeepGasLimitSet","inputs":[{"name":"id","type":"uint256","indexed":true,"internalType":"uint256"},{"name":"gasLimit","type":"uint96","indexed":false,"internalType":"uint96"}],"anonymous":false},{"type":"event","name":"UpkeepMigrated","inputs":[{"name":"id","type":"uint256","indexed":true,"internalType":"uint256"},{"name":"remainingBalance","type":"uint256","indexed":false,"internalType":"uint256"},{"name":"destination","type":"address","indexed":false,"internalType":"address"}],"anonymous":false},{"type":"event","name":"UpkeepPerformed","inputs":[{"name":"id","type":"uint256","indexed":true,"internalType":"uint256"},{"name":"success","type":"bool","indexed":true,"internalType":"bool"},{"name":"from","type":"address","indexed":true,"internalType":"address"},{"name":"payment","type":"uint96","indexed":false,"internalType":"uint96"},{"name":"performData","type":"bytes","indexed":false,"internalType":"bytes"}],"anonymous":false},{"type":"event","name":"UpkeepReceived","inputs":[{"name":"id","type":"uint256","indexed":true,"internalType":"uint256"},{"name":"startingBalance","type":"uint256","indexed":false,"internalType":"uint256"},{"name":"importedFrom","type":"address","indexed":false,"internalType":"address"}],"anonymous":false},{"type":"event","name":"UpkeepRegistered","inputs":[{"name":"id","type":"uint256","indexed":true,"internalType":"uint256"},{"name":"executeGas","type":"uint32","indexed":false,"internalType":"uint32"},{"name":"admin","type":"address","indexed":false,"internalType":"address"}],"anonymous":false},{"type":"error","name":"ArrayHasNoEntries","inputs":[]},{"type":"error","name":"CannotCancel","inputs":[]},{"type":"error","name":"DuplicateEntry","inputs":[]},{"type":"error","name":"GasLimitCanOnlyIncrease","inputs":[]},{"type":"error","name":"GasLimitOutsideRange","inputs":[]},{"type":"error","name":"IndexOutOfRange","inputs":[]},{"type":"error","name":"InsufficientFunds","inputs":[]},{"type":"error","name":"InvalidDataLength","inputs":[]},{"type":"error","name":"InvalidPayee","inputs":[]},{"type":"error","name":"InvalidRecipient","inputs":[]},{"type":"error","name":"KeepersMustTakeTurns","inputs":[]},{"type":"error","name":"MigrationNotPermitted","inputs":[]},{"type":"error","name":"NotAContract","inputs":[]},{"type":"error","name":"OnlyActiveKeepers","inputs":[]},{"type":"error","name":"OnlyCallableByAdmin","inputs":[]},{"type":"error","name":"OnlyCallableByLINKToken","inputs":[]},{"type":"error","name":"OnlyCallableByOwnerOrAdmin","inputs":[]},{"type":"error","name":"OnlyCallableByOwnerOrRegistrar","inputs":[]},{"type":"error","name":"OnlyCallableByPayee","inputs":[]},{"type":"error","name":"OnlyCallableByProposedPayee","inputs":[]},{"type":"error","name":"OnlySimulatedBackend","inputs":[]},{"type":"error","name":"ParameterLengthError","inputs":[]},{"type":"error","name":"PaymentGreaterThanAllLINK","inputs":[]},{"type":"error","name":"TargetCheckReverted","inputs":[{"name":"reason","type":"bytes","internalType":"bytes"}]},{"type":"error","name":"TranscoderNotSet","inputs":[]},{"type":"error","name":"UpkeepNotActive","inputs":[]},{"type":"error","name":"UpkeepNotCanceled","inputs":[]},{"type":"error","name":"UpkeepNotNeeded","inputs":[]},{"type":"error","name":"ValueNotChanged","inputs":[]}],"bytecode":{"object":"0x60e06040523480156200001157600080fd5b50604051620055d7380380620055d7833981016040819052620000349162000577565b33806000816200008b5760405162461bcd60e51b815260206004820152601860248201527f43616e6e6f7420736574206f776e657220746f207a65726f000000000000000060448201526064015b60405180910390fd5b600080546001600160a01b0319166001600160a01b0384811691909117909155811615620000be57620000be8162000107565b50506001600255506003805460ff191690556001600160601b0319606085811b821660805284811b821660a05283901b1660c052620000fd81620001b3565b50505050620007fa565b6001600160a01b038116331415620001625760405162461bcd60e51b815260206004820152601760248201527f43616e6e6f74207472616e7366657220746f2073656c66000000000000000000604482015260640162000082565b600180546001600160a01b0319166001600160a01b0383811691821790925560008054604051929316917fed8889f560326eb138920d842192f0eb3dd22b4f139c87a2c57538e05bae12789190a350565b620001bd620004a8565b600d5460e082015163ffffffff91821691161015620001ef57604051630e6af04160e21b815260040160405180910390fd5b604051806101200160405280826000015163ffffffff168152602001826020015163ffffffff168152602001826040015162ffffff168152602001826060015163ffffffff168152602001826080015162ffffff1681526020018260a0015161ffff1681526020018260c001516001600160601b031681526020018260e0015163ffffffff168152602001600c60010160049054906101000a900463ffffffff1663ffffffff16815250600c60008201518160000160006101000a81548163ffffffff021916908363ffffffff16021790555060208201518160000160046101000a81548163ffffffff021916908363ffffffff16021790555060408201518160000160086101000a81548162ffffff021916908362ffffff160217905550606082015181600001600b6101000a81548163ffffffff021916908363ffffffff160217905550608082015181600001600f6101000a81548162ffffff021916908362ffffff16021790555060a08201518160000160126101000a81548161ffff021916908361ffff16021790555060c08201518160000160146101000a8154816001600160601b0302191690836001600160601b0316021790555060e08201518160010160006101000a81548163ffffffff021916908363ffffffff1602179055506101008201518160010160046101000a81548163ffffffff021916908363ffffffff160217905550905050806101000151600e81905550806101200151600f81905550806101400151601260006101000a8154816001600160a01b0302191690836001600160a01b03160217905550806101600151601360006101000a8154816001600160a01b0302191690836001600160a01b031602179055507ffe125a41957477226ba20f85ef30a4024ea3bb8d066521ddc16df3f2944de325816040516200049d9190620006c3565b60405180910390a150565b6000546001600160a01b03163314620005045760405162461bcd60e51b815260206004820152601660248201527f4f6e6c792063616c6c61626c65206279206f776e657200000000000000000000604482015260640162000082565b565b80516001600160a01b03811681146200051e57600080fd5b919050565b805161ffff811681146200051e57600080fd5b805162ffffff811681146200051e57600080fd5b805163ffffffff811681146200051e57600080fd5b80516001600160601b03811681146200051e57600080fd5b6000806000808486036101e08112156200059057600080fd5b6200059b8662000506565b9450620005ab6020870162000506565b9350620005bb6040870162000506565b925061018080605f1983011215620005d257600080fd5b620005dc620007c2565b9150620005ec606088016200054a565b8252620005fc608088016200054a565b60208301526200060f60a0880162000536565b60408301526200062260c088016200054a565b60608301526200063560e0880162000536565b60808301526101006200064a81890162000523565b60a08401526101206200065f818a016200055f565b60c085015261014062000674818b016200054a565b60e0860152610160808b015184870152848b0151838701526200069b6101a08c0162000506565b82870152620006ae6101c08c0162000506565b90860152509699959850939650909450505050565b815163ffffffff16815261018081016020830151620006ea602084018263ffffffff169052565b50604083015162000702604084018262ffffff169052565b5060608301516200071b606084018263ffffffff169052565b50608083015162000733608084018262ffffff169052565b5060a08301516200074a60a084018261ffff169052565b5060c08301516200076660c08401826001600160601b03169052565b5060e08301516200077f60e084018263ffffffff169052565b5061010083810151908301526101208084015190830152610140808401516001600160a01b03908116918401919091526101609384015116929091019190915290565b60405161018081016001600160401b0381118282101715620007f457634e487b7160e01b600052604160045260246000fd5b60405290565b60805160601c60a05160601c60c05160601c614d5e6200087960003960008181610399015261335a0152600081816104d8015261342e0152600081816102bb01528181610b9d01528181610dca01528181611490015281816117960152818161186b01528181611b1901528181611dbe0152611e440152614d5e6000f3fe608060405234801561001057600080fd5b506004361061021c5760003560e01c806393f0c1fc11610125578063b7fdb436116100ad578063da5c67411161007c578063da5c674114610599578063eb5dcd6c146105ba578063ef47a0ce146105cd578063f2fde38b146105e0578063faa3e996146105f357600080fd5b8063b7fdb43614610528578063c41b813a1461053b578063c7c3a19a1461055f578063c80480221461058657600080fd5b8063a72aa27e116100f4578063a72aa27e146104c0578063ad178361146104d3578063b121e147146104fa578063b657bc9c1461050d578063b79550be1461052057600080fd5b806393f0c1fc1461045c578063948108f714610487578063a4c0ed361461049a578063a710b221146104ad57600080fd5b80635c975abb116101a85780637d9b97e0116101775780637d9b97e0146104155780638456cb591461041d57806385c1b0ba146104255780638da5cb5b146104385780638e86139b1461044957600080fd5b80635c975abb146103d0578063744bfe61146103e757806379ba5097146103fa5780637bbaf1ea1461040257600080fd5b80631b6b6d23116101ef5780631b6b6d23146102b65780631e12b8a5146102f55780633f4ba83a1461038c5780634584a4191461039457806348013d7b146103bb57600080fd5b806306e3b63214610221578063181f5a771461024a5780631865c57d1461028a578063187256e8146102a1575b600080fd5b61023461022f366004614390565b61062c565b6040516102419190614819565b60405180910390f35b61027d6040518060400160405280601481526020017304b6565706572526567697374727920312e322e360641b81525081565b604051610241919061485d565b61029261070e565b604051610241939291906149b3565b6102b46102af366004613e76565b61096d565b005b6102dd7f000000000000000000000000000000000000000000000000000000000000000081565b6040516001600160a01b039091168152602001610241565b61035e610303366004613e28565b6001600160a01b0390811660009081526008602090815260409182902082516060810184528154948516808252600160a01b9095046001600160601b031692810183905260019091015460ff16151592018290529192909190565b604080516001600160a01b03909416845291151560208401526001600160601b031690820152606001610241565b6102b46109b3565b6102dd7f000000000000000000000000000000000000000000000000000000000000000081565b6103c3600081565b6040516102419190614969565b60035460ff165b6040519015158152602001610241565b6102b46103f5366004614322565b6109c5565b6102b4610c32565b6103d7610410366004614345565b610ce1565b6102b4610d3f565b6102b4610e57565b6102b4610433366004613fde565b610e67565b6000546001600160a01b03166102dd565b6102b461045736600461417c565b6114c1565b61046f61046a3660046142f0565b611697565b6040516001600160601b039091168152602001610241565b6102b46104953660046143d5565b6116cb565b6102b46104a8366004613eb1565b611860565b6102b46104bb366004613e43565b6119cd565b6102b46104ce3660046143b2565b611ba7565b6102dd7f000000000000000000000000000000000000000000000000000000000000000081565b6102b4610508366004613e28565b611cd0565b61046f61051b3660046142f0565b611d7d565b6102b4611d9e565b6102b4610536366004613f7f565b611eb1565b61054e610549366004614322565b6120fe565b604051610241959493929190614870565b61057261056d3660046142f0565b612314565b60405161024198979695949392919061463a565b6102b46105943660046142f0565b612482565b6105ac6105a7366004613f0a565b6125f0565b604051908152602001610241565b6102b46105c8366004613e43565b612775565b6102b46105db366004614212565b612856565b6102b46105ee366004613e28565b612b46565b61061f610601366004613e28565b6001600160a01b03166000908152600b602052604090205460ff1690565b604051610241919061494f565b6060600061063a6005612b5a565b905080841061065c57604051631390f2a160e01b815260040160405180910390fd5b8261066e5761066b8482614bd5565b92505b6000836001600160401b0381111561068857610688614d12565b6040519080825280602002602001820160405280156106b1578160200160208202803683370190505b50905060005b84811015610703576106d46106cc8288614b51565b600590612b64565b8282815181106106e6576106e6614cfc565b6020908102919091010152806106fb81614c7b565b9150506106b7565b509150505b92915050565b6040805160808101825260008082526020820181905291810182905260608101919091526040805161018081018252600080825260208201819052918101829052606081018290526080810182905260a0810182905260c0810182905260e081018290526101008101829052610120810182905261014081018290526101608101919091526040805161012081018252600c5463ffffffff8082168352600160201b808304821660208086019190915262ffffff680100000000000000008504811686880152600160581b85048416606087810191909152600160781b8604909116608087015261ffff600160901b86041660a08701526001600160601b03600160a01b909504851660c0870152600d5480851660e0880152929092049092166101008501819052875260105490921690860152601154928501929092526108566005612b5a565b606080860191909152815163ffffffff908116855260208084015182168187015260408085015162ffffff90811682890152858501518416948801949094526080808601519094169387019390935260a08085015161ffff169087015260c0808501516001600160601b03169087015260e08085015190921691860191909152600e54610100860152600f546101208601526012546001600160a01b039081166101408701526013541661016086015260048054835181840281018401909452808452879387939091839183018282801561095a57602002820191906000526020600020905b81546001600160a01b0316815260019091019060200180831161093c575b5050505050905093509350935050909192565b610975612b77565b6001600160a01b0382166000908152600b60205260409020805482919060ff191660018360038111156109aa576109aa614cd0565b02179055505050565b6109bb612b77565b6109c3612bca565b565b806001600160a01b0381166109ed57604051634e46966960e11b815260040160405180910390fd5b6000838152600760205260409020600201548390600160601b90046001600160a01b03163314610a305760405163523e0b8360e11b815260040160405180910390fd5b60008481526007602052604090206001015443600160201b9091046001600160401b03161115610a76576040516001627b1a2360e01b0319815260040160405180910390fd5b600c54600085815260076020526040812080546002909101546001600160601b03600160a01b9094048416939182169291169083821015610ada57610abb8285614bec565b9050826001600160601b0316816001600160601b03161115610ada5750815b6000610ae68285614bec565b60008a815260076020526040902080546001600160601b0319169055601054909150610b1c9083906001600160601b0316614b69565b601080546001600160601b0319166001600160601b03928316179055601154610b4791831690614bd5565b60115560405189907ff3b5906e5672f3e524854103bcafbbdba80dbdfeca2c35e116127b1060a6831890610b7e9084908c90614a48565b60405180910390a260405163a9059cbb60e01b81526001600160a01b037f0000000000000000000000000000000000000000000000000000000000000000169063a9059cbb90610bd4908b9085906004016146b3565b602060405180830381600087803b158015610bee57600080fd5b505af1158015610c02573d6000803e3d6000fd5b505050506040513d601f19601f82011682018060405250810190610c269190614114565b50505050505050505050565b6001546001600160a01b03163314610c8a5760405162461bcd60e51b815260206004820152601660248201527526bab9ba10313290383937b837b9b2b21037bbb732b960511b60448201526064015b60405180910390fd5b60008054336001600160a01b0319808316821784556001805490911690556040516001600160a01b0390921692909183917f8be0079c531659141344cd1fd0a4f28419497f9722a3daafe3b4186f6b6457e091a350565b6000610ceb612c1c565b610d37610d32338686868080601f01602080910402602001604051908101604052809392919081815260200183838082843760009201919091525060019250612c62915050565b612d3d565b949350505050565b610d47612b77565b6010546011546001600160601b0390911690610d64908290614bd5565b601155601080546001600160601b03191690556040516001600160601b03821681527f1d07d0b0be43d3e5fee41a80b579af370affee03fa595bf56d5d4c19328162f19060200160405180910390a160405163a9059cbb60e01b81526001600160a01b037f0000000000000000000000000000000000000000000000000000000000000000169063a9059cbb90610e0190339085906004016146b3565b602060405180830381600087803b158015610e1b57600080fd5b505af1158015610e2f573d6000803e3d6000fd5b505050506040513d601f19601f82011682018060405250810190610e539190614114565b5050565b610e5f612b77565b6109c3613065565b60016001600160a01b0382166000908152600b602052604090205460ff166003811115610e9657610e96614cd0565b14158015610ed1575060036001600160a01b0382166000908152600b602052604090205460ff166003811115610ece57610ece614cd0565b14155b15610eef576040516303afbb0f60e21b815260040160405180910390fd5b6012546001600160a01b0316610f185760405163d12d7d8d60e01b815260040160405180910390fd5b81610f3657604051632c2fc94160e01b815260040160405180910390fd5b6040805160e081018252600080825260208201819052918101829052606081018290526080810182905260a0810182905260c08101829052600080856001600160401b03811115610f8957610f89614d12565b604051908082528060200260200182016040528015610fbc57816020015b6060815260200190600190039081610fa75790505b5090506000866001600160401b03811115610fd957610fd9614d12565b60405190808252806020026020018201604052801561104057816020015b6040805160e08101825260008082526020808301829052928201819052606082018190526080820181905260a0820181905260c08201528252600019909201910181610ff75790505b50905060005b878110156112c85788888281811061106057611060614cfc565b60209081029290920135600081815260078452604090819020815160e08101835281546001600160601b0380821683526001600160a01b03600160601b92839004811698840198909852600184015463ffffffff8116958401959095526001600160401b03600160201b8604166060840152938190048716608083015260029092015492831660a0820152910490931660c0840181905290985091965050331461111d5760405163523e0b8360e11b815260040160405180910390fd5b60608501516001600160401b039081161461114b57604051633425886760e21b815260040160405180910390fd5b8482828151811061115e5761115e614cfc565b6020026020010181905250600a6000878152602001908152602001600020805461118790614c40565b80601f01602080910402602001604051908101604052809291908181526020018280546111b390614c40565b80156112005780601f106111d557610100808354040283529160200191611200565b820191906000526020600020905b8154815290600101906020018083116111e357829003601f168201915b505050505083828151811061121757611217614cfc565b60209081029190910101528451611237906001600160601b031685614b51565b600087815260076020908152604080832083815560018101849055600201839055600a909152812091955061126c91906139cf565b6112776005876130a2565b50857fb38647142fbb1ea4c000fc4569b37a4e9a9f6313317b84ee3e5326c1a6cd06ff8660000151896040516112ae929190614a48565b60405180910390a2806112c081614c7b565b915050611046565b50826011546112d79190614bd5565b6011556040516000906112f4908a908a9085908790602001614707565b6040516020818303038152906040529050866001600160a01b0316638e86139b601260009054906101000a90046001600160a01b03166001600160a01b031663c71249ab60008b6001600160a01b03166348013d7b6040518163ffffffff1660e01b815260040160206040518083038186803b15801561137357600080fd5b505afa158015611387573d6000803e3d6000fd5b505050506040513d601f19601f820116820180604052508101906113ab91906141f1565b866040518463ffffffff1660e01b81526004016113ca93929190614977565b60006040518083038186803b1580156113e257600080fd5b505afa1580156113f6573d6000803e3d6000fd5b505050506040513d6000823e601f3d908101601f1916820160405261141e91908101906141bd565b6040518263ffffffff1660e01b815260040161143a919061485d565b600060405180830381600087803b15801561145457600080fd5b505af1158015611468573d6000803e3d6000fd5b505060405163a9059cbb60e01b81526001600160a01b038a81166004830152602482018890527f000000000000000000000000000000000000000000000000000000000000000016925063a9059cbb9150604401610bd4565b6002336000908152600b602052604090205460ff1660038111156114e7576114e7614cd0565b1415801561151957506003336000908152600b602052604090205460ff16600381111561151657611516614cd0565b14155b15611537576040516303afbb0f60e21b815260040160405180910390fd5b6000808061154784860186614031565b92509250925060005b835181101561168f5761160d84828151811061156e5761156e614cfc565b602002602001015184838151811061158857611588614cfc565b6020026020010151608001518584815181106115a6576115a6614cfc565b6020026020010151604001518685815181106115c4576115c4614cfc565b602002602001015160c001518786815181106115e2576115e2614cfc565b60200260200101516000015187878151811061160057611600614cfc565b60200260200101516130ae565b83818151811061161f5761161f614cfc565b60200260200101517f74931a144e43a50694897f241d973aecb5024c0e910f9bb80a163ea3c1cf5a7184838151811061165a5761165a614cfc565b60200260200101516000015133604051611675929190614a48565b60405180910390a28061168781614c7b565b915050611550565b505050505050565b60008060006116a4613327565b9150915060006116b5836000613508565b90506116c285828461353e565b95945050505050565b6000828152600760205260409020600101548290600160201b90046001600160401b039081161461170f57604051633425886760e21b815260040160405180910390fd5b6000838152600760205260409020546117329083906001600160601b0316614b69565b600084815260076020526040902080546001600160601b0319166001600160601b0392831617905560115461176991841690614b51565b6011556040516323b872dd60e01b81523360048201523060248201526001600160601b03831660448201527f00000000000000000000000000000000000000000000000000000000000000006001600160a01b0316906323b872dd90606401602060405180830381600087803b1580156117e257600080fd5b505af11580156117f6573d6000803e3d6000fd5b505050506040513d601f19601f8201168201806040525081019061181a9190614114565b506040516001600160601b0383168152339084907fafd24114486da8ebfc32f3626dada8863652e187461aa74d4bfa7348915062039060200160405180910390a3505050565b336001600160a01b037f000000000000000000000000000000000000000000000000000000000000000016146118a95760405163c8bad78d60e01b815260040160405180910390fd5b602081146118ca57604051630dfe930960e41b815260040160405180910390fd5b60006118d8828401846142f0565b600081815260076020526040902060010154909150600160201b90046001600160401b039081161461191d57604051633425886760e21b815260040160405180910390fd5b6000818152600760205260409020546119409085906001600160601b0316614b69565b600082815260076020526040902080546001600160601b0319166001600160601b039290921691909117905560115461197a908590614b51565b6011556040516001600160601b03851681526001600160a01b0386169082907fafd24114486da8ebfc32f3626dada8863652e187461aa74d4bfa7348915062039060200160405180910390a35050505050565b806001600160a01b0381166119f557604051634e46966960e11b815260040160405180910390fd5b6001600160a01b0383811660009081526008602090815260409182902082516060810184528154948516808252600160a01b9095046001600160601b0316928101929092526001015460ff16151591810191909152903314611a6a5760405163cebf515b60e01b815260040160405180910390fd5b6001600160a01b0380851660009081526008602090815260409091208054909216909155810151601154611aa7916001600160601b031690614bd5565b6011556020808201516040513381526001600160a01b03808716936001600160601b0390931692908816917f9819093176a1851202c7bcfa46845809b4e47c261866550e94ed3775d2f40698910160405180910390a4602081015160405163a9059cbb60e01b81526001600160a01b037f0000000000000000000000000000000000000000000000000000000000000000169163a9059cbb91611b4e9187916004016146b3565b602060405180830381600087803b158015611b6857600080fd5b505af1158015611b7c573d6000803e3d6000fd5b505050506040513d601f19601f82011682018060405250810190611ba09190614114565b5050505050565b6000828152600760205260409020600101548290600160201b90046001600160401b0390811614611beb57604051633425886760e21b815260040160405180910390fd5b6000838152600760205260409020600201548390600160601b90046001600160a01b03163314611c2e5760405163523e0b8360e11b815260040160405180910390fd5b6108fc8363ffffffff161080611c4f5750600d5463ffffffff908116908416115b15611c6d576040516314c237fb60e01b815260040160405180910390fd5b600084815260076020908152604091829020600101805463ffffffff191663ffffffff8716908117909155915191825285917fc24c07e655ce79fba8a589778987d3c015bc6af1632bb20cf9182e02a65d972c910160405180910390a250505050565b6001600160a01b03818116600090815260096020526040902054163314611d0a576040516333a973d560e11b815260040160405180910390fd5b6001600160a01b0381811660008181526008602090815260408083208054336001600160a01b031980831682179093556009909452828520805490921690915590519416939092849290917f78af32efdcad432315431e9b03d27e6cd98fb79c405fdc5af7c1714d9c0f75b39190a45050565b6000818152600760205260408120600101546107089063ffffffff16611697565b611da6612b77565b6040516370a0823160e01b81523060048201526000907f00000000000000000000000000000000000000000000000000000000000000006001600160a01b0316906370a082319060240160206040518083038186803b158015611e0857600080fd5b505afa158015611e1c573d6000803e3d6000fd5b505050506040513d601f19601f82011682018060405250810190611e409190614309565b90507f00000000000000000000000000000000000000000000000000000000000000006001600160a01b031663a9059cbb3360115484611e809190614bd5565b6040516001600160e01b031960e085901b1681526001600160a01b0390921660048301526024820152604401610e01565b611eb9612b77565b8281141580611ec85750600283105b15611ee6576040516367aa603560e11b815260040160405180910390fd5b60005b600454811015611f4757600060048281548110611f0857611f08614cfc565b60009182526020808320909101546001600160a01b031682526008905260409020600101805460ff191690555080611f3f81614c7b565b915050611ee9565b5060005b838110156120ad576000858583818110611f6757611f67614cfc565b9050602002016020810190611f7c9190613e28565b6001600160a01b03808216600090815260086020526040812080549394509290911690868686818110611fb157611fb1614cfc565b9050602002016020810190611fc69190613e28565b90506001600160a01b038116158061201857506001600160a01b038216158015906120035750806001600160a01b0316826001600160a01b031614155b801561201857506001600160a01b0381811614155b1561203657604051631670f44760e31b815260040160405180910390fd5b600183015460ff161561205c57604051630d5f433160e21b815260040160405180910390fd5b6001838101805460ff191690911790556001600160a01b03818116146120965782546001600160a01b0319166001600160a01b0382161783555b5050505080806120a590614c7b565b915050611f4b565b506120ba60048585613a09565b507f056264c94f28bb06c99d13f0446eb96c67c215d8d707bce2655a98ddf1c0b71f848484846040516120f094939291906146d5565b60405180910390a150505050565b606060008060008061210e613601565b6000878152600760209081526040808320815160e08101835281546001600160601b0380821683526001600160a01b03600160601b92839004811684880152600185015463ffffffff8116858801526001600160401b03600160201b82041660608601528390048116608085015260029094015490811660a08401520490911660c08201528a8452600a9092528083209051919291636e04ff0d60e01b916121b8916024016148a7565b604051602081830303815290604052906001600160e01b0319166020820180516001600160e01b038381831617835250505050905060008083608001516001600160a01b0316600c600001600b9054906101000a900463ffffffff1663ffffffff1684604051612228919061461e565b60006040518083038160008787f1925050503d8060008114612266576040519150601f19603f3d011682016040523d82523d6000602084013e61226b565b606091505b50915091508161229057806040516396c3623560e01b8152600401610c81919061485d565b808060200190518101906122a4919061412f565b99509150816122c65760405163865676e360e01b815260040160405180910390fd5b60006122d58b8d8c6000612c62565b90506122ea8582600001518360600151613620565b6060810151608082015160a083015160c0909301519b9e919d509b50909998509650505050505050565b6000818152600760209081526040808320815160e08101835281546001600160601b0380821683526001600160a01b03600160601b928390048116848801908152600186015463ffffffff81168689018190526001600160401b03600160201b83041660608881019182529287900485166080890181905260029099015495861660a089019081529690950490931660c087019081528b8b52600a9099529689208551915198519351945181548b9a8b998a998a998a998a99929893979296929593949390929086906123e690614c40565b80601f016020809104026020016040519081016040528092919081815260200182805461241290614c40565b801561245f5780601f106124345761010080835404028352916020019161245f565b820191906000526020600020905b81548152906001019060200180831161244257829003601f168201915b505050505095509850985098509850985098509850985050919395975091939597565b6000818152600760205260408120600101546001600160401b03600160201b90910481169190821415906124be6000546001600160a01b031690565b6001600160a01b0316336001600160a01b03161490508180156124f357508080156124f1575043836001600160401b0316115b155b1561251157604051631f7806af60e31b815260040160405180910390fd5b801580156125405750600084815260076020526040902060020154600160601b90046001600160a01b03163314155b1561255e57604051637dedc72b60e11b815260040160405180910390fd5b43816125725761256f603282614b51565b90505b600085815260076020526040902060010180546bffffffffffffffff000000001916600160201b6001600160401b038416021790556125b26005866130a2565b506040516001600160401b0382169086907f91cb3bb75cfbd718bbfccc56b7f53d92d7048ef4ca39a3b7b7c6d4af1f79118190600090a35050505050565b600080546001600160a01b0316331480159061261757506013546001600160a01b03163314155b156126355760405163d48b678b60e01b815260040160405180910390fd5b612640600143614bd5565b600d5460408051924060208401523060601b6001600160601b03191690830152600160201b900460e01b6001600160e01b03191660548201526058016040516020818303038152906040528051906020012060001c90506126dc81878787600088888080601f0160208091040260200160405190810160405280939291908181526020018383808284376000920191909152506130ae92505050565b600d8054600160201b900463ffffffff169060046126f983614c96565b91906101000a81548163ffffffff021916908363ffffffff16021790555050807fbae366358c023f887e791d7a62f2e4316f1026bd77f6fb49501a917b3bc5d012868660405161276492919063ffffffff9290921682526001600160a01b0316602082015260400190565b60405180910390a295945050505050565b6001600160a01b038281166000908152600860205260409020541633146127af5760405163cebf515b60e01b815260040160405180910390fd5b6001600160a01b0381163314156127d957604051638c8728c760e01b815260040160405180910390fd5b6001600160a01b03828116600090815260096020526040902054811690821614610e53576001600160a01b0382811660008181526009602052604080822080546001600160a01b0319169486169485179055513392917f84f7c7c80bb8ed2279b4aab5f61cd05e6374073d38f46d7f32de8c30e9e3836791a45050565b61285e612b77565b600d5460e082015163ffffffff9182169116101561288f57604051630e6af04160e21b815260040160405180910390fd5b604051806101200160405280826000015163ffffffff168152602001826020015163ffffffff168152602001826040015162ffffff168152602001826060015163ffffffff168152602001826080015162ffffff1681526020018260a0015161ffff1681526020018260c001516001600160601b031681526020018260e0015163ffffffff168152602001600c60010160049054906101000a900463ffffffff1663ffffffff16815250600c60008201518160000160006101000a81548163ffffffff021916908363ffffffff16021790555060208201518160000160046101000a81548163ffffffff021916908363ffffffff16021790555060408201518160000160086101000a81548162ffffff021916908362ffffff160217905550606082015181600001600b6101000a81548163ffffffff021916908363ffffffff160217905550608082015181600001600f6101000a81548162ffffff021916908362ffffff16021790555060a08201518160000160126101000a81548161ffff021916908361ffff16021790555060c08201518160000160146101000a8154816001600160601b0302191690836001600160601b0316021790555060e08201518160010160006101000a81548163ffffffff021916908363ffffffff1602179055506101008201518160010160046101000a81548163ffffffff021916908363ffffffff160217905550905050806101000151600e81905550806101200151600f81905550806101400151601260006101000a8154816001600160a01b0302191690836001600160a01b03160217905550806101600151601360006101000a8154816001600160a01b0302191690836001600160a01b031602179055507ffe125a41957477226ba20f85ef30a4024ea3bb8d066521ddc16df3f2944de32581604051612b3b91906149a4565b60405180910390a150565b612b4e612b77565b612b57816136c2565b50565b6000610708825490565b6000612b70838361376c565b9392505050565b6000546001600160a01b031633146109c35760405162461bcd60e51b815260206004820152601660248201527527b7363c9031b0b63630b1363290313c9037bbb732b960511b6044820152606401610c81565b612bd2613796565b6003805460ff191690557f5db9ee0a495bf2e6ff9c91a7834c1ba4fdd244a5e8aa4e537bd38aeae4b073aa335b6040516001600160a01b03909116815260200160405180910390a1565b60035460ff16156109c35760405162461bcd60e51b815260206004820152601060248201526f14185d5cd8589b194e881c185d5cd95960821b6044820152606401610c81565b612cab6040518060e0016040528060006001600160a01b031681526020016000815260200160608152602001600081526020016000815260200160008152602001600081525090565b60008481526007602052604081206001015463ffffffff169080612ccd613327565b915091506000612cdd8387613508565b90506000612cec85838561353e565b6040805160e0810182526001600160a01b038d168152602081018c90529081018a90526001600160601b03909116606082015260808101959095525060a084015260c0830152509050949350505050565b6000612d476137df565b6020828101516000818152600790925260409091206001015443600160201b9091046001600160401b031611612d9057604051633425886760e21b815260040160405180910390fd5b602080840151600090815260078252604090819020815160e08101835281546001600160601b0380821683526001600160a01b03600160601b92839004811696840196909652600184015463ffffffff8116958401959095526001600160401b03600160201b860416606080850191909152948290048616608084015260029093015492831660a083015290910490921660c0830152845190850151612e37918391613620565b60005a90506000634585e33b60e01b8660400151604051602401612e5b919061485d565b604051602081830303815290604052906001600160e01b0319166020820180516001600160e01b0383818316178352505050509050612ea38660800151846080015183613837565b94505a612eb09083614bd5565b91506000612ec7838860a001518960c0015161353e565b602080890151600090815260079091526040902054909150612ef39082906001600160601b0316614bec565b6020888101805160009081526007909252604080832080546001600160601b0319166001600160601b0395861617905590518252902060020154612f3991839116614b69565b60208881018051600090815260078352604080822060020180546001600160601b0319166001600160601b039687161790558b519251825280822080548616600160601b6001600160a01b03958616021790558b5190921681526008909252902054612fae918391600160a01b900416614b69565b6008600089600001516001600160a01b03166001600160a01b0316815260200190815260200160002060000160146101000a8154816001600160601b0302191690836001600160601b0316021790555086600001516001600160a01b031686151588602001517fcaacad83e47cc45c280d487ec84184eee2fa3b54ebaa393bda7549f13da228f6848b60400151604051613049929190614a6a565b60405180910390a450505050506130606001600255565b919050565b61306d612c1c565b6003805460ff191660011790557f62e78cea01bee320cd4e420270b5ea74000d11b0c9f74754ebdbfc544b05a258612bff3390565b6000612b708383613883565b6130b6612c1c565b6001600160a01b0385163b6130de576040516309ee12d560e01b815260040160405180910390fd5b6108fc8463ffffffff1610806130ff5750600d5463ffffffff908116908516115b1561311d576040516314c237fb60e01b815260040160405180910390fd5b6040518060e00160405280836001600160601b0316815260200160006001600160a01b031681526020018563ffffffff1681526020016001600160401b0380168152602001866001600160a01b0316815260200160006001600160601b03168152602001846001600160a01b03168152506007600088815260200190815260200160002060008201518160000160006101000a8154816001600160601b0302191690836001600160601b03160217905550602082015181600001600c6101000a8154816001600160a01b0302191690836001600160a01b0316021790555060408201518160010160006101000a81548163ffffffff021916908363ffffffff16021790555060608201518160010160046101000a8154816001600160401b0302191690836001600160401b03160217905550608082015181600101600c6101000a8154816001600160a01b0302191690836001600160a01b0316021790555060a08201518160020160006101000a8154816001600160601b0302191690836001600160601b0316021790555060c082015181600201600c6101000a8154816001600160a01b0302191690836001600160a01b03160217905550905050816001600160601b03166011546132f09190614b51565b6011556000868152600a60209081526040909120825161331292840190613a6c565b5061331e600587613976565b50505050505050565b6000806000600c600001600f9054906101000a900462ffffff1662ffffff1690506000808263ffffffff161190506000807f00000000000000000000000000000000000000000000000000000000000000006001600160a01b031663feaf968c6040518163ffffffff1660e01b815260040160a06040518083038186803b1580156133b157600080fd5b505afa1580156133c5573d6000803e3d6000fd5b505050506040513d601f19601f820116820180604052508101906133e991906143f8565b50945090925084915050801561340d57506134048242614bd5565b8463ffffffff16105b80613419575060008113155b1561342857600e54955061342c565b8095505b7f00000000000000000000000000000000000000000000000000000000000000006001600160a01b031663feaf968c6040518163ffffffff1660e01b815260040160a06040518083038186803b15801561348557600080fd5b505afa158015613499573d6000803e3d6000fd5b505050506040513d601f19601f820116820180604052508101906134bd91906143f8565b5094509092508491505080156134e157506134d88242614bd5565b8463ffffffff16105b806134ed575060008113155b156134fc57600f549450613500565b8094505b505050509091565b600c5460009061352390600160901b900461ffff1684614bb6565b90508180156135315750803a105b1561070857503a92915050565b60008061354e6201388086614b51565b6135589085614bb6565b600c549091506000906135759063ffffffff16633b9aca00614b51565b600c5490915060009061359a90600160201b900463ffffffff1664e8d4a51000614bb6565b85836135aa86633b9aca00614bb6565b6135b49190614bb6565b6135be9190614b94565b6135c89190614b51565b90506b033b2e3c9fd0803ce80000008111156135f75760405163156baa3d60e11b815260040160405180910390fd5b9695505050505050565b32156109c35760405163b60ac5db60e01b815260040160405180910390fd5b6001600160a01b03821660009081526008602052604090206001015460ff1661365c576040516319f759fb60e31b815260040160405180910390fd5b82516001600160601b03168111156136875760405163356680b760e01b815260040160405180910390fd5b816001600160a01b031683602001516001600160a01b031614156136bd57604051621af04160e61b815260040160405180910390fd5b505050565b6001600160a01b03811633141561371b5760405162461bcd60e51b815260206004820152601760248201527f43616e6e6f74207472616e7366657220746f2073656c660000000000000000006044820152606401610c81565b600180546001600160a01b0319166001600160a01b0383811691821790925560008054604051929316917fed8889f560326eb138920d842192f0eb3dd22b4f139c87a2c57538e05bae12789190a350565b600082600001828154811061378357613783614cfc565b9060005260206000200154905092915050565b60035460ff166109c35760405162461bcd60e51b815260206004820152601460248201527314185d5cd8589b194e881b9bdd081c185d5cd95960621b6044820152606401610c81565b6002805414156138315760405162461bcd60e51b815260206004820152601f60248201527f5265656e7472616e637947756172643a207265656e7472616e742063616c6c006044820152606401610c81565b60028055565b60005a61138881101561384957600080fd5b61138881039050846040820482031161386157600080fd5b50823b61386d57600080fd5b60008083516020850160008789f1949350505050565b6000818152600183016020526040812054801561396c5760006138a7600183614bd5565b85549091506000906138bb90600190614bd5565b90508181146139205760008660000182815481106138db576138db614cfc565b90600052602060002001549050808760000184815481106138fe576138fe614cfc565b6000918252602080832090910192909255918252600188019052604090208390555b855486908061393157613931614ce6565b600190038181906000526020600020016000905590558560010160008681526020019081526020016000206000905560019350505050610708565b6000915050610708565b6000818152600183016020526040812054612b70908490849084906139c757508154600181810184556000848152602080822090930184905584548482528286019093526040902091909155610708565b506000610708565b5080546139db90614c40565b6000825580601f106139eb575050565b601f016020900490600052602060002090810190612b579190613ae0565b828054828255906000526020600020908101928215613a5c579160200282015b82811115613a5c5781546001600160a01b0319166001600160a01b03843516178255602090920191600190910190613a29565b50613a68929150613ae0565b5090565b828054613a7890614c40565b90600052602060002090601f016020900481019282613a9a5760008555613a5c565b82601f10613ab357805160ff1916838001178555613a5c565b82800160010185558215613a5c579182015b82811115613a5c578251825591602001919060010190613ac5565b5b80821115613a685760008155600101613ae1565b80356001600160a01b038116811461306057600080fd5b60008083601f840112613b1e57600080fd5b5081356001600160401b03811115613b3557600080fd5b6020830191508360208260051b8501011115613b5057600080fd5b9250929050565b600082601f830112613b6857600080fd5b81356020613b7d613b7883614b07565b614ad7565b80838252828201915082860187848660051b8901011115613b9d57600080fd5b60005b85811015613c1c5781356001600160401b03811115613bbe57600080fd5b8801603f81018a13613bcf57600080fd5b858101356040613be1613b7883614b2a565b8281528c82848601011115613bf557600080fd5b828285018a8301376000928101890192909252508552509284019290840190600101613ba0565b5090979650505050505050565b600082601f830112613c3a57600080fd5b81356020613c4a613b7883614b07565b8281528181019085830160e080860288018501891015613c6957600080fd5b60005b86811015613d1a5781838b031215613c8357600080fd5b613c8b614a8c565b613c9484613e11565b8152613ca1878501613af5565b878201526040613cb2818601613de3565b908201526060848101356001600160401b0381168114613cd157600080fd5b908201526080613ce2858201613af5565b9082015260a0613cf3858201613e11565b9082015260c0613d04858201613af5565b9082015285529385019391810191600101613c6c565b509198975050505050505050565b8051801515811461306057600080fd5b60008083601f840112613d4a57600080fd5b5081356001600160401b03811115613d6157600080fd5b602083019150836020828501011115613b5057600080fd5b600082601f830112613d8a57600080fd5b8151613d98613b7882614b2a565b818152846020838601011115613dad57600080fd5b610d37826020830160208701614c14565b803561ffff8116811461306057600080fd5b803562ffffff8116811461306057600080fd5b803563ffffffff8116811461306057600080fd5b805169ffffffffffffffffffff8116811461306057600080fd5b80356001600160601b038116811461306057600080fd5b600060208284031215613e3a57600080fd5b612b7082613af5565b60008060408385031215613e5657600080fd5b613e5f83613af5565b9150613e6d60208401613af5565b90509250929050565b60008060408385031215613e8957600080fd5b613e9283613af5565b9150602083013560048110613ea657600080fd5b809150509250929050565b60008060008060608587031215613ec757600080fd5b613ed085613af5565b93506020850135925060408501356001600160401b03811115613ef257600080fd5b613efe87828801613d38565b95989497509550505050565b600080600080600060808688031215613f2257600080fd5b613f2b86613af5565b9450613f3960208701613de3565b9350613f4760408701613af5565b925060608601356001600160401b03811115613f6257600080fd5b613f6e88828901613d38565b969995985093965092949392505050565b60008060008060408587031215613f9557600080fd5b84356001600160401b0380821115613fac57600080fd5b613fb888838901613b0c565b90965094506020870135915080821115613fd157600080fd5b50613efe87828801613b0c565b600080600060408486031215613ff357600080fd5b83356001600160401b0381111561400957600080fd5b61401586828701613b0c565b9094509250614028905060208501613af5565b90509250925092565b60008060006060848603121561404657600080fd5b83356001600160401b038082111561405d57600080fd5b818601915086601f83011261407157600080fd5b81356020614081613b7883614b07565b8083825282820191508286018b848660051b89010111156140a157600080fd5b600096505b848710156140c45780358352600196909601959183019183016140a6565b50975050870135925050808211156140db57600080fd5b6140e787838801613c29565b935060408601359150808211156140fd57600080fd5b5061410a86828701613b57565b9150509250925092565b60006020828403121561412657600080fd5b612b7082613d28565b6000806040838503121561414257600080fd5b61414b83613d28565b915060208301516001600160401b0381111561416657600080fd5b61417285828601613d79565b9150509250929050565b6000806020838503121561418f57600080fd5b82356001600160401b038111156141a557600080fd5b6141b185828601613d38565b90969095509350505050565b6000602082840312156141cf57600080fd5b81516001600160401b038111156141e557600080fd5b610d3784828501613d79565b60006020828403121561420357600080fd5b815160038110612b7057600080fd5b6000610180828403121561422557600080fd5b61422d614ab4565b61423683613de3565b815261424460208401613de3565b602082015261425560408401613dd0565b604082015261426660608401613de3565b606082015261427760808401613dd0565b608082015261428860a08401613dbe565b60a082015261429960c08401613e11565b60c08201526142aa60e08401613de3565b60e0820152610100838101359082015261012080840135908201526101406142d3818501613af5565b908201526101606142e5848201613af5565b908201529392505050565b60006020828403121561430257600080fd5b5035919050565b60006020828403121561431b57600080fd5b5051919050565b6000806040838503121561433557600080fd5b82359150613e6d60208401613af5565b60008060006040848603121561435a57600080fd5b8335925060208401356001600160401b0381111561437757600080fd5b61438386828701613d38565b9497909650939450505050565b600080604083850312156143a357600080fd5b50508035926020909101359150565b600080604083850312156143c557600080fd5b82359150613e6d60208401613de3565b600080604083850312156143e857600080fd5b82359150613e6d60208401613e11565b600080600080600060a0868803121561441057600080fd5b61441986613df7565b945060208601519350604086015192506060860151915061443c60808701613df7565b90509295509295909350565b8183526000602080850194508260005b85811015614484576001600160a01b0361447183613af5565b1687529582019590820190600101614458565b509495945050505050565b600081518084526020808501808196508360051b8101915082860160005b858110156144d75782840389526144c58483516144e4565b988501989350908401906001016144ad565b5091979650505050505050565b600081518084526144fc816020860160208601614c14565b601f01601f19169290920160200192915050565b6003811061452057614520614cd0565b9052565b805163ffffffff1682526020810151614545602084018263ffffffff169052565b50604081015161455c604084018262ffffff169052565b506060810151614574606084018263ffffffff169052565b50608081015161458b608084018262ffffff169052565b5060a08101516145a160a084018261ffff169052565b5060c08101516145bc60c08401826001600160601b03169052565b5060e08101516145d460e084018263ffffffff169052565b5061010081810151908301526101208082015190830152610140808201516001600160a01b038116828501525050610160818101516001600160a01b038116848301525b50505050565b60008251614630818460208701614c14565b9190910192915050565b6001600160a01b03898116825263ffffffff891660208301526101006040830181905260009161466c8483018b6144e4565b6001600160601b03998a16606086015297811660808501529590951660a0830152506001600160401b039290921660c083015290931660e090930192909252949350505050565b6001600160a01b039290921682526001600160601b0316602082015260400190565b6040815260006146e9604083018688614448565b82810360208401526146fc818587614448565b979650505050505050565b606080825281810185905260009060806001600160fb1b0387111561472b57600080fd5b8660051b808983870137808501905081810160008152602083878403018188015281895180845260a093508385019150828b01945060005b818110156147f557855180516001600160601b03168452848101516001600160a01b039081168686015260408083015163ffffffff1690860152898201516001600160401b03168a860152888201511688850152858101516147cf878601826001600160601b03169052565b5060c0908101516001600160a01b0316908401529483019460e090920191600101614763565b50508781036040890152614809818a61448f565b9c9b505050505050505050505050565b6020808252825182820181905260009190848201906040850190845b8181101561485157835183529284019291840191600101614835565b50909695505050505050565b602081526000612b7060208301846144e4565b60a08152600061488360a08301886144e4565b90508560208301528460408301528360608301528260808301529695505050505050565b600060208083526000845481600182811c9150808316806148c957607f831692505b8583108114156148e757634e487b7160e01b85526022600452602485fd5b878601838152602001818015614904576001811461491557614940565b60ff19861682528782019650614940565b60008b81526020902060005b8681101561493a57815484820152908501908901614921565b83019750505b50949998505050505050505050565b602081016004831061496357614963614cd0565b91905290565b602081016107088284614510565b6149818185614510565b61498e6020820184614510565b6060604082015260006116c260608301846144e4565b61018081016107088284614524565b600061022080830163ffffffff875116845260206001600160601b0381890151168186015260408801516040860152606088015160608601526149f96080860188614524565b6102008501929092528451908190526102408401918086019160005b81811015614a3a5783516001600160a01b031685529382019392820192600101614a15565b509298975050505050505050565b6001600160601b039290921682526001600160a01b0316602082015260400190565b6001600160601b0383168152604060208201526000610d3760408301846144e4565b60405160e081016001600160401b0381118282101715614aae57614aae614d12565b60405290565b60405161018081016001600160401b0381118282101715614aae57614aae614d12565b604051601f8201601f191681016001600160401b0381118282101715614aff57614aff614d12565b604052919050565b60006001600160401b03821115614b2057614b20614d12565b5060051b60200190565b60006001600160401b03821115614b4357614b43614d12565b50601f01601f191660200190565b60008219821115614b6457614b64614cba565b500190565b60006001600160601b03808316818516808303821115614b8b57614b8b614cba565b01949350505050565b600082614bb157634e487b7160e01b600052601260045260246000fd5b500490565b6000816000190483118215151615614bd057614bd0614cba565b500290565b600082821015614be757614be7614cba565b500390565b60006001600160601b0383811690831681811015614c0c57614c0c614cba565b039392505050565b60005b83811015614c2f578181015183820152602001614c17565b838111156146185750506000910152565b600181811c90821680614c5457607f821691505b60208210811415614c7557634e487b7160e01b600052602260045260246000fd5b50919050565b6000600019821415614c8f57614c8f614cba565b5060010190565b600063ffffffff80831681811415614cb057614cb0614cba565b6001019392505050565b634e487b7160e01b600052601160045260246000fd5b634e487b7160e01b600052602160045260246000fd5b634e487b7160e01b600052603160045260246000fd5b634e487b7160e01b600052603260045260246000fd5b634e487b7160e01b600052604160045260246000fdfea2646970667358221220bac4ff6e810af94648ae57c86c39a972ca556149806de28da1f2a1e8dfdbbcc164736f6c63430008060033","linkReferences":{}},"methodIdentifiers":{"FAST_GAS_FEED()":"4584a419","LINK()":"1b6b6d23","LINK_ETH_FEED()":"ad178361","acceptOwnership()":"79ba5097","acceptPayeeship(address)":"b121e147","addFunds(uint256,uint96)":"948108f7","cancelUpkeep(uint256)":"c8048022","checkUpkeep(uint256,address)":"c41b813a","getActiveUpkeepIDs(uint256,uint256)":"06e3b632","getKeeperInfo(address)":"1e12b8a5","getMaxPaymentForGas(uint256)":"93f0c1fc","getMinBalanceForUpkeep(uint256)":"b657bc9c","getPeerRegistryMigrationPermission(address)":"faa3e996","getState()":"1865c57d","getUpkeep(uint256)":"c7c3a19a","migrateUpkeeps(uint256[],address)":"85c1b0ba","onTokenTransfer(address,uint256,bytes)":"a4c0ed36","owner()":"8da5cb5b","pause()":"8456cb59","paused()":"5c975abb","performUpkeep(uint256,bytes)":"7bbaf1ea","receiveUpkeeps(bytes)":"8e86139b","recoverFunds()":"b79550be","registerUpkeep(address,uint32,address,bytes)":"da5c6741","setConfig((uint32,uint32,uint24,uint32,uint24,uint16,uint96,uint32,uint256,uint256,address,address))":"ef47a0ce","setKeepers(address[],address[])":"b7fdb436","setPeerRegistryMigrationPermission(address,uint8)":"187256e8","setUpkeepGasLimit(uint256,uint32)":"a72aa27e","transferOwnership(address)":"f2fde38b","transferPayeeship(address,address)":"eb5dcd6c","typeAndVersion()":"181f5a77","unpause()":"3f4ba83a","upkeepTranscoderVersion()":"48013d7b","withdrawFunds(uint256,address)":"744bfe61","withdrawOwnerFunds()":"7d9b97e0","withdrawPayment(address,address)":"a710b221"},"id":33}