{"abi":[{"type":"constructor","inputs":[{"name":"link","type":"address","internalType":"address"},{"name":"blockhashStore","type":"address","internalType":"address"},{"name":"linkEthFeed","type":"address","internalType":"address"}],"stateMutability":"nonpayable"},{"type":"function","name":"BLOCKHASH_STORE","inputs":[],"outputs":[{"name":"","type":"address","internalType":"contract BlockhashStoreInterface"}],"stateMutability":"view"},{"type":"function","name":"LINK","inputs":[],"outputs":[{"name":"","type":"address","internalType":"contract LinkTokenInterface"}],"stateMutability":"view"},{"type":"function","name":"LINK_ETH_FEED","inputs":[],"outputs":[{"name":"","type":"address","internalType":"contract AggregatorV3Interface"}],"stateMutability":"view"},{"type":"function","name":"MAX_CONSUMERS","inputs":[],"outputs":[{"name":"","type":"uint16","internalType":"uint16"}],"stateMutability":"view"},{"type":"function","name":"MAX_NUM_WORDS","inputs":[],"outputs":[{"name":"","type":"uint32","internalType":"uint32"}],"stateMutability":"view"},{"type":"function","name":"MAX_REQUEST_CONFIRMATIONS","inputs":[],"outputs":[{"name":"","type":"uint16","internalType":"uint16"}],"stateMutability":"view"},{"type":"function","name":"acceptOwnership","inputs":[],"outputs":[],"stateMutability":"nonpayable"},{"type":"function","name":"acceptSubscriptionOwnerTransfer","inputs":[{"name":"subId","type":"uint64","internalType":"uint64"}],"outputs":[],"stateMutability":"nonpayable"},{"type":"function","name":"addConsumer","inputs":[{"name":"subId","type":"uint64","internalType":"uint64"},{"name":"consumer","type":"address","internalType":"address"}],"outputs":[],"stateMutability":"nonpayable"},{"type":"function","name":"cancelSubscription","inputs":[{"name":"subId","type":"uint64","internalType":"uint64"},{"name":"to","type":"address","internalType":"address"}],"outputs":[],"stateMutability":"nonpayable"},{"type":"function","name":"createSubscription","inputs":[],"outputs":[{"name":"","type":"uint64","internalType":"uint64"}],"stateMutability":"nonpayable"},{"type":"function","name":"deregisterProvingKey","inputs":[{"name":"publicProvingKey","type":"uint256[2]","internalType":"uint256[2]"}],"outputs":[],"stateMutability":"nonpayable"},{"type":"function","name":"fulfillRandomWords","inputs":[{"name":"proof","type":"tuple","internalType":"struct VRF.Proof","components":[{"name":"pk","type":"uint256[2]","internalType":"uint256[2]"},{"name":"gamma","type":"uint256[2]","internalType":"uint256[2]"},{"name":"c","type":"uint256","internalType":"uint256"},{"name":"s","type":"uint256","internalType":"uint256"},{"name":"seed","type":"uint256","internalType":"uint256"},{"name":"uWitness","type":"address","internalType":"address"},{"name":"cGammaWitness","type":"uint256[2]","internalType":"uint256[2]"},{"name":"sHashWitness","type":"uint256[2]","internalType":"uint256[2]"},{"name":"zInv","type":"uint256","internalType":"uint256"}]},{"name":"rc","type":"tuple","internalType":"struct VRFCoordinatorV2.RequestCommitment","components":[{"name":"blockNum","type":"uint64","internalType":"uint64"},{"name":"subId","type":"uint64","internalType":"uint64"},{"name":"callbackGasLimit","type":"uint32","internalType":"uint32"},{"name":"numWords","type":"uint32","internalType":"uint32"},{"name":"sender","type":"address","internalType":"address"}]}],"outputs":[{"name":"","type":"uint96","internalType":"uint96"}],"stateMutability":"nonpayable"},{"type":"function","name":"getCommitment","inputs":[{"name":"requestId","type":"uint256","internalType":"uint256"}],"outputs":[{"name":"","type":"bytes32","internalType":"bytes32"}],"stateMutability":"view"},{"type":"function","name":"getConfig","inputs":[],"outputs":[{"name":"minimumRequestConfirmations","type":"uint16","internalType":"uint16"},{"name":"maxGasLimit","type":"uint32","internalType":"uint32"},{"name":"stalenessSeconds","type":"uint32","internalType":"uint32"},{"name":"gasAfterPaymentCalculation","type":"uint32","internalType":"uint32"}],"stateMutability":"view"},{"type":"function","name":"getCurrentSubId","inputs":[],"outputs":[{"name":"","type":"uint64","internalType":"uint64"}],"stateMutability":"view"},{"type":"function","name":"getFallbackWeiPerUnitLink","inputs":[],"outputs":[{"name":"","type":"int256","internalType":"int256"}],"stateMutability":"view"},{"type":"function","name":"getFeeConfig","inputs":[],"outputs":[{"name":"fulfillmentFlatFeeLinkPPMTier1","type":"uint32","internalType":"uint32"},{"name":"fulfillmentFlatFeeLinkPPMTier2","type":"uint32","internalType":"uint32"},{"name":"fulfillmentFlatFeeLinkPPMTier3","type":"uint32","internalType":"uint32"},{"name":"fulfillmentFlatFeeLinkPPMTier4","type":"uint32","internalType":"uint32"},{"name":"fulfillmentFlatFeeLinkPPMTier5","type":"uint32","internalType":"uint32"},{"name":"reqsForTier2","type":"uint24","internalType":"uint24"},{"name":"reqsForTier3","type":"uint24","internalType":"uint24"},{"name":"reqsForTier4","type":"uint24","internalType":"uint24"},{"name":"reqsForTier5","type":"uint24","internalType":"uint24"}],"stateMutability":"view"},{"type":"function","name":"getFeeTier","inputs":[{"name":"reqCount","type":"uint64","internalType":"uint64"}],"outputs":[{"name":"","type":"uint32","internalType":"uint32"}],"stateMutability":"view"},{"type":"function","name":"getRequestConfig","inputs":[],"outputs":[{"name":"","type":"uint16","internalType":"uint16"},{"name":"","type":"uint32","internalType":"uint32"},{"name":"","type":"bytes32[]","internalType":"bytes32[]"}],"stateMutability":"view"},{"type":"function","name":"getSubscription","inputs":[{"name":"subId","type":"uint64","internalType":"uint64"}],"outputs":[{"name":"balance","type":"uint96","internalType":"uint96"},{"name":"reqCount","type":"uint64","internalType":"uint64"},{"name":"owner","type":"address","internalType":"address"},{"name":"consumers","type":"address[]","internalType":"address[]"}],"stateMutability":"view"},{"type":"function","name":"getTotalBalance","inputs":[],"outputs":[{"name":"","type":"uint256","internalType":"uint256"}],"stateMutability":"view"},{"type":"function","name":"hashOfKey","inputs":[{"name":"publicKey","type":"uint256[2]","internalType":"uint256[2]"}],"outputs":[{"name":"","type":"bytes32","internalType":"bytes32"}],"stateMutability":"pure"},{"type":"function","name":"onTokenTransfer","inputs":[{"name":"","type":"address","internalType":"address"},{"name":"amount","type":"uint256","internalType":"uint256"},{"name":"data","type":"bytes","internalType":"bytes"}],"outputs":[],"stateMutability":"nonpayable"},{"type":"function","name":"oracleWithdraw","inputs":[{"name":"recipient","type":"address","internalType":"address"},{"name":"amount","type":"uint96","internalType":"uint96"}],"outputs":[],"stateMutability":"nonpayable"},{"type":"function","name":"owner","inputs":[],"outputs":[{"name":"","type":"address","internalType":"address"}],"stateMutability":"view"},{"type":"function","name":"ownerCancelSubscription","inputs":[{"name":"subId","type":"uint64","internalType":"uint64"}],"outputs":[],"stateMutability":"nonpayable"},{"type":"function","name":"pendingRequestExists","inputs":[{"name":"subId","type":"uint64","internalType":"uint64"}],"outputs":[{"name":"","type":"bool","internalType":"bool"}],"stateMutability":"view"},{"type":"function","name":"recoverFunds","inputs":[{"name":"to","type":"address","internalType":"address"}],"outputs":[],"stateMutability":"nonpayable"},{"type":"function","name":"registerProvingKey","inputs":[{"name":"oracle","type":"address","internalType":"address"},{"name":"publicProvingKey","type":"uint256[2]","internalType":"uint256[2]"}],"outputs":[],"stateMutability":"nonpayable"},{"type":"function","name":"removeConsumer","inputs":[{"name":"subId","type":"uint64","internalType":"uint64"},{"name":"consumer","type":"address","internalType":"address"}],"outputs":[],"stateMutability":"nonpayable"},{"type":"function","name":"requestRandomWords","inputs":[{"name":"keyHash","type":"bytes32","internalType":"bytes32"},{"name":"subId","type":"uint64","internalType":"uint64"},{"name":"requestConfirmations","type":"uint16","internalType":"uint16"},{"name":"callbackGasLimit","type":"uint32","internalType":"uint32"},{"name":"numWords","type":"uint32","internalType":"uint32"}],"outputs":[{"name":"","type":"uint256","internalType":"uint256"}],"stateMutability":"nonpayable"},{"type":"function","name":"requestSubscriptionOwnerTransfer","inputs":[{"name":"subId","type":"uint64","internalType":"uint64"},{"name":"newOwner","type":"address","internalType":"address"}],"outputs":[],"stateMutability":"nonpayable"},{"type":"function","name":"setConfig","inputs":[{"name":"minimumRequestConfirmations","type":"uint16","internalType":"uint16"},{"name":"maxGasLimit","type":"uint32","internalType":"uint32"},{"name":"stalenessSeconds","type":"uint32","internalType":"uint32"},{"name":"gasAfterPaymentCalculation","type":"uint32","internalType":"uint32"},{"name":"fallbackWeiPerUnitLink","type":"int256","internalType":"int256"},{"name":"feeConfig","type":"tuple","internalType":"struct VRFCoordinatorV2.FeeConfig","components":[{"name":"fulfillmentFlatFeeLinkPPMTier1","type":"uint32","internalType":"uint32"},{"name":"fulfillmentFlatFeeLinkPPMTier2","type":"uint32","internalType":"uint32"},{"name":"fulfillmentFlatFeeLinkPPMTier3","type":"uint32","internalType":"uint32"},{"name":"fulfillmentFlatFeeLinkPPMTier4","type":"uint32","internalType":"uint32"},{"name":"fulfillmentFlatFeeLinkPPMTier5","type":"uint32","internalType":"uint32"},{"name":"reqsForTier2","type":"uint24","internalType":"uint24"},{"name":"reqsForTier3","type":"uint24","internalType":"uint24"},{"name":"reqsForTier4","type":"uint24","internalType":"uint24"},{"name":"reqsForTier5","type":"uint24","internalType":"uint24"}]}],"outputs":[],"stateMutability":"nonpayable"},{"type":"function","name":"transferOwnership","inputs":[{"name":"to","type":"address","internalType":"address"}],"outputs":[],"stateMutability":"nonpayable"},{"type":"function","name":"typeAndVersion","inputs":[],"outputs":[{"name":"","type":"string","internalType":"string"}],"stateMutability":"pure"},{"type":"event","name":"ConfigSet","inputs":[{"name":"minimumRequestConfirmations","type":"uint16","indexed":false,"internalType":"uint16"},{"name":"maxGasLimit","type":"uint32","indexed":false,"internalType":"uint32"},{"name":"stalenessSeconds","type":"uint32","indexed":false,"internalType":"uint32"},{"name":"gasAfterPaymentCalculation","type":"uint32","indexed":false,"internalType":"uint32"},{"name":"fallbackWeiPerUnitLink","type":"int256","indexed":false,"internalType":"int256"},{"name":"feeConfig","type":"tuple","indexed":false,"internalType":"struct VRFCoordinatorV2.FeeConfig","components":[{"name":"fulfillmentFlatFeeLinkPPMTier1","type":"uint32","internalType":"uint32"},{"name":"fulfillmentFlatFeeLinkPPMTier2","type":"uint32","internalType":"uint32"},{"name":"fulfillmentFlatFeeLinkPPMTier3","type":"uint32","internalType":"uint32"},{"name":"fulfillmentFlatFeeLinkPPMTier4","type":"uint32","internalType":"uint32"},{"name":"fulfillmentFlatFeeLinkPPMTier5","type":"uint32","internalType":"uint32"},{"name":"reqsForTier2","type":"uint24","internalType":"uint24"},{"name":"reqsForTier3","type":"uint24","internalType":"uint24"},{"name":"reqsForTier4","type":"uint24","internalType":"uint24"},{"name":"reqsForTier5","type":"uint24","internalType":"uint24"}]}],"anonymous":false},{"type":"event","name":"FundsRecovered","inputs":[{"name":"to","type":"address","indexed":false,"internalType":"address"},{"name":"amount","type":"uint256","indexed":false,"internalType":"uint256"}],"anonymous":false},{"type":"event","name":"OwnershipTransferRequested","inputs":[{"name":"from","type":"address","indexed":true,"internalType":"address"},{"name":"to","type":"address","indexed":true,"internalType":"address"}],"anonymous":false},{"type":"event","name":"OwnershipTransferred","inputs":[{"name":"from","type":"address","indexed":true,"internalType":"address"},{"name":"to","type":"address","indexed":true,"internalType":"address"}],"anonymous":false},{"type":"event","name":"ProvingKeyDeregistered","inputs":[{"name":"keyHash","type":"bytes32","indexed":false,"internalType":"bytes32"},{"name":"oracle","type":"address","indexed":true,"internalType":"address"}],"anonymous":false},{"type":"event","name":"ProvingKeyRegistered","inputs":[{"name":"keyHash","type":"bytes32","indexed":false,"internalType":"bytes32"},{"name":"oracle","type":"address","indexed":true,"internalType":"address"}],"anonymous":false},{"type":"event","name":"RandomWordsFulfilled","inputs":[{"name":"requestId","type":"uint256","indexed":true,"internalType":"uint256"},{"name":"outputSeed","type":"uint256","indexed":false,"internalType":"uint256"},{"name":"payment","type":"uint96","indexed":false,"internalType":"uint96"},{"name":"success","type":"bool","indexed":false,"internalType":"bool"}],"anonymous":false},{"type":"event","name":"RandomWordsRequested","inputs":[{"name":"keyHash","type":"bytes32","indexed":true,"internalType":"bytes32"},{"name":"requestId","type":"uint256","indexed":false,"internalType":"uint256"},{"name":"preSeed","type":"uint256","indexed":false,"internalType":"uint256"},{"name":"subId","type":"uint64","indexed":true,"internalType":"uint64"},{"name":"minimumRequestConfirmations","type":"uint16","indexed":false,"internalType":"uint16"},{"name":"callbackGasLimit","type":"uint32","indexed":false,"internalType":"uint32"},{"name":"numWords","type":"uint32","indexed":false,"internalType":"uint32"},{"name":"sender","type":"address","indexed":true,"internalType":"address"}],"anonymous":false},{"type":"event","name":"SubscriptionCanceled","inputs":[{"name":"subId","type":"uint64","indexed":true,"internalType":"uint64"},{"name":"to","type":"address","indexed":false,"internalType":"address"},{"name":"amount","type":"uint256","indexed":false,"internalType":"uint256"}],"anonymous":false},{"type":"event","name":"SubscriptionConsumerAdded","inputs":[{"name":"subId","type":"uint64","indexed":true,"internalType":"uint64"},{"name":"consumer","type":"address","indexed":false,"internalType":"address"}],"anonymous":false},{"type":"event","name":"SubscriptionConsumerRemoved","inputs":[{"name":"subId","type":"uint64","indexed":true,"internalType":"uint64"},{"name":"consumer","type":"address","indexed":false,"internalType":"address"}],"anonymous":false},{"type":"event","name":"SubscriptionCreated","inputs":[{"name":"subId","type":"uint64","indexed":true,"internalType":"uint64"},{"name":"owner","type":"address","indexed":false,"internalType":"address"}],"anonymous":false},{"type":"event","name":"SubscriptionFunded","inputs":[{"name":"subId","type":"uint64","indexed":true,"internalType":"uint64"},{"name":"oldBalance","type":"uint256","indexed":false,"internalType":"uint256"},{"name":"newBalance","type":"uint256","indexed":false,"internalType":"uint256"}],"anonymous":false},{"type":"event","name":"SubscriptionOwnerTransferRequested","inputs":[{"name":"subId","type":"uint64","indexed":true,"internalType":"uint64"},{"name":"from","type":"address","indexed":false,"internalType":"address"},{"name":"to","type":"address","indexed":false,"internalType":"address"}],"anonymous":false},{"type":"event","name":"SubscriptionOwnerTransferred","inputs":[{"name":"subId","type":"uint64","indexed":true,"internalType":"uint64"},{"name":"from","type":"address","indexed":false,"internalType":"address"},{"name":"to","type":"address","indexed":false,"internalType":"address"}],"anonymous":false},{"type":"error","name":"BalanceInvariantViolated","inputs":[{"name":"internalBalance","type":"uint256","internalType":"uint256"},{"name":"externalBalance","type":"uint256","internalType":"uint256"}]},{"type":"error","name":"BlockhashNotInStore","inputs":[{"name":"blockNum","type":"uint256","internalType":"uint256"}]},{"type":"error","name":"GasLimitTooBig","inputs":[{"name":"have","type":"uint32","internalType":"uint32"},{"name":"want","type":"uint32","internalType":"uint32"}]},{"type":"error","name":"IncorrectCommitment","inputs":[]},{"type":"error","name":"InsufficientBalance","inputs":[]},{"type":"error","name":"InsufficientGasForConsumer","inputs":[{"name":"have","type":"uint256","internalType":"uint256"},{"name":"want","type":"uint256","internalType":"uint256"}]},{"type":"error","name":"InvalidCalldata","inputs":[]},{"type":"error","name":"InvalidConsumer","inputs":[{"name":"subId","type":"uint64","internalType":"uint64"},{"name":"consumer","type":"address","internalType":"address"}]},{"type":"error","name":"InvalidLinkWeiPrice","inputs":[{"name":"linkWei","type":"int256","internalType":"int256"}]},{"type":"error","name":"InvalidRequestConfirmations","inputs":[{"name":"have","type":"uint16","internalType":"uint16"},{"name":"min","type":"uint16","internalType":"uint16"},{"name":"max","type":"uint16","internalType":"uint16"}]},{"type":"error","name":"InvalidSubscription","inputs":[]},{"type":"error","name":"MustBeRequestedOwner","inputs":[{"name":"proposedOwner","type":"address","internalType":"address"}]},{"type":"error","name":"MustBeSubOwner","inputs":[{"name":"owner","type":"address","internalType":"address"}]},{"type":"error","name":"NoCorrespondingRequest","inputs":[]},{"type":"error","name":"NoSuchProvingKey","inputs":[{"name":"keyHash","type":"bytes32","internalType":"bytes32"}]},{"type":"error","name":"NumWordsTooBig","inputs":[{"name":"have","type":"uint32","internalType":"uint32"},{"name":"want","type":"uint32","internalType":"uint32"}]},{"type":"error","name":"OnlyCallableFromLink","inputs":[]},{"type":"error","name":"PaymentTooLarge","inputs":[]},{"type":"error","name":"PendingRequestExists","inputs":[]},{"type":"error","name":"ProvingKeyAlreadyRegistered","inputs":[{"name":"keyHash","type":"bytes32","internalType":"bytes32"}]},{"type":"error","name":"Reentrant","inputs":[]},{"type":"error","name":"TooManyConsumers","inputs":[]}],"bytecode":{"object":"0x60e06040523480156200001157600080fd5b5060405162004c7138038062004c718339810160408190526200003491620001b1565b33806000816200008b5760405162461bcd60e51b815260206004820152601860248201527f43616e6e6f7420736574206f776e657220746f207a65726f000000000000000060448201526064015b60405180910390fd5b600080546001600160a01b0319166001600160a01b0384811691909117909155811615620000be57620000be81620000e8565b5050506001600160601b0319606093841b811660805290831b811660a052911b1660c052620001fb565b6001600160a01b038116331415620001435760405162461bcd60e51b815260206004820152601760248201527f43616e6e6f74207472616e7366657220746f2073656c66000000000000000000604482015260640162000082565b600180546001600160a01b0319166001600160a01b0383811691821790925560008054604051929316917fed8889f560326eb138920d842192f0eb3dd22b4f139c87a2c57538e05bae12789190a350565b80516001600160a01b0381168114620001ac57600080fd5b919050565b600080600060608486031215620001c757600080fd5b620001d28462000194565b9250620001e26020850162000194565b9150620001f26040850162000194565b90509250925092565b60805160601c60a05160601c60c05160601c614a0c62000265600039600081816104550152612de001526000818161053f015261325a01526000818161031a0152818161104901528181611bfc015281816123f3015281816124f30152612a0f0152614a0c6000f3fe608060405234801561001057600080fd5b506004361061021b5760003560e01c80636f64f03f11610125578063ad178361116100ad578063d2f9f9a71161007c578063d2f9f9a7146105e5578063d7ae1d30146105f8578063e72f6e301461060b578063e82ad7d41461061e578063f2fde38b1461064157600080fd5b8063ad1783611461053a578063af198b9714610561578063c3f909d41461058c578063caf70c4a146105d257600080fd5b80638da5cb5b116100f45780638da5cb5b146104d85780639f87fad7146104e9578063a21a23e4146104fc578063a47c769614610504578063a4c0ed361461052757600080fd5b80636f64f03f146104975780637341c10c146104aa57806379ba5097146104bd57806382359740146104c557600080fd5b8063356dac71116101a85780635fbbc0d2116101775780635fbbc0d2146103a057806364d51a2a1461043557806366316d8d1461043d578063689c45171461045057806369bcdb7d1461047757600080fd5b8063356dac711461035457806340d6bb821461035c5780634cb48a541461037a5780635d3b1d301461038d57600080fd5b806308821d58116101ef57806308821d581461028d57806312b58349146102a057806315c48b84146102c2578063181f5a77146102dd5780631b6b6d231461031557600080fd5b80620122911461022057806302bcc5b61461024057806304c357cb1461025557806306bfa63714610268575b600080fd5b610228610654565b604051610237939291906145fa565b60405180910390f35b61025361024e366004614459565b6106d0565b005b610253610263366004614474565b610747565b6005546001600160401b03165b6040516001600160401b039091168152602001610237565b61025361029b366004614188565b610892565b600554600160401b90046001600160601b03165b604051908152602001610237565b6102ca60c881565b60405161ffff9091168152602001610237565b60408051808201825260168152750565246436f6f7264696e61746f72563220312e302e360541b6020820152905161023791906145a5565b61033c7f000000000000000000000000000000000000000000000000000000000000000081565b6040516001600160a01b039091168152602001610237565b600a546102b4565b6103656101f481565b60405163ffffffff9091168152602001610237565b610253610388366004614321565b610a26565b6102b461039b3660046141fb565b610c7c565b600c546040805163ffffffff8084168252640100000000840481166020830152600160401b8404811692820192909252600160601b830482166060820152600160801b8304909116608082015262ffffff600160a01b8304811660a0830152600160b81b8304811660c0830152600160d01b8304811660e0830152600160e81b90920490911661010082015261012001610237565b6102ca606481565b61025361044b366004614145565b610f4c565b61033c7f000000000000000000000000000000000000000000000000000000000000000081565b6102b4610485366004614440565b60009081526009602052604090205490565b6102536104a536600461408b565b611125565b6102536104b8366004614474565b611224565b6102536113d7565b6102536104d3366004614459565b611481565b6000546001600160a01b031661033c565b6102536104f7366004614474565b6115dd565b61027561192f565b610517610512366004614459565b611acc565b6040516102379493929190614798565b6102536105353660046140bf565b611bc6565b61033c7f000000000000000000000000000000000000000000000000000000000000000081565b61057461056f366004614259565b611d95565b6040516001600160601b039091168152602001610237565b600b546040805161ffff8316815263ffffffff62010000840481166020830152600160381b8404811692820192909252600160581b909204166060820152608001610237565b6102b46105e03660046141a4565b612154565b6103656105f3366004614459565b612184565b610253610606366004614474565b612301565b610253610619366004614070565b6123d3565b61063161062c366004614459565b6125bb565b6040519015158152602001610237565b61025361064f366004614070565b612766565b600b546007805460408051602080840282018101909252828152600094859460609461ffff8316946201000090930463ffffffff169391928391908301828280156106be57602002820191906000526020600020905b8154815260200190600101908083116106aa575b50505050509050925092509250909192565b6106d8612777565b6001600160401b0381166000908152600360205260409020546001600160a01b031661071757604051630fb532db60e11b815260040160405180910390fd5b6001600160401b0381166000908152600360205260409020546107449082906001600160a01b03166127cc565b50565b6001600160401b03821660009081526003602052604090205482906001600160a01b03168061078957604051630fb532db60e11b815260040160405180910390fd5b336001600160a01b038216146107c257604051636c51fda960e11b81526001600160a01b03821660048201526024015b60405180910390fd5b600b54600160301b900460ff16156107ed5760405163769dd35360e11b815260040160405180910390fd5b6001600160401b0384166000908152600360205260409020600101546001600160a01b0384811691161461088c576001600160401b03841660008181526003602090815260409182902060010180546001600160a01b0319166001600160a01b0388169081179091558251338152918201527f69436ea6df009049404f564eff6622cd00522b0bd6a89efd9e52a355c4a879be91015b60405180910390a25b50505050565b61089a612777565b6040805180820182526000916108c9919084906002908390839080828437600092019190915250612154915050565b6000818152600660205260409020549091506001600160a01b03168061090557604051631dfd6e1360e21b8152600481018390526024016107b9565b600082815260066020526040812080546001600160a01b03191690555b6007548110156109dd578260078281548110610940576109406149aa565b906000526020600020015414156109cb576007805460009190610965906001906148d3565b81548110610975576109756149aa565b906000526020600020015490508060078381548110610996576109966149aa565b60009182526020909120015560078054806109b3576109b3614994565b60019003818190600052602060002001600090559055505b806109d581614912565b915050610922565b50806001600160a01b03167f72be339577868f868798bac2c93e52d6f034fef4689a9848996c14ebb7416c0d83604051610a1991815260200190565b60405180910390a2505050565b610a2e612777565b60c861ffff87161115610a685760405163539c34bb60e11b815261ffff871660048201819052602482015260c860448201526064016107b9565b60008213610a8c576040516321ea67b360e11b8152600481018390526024016107b9565b6040805160a0808201835261ffff891680835263ffffffff89811660208086018290526000868801528a831660608088018290528b85166080988901819052600b805465ffffffffffff191690971762010000909502949094176effffffffffffffffff0000000000001916600160381b90920263ffffffff60581b191691909117600160581b909302929092179093558651600c80549489015189890151938a0151978a0151968a015160c08b015160e08c01516101008d015195881667ffffffffffffffff199099169890981764010000000093881693909302929092176fffffffffffffffff00000000000000001916600160401b9587169590950263ffffffff60601b191694909417600160601b988616989098029790971766ffffffffffffff60801b1916600160801b969094169590950262ffffff60a01b191692909217600160a01b62ffffff928316021765ffffffffffff60b81b1916600160b81b9582169590950262ffffff60d01b191694909417600160d01b92851692909202919091176001600160e81b0316600160e81b9390911692909202919091178155600a84905590517fc21e3bd2e0b339d2848f0dd956947a88966c242c0c0c582a33137a5c1ceb5cb291610c6c918991899189918991899190614659565b60405180910390a1505050505050565b600b54600090600160301b900460ff1615610caa5760405163769dd35360e11b815260040160405180910390fd5b6001600160401b0385166000908152600360205260409020546001600160a01b0316610ce957604051630fb532db60e11b815260040160405180910390fd5b3360009081526002602090815260408083206001600160401b03808a1685529252909120541680610d3e57604051637800cff360e11b81526001600160401b03871660048201523360248201526044016107b9565b600b5461ffff9081169086161080610d5a575060c861ffff8616115b15610d9157600b5460405163539c34bb60e11b815261ffff8088166004830152909116602482015260c860448201526064016107b9565b600b5463ffffffff6201000090910481169085161115610ddf57600b54604051637aebf00f60e11b815263ffffffff80871660048301526201000090920490911660248201526044016107b9565b6101f463ffffffff84161115610e18576040516311ce1afb60e21b815263ffffffff841660048201526101f460248201526044016107b9565b6000610e25826001614853565b9050600080610e368a338b86612b43565b9150915081610e43612bbd565b6040805160208101939093528201526001600160401b038a16606082015263ffffffff8089166080830152871660a08201523360c082015260e00160408051808303601f19018152828252805160209182012060008681526009835283902055848352820183905261ffff8a169082015263ffffffff80891660608301528716608082015233906001600160401b038b16908c907f63373d1c4696214b898952999c9aaec57dac1ee2723cec59bea6888f489a97729060a00160405180910390a4503360009081526002602090815260408083206001600160401b03808d168552925290912080549190931667ffffffffffffffff199091161790915591505095945050505050565b600b54600160301b900460ff1615610f775760405163769dd35360e11b815260040160405180910390fd5b336000908152600860205260409020546001600160601b0380831691161015610fb357604051631e9acf1760e31b815260040160405180910390fd5b3360009081526008602052604081208054839290610fdb9084906001600160601b03166148ea565b92506101000a8154816001600160601b0302191690836001600160601b0316021790555080600560088282829054906101000a90046001600160601b031661102391906148ea565b92506101000a8154816001600160601b0302191690836001600160601b031602179055507f00000000000000000000000000000000000000000000000000000000000000006001600160a01b031663a9059cbb83836040518363ffffffff1660e01b81526004016110b29291906001600160a01b039290921682526001600160601b0316602082015260400190565b602060405180830381600087803b1580156110cc57600080fd5b505af11580156110e0573d6000803e3d6000fd5b505050506040513d601f19601f8201168201806040525081019061110491906141c0565b61112157604051631e9acf1760e31b815260040160405180910390fd5b5050565b61112d612777565b60408051808201825260009161115c919084906002908390839080828437600092019190915250612154915050565b6000818152600660205260409020549091506001600160a01b03161561119857604051634a0b8fa760e01b8152600481018290526024016107b9565b600081815260066020908152604080832080546001600160a01b0319166001600160a01b0388169081179091556007805460018101825594527fa66cc928b5edb82af9bd49922954155ab7b0942694bea4ce44661d9a8736c688909301849055518381527fe729ae16526293f74ade739043022254f1489f616295a25bf72dfb4511ed73b89101610a19565b6001600160401b03821660009081526003602052604090205482906001600160a01b03168061126657604051630fb532db60e11b815260040160405180910390fd5b336001600160a01b0382161461129a57604051636c51fda960e11b81526001600160a01b03821660048201526024016107b9565b600b54600160301b900460ff16156112c55760405163769dd35360e11b815260040160405180910390fd5b6001600160401b03841660009081526003602052604090206002015460641415611302576040516305a48e0f60e01b815260040160405180910390fd5b6001600160a01b03831660009081526002602090815260408083206001600160401b038089168552925290912054161561133b5761088c565b6001600160a01b03831660008181526002602081815260408084206001600160401b038a16808652908352818520805467ffffffffffffffff19166001908117909155600384528286209094018054948501815585529382902090920180546001600160a01b03191685179055905192835290917f43dc749a04ac8fb825cbd514f7c0e13f13bc6f2ee66043b76629d51776cff8e09101610883565b6001546001600160a01b0316331461142a5760405162461bcd60e51b815260206004820152601660248201527526bab9ba10313290383937b837b9b2b21037bbb732b960511b60448201526064016107b9565b60008054336001600160a01b0319808316821784556001805490911690556040516001600160a01b0390921692909183917f8be0079c531659141344cd1fd0a4f28419497f9722a3daafe3b4186f6b6457e091a350565b600b54600160301b900460ff16156114ac5760405163769dd35360e11b815260040160405180910390fd5b6001600160401b0381166000908152600360205260409020546001600160a01b03166114eb57604051630fb532db60e11b815260040160405180910390fd5b6001600160401b0381166000908152600360205260409020600101546001600160a01b03163314611558576001600160401b0381166000908152600360205260409081902060010154905163d084e97560e01b81526001600160a01b0390911660048201526024016107b9565b6001600160401b0381166000818152600360209081526040918290208054336001600160a01b0319808316821784556001909301805490931690925583516001600160a01b03909116808252928101919091529092917f6f1dc65165ffffedfd8e507b4a0f1fcfdada045ed11f6c26ba27cedfe87802f0910160405180910390a25050565b6001600160401b03821660009081526003602052604090205482906001600160a01b03168061161f57604051630fb532db60e11b815260040160405180910390fd5b336001600160a01b0382161461165357604051636c51fda960e11b81526001600160a01b03821660048201526024016107b9565b600b54600160301b900460ff161561167e5760405163769dd35360e11b815260040160405180910390fd5b611687846125bb565b156116a557604051631685ecdd60e31b815260040160405180910390fd5b6001600160a01b03831660009081526002602090815260408083206001600160401b0380891685529252909120541661170b57604051637800cff360e11b81526001600160401b03851660048201526001600160a01b03841660248201526044016107b9565b6001600160401b03841660009081526003602090815260408083206002018054825181850281018501909352808352919290919083018282801561177857602002820191906000526020600020905b81546001600160a01b0316815260019091019060200180831161175a575b5050505050905060006001825161178f91906148d3565b905060005b82518110156118b657856001600160a01b03168382815181106117b9576117b96149aa565b60200260200101516001600160a01b031614156118a45760008383815181106117e4576117e46149aa565b6020026020010151905080600360008a6001600160401b03166001600160401b031681526020019081526020016000206002018381548110611828576118286149aa565b600091825260208083209190910180546001600160a01b0319166001600160a01b0394909416939093179092556001600160401b038a16815260039091526040902060020180548061187c5761187c614994565b600082815260209020810160001990810180546001600160a01b0319169055019055506118b6565b806118ae81614912565b915050611794565b506001600160a01b03851660008181526002602090815260408083206001600160401b038b1680855290835292819020805467ffffffffffffffff191690555192835290917f182bff9831466789164ca77075fffd84916d35a8180ba73c27e45634549b445b91015b60405180910390a2505050505050565b600b54600090600160301b900460ff161561195d5760405163769dd35360e11b815260040160405180910390fd5b600580546001600160401b03169060006119768361492d565b82546101009290920a6001600160401b038181021990931691831602179091556005541690506000806040519080825280602002602001820160405280156119c8578160200160208202803683370190505b50604080518082018252600080825260208083018281526001600160401b03888116808552600484528685209551865493516001600160601b039091166001600160a01b031994851617600160601b919093160291909117909455845160608101865233815280830184815281870188815295855260038452959093208351815483166001600160a01b0391821617825595516001820180549093169616959095179055915180519495509093611a859260028501920190613de5565b50506040513381526001600160401b03841691507f464722b4166576d3dcbba877b999bc35cf911f4eaf434b7eba68fa113951d0bf9060200160405180910390a250905090565b6001600160401b038116600090815260036020526040812054819081906060906001600160a01b0316611b1257604051630fb532db60e11b815260040160405180910390fd5b6001600160401b0380861660009081526004602090815260408083205460038352928190208054600290910180548351818602810186019094528084526001600160601b03861696600160601b909604909516946001600160a01b03909216939092918391830182828015611bb057602002820191906000526020600020905b81546001600160a01b03168152600190910190602001808311611b92575b5050505050905093509350935093509193509193565b600b54600160301b900460ff1615611bf15760405163769dd35360e11b815260040160405180910390fd5b336001600160a01b037f00000000000000000000000000000000000000000000000000000000000000001614611c3a576040516344b0e3c360e01b815260040160405180910390fd5b60208114611c5b57604051638129bbcd60e01b815260040160405180910390fd5b6000611c6982840184614459565b6001600160401b0381166000908152600360205260409020549091506001600160a01b0316611cab57604051630fb532db60e11b815260040160405180910390fd5b6001600160401b038116600090815260046020526040812080546001600160601b031691869190611cdc838561487e565b92506101000a8154816001600160601b0302191690836001600160601b0316021790555084600560088282829054906101000a90046001600160601b0316611d24919061487e565b92506101000a8154816001600160601b0302191690836001600160601b03160217905550816001600160401b03167fd39ec07f4e209f627a4c427971473820dc129761ba28de8906bd56f57101d4f8828784611d80919061483b565b6040805192835260208301919091520161191f565b600b54600090600160301b900460ff1615611dc35760405163769dd35360e11b815260040160405180910390fd5b60005a90506000806000611dd78787612c56565b9250925092506000866060015163ffffffff166001600160401b03811115611e0157611e016149c0565b604051908082528060200260200182016040528015611e2a578160200160208202803683370190505b50905060005b876060015163ffffffff16811015611e9e5760408051602081018590529081018290526060016040516020818303038152906040528051906020012060001c828281518110611e8157611e816149aa565b602090810291909101015280611e9681614912565b915050611e30565b50600083815260096020526040808220829055518190631fe543e360e01b90611ecd908790869060240161474a565b60408051601f198184030181529181526020820180516001600160e01b03166001600160e01b031990941693909317909252600b805466ff0000000000001916600160301b179055908a015160808b0151919250600091611f359163ffffffff169084612ee4565b600b805466ff000000000000191690556020808c0180516001600160401b03908116600090815260049093526040808420549251821684529092208054939450600160601b918290048316936001939192600c92611f97928692900416614853565b92506101000a8154816001600160401b0302191690836001600160401b031602179055506000611fec8a600b600001600b9054906101000a900463ffffffff1663ffffffff16611fe685612184565b3a612f32565b6020808e01516001600160401b03166000908152600490915260409020549091506001600160601b038083169116101561203957604051631e9acf1760e31b815260040160405180910390fd5b6020808d01516001600160401b03166000908152600490915260408120805483929061206f9084906001600160601b03166148ea565b82546101009290920a6001600160601b0381810219909316918316021790915560008b8152600660209081526040808320546001600160a01b0316835260089091528120805485945090926120c69185911661487e565b92506101000a8154816001600160601b0302191690836001600160601b03160217905550877f7dffc5ae5ee4e2e4df1651cf6ad329a73cebdb728f37ea0187b9b17e036756e488838660405161213a939291909283526001600160601b039190911660208301521515604082015260600190565b60405180910390a299505050505050505050505b92915050565b6000816040516020016121679190614597565b604051602081830303815290604052805190602001209050919050565b6040805161012081018252600c5463ffffffff8082168352640100000000820481166020840152600160401b8204811693830193909352600160601b810483166060830152600160801b8104909216608082015262ffffff600160a01b8304811660a08301819052600160b81b8404821660c0840152600160d01b8404821660e0840152600160e81b909304166101008201526000916001600160401b03841611612230575192915050565b826001600160401b03168160a0015162ffffff1610801561226357508060c0015162ffffff16836001600160401b031611155b15612272576020015192915050565b826001600160401b03168160c0015162ffffff161080156122a557508060e0015162ffffff16836001600160401b031611155b156122b4576040015192915050565b826001600160401b03168160e0015162ffffff161080156122e8575080610100015162ffffff16836001600160401b031611155b156122f7576060015192915050565b6080015192915050565b6001600160401b03821660009081526003602052604090205482906001600160a01b03168061234357604051630fb532db60e11b815260040160405180910390fd5b336001600160a01b0382161461237757604051636c51fda960e11b81526001600160a01b03821660048201526024016107b9565b600b54600160301b900460ff16156123a25760405163769dd35360e11b815260040160405180910390fd5b6123ab846125bb565b156123c957604051631685ecdd60e31b815260040160405180910390fd5b61088c84846127cc565b6123db612777565b6040516370a0823160e01b81523060048201526000907f00000000000000000000000000000000000000000000000000000000000000006001600160a01b0316906370a082319060240160206040518083038186803b15801561243d57600080fd5b505afa158015612451573d6000803e3d6000fd5b505050506040513d601f19601f8201168201806040525081019061247591906141e2565b600554909150600160401b90046001600160601b0316818111156124b6576040516354ced18160e11b815260048101829052602481018390526044016107b9565b818110156125b65760006124ca82846148d3565b60405163a9059cbb60e01b81526001600160a01b038681166004830152602482018390529192507f00000000000000000000000000000000000000000000000000000000000000009091169063a9059cbb90604401602060405180830381600087803b15801561253957600080fd5b505af115801561254d573d6000803e3d6000fd5b505050506040513d601f19601f8201168201806040525081019061257191906141c0565b50604080516001600160a01b0386168152602081018390527f59bfc682b673f8cbf945f1e454df9334834abf7dfe7f92237ca29ecb9b436600910160405180910390a1505b505050565b6001600160401b0381166000908152600360209081526040808320815160608101835281546001600160a01b039081168252600183015416818501526002820180548451818702810187018652818152879693958601939092919083018282801561264f57602002820191906000526020600020905b81546001600160a01b03168152600190910190602001808311612631575b505050505081525050905060005b81604001515181101561275c5760005b6007548110156127495760006127126007838154811061268f5761268f6149aa565b9060005260206000200154856040015185815181106126b0576126b06149aa565b60200260200101518860026000896040015189815181106126d3576126d36149aa565b6020908102919091018101516001600160a01b0316825281810192909252604090810160009081206001600160401b03808f1683529352205416612b43565b50600081815260096020526040902054909150156127365750600195945050505050565b508061274181614912565b91505061266d565b508061275481614912565b91505061265d565b5060009392505050565b61276e612777565b61074481613020565b6000546001600160a01b031633146127ca5760405162461bcd60e51b815260206004820152601660248201527527b7363c9031b0b63630b1363290313c9037bbb732b960511b60448201526064016107b9565b565b600b54600160301b900460ff16156127f75760405163769dd35360e11b815260040160405180910390fd5b6001600160401b0382166000908152600360209081526040808320815160608101835281546001600160a01b0390811682526001830154168185015260028201805484518187028101870186528181529295939486019383018282801561288757602002820191906000526020600020905b81546001600160a01b03168152600190910190602001808311612869575b505050919092525050506001600160401b0380851660009081526004602090815260408083208151808301909252546001600160601b038116808352600160601b909104909416918101919091529293505b83604001515181101561295a576002600085604001518381518110612900576129006149aa565b6020908102919091018101516001600160a01b0316825281810192909252604090810160009081206001600160401b038a1682529092529020805467ffffffffffffffff191690558061295281614912565b9150506128d9565b506001600160401b038516600090815260036020526040812080546001600160a01b0319908116825560018201805490911690559061299c6002830182613e4a565b50506001600160401b038516600090815260046020526040902080546001600160a01b0319169055600580548291906008906129e9908490600160401b90046001600160601b03166148ea565b92506101000a8154816001600160601b0302191690836001600160601b031602179055507f00000000000000000000000000000000000000000000000000000000000000006001600160a01b031663a9059cbb85836001600160601b03166040518363ffffffff1660e01b8152600401612a789291906001600160a01b03929092168252602082015260400190565b602060405180830381600087803b158015612a9257600080fd5b505af1158015612aa6573d6000803e3d6000fd5b505050506040513d601f19601f82011682018060405250810190612aca91906141c0565b612ae757604051631e9acf1760e31b815260040160405180910390fd5b604080516001600160a01b03861681526001600160601b03831660208201526001600160401b038716917fe8ed5b475a5b5987aa9165e8731bb78043f39eee32ec5a1169a89e27fcd49815910160405180910390a25050505050565b6040805160208082018790526001600160a01b0395909516818301526001600160401b039384166060820152919092166080808301919091528251808303909101815260a08201835280519084012060c082019490945260e080820185905282518083039091018152610100909101909152805191012091565b60004661a4b1811480612bd2575062066eed81145b15612c4f5760646001600160a01b031663a3b1b31d6040518163ffffffff1660e01b815260040160206040518083038186803b158015612c1157600080fd5b505afa158015612c25573d6000803e3d6000fd5b505050506040513d601f19601f82011682018060405250810190612c4991906141e2565b91505090565b4391505090565b6000806000612c688560000151612154565b6000818152600660205260409020549093506001600160a01b031680612ca457604051631dfd6e1360e21b8152600481018590526024016107b9565b6080860151604051612cc3918691602001918252602082015260400190565b60408051601f1981840301815291815281516020928301206000818152600990935291205490935080612d0957604051631b44092560e11b815260040160405180910390fd5b85516020808801516040808a015160608b015160808c01519251612d74968b9690959491019586526001600160401b03948516602087015292909316604085015263ffffffff90811660608501529190911660808301526001600160a01b031660a082015260c00190565b604051602081830303815290604052805190602001208114612da95760405163354a450b60e21b815260040160405180910390fd5b6000612db887600001516130ca565b905080612e90578651604051631d2827a760e31b81526001600160401b0390911660048201527f00000000000000000000000000000000000000000000000000000000000000006001600160a01b03169063e9413d389060240160206040518083038186803b158015612e2a57600080fd5b505afa158015612e3e573d6000803e3d6000fd5b505050506040513d601f19601f82011682018060405250810190612e6291906141e2565b905080612e9057865160405163175dadad60e01b81526001600160401b0390911660048201526024016107b9565b6000886080015182604051602001612eb2929190918252602082015260400190565b6040516020818303038152906040528051906020012060001c9050612ed789826131c1565b9450505050509250925092565b60005a611388811015612ef657600080fd5b611388810390508460408204820311612f0e57600080fd5b50823b612f1a57600080fd5b60008083516020850160008789f190505b9392505050565b600080612f3d61322c565b905060008113612f63576040516321ea67b360e11b8152600481018290526024016107b9565b6000612f6d613316565b9050600082825a612f7e8b8b61483b565b612f8891906148d3565b612f9290886148b4565b612f9c919061483b565b612fae90670de0b6b3a76400006148b4565b612fb891906148a0565b90506000612fd163ffffffff881664e8d4a510006148b4565b9050612fe9816b033b2e3c9fd0803ce80000006148d3565b8211156130095760405163e80fa38160e01b815260040160405180910390fd5b613013818361483b565b9998505050505050505050565b6001600160a01b0381163314156130795760405162461bcd60e51b815260206004820152601760248201527f43616e6e6f74207472616e7366657220746f2073656c6600000000000000000060448201526064016107b9565b600180546001600160a01b0319166001600160a01b0383811691821790925560008054604051929316917fed8889f560326eb138920d842192f0eb3dd22b4f139c87a2c57538e05bae12789190a350565b60004661a4b18114806130df575062066eed81145b806130ec575062066eee81145b156131b257610100836001600160401b0316613106612bbd565b61311091906148d3565b118061312c575061311f612bbd565b836001600160401b031610155b1561313a5750600092915050565b6040516315a03d4160e11b81526001600160401b0384166004820152606490632b407a829060240160206040518083038186803b15801561317a57600080fd5b505afa15801561318e573d6000803e3d6000fd5b505050506040513d601f19601f82011682018060405250810190612f2b91906141e2565b50506001600160401b03164090565b60006131f58360000151846020015185604001518660600151868860a001518960c001518a60e001518b6101000151613372565b6003836020015160405160200161320d929190614736565b60408051601f1981840301815291905280516020909101209392505050565b600b5460408051633fabe5a360e21b81529051600092600160381b900463ffffffff169182151591849182917f00000000000000000000000000000000000000000000000000000000000000006001600160a01b03169163feaf968c9160048083019260a0929190829003018186803b1580156132a857600080fd5b505afa1580156132bc573d6000803e3d6000fd5b505050506040513d601f19601f820116820180604052508101906132e0919061449e565b50945090925084915050801561330457506132fb82426148d3565b8463ffffffff16105b1561330e5750600a545b949350505050565b60004661a4b181148061332b575062066eed81145b1561336a57606c6001600160a01b031663c6f7de0e6040518163ffffffff1660e01b815260040160206040518083038186803b158015612c1157600080fd5b600091505090565b61337b89613595565b6133c75760405162461bcd60e51b815260206004820152601a60248201527f7075626c6963206b6579206973206e6f74206f6e20637572766500000000000060448201526064016107b9565b6133d088613595565b6134145760405162461bcd60e51b815260206004820152601560248201527467616d6d61206973206e6f74206f6e20637572766560581b60448201526064016107b9565b61341d83613595565b6134695760405162461bcd60e51b815260206004820152601d60248201527f6347616d6d615769746e657373206973206e6f74206f6e20637572766500000060448201526064016107b9565b61347282613595565b6134be5760405162461bcd60e51b815260206004820152601c60248201527f73486173685769746e657373206973206e6f74206f6e2063757276650000000060448201526064016107b9565b6134ca878a8887613658565b6135165760405162461bcd60e51b815260206004820152601960248201527f6164647228632a706b2b732a6729213d5f755769746e6573730000000000000060448201526064016107b9565b60006135228a8761377b565b90506000613535898b878b8689896137df565b90506000613546838d8d8a86613904565b9050808a146135875760405162461bcd60e51b815260206004820152600d60248201526c34b73b30b634b210383937b7b360991b60448201526064016107b9565b505050505050505050505050565b80516000906401000003d019116135e35760405162461bcd60e51b8152602060048201526012602482015271696e76616c696420782d6f7264696e61746560701b60448201526064016107b9565b60208201516401000003d019116136315760405162461bcd60e51b8152602060048201526012602482015271696e76616c696420792d6f7264696e61746560701b60448201526064016107b9565b60208201516401000003d0199080096136518360005b6020020151613944565b1492915050565b60006001600160a01b03821661369e5760405162461bcd60e51b815260206004820152600b60248201526a626164207769746e65737360a81b60448201526064016107b9565b6020840151600090600116156136b557601c6136b8565b601b5b9050600070014551231950b75fc4402da1732fc9bebe1985876000602002015109865170014551231950b75fc4402da1732fc9bebe19918203925060009190890987516040805160008082526020820180845287905260ff88169282019290925260608101929092526080820183905291925060019060a0016020604051602081039080840390855afa158015613753573d6000803e3d6000fd5b5050604051601f1901516001600160a01b039081169088161495505050505050949350505050565b613783613e68565b6137b06001848460405160200161379c93929190614576565b604051602081830303815290604052613968565b90505b6137bc81613595565b61214e5780516040805160208101929092526137d8910161379c565b90506137b3565b6137e7613e68565b825186516401000003d01990819006910614156138465760405162461bcd60e51b815260206004820152601e60248201527f706f696e747320696e2073756d206d7573742062652064697374696e6374000060448201526064016107b9565b6138518789886139b7565b6138965760405162461bcd60e51b8152602060048201526016602482015275119a5c9cdd081b5d5b0818da1958dac819985a5b195960521b60448201526064016107b9565b6138a18486856139b7565b6138ed5760405162461bcd60e51b815260206004820152601760248201527f5365636f6e64206d756c20636865636b206661696c656400000000000000000060448201526064016107b9565b6138f8868484613adf565b98975050505050505050565b60006002868686858760405160200161392296959493929190614517565b60408051601f1981840301815291905280516020909101209695505050505050565b6000806401000003d01980848509840990506401000003d019600782089392505050565b613970613e68565b61397982613ba6565b815261398e613989826000613647565b613be1565b6020820181905260029006600114156139b2576020810180516401000003d0190390525b919050565b6000826139f45760405162461bcd60e51b815260206004820152600b60248201526a3d32b9379039b1b0b630b960a91b60448201526064016107b9565b83516020850151600090613a0a90600290614954565b15613a1657601c613a19565b601b5b9050600070014551231950b75fc4402da1732fc9bebe198387096040805160008082526020820180845281905260ff86169282019290925260608101869052608081018390529192509060019060a0016020604051602081039080840390855afa158015613a8b573d6000803e3d6000fd5b505050602060405103519050600086604051602001613aaa9190614505565b60408051601f1981840301815291905280516020909101206001600160a01b0392831692169190911498975050505050505050565b613ae7613e68565b835160208086015185519186015160009384938493613b0893909190613c01565b919450925090506401000003d019858209600114613b685760405162461bcd60e51b815260206004820152601960248201527f696e765a206d75737420626520696e7665727365206f66207a0000000000000060448201526064016107b9565b60405180604001604052806401000003d01980613b8757613b8761497e565b87860981526020016401000003d0198785099052979650505050505050565b805160208201205b6401000003d01981106139b257604080516020808201939093528151808203840181529082019091528051910120613bae565b600061214e826002613bfa6401000003d019600161483b565b901c613ce1565b60008080600180826401000003d019896401000003d019038808905060006401000003d0198b6401000003d019038a0890506000613c4183838585613d78565b9098509050613c5288828e88613d9c565b9098509050613c6388828c87613d9c565b90985090506000613c768d878b85613d9c565b9098509050613c8788828686613d78565b9098509050613c9888828e89613d9c565b9098509050818114613ccd576401000003d019818a0998506401000003d01982890997506401000003d0198183099650613cd1565b8196505b5050505050509450945094915050565b600080613cec613e86565b6020808252818101819052604082015260608101859052608081018490526401000003d01960a0820152613d1e613ea4565b60208160c0846005600019fa925082613d6e5760405162461bcd60e51b81526020600482015260126024820152716269674d6f64457870206661696c7572652160701b60448201526064016107b9565b5195945050505050565b6000806401000003d0198487096401000003d0198487099097909650945050505050565b600080806401000003d019878509905060006401000003d01987876401000003d019030990506401000003d0198183086401000003d01986890990999098509650505050505050565b828054828255906000526020600020908101928215613e3a579160200282015b82811115613e3a57825182546001600160a01b0319166001600160a01b03909116178255602090920191600190910190613e05565b50613e46929150613ec2565b5090565b50805460008255906000526020600020908101906107449190613ec2565b60405180604001604052806002906020820280368337509192915050565b6040518060c001604052806006906020820280368337509192915050565b60405180602001604052806001906020820280368337509192915050565b5b80821115613e465760008155600101613ec3565b80356001600160a01b03811681146139b257600080fd5b806040810183101561214e57600080fd5b600082601f830112613f1057600080fd5b604051604081018181106001600160401b0382111715613f3257613f326149c0565b8060405250808385604086011115613f4957600080fd5b60005b6002811015613f6b578135835260209283019290910190600101613f4c565b509195945050505050565b600060a08284031215613f8857600080fd5b60405160a081018181106001600160401b0382111715613faa57613faa6149c0565b604052905080613fb98361403f565b8152613fc76020840161403f565b6020820152613fd86040840161402b565b6040820152613fe96060840161402b565b6060820152613ffa60808401613ed7565b60808201525092915050565b803561ffff811681146139b257600080fd5b803562ffffff811681146139b257600080fd5b803563ffffffff811681146139b257600080fd5b80356001600160401b03811681146139b257600080fd5b805169ffffffffffffffffffff811681146139b257600080fd5b60006020828403121561408257600080fd5b612f2b82613ed7565b6000806060838503121561409e57600080fd5b6140a783613ed7565b91506140b68460208501613eee565b90509250929050565b600080600080606085870312156140d557600080fd5b6140de85613ed7565b93506020850135925060408501356001600160401b038082111561410157600080fd5b818701915087601f83011261411557600080fd5b81358181111561412457600080fd5b88602082850101111561413657600080fd5b95989497505060200194505050565b6000806040838503121561415857600080fd5b61416183613ed7565b915060208301356001600160601b038116811461417d57600080fd5b809150509250929050565b60006040828403121561419a57600080fd5b612f2b8383613eee565b6000604082840312156141b657600080fd5b612f2b8383613eff565b6000602082840312156141d257600080fd5b81518015158114612f2b57600080fd5b6000602082840312156141f457600080fd5b5051919050565b600080600080600060a0868803121561421357600080fd5b853594506142236020870161403f565b935061423160408701614006565b925061423f6060870161402b565b915061424d6080870161402b565b90509295509295909350565b60008082840361024081121561426e57600080fd5b6101a08082121561427e57600080fd5b614286614812565b91506142928686613eff565b82526142a18660408701613eff565b60208301526080850135604083015260a0850135606083015260c085013560808301526142d060e08601613ed7565b60a08301526101006142e487828801613eff565b60c08401526142f7876101408801613eff565b60e0840152610180860135818401525081935061431686828701613f76565b925050509250929050565b6000806000806000808688036101c081121561433c57600080fd5b61434588614006565b96506143536020890161402b565b95506143616040890161402b565b945061436f6060890161402b565b93506080880135925061012080609f198301121561438c57600080fd5b614394614812565b91506143a260a08a0161402b565b82526143b060c08a0161402b565b60208301526143c160e08a0161402b565b60408301526101006143d4818b0161402b565b60608401526143e4828b0161402b565b60808401526143f66101408b01614018565b60a08401526144086101608b01614018565b60c084015261441a6101808b01614018565b60e084015261442c6101a08b01614018565b818401525050809150509295509295509295565b60006020828403121561445257600080fd5b5035919050565b60006020828403121561446b57600080fd5b612f2b8261403f565b6000806040838503121561448757600080fd5b6144908361403f565b91506140b660208401613ed7565b600080600080600060a086880312156144b657600080fd5b6144bf86614056565b945060208601519350604086015192506060860151915061424d60808701614056565b8060005b600281101561088c5781518452602093840193909101906001016144e6565b61450f81836144e2565b604001919050565b86815261452760208201876144e2565b61453460608201866144e2565b61454160a08201856144e2565b61454e60e08201846144e2565b60609190911b6bffffffffffffffffffffffff19166101208201526101340195945050505050565b83815261458660208201846144e2565b606081019190915260800192915050565b6040810161214e82846144e2565b600060208083528351808285015260005b818110156145d2578581018301518582016040015282016145b6565b818111156145e4576000604083870101525b50601f01601f1916929092016040019392505050565b60006060820161ffff86168352602063ffffffff86168185015260606040850152818551808452608086019150828701935060005b8181101561464b5784518352938301939183019160010161462f565b509098975050505050505050565b60006101c08201905061ffff8816825263ffffffff808816602084015280871660408401528086166060840152846080840152835481811660a08501526146ad60c08501838360201c1663ffffffff169052565b6146c460e08501838360401c1663ffffffff169052565b6146dc6101008501838360601c1663ffffffff169052565b6146f46101208501838360801c1663ffffffff169052565b62ffffff60a082901c811661014086015260b882901c811661016086015260d082901c1661018085015260e81c6101a090930192909252979650505050505050565b82815260608101612f2b60208301846144e2565b6000604082018483526020604081850152818551808452606086019150828701935060005b8181101561478b5784518352938301939183019160010161476f565b5090979650505050505050565b6000608082016001600160601b038716835260206001600160401b0387168185015260018060a01b0380871660408601526080606086015282865180855260a087019150838801945060005b818110156148025785518416835294840194918401916001016147e4565b50909a9950505050505050505050565b60405161012081016001600160401b0381118282101715614835576148356149c0565b60405290565b6000821982111561484e5761484e614968565b500190565b60006001600160401b0380831681851680830382111561487557614875614968565b01949350505050565b60006001600160601b0380831681851680830382111561487557614875614968565b6000826148af576148af61497e565b500490565b60008160001904831182151516156148ce576148ce614968565b500290565b6000828210156148e5576148e5614968565b500390565b60006001600160601b038381169083168181101561490a5761490a614968565b039392505050565b600060001982141561492657614926614968565b5060010190565b60006001600160401b038083168181141561494a5761494a614968565b6001019392505050565b6000826149635761496361497e565b500690565b634e487b7160e01b600052601160045260246000fd5b634e487b7160e01b600052601260045260246000fd5b634e487b7160e01b600052603160045260246000fd5b634e487b7160e01b600052603260045260246000fd5b634e487b7160e01b600052604160045260246000fdfea2646970667358221220a43c4b70d219407c2aadf6f77332be814a92faf8699f1c282811ad40b15af99764736f6c63430008060033","linkReferences":{}},"methodIdentifiers":{"BLOCKHASH_STORE()":"689c4517","LINK()":"1b6b6d23","LINK_ETH_FEED()":"ad178361","MAX_CONSUMERS()":"64d51a2a","MAX_NUM_WORDS()":"40d6bb82","MAX_REQUEST_CONFIRMATIONS()":"15c48b84","acceptOwnership()":"79ba5097","acceptSubscriptionOwnerTransfer(uint64)":"82359740","addConsumer(uint64,address)":"7341c10c","cancelSubscription(uint64,address)":"d7ae1d30","createSubscription()":"a21a23e4","deregisterProvingKey(uint256[2])":"08821d58","fulfillRandomWords((uint256[2],uint256[2],uint256,uint256,uint256,address,uint256[2],uint256[2],uint256),(uint64,uint64,uint32,uint32,address))":"af198b97","getCommitment(uint256)":"69bcdb7d","getConfig()":"c3f909d4","getCurrentSubId()":"06bfa637","getFallbackWeiPerUnitLink()":"356dac71","getFeeConfig()":"5fbbc0d2","getFeeTier(uint64)":"d2f9f9a7","getRequestConfig()":"00012291","getSubscription(uint64)":"a47c7696","getTotalBalance()":"12b58349","hashOfKey(uint256[2])":"caf70c4a","onTokenTransfer(address,uint256,bytes)":"a4c0ed36","oracleWithdraw(address,uint96)":"66316d8d","owner()":"8da5cb5b","ownerCancelSubscription(uint64)":"02bcc5b6","pendingRequestExists(uint64)":"e82ad7d4","recoverFunds(address)":"e72f6e30","registerProvingKey(address,uint256[2])":"6f64f03f","removeConsumer(uint64,address)":"9f87fad7","requestRandomWords(bytes32,uint64,uint16,uint32,uint32)":"5d3b1d30","requestSubscriptionOwnerTransfer(uint64,address)":"04c357cb","setConfig(uint16,uint32,uint32,uint32,int256,(uint32,uint32,uint32,uint32,uint32,uint24,uint24,uint24,uint24))":"4cb48a54","transferOwnership(address)":"f2fde38b","typeAndVersion()":"181f5a77"},"id":62}